:020000040000fa
:10200000f0ff0320690b03006b1603008329030014
:10201000cb310300b75e0300776b030000000000c4
:10202000000000000000000000000000216003002c
:10203000f32d030000000000611b03001d4e030090
:102040009f7403009f7403009f7403009f74030038
:102050009f7403009f7403009f7403009f74030028
:102060009f7403009f7403009f7403009f74030018
:102070009f740300ed6103000d6203009f74030071
:102080009f7403002d6203004d6203006d62030024
:10209000915f0300b55f0300d95f03000d5a030091
:1020a000355a03009f7403009f7403009f7403005c
:1020b0009f7403009f7403009f7403009f740300c8
:1020c0009f7403009f7403009f7403009f740300b8
:1020d0009f7403009f7403009f7403009f740300a8
:1020e0009f7403009f7403000000000000000000c4
:1020f000000000009f7403009f7403009f7403009e
:102100009f7403009f7403009f7403009f74030077
:102110009f7403009f740300c1220300c1220300c7
:10212000c1220300c1220300b9cc0200b9cc0200d5
:10213000b9cc0200b9cc0200a1200300a120030009
:10214000a1200300a120030011220300112203009b
:1021500011220300112203006922030069220300f7
:1021600069220300692203001923030019230300d5
:102170001923030019230300a5f7020031f9020017
:102180009f7403009f7403009f7403009f740300f7
:10219000000000009f7403009f7403009f740300fd
:1021a0009f7403009f7403009f7403009f740300d7
:1021b0009f7403009f7403009f7403009f740300c7
:1021c0009f7403009f7403009f7403009f740300b7
:1021d0009f7403009f7403009f7403009f740300a7
:1021e0009f7403009f7403009f7403009f74030097
:1021f0009f7403009f7403009f7403009f74030087
:102200009f7403009f7403009f7403009f74030076
:102210009f7403009f7403009f7403009f74030066
:102220009f7403009f7403009f7403009f74030056
:102230009f7403009f7403009f7403009f74030046
:102240009f7403009f7403009f7403009f74030036
:102250009f7403009f7403009f7403009f74030026
:020000040000fa
:10226000f8b500bff8bc08bc9e467047f1310300ca
:10227000f8b500bff8bc08bc9e467047cd310300de
:020000040000fa
:08228000d084020001000000ff
:020000040000fa
:102288002de9f04ff9b000247694779474948df882
:10229800d441adf8cc417194729470946d946e945d
:1022a8008df8bc416b94cdf8af41689469946a94f9
:1022b8006594669467946294639464945b945c9464
:1022c8005d945e945f946094619457945894599483
:1022d800adf8684151945294539454945594cdf860
:1022e80057419222214617a834f0b8fe1594169447
:1022f8001e22214605a834f0b1feb34fb34cdff8d7
:102308002c83dff82ca3dff82c93dff82cb331e211
:10231800af4b18682ef00afb0025aaf80050a9f860
:102328000050ac4b1d70ac4b1d802a4676a9ab4bb8
:1023380018682cf045fa2a4674a9a94b18682cf09d
:102348003ffa2a4673a9a74b18682cf039fa9df86a
:10235800df31012b40f0d8819df8d231002b40f0bd
:10236800d3819df8d1316d2b26d89df8d131632bbf
:1023780000f2ca819c4e689640238df8aa319b4d85
:102388000023642268a928682cf0fcf84ff47a70be
:1023980032f0d8f8689600238df886318df8aa3186
:1023a800642268a928682cf0edf8642032f0caf895
:1023b8008f4b01221a70a7e18e4b1d608e4b1d605a
:1023c800894b689340238df8aa31884e2b466422a6
:1023d80068a930682cf0d6f84ff47a7032f0b2f869
:1023e800814b68938df886518df8aa512b4664224b
:1023f80068a930682cf0c6f8642032f0a3f87c4b4a
:1024080001221a700c2388f80030aee77b4b6593e5
:1024180000258df898512b46642265a978480068f4
:102428002cf0b0f8642032f08df8764b62930126d8
:102438008df862618df88c618df863518df88d513e
:102448008df864518df88e512b46642262a96e482e
:1024580000682cf097f8642032f074f8624b6893a7
:102468008df884618df8a5612b46642268a95f48c0
:1024780000682cf087f8642032f064f82a4673a9c3
:10248800584b18682cf09cf99df8cc31b34240f0b9
:102498003b81574b02221a7036e1534d6895402311
:1024a8008df8aa31514e0023642268a930682cf0b7
:1024b80069f84ff47a7032f045f8689500258df880
:1024c80086518df8aa512b46642268a930682cf0f1
:1024d80059f8642032f036f82a4674a9404b186837
:1024e8002cf06ef9002800f00f819df8d131503b97
:1024f800dbb21d2b25d99df8d1316d2b0dd9434b5e
:102508001b78002b00f09a80414b00221a700c2394
:1025180088f80030012030f079f83e4b1b681e2bfc
:1025280040f3f2803b4b00221a60384b1b7823b9ea
:10253800394b4ff48032c3f898202d4b00221a7083
:10254800e2e0022030f062f8334b4ff48032c3f8f7
:102558009420092388f800302d4b01221a70254b4e
:102568001b6893420ed02d4b1b78022b18d0214ba1
:102578001b6813b91e4b03221a70264a13680133cd
:102588001360b8e72a468df84050022310a9244862
:1025980000682bf0f7ff234b18682ef0c7f9e2e725
:1025a8001e4b5b78012be2d1114b03221a700022db
:1025b8008df84420022311a91b4800682bf0e2ff84
:1025c8000d4b01221a60d2e7a39b01209c9a01209f
:1025d80074990120c29b012032930120509a012056
:1025e800549a0120789a012002c4ec15189a012007
:1025f800719b0120e09a0120e89a012001c4ec15a2
:10260800fc99012002d4ec15ec990120939b012040
:10261800989b0120cc9a012000800041889b0120d2
:10262800fc980120e49801200c9901206d9b012061
:102638007e9b0120869b0120a19b0120b84b4ff473
:102648008032c3f89820b74b18682cf0a9fe4ff6d3
:10265800ff7030f097ff0023b34a1360b34a13604a
:10266800b34b1b78002b7ff44fafb14b01221a708c
:10267800b04b18782ff004fa46e70025ae4b1d60e2
:10268800ae4b659308238df847318df89b312b4667
:10269800642265a9aa4800682bf074ff4ff47a7089
:1026a80031f050ffa74e68968df885518df8a851e6
:1026b8008df886518df8aa518df887518df8ab5158
:1026c8002b46642268a9a04800682bf05bff4ff4f2
:1026d8007a7031f037ff2a4673a99c4b18682cf0a2
:1026e8006ff8689602238df884318df8a5312b4652
:1026f800642268a9944800682bf044ff642031f0f4
:1027080021ff934b04221a7098f800308df851304d
:10271800baf80020adf84e20b9f80020adf84c20ea
:102728009bf800208df852203a788df850208df8cb
:1027380048300223002213a9864800682bf022ffa4
:102748000223002212a9844800682bf01bff23688b
:10275800012b0bd1002323607d4a13707f4b18682f
:102768002ef0e4f87e4b18682cf01afe4ff44870ef
:1027780031f0e8fe00220da97a4b18682cf020f8f9
:1027880028b1794a9df8343011880b441380704b76
:102798001b78dbb21e2bb7d801a252f823f000bf7a
:1027a8001923000015240000a3240000832600003c
:1027b8002528000011270000992800001127000093
:1027c8001127000011270000112700001127000021
:1027d8001127000011270000112700001127000011
:1027e800192a000011270000452b0000712d000058
:1027f800412e000011270000b93000001127000009
:1028080011270000112700001127000011270000e0
:102818001127000011270000553a0000002274a972
:10282800524b18682bf0ccff002273a9474b18684d
:102838002bf0c6ff9df8d231012b1fd09df8cc316b
:10284800fa2b02d0fc2b00d013b9414b00221a708e
:102858009df8d1316d2b7ff657af454b1b7823b9c7
:102868002f4b4ff48032c3f898200023414a13704d
:102878000c2288f80020364a137045e79df8d131bc
:10288800503bdbb21d2bd9d8314b06221a70d5e745
:102898000022274b1a7073a92c4b18682bf090ff55
:1028a8009df8cc31312b0ed91f4b1b68012b28d03a
:1028b800002b41f0128200226ba92f4b18682bf0d5
:1028c8007fff00285cd19df8cc31fa2b02d0fc2b7d
:1028d80000d053b9144a1268012a19d02ab91c4adf
:1028e80000211170104a012111600a2b7ff40cafee
:1028f800224b1b780133dbb2f02b79d01f4a1370bf
:1029080002e7134b10221a709df8cc31fa2bded156
:102918000f4a00211170044a01211160e5e700bf48
:102928000080004118990120e09a0120e89a0120ce
:10293800ce9b01208f9c0120cc9a012001c4ec156c
:10294800fc99012002c4ec15189a0120789a0120fc
:10295800719b0120f8980120b89801203c9901202a
:10296800049a01203899012032930120549a0120b9
:10297800939b0120989b0120609a0120da9b0120fb
:102988009df8ac318df838309df8ad318df839307f
:102998009df8ae318df83a309df8af318df83b3067
:1029a8009df8b0318df83c309df8b1318df83d304f
:1029b800022300220ea9534800682bf0e3fd9df87e
:1029c8003830002b3ff47faf4f4b01221a604f4b3a
:1029d80010221a7002238df84030002210a94c48aa
:1029e80000682bf0cffd4b4b18682df09fff6ae76e
:1029f8000023494a1370454a1370484b40f233127a
:102a08001a80474b02221a7011202ff039f87be602
:102a1800414b00221a70434b1b686bbb424b1b781f
:102a2800022b2dd1404b5b78012b29d115468df80f
:102a38004420022311a93d4800682bf0a3fd3c4b1c
:102a4800689301238df886318df8aa312b466422cc
:102a580068a9384800682bf095fd642031f072fdb4
:102a68002a4673a9344b18682bf0aafe274b12226a
:102a78001a700e202ff004f82a4b1b68012b22d065
:102a8800002273a92c4b18682bf09afe9df8cc31c4
:102a9800fa2b04d0fc2b02d0002b7ff435ae1b4b55
:102aa80000221a70184b01221a601c4b4ff49a72bc
:102ab8001a801b4b02221a70062032f0f5fa1120f8
:102ac8002ef0deff20e61a4b689301238df886313d
:102ad8008df8aa310023642268a9164800682bf0f3
:102ae80051fd642031f02efd002273a9124b1868a5
:102af8002bf066fe054b12221a700e202ef0c0ff36
:102b0800bee700bf00990120e09a0120719b0120d7
:102b1800fc980120e4980120da9b012036950120d9
:102b2800a79b0120e89a0120889b01200c9901208d
:102b380002c4ec15189a0120789a01200123a84aaa
:102b48001360a84a4ff40011c2f8181100224e92df
:102b5800a54a4f928df8403102238df84131002269
:102b68004ea9a24800682bf00dfda14b18682df066
:102b7800ddfe002271a99f4b18682bf021fe00286a
:102b880000f0d7809df8c4319df8c52102eb0322df
:102b9800994981fb0232931007ee903af8eee77af2
:102ba8009df8c6219df8c73103eb022381fb03235f
:102bb8009b1007ee103ab8eec77abdeec77a17ee4b
:102bc800103a8e4a92fbf3f303eb83035b0007eea4
:102bd800103ab8eec77a8a4b83ed007ab2ee047adf
:102be80067ee877a93ed007af4eec77af1ee10fa81
:102bf80048bfc3ed007a834b689300258df8aa512e
:102c08002b46642268a9804800682bf0bbfc64202e
:102c180031f098fc7d4b6593794ad2ed007afcee51
:102c2800e77a17ee903a8df89831d2ed007afceefb
:102c3800e77a17ee903ac3f307238df899315823b2
:102c48008df89a311b238df89b314ff010028df8c7
:102c58009c2127238df89d3114268df89e618df8cf
:102c68009f512b46642265a9694800682bf08afcad
:102c78004ff4967031f066fc8df898618df8995193
:102c8800c8238df89a318df89b518df89c618df889
:102c98009d5164268df89e618df89f515d4b65931b
:102ca8002b46324665a95a4800682bf06bfc4ff456
:102cb800967031f047fc02238df886318df8aa31e1
:102cc800504b68932b46324668a94f4800682bf052
:102cd80059fc304631f036fc10202ef0d1fe2a4641
:102ce80073a94d4b18682bf06bfd9df8cc21a2f110
:102cf8005b03dbb2092b08d8484b13221a70394bf7
:102d08004ff48012c3f8142113e0fa2a01d0fc2ae8
:102d180027d1424b00221a70414b40f235121a80db
:102d2800404b02221a70082032f0bef911202ef012
:102d3800a7fe00250e95adf83c5002232a460ea9a1
:102d4800394800682bf01efc8df8405002232a46b3
:102d580010a9364800682bf015fc354b1d809d7076
:102d6800d2e4002ad5d0e4e7002274a9314b1868d0
:102d78002bf026fd9df8d131312b7ff6c5ac194bd0
:102d8800d3f8203113f0807f19d101238df88531d4
:102d98008df8a8310c238df886318df8aa31194b9e
:102da80068930023642268a9174800682bf0eafb9f
:102db800642031f0c7fb194b14221a70a4e4174b96
:102dc80000221a70164b40f235121a80154b022257
:102dd8001a70072032f068f911202ef051fe93e4a2
:102de800e89a01200080004100004843ac99012086
:102df800b0990120689a0120676666667011010023
:102e08008099012002c4ec15189a012003c4ec151e
:102e1800fc99012004c0ec15789a0120719b0120cf
:102e280036950120a79b012000990120fc980120dc
:102e3800889b0120549a0120002270a9824b1868af
:102e48002bf0befc9df8c0319df8c12102eb032296
:102e58007e4981fb0232921007ee902af8eee77a5b
:102e68007b4bc3ed007a9df8c2219df8c33103eb7b
:102e7800022381fb03239b1007ee103ab8eec77ab2
:102e8800744b83ed007a4ff080434e93cded4f7a2b
:102e980001238df8403102238df8413100224ea9db
:102ea8006d4800682bf06efb6c4b18682df03efdea
:102eb8009df8c1318df8a4319df8c0318df8a53148
:102ec800674b68930023642268a9664800682bf062
:102ed80059fb642031f036fb002273a9624b186855
:102ee8002bf06efc00283ff40fac9df8cc31782b0a
:102ef8001ad09df8cc31fa2b04d0fc2b02d0002b31
:102f08007ff402ac594b1e221a70594b4ff49b7236
:102f18001a80584b02221a70082032f0c5f8112086
:102f28002ef0aefdfff7f0bb534b1e6834f0faf9f4
:102f38004ef660250095002302460121304630f008
:102f480061fa4e4b1e6834f0edf9009500230246f5
:102f58000121304630f056fa494b1e6834f0e2f948
:102f68000095002302460121304630f04bfa454bcc
:102f78001e6834f0d7f90095002302460121304637
:102f880030f040fa404b1e6834f0ccf9009500232d
:102f980002460121304630f035fa3c4b1e6834f0c9
:102fa800c1f90095002302460121304630f02afa83
:102fb80012202ef065fd03202ff028fb2b4b162244
:102fc8001a70334b187831f045f8642031f0bafaaa
:102fd800304d287831f05af8642031f0b3fa2e4e8b
:102fe800308831f06ff8642031f0acfa2b4908785a
:102ff80031f0a0f8642031f0a5fa2948007831f0c2
:103008007df8642031f09efa264a107831f0aef847
:10301800642031f097fa244b1a68244b1a603188df
:103028002b781b4a12781b0243ea014313433f9350
:103038001b480178194b1b781a4a12781b0243ea7d
:1030480001431343409354e7709a0120676666660c
:10305800549b0120ac9a0120ac990120b099012021
:1030680005c4ec15189a0120789a0120719b01205b
:1030780036950120a79b0120909a0120149b0120de
:10308800189b01201c9b0120209b01204c990120aa
:10309800b39b0120cc9b0120fa8c0120cb9b012003
:1030a800bc9b0120d89b01206c990120d899012054
:1030b800444b18682df03afc434b188830f022ff37
:1030c800424b1b78072b77d0002270a9404b186819
:1030d8002bf076fb002840f0978000226da93d4b2d
:1030e80018682bf06dfba0b13b4a13789df8b60128
:1030f8003a49c854062188f8001001331370334b3d
:103108001b78042b40f2a883304b1b78052b00f06a
:10311800ae83334b1b78052b00f0b1832e4b1b7805
:10312800052b00f025842f4b1b782bb92e4b1b78d1
:10313800dbb2012b00f03b842a4b1b78dbb2012b5e
:1031480000f040849df8cc31292b03d0fa2b01d014
:10315800fc2b12d1254b1e221a70092388f8003047
:10316800234bca221a80234b02221a700a2031f0fc
:103178009bff214b1a68214b1a609df8b431012b33
:1031880000f037841e4b1b78022b7ff4bdaa1c4b22
:103198009b78012b7ff4b8aa144b1e221a700923be
:1031a80088f80030164b00221a809a70124b1a6861
:1031b800124b1a60fff7a8ba124b187831f0b2fc1c
:1031c80082e700bf1899012032930120c29b012099
:1031d800709a01206c9a0120bf9b01202898012039
:1031e800c79b0120939b0120989b0120719b012084
:1031f80036950120a79b01206c990120e0990120b8
:10320800889b01207d9b01209df8c2219df8c33138
:1032180003eb0223ca4a82fb03139b0807ee903a8a
:10322800f8ee677ac74bc3ed007a9df8c0119df898
:10323800c13103eb012382fb03239b0807ee103afd
:10324800b8ee477ac04b83ed007a17ee900a31f05a
:10325800adf902460b46bd4905a833f06ffa1e21a9
:1032680005a82ef0a3f833f061fe0028fbd0b54b7b
:10327800d3ed007ab44bd3ed006a27eea67ab44baf
:1032880083ed007ab34b1b78002b40f08880b24b5b
:103298001a68b24b1a6093ed006ab4eec67af1ee82
:1032a80010fa35d5ae4b1b7833bb9fedae7a76ee70
:1032b800876acded4f6aa94b93ed006aaa4bd3ed0f
:1032c800006a86ee267af4eec77af1ee10fac0f2ba
:1032d800a480f5ee007a27ee277a8ded4e7a032347
:1032e8008df8413101238df84031022300224ea987
:1032f8009e4800682bf046f9994b1b78dbb2012bee
:1033080000f09880964b1b78dbb2012b00f0d98037
:10331800924bd3ed007a8e4b93ed007ab4eee77ab8
:10332800f1ee10fa3bdd8e4b1b7863bb864bd3ed79
:10333800007a9fed8c7a77ee877acded4f7a874bbe
:10334800d3ed006a884bd3ed007a86eea77a7d4be1
:10335800d3ed007ab4eee77af1ee10fa00f21681b6
:10336800f5ee007a27ee277a8ded4e7a03238df855
:10337800413101238df84031022300224ea97b48b8
:1033880000682bf0fff8764b1b78dbb2012b00f0be
:103398000a81734b1b78dbb2012b00f04b816d4b1c
:1033a8001b78dbb2012b00f084819df8c2019df8e7
:1033b800c3516f4e32784fea820c6e49614405eb77
:1033c8000023dff87ce18efb03e39b0807ee903acd
:1033d800f8ee677ac1ed007a674b9c44624b1b6834
:1033e800ccf80030013232709df8c1318df8a4312b
:1033f8009df8c0318df8a5318df8a6518df8a7013b
:103408005e4b68930023642268a95d4800682bf02e
:10341800b9f8322031f096f85fe6f4eec77af1eeab
:1034280010fa7ff55cafb5ee007a67ee877acdedde
:103438004e7a54e7534b1b78dbb2112b7ff662af01
:10344800514b4ff40012c3f818213f4bd3ed007acb
:103458009fed447a77ee877acded4f7a3f4bd3ede7
:10346800007ab6ee007a67ee877a3f4bd3ed006ab2
:1034780087eea67a334bd3ed007ab4eee77af1ee15
:1034880010fa12d8f6ee007a27ee277a8ded4e7aea
:1034980002238df8413101228df8402100224ea9e6
:1034a800324800682bf06ef832e7b4eee77af1eeb6
:1034b80010faedddb6ee007a67ee877acded4e7a3a
:1034c800e6e7304b1b78dbb2112b3ff621af1e4be2
:1034d800d3ed007a9fed237a77ee877acded4f7a98
:1034e8001e4bd3ed006a204bd3ed007a86eea77a07
:1034f800144bd3ed007ab4eee77af1ee10fa13d854
:10350800f5ee007a27ee277a8ded4e7a03238df8b3
:10351800413101238df84031022300224ea913487e
:1035280000682bf02ff8f3e6b4eee77af1ee10fa24
:10353800ecddb5ee007a67ee877acded4e7ae5e7f9
:1035480067666666ac9a0120549b012074410100ad
:103558000c9b01209f9b0120a89d01209899012088
:10356800939b012000000000b09d0120ac99012030
:10357800c79b01202c9601205496012005c4ec1508
:10358800189a01208f9b012000800041b4eee77a51
:10359800f1ee10fa7ff7eaaeb5ee007a67ee877ab9
:1035a800cded4e7ae2e6bf4b1b78dbb2112b7ff6ee
:1035b800f0aebd4b4ff40012c3f81821bb4bd3ed4e
:1035c800007a9fedbb7a77ee877acded4f7ab94bcb
:1035d800d3ed007ab6ee007a67ee877ab64bd3ed74
:1035e800006a87eea67ab54bd3ed007ab4eee77a97
:1035f800f1ee10fa12d8f6ee007a27ee277a8ded62
:103608004e7a02238df8413101228df840210022a3
:103618004ea9ab4800682af0b5ffc0e6b4eee77ad9
:10362800f1ee10faedddb6ee007a67ee877acdedb1
:103638004e7ae6e79b4b1b78dbb2112b3ff6afae19
:103648009a4bd3ed007a9fed9a7a77ee877acded93
:103658004f7a984bd3ed006a974bd3ed007a86eefc
:10366800a77a964bd3ed007ab4eee77af1ee10fa2a
:1036780013d8f5ee007a27ee277a8ded4e7a0323dc
:103688008df8413101238df84031022300224ea9e3
:103698008b4800682af076ff81e6b4eee77af1ee0f
:1036a80010faecddb5ee007a67ee877acded4e7a4a
:1036b800e5e7844b1b785bbb7c4bd3ed007a9fed31
:1036c8007c7a77ee877acded4f7a7f4bd3ed006a1f
:1036d800794bd3ed007a86eea77a784bd3ed007a52
:1036e800b4eee77af1ee10fa50d8f5ee007a27ee4c
:1036f800277a8ded4e7a03238df8413101238df819
:103708004031022300224ea96d4800682af03aff92
:103718006c4b1b78dbb2012b44d06a4b1b78dbb2b5
:10372800012b7ff442ae5f4b1b78dbb2112b3ff6c7
:103738003cae5e4bd3ed007a9fed5d7a77ee877aeb
:10374800cded4f7a604bd3ed006a5b4bd3ed007a39
:1037580086eea77a594bd3ed007ab4eee77af1ee0c
:1037680010fa6dd8f5ee007a27ee277a8ded4e7aad
:1037780003238df8413101238df8403102230022c3
:103788004ea94f4800682af0fdfe0ee6b4eee77a2f
:10379800f1ee10faafddb5ee007a67ee877acded7f
:1037a8004e7aa8e73f4b1b78dbb2112bb5d93e4bbd
:1037b8004ff40012c3f81821434b93ed007adfed64
:1037c800437ab4eee77af1ee10fac8bfc3ed007a97
:1037d800364bd3ed007a9fed367a77ee877acdedca
:1037e8004f7a394bd3ed006a334bd3ed007a86ee2e
:1037f800a77a324bd3ed007ab4eee77af1ee10fafd
:1038080012d8f6ee007a27ee277a8ded4e7a02234b
:103818008df8413101228df8402100224ea9284817
:1038280000682af0affec0e5b4eee77af1ee10fad0
:10383800edddb6ee007a67ee877acded4e7ae6e7f3
:10384800b4eee77af1ee10fa92ddb5ee007a67eea3
:10385800877acded4e7a8be731f064f99df8b62181
:103868001b4b1a701b4a1378013313704ce4194b25
:1038780007221a709df8b6318bf8003049e44ff0f2
:10388800000c154b83f800c0baf80010b9f8000016
:10389800124b134a03f1140ecdf80cc01e46154600
:1038a800029121e08f9b012000800041549b012060
:1038b8000000000098990120b09d0120ac9a0120d9
:1038c800ac990120939b0120a099012000b80847da
:1038d8007d9b0120c29b0120c79b01202c960120c3
:1038e80054960120734525d0f3ec017a96ed007ac1
:1038f800b4eee77af1ee10fa09d8c6ed007afceedc
:10390800e77a17ee901a89b202914ff0010cf2eca7
:10391800017a95ed007ab4eee77af1ee10fae1d883
:10392800c5ed007afceee77a17ee901a88b201210d
:103938000391d7e70299bcf1000f01d0aaf8001053
:10394800039b0bb1a9f80000344bd3ed007afceed1
:10395800e77a17ee900a30f00dfb314bd3ed007a81
:10396800fceee77a17ee900a30f0e8fafff7d6bbdc
:1039780000252c4b1d7097f800c02b4b5e1d184678
:103988004ff0010e01e0b34208d013f8012b017883
:103998009142f8d8027094467546f4e70db187f85d
:1039a80000c0214b187831f0a5f8fff7bcbb002206
:1039b8008df84420022311a91c4800682af0e2fd72
:1039c800fff7babb1a4b1b78dbb2012b7ff4baabfb
:1039d800184b1b78dbb2132b7ff6b4ab00228df8a3
:1039e8004420022311a9114800682af0cbfdfff7f3
:1039f800a9bb114b1e221a70092388f800300f4bff
:103a0800c9221a800e4b02221a700a2031f04cfb90
:103a18000c4b1a680c4b1a60fff7b4bb2c960120ac
:103a280054960120bf9b0120289801200c99012061
:103a3800989b01208f9b0120719b012036950120c6
:103a4800a79b01206c990120e0990120a74b1b78c6
:103a5800dbb2012b00f00981a54b1b78dbb2012bef
:103a680000f019814ff003038df884318df8a531ea
:103a7800a04b6893a04e0023642268a930682af0fe
:103a880081fd322030f05efd00258df8a4518df8bf
:103a9800a5519a4a68922b46642268a930682af090
:103aa80071fd322030f04efd95494ff48010c1f879
:103ab8001801944b1a68944b1a608c4b1d700223a2
:103ac8008df841318df840512a464ea98f4800683b
:103ad8002af058fd40f6b83030f034fd4ff00300be
:103ae8008df8a501834b68932b46642268a801468c
:103af80030682af047fd322030f024fd8df8a451bb
:103b08008df8a5517d4a68922b46642268a8014623
:103b180030682af037fd322030f014fd78494ff430
:103b28008013c1f818310a2300932b462a46032133
:103b3800774800682ff066fc764b187830f032fb37
:103b4800754b187830f04afb744b188830f062fbdc
:103b5800734b187830f096fb724b187830f076fb80
:103b6800714b187830f0aafb704b186830f0defb08
:103b78006f4b1b78dbb2012b00f0a3806c4b1b78da
:103b8800dbb2022b00f0a180694b1b78dbb2032b60
:103b980000f09f805c4bd3ed007afceee77a654b32
:103ba80093ed007abceec77a17ee903a17ee102a1a
:103bb8009b1a07ee903af8ee677a5f4dc5ed007aea
:103bc800fceee77a17ee900a30f094fb5b4b152277
:103bd8001a7004202ef01afd544b1b683e934f4b6d
:103be80019884d4b1b784b4a12781b0243ea014354
:103bf800134341934b4b1978494b1b784a4a127827
:103c08001b0243ea0143134342934d4b1a783b7816
:103c180043ea02434393d5ed007afceee77a17eec8
:103c2800903a43f400334493414b1a78454d2b881e
:103c380043ea0243459302238df8f03000236422bf
:103c48003ca9414800682af09dfc404b18682cf0bc
:103c58006dfe0123236000222a803d4a13703d4aed
:103c680013703d4a1370fef74fbd214b1b78002b94
:103c78007ff4f2ae00228df8402103238df8413104
:103c880002234ea9214800682af07cfc40f6b8308f
:103c980030f058fce0e6154b1b78dbb2012b7ff4c3
:103ca800e1ae00228df8402102238df841314ea962
:103cb800164800682af066fc40f6b83030f042fc3e
:103cc800d0e6012031f0f0f958e7022031f0ecf9a4
:103cd8005ae7032031f0e8f95ce79df8cc31fa2b7c
:103ce8007ef4f5ad1d4a1268fef7f8bd989b0120d9
:103cf800939b012002c4ec15189a012005c4ec1509
:103d0800008000416c990120e0990120ac990120c4
:103d18004c990120b39b0120cc9b0120fa8c0120f7
:103d2800cb9b0120bc9b0120d89b0120a49801209b
:103d3800a69b0120d8990120cc9801208f9c0120b6
:103d48007d9b01203293012024990120289901208c
:103d5800979b0120969b0120959b0120e09a0120ca
:020000040000fa
:103d68002de9f04ff1b000246e946f946c94cdf867
:103d7800b3416a948df8ac41adf8a4416794689456
:103d88006694639464948df8944160946194629409
:103d98005d945e945f945a945b945c9453945494a9
:103da800559456945794589459944f9450945194c8
:103db800adf8484149944a944b944c944d94cdf8ad
:103dc8003741469447944894922221460fa833f0ed
:103dd80045f90d940e94b34eb34fdff82c83dff8fa
:103de8002c93dff82cb3dff82ca32de2af4b186827
:103df8002cf09cfd0024ae4b1c70a9f80040abf8d9
:103e08000040ac4b1c8022466ea9ab4b18682af0c8
:103e1800d7fc22466aa9a94b18682af0d1fc224689
:103e280069a9a74b18682af0cbfc9df8bf31012b74
:103e380040f0d2819df8aa31002b40f0cd819df849
:103e4800a9316d2b26d89df8a931632b00f2c481c6
:103e58009c4d609540238df88a319b4c0023642249
:103e680060a920682af08efb4ff47a7030f06afb64
:103e7800609500238df851318df88a31642260a94c
:103e880020682af07ffb642030f05cfb8f4b012216
:103e98001a70a1e18e4b1c608e4b1c60894b60939d
:103ea80040238df88a31884d2346642260a928680a
:103eb8002af068fb4ff47a7030f044fb814b609332
:103ec8008df851418df88a412346642260a92868fb
:103ed8002af058fb642030f035fb7c4b01221a7025
:103ee8000c2388f80030aee77b4b5d9300248df8f7
:103ef8007841234664225da9784800682af042fb8d
:103f0800642030f01ffb764b5a9301258df84251ff
:103f18008df86c518df843418df86d418df8444111
:103f28008df86e41234664225aa96e4800682af02b
:103f380029fb642030f006fb624b60938df84f51eb
:103f48008df885512346642260a95f4800682af0ed
:103f580019fb642030f0f6fa224669a9584b186814
:103f68002af02efc9df8a431ab4240f03581574b26
:103f780002221a7030e1534c609440238df88a3144
:103f8800514d0023642260a928682af0fbfa4ff4f7
:103f98007a7030f0d7fa609400248df851418df88a
:103fa8008a412346642260a928682af0ebfa642033
:103fb80030f0c8fa22466aa9404b18682af000fc7b
:103fc800002800f009819df8a931503bdbb21d2b78
:103fd80025d99df8a9316d2b0dd9434b1b78002ba2
:103fe80000f09a80414b00221a700c2388f80030a8
:103ff800012030f07dff3e4b1b681e2b40f3ec8008
:104008003b4b00221a60384b1b7823b9394b4ff4cd
:104018008032c3f898202d4b00221a70dce0022071
:1040280030f066ff334b4ff48032c3f894200923f5
:1040380088f800302d4b01221a70254b1b689342db
:104048000ed02d4b1b78012b18d0214b1b6813b9b0
:104058001e4b03221a70264a136801331360b8e70f
:1040680022468df82040022308a9244800682af037
:1040780089fa234b18682cf059fce2e71e4b5b7851
:10408800012be2d1114b03221a7000228df8242053
:10409800022309a91b4800682af074fa0d4b012273
:1040a8001a60d2e7a29b0120989a012074990120f6
:1040b800c19b0120fe920120209a0120249a012010
:1040c800489a012002c0ec15189a01208f9b012004
:1040d800dc9a0120e49a012001c0ec15fc9901202a
:1040e80002d0ec15ec990120989b0120939b0120ac
:1040f800c89a0120008000418c9b0120fc98012077
:10410800e49801200c9901202d980120769b01202c
:10411800829b0120a09b0120af4b4ff48032c3f853
:104128009820ae4b18682bf03bf94ff6ff702ff034
:1041380029fa0023aa4a1360aa4a1360aa4b1b78db
:10414800002b7ff44fafa84b01221a70a74b1878a9
:104158002df096fc46e70024a54b1c60a54b5d930b
:1041680008238df825318df87b31234664225da91b
:10417800a14800682af006fa4ff47a7030f0e2f9a4
:104188009e4d60958df850418df888418df85141cc
:104198008df88a418df852418df88b41234664226f
:1041a80060a9974800682af0edf94ff47a7030f06a
:1041b800c9f9609502238df84f318df88531234672
:1041c800642260a98e4800682af0dcf9642030f087
:1041d800b9f98c4b04221a7098f800308df83130f8
:1041e800b9f80030adf82e30bbf80030adf82c30ff
:1041f8009af800308df8323033788df83030022359
:1042080000220ba9804800682af0bcf998f8003011
:104218008df82830022300220aa97c4800682af079
:10422800b1f93b68012b0bd100233b60754a137031
:10423800774b18682cf07afb764b18682bf0b0f89f
:104248004ff4fa7030f07ef96e4b1b78dbb21e2b00
:10425800c2d801a252f823f0f53d0000f13e00005b
:104268007f3f00005f410000dd420000e1410000a7
:1042780051430000e1410000e1410000e14100003c
:10428800e1410000e1410000e1410000e14100009e
:10429800e1410000e1410000c7440000e1410000a5
:1042a800f54500002d48000005490000e1410000e7
:1042b8007d4b0000e1410000e1410000e1410000c8
:1042c800e1410000e1410000e1410000e14100005e
:1042d8000155000000226aa94f4b18682af070faad
:1042e800002269a94d4b18682af06afa9df8aa318c
:1042f800012b1fd09df8a431fa2b02d0fc2b00d043
:1043080013b9404b00221a709df8a9316d2b7ff626
:1043180063af434b1b7823b92f4b4ff48032c3f85c
:10432800982000233f4a13700c2288f80020354a51
:10433800137051e79df8a931503bdbb21d2bd9d83a
:10434800304b06221a70d5e70022274b1a7069a94c
:10435800324b18682af034fa9df8a431312b0ed963
:104368001f4b1b68012b28d0002b41f00482002230
:104378006ca92d4b18682af023fa002858d19df80b
:10438800a431fa2b02d0fc2b00d053b9144a12687e
:10439800012a19d02ab91b4a00211170104a01219b
:1043a80011600a2b7ff418af204b1b780133dbb266
:1043b800f02b74d01d4a13700ee7124b10221a709e
:1043c8009df8a431fa2bded10e4a00211170044a5f
:1043d80001211160e5e700bf008000411899012024
:1043e800dc9a0120e49a0120cd9b01208f9c0120ba
:1043f800c89a012001c0ec15fc99012002c0ec15f7
:10440800189a01208f9b0120f4980120b49801206c
:1044180030990120f4990120249a0120489a01201a
:10442800989b0120939b0120309a0120d99b012061
:104438009df8b0318df818309df8b1318df81930ec
:104448009df8b2318df81a309df8b3318df81b30d4
:104458009df8b4318df81c309df8b5318df81d30bc
:104468000223002206a9534800682af08bf89df819
:104478001830002b83d001234f4a13604f4a102174
:1044880011708df820304e4b18682cf04ffa02232b
:10449800002208a94b4800682af074f86fe7002347
:1044a800494a1370454a1370484b40f233121a8038
:1044b800474b01221a7008202df0e2fa8ce6424b95
:1044c80000221a70434b1b6873bb434b1b78012bac
:1044d8002ed1414b5b78012b2ad114468df824202c
:1044e800022309a93d4800682af04cf83c4b609328
:1044f80001238df851318df88a312346642260a951
:10450800384800682af03ef8642030f01bf84ff471
:104518007a7269a9344b18682af052f9274b12228b
:104528001a7005202df0acfa2a4b1b68012b21d0fc
:10453800002269a92c4b18682af042f99df8a43189
:10454800fa2b04d0fc2b02d0002b7ff445ae1b4b7a
:1045580000221a700123184a13601c4a4ff49a71fa
:1045680011801b4a1370062030f088fd08202df0ba
:1045780087fa31e61a4b609301238df851318df893
:104588008a310023642260a91648006829f0faffde
:1045980064202ff0d7ff4ff47a7269a9124b18687c
:1045a8002af00ef9054b12221a7005202df068fa30
:1045b800bee700bf00990120dc9a01208f9b0120f3
:1045c800e4980120fc980120d99b01203695012010
:1045d800a79b0120e49a01208c9b01200c990120c3
:1045e80002c0ec15189a0120489a0120ad4b4ff4ef
:1045f8000012c3f8182100234693ab4b47930124bc
:104608008df820418df821410023642246a9a7484e
:10461800006829f0b7ffa64b18682cf087f9a54b5e
:104628001c60002267a9a44b18682af0c9f8002862
:1046380000f0d3809df89c319df89d2102eb032268
:104648009e4981fb0232931007ee903af8eee77a22
:104658009df89e219df89f3103eb022381fb0323e4
:104668009b1007ee103ab8eec77abdeec77a17ee80
:10467800103a934a92fbf3f303eb8303a34007ee4c
:10468800103ab8eec77a8f4b83ed007ab2ee047a0f
:1046980067ee877a93ed007af4eec77af1ee10fab6
:1046a80048bfc3ed007a884b609300248df88a4197
:1046b8002346642260a98548006829f063ff6420c6
:1046c8002ff040ff824b5d937e4ad2ed007afceedc
:1046d800e77a17ee903a8df87831d2ed007afcee51
:1046e800e77a17ee903ac3f307238df87931582308
:1046f8008df87a311b238df87b3110238df87c31ae
:1047080027238df87d3114258df87e518df87f4152
:10471800234664225da96f48006829f033ff4ff4ef
:10472800fa702ff00fff8df878518df87941c82372
:104738008df87a318df87b418df87c518df87d416b
:1047480064258df87e518df87f41634b5d93234638
:104758002a465da95f48006829f014ff4ff4fa70f3
:104768002ff0f0fe02238df851318df88a3103f1d4
:10477800af5303f54c23609323462a4660a9534858
:10478800006829f0fffe4ff4fa702ff0dbfe0720d7
:104798002df076f9224669a9504b18682af010f8ce
:1047a8009df8a4315b3bdbb2092b2ed99df8a431cf
:1047b800fa2b02d0fc2b00d07bb9494b00221a708f
:1047c800484b40f235121a80474b01221a700820d4
:1047d80030f054fc08202df053f900240694adf86d
:1047e8001c408df820400223224608a93f48006853
:1047f80029f0c8fe0223224606a93d48006829f090
:10480800c1fe3c4b1c809c70e6e4354b13221a70a9
:104818004ff47a702ff096fe224b4ff40022c3f823
:104828001421c3e700226aa9334b186829f0c8ff8e
:104838009df8a931312b1ed91a4bd3f8a03013f4a7
:10484800000f1dd101238df850318df888310c23cc
:104858008df851318df88a311b4b60930023642207
:1048680060a91a48006829f08dfe64202ff06afebe
:104878001b4b14221a704ff47a702ff063feabe4ce
:10488800174b00221a70174b40f235121a80164b3c
:1048980001221a70072030f0f1fb08202df0f0f803
:1048a800e9e700bf0080004100004843ac990120bf
:1048b800b0990120e49a0120389a0120676666665b
:1048c800701101007c99012002c0ec15189a012092
:1048d80003c0ec15fc99012004c0ec15489a01208e
:1048e8008f9b012036950120a79b0120fc98012071
:1048f800009901208c9b0120249a0120002266a99e
:10490800824b186829f05cff9df898319df8992131
:1049180002eb03227e4981fb0232921007ee902ab5
:10492800f8eee77a7b4bc3ed007a9df89a219df863
:104938009b3103eb022381fb03239b1007ee103a04
:10494800b8eec77a744b83ed007a4ff080434693f4
:10495800cded477a01238df820318df821310023e0
:10496800642246a96d48006829f00cfe6c4b186853
:104978002bf0dcff9df899318df884319df8983142
:104988008df88531674b60930023642260a96648df
:10499800006829f0f7fd0a202ff0d4fd002269a94c
:1049a800624b186829f00cff00283ff415ac9df8fd
:1049b800a431782b1ad09df8a431fa2b04d0fc2b03
:1049c80002d0002b7ff408ac594b1e221a70594ba9
:1049d8004ff49b721a80584b01221a70082030f04d
:1049e8004dfb08202df04cf8fff7f6bb534b1d6824
:1049f80032f098fc4ef66024009400230246012110
:104a080028462ef0fffc4e4b1d6832f08bfc0094bc
:104a180000230246012128462ef0f4fc494b1d686c
:104a280032f080fc009400230246012128462ef033
:104a3800e9fc454b1d6832f075fc009400230246e2
:104a4800012128462ef0defc404b1d6832f06afc3e
:104a5800009400230246012128462ef0d3fc3c4b4b
:104a68001d6832f05ffc00940023024601212846ad
:104a78002ef0c8fc09202df003f8032030f038fa96
:104a88002b4b16221a70334b18782ff0b3f864208a
:104a98002ff058fd304c20782ff0c8f864202ff004
:104aa80051fd2e4d28882ff0ddf864202ff04afda7
:104ab8002b4908782ff00ef964202ff043fd294880
:104ac80000782ff0ebf864202ff03cfd264a107890
:104ad8002ff01cf964202ff035fd244b1a68244b65
:104ae8001a60298823781b4a12781b0243ea01437b
:104af800134337931b480178194b1b781a4a1278cd
:104b08001b0243ea01431343389354e7409a0120b8
:104b180067666666509b0120a89a0120ac9901201f
:104b2800b099012005c0ec15189a0120489a012077
:104b38008f9b012036950120a79b012048990120d1
:104b4800909a0120149b0120189b01201c9b012096
:104b5800209b0120b39b0120cc9b0120fa8c0120d3
:104b6800cb9b0120bc9b0120d89b01206899012088
:104b7800d4990120002205a9bd4b186829f020fe10
:104b880028b1bc4a9df8143011880b441380ba4be5
:104b980018682bf0cbfeb74b18882ef083ffb74b65
:104ba8001b78072b00f0a281002266a9b44b186875
:104bb80029f006fe002800f0ee809df89a319df855
:104bc8009b2102eb0322af4981fb0232930807eed7
:104bd800103ab8ee477aac4b83ed007a9df89821ed
:104be8009df8993103eb022381fb03239b0807ee11
:104bf800903af8ee677aa54bc3ed007a67ee276a1c
:104c0800a34bc3ed006aa34b1b78002b40f08880b0
:104c1800a14b1a68a14b1a6093ed006af4eec66abc
:104c2800f1ee10fa35d59e4b1b7833bbdfed9d6a4c
:104c380077eea67acded477a984b93ed006a9a4bba
:104c4800d3ed006ac6ee267ab4eee77af1ee10faf2
:104c5800c0f25181b5ee007a67ee877acded467adb
:104c680003238df8213101238df8203102230022fe
:104c780046a98e48006829f085fc894b1b78dbb271
:104c8800012b00f04581864b1b78dbb2012b00f02d
:104c98008681824bd3ed007a7d4b93ed007ab4ee9a
:104ca800e77af1ee10fa3bdd7d4b1b7863bb774b5f
:104cb800d3ed007a9fed7b7a77ee877acded477a50
:104cc800764bd3ed006a784b93ed007ac6ee877a7f
:104cd8006d4b93ed007af4eec77af1ee10fa00f21c
:104ce8009d81b5ee007a67ee877acded467a03238b
:104cf8008df8213101238df820310223002246a9a5
:104d08006a48006829f03efc654b1b78dbb2012b32
:104d180000f09181624b1b78dbb2012b00f0d2814d
:104d28005c4b1b78dbb2012b00f00b82604c2278c5
:104d38009500604b2b445c49096819609df89a11ed
:104d48009df89b015c4b1d4400eb0123dff834c147
:104d58008cfb03c39b0807ee903af8ee677ac5ed23
:104d6800007a013222709df899318df884319df8ce
:104d780098318df885318df886018df887114f4b64
:104d880060930023642260a94d48006829f0fafb6b
:104d980032202ff0d7fb002263a94a4b186829f06c
:104da8000ffda0b1484a13789df88e014749c854b1
:104db800062188f8001001331370304b1b78042b40
:104dc80040f2ab822d4b1b78052b00f0b182384b9b
:104dd8001b78052b00f0b4823b4b1b78052b00f0a9
:104de80007833b4b1b78dbb2012b00f01f83384b4a
:104df8001b78dbb2012b00f028839df8a431292b06
:104e080003d0fa2b01d0fc2b12d1324b1e221a7080
:104e1800092388f80030304bca221a802f4b012210
:104e28001a700a2030f02af92d4b1a682d4b1a6097
:104e38009df88c31012b00f01e832b4b1b78012b26
:104e48007ff4caa9284b9b78012b7ff4c5a9214b75
:104e58001e221a70092388f80030234b00221a807a
:104e68009a701f4b1a681f4b1a60fff7b5b900bf3d
:104e78002c990120fe92012018990120c19b012044
:104e8800409a012067666666a89a0120509b012017
:104e9800089b01209e9b0120a89d01209899012034
:104ea800989b012000000000ac9d0120ac990120d6
:104eb800c69b0120409601201896012005c0ec15dc
:104ec800189a01203c9a0120be9b012020980120bd
:104ed800939b01208f9b012036950120a79b0120e1
:104ee80068990120dc9901208c9b0120cc4b187813
:104ef8002ff0b8fd58e6b4eee77af1ee10fa7ff538
:104f0800afaef5ee007a27ee277a8ded467aa7e662
:104f1800c44b1b78dbb2112b7ff6b5aec24b4ff4f6
:104f28000012c3f81821c14bd3ed007a9fedc07a67
:104f380077ee877acded477abe4bd3ed007ab6eea1
:104f4800007a67ee877abc4bd3ed006a87eea67ac3
:104f5800ba4bd3ed007ab4eee77af1ee10fa12d834
:104f6800f6ee007a27ee277a8ded467a01238df842
:104f780021318df820310223002246a9b04800686b
:104f880029f000fb85e6b4eee77af1ee10faeddde4
:104f9800b6ee007a67ee877acded467ae6e7a14b62
:104fa8001b78dbb2112b3ff674aea04bd3ed007a21
:104fb8009fed9f7a77ee877acded477a9d4bd3edbb
:104fc800006a9d4bd3ed007a86eea77a9b4bd3ed12
:104fd800007ab4eee77af1ee10fa13d8f5ee007a1b
:104fe80027ee277a8ded467a03238df821310123a8
:104ff8008df820310223002246a99148006829f043
:10500800c1fa46e6b4eee77af1ee10faecddb5ee59
:10501800007a67ee877acded467ae5e7f4eec77a4f
:10502800f1ee10fa7ff763aef5ee007a27ee277af5
:105038008ded467a5be67b4b1b78dbb2112b7ff656
:1050480069ae794b4ff40012c3f81821774bd3edb2
:10505800007a9fed777a77ee877acded477a754bb0
:10506800d3ed007ab6ee007a67ee877a724bd3ed0d
:10507800006a87eea67a714bd3ed007ab4eee77a30
:10508800f1ee10fa12d8f6ee007a27ee277a8dedb7
:10509800467a01238df821318df820310223002230
:1050a80046a96748006829f06dfa39e6b4eee77a50
:1050b800f1ee10faedddb6ee007a67ee877acded07
:1050c800467ae6e7574b1b78dbb2112b3ff628ae42
:1050d800564bd3ed007a9fed567a77ee877acded71
:1050e800477a544bd3ed006a534bd3ed007a86eee2
:1050f800a77a524bd3ed007ab4eee77af1ee10fac4
:1051080013d8f5ee007a27ee277a8ded467a032339
:105118008df8213101238df820310223002246a980
:105128004748006829f02efafae5b4eee77af1ee7e
:1051380010faecddb5ee007a67ee877acded467aa7
:10514800e5e7404b1b785bbb384bd3ed007a9fed0e
:10515800387a77ee877acded477a3b4bd3ed006a04
:10516800354b93ed007ac6ee877a344b93ed007a8f
:10517800f4eec77af1ee10fa68d8b5ee007a67ee69
:10518800877acded467a03238df8213101238df8f6
:1051980020310223002246a92948006829f0f2f9a3
:1051a800284b1b78dbb2012b5cd0264b1b78dbb27b
:1051b800012b7ff4bbad1b4b1b78dbb2112b3ff6e9
:1051c800b5ad1a4bd3ed007a9fed197a77ee877a51
:1051d800cded477a1c4bd3ed006a174bd3ed007a1f
:1051e80086eea77a154bd3ed007ab4eee77af1eea6
:1051f80010fa00f28580f5ee007a27ee277a8ded19
:10520800467a03238df8213101238df820310223ba
:10521800002246a90a48006829f0b4f986e500bfcb
:10522800759b0120719b012000800041509b01204b
:105238000000000098990120ac9d0120a89a012047
:10524800ac990120989b01209c990120f4eec77a23
:10525800f1ee10fa97ddf5ee007a27ee277a8ded5c
:10526800467a90e78d4b1b78dbb2112b9dd98c4b7e
:105278004ff40012c3f818218a4b93ed007adfed42
:105288008a7ab4eee77af1ee10fac8bfc3ed007a75
:10529800864bd3ed007a9fed867a77ee877acded4f
:1052a800477a804bd3ed006a824bd3ed007a86eec5
:1052b800a77a814bd3ed007ab4eee77af1ee10fad3
:1052c80012d8f6ee007a27ee277a8ded467a01237a
:1052d8008df821318df820310223002246a9774824
:1052e800006829f04ff921e5b4eee77af1ee10fafb
:1052f800edddb6ee007a67ee877acded467ae6e721
:10530800b4eee77af1ee10fa7ff77bafb5ee007aec
:1053180067ee877acded467a73e72ff0a3fb684aec
:105328001378013313709df88e21664b1a7049e586
:105338009df88e318af80030614b07221a7046e5d5
:105348004ff0000c604b83f800c0b9f80010bbf8b0
:1053580000005e4b5e4a03f1140ecdf80cc01d46ea
:105368001446029101e0734525d0f3ec017a95edde
:10537800007ab4eee77af1ee10fa09d8c5ed007ab2
:10538800fceee77a17ee901a89b202914ff0010c01
:10539800f2ec017a94ed007ab4eee77af1ee10fac5
:1053a800e1d8c4ed007afceee77a17ee901a88b2dd
:1053b80001210391d7e70299bcf1000f01d0a9f8a8
:1053c8000010039b0bb1abf80000404bd3ed007a03
:1053d800fceee77a17ee900a2ef09cfb3c4bd3eddf
:1053e800007afceee77a17ee900a2ef077fbf3e4ea
:1053f8000024384b1c7096f800c0374b5d1d1846ca
:105408004ff0010e01e09d4208d013f8012b0178fe
:105418009142f8d8027094467446f4e70cb186f8c5
:1054280000c02d4b18782ff005fbdae42b4b1b78c6
:10543800002b7ff4dcac00228df82420022309a97c
:105448002748006829f09ef8d1e4244b1b78dbb28a
:10545800012b7ff4d2ac114b1b78dbb2132b7ff6f8
:10546800ccac00228df82420022309a91c4800682e
:1054780029f088f8c1e41b4b1e221a70092088f80d
:105488000000194bc9221a80184b01221a702ff0fc
:10549800f5fd174b1a68174b1a60cee4719b012073
:1054a800008000419c99012000b80847509b0120ca
:1054b80000000000ac9d0120a89a0120ac990120b1
:1054c800c19b0120759b0120c69b012018960120d5
:1054d80040960120be9b012020980120989b012026
:1054e8000c9901208f9b012036950120a79b012054
:1054f80068990120dc990120a34b1b78dbb2012bb2
:1055080000f00181a04b1b78dbb2012b00f0118168
:105518004ff003038df84f318df885319b4b609325
:105528009b4d0023642260a9286829f02bf83220bb
:105538002ff008f800248df884418df88541954aac
:1055480060922346642260a9286829f01bf832205b
:105558002ef0f8ff90494ff40020c1f818018f4b46
:105568001b688f480360884b1c708df8204101230d
:105578008df821310223224646a98a48006829f07d
:1055880001f840f6b8302ef0ddff4ff0030c8df82f
:1055980085c17e4b6093234664220df5c07c61462d
:1055a800286828f0efff32202ef0ccff8df88441d8
:1055b8008df88541774a6092234664220df5c07cb8
:1055c8006146286828f0deff32202ef0bbff7249c2
:1055d8004ff40023c1f818310a23009323462246ca
:1055e8000321714800682df00dff704b18782ef0dc
:1055f800a9fb6f4b18782ef0c1fb6e4b18882ef064
:10560800d9fb6d4b18782ef00dfc6c4b18782ef0ea
:10561800edfb6b4b18782ef021fc6a4b18682ef0c6
:1056280055fc5f48d0ed007afceee77a664b93edc7
:10563800007abceec77a17ee100a17ee903a181add
:10564800624b18602ef026fc614b1b78dbb2012bf5
:1056580000f085805e4b1b78dbb2022b00f0838064
:105668005b4b1b78dbb2032b00f08180594b0c227b
:105678001a7004202ff03cfc524b1b6836934d4b9c
:1056880019884b4b1b78494a12781b0243ea01439d
:1056980013433993494b1978474b1b78484a12787a
:1056a8001b0243ea014313433a934b4b1a7833786e
:1056b80043ea02433b93454b1b6843f480333c93d6
:1056c800434b1a78454c238843ea02433d9302230f
:1056d8008df8d0300023642234a94148006828f0ae
:1056e80051ff404b18682bf021f901233b60002241
:1056f80022803d4a13703d4a13703d4a13703d4a5b
:105708001370fef769bd3c4b1b78002b7ff4faae93
:1057180000228df8202103238df82131022346a988
:105728002048006828f02eff40f6b8302ef00aff17
:10573800e8e6314b1b78dbb2012b7ff4e9ae00229f
:105748008df820218df82131022346a915480068db
:1057580028f018ff40f6b8302ef0f4fed8e6012005
:105768002ff08cfc76e702202ff088fc78e70320e6
:105778002ff084fc7ae79df8a431fa2b7ef403ae6f
:105788001e4a1268fef706be939b012002c0ec1564
:10579800189a012005c0ec15008000416899012085
:1057a800dc990120ac99012048990120b39b012084
:1057b800cc9b0120fa8c0120cb9b0120bc9b0120b3
:1057c800d89b0120a0980120d4990120c8980120d5
:1057d800a69b01208f9c0120759b0120fe92012031
:1057e8002499012028990120819b0120929b012066
:1057f800919b0120859b0120989b0120dc9a012028
:020000040000fa
:105808008c9d012004000000010000000000000041
:10581800389501201c00000000000000e8960120d7
:105828000800000000000000549501201c00000042
:105838000000000068960120100000000000000031
:10584800f09601201800000000000000709501206b
:105858001c000000000000007896012010000000e5
:105868000000000008970120100000000000000060
:10587800fc8c0120c000000000000000729b012089
:105888000200000000000000249401202c00000009
:105898000000000034930120f00000000000000028
:1058a800909d01200400000001000000aaaaaaaaf5
:1058b800309801200400000000000000a001002032
:1058c800608a0100000000003498012010000000e8
:1058d80000000000189701200800000000000000e8
:1058e8004498012008000000000000008c95012069
:1058f80028000000000000004c980120180000005b
:1059080000000000ec90012064000000000000008e
:10591800649801201400000000000000b4950120e4
:105928002800000000000000789801201000000006
:1059380000000000dc9501201400000000000000b9
:10594800889801200400000000000000f095012064
:1059580028000000000000008c98012008000000ca
:1059680000000000949d01200400000001000000d8
:10597800040000001000002090010000000000005a
:10598800949801201400000000000000a391012059
:1059980001000000000000007b9b012001000000c6
:1059a80000000000a898012004000000000000008a
:1059b8008b9b01200100000000000000ac98012032
:1059c80004000000000000002598012001000000ec
:1059d80000000000b09801200c000000000000004a
:1059e8002d98012001000000000000006d9b01209f
:1059f80001000000000000008f9b01200100000052
:105a080000000000719b0120010000000000000060
:105a1800bc9801201400000000000000769b0120c3
:105a28000200000000000000189601201400000089
:105a3800000000007e9b0120020000000000000022
:105a48002c9601201400000000000000829b012019
:105a58000200000000000000409601201400000031
:105a680000000000869b01200200000000000000ea
:105a7800549601201400000000000000d098012076
:105a88000400000000000000809201204000000097
:105a980000000000509401205000000000000000a9
:105aa800148f0120a400000000000000d4980120f9
:105ab8000800000000000000f491012046000000ea
:105ac80000000000909b0120010000000000000081
:105ad800dc9801203c00000000000000668e0120d8
:105ae8000200000000000000128f012002000000e8
:105af800000000003a9201200200000000000000af
:105b0800189901200400000000000000759b012086
:105b180001000000000000007d9b01200100000042
:105b2800000000001c990120100000000000000087
:105b3800819b01200100000000000000859b0120de
:105b48000100000000000000919b012002000000fd
:105b580000000000fe92012002000000000000008a
:105b68002c9901200400000000000000939b0120f4
:105b7800010000000000000030990120080000002a
:105b880000000000949b01200400000000000000b9
:105b98003293012002000000000000003899012023
:105ba8000400000000000000989b01200100000094
:105bb800000000003c9901200800000000000000df
:105bc800999b012001000000000000004499012079
:105bd80004000000000000009a9b01200100000062
:105be800000000004899012030000000000000007b
:105bf8009b9b012003000000000000007899012011
:105c08000c0000000000000050910120530000002b
:105c18000000000084990120380000000000000006
:105c2800009301203200000000000000bc99012010
:105c380014000000000000009e9b012002000000ec
:105c480000000000d09901200400000000000000be
:105c5800a09b012003000000000000002098012004
:105c68000500000000000000a39b012001000000c7
:105c78000000000028980120050000000000000036
:105c8800d49901200800000000000000a49b012016
:105c980002000000000000008c9b012003000000af
:105ca80000000000889b01200300000000000000a5
:105cb800dc9901200800000000000000a69b0120dc
:105cc8000100000000000000dc9601200a0000002e
:105cd80000000000369501200200000000000000ce
:105ce800a79b01200100000000000000e4990120aa
:105cf8000400000000000000a89b01200100000033
:105d080000000000e69601200200000000000000ec
:105d18002698012002000000000000002e980120b3
:105d28000200000000000000209701206800000029
:105d380000000000e8990120200000000000000099
:105d4800889701206800000000000000089a0120e0
:105d58008000000000000000f097012030000000e3
:105d680000000000a99b01200100000000000000c5
:105d7800889a01200400000000000000aa9b01206e
:105d880002000000000000008c9a012004000000be
:105d980000000000ac9b0120010000000000000092
:105da800909a01200400000000000000c092012029
:105db8003e000000000000006e9b01200200000071
:105dc80000000000a0940120500000000000000026
:105dd800008c0120fa00000000000000ad9b0120ab
:105de8000100000000000000949a01200400000057
:105df80000000000ae9b012003000000000000002e
:105e0800989a01200800000000000000b19b0120c2
:105e18000200000000000000a09a0120100000000d
:105e280000000000b39b01200200000000000000f9
:105e3800b09a01200400000000000000b59b01207a
:105e48000100000000000000b49a012008000000d2
:105e580000000000bc8d0120aa0000000000000026
:105e6800bc9a01200400000000000000b69b01203d
:105e78000300000000000000849b012001000000d6
:105e880000000000b99b0120010000000000000094
:105e9800c09a012004000000000000003c9201208c
:105ea8004400000000000000c49a01200c0000001b
:105eb80000000000ba9b0120020000000000000062
:105ec800809b012001000000000000007c9b012055
:105ed8000100000000000000d09a01200800000026
:105ee80000000000bc9b012005000000000000002d
:105ef800d89a01200400000000000000c19b012086
:105f08000500000000000000dc9a012010000000dd
:105f180000000000c69b01200200000000000000f5
:105f2800ec9a01200400000000000000c89b01203a
:105f38000300000000000000f09a012008000000a3
:105f480000000000688e0120aa0000000000000088
:105f5800f89a01200400000000000000cb9b0120fb
:105f68000100000000000000fc9a0120040000006d
:105f780000000000cc9b0120010000000000000090
:105f8800789b01200300000000000000cd9b012049
:105f98000400000000000000009b01200400000035
:105fa80000000000d19b012002000000000000005a
:105fb800049b01200c00000000000000d39b01207e
:105fc8000100000000000000109b012004000000f8
:105fd80000000000d49b0120010000000000000028
:105fe800149b01200400000000000000d59b012044
:105ff8000100000000000000189b012004000000c0
:1060080000000000d69b01200100000000000000f5
:106018001c9b01200400000000000000d79b012009
:106028000100000000000000209b01200800000083
:1060380000000000749b0120010000000000000027
:10604800709b012001000000000000006c9b0120f3
:106058000100000000000000289b01201c00000037
:1060680000000000b88f0120a00000000000000020
:10607800889601201000000000000000d89b012035
:106088000100000000000000b89601202400000074
:1060980000000000449b01200400000000000000f4
:1060a800d99b01200200000000000000489b01204d
:1060b8000400000000000000989601201000000075
:1060c800000000005890012094000000000000002b
:1060d8004c9b01200c00000000000000fa8c0120fd
:1060e8000200000000000000229c012002000000c5
:1060f8000100000004010000429c01200200000091
:1061080001000000b4000000249c01201e000000d3
:10611800010000005aa51b82524068747470733adb
:106128002f2f7777772e7374617469712e696e2fac
:10613800ffff0000db9b01200100000001000000c0
:106148000c0000007b9c0120010000000100000001
:106158000c0000008f9c01200100000001000000dd
:1061680003000000b39c01200100000001000000b2
:106178000f0000002b9d012001000000010000001d
:1061880050000000379d01200100000001000000c0
:1061980014000000449c01201e00000001000000c3
:1061a800454d455247454e43595f425554544f4e0d
:1061b8005f505245535345442f4f4e0d0a0000007f
:1061c800649c01201700000001000000454d455265
:1061d80047454e435920425554544f4e204f46464a
:1061e8000d0a0000989d0120040000000100000035
:1061f8000000803fb49c01200e0000000100000058
:1062080047464349204e4f54204f4b0d0a0000008b
:10621800449d01200a000000010000004746434950
:10622800204f4b0d0a000000439d01200100000093
:106238000100000001000000a29c012001000000f4
:106248000100000001000000c49c01200e000000b5
:1062580001000000494d4431204e4f54204f4b0d52
:106268000a000000509d01200a0000000100000003
:10627800494d4431204f4b0d0a000000d49c0120a9
:106288000e00000001000000494d4432204e4f54da
:10629800204f4b0d0a0000005c9d01200a00000001
:1062a80001000000494d4432204f4b0d0a00000008
:1062b800149d01200c0000000100000047415445d6
:1062c800204f50454e0d0a00e49c01200e000000ae
:1062d800010000004741544520434c4f5345440dad
:1062e8000a0000009c9d012004000000010000003d
:1062f800cdcccc3fa49c01200f0000000100000081
:106308005048415345204e4f54204f4b0d0a000032
:10631800209d01200b00000001000000504841535f
:10632800455f4f4b0d0a0000a09d01200c000000a6
:1063380001000000000000400000004000b888474d
:106348002c9d01200b000000010000005247423143
:10635800204f46460d0a0000689d01200a000000f3
:1063680001000000524742315f4f4e0d0a00000005
:10637800389d01200b000000010000005247423206
:10638800204f46460d0a0000749d01200a000000b7
:1063980001000000524742325f4f4e0d0a000000d4
:1063a800629c01200200000001000000204e000055
:1063b8007c9c01201300000001000000534d4f4b4e
:1063c800452049532050524553454e540d0a00006c
:1063d800909c01201200000001000000534d4f4b1b
:1063e80045204e4f542054484552450d0a000000a0
:1063f800049d01200d0000000100000053504420be
:106408004e4f54204f4b0d0a00000000809d012084
:106418000900000001000000535044204f4b0d0ab2
:1064280000000000ac9d01200800000001000000f1
:106438000000484300004843dc9b01204600000060
:10644800010000004170706c69636174696f6e20af
:1064580072756e206166746572207265636965760f
:10646800696e6720636f6d6d616e64207468726f0a
:1064780075676820626f6f746c6f61646572206401
:106488006f6e652e2e2e2e0d0a000000f49c012042
:106498000e00000001000000494e5445525255506c
:1064a8005445440d0a000000b49d0120040000007a
:1064b8000100000000004843589b0120080000002c
:1064c80000000000a8960120100000000000000055
:1064d800f09401204600000000000000609b0120ad
:1064e8000400000000000000a491012050000000fa
:1064f80000000000649b012008000000000000006c
:10650800b89d012004000000010000000000000008
:106518000000000000000000666666666666666643
:020000040000fa
:106fa8002de9f04f87b0a74c00230193a64fa74bbc
:106fb80003f13c050123009300f0aebfa44b1a680f
:106fc800a2490a601b68cbb1a24b1b785bb122684f
:106fd8009f4b53f82230002b40f0a3809d4b4ff07d
:106fe80000021a709de09b4b4ff001021a70984bfb
:106ff8001b6833804ff47a602df0a4fa2268944b12
:1070080053f82230002b40f08c80924b1b78002bd9
:1070180000f08780e2e78e4b5a688c494a605b68cb
:10702800c3b18c4b5b7853b12268894b53f822303b
:10703800002b76d1874b4ff000025a7071e0854bd8
:107048004ff001025a70824b5b6833804ff47a60cc
:107058002df078fa22687e4b53f82230002b60d14d
:107068007c4b5b78002b5cd0e4e7794b9a687749d6
:107078008a609b68c3b1774b9b7853b12268744b85
:1070880053f82230002b4cd1724b4ff000029a700b
:1070980047e0704b4ff001029a706d4b9b6833804c
:1070a8004ff47a602df04efa2268694b53f822307b
:1070b800002b36d1674b9b78002b32d0e4e7644b2a
:1070c800da686249ca60db68bbb1624bdb784bb1f6
:1070d80022685f4b53f822301bbb5e4b4ff0000217
:1070e800da701ee05b4b4ff00102da70584bdb6838
:1070f80033804ff47a602df025fa2268544b53f808
:10710800223073b9534bdb785bb1e6e7504bd3f8c9
:107118008430012b64d04e4bd3f88430022b00f01e
:107128009f803388adf80c30b8f80030adf80e30d9
:10713800b9f80030adf81030baf80030adf81230b8
:107148003b88adf81430bbf80030adf81630022398
:10715800002203a94048006827f014fa2368013385
:1071680023601f2b00f325861a2bdad801a252f8c8
:1071780023f000bfc56f00001f700000737000008f
:10718800c7700000157100002b710000d372000059
:107198002d73000087730000e17300003b7400004a
:1071a80095740000017500005d7500002b710000ea
:1071b800b7750000997600008d7700006f780000a1
:1071c8003d7900001f7a0000ef7a0000bf7b0000c5
:1071d8002b7100001d7c0000037d00005f7d000016
:1071e8001b4b19691d4a11601b69e3b1194b93f8d0
:1071f8002c305bb12268164b53f82230002b8ad111
:10720800144b4ff0000283f82c2084e7114b4ff009
:10721800010283f82c200e4b1b69a8f800304ff4ac
:107228007a602df08ff92268094b53f82230002b31
:107238007ff471af074b93f82c30002b3ff46baf02
:10724800dee700bfd89a012026980120809201200d
:10725800148f0120c0920120ec9801205094012045
:107268002368954a52f823009449086052f823206d
:10727800eab1934a92f82d205ab18f4a52f8233036
:10728800002b7ff44eaf8e4b4ff0000283f82d2079
:1072980047e78b4a4ff0010182f82d10864a52f8d1
:1072a8002330a9f800304ff47a602df04bf92268aa
:1072b800814b53f82230002b7ff433af804b93f887
:1072c8002d30002b3ff42dafdde77b4b9a697d49cc
:1072d8000a619b69cbb17a4b9b795bb12268764b8b
:1072e80053f82230002b7ff41caf754b4ff000028f
:1072f8009a7116e7724b4ff001029a716e4b9b69b7
:1073080033804ff47a602df01df922686a4b53f8e8
:107318002230002b7ff405af694b9b79002b3ff49b
:1073280000afe2e7644bda6966494a61db69cbb1d1
:10733800634bdb795bb122685f4b53f82230002b3b
:107348007ff4efae5e4b4ff00002da71e9e65c4b7a
:107358004ff00102da71584bdb6933804ff47a60e1
:107368002df0f0f82268544b53f82230002b7ff4ac
:10737800d8ae534bdb79002b3ff4d3aee2e74e4b4c
:107388001a6a50498a611b6acbb14d4b1b7a5bb1b3
:107398002268494b53f82230002b7ff4c2ae484b89
:1073a8004ff000021a72bce6454b4ff001021a7208
:1073b800414b1b6a33804ff47a602df0c3f8226882
:1073c8003d4b53f82230002b7ff4abae3c4b1b7a7d
:1073d800002b3ff4a6aee2e7374b5a6a3949ca6137
:1073e8005b6acbb1364b5b7a5bb12268324b53f8a0
:1073f8002230002b7ff495ae314b4ff000025a72c9
:107408008fe62d4b5b6a33802d4b4ff001025a7289
:107418004ff47a602df096f82268274b53f8223003
:10742800002b7ff47eae264b5b7a002b3ff479aebf
:10743800e2e7214b9a6a23490a629b6acbb1204b47
:107448009b7a5bb122681c4b53f82230002b7ff4e7
:1074580068ae1b4b4ff000029a7262e6184b4ff071
:1074680001029a72144b9b6a33804ff47a602df0b4
:1074780069f82268104b53f82230002b7ff451ae84
:107488000f4b9b7a002b3ff44caee2e70a4bda6acb
:107498000c494a62db6a13b3094bdb7aa3b1226851
:1074a800054b53f82230002b7ff43bae044b4ff0d2
:1074b8000002da7235e600bf148f012078940120ab
:1074c800c0920120809201209b4b4ff00102da729a
:1074d8009a4bdb6a33804ff47a602df033f82268d8
:1074e800964b53f82230002b7ff41bae924bdb7a7d
:1074f800002b3ff416aed9e7904b1a6b90498a627d
:107508001b6bd3b18c4b1b7b5bb122688b4b53f845
:107518002230002b7ff405ae874b4ff000021a7320
:10752800ffe5854b4ff001021a73844b1b6baaf8d9
:1075380000304ff47a602df005f822687f4b53f83d
:107548002230002b7ff4edad7b4b1b7b002b3ff4ef
:10755800e8ade1e7794b5a6b7949ca625b6bcbb10d
:10756800754b5b7b5bb12268744b53f82230002b60
:107578007ff4d7ad704b4ff000025a73d1e56e4bd4
:107588004ff001025a736d4b5b6b33804ff47a6096
:107598002cf0d8ff2268694b53f82230002b7ff477
:1075a800c0ad654b5b7b002b3ff4bbade2e7634ba3
:1075b800d3f88830012b20d0604bd3f88830022bc9
:1075c8007ff4afad23685d4a52f823005d498860b7
:1075d80052f82320002a4dd0574a92f82f20002a2b
:1075e8003ad0564a52f82330002b7ff49aad524bca
:1075f8004ff0000283f82f2093e5504bd96b524a85
:107608009160db6be3b14c4b93f82e305bb1226891
:107618004a4b53f82230002bced1474b4ff0000293
:1076280083f82e20c8e7444b4ff0010283f82e2040
:10763800424bdb6ba8f800304ff47a602cf082ffe5
:1076480022683e4b53f82230002bb5d13a4b93f8c1
:107658002e30002bb0d0e0e7374a4ff0010182f816
:107668002f10364a52f82330a9f800304ff47a60c8
:107678002cf068ff2268314b53f82230002b7ff43e
:1076880050ad2d4b93f82f30002b3ff44aadaee7a9
:107698002a4bd3f8a430012b20d0284bd3f8a430a0
:1076a800022b7ff43ead2368244a52f82300254973
:1076b800c86052f82320002a56d01f4a92f8312079
:1076c800002a43d01d4a52f82330002b7ff429adfd
:1076d800194b4ff0000283f8312022e5174b196c43
:1076e800194ad1601b6cdbb1134b93f830305bb196
:1076f8002268124b53f82230002bced10e4b4ff09c
:10770800000283f83020c8e70b4b4ff0010283f8e2
:1077180030200a4b1b6c3b804ff47a602cf012ff30
:107728002268064b53f82230002bb6d1024b93f84f
:107738003030002bb1d0e1e7c0920120148f012036
:10774800809201207894012050940120a24a4ff0a1
:10775800010182f83110a14a52f82330abf8003009
:107768004ff47a602cf0eefe22689c4b53f82230de
:10777800002b7ff4d6ac984b93f83130002b3ff4b4
:10778800d0aca5e7954bd3f89c30012b20d0934b78
:10779800d3f89c30022b7ff4c4ac23688f4a52f88c
:1077a80023008f49086152f82320002a4dd08a4ac5
:1077b80092f83320002a3ad0884a52f82330002b16
:1077c8007ff4afac844b4ff0000283f83320a8e479
:1077d800824b596c834a11615b6ce3b17e4b93f821
:1077e80032305bb122687d4b53f82230002bced16a
:1077f800794b4ff0000283f83220c8e7764b4ff000
:10780800010283f83220754b5b6ca8f800304ff406
:107818007a602cf097fe2268704b53f82230002bc8
:10782800b5d16d4b93f83230002bb0d0e0e76a4aff
:107838004ff0010182f83310684a52f82330a9f852
:1078480000304ff47a602cf07dfe2268634b53f8c9
:107858002230002b7ff465ac5f4b93f83330002b5c
:107868003ff45facaee75d4bd3f89c30012b20d0e2
:107878005a4bd3f89c30022b7ff453ac2368574af9
:1078880052f823005649486152f82320002a43d071
:10789800514a92f83520002a35d0504a52f8233000
:1078a800002b7ff43eac4c4b4ff0000283f83520a0
:1078b80037e44a4b996c4b4a51619b6cbbb1464bc0
:1078c80093f834305bb12268444b53f82230002bd4
:1078d800ced1414b4ff0000283f83420c8e73f4b2c
:1078e8009b6ca8f800304ff47a602cf02bfe2268cd
:1078f8003a4b53f82230002bbad1374b93f8343037
:10790800002bb5d0e5e7354a52f82330a9f8003006
:107918004ff47a602cf016fe2268304b53f8223070
:10792800002b7ff4feab2c4b93f83530002b3ff443
:10793800f8abb8e7294bd3f89030012b21d0274b6f
:10794800d3f89030022b7ff4ecab2368234a52f82b
:1079580023002349886152f82320002a4dd01e4a6b
:1079680092f83720002a3fd01c4a52f82330002bc7
:107978007ff4d7ab184b4ff0000283f83720fff79e
:10798800d0bb164bd96c174a9161db6cbbb1124b5b
:1079980093f836305bb12268104b53f82230002b35
:1079a800cdd10d4b4ff0000283f83620c7e70b4bc3
:1079b800db6ca8f800304ff47a602cf0c3fd226825
:1079c800064b53f82230002bb9d1034b93f83630cd
:1079d800002bb4d0e5e700bfc0920120148f01202e
:1079e8007894012050940120a94a52f82330a9f82c
:1079f80000304ff47a602cf0a5fd2268a44b53f8b0
:107a08002230002b7ff48daba24b93f83730002b3c
:107a18003ff487abaee79e4bd3f89430012b21d0cf
:107a28009b4bd3f89430022b7ff47bab2368984aa6
:107a380052f823009849c86152f82320002a44d0fc
:107a4800944a92f83920002a36d0914a52f82330c5
:107a5800002b7ff466ab8f4b4ff0000283f8392080
:107a6800fff75fbb8a4b196d8c4ad1611b6dbbb1a7
:107a7800884b93f838305bb12268854b53f8223035
:107a8800002bcdd1834b4ff0000283f83820c7e795
:107a98007f4b1b6da8f800304ff47a602cf052fd34
:107aa80022687b4b53f82230002bb9d1794b93f8dd
:107ab8003830002bb4d0e5e7754a52f82330a9f8de
:107ac80000304ff47a602cf03dfd2268704b53f87b
:107ad8002230002b7ff425ab6e4b93f83930002b06
:107ae8003ff41fabb7e76a4bd3f89830012b21d08e
:107af800674bd3f89830022b7ff413ab2368644aa2
:107b080052f823006449086252f82320002a44d01e
:107b1800604a92f83b20002a36d05d4a52f823305a
:107b2800002b7ff4feaa5b4b4ff0000283f83b204a
:107b3800fff7f7ba564b596d584a11625b6dbbb1e6
:107b4800544b93f83a305bb12268514b53f82230ca
:107b5800002bcdd14f4b4ff0000283f83a20c7e7f6
:107b68004b4b5b6da8f800304ff47a602cf0eafcc0
:107b78002268474b53f82230002bb9d1454b93f874
:107b88003a30002bb4d0e5e7414a52f82330a9f83f
:107b980000304ff47a602cf0d5fc22683c4b53f847
:107ba8002230002b7ff4bdaa3a4b93f83b30002bd0
:107bb8003ff4b7aab7e7364b9a6d39490a639b6d0c
:107bc800dbb1344b9b7d63b12268314b53f82230d3
:107bd800002b7ff4a6aa2f4b4ff000029a75fff7ef
:107be800a0ba2c4b4ff001029a75294b9b6daaf84d
:107bf80000304ff47a602cf0a5fc2268244b53f82f
:107c08002230002b7ff48daa224b9b7d002b3ff462
:107c180088aae0e71e4bd3f88c30012b21d01c4bef
:107c2800d3f88c30022b7ff47caa2368184a52f8c8
:107c380023001949486252f82320002a4fd0154ad8
:107c480092f83d20002a41d0114a52f82330002be7
:107c58007ff467aa0f4b4ff0000283f83d20fff72f
:107c680060ba0b4b196e0d4a51621b6e13b3094b68
:107c780093f83c30b3b12268054b53f82230002bff
:107c8800cdd1044b4ff0000283f83c20c7e700bf7a
:107c9800148f0120c0920120789401205094012073
:107ca80080920120a34b1b6ea8f800304ff47a6035
:107cb8002cf048fc22689f4b53f82230002baed1a1
:107cc8009d4b93f83c30002ba9d0dae7994a52f83b
:107cd8002330a9f800304ff47a602cf033fc226886
:107ce800944b53f82230002b7ff41baa924b93f845
:107cf8003d30002b3ff415aaace78e4b5a6e8f49e6
:107d08004a635b6ed3b18c4b5b7e63b12268894b4f
:107d180053f82230002b7ff404aa874b4ff000025f
:107d28005a76fff7feb9844b4ff001025a76814b21
:107d38005b6e33804ff47a602cf004fc22687d4b34
:107d480053f82230002b7ff4eca97b4b5b7e002b91
:107d58003ff4e7a9e1e7774b9a6e78498a639b6e0f
:107d6800d3b1754b9b7e63b12268724b53f82230b6
:107d7800002b7ff4d6a9704b4ff000029a76fff7dc
:107d8800d0b96d4b4ff001029a766a4b9b6e3380e7
:107d98004ff47a602cf0d6fb2268664b53f82230f9
:107da800002b7ff4bea9644b9b7e002b3ff4b9a93e
:107db800e1e7634b1a78614b043b002001e0ab42da
:107dc80007d053f8041f0029f9d00132d2b2009825
:107dd800f5e708b15a4b1a70594b1b7853b1584bf9
:107de8004ff000021a70574b1a78574b03f12800ce
:107df800002622e0554b4ff000021a80544b1a809f
:107e0800adf80c20534b1b88adf80e30524b1b8835
:107e1800adf81030adf812203b88adf814304f4b58
:107e28001b88adf816300223019a03a94c48006854
:107e380026f0a8fbd7e7834207d053f8041b002994
:107e4800f9d00132d2b2009ef5e70eb13d4b1a705f
:107e58003c4b1b7853b13b4b4ff000021a70414b1f
:107e68001a78414b03f12800002622e0394b4ff0e5
:107e780000021a803a80354b1b88adf80c30adf8fb
:107e88000e20354b1b88adf81030314b1b88adf8f0
:107e98001230adf81420314b1b88adf81630022390
:107ea800019a03a92e48006826f06cfbd7e78342a5
:107eb80007d053f8041b0029f9d00132d2b2009e32
:107ec800f5e70eb1274b1a70264b1b78002b4dd1c6
:107ed800214b4ff000021a80204b1a801b4b1b8845
:107ee800adf80c301b4b1b88adf80e30adf81020e8
:107ef800174b1b88adf812303b88adf81430adf83d
:107f080016200223019a03a91548006826f03afbb7
:107f18004ff47a702cf016fb019b23600b4edff8b0
:107f28003890dff83080dff828a0dff830b0fff7ae
:107f38001bb900bf148f0120c0920120809201203c
:107f4800b69b0120b79b012050940120668e01202a
:107f5800e6960120128f01203a9201202e980120e6
:107f6800ec980120b89b012078940120024b4ff037
:0c7f780000021a70cce700bfb89b01208b
:020000040000fa
:107f840038b50446d4485a230370a5234370072305
:107f940083708223c3701423037102234371d4f8c2
:107fa40000311a0e82711a0cc2711a0a02724372db
:107fb400ca4b4ff400229a610a2129f033fa2ef0b9
:107fc400c7ff0028fbd0c54b4ff400225a61c248ba
:107fd4005a210170a5214170052181708221c1704f
:107fe400142101710621417100218171b4f81e111f
:107ff400c1719a61082129f015fa2ef0a9ff002811
:10800400fbd0b64b4ff400225a61b3485a21017099
:10801400a5214170052181708221c1701421017153
:108024000821417100258571d4f80451c5719a6104
:1080340029f0f8f92ef08cff0028fbd0a74a4ff462
:1080440000215161a4485a230370a52343700523da
:1080540083708223c370142303710a2343710023a2
:108064008371d4f804311b0ac3719161082129f08a
:10807400d9f92ef06dff0028fbd0984b4ff4002265
:108084005a6195485a210170a521417005218170da
:108094008221c170142101710c214171002181716f
:1080a400b4f80611c1719a61082129f0bbf92ef0c8
:1080b4004fff0028fbd0894b4ff400225a618648b9
:1080c4005a210170a5214170052181708221c1705e
:1080d400142101710e21417100218171b4f80e1136
:1080e400c1719a61082129f09df92ef031ff002811
:1080f400fbd07a4a4ff40021516177485a23037028
:10810400a5234370052383708223c3701423037152
:108114001023437100238371d4f80c311b0ac371fb
:108124009161082129f07ef92ef012ff0028fbd07e
:108134006a4b4ff400225a6167485a210170a52105
:108144004170052181708221c170142101711221b5
:10815400417100218171d4f80c11c1719a61082117
:1081640029f060f92ef0f4fe0028fbd05b4a4ff4ae
:108174000021516158485a230370a52343700723f3
:1081840083708223c3701423037116234371d4f8bc
:1081940020311d0e85711d0cc5711d0a05724372b7
:1081a40091610a2129f03ef92ef0d2fe0028fbd07d
:1081b4004a4b4ff400225a6147485a210170a521c5
:1081c4004170052181708221c170142101711a212d
:1081d400417100218171b4f83e11c1719a61082185
:1081e40029f020f92ef0b4fe0028fbd03b4b4ff4cd
:1081f40000225a6138485a210170a5214170052195
:1082040081708221c170142101711c2141710021ee
:108214008171d4f82411c1719a61082129f002f9fd
:108224002ef096fe0028fbd02c4a4ff40021516119
:1082340029485a230370a52343700523837082239e
:10824400c370142303711e23437100238371d4f874
:1082540024311b0ac3719161082129f0e3f82ef03f
:1082640077fe0028fbd01d4b4ff400225a611a48b8
:108274005a210170a5214170052181708221c170ac
:10828400142101712021417100218171b4f826115a
:10829400c1719a61082129f0c5f82ef059fe002811
:1082a400fbd00e4b4ff400225a610b485a21017047
:1082b400a5214170052181708221c17014210171b1
:1082c4002221417100218171b4f82e11c1719a618a
:1082d400082129f0a7f803e0189501200080004147
:1082e4002ef036fe0028fbd0d54a4ff40021516110
:1082f400d4485a230370a523437005238370822333
:10830400c370142303712423437100238371d4f8ad
:108314002c311b0ac3719161082129f083f82ef0d6
:1083240017fe0028fbd0c64b4ff400225a61c54803
:108334005a210170a5214170052181708221c170eb
:10834400142101712621417100218171d4f82c116d
:10835400c1719a61082129f065f82ef0f9fd002811
:10836400fbd0b74a4ff400215161b6485a23037039
:10837400a5234370072383708223c37014230371de
:108384002a234371d4f840311d0e85711d0cc5712b
:108394001d0a0572437291610a2129f043f82ef0f7
:1083a400d7fd0028fbd0a64b4ff400225a61a54804
:1083b4005a210170a5214170052181708221c1706b
:1083c400142101712e21417100218171b4f85e11d3
:1083d400c1719a61082129f025f82ef0b9fd002811
:1083e400fbd0974b4ff400225a6196485a210170f2
:1083f400a5214170052181708221c1701421017170
:108404003021417100218171d4f84411c1719a6104
:10841400082129f007f82ef09bfd0028fbd0884a9c
:108424004ff40021516187485a230370a5234370f8
:10843400052383708223c370142303713223437191
:1084440000238371d4f844311b0ac371916108215c
:1084540028f0e8ff2ef07cfd0028fbd0784b4ff489
:1084640000225a6177485a210170a52141700521e3
:1084740081708221c1701421017134214171002164
:108484008171b4f84611c1719a61082128f0caffbc
:108494002ef05efd0028fbd0694b4ff400225a6198
:1084a40068485a210170a5214170052181708221fb
:1084b400c170142101713621417100218171b4f818
:1084c4004e11c1719a61082128f0acff2ef040fdd5
:1084d4000028fbd05a4a4ff40021516159485a23cd
:1084e4000370a5234370052383708223c370142370
:1084f40003713823437100238371d4f84c311b0a70
:10850400c3719161082128f08dff2ef021fd002810
:10851400fbd04b4b4ff400225a614a485a21017058
:10852400a5214170052181708221c170142101713e
