:020000040000fa
:10000000f0ff032041c7020023e102000ff80200c5
:10001000530c03005f0e03005f0f0300000000009d
:10002000000000000000000000000000d1080300f4
:10003000130a03000000000081d502005dfc0200ed
:100040005d1003005d1003005d1003005d100300f0
:100050005d1003005d1003005d1003005d100300e0
:100060005d1003005d1003005d1003005d100300d0
:100070005d100300150a0300350a03005d1003003c
:100080005d100300550a0300750a0300950a03007a
:10009000590803007d080300a1080300750503004b
:1000a0009d0503005d1003005d1003005d1003005b
:1000b0005d1003005d1003005d1003005d10030080
:1000c0005d1003005d1003005d1003005d10030070
:1000d0005d1003005d1003005d1003005d10030060
:1000e0005d1003005d100300000000000000000030
:1000f000000000005d1003005d1003005d100300b0
:100100005d1003005d1003005d1003005d1003002f
:100110005d1003005d100300fdda0200fdda02004d
:10012000fdda0200fdda02000da502000da50200b5
:100130000da502000da50200ddd80200ddd80200e9
:10014000ddd80200ddd802004dda02004dda0200ef
:100150004dda02004dda0200a5da0200a5da02004b
:10016000a5da0200a5da020055db020055db020029
:1001700055db020055db020065bb0200f5bc020046
:100180005d1003005d1003005d1003005d100300af
:10019000000000005d1003005d1003005d1003000f
:1001a0005d1003005d1003005d1003005d1003008f
:1001b0005d1003005d1003005d1003005d1003007f
:1001c0005d1003005d1003005d1003005d1003006f
:1001d0005d1003005d1003005d1003005d1003005f
:1001e0005d1003005d1003005d1003005d1003004f
:1001f0005d1003005d1003005d1003005d1003003f
:100200005d1003005d1003005d1003005d1003002e
:100210005d1003005d1003005d1003005d1003001e
:100220005d1003005d1003005d1003005d1003000e
:100230005d1003005d1003005d1003005d100300fe
:100240005d1003005d1003005d1003005d100300ee
:100250005d1003005d1003005d1003005d100300de
:020000040000fa
:10026000f8b500bff8bc08bc9e46704701e7020025
:10027000f8b500bff8bc08bc9e467047dde602003a
:020000040000fa
:08028000307d020001000000c6
:020000040000fa
:100288002de9f04ff7b000247494759472948df8aa
:10029800cc41adf8c4416f9470946e946b946c9497
:1002a8008df8b4416994cdf8a74166946794689431
:1002b80063946494659460946194629459945a9494
:1002c8005b945c945d945e945f94559456945794b3
:1002d800adf860414f945094519452945394cdf892
:1002e8004f419022214616a830f01efe1494159412
:1002f8001e22214604a830f017feb34eb34fdff894
:100308002c93dff82c83dff82cb3dff82ca32de235
:10031800af4b18682cf00af80024a8f80040abf896
:100328000040ac4b1c70ac4b1c80224674a9ab4bf4
:1003380018682bf0a5f8224672a9a94b18682bf06b
:100348009ff8224671a9a74b18682bf099f89df8d9
:10035800d731012b40f0d4819df8ca31002b40f0f1
:10036800cf819df8c9316d2b26d89df8c931632bf3
:1003780000f2c6819c4d669540238df8a2319b4cb6
:100388000023642266a920682af05aff4ff47a7085
:100398002ff084f9669500238df87e318df8a2310f
:1003a800642266a920682af04bff64202ff076f9b2
:1003b8008f4b01221a70a3e18e4b1c608e4b1c6080
:1003c800894b669340238df8a231884d23466422d9
:1003d80066a928682af034ff4ff47a702ff05ef986
:1003e800814b66938df87e418df8a24123466422a5
:1003f80066a928682af024ff64202ff04ff97c4b67
:1004080001221a700c2389f80030aee77b4b639306
:1004180000248df890412346642263a97848006837
:100428002af00eff64202ff039f9764b60930125ee
:100438008df85a518df884518df85b418df88541be
:100448008df85c418df886412346642260a96e4888
:1004580000682af0f5fe64202ff020f9624b6693bd
:100468008df87c518df89d512346642266a95f481a
:1004780000682af0e5fe64202ff010f9224671a9e1
:10048800584b18682af0fcff9df8c431ab4240f085
:100498003781574b02221a7032e1534c669440233d
:1004a8008df8a231514d0023642266a928682af0ec
:1004b800c7fe4ff47a702ff0f1f8669400248df897
:1004c8007e418df8a2412346642266a928682af055
:1004d800b7fe64202ff0e2f8224672a9404b186854
:1004e8002af0ceff002800f00b819df8c931503b5f
:1004f800dbb21d2b25d99df8c9316d2b0dd9434b86
:100508001b78002b00f09a80414b00221a700c23b4
:1005180089f8003001202df097fc3e4b1b681e2bfc
:1005280040f3ee803b4b00221a60384b1b7823b90e
:10053800394b4ff48032c3f898202d4b00221a70a3
:10054800dee002202df080fc334b4ff48032c3f8fc
:100558009420092389f800302d4b01221a70254b6d
:100568001b6893420ed02d4b1b78022b18d0214bc1
:100578001b6813b91e4b03221a70264a13680133ed
:100588001360b8e722468df83c4002230fa924489f
:1005980000682af055fe234b18682bf0c7fee2e7e7
:1005a8001e4b5b78012be2d1114b03221a700022fb
:1005b8008df84020022310a91b4800682af040fe4d
:1005c8000d4b01221a60d2e7af990120bc98012097
:1005d800a0970120ce99012026950120709801202e
:1005e800749801209898012002c4ec1538980120cd
:1005f80085990120009901200899012001c4ec1572
:100608001c98012002d4ec150c980120a199012016
:10061800a5990120ec980120008000418c990120c7
:100628003c970120249701204897012079990120bf
:10063800989901209c990120ad990120b64b4ff45f
:100648008032c3f898204ff6ff702ef083f900230c
:10065800b24a1360b24a1360b24b1b78002b7ff486
:1006680053afb04b01221a70af4b18782cf04affe9
:100678004ae70024ad4b1c60ad4b639308238df80b
:100688003f318df893312346642263a9a948006855
:100698002af0d6fd4ff47a702ff000f8a64d669533
:1006a8008df87d418df8a0418df87e418df8a241ed
:1006b8008df87f418df8a3412346642266a99f489f
:1006c80000682af0bdfd4ff47a702ef0e7ff22464d
:1006d80071a99b4b18682af0d3fe669502238df802
:1006e8007c318df89d312346642266a993480068c1
:1006f8002af0a6fd64202ef0d1ff924b04221a7036
:1007080099f800308df84d30b8f80020adf84a203f
:10071800bbf80020adf848209af800208df84e204c
:1007280032788df84c208df844300223002212a92b
:10073800854800682af084fd0223002211a9834815
:1007480000682af07dfd3b68012b0bd100233b603c
:100758007c4a13707e4b18682bf0e8fd7d4b1868b7
:100768002bf030f94ff448702ef098ff00220ca9b6
:10077800794b18682af084fe28b1784a9df8303001
:1007880011880b4413806f4b1b78dbb21e2bb7d834
:1007980001a252f823f000bf19030000150400005d
:1007a800a30400007b0600001d08000009070000e4
:1007b8009108000009070000090700000907000068
:1007c80009070000090700000907000009070000e1
:1007d80009070000090700000b0a000009070000cc
:1007e800350b0000610d0000310e00000907000004
:1007f800b5100000090700000907000009070000fc
:1008080009070000090700000907000009070000a0
:100818005d1a0000002272a9514b18682af030feb8
:10082800002271a9464b18682af02afe9df8ca31a1
:10083800012b1fd09df8c431fa2b02d0fc2b00d01d
:1008480013b9404b00221a709df8c9316d2b7ff601
:1008580057af444b1b7823b92f4b4ff48032c3f862
:1008680098200023404a13700c2289f80020354a4a
:10087800137045e79df8c931503bdbb21d2bd9d821
:10088800304b06221a70d5e70022264b1a7071a940
:100898002b4b18682af0f4fd9df8c431312b0ed982
:1008a8001e4b1b68012b28d0002b41f0f48100223d
:1008b80069a92e4b18682af0e3fd00285ad19df843
:1008c800c431fa2b02d0fc2b00d053b9134a12685a
:1008d800012a19d02ab91b4a002111700f4a012197
:1008e80011600a2b7ff40caf214b1b780133dbb26c
:1008f800f02b76d01e4a137002e7124b10221a70a2
:100908009df8c431fa2bded10e4a00211170034a3a
:1009180001211160e5e700bf008000410099012036
:1009280008990120da990120359a0120ec980120d4
:1009380001c4ec151c98012002c4ec15389801205c
:10094800989801208599012038970120f896012070
:1009580070970120249801206c970120269501208a
:1009680074980120a1990120a5990120809801205f
:10097800e69901209df8a4318df834309df8a53111
:100988008df835309df8a6318df836309df8a731b1
:100998008df837309df8a8318df838309df8a93199
:1009a8008df83930022300220da9524800682af038
:1009b80047fc9df83430002b81d04f4b01221a6040
:1009c8004e4b10221a7002238df83c3000220fa9da
:1009d8004b4800682af034fc4a4b18682bf0a6fcf8
:1009e8006de70023484a1370444a1370474b40f29e
:1009f80033121a80464b02221a7011202cf082fd05
:100a08007ee6414b00221a70424b1b686bbb424b7f
:100a18001b78022b2dd1404b5b78012b29d1144632
:100a28008df84020022310a93c4800682af008fcf1
:100a38003b4b669301238df87e318df8a231234616
:100a4800642266a9374800682af0fafb64202ef071
:100a580025fe224671a9344b18682af011fd274b50
:100a680012221a700e202cf04dfd2a4b1b68012b08
:100a780022d0002271a92c4b18682af001fd9df89c
:100a8800c431fa2b04d0fc2b02d0002b7ff438aef3
:100a98001a4b00221a70184b01221a601b4b4ff494
:100aa8009a721a801a4b02221a7006202ff082f9c5
:100ab80011202cf027fd23e6194b669301238df8ae
:100ac8007e318df8a2310023642266a9154800689a
:100ad8002af0b6fb64202ef0e1fd002271a9124b2a
:100ae80018682af0cdfc054b12221a700e202cf043
:100af80009fdbee740970120009901208599012052
:100b08003c97012024970120e69901206696012050
:100b1800b3990120089901208c9901204897012058
:100b280002c4ec1538980120989801200123a84a9e
:100b38001360a84a4ff40011c2f8181100224c9211
:100b4800a54a4d928df8383102238df839310022ab
:100b58004ca9a24800682af073fba14b18682bf037
:100b6800e5fb00226fa99f4b18682af089fc002832
:100b780000f0d7809df8bc319df8bd2102eb03221f
:100b8800994981fb0232931007ee903af8eee77a22
:100b98009df8be219df8bf3103eb022381fb03239f
:100ba8009b1007ee103ab8eec77abdeec77a17ee7b
:100bb800103a8e4a92fbf3f303eb83035b0007eed4
:100bc800103ab8eec77a8a4b83ed007ab2ee047a0f
:100bd80067ee877a93ed007af4eec77af1ee10fab1
:100be80048bfc3ed007a834b669300248df8a24179
:100bf8002346642266a9804800682af021fb642005
:100c08002ef04cfd7d4b6393794ad2ed007afceed1
:100c1800e77a17ee903a8df89031d2ed007afcee33
:100c2800e77a17ee903ac3f307238df89131e02362
:100c38008df892312e238df893314ff010028df8f4
:100c4800942127238df8953114258df896518df828
:100c580097412346642263a9694800682af0f0fa9c
:100c68004ff496702ef01afd8df890518df8914141
:100c7800c8238df892318df893418df894518df8f1
:100c8800954164258df896518df897415d4b639396
:100c980023462a4663a95a4800682af0d1fa4ff435
:100ca80096702ef0fbfc02238df87e318df8a23170
:100cb800504b669323462a4666a94f4800682af097
:100cc800bffa28462ef0eafc10202cf01bfc224626
:100cd80071a94d4b18682af0d3fb9df8c421a2f1e5
:100ce8005b03dbb2092b08d8484b13221a70394b27
:100cf8004ff48012c3f8142113e0fa2a01d0fc2a19
:100d080027d1424b00221a70414b40f235121a800b
:100d1800404b02221a7008202ff04cf811202cf0ba
:100d2800f1fb00240d94adf83840022322460da9aa
:100d3800394800682af084fa8df83c40022322469c
:100d48000fa9364800682af07bfa354b1c809c7046
:100d5800d6e4002ad5d0e4e7002272a9314b1868fe
:100d68002af08efb9df8c931312b7ff6c9ac194b9f
:100d7800d3f8203113f0807f19d101238df87d310c
:100d88008df8a0310c238df87e318df8a231194be6
:100d980066930023642266a9174800682af050fa6f
:100da80064202ef07bfc194b14221a70a8e4174b10
:100db80000221a70164b40f235121a80154b022287
:100dc8001a7007202ef0f6ff11202cf09bfb97e4f9
:100dd800089901200080004100004843d097012075
:100de800d49701208898012067666666c0d4010000
:100df800ac97012002c4ec153898012003c4ec1507
:100e08001c98012004c0ec159898012085990120b0
:100e180066960120b3990120409701203c97012054
:100e28008c9901207498012000226ea9854b1868be
:100e38002af026fb9df8b8319df8b92102eb032270
:100e4800814981fb0232921007ee902af8eee77a88
:100e58007e4bc3ed007a9df8ba219df8bb3103ebb8
:100e6800022381fb03239b1007ee103ab8eec77ae2
:100e7800774b83ed007a4ff080434c93cded4d7a5c
:100e880001238df8383102238df8393100224ca91d
:100e9800704800682af0d4f96f4b18682bf046faae
:100ea8009df8b9318df89c319df8b8318df89d3198
:100eb8009df8bb318df89e319df8ba318df89f3180
:100ec800664b66930023642266a9654800682af089
:100ed800b7f964202ef0e2fb12202cf013fb00225d
:100ee80071a9604b18682af0cbfa00283ff408acc7
:100ef8009df8c431782b1ad09df8c431fa2b04d050
:100f0800fc2b02d0002b7ff4fbab574b1e221a7030
:100f1800564b4ff49b721a80554b02221a700820c8
:100f28002ef048ff11202cf0edfafff7e9bb514bea
:100f38001d6830f035f84ef6602400940023024610
:100f4800012128462df010f94b4b1d6830f028f888
:100f5800009400230246012128462df005f9474b4d
:100f68001d6830f01df80094002302460121284630
:100f78002df0faf8424b1d6830f012f80094002367
:100f88000246012128462df0eff83e4b1d6830f04f
:100f980007f8009400230246012128462df0e4f8c2
:100fa800394b1d682ff0fcff0094002302460121f5
:100fb80028462df0d9f82c4b16221a70334b187886
:100fc8002ef042f964202ef069fb314c20782ef087
:100fd80057f964202ef062fb2e4d28882ef06cf90c
:100fe80064202ef05bfb2c4908782ef09df96420d4
:100ff8002ef054fb294800782ef07af964202ef060
:101008004dfb274a10782ef0abf964202ef046fbf2
:10101800244b1a68244b1a60298823781b4a1278b3
:101028001b0243ea014313433d931c4801781a4bc2
:101038001b781b4a12781b0243ea014313433e9371
:101048005ae700bf90980120676666666499012098
:10105800cc980120d0970120d497012005c4ec1525
:1010680038980120989801208599012066960120da
:10107800b3990120b09801203099012034990120ba
:10108800389901203c99012078970120bf990120c7
:10109800d89901205a8d0120d7990120c89901209b
:1010a800e499012098970120f897012047f23050e1
:1010b8002df050fc03202cf0c7fe524b18882ef060
:1010c8001bf8514b1b78072b00f0978000226ea964
:1010d8004e4b18682af0d4f9002840f0b7806420f5
:1010e8002ef0dcfa9df8b9318df89c319df8b831b5
:1010f8008df89d319df8bb318df89e319df8ba3140
:101108008df89f31424b66930023642266a94148bb
:1011180000682af095f864202ef0c0fa00226ba926
:101128003d4b18682af0acf9a0b13c4a13789df8f9
:10113800ae013b49c854062189f8001001331370e9
:10114800314b1b78042b40f28a832f4b1b78052bdd
:1011580000f09083334b1b78052b00f093832f4bc3
:101168001b78052b00f008842f4b1b782bb92f4bcd
:101178001b78dbb2012b00f01e842b4b1b78dbb2f3
:10118800012b00f023849df8c431292b03d0fa2bbe
:1011980001d0fc2b12d1264b1e221a70092389f884
:1011a8000030244bca221a80234b02221a700a20cc
:1011b8002ef000fe214b1a68214b1a609df8ac31c5
:1011c800012b00f01a841f4b1b78022b7ff498aa7e
:1011d8001c4b9b78012b7ff493aa154b1e221a7087
:1011e800092389f80030174b00221a809a70134b94
:1011f8001a68134b1a60fff783ba134b18782ef04e
:1012080083fc63e726950120ce9901209098012060
:1012180005c4ec15389801208c980120cb99012041
:1012280068960120d3990120a1990120a599012050
:101238008599012066960120b3990120989701208d
:10124800009801208c990120899901209df8ba21e4
:101258009df8bb3103eb0223c34a82fb03139b08af
:1012680007ee903af8ee677ac04bc3ed007a9df826
:10127800b8119df8b93103eb012382fb03239b08c6
:1012880007ee103ab8ee477ab94b83ed007a17eebd
:10129800900a2ef085fa02460b46b64904a82ff0ac
:1012a800c7fc1e2104a82bf02dfe2ff0ddfd002821
:1012b800fbd0ae4bd3ed007aad4bd3ed006a27eef1
:1012c800a67aad4b83ed007aac4b1b78002b40f02f
:1012d8008780ab4b1a68ab4b1a6093ed006ab4ee8b
:1012e800c67af1ee10fa34d5a74b1b7833bb9fedc5
:1012f800a77a76ee876acded4d6aa24b93ed006a28
:10130800a34bd3ed006a86ee267af4eec77af1eea7
:1013180010fac0f28880f5ee007a27ee277a8ded74
:101328004c7a03238df8393101238df838310223a3
:1013380000224ca99748006829f082ff924b1b783d
:10134800dbb2012b7cd0904b1b78dbb2012b00f079
:10135800be808c4bd3ed007a874b93ed007ab4eec8
:10136800e77af1ee10fa3bdd874b1b7863bb804bc5
:10137800d3ed007a9fed857a77ee877acded4d7ab9
:10138800804bd3ed006a824bd3ed007a86eea77ac4
:10139800764bd3ed007ab4eee77af1ee10fa00f26c
:1013a800d580f5ee007a27ee277a8ded4c7a032367
:1013b8008df8393101238df83831022300224ca9e8
:1013c8007448006829f03cff6f4b1b78dbb2012b97
:1013d80000f0ec806c4b1b78dbb2012b00f02d8108
:1013e800664b1b78dbb2012b00f066816a490a78ec
:1013f80090006a4c04449df8ba519df8bb3103eb48
:101408000523594d85fb03539b0807ee903af8eee8
:10141800677ac4ed007a624b03445d48006818603f
:1014280001320a705be6f4eec77af1ee10fa7ff546
:1014380078afb5ee007a67ee877acded4c7a70e733
:10144800584b1b78dbb2112b7ff67daf564b4ff410
:101458000012c3f81821464bd3ed007a9fed4b7a62
:1014680077ee877acded4d7a464bd3ed007ab6ee1e
:10147800007a67ee877a464bd3ed006a87eea67a44
:101488003a4bd3ed007ab4eee77af1ee10fa12d8bf
:10149800f6ee007a27ee277a8ded4c7a02238df846
:1014a800393101228df8382100224ca939480068c9
:1014b80029f0c6fe4de7b4eee77af1ee10faeddd5d
:1014c800b6ee007a67ee877acded4c7ae6e7354bd3
:1014d8001b78dbb2112b3ff63caf254bd3ed007ade
:1014e8009fed2a7a77ee877acded4d7a254bd3edad
:1014f800006a274bd3ed007a86eea77a1b4bd3ed13
:10150800007ab4eee77af1ee10fa13d8f5ee007a25
:1015180027ee277a8ded4c7a03238df83931012394
:101528008df83831022300224ca91a48006829f0a6
:1015380087fe0ee7b4eee77af1ee10faecddb5eed1
:10154800007a67ee877acded4c7ae5e7b4eee77a74
:10155800f1ee10fa7ff72bafb5ee007a67ee877ad7
:10156800cded4c7a23e700bf67666666cc9801200c
:1015780064990120782001002c990120ab99012061
:10158800209a0120c4970120a199012000000000a1
:10159800289a0120d0970120d39901208494012012
:1015a800ac9401208199012000800041bf4b1b7839
:1015b800dbb2112b7ff60eafbd4b4ff40012c3f810
:1015c8001821bc4bd3ed007a9fedbb7a77ee877a72
:1015d800cded4d7ab94bd3ed007ab6ee007a67eed1
:1015e800877ab74bd3ed006a87eea67ab54bd3ed71
:1015f800007ab4eee77af1ee10fa12d8f6ee007a35
:1016080027ee277a8ded4c7a02238df839310122a5
:101618008df8382100224ca9ab48006829f010fe4b
:10162800dee6b4eee77af1ee10faedddb6ee007a1a
:1016380067ee877acded4c7ae6e79c4b1b78dbb2f8
:10164800112b3ff6cdae9b4bd3ed007a9fed9a7ae6
:1016580077ee877acded4d7a984bd3ed006a984bab
:10166800d3ed007a86eea77a964bd3ed007ab4eee6
:10167800e77af1ee10fa13d8f5ee007a27ee277a1a
:101688008ded4c7a03238df8393101238df83831eb
:10169800022300224ca98c48006829f0d1fd9fe65e
:1016a800b4eee77af1ee10faecddb5ee007a67ee0b
:1016b800877acded4c7ae5e7844b1b785bbb7d4b95
:1016c800d3ed007a9fed7c7a77ee877acded4d7a6f
:1016d8007f4bd3ed006a7a4bd3ed007a86eea77a7a
:1016e800784bd3ed007ab4eee77af1ee10fa50d8e1
:1016f800f5ee007a27ee277a8ded4c7a03238df8e4
:10170800393101238df83831022300224ca96e4863
:10171800006829f095fd6d4b1b78dbb2012b44d096
:101728006a4b1b78dbb2012b7ff460ae5f4b1b78f2
:10173800dbb2112b3ff65aae5e4bd3ed007a9fed2c
:101748005e7a77ee877acded4d7a614bd3ed006afc
:101758005b4bd3ed007a86eea77a5a4bd3ed007a2d
:10176800b4eee77af1ee10fa6dd8f5ee007a27eece
:10177800277a8ded4c7a03238df8393101238df8c2
:101788003831022300224ca94f48006829f058fd3f
:101798002ce6b4eee77af1ee10faafddb5ee007a9a
:1017a80067ee877acded4c7aa8e7404b1b78dbb221
:1017b800112bb5d93e4b4ff40012c3f81821444bf6
:1017c80093ed007adfed437ab4eee77af1ee10faa2
:1017d800c8bfc3ed007a374bd3ed007a9fed367a58
:1017e80077ee877acded4d7a394bd3ed006a344bdd
:1017f800d3ed007a86eea77a324bd3ed007ab4eeb9
:10180800e77af1ee10fa12d8f6ee007a27ee277a88
:101818008ded4c7a02238df8393101228df838216b
:1018280000224ca92848006829f00afddee5b4ee3c
:10183800e77af1ee10faedddb6ee007a67ee877a18
:10184800cded4c7ae6e7b4eee77af1ee10fa92dde8
:10185800b5ee007a67ee877acded4c7a8be72ef0fd
:1018680053f99df8ae211c4b1a701c4a13780133aa
:1018780013706ae4194b07221a709df8ae318af882
:10188800003067e44ff0000c154b83f800c0b8f83f
:101898000010bbf80000134b134a03f1140ecdf8e7
:1018a8000cc01d461446029122e000bf8199012018
:1018b800008000416499012000000000c4970120c5
:1018c800289a0120cc980120d0970120a1990120c5
:1018d800cc97012000606a4789990120ce990120a0
:1018e800d399012084940120ac940120734525d01c
:1018f800f3ec017a95ed007ab4eee77af1ee10fa9e
:1019080009d8c5ed007afceee77a17ee901a89b28d
:1019180002914ff0010cf2ec017a94ed007ab4eeea
:10192800e77af1ee10fae1d8c4ed007afceee77a36
:1019380017ee901a88b201210391d7e70299bcf1fa
:10194800000f01d0a8f80010039b0bb1abf8000002
:10195800344bd3ed007afceee77a17ee900a2df0bf
:1019680003fc314bd3ed007afceee77a17ee900ad0
:101978002df0defbfff7f3bb00242c4b1c7096f810
:1019880000c02b4b5d1d18464ff0010e01e0ab4225
:1019980008d013f8012b01789142f8d802709446c8
:1019a8007446f4e70cb186f800c0214b18782ef085
:1019b80093f8fff7d9bb00228df84020022310a925
:1019c8001c48006829f03cfcfff7d7bb1a4b1b7872
:1019d800dbb2012b7ff4d7ab184b1b78dbb2132b90
:1019e8007ff6d1ab00228df84020022310a91148c0
:1019f800006829f025fcfff7c6bb114b1e221a70a0
:101a0800092389f800300f4bc9221a800e4b022295
:101a18001a700a202ef0cef90c4b1a680c4b1a607b
:101a2800fff7d1bb84940120ac940120cb9901200d
:101a38006896012048970120a599012081990120e5
:101a48008599012066960120b39901209897012075
:101a5800009801204ff002038df8393100248df8e9
:101a68003841022322464ca98f48006829f0e8fb38
:101a780040f6b8302df012fe4ff003038df87c319c
:101a88008df89d31894b6693894d2346642266a95a
:101a9800286829f0d5fb32202df000fe8df89c41f6
:101aa8008df89d41834a66922346642266a9286878
:101ab80029f0c6fb32202df0f1fd7f494ff4801e3e
:101ac800c1f818e17d4b1a687d4b1a607d4b1c707c
:101ad8004ff0020c8df839c18df8384102232246a7
:101ae8000df5987c61467048006829f0a9fb40f61e
:101af800b8302df0d3fd4ff003008df89d016b4bee
:101b080066932346642266a80146286829f098fb54
:101b180032202df0c3fd8df89c418df89d41654a1a
:101b280066922346642266a80146286829f088fb45
:101b380032202df0b3fd60494ff48013c1f81831fd
:101b48000a2300932346224603215f4800682cf0ad
:101b58000bfb5e4b18782df01ffc5d4b18782df0b1
:101b680037fc5c4b18882df04ffc5b4b18782df038
:101b780083fc5a4b18782df063fc594b18782df0dc
:101b880097fc584b18682df0cbfc574b1b78dbb2f1
:101b9800012b74d0544b1b78dbb2022b73d0524b01
:101ba8001b78dbb2032b72d0454bd3ed007afceee9
:101bb800e77a4e4b93ed007abceec77a17ee903a6f
:101bc80017ee102a9b1a07ee903af8ee677a484cff
:101bd800c4ed007afceee77a17ee900a2df084fc4b
:101be800444b15221a7005202cf02ef93d4b1b682a
:101bf8003c93384b1988364b1b78344a12781b02b1
:101c080043ea014313433f93344b1978324b1b7813
:101c1800334a12781b0243ea014313434093364b7d
:101c28001a78337843ea02434193d4ed007afcee04
:101c3800e77a17ee903a43f4003342932a4b1a7826
:101c48002e4c238843ea0243439302238df8e8305d
:101c5800002364223aa92a48006829f0f1fa294b9e
:101c680018682af063fb01233b6000222280264a81
:101c78001370264a1370264a1370fef741bd0120df
:101c88002ef098f886e702202ef094f887e70320d4
:101c98002ef090f888e79df8c431fa2b7ef413ae45
:101ca8001c4a1268fef716bed097012002c4ec1534
:101cb8003898012005c4ec15008000419897012050
:101cc80000980120a599012078970120bf9901204b
:101cd800d89901205a8d0120d7990120c89901204f
:101ce800e4990120e4960120b2990120f897012097
:101cf8000c970120359a0120899901202695012009
:101d08005c97012060970120a4990120a3990120e4
:081d1800a299012000990120ad
:020000040000fa
:101d20002de9f04fefb000246c946d946a94cdf8d7
:101d3000ab4168948df8a441adf89c4165946694dc
:101d40006494619462948df88c415e945f94609485
:101d50005b945c945d94589459945a945194529421
:101d6000539454945594569457944d944e944f9440
:101d7000adf840414794489449944a944b94cdf827
:101d80002f41449445944694902221460ea82ff06a
:101d9000cff80c940d94b34eb34fdff82c83dff8db
:101da0002cb3dff82ca3dff82c9329e2af4b186893
:101db0002af0c0fa0024ae4b1c70abf80040aaf821
:101dc0000040ac4b1c8022466ca9ab4b186829f034
:101dd0005bfb224668a9a94b186829f055fb2246ef
:101de00067a9a74b186829f04ffb9df8b731012b65
:101df00040f0ce819df8a231002b40f0c9819df8c2
:101e0000a1316d2b26d89df8a131632b00f2c08142
:101e10009c4d5e9540238df882319b4c00236422bb
:101e20005ea9206829f010fa4ff47a702df03afc80
:101e30005e9500238df849318df8823164225ea9c8
:101e4000206829f001fa64202df02cfc8f4b012230
:101e50001a709de18e4b1c608e4b1c60894b5e930b
:101e600040238df88231884d234664225ea928687c
:101e700029f0eaf94ff47a702df014fc814b5e934f
:101e80008df849418df88241234664225ea9286875
:101e900029f0daf964202df005fc7c4b01221a7040
:101ea0000c2388f80030aee77b4b5b9300248df861
:101eb0007041234664225ba97848006829f0c4f980
:101ec00064202df0effb764b589301258df83a51a5
:101ed0008df864518df83b418df865418df83c419a
:101ee0008df866412346642258a96e48006829f09f
:101ef000abf964202df0d6fb624b5e938df8475111
:101f00008df87d51234664225ea95f48006829f060
:101f10009bf964202df0c6fb224667a9584b186830
:101f200029f0b2fa9df89c31ab4240f03181574b19
:101f300002221a702ce1534c5e9440238df88231ba
:101f4000514d002364225ea9286829f07df94ff4e1
:101f50007a702df0a7fb5e9400248df849418df82e
:101f60008241234664225ea9286829f06df9642025
:101f70002df098fb224668a9404b186829f084fa96
:101f8000002800f005819df8a131503bdbb21d2bec
:101f900025d99df8a1316d2b0dd9434b1b78002b12
:101fa00000f09a80414b00221a700c2388f8003010
:101fb00001202df07ffe3e4b1b681e2b40f3e88076
:101fc0003b4b00221a60384b1b7823b9394b4ff436
:101fd0008032c3f898202d4b00221a70d8e00220de
:101fe0002df068fe334b4ff48032c3f89420092360
:101ff00088f800302d4b01221a70254b1b68934244
:102000000ed02d4b1b78012b18d0214b1b6813b918
:102010001e4b03221a70264a136801331360b8e777
:1020200022468df81c40022307a92448006829f0a5
:102030000bf9234b18682af07df9e2e71e4b5b7819
:10204000012be2d1114b03221a7000228df82020bf
:10205000022308a91b48006829f0f6f80d4b01225d
:102060001a60d2e7ae990120b8980120a09701200c
:10207000cd9901208e9301204098012044980120a1
:102080006898012002c0ec15389801208199012040
:10209000fc9801200499012001c0ec151c98012036
:1020a00002d0ec150c980120a5990120a1990120de
:1020b000e898012000800041909901203c97012080
:1020c00024970120489701206d96012096990120c0
:1020d0009a990120ac990120ad4b4ff48032c3f89e
:1020e00098204ff6ff702cf039fc0023a94a1360aa
:1020f000a94a1360a94b1b78002b7ff453afa74b61
:1021000001221a70a64b18782bf000fa4ae7002437
:10211000a44b1c60a44b5b9308238df81d318df8f4
:102120007331234664225ba9a048006829f08cf82b
:102130004ff47a702df0b6fa9d4d5e958df84841ba
:102140008df880418df849418df882418df84a41e2
:102150008df88341234664225ea99648006829f0e1
:1021600073f84ff47a702df09dfa5e9502238df886
:1021700047318df87d31234664225ea98d48006881
:1021800029f062f864202df08dfa8b4b04221a702e
:1021900098f800308df82d30bbf80030adf82a30bb
:1021a000baf80030adf8283099f800308df82e30ac
:1021b00033788df82c30022300220aa97f4800686a
:1021c00029f042f898f800308df8243002230022dc
:1021d00009a97b48006829f037f83b68012b0bd12f
:1021e00000233b60744a1370764b18682af0a2f8fb
:1021f000754b186829f0eafb4ff4fa702df052fa8b
:102200006d4b1b78dbb21e2bc2d801a252f823f013
:10221000ad1d0000a91e0000371f00000f210000a7
:102220008d22000091210000012300009121000077
:1022300091210000912100009121000091210000d6
:1022400091210000912100009121000091210000c6
:102250007324000091210000a1250000d92700006f
:10226000b128000091210000352b000091210000d1
:102270009121000091210000912100009121000096
:102280009121000091210000af340000002268a9d4
:102290004e4b186829f0f8f8002267a94c4b1868d3
:1022a00029f0f2f89df8a231012b1fd09df89c3146
:1022b000fa2b02d0fc2b00d013b93f4b00221a702e
:1022c0009df8a1316d2b7ff663af424b1b7823b98c
:1022d0002f4b4ff48032c3f8982000233e4a1370ee
:1022e0000c2288f80020344a137051e79df8a13180
:1022f000503bdbb21d2bd9d82f4b06221a70d5e7e5
:102300000022264b1a7067a9314b186829f0bcf8d7
:102310009df89c31312b0ed91e4b1b68012b28d008
:10232000002b41f0da8100226aa92c4b186829f0b1
:10233000abf8002856d19df89c31fa2b02d0fc2b2b
:1023400000d053b9134a1268012a19d02ab91a4a7f
:10235000002111700f4a012111600a2b7ff418af80
:102360001f4b1b780133dbb2f02b72d01c4a137069
:102370000ee7114b10221a709df89c31fa2bded11a
:102380000d4a00211170034a01211160e5e700bfe9
:1023900000800041fc98012004990120d999012076
:1023a000359a0120e898012001c0ec151c98012005
:1023b00002c0ec1538980120819901203497012042
:1023c000f496012068970120149801204498012078
:1023d00068980120a5990120a19901205098012019
:1023e000e59901209df8a8318df814309df8a931a8
:1023f0008df815309df8aa318df816309df8ab3167
:102400008df817309df8ac318df818309df8ad314e
:102410008df819300223002205a95348006828f0de
:1024200013ff9df81430002b85d001234f4a136011
:102430004f4a102111708df81c304e4b186829f04e
:1024400079ff0223002207a94b48006828f0fcfe10
:1024500071e70023494a1370454a1370484b40f214
:1024600033121a80474b01221a7008202bf04ef8c5
:102470008ee6424b00221a70434b1b6873bb434be2
:102480001b78012b2ed1414b5b78012b2ad11446ae
:102490008df82020022308a93d48006828f0d4feca
:1024a0003c4b5e9301238df849318df882312346f0
:1024b00064225ea93848006828f0c6fe64202df02a
:1024c000f1f84ff47a7267a9344b186828f0dcfff2
:1024d000274b12221a7005202bf018f82a4b1b6884
:1024e000012b21d0002267a92c4b186828f0ccffc3
:1024f0009df89c31fa2b04d0fc2b02d0002b7ff4ea
:1025000047ae1b4b00221a700123184a13601c4a65
:102510004ff49a7111801b4a137006202df038fc7d
:1025200008202af0f3ff33e61a4b5e9301238df85f
:1025300049318df88231002364225ea91648006873
:1025400028f082fe64202df0adf84ff47a7267a96e
:10255000124b186828f098ff054b12221a700520bc
:102560002af0d4ffbee700bf40970120fc9801206d
:1025700081990120249701203c970120e5990120b1
:1025800066960120b39901200499012090990120b9
:102590004897012002c0ec15389801206898012066
:1025a000ad4b4ff40012c3f8182100234493ab4bfa
:1025b000459301248df818418df8194100236422b8
:1025c00044a9a748006828f03ffea64b186829f0e8
:1025d000b1fea54b1c60002265a9a44b186828f029
:1025e00053ff002800f0d3809df894319df8952189
:1025f00002eb03229e4981fb0232931007ee903ad0
:10260000f8eee77a9df896219df8973103eb0223c7
:1026100081fb03239b1007ee103ab8eec77abdee9c
:10262000c77a17ee103a934a92fbf3f303eb830356
:10263000a34007ee103ab8eec77a8f4b83ed007acd
:10264000b2ee047a67ee877a93ed007af4eec77af9
:10265000f1ee10fa48bfc3ed007a884b5e93002478
:102660008df88241234664225ea98548006828f0df
:10267000ebfd64202df016f8824b5b937e4ad2ed81
:10268000007afceee77a17ee903a8df87031d2edd1
:10269000007afceee77a17ee903ac3f307238df841
:1026a0007131e0238df872312e238df873311023b0
:1026b0008df8743127238df8753114258df87651f6
:1026c0008df87741234664225ba96f48006828f0a3
:1026d000bbfd4ff4fa702cf0e5ff8df870518df8ca
:1026e0007141c8238df872318df873418df87451a2
:1026f0008df8754164258df876518df87741634bdf
:102700005b9323462a465ba95f48006828f09cfd3e
:102710004ff4fa702cf0c6ff02238df849318df882
:10272000823103f1af5303f54c235e9323462a46cf
:102730005ea95348006828f087fd4ff4fa702cf02a
:10274000b1ff07202af0e2fe224667a9504b186825
:1027500028f09afe9df89c315b3bdbb2092b2ed909
:102760009df89c31fa2b02d0fc2b00d07bb9494b51
:1027700000221a70484b40f235121a80474b012252
:102780001a7008202df004fb08202af0bffe002458
:102790000594adf818408df81c400223224607a985
:1027a0003f48006828f050fd0223224605a93d4815
:1027b000006828f049fd3c4b1c809c70e8e4354bd8
:1027c00013221a704ff47a702cf06cff224b4ff4e6
:1027d0000022c3f81421c3e7002268a9334b18680c
:1027e00028f052fe9df8a131312b1ed91a4bd3f897
:1027f000a03013f4000f1dd101238df848318df85e
:1028000080310c238df849318df882311b4b5e935a
:10281000002364225ea91a48006828f015fd642090
:102820002cf040ff1b4b14221a704ff47a702cf0de
:1028300039ffade4174b00221a70174b40f23512e6
:102840001a80164b01221a7007202df0a1fa0820d9
:102850002af05cfee9e700bf008000410000484329
:10286000d0970120d4970120049901205898012085
:1028700067666666c0d40100a897012002c0ec1507
:102880003898012003c0ec151c98012004c0ec15f9
:10289000689801208199012066960120b399012052
:1028a0003c970120409701209099012044980120f5
:1028b000002264a9854b186828f0e6fd9df8903148
:1028c0009df8912102eb0322814981fb0232921093
:1028d00007ee902af8eee77a7e4bc3ed007a9df87a
:1028e00092219df8933103eb022381fb03239b107c
:1028f00007ee103ab8eec77a774b83ed007a4ff0c7
:1029000080434493cded457a01238df818318df83d
:1029100019310023642244a97048006828f094fc0f
:102920006f4b186829f006fd9df891318df87c31c8
:102930009df890318df87d319df893318df87e3181
:102940009df892318df87f31664b5e9300236422af
:102950005ea96548006828f077fc0a202cf0a2feea
:1029600009202af0d3fd002267a9604b186828f0df
:102970008bfd00283ff40cac9df89c31782b1ad0cd
:102980009df89c31fa2b04d0fc2b02d0002b7ff455
:10299000ffab574b1e221a70564b4ff49b721a8096
:1029a000554b01221a7008202df0f2f908202af068
:1029b000adfdfff7edbb514b1d682ef0f5fa4ef65d
:1029c0006024009400230246012128462bf0d0fb0e
:1029d0004b4b1d682ef0e8fa0094002302460121bb
:1029e00028462bf0c5fb474b1d682ef0ddfa0094fe
:1029f00000230246012128462bf0bafb424b1d68fa
:102a00002ef0d2fa009400230246012128462bf032
:102a1000affb3e4b1d682ef0c7fa00940023024620
:102a2000012128462bf0a4fb394b1d682ef0bcfa7f
:102a3000009400230246012128462bf099fb2c4be1
:102a400016221a70334b18782cf0d2f964202cf02f
:102a500029fe314c20782cf0e7f964202cf022fe7e
:102a60002e4d28882cf0fcf964202cf01bfe2c49fc
:102a700008782cf02dfa64202cf014fe29480078f8
:102a80002cf00afa64202cf00dfe274a10782cf066
:102a90003bfa64202cf006fe244b1a68244b1a6083
:102aa000298823781b4a12781b0243ea0143134307
:102ab00035931c4801781a4b1b781b4a12781b026d
:102ac00043ea0143134336935ae700bf609801205d
:102ad0006766666660990120c8980120d09701203a
:102ae000d497012005c0ec15389801206898012082
:102af0008199012066960120b399012074970120e5
:102b0000b098012030990120349901203899012092
:102b10003c990120bf990120d89901205a8d0120ac
:102b2000d7990120c8990120e499012094970120a8
:102b3000f4970120002204a9c04b186828f0a4fcd7
:102b400028b1bf4a9df8103011880b44138047f21a
:102b500030502bf003ff03202df0acf8b84b188851
:102b60002cf09ef8b74b1b78072b00f0a7810022b2
:102b700064a9b54b186828f087fc002800f0d580c0
:102b80009df892319df8932102eb0322af4981fb1e
:102b90000232930807ee103ab8ee477aac4b83ed59
:102ba000007a9df890219df8913103eb022381fb7f
:102bb00003239b0807ee903af8ee677aa54bc3ed26
:102bc000007a67ee276aa44bc3ed006aa34b1b781b
:102bd000002b40f08880a24b1a68a24b1a6093ed3c
:102be000006af4eec66af1ee10fa35d59e4b1b78fa
:102bf00033bbdfed9e6a77eea67acded457a994b31
:102c000093ed006a9a4bd3ed006ac6ee267ab4eed5
:102c1000e77af1ee10fac0f25681b5ee007a67ee6f
:102c2000877acded447a03238df8193101238df88d
:102c300018310223002244a98e48006828f004fbc2
:102c4000894b1b78dbb2012b00f04a81864b1b7845
:102c5000dbb2012b00f08b81824bd3ed007a7e4bef
:102c600093ed007ab4eee77af1ee10fa3bdd7e4b9d
:102c70001b7863bb774bd3ed007a9fed7c7a77eec0
:102c8000877acded457a774bd3ed006a784b93ed9b
:102c9000007ac6ee877a6e4b93ed007af4eec77a2f
:102ca000f1ee10fa00f2a281b5ee007a67ee877ab3
:102cb000cded447a03238df8193101238df81831b5
:102cc0000223002244a96b48006828f0bdfa664b35
:102cd0001b78dbb2012b00f09681634b1b78dbb2d3
:102ce000012b00f0d7815d4b1b78dbb2012b00f08c
:102cf0002582614802789100604b0b445c4c24684b
:102d00001c605f4b19449df892419df8933103eb91
:102d100004234e4c84fb03439b0807ee903af8eee5
:102d2000677ac1ed007a0132027064202cf0bafc9f
:102d30009df891318df87c319df890318df87d3181
:102d40009df893318df87e319df892318df87f3169
:102d50004c4b5e93002364225ea94b48006828f028
:102d600073fa64202cf09efc002261a9474b18687e
:102d700028f08afba0b1464a13789df886014549a0
:102d8000c854062188f80010013313702d4b1b78ae
:102d9000042b40f2a6822b4b1b78052b00f0ac8253
:102da000354b1b78052b00f0af82394b1b78052b78
:102db00000f00283384b1b78dbb2012b00f01a8342
:102dc000354b1b78dbb2012b00f023839df89c313f
:102dd000292b03d0fa2b01d0fc2b12d12f4b1e2212
:102de0001a70092388f800302d4bca221a802d4b07
:102df00001221a700a202cf0cbff2b4b1a682b4ba8
:102e00001a609df88431012b00f03e83284b1b781b
:102e1000012b7ff4bda9264b9b78012b7ff4b8a929
:102e20001e4b1e221a70092388f80030204b002206
:102e30001a809a701c4b1a683ce000bf649701200e
:102e40008e930120cd990120609801206766666607
:102e5000c89801206099012028990120aa99012091
:102e6000209a0120c4970120a599012000000000ac
:102e7000249a0120d0970120d29901209894012012
:102e80007094012005c0ec15389801205c98012051
:102e9000ca99012060960120a19901208199012001
:102ea00066960120b399012094970120fc97012098
:102eb00090990120974b1a60fff76ab9964b1878e2
:102ec0002cf0f6fd53e6b4eee77af1ee10fa7ff55a
:102ed000aaaef5ee007a27ee277a8ded447aa2e6c7
:102ee0008e4b1b78dbb2112b7ff6b0ae8c4b4ff4c0
:102ef0000012c3f818218b4bd3ed007a9fed8a7a2c
:102f000077ee877acded457a884bd3ed007ab6ee31
:102f1000007a67ee877a864bd3ed006a87eea67a51
:102f2000844bd3ed007ab4eee77af1ee10fa12d8c2
:102f3000f6ee007a27ee277a8ded447a01238df89c
:102f400019318df818310223002244a97a4800680b
:102f500028f07af980e6b4eee77af1ee10faedddca
:102f6000b6ee007a67ee877acded447ae6e76b4bf2
:102f70001b78dbb2112b3ff66fae6a4bd3ed007ab4
:102f80009fed697a77ee877acded457a674bd3ed81
:102f9000006a674bd3ed007a86eea77a654bd3edd6
:102fa000007ab4eee77af1ee10fa13d8f5ee007a73
:102fb00027ee277a8ded447a03238df8193101230a
:102fc0008df818310223002244a95b48006828f0dc
:102fd0003bf941e6b4eee77af1ee10faecddb5ee3e
:102fe000007a67ee877acded447ae5e7f4eec77aaa
:102ff000f1ee10fa7ff75eaef5ee007a27ee277a53
:103000008ded447a56e6454b1b78dbb2112b7ff6eb
:1030100064ae434b4ff40012c3f81821414bd3ed7b
:10302000007a9fed417a77ee877acded457a3f4b76
:10303000d3ed007ab6ee007a67ee877a3c4bd3ed9b
:10304000006a87eea67a3b4bd3ed007ab4eee77abe
:10305000f1ee10fa12d8f6ee007a27ee277a8ded0f
:10306000447a01238df819318df81831022300229a
:1030700044a93148006828f0e7f834e6b4eee77a6e
:10308000f1ee10faedddb6ee007a67ee877acded5f
:10309000447ae6e7214b1b78dbb2112b3ff623aed7
:1030a000204bd3ed007a9fed207a77ee877acded35
:1030b000457a1e4bd3ed006a1d4bd3ed007a86eea8
:1030c000a77a1c4bd3ed007ab4eee77af1ee10fa52
:1030d00013d8f5ee007a27ee277a8ded447a032394
:1030e0008df8193101238df818310223002244a9eb
:1030f0001148006828f0a8f8f5e5b4eee77af1ee9b
:1031000010faecddb5ee007a67ee877acded447a01
:10311000e5e700bffc9701209399012085990120e4
:10312000008000416099012000000000c497012048
:10313000249a0120c8980120d0970120c04b1b7809
:103140005bbbc04bd3ed007a9fedbf7a77ee877af9
:10315000cded457abd4bd3ed006abd4b93ed007ac2
:10316000c6ee877abb4b93ed007af4eec77af1eea8
:1031700010fa50d8b5ee007a67ee877acded447a32
:1031800003238df8193101238df818310223002211
:1031900044a9b148006828f057f8a94b1b78dbb266
:1031a000012b44d0a64b1b78dbb2012b7ff4a1ade1
:1031b000aa4b1b78dbb2112b3ff69bada14bd3ed95
:1031c000007a9feda17a77ee877acded457a9f4b15
:1031d000d3ed006a9e4bd3ed007a86eea77a9d4b25
:1031e000d3ed007ab4eee77af1ee10fa6dd8f5ee91
:1031f000007a27ee277a8ded447a03238df8193172
:1032000001238df818310223002244a99248006856
:1032100028f01af86de5f4eec77af1ee10faafdd9a
:10322000f5ee007a27ee277a8ded447aa8e78b4bee
:103230001b78dbb2112bb5d9894b4ff40012c3f8c0
:103240001821824b93ed007adfed867ab4eee77aaf
:10325000f1ee10fac8bfc3ed007a7a4bd3ed007ad5
:103260009fed797a77ee877acded457a774bd3ed7e
:10327000006a774bd3ed007a86eea77a754bd3edd3
:10328000007ab4eee77af1ee10fa12d8f6ee007a90
:1032900027ee277a8ded447a01238df819318df8c8
:1032a00018310223002244a96b48006827f0ccffa4
:1032b0001fe5b4eee77af1ee10faedddb6ee007a36
:1032c00067ee877acded447ae6e7b4eee77af1ee81
:1032d00010fa92ddb5ee007a67ee877acded447a8a
:1032e0008be72cf0e5fb604a1378013313709df8ef
:1032f00086215e4b1a704ee59df8863189f80030c4
:10330000594b07221a704be54ff0000c584b83f8cd
:1033100000c0bbf80010baf80000564b564a03f143
:10332000140ecdf80cc01d461446029101e0734501
:1033300025d0f3ec017a95ed007ab4eee77af1ee60
:1033400010fa09d8c5ed007afceee77a17ee901a6c
:1033500089b202914ff0010cf2ec017a94ed007aff
:10336000b4eee77af1ee10fae1d8c4ed007afceea3
:10337000e77a17ee901a88b201210391d7e70299f4
:10338000bcf1000f01d0abf80010039b0bb1aaf801
:103390000000384bd3ed007afceee77a17ee900a86
:1033a0002bf0b6fc344bd3ed007afceee77a17ee47
:1033b000900a2bf091fcf8e40024304b1c7096f836
:1033c00000c02f4b5d1d18464ff0010e01e09d42dd
:1033d00008d013f8012b01789142f8d80270944676
:1033e0007446f4e70cb186f800c0254b18782cf031
:1033f00047fbdfe4124b1b78002b7ff4e1ac00228b
:103400008df82020022308a91e48006827f01cff21
:10341000d6e40b4b1b78dbb2012b7ff4d7ac0f4b00
:103420001b78dbb2132b7ff6d1ac00228df8202065
:10343000022308a91348006827f006ffc6e400bf6e
:10344000a59901206099012000000000c897012083
:10345000249a0120c8980120d09701208599012045
:103460000080004100606a47cd99012093990120b6
:10347000d29901207094012098940120ca990120ca
:103480006096012048970120984b1e221a7009204f
:1034900088f80000964bc9221a80964b01221a70b8
:1034a0002cf076fc944b1a68944b1a60aee400241e
:1034b0008df818414ff001038df81931022322468f
:1034c00044a98f48006827f0bffe40f6b8302cf0c2
:1034d000e9f84ff003038df847318df87d31894bc2
:1034e0005e93894d234664225ea9286827f0acfece
:1034f00032202cf0d7f88df87c418df87d41834a3d
:103500005e92234664225ea9286827f09dfe322041
:103510002cf0c8f87e494ff4002ec1f818e1764b24
:103520001b68764a13607b4b1c708df818414ff076
:10353000010c8df819c1022322460df5887c6146e5
:103540006f48006827f080fe40f6b8302cf0aaf8eb
:103550004ff003008df87d016a4b5e932346642291
:103560005ea80146286827f06ffe32202cf09af8fa
:103570008df87c418df87d41644a5e922346642239
:103580005ea80146286827f05ffe32202cf08af8fa
:103590005f494ff40023c1f818310a2300932346f2
:1035a000224603215c4800682af0e2fd5b4b187854
:1035b0002bf0c6fc5a4b18782bf0defc594b1888c0
:1035c0002bf0f6fc584b18782bf02afd574b187847
:1035d0002bf00afd564b18782bf03efd554b186822
:1035e0002bf072fd454ad2ed007afceee77a524ba1
:1035f00093ed007abceec77a17ee100a17ee903af8
:10360000181a4e4b18602bf043fd4d4b1b78dbb264
:10361000012b56d04a4b1b78dbb2022b55d0484bbe
:103620001b78dbb2032b54d0464b0c221a700520ba
:103630002cf040fb3f4b1b6834933a4b1988384bb6
:103640001b78364a12781b0243ea0143134337932f
:10365000364b1978344b1b78354a12781b0243eaf3
:10366000014313433893384b1a78337843ea0243c3
:103670003993324b1b6843f480333a93304b1a78ba
:10368000324c238843ea02433b9302238df8c8302f
:103690000023642232a92e48006827f0d5fd2d4b67
:1036a000186828f047fe01233b60002222802a4a46
:1036b00013702a4a13702a4a13702a4a1370fef7ad
:1036c00067bd01202cf064fba4e702202cf060fb16
:1036d000a5e703202cf05cfba6e79df89c31fa2bb4
:1036e0007ef42dae204a1268fef730be819901208b
:1036f00066960120b399012094970120fc97012040
:10370000d097012002c0ec153898012005c0ec15b7
:1037100000800041a199012074970120bf990120e8
:10372000d89901205a8d0120d7990120c8990120ec
:10373000e4990120e0960120f497012008970120e8
:10374000b2990120359a0120939901208e9301208e
:103750005c9701206097012095990120a099012094
:0c3760009f9901209e990120fc980120f7
:020000040000fa
:10376c00909301201c00000000000000289501200f
:10377c000800000000000000ac9301201c000000b9
:10378c0000000000c09401201000000000000000a8
:10379c00309501201800000000000000c8930120a3
:1037ac001c00000000000000d0940120100000005c
:1037bc0000000000489501201000000000000000ef
:1037cc00f08b0120c0000000000000008a9901204d
:1037dc000200000000000000cc9201202c00000030
:1037ec0000000000dc910120f0000000000000004f
:1037fc00089a01200400000001000000aaaaaaaa4d
:10380c0070960120040000000000000090010020d0
:10381c00608a010000000000749601201000000076
:10382c000000000058950120080000000000000076
:10383c00849601200800000000000000e4930120a1
:10384c0028000000000000008c96012018000000e9
:10385c0000000000dc8f012064000000000000006c
:10386c00a496012014000000000000000c9401201c
:10387c002800000000000000b89601201000000095
:10388c00000000003494012014000000000000002f
:10389c00c89601200400000000000000489401209c
:1038ac002800000000000000cc9601200800000059
:1038bc00000000000c9a0120040000000100000030
:1038cc000400000000000020900100000000000037
:1038dc00d4960120140000000000000093900120f9
:1038ec0001000000000000007f9901200100000091
:1038fc0000000000e8960120040000000000000019
:10390c008f9901200100000000000000ec960120be
:10391c00040000000000000065960120010000007a
:10392c0000000000f09601200c00000000000000d8
:10393c006d96012001000000000000007999012023
:10394c00010000000000000081990120010000002e
:10395c00000000008599012001000000000000001b
:10396c00fc96012014000000000000009699012034
:10397c000200000000000000709401201400000000
:10398c0000000000989901200200000000000000d7
:10399c008494012014000000000000009a9901207a
:1039ac0002000000000000009894012014000000a8
:1039bc00000000009c9901200200000000000000a3
:1039cc00ac940120140000000000000010970120ae
:1039dc0004000000000000002891012040000000bd
:1039ec0000000000f89201205000000000000000d0
:1039fc00088e0120a4000000000000001497012094
:103a0c000800000000000000949901200100000053
:103a1c00000000001c97012038000000000000008e
:103a2c00068e01200200000000000000a69101207b
:103a3c000200000000000000da91012002000000ea
:103a4c00000000009399012001000000000000001c
:103a5c00899901200100000000000000549701200a
:103a6c0010000000000000009599012001000000ea
:103a7c00000000009e9901200300000000000000df
:103a8c008e930120020000000000000064970120ca
:103a9c000400000000000000a199012001000000ba
:103aac0000000000689701200400000000000000e6
:103abc00a2990120030000000000000026950120bf
:103acc0002000000000000006c97012004000000c0
:103adc0000000000a599012001000000000000007a
:103aec00709701200400000000000000a69901203e
:103afc00010000000000000074970120300000005d
:103b0c0000000000a7990120030000000000000045
:103b1c00a49701200c000000000000004090012040
:103b2c005300000000000000b09701202c000000a2
:103b3c0000000000a89101203200000000000000ed
:103b4c00dc9701201400000000000000aa9901205d
:103b5c000200000000000000f097012004000000ab
:103b6c0000000000ac9901200300000000000000e0
:103b7c00609601200500000000000000af990120b4
:103b8c000100000000000000689601200500000004
:103b9c0000000000f4970120080000000000000065
:103bac00b099012002000000000000009099012053
:103bbc0003000000000000008c99012003000000ad
:103bcc0000000000fc97012008000000000000002d
:103bdc00b299012001000000000000001c9501209a
:103bec000a000000000000006696012002000000a0
:103bfc0000000000b399012001000000000000004b
:103c0c00049801200400000000000000b499012079
:103c1c0001000000000000006e9601200200000070
:103c2c00000000007a990120020000000000000052
:103c3c008299012002000000000000006095012024
:103c4c00680000000000000008980120200000001f
:103c5c0000000000c8950120680000000000000072
:103c6c002898012080000000000000003096012000
:103c7c003000000000000000b59901200100000098
:103c8c0000000000a89801200400000000000000c3
:103c9c00b69901200200000000000000ac98012041
:103cac000400000000000000b89901200100000091
:103cbc0000000000b098012004000000000000008b
:103ccc00689101203e000000000000008699012050
:103cdc000200000000000000b99901200100000062
:103cec0000000000b4980120040000000000000057
:103cfc00ba9901200300000000000000b8980120d0
:103d0c000800000000000000bd9901200200000026
:103d1c0000000000c098012010000000000000000e
:103d2c00bf9901200200000000000000d098012083
:103d3c000400000000000000c199012001000000f7
:103d4c0000000000d49801200800000000000000d2
:103d5c00b08c0120aa00000000000000dc980120bb
:103d6c000400000000000000c299012003000000c4
:103d7c0000000000889901200100000000000000f4
:103d8c00c59901200100000000000000e09801200e
:103d9c000400000000000000e4900120440000003a
:103dac0000000000e49801200c000000000000005e
:103dbc00c699012002000000000000008499012037
:103dcc0001000000000000008099012001000000ab
:103ddc0000000000f0980120080000000000000026
:103dec00c89901200500000000000000f89801208f
:103dfc000400000000000000cd9901200500000027
:103e0c0000000000fc9801201000000000000000e1
:103e1c00d299012002000000000000000c99012042
:103e2c000400000000000000d499012003000000f1
:103e3c0000000000109901200800000000000000a4
:103e4c005c8d0120aa0000000000000018990120e0
:103e5c000400000000000000d799012001000000c0
:103e6c00000000001c99012004000000000000006c
:103e7c00d899012001000000000000007c9901206d
:103e8c000300000000000000d9990120040000008c
:103e9c000000000020990120040000000000000038
:103eac00dd9901200200000000000000249901208f
:103ebc000c00000000000000df990120020000004f
:103ecc0000000000309901200400000000000000f8
:103edc00e19901200100000000000000349901204c
:103eec000400000000000000e29901200100000025
:103efc0000000000389901200400000000000000c0
:103f0c00e399012001000000000000003c99012011
:103f1c00040000000000000078990120010000005e
:103f2c0000000000409901200c000000000000007f
:103f3c004c9901200800000000000000ac8e01200c
:103f4c00a000000000000000e09401201000000020
:103f5c0000000000e49901200100000000000000b6
:103f6c00109501200c000000000000005499012065
:103f7c000400000000000000e59901200200000090
:103f8c00000000005899012004000000000000000f
:103f9c00f094012010000000000000004c8f012064
:103fac0090000000000000005c9901200c00000053
:103fbc00000000005a8d01200200000000000000eb
:103fcc00069a01200200000001000000040100001c
:103fdc00309a01200200000001000000b400000033
:103fec00e89901201e000000010000005aa51b8268
:103ffc00524068747470733a2f2f7777772e7374de
:10400c00617469712e696e2fffff0000e799012022
:10401c0001000000010000000c000000349a012097
:10402c0005000000010000000c030f5014000000fc
:10403c00109a012004000000010000000000803fe5
:10404c00399a01200200000001000000010100006b
:10405c00149a01200400000001000000cdcccc3fdc
:10406c00189a01200c000000010000000000004024
:10407c00000000400060ea47329a01200200000074
:10408c0001000000af4a0000249a01200800000043
:10409c000100000000004843000048432c9a012016
:1040ac000400000001000000000048436899012052
:1040bc00040000000000000000950120100000002a
:1040cc0000000000489301204600000000000000a2
:1040dc006c99012004000000000000009490012065
:1040ec005000000000000000709901200800000042
:1040fc00000000000000000000000000666666661c
:10410c006666666666666666666666666666666643
:020000040000fa
:104e0c002de9f04f87b09a4c00230193994f9a4ba0
:104e1c0003f13c050123009300f0fabf974b1a688d
:104e2c0095490a601b68cbb1954b1b785bb1226826
:104e3c00924b53f82230002b40f0a380904b4ff054
:104e4c0000021a709de08e4b4ff001021a708b4bd2
:104e5c001b6833804ff47a602af01efc2268874b63
:104e6c0053f82230002b40f08c80854b1b78002ba4
:104e7c0000f08780e2e7814b5a687f494a605b68a3
:104e8c00c3b17f4b5b7853b122687c4b53f8223013
:104e9c00002b76d17a4b4ff000025a7071e0784bb0
:104eac004ff001025a70754b5b6833804ff47a6097
:104ebc002af0f2fb2268714b53f82230002b60d1a0
:104ecc006f4b5b78002b5cd0e4e76c4b9a686a49bb
:104edc008a609b68c3b16a4b9b7853b12268674b5d
:104eec0053f82230002b4cd1654b4ff000029a70d6
:104efc0047e0634b4ff001029a70604b9b68338024
:104f0c004ff47a602af0c8fb22685c4b53f82230cd
:104f1c00002b36d15a4b9b78002b32d0e4e7574b01
:104f2c00da685549ca60db68bbb1554bdb784bb1cd
:104f3c002268524b53f822301bbb514b4ff00002ee
:104f4c00da701ee04e4b4ff00102da704b4bdb680f
:104f5c0033804ff47a602af09ffb2268474b53f85a
:104f6c00223073b9464bdb785bb1e6e7434bd3f8a1
:104f7c008430012b66d0414bd3f88430022b00f0e7
:104f8c00a0803388adf80c30b8f80030adf80e3096
:104f9c00b9f80030adf81030baf80030adf8123076
:104fac003b88adf81430bbf80030adf81630022356
:104fbc00002203a93348006826f040f92368013326
:104fcc0023601f2b00f355861b2bdad801a252f855
:104fdc0023f000bf294e0000834e0000d74e000086
:104fec002b4f0000794f00008f4f0000395100000b
:104ffc0093510000ed51000047520000a1520000f7
:10500c000d53000067530000c35300008f4f000086
:10501c001d540000ff540000f5550000d756000049
:10502c00a55700008758000057590000275a000068
:10503c008f4f0000855a00006b5b0000c75b0000bf
:10504c00235c00000d4b19690f4a11601b6953b3a7
:10505c000b4b93f82c30cbb12268084b53f8223011
:10506c00002b88d1064b4ff0000283f82c2082e7ee
:10507c00f89801207a99012028910120088e0120ae
:10508c00689101202c970120f8920120984b4ff049
:10509c00010283f82c20974b1b69a8f800304ff4c1
:1050ac007a602af0f9fa2268924b53f82230002bde
:1050bc007ff461af8e4b93f82c30002b3ff45baf39
:1050cc00d0e723688b4a52f823008b49086052f8ca
:1050dc002320eab1864a92f82d205ab1854a52f81b
:1050ec002330002b7ff44daf814b4ff0000283f83f
:1050fc002d2046e77e4a4ff0010182f82d107d4aa3
:10510c0052f82330a9f800304ff47a602af0c4fa30
:10511c002268784b53f82230002b7ff432af744b5b
:10512c0093f82d30002b3ff42cafdde7714b9a69cf
:10513c0072490a619b69cbb16d4b9b795bb122685b
:10514c006c4b53f82230002b7ff41baf684b4ff0a5
:10515c0000029a7115e7664b4ff001029a71654b8c
:10516c009b6933804ff47a602af096fa2268614b7f
:10517c0053f82230002b7ff404af5d4b9b79002b4e
:10518c003ff4ffaee2e75b4bda695c494a61db69ed
:10519c00cbb1574bdb795bb12268564b53f82230bd
:1051ac00002b7ff4eeae524b4ff00002da71e8e6c2
:1051bc004f4b4ff00102da714e4bdb6933804ff4e9
:1051cc007a602af069fa22684a4b53f82230002b95
:1051dc007ff4d7ae464bdb79002b3ff4d2aee2e73f
:1051ec00444b1a6a45498a611b6acbb1404b1b7a06
:1051fc005bb122683f4b53f82230002b7ff4c1aed9
:10520c003b4b4ff000021a72bbe6394b4ff00102d8
:10521c001a72384b1b6a33804ff47a602af03cface
:10522c002268344b53f82230002b7ff4aaae304b5b
:10523c001b7a002b3ff4a5aee2e72e4b5a6a2f499e
:10524c00ca615b6acbb12a4b5b7a5bb12268294b92
:10525c0053f82230002b7ff494ae254b4ff0000214
:10526c005a728ee6234b5b6a3380214b4ff001025e
:10527c005a724ff47a602af00ffa22681d4b53f8d9
:10528c002230002b7ff47dae194b5b7a002b3ff460
:10529c0078aee2e7174b9a6a18490a629b6acbb15f
:1052ac00134b9b7a5bb12268124b53f82230002bc4
:1052bc007ff467ae0e4b4ff000029a7261e60c4b16
:1052cc004ff001029a720b4b9b6a33804ff47a6059
:1052dc002af0e2f92268074b53f82230002b7ff4b6
:1052ec0050ae034b9b7a002b3ff44baee2e700bf72
:1052fc0068910120088e0120209301202891012023
:10530c009a4bda6a9a494a62db6acbb1994bdb7adf
:10531c005bb12268954b53f82230002b7ff431aef1
:10532c00944b4ff00002da722be6924b4ff00102d5
:10533c00da728e4bdb6a33804ff47a602af0acf968
:10534c0022688a4b53f82230002b7ff41aae894b1b
:10535c00db7a002b3ff415aee2e7844b1a6b8449e1
:10536c008a621b6bd3b1834b1b7b5bb122687f4b77
:10537c0053f82230002b7ff404ae7e4b4ff000022a
:10538c001a73fee57b4b4ff001021a73774b1b6bc4
:10539c00aaf800304ff47a602af07ef92268734b39
:1053ac0053f82230002b7ff4ecad724b1b7b002b9f
:1053bc003ff4e7ade1e76d4b5a6b6d49ca625b6b2d
:1053cc00cbb16c4b5b7b5bb12268684b53f82230e2
:1053dc00002b7ff4d6ad674b4ff000025a73d0e52b
:1053ec00644b4ff001025a73604b5b6b33804ff48c
:1053fc007a602af051f922685c4b53f82230002b6a
:10540c007ff4bfad5b4b5b7b002b3ff4baade2e7a7
:10541c00564bd3f88830012b20d0544bd3f888301e
:10542c00022b7ff4aead2368504a52f82300524948
:10543c00886052f82320002a4dd04e4a92f82f2033
:10544c00002a3ad0494a52f82330002b7ff499ad08
:10545c00484b4ff0000283f82f2092e5434bd96b59
:10546c00464a9160db6be3b1424b93f82e305bb153
:10547c0022683e4b53f82230002bced13d4b4ff0df
:10548c00000283f82e20c8e73a4b4ff0010283f854
:10549c002e20364bdb6ba8f800304ff47a602af0e4
:1054ac00fbf82268314b53f82230002bb5d1314b2d
:1054bc0093f82e30002bb0d0e0e72e4a4ff00101cc
:1054cc0082f82f10294a52f82330a9f800304ff4f3
:1054dc007a602af0e1f82268244b53f82230002b32
:1054ec007ff44fad234b93f82f30002b3ff449ad95
:1054fc00aee71e4bd3f8a430012b20d01b4bd3f8b6
:10550c00a430022b7ff43dad2368184a52f82300d7
:10551c001949c86052f82320002a57d0154a92f82e
:10552c003120002a44d0114a52f82330002b7ff44a
:10553c0028ad104b4ff0000283f8312021e50b4bc6
:10554c00196c0e4ad1601b6c33b30a4b93f8303094
:10555c00b3b12268054b53f82230002bced1054b4a
:10556c004ff0000283f83020c8e700bf088e0120fe
:10557c00289101206891012020930120f8920120ac
:10558c00a44b4ff0010283f83020a34b1b6c3b80e3
:10559c004ff47a602af080f822689f4b53f822303f
:1055ac00002babd19b4b93f83030002ba6d0d6e719
:1055bc00984a4ff0010182f83110974a52f8233083
:1055cc00abf800304ff47a602af066f82268924b00
:1055dc0053f82230002b7ff4d4ac8e4b93f831303f
:1055ec00002b3ff4ceaca4e78b4bd3f89c30012bb3
:1055fc0020d0894bd3f89c30022b7ff4c2ac2368ab
:10560c00854a52f823008549086152f82320002a64
:10561c004dd0804a92f83320002a3ad07e4a52f874
:10562c002330002b7ff4adac7a4b4ff0000283f8a3
:10563c003320a6e4784b596c794a11615b6ce3b169
:10564c00744b93f832305bb12268734b53f82230b1
:10565c00002bced16f4b4ff0000283f83220c8e7fd
:10566c006c4b4ff0010283f832206b4b5b6ca8f84b
:10567c0000304ff47a602af00ff82268664b53f82a
:10568c002230002bb5d1634b93f83230002bb0d0c5
:10569c00e0e7604a4ff0010182f833105e4a52f89d
:1056ac002330a9f800304ff47a6029f0f5ff226816
:1056bc00594b53f82230002b7ff463ac554b93f8c5
:1056cc003330002b3ff45dacaee7534bd3f89c303a
:1056dc00012b20d0504bd3f89c30022b7ff451acd3
:1056ec0023684d4a52f823004c49486152f8232054
:1056fc00002a43d0474a92f83520002a35d0464a32
:10570c0052f82330002b7ff43cac424b4ff000029c
:10571c0083f8352035e4404b996c414a51619b6cc0
:10572c00bbb13c4b93f834305bb122683a4b53f825
:10573c002230002bced1374b4ff0000283f83420af
:10574c00c8e7354b9b6ca8f800304ff47a6029f011
:10575c00a3ff2268304b53f82230002bbad12d4bcb
:10576c0093f83430002bb5d0e5e72b4a52f82330b0
:10577c00a9f800304ff47a6029f08eff2268264b8e
:10578c0053f82230002b7ff4fcab224b93f83530ce
:10579c00002b3ff4f6abb8e71f4bd3f89030012b3e
:1057ac0021d01d4bd3f89030022b7ff4eaab236849
:1057bc00194a52f823001949886152f82320002a0b
:1057cc004dd0144a92f83720002a3fd0124a52f892
:1057dc002330002b7ff4d5ab0e4b4ff0000283f837
:1057ec003720fff7cebb0c4bd96c0d4a9161db6cab
:1057fc0003b3084b93f83630a3b12268064b53f829
:10580c002230002bcdd1034b4ff0000283f8362011
:10581c00c7e700bf68910120088e0120209301206a
:10582c00f8920120a84bdb6ca8f800304ff47a609a
:10583c0029f032ff2268a44b53f82230002bb0d150
:10584c00a24b93f83630002babd0dce79e4a52f8d3
:10585c002330a9f800304ff47a6029f01dff22683c
:10586c00994b53f82230002b7ff48bab974b93f86a
:10587c003730002b3ff485abaee7934bd3f8943025
:10588c00012b21d0904bd3f89430022b7ff479abc1
:10589c0023688d4a52f823008d49c86152f82320a1
:1058ac00002a44d0894a92f83920002a36d0864af8
:1058bc0052f82330002b7ff464ab844b4ff0000282
:1058cc0083f83920fff75dbb7f4b196d814ad1619d
:1058dc001b6dbbb17d4b93f838305bb122687a4bb2
:1058ec0053f82230002bcdd1784b4ff0000283f8c7
:1058fc003820c7e7744b1b6da8f800304ff47a6062
:10590c0029f0cafe2268704b53f82230002bb9d113
:10591c006e4b93f83830002bb4d0e5e76a4a52f856
:10592c002330a9f800304ff47a6029f0b5fe2268d4
:10593c00654b53f82230002b7ff423ab634b93f869
:10594c003930002b3ff41dabb7e75f4bd3f89830e1
:10595c00012b21d05c4bd3f89830022b7ff411ab88
:10596c002368594a52f823005949086252f82320f7
:10597c00002a44d0554a92f83b20002a36d0524a8d
:10598c0052f82330002b7ff4fcaa504b4ff000024e
:10599c0083f83b20fff7f5ba4b4b596d4d4a11621a
:1059ac005b6dbbb1494b93f83a305bb12268464b07
:1059bc0053f82230002bcdd1444b4ff0000283f82a
:1059cc003a20c7e7404b5b6da8f800304ff47a6083
:1059dc0029f062fe22683c4b53f82230002bb9d1df
:1059ec003a4b93f83a30002bb4d0e5e7364a52f8ec
:1059fc002330a9f800304ff47a6029f04dfe22686c
:105a0c00314b53f82230002b7ff4bbaa2f4b93f869
:105a1c003b30002b3ff4b5aab7e72b4b9a6d2e49c0
:105a2c000a639b6ddbb1294b9b7d63b12268264bce
:105a3c0053f82230002b7ff4a4aa244b4ff0000221
:105a4c009a75fff79eba214b4ff001029a751e4bc7
:105a5c009b6daaf800304ff47a6029f01dfe226885
:105a6c00194b53f82230002b7ff48baa174b9b7ddc
:105a7c00002b3ff486aae0e7134bd3f88c30012bb4
:105a8c002cd0114bd3f88c30022b7ff47aaa2368dc
:105a9c000d4a52f823000e49486252f82320002a7e
:105aac004fd00a4a92f83d20002a41d0064a52f8bb
:105abc002330002b7ff465aa044b4ff0000283f8cf
:105acc003d20fff75eba00bf088e012068910120cf
:105adc0020930120f892012028910120934b196efc
:105aec00934a51621b6ebbb1924b93f83c305bb145
:105afc0022688e4b53f82230002bc2d18d4b4ff0c5
:105b0c00000283f83c20bce7884b1b6ea8f80030e1
:105b1c004ff47a6029f0c0fd2268844b53f8223090
:105b2c00002baed1834b93f83c30002ba9d0e5e78a
:105b3c007e4a52f82330a9f800304ff47a6029f0ed
:105b4c00abfd2268794b53f82230002b7ff419aa55
:105b5c00784b93f83d30002b3ff413aaace7734b12
:105b6c005a6e75494a635b6ed3b1724b5b7e63b1ff
:105b7c0022686e4b53f82230002b7ff402aa6d4b37
:105b8c004ff000025a76fff7fcb96a4b4ff0010256
:105b9c005a76664b5b6e33804ff47a6029f07cfd4d
:105bac002268624b53f82230002b7ff4eaa9614b38
:105bbc005b7e002b3ff4e5a9e1e75c4b9a6e5e49f6
:105bcc008a639b6ed3b15b4b9b7e63b12268574b50
:105bdc0053f82230002b7ff4d4a9564b4ff000021f
:105bec009a76fff7ceb9534b4ff001029a764f4b92
:105bfc009b6e33804ff47a6029f04efd22684b4b3c
:105c0c0053f82230002b7ff4bca94a4b9b7e002b0f
:105c1c003ff4b7a9e1e7454bda6e47498a63db6e7f
:105c2c00d3b1444bdb7e63b12268404b53f8223036
:105c3c00002b7ff4a6a93f4b4ff00002da76fff75a
:105c4c00a0b93c4b4ff00102da76384bdb6e338057
:105c5c004ff47a6029f020fd2268344b53f822303f
:105c6c00002b7ff48ea9334bdb7e002b3ff489a9ec
:105c7c00e1e7324b1a78304b043b002001e0ab4299
:105c8c0007d053f8041f0029f9d00132d2b2009882
:105c9c00f5e708b1294b1a70284b1b7853b1274be9
:105cac004ff000021a70264b1a78214b03f1280092
:105cbc00002622e0234b4ff000021a80224b1a8060
:105ccc00adf80c20214b1b88adf80e30204b1b88f7
:105cdc00adf81030adf812203b88adf814301d4be8
:105cec001b88adf816300223019a03a91a480068e4
:105cfc0025f0a4fad7e7984207d053f8041b0029e3
:105d0c00f9d00132d2b2009ef5e70eb10c4b1a70ed
:105d1c000b4b1b7833b30a4b4ff000021a700f4b2e
:105d2c001a780f4b03f1280000263ee0088e012064
:105d3c00f89201206891012028910120c29901203c
:105d4c00c3990120068e01206e960120a691012098
:105d5c00da910120829901202c970120c49901200d
:105d6c0020930120334b4ff000021a803a80324bc3
:105d7c001b88adf80c30adf80e20304b1b88adf8fd
:105d8c0010302f4b1b88adf81230adf814202d4b72
:105d9c001b88adf816300223019a03a92a48006823
:105dac0025f04cfabbe7834207d053f8041b0029bb
:105dbc00f9d00132d2b2009ef5e70eb1234b1a7026
:105dcc00224b1b78002b30d11c4b4ff000021a8059
:105ddc001c4b1a80184b1b88adf80c30154b1b88cc
:105dec00adf80e30adf81020154b1b88adf8123005
:105dfc003b88adf81430adf816200223019a03a9a4
:105e0c001148006825f01afa4ff47a7029f044fc16
:105e1c00019b2360084edff82490dff81880dff830
:105e2c0020a0dff820b0fff7cfb8084b4ff00002ee
:105e3c001a70e9e7a6910120068e0120da91012063
:105e4c006e960120829901202c970120c499012083
:020000040000fa
:105e5c0038b50446d4485a230370a523437007234e
:105e6c0083708223c3701423037102234371d4f80b
:105e7c0000311a0e82711a0cc2711a0a0272437224
:105e8c00ca4b4ff400229a610a2127f073f82af0ca
:105e9c00f1ff0028fbd0c54b4ff400225a61c248d9
:105eac005a210170a5214170052181708221c17098
:105ebc00142101710621417100218171b4f81e1168
:105ecc00c1719a61082127f055f82af0d3ff0028f8
:105edc00fbd0b64b4ff400225a61b3485a210170e3
:105eec00a5214170052181708221c170142101719d
:105efc000821417100258571d4f80451c5719a614e
:105f0c0027f038f82af0b6ff0028fbd0a74a4ff448
:105f1c0000215161a4485a230370a5234370052323
:105f2c0083708223c370142303710a2343710023eb
:105f3c008371d4f804311b0ac3719161082127f0d5
:105f4c0019f82af097ff0028fbd0984b4ff4002249
:105f5c005a6195485a210170a52141700521817023
:105f6c008221c170142101710c21417100218171b8
:105f7c00b4f80611c1719a61082126f0fbff2af0d2
:105f8c0079ff0028fbd0894b4ff400225a618648d8
:105f9c005a210170a5214170052181708221c170a7
:105fac00142101710e21417100218171b4f80e117f
:105fbc00c1719a61082126f0ddff2af05bff0028f1
:105fcc00fbd07a4a4ff40021516177485a23037071
:105fdc00a5234370052383708223c370142303719c
:105fec001023437100238371d4f80c311b0ac37145
:105ffc009161082126f0beff2af03cff0028fbd05f
:10600c006a4b4ff400225a6167485a210170a5214e
:10601c004170052181708221c170142101711221fe
:10602c00417100218171d4f80c11c1719a61082160
:10603c0026f0a0ff2af01eff0028fbd05b4a4ff48d
:10604c000021516158485a230370a523437007233c
:10605c0083708223c3701423037116234371d4f805
:10606c0020311d0e85711d0cc5711d0a0572437200
:10607c0091610a2126f07eff2af0fcfe0028fbd05d
:10608c004a4b4ff400225a6147485a210170a5210e
:10609c004170052181708221c170142101711a2176
:1060ac00417100218171b4f83e11c1719a610821ce
:1060bc0026f060ff2af0defe0028fbd03b4b4ff4ad
:1060cc0000225a6138485a210170a52141700521de
:1060dc0081708221c170142101711c214171002138
:1060ec008171d4f82411c1719a61082126f042ff04
:1060fc002af0c0fe0028fbd02c4a4ff4002151613d
:10610c0029485a230370a5234370052383708223e7
:10611c00c370142303711e23437100238371d4f8bd
:10612c0024311b0ac3719161082126f023ff2af048
:10613c00a1fe0028fbd01d4b4ff400225a611a48d7
:10614c005a210170a5214170052181708221c170f5
:10615c00142101712021417100218171b4f82611a3
:10616c00c1719a61082126f005ff2af083fe0028f0
:10617c00fbd00e4b4ff400225a610b485a21017090
:10618c00a5214170052181708221c17014210171fa
:10619c002221417100218171b4f82e11c1719a61d3
:1061ac00082126f0e7fe03e07093012000800041f7
:1061bc002af060fe0028fbd0d54a4ff40021516133
:1061cc00d4485a230370a52343700523837082237c
:1061dc00c370142303712423437100238371d4f8f7
:1061ec002c311b0ac3719161082126f0c3fe2af0e1
:1061fc0041fe0028fbd0c64b4ff400225a61c54823
:10620c005a210170a5214170052181708221c17034
:10621c00142101712621417100218171d4f82c11b6
:10622c00c1719a61082126f0a5fe2af023fe0028f0
:10623c00fbd0b74a4ff400215161b6485a23037082
:10624c00a5234370072383708223c3701423037127
:10625c002a234371d4f840311d0e85711d0cc57174
:10626c001d0a0572437291610a2126f083fe2af001
:10627c0001fe0028fbd0a64b4ff400225a61a54822
:10628c005a210170a5214170052181708221c170b4
:10629c00142101712e21417100218171b4f85e111c
:1062ac00c1719a61082126f065fe2af0e3fd0028f1
:1062bc00fbd0974b4ff400225a6196485a2101703b
:1062cc00a5214170052181708221c17014210171b9
:1062dc003021417100218171d4f84411c1719a614e
:1062ec00082126f047fe2af0c5fd0028fbd0884a7d
:1062fc004ff40021516187485a230370a523437042
:10630c00052383708223c3701423037132234371da
:10631c0000238371d4f844311b0ac37191610821a5
:10632c0026f028fe2af0a6fd0028fbd0784b4ff46f
:10633c0000225a6177485a210170a521417005212c
:10634c0081708221c17014210171342141710021ad
:10635c008171b4f84611c1719a61082126f00afec8
:10636c002af088fd0028fbd0694b4ff400225a61bb
:10637c0068485a210170a521417005218170822144
:10638c00c170142101713621417100218171b4f861
:10639c004e11c1719a61082126f0ecfd2af06afdbc
:1063ac000028fbd05a4a4ff40021516159485a2316
:1063bc000370a5234370052383708223c3701423b9
:1063cc0003713823437100238371d4f84c311b0ab9
:1063dc00c3719161082126f0cdfd2af04bfd0028f8
:1063ec00fbd04b4b4ff400225a614a485a210170a2
:1063fc00a5214170052181708221c1701421017188
:10640c003a21417100218171d4f84c11c1719a610a
:10641c00082126f0affd2af02dfd0028fbd03c4ac8
:10642c004ff4002151613b485a230370a52343705c
:10643c00072383708223c370142303714023437199
:10644c00d4f860311d0e85711d0cc5711d0a0572c5
:10645c00437291610a2126f08dfd2af00bfd002874
:10646c00fbd02b4b4ff400225a612a485a21017061
:10647c00a5214170052181708221c1701421017107
:10648c004421417100218171b4f87e11c1719a616e
:10649c00082126f06ffd2af0edfc0028fbd01c4be8
:1064ac004ff400225a611b485a210170a5214170fa
:1064bc00052181708221c170142101714621417125
:1064cc0000218171d4f86411c1719a61082126f000
:1064dc0051fd2af0cffc0028fbd00d4a4ff40021cf
:1064ec0051610c485a230370a52343700523837014
:1064fc008223c370142303714823437100238371d7
:10650c00d4f864311b0ac3719161082104e000bf07
:10651c00008000417093012026f02cfd2af0aafc8b
:10652c000028fbd0d54b4ff400225a61d4485a2195
:10653c000170a5214170052181708221c170142147
:10654c0001714a21417100218171b4f86611c17148
:10655c009a61082126f00efd2af08cfc0028fbd055
:10656c00c64b4ff400225a61c5485a210170a5212f
:10657c004170052181708221c170142101714c215f
:10658c00417100218171b4f86e11c1719a610821b9
:10659c0026f0f0fc2af06efc0028fbd0b74a4ff432
:1065ac0000215161b6485a230370a523437005237b
:1065bc0083708223c370142303714e234371002311
:1065cc008371d4f86c311b0ac3719161082126f0d8
:1065dc00d1fc2af04ffc0028fbd0a84b4ff4002232
:1065ec005a61a7485a210170a5214170052181707b
:1065fc008221c170142101715021417100218171de
:10660c00d4f86c11c1719a61082126f0b3fc2af000
:10661c0031fc0028fbd0994a4ff400215161984875
:10662c005a230370a5234370072383708223c370fe
:10663c001423037156234371d4f880311d0e8571d8
:10664c001d0cc5711d0a0572437291610a2126f059
:10665c0091fc2af00ffc0028fbd0884b4ff4002251
:10666c005a6187485a210170a5254570052585700a
:10667c008225c57014250571417100218171b4f812
:10668c009e11c1719a61082126f074fc2af0f2fb6c
:10669c000028fbd0794b4ff400225a6178485a21dc
:1066ac000170a5214170052181708221c1701421d6
:1066bc0001715c21417100218171d4f88411c17187
:1066cc009a61082126f056fc2af0d4fb0028fbd056
:1066dc006a4a4ff40021516169485a230370a5237b
:1066ec004370052383708223c370142303715e23cc
:1066fc00437100238371d4f884311b0ac3719161f7
:10670c00082126f037fc2af0b5fb0028fbd05b4ba8
:10671c004ff400225a615a485a210170a521417048
:10672c00052181708221c170142101716021417198
:10673c0000218171b4f88611c1719a61082126f08b
:10674c0019fc2af097fb0028fbd04c4b4ff400228d
:10675c005a614b485a210170a52141700521817065
:10676c008221c1701421017162214171002181715a
:10677c00b4f88e11c1719a61082126f0fbfb2af046
:10678c0079fb0028fbd03d4a4ff4002151613c4875
