:10000000F0FF0320F5F70200F702030013160300C8
:100010005B1E03006F4B0300375803000000000015
:10002000000000000000000000000000E14C0300A0
:10003000831A030000000000F1070300AD3A03003B
:100040007760030077600300776003007760030048
:100050007760030077600300776003007760030038
:100060007760030077600300776003007760030028
:1000700077600300AD4E0300CD4E030077600300B0
:1000800077600300ED4E03000D4F03002D4F03007A
:10009000494C03006D4C0300914C03009D46030046
:1000A000C5460300776003007760030077600300B4
:1000B00077600300776003007760030077600300D8
:1000C00077600300776003007760030077600300C8
:1000D00077600300776003007760030077600300B8
:1000E000776003007760030000000000000000005C
:1000F0000000000077600300776003007760030072
:100100007760030077600300776003007760030087
:100110007760030077600300510F0300510F030065
:10012000510F0300510F03004DB902004DB90200F9
:100130004DB902004DB90200310D0300310D03002D
:10014000310D0300310D0300A10E0300A10E0300C9
:10015000A10E0300A10E0300F90E0300F90E030027
:10016000F90E0300F90E0300A90F0300A90F030005
:10017000A90F0300A90F0300A5E20200C1E50200D8
:100180007760030077600300776003007760030007
:1001900000000000776003007760030077600300D1
:1001A00077600300776003007760030077600300E7
:1001B00077600300776003007760030077600300D7
:1001C00077600300776003007760030077600300C7
:1001D00077600300776003007760030077600300B7
:1001E00077600300776003007760030077600300A7
:1001F0007760030077600300776003007760030097
:100200007760030077600300776003007760030086
:100210007760030077600300776003007760030076
:100220007760030077600300776003007760030066
:100230007760030077600300776003007760030056
:100240007760030077600300776003007760030046
:100250007760030077600300776003007760030036
:10026000F8B500BFF8BC08BC9E467047811E03006D
:10027000F8B500BFF8BC08BC9E4670475D1E030081
:1002800024910200010000002DE9F04FADF5077D3B
:1002900000248494859482948DF80C42ADF8044235
:1002A0007F9480947E947B947C948DF8F44179942F
:1002B000CDF8E74176947794789473947494759418
:1002C00070947194729469946A946B946C946D9424
:1002D0006E946F94659466946794ADF8A0415F94B2
:1002E0006094619462946394CDF88F41CA22214650
:1002F00017A835F00FFD159416941E22214605A867
:1003000035F008FDB24FB34CDFF83083DFF830A38F
:10031000DFF83093DFF830B332E2AF4B18682FF0DC
:100320004FF90025AAF80050A9F80050AB4B1D70FA
:10033000AB4B1D80AB4B1D702A4684A9AA4B186895
:100340002DF08CF82A4682A9A84B18682DF086F863
:100350002A4681A9A64B18682DF080F89DF817321F
:10036000012B40F0D7819DF80A32002B40F0D2815A
:100370009DF809326D2B26D89DF80932632B00F2C7
:10038000C9819C4E769640238DF8E2319A4D002328
:10039000642276A928682CF043FF4FF47A7032F07B
:1003A0001DFF769600238DF8BE318DF8E231642270
:1003B00076A928682CF034FF642032F00FFF8F4BB1
:1003C00001221A70A6E18E4B1D608E4B1D60894B79
:1003D000769340238DF8E231874E2B46642276A92E
:1003E00030682CF01DFF4FF47A7032F0F7FE814B2D
:1003F00076938DF8BE518DF8E2512B46642276A992
:1004000030682CF00DFF642032F0E8FE7B4B0122B7
:100410001A700C2388F80030AEE77B4B73930025ED
:100420008DF8D0512B46642273A9784800682CF0CF
:10043000F7FE642032F0D2FE754B709301268DF8E2
:100440009A618DF8C4618DF89B518DF8C5518DF876
:100450009C518DF8C6512B46642270A96D480068E6
:100460002CF0DEFE642032F0B9FE624B76938DF8FC
:10047000BC618DF8DD612B46642276A95E48006878
:100480002CF0CEFE642032F0A9FE2A4681A9584BFA
:1004900018682CF0E3FF9DF80432B34240F03A8133
:1004A000564B02221A7035E1524D769540238DF855
:1004B000E231514E0023642276A930682CF0B0FE60
:1004C0004FF47A7032F08AFE769500258DF8BE5191
:1004D0008DF8E2512B46642276A930682CF0A0FEFC
:1004E000642032F07BFE2A4682A9404B18682CF02B
:1004F000B5FF002800F00E819DF80932503BDBB2B9
:100500001D2B1DD8444B4FF48032C3F8942009238F
:1005100088F80030414B01221A70394B1B68934216
:1005200048D03F4B1B78022B00F09080344B1B6867
:1005300013B9324B03221A703A4A1368013313601D
:100540009DF809326D2B21D9374B1B78C3B9364B37
:100550001B7823B9304B4FF48032C3F89820334BCB
:1005600018682DF06BFD4FF6FF7031F057FE002339
:10057000234A1360234A13602D4B1B78002B7AD03B
:10058000264B00221A700C2388F80030254B1B687C
:100590001E2B40F3BF80234B00221A60224B1B7896
:1005A00023B91D4B4FF48032C3F89820134B00221F
:1005B0001A70AFE02A468DF84050022310A91D485A
:1005C00000682CF02DFE1C4B18682EF0F9FFA8E7F0
:1005D000E19B0120D49A0120A4990120009C0120D4
:1005E0000E970120D79B0120809A0120849A012038
:1005F000A89A012002C4EC15489A0120AD9B012065
:10060000189B0120209B012001C4EC152C9A01208D
:1006100002D4EC151C9A012000800041D59B0120DA
:10062000C09B0120049B0120CF9B01204099012009
:100630000C9C0120249901200C990120A59B0120EC
:10064000BE9B0120CC9B0120DF9B0120B74B5B7838
:10065000012B7FF46BAFB64B03221A7000228DF88A
:100660004420022311A9B34800682CF0D9FDB24BF5
:1006700001221A605AE7B14B01221A70B04B187868
:1006800030F048F87CE70025AE4B1D60AE4B73930D
:1006900008238DF87F318DF8D3312B46642273A95E
:1006A000AA4800682CF0BCFD4FF47A7032F096FD39
:1006B000A74E76968DF8BD518DF8E0518DF8BE515C
:1006C0008DF8E2518DF8BF518DF8E3512B4664222D
:1006D00076A9A04800682CF0A3FD4FF47A7032F0A0
:1006E0007DFD2A4681A99C4B18682CF0B7FE7696B2
:1006F00002238DF8BC318DF8DD312B46642276A9BA
:10070000944800682CF08CFD642032F067FD884B23
:1007100004221A7098F800308DF85130BAF8002091
:10072000ADF84E20B9F80020ADF84C209BF8002021
:100730008DF852203A788DF850208DF848300223F9
:10074000002213A9854800682CF06AFD02230022CC
:1007500012A9834800682CF063FD2368012B0BD19C
:1007600000232360724A13707E4B18682EF028FF16
:100770007D4B18682DF062FC4FF4487032F02EFD6E
:1007800000220DA9794B18682CF068FE28B1784A30
:100790009DF8343011880B441380654B1B78DBB215
:1007A0001E2BB7D801A252F823F000BF1B03000094
:1007B0001B040000A90400008706000029080000AF
:1007C000150700009D080000150700001507000030
:1007D00015070000150700001507000015070000A9
:1007E000150700001507000015070000210A00008A
:1007F000150700004D0B00007B0D0000890E000066
:100800001507000001110000150700001507000082
:100810001507000015070000150700001507000068
:1008200015070000991B0000002282A9514B18688F
:100830002CF014FE002281A9474B18682CF00EFE04
:100840009DF80A32012B1FD09DF80432FA2B02D0FA
:10085000FC2B00D013B9364B00221A709DF80932D8
:100860006D2B7FF657AF444B1B7823B9434B4FF4A6
:100870008032C3F898200023414A13700C2288F874
:1008800000202B4A137045E79DF80932503BDBB23C
:100890001D2BD9D8264B06221A70D5E70022274BEC
:1008A0001A7081A92C4B18682CF0D8FD9DF80432E1
:1008B000312B0ED9334B1B68012B28D0002B41F074
:1008C000B282002279A9304B18682CF0C7FD0028AD
:1008D0005ED19DF80432FA2B02D0FC2B00D053B924
:1008E000284A1268012A19D02AB9114A0021117028
:1008F000244A012111600A2B7FF40CAF234B1B7893
:100900000133DBB2F02B7BD0204A137002E7084B97
:1009100010221A709DF80432FA2BDED1044A00210D
:100920001170184A01211160E5E700BFC09B01204A
:10093000AD9B012034990120209B01200C9C0120BB
:10094000CF9C0120049B012001C4EC152C9A0120AE
:1009500002C4EC15489A0120A89A01202099012090
:10096000E09801206C990120349A012064990120BB
:100970000E970120849A0120CF9B01200080004126
:10098000D59B0120189B0120909A01201A9C0120E0
:100990009DF8E4318DF838309DF8E5318DF8393027
:1009A0009DF8E6318DF83A309DF8E7318DF83B300F
:1009B0009DF8E8318DF83C309DF8E9318DF83D30F7
:1009C000022300220EA9534800682CF029FC9DF850
:1009D0003830002B3FF47DAF4F4B01221A604F4B54
:1009E00010221A7002238DF84030002210A94C48C2
:1009F00000682CF015FC4B4B18682EF0E1FD68E701
:100A00000023494A1370454A1370484B40F2331291
:100A10001A80474B02221A7011202FF07BFE79E6D4
:100A2000414B00221A70434B1B686BBB424B1B7837
:100A3000022B2DD1404B5B78012B29D115468DF827
:100A40004420022311A93D4800682CF0E9FB3C4BEF
:100A5000769301238DF8BE318DF8E2312B46642266
:100A600076A9384800682CF0DBFB642032F0B6FB36
:100A70002A4681A9344B18682CF0F0FC274B12222F
:100A80001A700E202FF046FE2A4B1B68012B22D035
:100A9000002281A92C4B18682CF0E0FC9DF8043250
:100AA000FA2B04D0FC2B02D0002B7FF433AE1B4B6F
:100AB00000221A70184B01221A601C4B4FF49A72D4
:100AC0001A801B4B02221A70062033F039F91120CC
:100AD0002FF020FE1EE61A4B769301238DF8BE31CF
:100AE0008DF8E2310023642276A9164800682CF0C4
:100AF00097FB642032F072FB002281A9124B186828
:100B00002CF0ACFC054B12221A700E202FF002FEC6
:100B1000BEE700BF28990120189B0120AD9B012052
:100B2000249901200C9901201A9C01204E98012043
:100B3000E59B0120209B0120C09B012034990120CE
:100B400002C4EC15489A0120A89A01200123B84A52
:100B50001360B84A4FF40011C2F8181100225C92D9
:100B6000B54A5D928DF8783102238DF879310022F3
:100B70005CA9B24800682CF053FBB14B18682EF00A
:100B80001FFD00227FA9AF4B18682CF067FC0028DE
:100B900000F0D8809DF8FC319DF8FD2102EB032286
:100BA000A94981FB0232931007EE903AF8EEE77AFA
:100BB0009DF8FE219DF8FF3103EB022381FB032307
:100BC0009B1007EE103AB8EEC77ABDEEC77A17EE63
:100BD000103A4EF6602292FBF3F303EB83035B00C3
:100BE00007EE103AB8EEC77A984B83ED007AB2EE72
:100BF000047A67EE877A93ED007AF4EEC77AF1EE25
:100C000010FA48BFC3ED007A914B769300258DF81A
:100C1000E2512B46642276A98E4800682CF000FB36
:100C2000642032F0DBFA8C4B7393884AD2ED007A61
:100C3000FCEEE77A17EE903A8DF8D031D2ED007ADB
:100C4000FCEEE77A17EE903AC3F307238DF8D13123
:100C500070238DF8D23117238DF8D3314FF0100265
:100C60008DF8D42127238DF8D53114268DF8D6613F
:100C70008DF8D7512B46642273A9784800682CF070
:100C8000CFFA4FF4967032F0A9FA8DF8D0618DF852
:100C9000D151C8238DF8D2318DF8D3518DF8D4615C
:100CA0008DF8D55164268DF8D6618DF8D7516C4BEF
:100CB00073932B46324673A9684800682CF0B0FA4B
:100CC0004FF4967032F08AFA02238DF8BE318DF817
:100CD000E2315F4B76932B46324676A95D48006839
:100CE0002CF09EFA304632F079FA10202FF012FDE7
:100CF0002A4681A95B4B18682CF0B0FB9DF80422B2
:100D0000A2F15B03DBB2092B08D8574B13221A70F0
:100D1000484B4FF48012C3F8142113E0FA2A01D093
:100D2000FC2A27D1504B00221A70504B40F235124A
:100D30001A804F4B02221A70082033F001F811205C
:100D40002FF0E8FC00250E95ADF83C5002232A4612
:100D50000EA9484800682CF063FA8DF84050022331
:100D60002A4610A9444800682CF05AFA434B1D80CB
:100D70009D70CFE4002AD5D0E4E7002282A9404B41
:100D800018682CF06BFB9DF80932312B7FF6C2AC52
:100D90003C4B1B78012B30D1264BD3F8203113F07C
:100DA000807F19D101238DF8BD318DF8E0310C23FE
:100DB0008DF8BE318DF8E231254B76930023642205
:100DC00076A9244800682CF02BFA642032F006FA49
:100DD000254B14221A709DE4234B00221A70234BDA
:100DE00040F235121A80224B02221A70072032F08C
:100DF000A7FF11202FF08EFC8CE401238DF8BD316C
:100E00008DF8E0310C238DF8BE318DF8E231104BB6
:100E100076930023642276A90E4800682CF000FA2D
:100E2000642032F0DBF9104B14221A7072E400BF18
:100E3000209B01200080004100004843DC990120F4
:100E4000E0990120989A012067666666B0990120B2
:100E500002C4EC15489A012003C4EC152C9A012019
:100E600004C0EC15A89A0120AD9B01204E980120EA
:100E7000E59B01202899012024990120C09B012095
:100E8000849A0120339D012000227EA9824B18689C
:100E90002CF0E4FA9DF8F8319DF8F92102EB0322D9
:100EA0007E4981FB0232921007EE902AF8EEE77A33
:100EB0007B4BC3ED007A9DF8FA219DF8FB3103EBE3
:100EC000022381FB03239B1007EE103AB8EEC77A8A
:100ED000744B83ED007A4FF080435C93CDED5D7AE7
:100EE00001238DF8783102238DF8793100225CA935
:100EF0006D4800682CF094F96C4B18682EF060FB7C
:100F00009DF8F9318DF8DC319DF8F8318DF8DD313F
:100F1000674B76930023642276A9664800682CF01C
:100F20007FF9642032F05AF9002281A9624B1868D7
:100F30002CF094FA00283FF4EDAB9DF80432782BA6
:100F40001AD09DF80432FA2B04D0FC2B02D0002BCF
:100F50007FF4E0AB594B1E221A70594B4FF49B7231
:100F60001A80584B02221A70082032F0E9FE112034
:100F70002FF0D0FBFFF7CEBB534B1E6835F028F89F
:100F80004EF660250095002302460121304631F0DF
:100F900085F84E4B1E6835F01BF80095002302467D
:100FA0000121304631F07AF8494B1E6835F010F8CF
:100FB0000095002302460121304631F06FF8454B81
:100FC0001E6835F005F800950023024601213046E1
:100FD00031F064F8404B1E6834F0FAFF00950023AE
:100FE00002460121304631F059F83C4B1E6834F07E
:100FF000EFFF0095002302460121304631F04EF804
:1010000012202FF087FB032030F04CF92B4B1622D7
:101010001A70334B187831F069FE642032F0DEF834
:10102000304D287831F07EFE642032F0D7F82E4E15
:10103000308831F093FE642032F0D0F82B490878E4
:1010400031F0C4FE642032F0C9F82948007831F04C
:10105000A1FE642032F0C2F8264A107831F0D2FEA8
:10106000642032F0BBF8244B1A68244B1A60318894
:101070002B781B4A12781B0243EA014313434D931A
:101080001B480178194B1B781A4A12781B0243EA55
:10109000014313434E9354E7A09A012067666666A6
:1010A0008C9B0120E49A0120DC990120E099012029
:1010B00005C4EC15489A0120A89A0120AD9B012097
:1010C0004E980120E59B0120C09A01204C9B0120F5
:1010D000509B0120549B0120589B01207C990120AA
:1010E000F19B01200A9C0120FA8C0120099C01201F
:1010F000FA9B0120189C01209C990120089A01204C
:10110000514B18682EF05CFA504B188831F046FDB0
:101110004F4B1B78072B00F0928000227EA94D4B8D
:1011200018682CF09BF9002840F0B68000227BA9BB
:10113000494B18682CF092F9A0B1484A13789DF8F1
:10114000EE014749C854062188F800100133137096
:101150003F4B1B78042B40F214843D4B1B78052B2E
:1011600000F01B843F4B1B78052B00F01F843B4B8A
:101170001B78052B00F073843B4B1B782BB93B4B42
:101180001B78DBB2012B00F08984374B1B78DBB274
:10119000012B00F08E844FF4FA6284A9344B186856
:1011A0002CF05CF930B19DF816321BB103F52F73AA
:1011B000304A13809DF80432292B03D0FA2B01D03A
:1011C000FC2B12D12C4B1E221A70092388F80030F8
:1011D0002A4BCA221A802A4B02221A700A2032F0A5
:1011E000AFFD284B1A68284B1A609DF8EC31012B93
:1011F00000F07684002282A9244B18682CF02EF986
:1012000030B19DF80932463BDBB23B2B40F27D8486
:101210001F4B1B78022B00F08984164B1B88B3F5FB
:10122000397F05D0A3F2E72292B2012A3FF672AAD3
:10123000124A13800F4B00221A80FFF76BBA154B2E
:10124000187832F0BBFA68E7409901200E97012028
:10125000009C0120A09A01209C9A0120FD9B012066
:1012600050980120059C0120CF9B0120D59B012097
:10127000809A0120DE8F0120AD9B01204E98012035
:10128000E59B01209C990120109A0120849A01205D
:10129000C09B0120B59B01209DF8FA219DF8FB31F0
:1012A00003EB0223C04A82FB03139B0807EE903A2C
:1012B000F8EE677ABD4BC3ED007A9DF8F8119DF802
:1012C000F93103EB012382FB03239B0807EE103A5D
:1012D000B8EE477AB64B83ED007A17EE900A31F0FC
:1012E000B1FF02460B46B34905A834F08BF81E2126
:1012F00005A82EF0A5FE34F07DFC0028FBD0AB4BFA
:1013000093ED007AAA4BD3ED007A67EE877AAA4B69
:10131000C3ED007AB5EE407AF1EE10FA07D1A74A94
:10132000136801331360B3F5967F00F3D480A44BA8
:101330001B78002B40F09180A24B1A68A24B1A60D8
:10134000D3ED007A9C4B93ED007AB4EEE77AF1EEA0
:1013500010FA3BD59D4B1B7863BB954BD3ED007AC0
:101360009FED9B7A77EE877ACDED5D7A964BD3ED44
:10137000006A984BD3ED007A86EEA77A8B4BD3EDBB
:10138000007AB4EEE77AF1EE10FA00F2BD80F5EEE5
:10139000007A27EE277A8DED5C7A03238DF8793178
:1013A00001238DF87831022300225CA98A48006865
:1013B0002BF036FF854B1B78DBB2012B00F0B180A0
:1013C000824B1B78DBB2012B00F022817E4BD3EDE8
:1013D000007A794B93ED007AB4EEE77AF1EE10FAE9
:1013E0003BDD7A4B1B7863BB714BD3ED007A9FEDED
:1013F000787A77EE877ACDED5D7A734BD3ED006A1C
:10140000744BD3ED007A86EEA77A684BD3ED007A61
:10141000B4EEE77AF1EE10FA00F23981F5EE007AD7
:1014200027EE277A8DED5C7A03238DF8793101233D
:101430008DF87831022300225CA9674800682BF000
:10144000EFFE624B1B78DBB2012B00F02D815F4B6E
:101450001B78DBB2012B00F06A81594B1B78DBB2A1
:10146000012B00F0A3819DF8FA019DF8FB515B4E22
:1014700032784FEA820C5A49614405EB0023DFF8C9
:1014800028E18EFB03E39B0807EE903AF8EE677ABB
:10149000C1ED007A534B9C444E4B1B68CCF8003096
:1014A000013232709DF8F9318DF8DC319DF8F83158
:1014B0008DF8DD318DF8DE518DF8DF014A4B7693E2
:1014C0000023642276A9494800682BF0A9FE322047
:1014D00031F084FE2AE6464B1E221A70092088F855
:1014E0000000444BC9221A80434B02221A7032F08A
:1014F00027FC424A002313809370414A1168414AF5
:1015000011602E4A136012E7B4EEE77AF1EE10FA9A
:101510007FF743AFB5EE007A67EE877ACDED5C7A60
:101520003BE7394B1B78DBB2112B7FF649AF374BCA
:101530004FF40012C3F818211D4BD3ED007A9FED34
:10154000247A77EE877ACDED5D7A1F4BD3ED006A72
:10155000204BD3ED007A86EEA77A144BD3ED007AB8
:10156000B4EEE77AF1EE10FA12D8F6EE007A27EE32
:10157000277A8DED5C7A02238DF8793101228DF87E
:10158000782100225CA9144800682BF049FE1DE771
:10159000B4EEE77AF1EE10FAEDDDB6EE007A67EE22
:1015A000877ACDED5C7AE6E767666666E49A0120A5
:1015B0008C9B0120D43E0100449B0120CC9A012049
:1015C000DD9B0120E89D0120C8990120CF9B0120CF
:1015D00000000000F09D0120DC990120059C012005
:1015E000649601208C96012005C4EC15489A0120D0
:1015F000AD9B01204E980120E59B0120C09B01205E
:101600009C990120109A0120A99B01200080004193
:10161000CA4B1B78DBB2112B3FF6D8AEC84BD3EDCB
:10162000007A9FEDC87A77EE877ACDED5D7AC64B6A
:10163000D3ED006AC54BD3ED007A86EEA77AC44B92
:10164000D3ED007AB4EEE77AF1EE10FA13D8F5EEA6
:10165000007A27EE277A8DED5C7A03238DF87931B5
:1016600001238DF87831022300225CA9B948006873
:101670002BF0D6FDAAE6B4EEE77AF1EE10FAECDD37
:10168000B5EE007A67EE877ACDED5C7AE5E7B4EEE9
:10169000E77AF1EE10FA7FF7C7AEB5EE007A67EEA3
:1016A000877ACDED5C7ABFE6A44B1B78DBB2112BB9
:1016B0007FF6CDAEA84B4FF40012C3F81821A04B13
:1016C000D3ED007A9FED9F7A77EE877ACDED5D7A44
:1016D0009D4BD3ED006A9D4BD3ED007A86EEA77A41
:1016E0009B4BD3ED007AB4EEE77AF1EE10FA12D804
:1016F000F6EE007A27EE277A8DED5C7A02238DF8DC
:10170000793101228DF8782100225CA99148006886
:101710002BF086FDA1E6B4EEE77AF1EE10FAEDDDEE
:10172000B6EE007A67EE877ACDED5C7AE6E7834B1A
:101730001B78DBB2112B3FF690AE814BD3ED007AD4
:101740009FED807A77EE877ACDED5D7A7E4BD3ED93
:10175000006A7E4BD3ED007A86EEA77A7C4BD3ED00
:10176000007AB4EEE77AF1EE10FA13D8F5EE007ACB
:1017700027EE277A8DED5C7A03238DF879310123EA
:101780008DF87831022300225CA9724800682BF0A2
:1017900047FD62E6B4EEE77AF1EE10FAECDDB5EE65
:1017A000007A67EE877ACDED5C7AE5E76B4B1B78C4
:1017B0005BBB634BD3ED007A9FED627A77EE877A5D
:1017C000CDED5D7A664BD3ED006A604BD3ED007AC8
:1017D00086EEA77A5E4BD3ED007AB4EEE77AF1EEAF
:1017E00010FA51D8F5EE007A27EE277A8DED5C7A63
:1017F00003238DF8793101238DF8783102230022FB
:101800005CA9544800682BF00BFD544B1B78DBB2ED
:10181000012B45D0514B1B78DBB2012B7FF423AE5B
:10182000464B1B78DBB2112B3FF61DAE444BD3ED7C
:10183000007A9FED447A77EE877ACDED5D7A484B5A
:10184000D3ED006A414BD3ED007A86EEA77A404B88
:10185000D3ED007AB4EEE77AF1EE10FA00F284806C
:10186000F5EE007A27EE277A8DED5C7A03238DF86A
:10187000793101238DF87831022300225CA93548A3
:1018800000682BF0CDFCEEE5B4EEE77AF1EE10FA4D
:10189000AEDDB5EE007A67EE877ACDED5C7AA7E72C
:1018A000264B1B78DBB2112BB4D92B4B4FF4001213
:1018B000C3F818212A4B93ED007ADFED2A7AB4EEB3
:1018C000E77AF1EE10FAC8BFC3ED007A1C4BD3EDF6
:1018D000007A9FED1C7A77EE877ACDED5D7A204B0A
:1018E000D3ED006A194BD3ED007A86EEA77A184B38
:1018F000D3ED007AB4EEE77AF1EE10FA12D8F6EEF4
:10190000007A27EE277A8DED5C7A02238DF8793103
:1019100001228DF8782100225CA90E4800682BF086
:101920007FFCA0E5B4EEE77AF1EE10FAEDDDB6EE5D
:10193000007A67EE877ACDED5C7AE6E7A99B012015
:101940008C9B012000000000C8990120F09D01201F
:10195000E49A0120DC99012000800041CF9B012006
:10196000D09901200060EA46B4EEE77AF1EE10FA71
:101970007FF77CAFB5EE007A67EE877ACDED5C7AC3
:1019800074E731F01BFF9DF8EE21734B1A70734A18
:10199000137801331370FFF7E0BB704B07221A7006
:1019A0009DF8EE318BF80030FFF7DCBB4FF0000CF8
:1019B0006B4B83F800C0BAF80010B9F80000694B0F
:1019C000694A03F1140ECDF80CC01E46154602916B
:1019D00001E0734525D0F3EC017A96ED007AB4EE80
:1019E000E77AF1EE10FA09D8C6ED007AFCEEE77A54
:1019F00017EE901A89B202914FF0010CF2EC017AC5
:101A000095ED007AB4EEE77AF1EE10FAE1D8C5ED83
:101A1000007AFCEEE77A17EE901A88B20121039162
:101A2000D7E70299BCF1000F01D0AAF80010039B80
:101A30000BB1A9F800004B4BD3ED007AFCEEE77A2E
:101A400017EE900A31F0E2F8474BD3ED007AFCEE46
:101A5000E77A17EE900A31F0BDF8FFF788BB002552
:101A6000424B1D7097F800C0414B5E1D18464FF069
:101A7000010E01E0B34208D013F8012B0178914226
:101A8000F8D8027094467546F4E70DB187F800C0A7
:101A9000374B187831F07AFEFFF76EBB00228DF8D5
:101AA0004420022311A9334800682BF0B9FBFFF74B
:101AB0006CBB314B1B78DBB2012B7FF46CAB2F4B33
:101AC0001B78DBB2132B7FF666AB00228DF8442027
:101AD000022311A9274800682BF0A2FBFFF75BBB8C
:101AE000274B1E221A70092388F80030254BC92283
:101AF0001A80254B02221A700A2032F021F9234B5A
:101B00001A68234B1A60FFF775BB1D4B1E221A7013
:101B1000092088F800001C4B02221A7032F010F9DC
:101B20001A4B1A681A4B1A60FFF772BB194B9B7855
:101B3000012B7FF472AB124B1E221A70092388F816
:101B40000030144B00221A809A70104B1A68104B08
:101B50001A60FFF762BB00BFB59B0120009C01200B
:101B6000059C0120649601208C960120FD9B01209C
:101B70005098012034990120D59B0120A99B012078
:101B8000AD9B01204E980120E59B01209C990120EE
:101B9000109A0120C09B0120A74B1B78DBB2012BC0
:101BA00000F00981A54B1B78DBB2012B00F01981F5
:101BB0004FF003038DF8BC318DF8DD31A04B7693E7
:101BC000A04E0023642276A930682BF029FB322036
:101BD00031F004FB00258DF8DC518DF8DD519A4A77
:101BE00076922B46642276A930682BF019FB3220BE
:101BF00031F0F4FA95494FF48010C1F81801944B74
:101C00001A68944B1A608C4B1D708DF87851022322
:101C10008DF879312A465CA98F4800682BF000FBCB
:101C200040F6B83031F0DAFA4FF003008DF8DD01FC
:101C3000834B76932B46642276A8014630682BF0BE
:101C4000EFFA322031F0CAFA8DF8DC518DF8DD510F
:101C50007D4A76922B46642276A8014630682BF0A6
:101C6000DFFA322031F0BAFA78494FF48013C1F824
:101C700018310A2300932B462A460321774800682F
:101C800030F00CFA764B187831F0D8F8754B18789C
:101C900031F0F0F8744B188831F008F9734B18786C
:101CA00031F03CF9724B187831F01CF9714B18780F
:101CB00031F050F9704B186831F084F96F4B1B7894
:101CC000DBB2012B00F0A3806C4B1B78DBB2022B44
:101CD00000F0A180694B1B78DBB2032B00F09F80E2
:101CE0005C4BD3ED007AFCEEE77A654B93ED007A1E
:101CF000BCEEC77A17EE903A17EE102A9B1A07EE41
:101D0000903AF8EE677A5F4DC5ED007AFCEEE77A1F
:101D100017EE900A31F03AF95B4B15221A70052044
:101D20002FF0C0FA544B1B684C934F4B19884D4B06
:101D30001B784B4A12781B0243EA014313434F932B
:101D40004B4B1978494B1B784A4A12781B0243EADD
:101D50000143134350934D4B1A783B7843EA0243B7
:101D60005193D5ED007AFCEEE77A17EE903A43F402
:101D700000335293414B1A78454D2B8843EA024376
:101D8000539302238DF82831002364224AA9414845
:101D900000682BF045FA404B18682DF011FC012328
:101DA000236000222A803D4A13703D4A13703D4A49
:101DB0001370FEF7AFBC214B1B78002B7FF4F2AE03
:101DC00000228DF8782103238DF8793102235CA954
:101DD000214800682BF024FA40F6B83031F0FEF9C3
:101DE000E0E6154B1B78DBB2012B7FF4E1AE00225D
:101DF0008DF8782102238DF879315CA916480068A6
:101E00002BF00EFA40F6B83031F0E8F9D0E60120B8
:101E100031F096FF58E7022031F092FF5AE7032095
:101E200031F08EFF5CE79DF80432FA2B7EF455AD5D
:101E30001D4A1268FEF758BDD59B0120CF9B01209B
:101E400002C4EC15489A012005C4EC15008000413D
:101E50009C990120109A0120DC9901207C99012095
:101E6000F19B01200A9C0120FA8C0120099C012091
:101E7000FA9B0120189C0120CC980120E49B0120B2
:101E8000089A0120F4980120CF9C0120B59B0120E5
:101E90000E9701204C99012050990120D49B0120DC
:101EA000D39B0120D29B0120189B01202DE9F04FEC
:101EB000ADF5177D0024949495949294CDF84B42FF
:101EC00090948DF84442ADF83C428D948E948C945D
:101ED00089948A948DF82C4286948794889483946C
:101EE0008494859480948194829479947A947B9458
:101EF0007C947D947E947F94759476947794ADF8D9
:101F0000E0416F947094719472947394CDF8CF41C2
:101F10006C946D946E94CA22214627A833F0FAFE81
:101F2000259426946422214604A833F0F3FEB34E90
:101F3000B34FDFF83483DFF83493DFF834B3DFF8DE
:101F400034A32FE2AF4B18682DF03AFB0024AE4BC0
:101F50001C70A9F80040ABF80040AC4B1C70AC4BB7
:101F60001C80224694A9AB4B18682BF077FA2246C6
:101F700090A9A94B18682BF071FA22468FA9A74B9C
:101F800018682BF06BFA9DF85732012B40F0D28184
:101F90009DF84232002B40F0CD819DF841326D2BEF
:101FA00026D89DF84132632B00F2C4819C4D869562
:101FB00040238DF822329B4C0023642286A920689E
:101FC0002BF02EF94FF47A7031F008F98695002342
:101FD0008DF8E9318DF82232642286A920682BF031
:101FE0001FF9642031F0FAF88F4B01221A70A1E139
:101FF0008E4B1C608E4B1C60894B869340238DF862
:102000002232884D2346642286A928682BF008F9DD
:102010004FF47A7031F0E2F8814B86938DF8E94104
:102020008DF822422346642286A928682BF0F8F80E
:10203000642031F0D3F87C4B01221A700C2388F80D
:102040000030AEE77B4B839300248DF8104223468B
:10205000642283A9784800682BF0E2F8642031F00C
:10206000BDF8764B809301258DF8DA518DF8045236
:102070008DF8DB418DF805428DF8DC418DF8064284
:102080002346642280A96E4800682BF0C9F86420BA
:1020900031F0A4F8624B86938DF8E7518DF81D520C
:1020A0002346642286A95F4800682BF0B9F86420B3
:1020B00031F094F822468FA9584B18682BF0CEF9CE
:1020C0009DF83C32AB4240F03581574B02221A70EA
:1020D00030E1534C869440238DF82232514D002339
:1020E000642286A928682BF09BF84FF47A7031F0AF
:1020F00075F8869400248DF8E9418DF82242234634
:10210000642286A928682BF08BF8642031F066F8E9
:10211000224690A9404B18682BF0A0F9002800F047
:1021200009819DF84132503BDBB21D2B1DD8454B38
:102130004FF48032C3F89420092388F80030424BD2
:1021400001221A70394B1B68934248D03F4B1B78D1
:10215000012B00F09180354B1B6813B9324B0322E1
:102160001A703B4A1368013313609DF841326D2B9E
:1021700021D9384B1B78C3B9364B1B7823B9314B67
:102180004FF48032C3F89820334B18682BF056FF79
:102190004FF6FF7030F042F80023244A1360244ABF
:1021A00013602E4B1B78002B7BD0274B00221A701C
:1021B0000C2388F80030264B1B681E2B40F3BA8096
:1021C000234B00221A60234B1B7823B91D4B4FF47D
:1021D0008032C3F89820144B00221A70AAE02246DD
:1021E0008DF88040022320A91D4800682BF018F8C4
:1021F0001C4B18682DF0E4F9A8E700BFE09B012014
:10220000D09A0120A4990120FF9B0120D19B01209D
:102210006E950120509A0120549A0120789A01204D
:1022200002C0EC15489A0120A99B0120149B0120B3
:102230001C9B012001C0EC152C9A012002D0EC154A
:102240001C9A012000800041CF9B0120C49B0120EB
:10225000009B0120D59B0120409901200B9C01206F
:10226000249901200C99012055980120BA9B012046
:10227000CA9B0120DE9B0120AE4B5B78012B7FF4D3
:102280006AAFAD4B03221A7000228DF8842002231E
:1022900021A9AA4800682AF0C3FFA94B01221A60AD
:1022A00059E7A84B01221A70A74B18782EF032FA82
:1022B0007BE70024A54B1C60A54B839308238DF876
:1022C000BD318DF813322346642283A9A1480068EA
:1022D0002AF0A6FF4FF47A7030F080FF9E4D86956D
:1022E0008DF8E8418DF820428DF8E9418DF82242C1
:1022F0008DF8EA418DF823422346642286A9974847
:1023000000682AF08DFF4FF47A7030F067FF8695F1
:1023100002238DF8E7318DF81D322346642286A909
:102320008E4800682AF07CFF642030F057FF824B13
:1023300004221A7098F800308DF89130B9F8003006
:10234000ADF88E30BBF80030ADF88C309AF8003024
:102350008DF8923033788DF890300223002223A933
:102360007F4800682AF05CFF98F800308DF88830CC
:102370000223002222A97B4800682AF051FF3B6813
:10238000012B0BD100233B606B4A1370764B18680E
:102390002DF016F9754B18682BF050FE4FF4FA70BB
:1023A00030F01CFF644B1B78DBB21E2BC2D801A29D
:1023B00052F823F0451F000045200000D320000004
:1023C000B32200003124000035230000A5240000C2
:1023D000352300003523000035230000352300009D
:1023E000352300003523000035230000352300008D
:1023F000352300001F260000352300004D27000074
:1024000087290000992A0000352300001D2D0000B7
:10241000352300003523000035230000352300005C
:10242000352300003523000035230000313700003C
:10243000002290A94E4B18682BF010F800228FA9AB
:102440004C4B18682BF00AF89DF84232012B1FD034
:102450009DF83C32FA2B02D0FC2B00D013B9364B3E
:1024600000221A709DF841326D2B7FF663AF424B0C
:102470001B7823B9414B4FF48032C3F898200023D6
:102480003F4A13700C2288F800202B4A137051E742
:102490009DF84132503BDBB21D2BD9D8264B06228A
:1024A0001A70D5E70022274B1A708FA9314B186894
:1024B0002AF0D4FF9DF83C32312B0ED9314B1B68EA
:1024C000012B28D0002B41F0B582002292A92E4B7F
:1024D00018682AF0C3FF00285AD19DF83C32FA2B25
:1024E00002D0FC2B00D053B9264A1268012A19D019
:1024F0002AB9114A00211170224A012111600A2BC8
:102500007FF418AF214B1B780133DBB2F02B76D070
:102510001E4A13700EE7084B10221A709DF83C32C9
:10252000FA2BDED1044A00211170164A01211160F4
:10253000E5E700BFC49B0120A99B0120349901203D
:102540001C9B01200B9C0120CF9C0120009B0120A3
:1025500001C0EC152C9A012002C0EC15489A01200C
:102560001C990120DC9801205C990120249A01200B
:10257000549A0120789A0120D59B012000800041C7
:10258000CF9B0120149B0120609A0120199C0120FF
:102590009DF848328DF878309DF849328DF87930C1
:1025A0009DF84A328DF87A309DF84B328DF87B30A9
:1025B0009DF84C328DF87C309DF84D328DF87D3091
:1025C000022300221EA9534800682AF029FE9DF824
:1025D0007830002B81D001234F4A13604F4A1021DD
:1025E00011708DF880304E4B18682CF0E9FF0223F3
:1025F000002220A94B4800682AF012FE6DE7002354
:10260000494A1370454A1370484B40F233121A80FE
:10261000474B01221A7008202EF07CF88AE6424BC4
:1026200000221A70434B1B6873BB434B1B78012B72
:102630002ED1414B5B78012B2AD114468DF8842092
:10264000022321A93D4800682AF0EAFD3C4B86930D
:1026500001238DF8E9318DF822322346642286A9C0
:10266000384800682AF0DCFD642030F0B7FD4FF4F4
:102670007A728FA9344B18682AF0F0FE274B122289
:102680001A7005202EF046F82A4B1B68012B21D02A
:1026900000228FA92C4B18682AF0E0FE9DF83C32EE
:1026A000FA2B04D0FC2B02D0002B7FF443AE1B4B43
:1026B00000221A700123184A13601C4A4FF49A71C1
:1026C00011801B4A1370062031F024FB08202EF0E5
:1026D00021F82FE61A4B869301238DF8E9318DF806
:1026E00022320023642286A9164800682AF098FD49
:1026F000642030F073FD4FF47A728FA9124B186882
:102700002AF0ACFE054B12221A7005202EF002F8BA
:10271000BEE700BF28990120149B0120A99B01203E
:102720000C99012024990120199C01204E98012028
:10273000E59B01201C9B0120C49B012034990120B2
:1027400002C0EC15489A0120789A0120BC4B4FF446
:102750000012C3F8182100236C93BA4B6D93012427
:102760008DF8B8418DF8B941002364226CA9B648B0
:1027700000682AF055FDB54B18682CF021FFB44BCA
:102780001C6000228DA9B34B18682AF067FE002850
:1027900000F0D4809DF834329DF8352202EB0322FC
:1027A000AD4981FB0232931007EE903AF8EEE77ADA
:1027B0009DF836229DF8373203EB022381FB032379
:1027C0009B1007EE103AB8EEC77ABDEEC77A17EE47
:1027D000103A4EF6602292FBF3F303EB8303A3401F
:1027E00007EE103AB8EEC77A9C4B83ED007AB2EE52
:1027F000047A67EE877A93ED007AF4EEC77AF1EE09
:1028000010FA48BFC3ED007A954B869300248DF8EB
:1028100022422346642286A9924800682AF000FDDD
:10282000642030F0DBFC904B83938C4AD2ED007A2D
:10283000FCEEE77A17EE903A8DF81032D2ED007A7E
:10284000FCEEE77A17EE903AC3F307238DF81132C6
:1028500070238DF8123217238DF8133210238DF860
:10286000143227238DF8153214258DF816528DF861
:1028700017422346642283A97C4800682AF0D0FCD2
:102880004FF4FA7030F0AAFC8DF810528DF8114216
:10289000C8238DF812328DF813428DF814528DF83A
:1028A000154264258DF816528DF81742704B8393AC
:1028B00023462A4683A96D4800682AF0B1FC4FF4EC
:1028C000FA7030F08BFC02238DF8E9318DF822325A
:1028D00003F1AF5303F54C23869323462A4686A97A
:1028E000604800682AF09CFC4FF4FA7030F076FCE7
:1028F00007202DF00FFF22468FA95E4B18682AF0A3
:10290000ADFD9DF83C325B3BDBB2092B2ED99DF827
:102910003C32FA2B02D0FC2B00D07BB9564B002264
:102920001A70564B40F235121A80554B01221A701C
:10293000082031F0EFF908202DF0ECFE00241E9461
:10294000ADF87C408DF880400223224620A94D48F6
:1029500000682AF065FC022322461EA94A48006846
:102960002AF05EFC494B1C809C70E3E4424B13222E
:102970001A704FF47A7030F031FC314B4FF4002272
:10298000C3F81421C3E7002290A9414B18682AF02C
:1029900065FD9DF84132312B4DD93E4B1B78012B03
:1029A00030D1274BD3F8A03013F4000F19D10123F5
:1029B0008DF8E8318DF820320C238DF8E9318DF84F
:1029C0002232274B86930023642286A9254800687B
:1029D0002AF026FC642030F001FC274B14221A70E8
:1029E00029E0254B00221A70244B40F235121A8040
:1029F000234B01221A70072031F08CF908202DF0AA
:102A000089FE18E001238DF8E8318DF820320C237F
:102A10008DF8E9318DF82232114B86930023642220
:102A200086A9104800682AF0FBFB642030F0D6FB32
:102A3000114B14221A704FF47A7030F0CFFB79E406
:102A40000080004100004843DC990120E09901200A
:102A50001C9B0120689A012067666666AC9901207C
:102A600002C0EC15489A012003C0EC152C9A0120F5
:102A700004C0EC15789A0120A99B01204E980120F2
:102A8000E59B01202499012028990120C49B012065
:102A9000549A0120329D012000228CA9844B186891
:102AA0002AF0DCFC9DF830329DF8312202EB032243
:102AB000804981FB0232921007EE902AF8EEE77A05
:102AC0007D4BC3ED007A9DF832229DF8333203EB43
:102AD000022381FB03239B1007EE103AB8EEC77A5E
:102AE000764B83ED007A4FF080436C93CDED6D7A99
:102AF00001238DF8B8318DF8B931002364226CA917
:102B00006F4800682AF08CFB6E4B18682CF058FD5B
:102B10009DF831328DF81C329DF830328DF81D321F
:102B2000694B86930023642286A9684800682AF0CE
:102B300077FB0A2030F052FB00228FA9644B186803
:102B40002AF08CFC00283FF4F5AB9DF83C32782B42
:102B50001ED09DF83C32FA2B04D0FC2B02D0002B67
:102B60007FF4E8AB5B4B1E221A705B4B4FF49B72F9
:102B70001A805A4B01221A70082031F0CBF8082035
:102B80002DF0C8FD564B1A68564B1A60FFF7D2BBA2
:102B9000554B1D6833F01CFA4EF660240094002358
:102BA0000246012128462FF079FA504B1D6833F078
:102BB0000FFA009400230246012128462FF06EFAF6
:102BC0004B4B1D6833F004FA0094002302460121A8
:102BD00028462FF063FA474B1D6833F0F9F900944B
:102BE00000230246012128462FF058FA424B1D6867
:102BF00033F0EEF9009400230246012128462FF01D
:102C00004DFA3E4B1D6833F0E3F900940023024671
:102C1000012128462FF042FA09202DF07BFD0320E8
:102C200030F0B2FF2B4B16221A70354B18782FF06C
:102C30002DFE642030F0D2FA324C20782FF042FE84
:102C4000642030F0CBFA304D28882FF057FE6420F6
:102C500030F0C4FA2D4908782FF088FE642030F057
:102C6000BDFA2B4800782FF065FE642030F0B6FAEC
:102C7000284A10782FF096FE642030F0AFFA184BF7
:102C80001A68254B1A60298823781D4A12781B027E
:102C900043EA014313435D931D4801781B4B1B78A6
:102CA0001C4A12781B0243EA014313435E9350E728
:102CB000709A012067666666889B0120E09A012071
:102CC000DC990120E099012005C0EC15489A01200B
:102CD000789A0120A99B01204E980120E59B0120B4
:102CE000989901200C9A012078990120C09A01201E
:102CF0004C9B0120509B0120549B0120589B01209C
:102D0000F19B01200A9C0120FA8C0120099C0120E2
:102D1000FA9B0120189C0120049A012000221DA981
:102D2000BB4B18682AF09AFB28B1BA4A9DF8743058
:102D300011880B441380B84B18682CF041FCB54B3C
:102D400018882FF0FBFCB54B1B78072B00F0B181E6
:102D500000228CA9B24B18682AF080FB002800F0F2
:102D600000819DF832229DF8333203EB0223AD49F6
:102D700081FB03239B0807EE903AB8EE677AAA4AD4
:102D800082ED007A9DF830029DF8312202EB00229C
:102D900081FB0212920807EE902AF8EE677AA34AA6
:102DA000C2ED007A67EE277AA14AC2ED007A3BB9FC
:102DB000A04A136801331360B3F5C87F00F37E8126
:102DC0009D4B1B78002B40F091809C4B1A689C4BCC
:102DD0001A60D3ED007A964B93ED007AB4EEE77A61
:102DE000F1EE10FA3BD5974B1B7863BB8F4BD3EDBD
:102DF000007A9FED957A77EE877ACDED6D7A904BDC
:102E0000D3ED006A914B93ED007AC6EE877A864B3C
:102E100093ED007AF4EEC77AF1EE10FA00F26781D2
:102E2000B5EE007A67EE877ACDED6C7A03238DF8E4
:102E3000B93101238DF8B831022300226CA98448EE
:102E400000682AF0EDF97F4B1B78DBB2012B00F014
:102E50005B817C4B1B78DBB2012B00F09881784BB7
:102E6000D3ED007A724B93ED007AB4EEE77AF1EE8F
:102E700010FA3BDD734B1B7863BB6C4BD3ED007AD0
:102E80009FED717A77EE877ACDED6D7A6C4BD3ED4D
:102E9000006A6E4B93ED007AC6EE877A624B93ED33
:102EA000007AF4EEC77AF1EE10FA00F2AF81B5EED7
:102EB000007A67EE877ACDED6C7A03238DF8B9310D
:102EC00001238DF8B831022300226CA96048006804
:102ED0002AF0A6F95B4B1B78DBB2012B00F0A38133
:102EE000584B1B78DBB2012B00F0E081524B1B7872
:102EF000DBB2012B00F03E82564C22789500564BF7
:102F00002B445249096819609DF832129DF833022A
:102F1000524B1D4400EB0123DFF808C18CFB03C3B7
:102F20009B0807EE903AF8EE677AC5ED007A013219
:102F300022709DF831328DF81C329DF830328DF8B8
:102F40001D328DF81E028DF81F12454B869300230B
:102F5000642286A9434800682AF062F9322030F0E2
:102F60003DF9002289A9404B18682AF077FAA0B1F0
:102F70003E4A13789DF826023D49C854062188F838
:102F8000001001331370254B1B78042B40F2C582CF
:102F9000224B1B78052B00F0CB822E4B1B78052B88
:102FA00000F0CE82314B1B78052B00F02183314B92
:102FB0001B78DBB2012B00F039832E4B1B78DBB280
:102FC000012B00F042834FF47A7294A92A4B1868BF
:102FD0002AF044FA30B19DF856321BB103F52F7335
:102FE000264A13809DF82432012B00F069830022C9
:102FF00090A9234B18682AF031FA002842D09DF896
:103000004132463BDBB23B2B40F26D833AE000BFDE
:10301000549901206E95012040990120FF9B0120C9
:10302000709A012067666666E09A0120889B0120FD
:10303000409B0120C89A0120DC9B0120E89D0120D3
:10304000C8990120D59B012000000000EC9D0120C3
:10305000DC990120049C01207896012050960120E3
:1030600005C0EC15489A01206C9A0120FC9B0120B8
:1030700048980120CF9B0120509A0120328F0120D7
:10308000549A0120A94B1B78012B00F03D83A84BDB
:103090001B88B3F5397F05D0A3F2E72292B2012A4B
:1030A0003FF648A9A34A1380A14B00221A80FFF7DC
:1030B00041B9A14B187830F021FB49E69F4B1E2205
:1030C0001A70092088F800009A4BC9221A809C4B7C
:1030D00001221A7030F01EFE9A4A0023138093706A
:1030E000994A1168994A1160994A136068E6F4EEAA
:1030F000C77AF1EE10FA7FF799AEF5EE007A27EE77
:10310000277A8DED6C7A91E6924B1B78DBB2112B0E
:103110007FF69FAE904B4FF40012C3F818218F4BEF
:10312000D3ED007A9FED8E7A77EE877ACDED6D7ACA
:103130008C4BD3ED006A8C4BD3ED007A86EEA77AE8
:103140008A4BD3ED007AB4EEE77AF1EE10FA12D89A
:10315000F6EE007A27EE277A8DED6C7A01238DF852
:10316000B9318DF8B831022300226CA9804800687B
:103170002AF056F873E6B4EEE77AF1EE10FAEDDDD8
:10318000B6EE007A67EE877ACDED6C7AE6E7714BA2
:103190001B78DBB2112B3FF662AE704BD3ED007A99
:1031A0009FED6F7A77EE877ACDED6D7A6D4BD3ED2B
:1031B000006A6D4BD3ED007A86EEA77A6B4BD3EDA8
:1031C000007AB4EEE77AF1EE10FA13D8F5EE007A51
:1031D00027EE277A8DED6C7A03238DF8B931012320
:1031E0008DF8B831022300226CA9614800682AF0EA
:1031F00017F834E6B4EEE77AF1EE10FAECDDB5EE4E
:10320000007A67EE877ACDED6C7AE5E7F4EEC77A5F
:10321000F1EE10FA7FF751AEF5EE007A27EE277A3D
:103220008DED6C7A49E64B4B1B78DBB2112B7FF6A8
:1032300057AE494B4FF40012C3F81821474BD3ED5A
:10324000007A9FED477A77EE877ACDED6D7A454B20
:10325000D3ED006A444BD3ED007A86EEA77A434B58
:10326000D3ED007AB4EEE77AF1EE10FA12D8F6EE6A
:10327000007A27EE277A8DED6C7A01238DF8B9312B
:103280008DF8B831022300226CA93948006829F072
:10329000C7FF2BE6B4EEE77AF1EE10FAEDDDB6EEFD
:1032A000007A67EE877ACDED6C7AE6E7294B1B78DA
:1032B000DBB2112B3FF61AAE284BD3ED007A9FED0F
:1032C000287A77EE877ACDED6D7A264BD3ED006ABA
:1032D000254BD3ED007A86EEA77A244BD3ED007A06
:1032E000B4EEE77AF1EE10FA13D8F5EE007A27EE95
:1032F000277A8DED6C7A03238DF8B93101238DF88F
:10330000B831022300226CA91948006829F088FF0F
:10331000ECE5B4EEE77AF1EE10FAECDDB5EE007A0A
:1033200067EE877ACDED6C7AE5E700BFC49B01209C
:10333000328F01204E980120C79B0120A99B0120BC
:10334000E59B0120C09B0120989901200C9A012047
:10335000C89A0120AD9B012000800041889B01207C
:1033600000000000C8990120EC9D0120E09A012096
:10337000DC990120C04B1B785BBBC04BD3ED007ABE
:103380009FEDBF7A77EE877ACDED6D7ABD4BD3EDA9
:10339000006ABD4B93ED007AC6EE877ABB4B93ED86
:1033A000007AF4EEC77AF1EE10FA50D8B5EE007A52
:1033B00067EE877ACDED6C7A03238DF8B93101235E
:1033C0008DF8B831022300226CA9B148006829F0B9
:1033D00027FFA94B1B78DBB2012B44D0A64B1B78EF
:1033E000DBB2012B7FF488ADAA4B1B78DBB2112B2B
:1033F0003FF682ADA14BD3ED007A9FEDA17A77EE37
:10340000877ACDED6D7A9F4BD3ED006A9E4BD3ED5D
:10341000007A86EEA77A9D4BD3ED007AB4EEE77A78
:10342000F1EE10FA6DD8F5EE007A27EE277A8DEDE1
:103430006C7A03238DF8B93101238DF8B83102235A
:1034400000226CA99248006829F0EAFE54E5F4EEE7
:10345000C77AF1EE10FAAFDDF5EE007A27EE277AA3
:103460008DED6C7AA8E78B4B1B78DBB2112BB5D9AD
:10347000894B4FF40012C3F81821824B93ED007A68
:10348000DFED867AB4EEE77AF1EE10FAC8BFC3ED4D
:10349000007A7A4BD3ED007A9FED797A77EE877ACE
:1034A000CDED6D7A774BD3ED006A774BD3ED007A93
:1034B00086EEA77A754BD3ED007AB4EEE77AF1EE9B
:1034C00010FA12D8F6EE007A27EE277A8DED6C7A94
:1034D00001238DF8B9318DF8B831022300226CA98F
:1034E0006B48006829F09CFE06E5B4EEE77AF1EE41
:1034F00010FAEDDDB6EE007A67EE877ACDED6C7AE4
:10350000E6E7B4EEE77AF1EE10FA92DDB5EE007A76
:1035100067EE877ACDED6C7A8BE730F0EFF8604A92
:103520001378013313709DF826225E4B1A702FE535
:103530009DF826328AF80030594B07221A702CE584
:103540004FF0000C584B83F800C0B9F80010BBF8DE
:103550000000564B564A03F1140ECDF80CC01D4620
:103560001446029101E0734525D0F3EC017A95ED04
:10357000007AB4EEE77AF1EE10FA09D8C5ED007AD8
:10358000FCEEE77A17EE901A89B202914FF0010C27
:10359000F2EC017A94ED007AB4EEE77AF1EE10FAEB
:1035A000E1D8C4ED007AFCEEE77A17EE901A88B203
:1035B00001210391D7E70299BCF1000F01D0A9F8CE
:1035C0000010039B0BB1ABF80000384BD3ED007A31
:1035D000FCEEE77A17EE900A2FF0E8F8344BD3EDC3
:1035E000007AFCEEE77A17EE900A2FF0C3F8D9E4E0
:1035F0000024304B1C7096F800C02F4B5D1D184600
:103600004FF0010E01E0AB4208D013F8012B017816
:103610009142F8D8027094467446F4E70CB186F8EB
:1036200000C0254B187830F051F8C0E4124B1B78DD
:10363000002B7FF4C2AC00228DF88420022321A944
:103640001E48006829F0ECFDB7E40B4B1B78DBB299
:10365000012B7FF4B8AC0F4B1B78DBB2132B7FF63A
:10366000B2AC00228DF88420022321A913480068FF
:1036700029F0D6FDA7E400BFD59B0120889B01203F
:1036800000000000CC990120EC9D0120E09A01206F
:10369000DC990120AD9B0120008000410060EA46DA
:1036A000FF9B0120C79B0120049C01205096012014
:1036B00078960120FC9B0120489801203499012034
:1036C000B54B1E221A70092088F80000B34BC9229E
:1036D0001A80B34B01221A7030F01CFBB14B1A68F0
:1036E000B14B1A6083E4AC4B1E221A70092388F890
:1036F0000030AB4B01221A700A2030F00BFBA94BB3
:103700001A68A94B1A60BDE4A84B9B78012B7FF483
:10371000BEACA14B1E221A70092388F80030A34BBF
:1037200000221A809A709F4B1A689F4B1A60AEE471
:103730009F4B1B78DBB2012B00F001819C4B1B7867
:10374000DBB2012B00F011814FF003038DF8E7315C
:103750008DF81D32974B8693974D0023642286A9DE
:10376000286829F05DFD32202FF038FD00248DF807
:103770001C428DF81D42914A86922346642286A9F6
:10378000286829F04DFD32202FF028FD8C494FF498
:103790000020C1F81801834B1B6883480360844BE9
:1037A0001C708DF8B84101238DF8B93102232246EF
:1037B0006CA98448006829F033FD40F6B8302FF03A
:1037C0000DFD4FF0030C8DF81DC27A4B86932346F6
:1037D00064220DF5067C6146286829F021FD32201F
:1037E0002FF0FCFC8DF81C428DF81D42734A869226
:1037F000234664220DF5067C6146286829F010FDF9
:1038000032202FF0EBFC6E494FF40023C1F8183141
:103810000A2300932346224603216B4800682EF0BA
:103820003DFC6A4B18782FF0D9F8694B18782FF0C7
:10383000F1F8684B18882FF009F9674B18782FF0CA
:103840003DF9664B18782FF01DF9654B18782FF06D
:1038500051F9644B18682FF085F95348D0ED007A80
:10386000FCEEE77A604B93ED007ABCEEC77A17EE78
:10387000100A17EE903A181A5C4B18602FF056F9A0
:103880005B4B1B78DBB2012B00F0C880584B1B78D8
:10389000DBB2022B00F0C680554B1B78DBB2032B4A
:1038A00000F0C480534B0C221A70052030F06CF9E4
:1038B0004C4B1B685C93474B1988454B1B78434A1C
:1038C00012781B0243EA014313435F93434B197879
:1038D000414B1B78424A12781B0243EA01431343CF
:1038E0006093454B1A78337843EA024361933F4B28
:1038F0001B6843F4803362933D4B1A783F4C238816
:1039000043EA0243639302238DF868310023642263
:103910005AA93B48006829F083FC3A4B18682BF001
:103920004FFE01233B6000222280374A1370374A42
:103930001370374A1370374A1370FEF7FBBC364BCF
:103940001B78002B7FF4FAAE00228DF8B8210323F8
:103950008DF8B93102236CA91A48006829F060FC7F
:1039600040F6B8302FF03AFCE8E62B4B1B78DBB280
:10397000012B7FF4E9AE00228DF8B8218DF8B93122
:1039800002236CA90F48006829F04AFC40F6B830C1
:103990002FF024FCD8E600BFA99B01204E980120FF
:1039A000E59B0120989901200C9A0120C49B0120DD
:1039B000CF9B012002C0EC15489A012005C0EC15F0
:1039C00000800041DC99012078990120F19B0120C1
:1039D0000A9C0120FA8C0120099C0120FA9B0120FD
:1039E000189C0120C8980120049A0120F098012019
:1039F000E49B0120CF9C0120C79B01206E950120F4
:103A00004C99012050990120B99B0120CE9B0120A7
:103A1000C99B0120BD9B0120D59B0120012030F0D6
:103A200079F933E7022030F075F935E7032030F0FB
:103A300071F937E79DF83C32FA2B7EF452AD024A19
:103A40001268FEF755BD00BF149B0120CC9D0120DC
:103A5000040000000100000000000000709501203B
:103A60001C0000000000000010970120080000006A
:103A7000000000008C9501201C00000000000000E8
:103A80000000002010000000000000001897012036
:103A90001800000000000000A89501201C00000094
:103AA00000000000A09601201000000000000000AF
:103AB000309701201000000000000000C88D012098
:103AC000C000000000000000B69B012002000000C2
:103AD000000000005C9401202C00000000000000A9
:103AE0006C930120F000000000000000D09D012038
:103AF0000400000001000000AAAAAAAA5898012008
:103B00000400000000000000A0010020608A010005
:103B1000000000005C980120100000000000000080
:103B20004097012008000000000000006C98012070
:103B30000800000000000000C495012028000000DB
:103B40000000000074980120180000000000000030
:103B50002491012064000000000000008C980120E6
:103B60001400000000000000EC9501202800000077
:103B700000000000A09801201000000000000000DC
:103B8000149601201400000000000000B0980120ED
:103B9000040000000000000028960120280000001A
:103BA00000000000B49801200800000000000000A0
:103BB000D49D01200400000001000000040000006A
:103BC000100000209001000000000000BC980120BF
:103BD0001400000000000000DB9101200100000043
:103BE00000000000B39B0120010000000000000065
:103BF000D09801200400000000000000C39B0120B9
:103C00000100000000000000D49801200400000022
:103C1000000000004D98012001000000000000009D
:103C2000D89801200C0000000000000055980120E9
:103C30000100000000000000A59B01200100000021
:103C400000000000A99B012001000000000000000E
:103C5000AD9B01200100000000000000E49801205D
:103C60001400000000000000BA9B012002000000C8
:103C70000000000050960120140000000000000029
:103C8000BE9B01200200000000000000649601209D
:103C90001400000000000000CA9B01200200000088
:103CA00000000000789601201400000000000000D1
:103CB000CC9B012002000000000000008C96012037
:103CC0001400000000000000F8980120040000002B
:103CD00000000000B8920120400000000000000039
:103CE000889401205000000000000000E08F0120B7
:103CF000A400000000000000FC9801200800000063
:103D0000000000002C92012046000000000000008E
:103D1000C89B012001000000000000000499012060
:103D20003C00000000000000729201200200000030
:103D30000000000036930120020000000000000097
:103D40006A93012002000000000000004099012059
:103D50000400000000000000C79B012001000000DB
:103D600000000000B59B01200100000000000000E1
:103D7000449901201000000000000000B99B0120C0
:103D80000100000000000000BD9B012001000000B8
:103D900000000000C99B012001000000000000009D
:103DA000CE9B012001000000000000006E95012064
:103DB00002000000000000005499012004000000EF
:103DC00000000000CF9B0120010000000000000067
:103DD000589901200C00000000000000D09B012039
:103DE00005000000000000000E9701200200000006
:103DF00000000000649901200400000000000000A1
:103E0000D59B0120010000000000000068990120FE
:103E10000C00000000000000D69B01200200000002
:103E20000000000074990120040000000000000060
:103E3000D89B0120010000000000000078990120BB
:103E40003000000000000000D99B012003000000AA
:103E500000000000A89901200C00000000000000F4
:103E6000889101205300000000000000B499012057
:103E700038000000000000003893012032000000EC
:103E800000000000EC990120140000000000000078
:103E9000DC9B01200200000000000000009A0120CD
:103EA0000400000000000000DE9B01200300000071
:103EB00000000000489801200500000000000000FC
:103EC000E19B01200100000000000000509801204B
:103ED0000500000000000000049A01200800000016
:103EE00000000000E29B0120020000000000000032
:103EF000C49B01200300000000000000C09B0120C3
:103F000003000000000000000C9A012008000000DF
:103F100000000000E49B0120010000000000000000
:103F2000049701200A000000000000004E980120C4
:103F30000200000000000000E59B012001000000DD
:103F400000000000149A012004000000000000009E
:103F5000E69B0120010000000000000056980120AF
:103F60000200000000000000A69B012002000000EB
:103F700000000000AA9B01200200000000000000D9
:103F8000489701206800000000000000189A0120F6
:103F90002000000000000000B09701206800000031
:103FA00000000000389A012080000000000000009E
:103FB000189801203000000000000000E79B01205D
:103FC0000100000000000000B89A01200400000079
:103FD00000000000E89B012002000000000000003B
:103FE000BC9A01200400000000000000EA9B0120B0
:103FF0000100000000000000C09A01200400000041
:1040000000000000F89201203E00000000000000C7
:10401000AE9B01200200000000000000D8940120A7
:104020005000000000000000008C0120FA00000099
:1040300000000000EB9B01200100000000000000D8
:10404000C49A01200C00000000000000EC9B01203D
:104050000300000000000000D09A012008000000CA
:1040600000000000EF9B01200200000000000000A3
:10407000D89A01201000000000000000F19B0120F0
:104080000200000000000000E89A01200400000087
:1040900000000000F39B0120010000000000000070
:1040A000EC9A01200800000000000000888E01202A
:1040B000AA00000000000000F49A012004000000A3
:1040C00000000000F49B012003000000000000003D
:1040D000BC9B01200100000000000000F79B0120B4
:1040E0000100000000000000F89A01200400000018
:1040F0000000000074920120440000000000000055
:10410000FC9A01200C00000000000000F89B012038
:104110000200000000000000B89B01200100000028
:1041200000000000B49B012001000000000000001E
:10413000089B01200800000000000000FA9B0120FD
:104140000500000000000000109B0120040000009A
:1041500000000000FF9B012005000000000000009F
:10416000149B01201000000000000000049C0120AE
:104170000200000000000000249B01200400000059
:1041800000000000069C0120030000000000000069
:10419000289B01200800000000000000348F01204F
:1041A000AA00000000000000309B01200400000075
:1041B00000000000099C0120010000000000000038
:1041C000349B012004000000000000000A9C012034
:1041D0000100000000000000328F012002000000FA
:1041E00000000000DE8F012002000000000000003F
:1041F000B09B012003000000000000000B9C012088
:104200000600000000000000389B012004000000B0
:1042100000000000119C01200200000000000000CE
:104220003C9B01200C00000000000000139C0120BA
:104230000100000000000000489B01200400000075
:1042400000000000149C012001000000000000009C
:104250004C9B01200400000000000000159C012080
:104260000100000000000000509B0120040000003D
:1042700000000000169C012001000000000000006A
:10428000549B01200400000000000000179C012046
:104290000100000000000000589B01200800000001
:1042A00000000000AC9B01200100000000000000A5
:1042B000A89B01200100000000000000A49B012039
:1042C0000100000000000000609B01201C000000B5
:1042D0000000000084900120A00000000000000009
:1042E000B09601201000000000000000189C012082
:1042F0000100000000000000E09601202400000002
:10430000000000007C9B0120040000000000000071
:10431000199C01200200000000000000809B012089
:104320000400000000000000C09601201000000002
:1043300000000000FC8C0120CC0000000000000008
:10434000849B01200C00000000000000FA8C01207A
:104350000200000000000000629C0120020000003A
:104360000100000004010000829C01200200000006
:1043700001000000B4000000649C01201E00000049
:10438000010000005AA51B82524068747470733A91
:104390002F2F7777772E7374617469712E696E2F62
:1043A000FFFF00001B9C0120010000000100000035
:1043B0000C000000BB9C0120010000000100000077
:1043C0000C000000CF9C0120010000000100000053
:1043D00003000000F39C0120010000000100000028
:1043E0000F0000006B9D0120010000000100000093
:1043F00052000000779D0120010000000100000034
:1044000046000000839D0120010000000100000023
:1044100050000000E29C01200200000001000000AA
:1044200052010000029D0120020000000100000076
:104430003C010000129D012002000000010000006C
:10444000413C0000229D012002000000010000000C
:1044500001410000329D0120020000000100000027
:1044600001010000429D0120020000000100000047
:10447000011400008E9D01200200000001000000D8
:10448000010100009A9D01200200000001000000CF
:1044900001010000849C01201E00000001000000BA
:1044A000454D455247454E43595F425554544F4E32
:1044B0005F505245535345442F4F4E0D0A000000A4
:1044C000A49C01201700000001000000454D45524A
:1044D00047454E435920425554544F4E204F46466F
:1044E0000D0A0000D89D012004000000010000001A
:1044F00000004040F49C01200E000000010000007C
:1045000047464349204E4F54204F4B0D0A000000B0
:10451000849D01200A000000010000004746434935
:10452000204F4B0D0A000000A69D01200200000054
:104530000100000001010000049D01200E000000A8
:1045400001000000494D4431204E4F54204F4B0D87
:104550000A000000909D01200A00000001000000F8
:10456000494D4431204F4B0D0A000000149D01209D
:104570000E00000001000000494D4432204E4F540F
:10458000204F4B0D0A0000009C9D01200A000000F6
:1045900001000000494D4432204F4B0D0A0000003D
:1045A000549D01200C0000000100000047415445CB
:1045B000204F50454E0D0A00249D01200E000000A2
:1045C000010000004741544520434C4F5345440DE2
:1045D0000A000000DC9D0120040000000100000032
:1045E000CDCCCC3FE49C01200F0000000100000076
:1045F0005048415345204E4F54204F4B0D0A000068
:10460000609D01200B000000010000005048415354
:10461000455F4F4B0D0A0000E09D01200C0000009B
:1046200001000000000000400000004000606A47F8
:104630006C9D01200B000000010000005247423138
:10464000204F46460D0A0000A89D01200A000000E8
:1046500001000000524742315F4F4E0D0A0000003A
:10466000789D01200B0000000100000052474232FB
:10467000204F46460D0A0000B49D01200A000000AC
:1046800001000000524742325F4F4E0D0A00000009
:10469000A29C01200200000001000000AF4A0000BF
:1046A000BC9C01201300000001000000534D4F4B43
:1046B000452049532050524553454E540D0A0000A1
:1046C000D09C01201200000001000000534D4F4B10
:1046D00045204E4F542054484552450D0A000000D5
:1046E000449D01200D0000000100000053504420B3
:1046F0004E4F54204F4B0D0A00000000C09D01207A
:104700000900000001000000535044204F4B0D0AE7
:1047100000000000EC9D01200800000001000000E6
:1047200000004843000048431C9C01204600000054
:10473000010000004170706C69636174696F6E20E4
:1047400072756E2061667465722072656369657644
:10475000696E6720636F6D6D616E64207468726F3F
:1047600075676820626F6F746C6F61646572206436
:104770006F6E652E2E2E2E0D0A000000349D012036
:104780000E00000001000000494E544552525550A1
:104790005445440D0A000000F49D0120040000006F
:1047A0000100000000004843909B01200800000029
:1047B00000000000D0960120100000000000000062
:1047C000289501204600000000000000989B012071
:1047D0000400000000000000DC91012050000000F7
:1047E000000000009C9B0120080000000000000069
:1047F000F89D0120040000000100000000000000FE
:104800000000000000000000666666666666666678
:104810006666666666666666666666666666666638
:0C482000666666666666666666666666C4
:10536C0038B50446D4485A230370A5234370072349
:10537C0083708223C3701423037102234371D4F806
:10538C0000311A0E82711A0CC2711A0A027243721F
:10539C00CA4B4FF400229A610A212AF085FE30F0A4
:1053AC0033FC0028FBD0C54B4FF400225A61C24895
:1053BC005A210170A5214170052181708221C17093
:1053CC00142101710621417100218171B4F81E1163
:1053DC00C1719A6108212AF067FE30F015FC002893
:1053EC00FBD0B64B4FF400225A61B3485A210170DE
:1053FC00A5214170052181708221C1701421017198
:10540C000821417100258571D4F80451C5719A6148
:10541C002AF04AFE30F0F8FB0028FBD0A74A4FF4E4
:10542C0000215161A4485A230370A523437005231E
:10543C0083708223C370142303710A2343710023E6
:10544C008371D4F804311B0AC371916108212AF0CD
:10545C002BFE30F0D9FB0028FBD0984B4FF40022E8
:10546C005A6195485A210170A5214170052181701E
:10547C008221C170142101710C21417100218171B3
:10548C00B4F80611C1719A6108212AF00DFE30F0B2
:10549C00BBFB0028FBD0894B4FF400225A61864895
:1054AC005A210170A5214170052181708221C170A2
:1054BC00142101710E21417100218171B4F80E117A
:1054CC00C1719A6108212AF0EFFD30F09DFB002894
:1054DC00FBD07A4A4FF40021516177485A2303706C
:1054EC00A5234370052383708223C3701423037197
:1054FC001023437100238371D4F80C311B0AC37140
:10550C00916108212AF0D0FD30F07EFB0028FBD001
:10551C006A4B4FF400225A6167485A210170A52149
:10552C004170052181708221C170142101711221F9
:10553C00417100218171D4F80C11C1719A6108215B
:10554C002AF0B2FD30F060FB0028FBD05B4A4FF430
:10555C000021516158485A230370A5234370072337
:10556C0083708223C3701423037116234371D4F800
:10557C0020311D0E85711D0CC5711D0A05724372FB
:10558C0091610A212AF090FD30F03EFB0028FBD0FF
:10559C004A4B4FF400225A6147485A210170A52109
:1055AC004170052181708221C170142101711A2171
:1055BC00417100218171B4F83E11C1719A610821C9
:1055CC002AF072FD30F020FB0028FBD03B4B4FF44F
:1055DC0000225A6138485A210170A52141700521D9
:1055EC0081708221C170142101711C214171002133
:1055FC008171D4F82411C1719A6108212AF054FDEB
:10560C0030F002FB0028FBD02C4A4FF400215161F2
:10561C0029485A230370A5234370052383708223E2
:10562C00C370142303711E23437100238371D4F8B8
:10563C0024311B0AC371916108212AF035FD30F029
:10564C00E3FA0028FBD01D4B4FF400225A611A4894
:10565C005A210170A5214170052181708221C170F0
:10566C00142101712021417100218171B4F826119E
:10567C00C1719A6108212AF017FD30F0C5FA002893
:10568C00FBD00E4B4FF400225A610B485A2101708B
:10569C00A5214170052181708221C17014210171F5
:1056AC002221417100218171B4F82E11C1719A61CE
:1056BC0008212AF0F9FC03E05095012000800041FC
:1056CC0030F0A2FA0028FBD0D54A4FF400215161EA
:1056DC00D4485A230370A523437005238370822377
:1056EC00C370142303712423437100238371D4F8F2
:1056FC002C311B0AC371916108212AF0D5FC30F0C2
:10570C0083FA0028FBD0C64B4FF400225A61C548DF
:10571C005A210170A5214170052181708221C1702F
:10572C00142101712621417100218171D4F82C11B1
:10573C00C1719A6108212AF0B7FC30F065FA002893
:10574C00FBD0B74A4FF400215161B6485A2303707D
:10575C00A5234370072383708223C3701423037122
:10576C002A234371D4F840311D0E85711D0CC5716F
:10577C001D0A0572437291610A212AF095FC30F0E2
:10578C0043FA0028FBD0A64B4FF400225A61A548DF
:10579C005A210170A5214170052181708221C170AF
:1057AC00142101712E21417100218171B4F85E1117
:1057BC00C1719A6108212AF077FC30F025FA002893
:1057CC00FBD0974B4FF400225A6196485A21017036
:1057DC00A5214170052181708221C17014210171B4
:1057EC003021417100218171D4F84411C1719A6149
:1057FC0008212AF059FC30F007FA0028FBD0884A1F
:10580C004FF40021516187485A230370A52343703C
:10581C00052383708223C3701423037132234371D5
:10582C0000238371D4F844311B0AC37191610821A0
:10583C002AF03AFC30F0E8F90028FBD0784B4FF412
:10584C0000225A6177485A210170A5214170052127
:10585C0081708221C17014210171342141710021A8
:10586C008171B4F84611C1719A6108212AF01CFCAF
:10587C0030F0CAF90028FBD0694B4FF400225A6172
:10588C0068485A210170A52141700521817082213F
:10589C00C170142101713621417100218171B4F85C
:1058AC004E11C1719A6108212AF0FEFB30F0ACF95F
:1058BC000028FBD05A4A4FF40021516159485A2311
:1058CC000370A5234370052383708223C3701423B4
:1058DC0003713823437100238371D4F84C311B0AB4
:1058EC00C371916108212AF0DFFB30F08DF900289B
:1058FC00FBD04B4B4FF400225A614A485A2101709D
:10590C00A5214170052181708221C1701421017182
:10591C003A21417100218171D4F84C11C1719A6105
:10592C0008212AF0C1FB30F06FF90028FBD03C4A6B
:10593C004FF4002151613B485A230370A523437057
:10594C00072383708223C370142303714023437194
:10595C00D4F860311D0E85711D0CC5711D0A0572C0
:10596C00437291610A212AF09FFB30F04DF9002817
:10597C00FBD02B4B4FF400225A612A485A2101705C
:10598C00A5214170052181708221C1701421017102
:10599C004421417100218171B4F87E11C1719A6169
:1059AC0008212AF081FB30F02FF90028FBD01C4B8A
:1059BC004FF400225A611B485A210170A5214170F5
:1059CC00052181708221C170142101714621417120
:1059DC0000218171D4F86411C1719A6108212AF0F7
:1059EC0063FB30F011F90028FBD00D4A4FF4002175
:1059FC0051610C485A230370A5234370052383700F
:105A0C008223C370142303714823437100238371D1
:105A1C00D4F864311B0AC3719161082104E000BF02
:105A2C0000800041509501202AF03EFB30F0ECF84C
:105A3C000028FBD0D54B4FF400225A61D4485A2190
:105A4C000170A5214170052181708221C170142142
:105A5C0001714A21417100218171B4F86611C17143
:105A6C009A6108212AF020FB30F0CEF80028FBD0F8
:105A7C00C64B4FF400225A61C5485A210170A5212A
:105A8C004170052181708221C170142101714C215A
:105A9C00417100218171B4F86E11C1719A610821B4
:105AAC002AF002FB30F0B0F80028FBD0B74A4FF4D4
:105ABC0000215161B6485A230370A5234370052376
:105ACC0083708223C370142303714E23437100230C
:105ADC008371D4F86C311B0AC371916108212AF0CF
:105AEC00E3FA30F091F80028FBD0A84B4FF40022D9
:105AFC005A61A7485A210170A52141700521817076
:105B0C008221C170142101715021417100218171D8
:105B1C00D4F86C11C1719A6108212AF0C5FA30F0E1
:105B2C0073F80028FBD0994A4FF400215161984832
:105B3C005A230370A5234370072383708223C370F9
:105B4C001423037156234371D4F880311D0E8571D3
:105B5C001D0CC5711D0A0572437291610A212AF050
:105B6C00A3FA30F051F80028FBD0884B4FF40022F8
:105B7C005A6187485A210170A52545700525857005
:105B8C008225C57014250571417100218171B4F80D
:105B9C009E11C1719A6108212AF086FA30F034F80E
:105BAC000028FBD0794B4FF400225A6178485A21D7
:105BBC000170A5214170052181708221C1701421D1
:105BCC0001715C21417100218171D4F88411C17182
:105BDC009A6108212AF068FA30F016F80028FBD0F8
:105BEC006A4A4FF40021516169485A230370A52376
:105BFC004370052383708223C370142303715E23C7
:105C0C00437100238371D4F884311B0AC3719161F1
:105C1C0008212AF049FA2FF0F7FF0028FBD05B4B44
:105C2C004FF400225A615A485A210170A521417043
:105C3C00052181708221C170142101716021417193
:105C4C0000218171B4F88611C1719A6108212AF082
:105C5C002BFA2FF0D9FF0028FBD04C4B4FF400222D
:105C6C005A614B485A210170A52141700521817060
:105C7C008221C17014210171622141710021817155
:105C8C00B4F88E11C1719A6108212AF00DFA2FF027
:105C9C00BBFF0028FBD03D4A4FF4002151613C482A
:105CAC005A230370A5234370052383708223C3708A
:105CBC00142303716423437100238371D4F88C3152
:105CCC001B0AC371916108212AF0EEF92FF09CFF99
:105CDC000028FBD02D4B4FF400225A612C485A213E
:105CEC000170A5214170052181708221C1701421A0
:105CFC0001716621417100218171D4F88C11C1713F
:105D0C009A6108212AF0D0F92FF07EFF0028FBD0F1
:105D1C001E4A4FF4002151611D485A230370A523DC
:105D2C004370072383708223C370142303716C2385
:105D3C004371D4F8A0311D0E85711D0CC5711D0A5F
:105D4C000572437291610A212AF0AEF92FF05CFFC3
:105D5C000028FBD00D4B4FF400225A610C485A21FD
:105D6C000170A5214170052181708221C17014211F
:105D7C0001717021417100218171B4F8BE11C171A2
:105D8C009A6108212AF090F904E000BF00800041DC
:105D9C00509501202FF038FF0028FBD0D44B4FF446
:105DAC0000225A61D3485A210170A5214170052166
:105DBC0081708221C1701421017172214171002105
:105DCC008171D4F8A411C1719A6108212AF06CF97F
:105DDC002FF01AFF0028FBD0C54A4FF40021516167
:105DEC00C4485A230370A523437005238370822370
:105DFC00C370142303717423437100238371D4F88B
:105E0C00A4311B0AC371916108212AF04DF92FF0BE
:105E1C00FBFE0028FBD0B64B4FF400225A61B5486C
:105E2C005A210170A5214170052181708221C17018
:105E3C00142101717621417100218171B4F8A611F0
:105E4C00C1719A6108212AF02FF92FF0DDFE00288C
:105E5C00FBD0A74B4FF400225A61A6485A2101707F
:105E6C00A5214170052181708221C170142101711D
:105E7C007821417100218171B4F8AE11C1719A6120
:105E8C0008212AF011F92FF0BFFE0028FBD0984A08
:105E9C004FF40021516197485A230370A523437096
:105EAC00052383708223C370142303717A234371F7
:105EBC0000238371D4F8AC311B0AC37191610821A2
:105ECC002AF0F2F82FF0A0FE0028FBD0884B4FF4FC
:105EDC0000225A6187485A210170A5214170052181
:105EEC0081708221C170142101717C2141710021CA
:105EFC008171D4F8AC11C1719A6108212AF0D4F8DF
:105F0C002FF082FE0028FBD0794A4FF4002151611A
:105F1C0078485A230370A523437007238370822388
:105F2C00C3701423037180234371D4F8C0311D0E48
:105F3C0085711D0CC5711D0A0572437291610A2190
:105F4C002AF0B2F82FF060FE0028FBD0684B4FF41B
:105F5C0000225A6167485A210170A5214170052120
:105F6C0081708221C1701421017184214171002141
:105F7C008171B4F8DE11C1719A6108212AF094F88C
:105F8C002FF042FE0028FBD0594B4FF400225A61EF
:105F9C0058485A210170A521417005218170822138
:105FAC00C170142101718621417100218171D4F8D5
:105FBC00C411C1719A6108212AF076F82FF024FEE1
:105FCC000028FBD04A4A4FF40021516149485A231A
:105FDC000370A5234370052383708223C37014239D
:105FEC0003718823437100238371D4F8C4311B0AD5
:105FFC00C371916108212AF057F82FF005FE002893
:10600C00FBD03B4B4FF400225A613A485A210170A5
:10601C00A5214170052181708221C170142101716B
:10602C008A21417100218171B4F8C611C1719A6144
:10603C0008212AF039F82FF0E7FD0028FBD02C4B73
:10604C004FF400225A612B485A210170A52141704E
:10605C00052181708221C170142101718C21417143
:10606C0000218171B4F8CE11C1719A6108212AF016
:10607C001BF82FF0C9FD0028FBD01D4A4FF400215E
:10608C0051611C485A230370A52343700523837068
:10609C008223C370142303718E23437100238371F5
:1060AC00D4F8CC311B0AC3719161082129F0FCFF93
:1060BC002FF0AAFD0028FBD00D4B4FF400225A61A3
:1060CC000C485A210170A521417005218170822153
:1060DC00C170142101719021417100218171D4F89A
:1060EC00CC11C1719A61082129F0DEFF04E000BFD8
:1060FC0000800041509501202FF086FD0028FBD038
:10610C007D4A4FF4002151617C485A230370A5232A
:10611C004370072383708223C37014230371942369
:10612C004371D4F8E0311D0E85711D0CC5711D0A2B
:10613C000572437291610A2129F0B6FF2FF064FDBC
:10614C000028FBD06C4B4FF400225A616B485A214B
:10615C000170A5214170052181708221C17014212B
:10616C0001719821417100218171B4F8FE11C17146
:10617C009A61082129F098FF2FF046FD0028FBD0EA
:10618C005D4B4FF400225A615C485A210170A521E5
:10619C004170052181708221C170142101719A21F5
:1061AC00417100218171D4F8E411C1719A61082107
:1061BC0029F07AFF2FF028FD0028FBD04E4A4FF42F
:1061CC00002151614D485A230370A52343700523C8
:1061DC0083708223C370142303719C2343710023A7
:1061EC008371D4F8E4311B0AC3719161082129F041
:1061FC005BFF2FF009FD0028FBD03F4B4FF4002232
:10620C005A613E485A210170A521417005218170C7
:10621C008221C170142101719E2141710021817173
:10622C00B4F8E611C1719A61082129F03DFF2FF0F5
:10623C00EBFC0028FBD0304B4FF400225A612F4866
:10624C005A210170A5214170052181708221C170F4
:10625C0014210171A021417100218171B4F8EE115A
:10626C00C1719A61082129F01FFF2FF0CDFC002885
:10627C00FBD0214A4FF40021516120485A2303706E
:10628C00A5234370052383708223C37014230371E9
:10629C00A223437100238371D4F8EC311B0AC37120
:1062AC009161082129F000FF2FF0AEFC0028FBD0F3
:1062BC00114B4FF400225A6110485A210170A5214C
:1062CC004170052181708221C17014210171A421BA
:1062DC00417100218171D4F8EC11C1719A610821CE
:1062EC0029F0E2FE2FF090FC0028FBD0024B4FF47B
:1062FC0000225A6138BD00BF00800041509501203A
:10630C0038B50446D4485A230370A5234370072399
:10631C0083708223C3701423037102234371D4F856
:10632C0000311A0E82711A0CC2711A0A027243726F
:10633C00CA4B4FF400229A610A2129F0B5FE2FF0C6
:10634C0063FC0028FBD0C54B4FF400225A61C248B5
:10635C005A210170A5214170052181708221C170E3
:10636C00142101710621417100218171B4F81E11B3
:10637C00C1719A61082129F097FE2FF045FC002885
:10638C00FBD0B64B4FF400225A61B3485A2101702E
:10639C00A5214170052181708221C17014210171E8
:1063AC000821417100258571D4F80451C5719A6199
:1063BC0029F07AFE2FF028FC0028FBD0A74A4FF4D6
:1063CC0000215161A4485A230370A523437005236F
:1063DC0083708223C370142303710A234371002337
:1063EC008371D4F804311B0AC3719161082129F01F
:1063FC005BFE2FF009FC0028FBD0984B4FF40022D9
:10640C005A6195485A210170A5214170052181706E
:10641C008221C170142101710C2141710021817103
:10642C00B4F80611C1719A61082129F03DFE2FF0D4
:10643C00EBFB0028FBD0894B4FF400225A618648B5
:10644C005A210170A5214170052181708221C170F2
:10645C00142101710E21417100218171B4F80E11CA
:10646C00C1719A61082129F01FFE2FF0CDFB002885
:10647C00FBD07A4A4FF40021516177485A230370BC
:10648C00A5234370052383708223C37014230371E7
:10649C001023437100238371D4F80C311B0AC37190
:1064AC009161082129F000FE2FF0AEFB0028FBD0F3
:1064BC006A4B4FF400225A6167485A210170A5219A
:1064CC004170052181708221C1701421017112214A
:1064DC00417100218171D4F80C11C1719A610821AC
:1064EC0029F0E2FD2FF090FB0028FBD05B4A4FF423
:1064FC000021516158485A230370A5234370072388
:10650C0083708223C3701423037116234371D4F850
:10651C0020311D0E85711D0CC5711D0A057243724B
:10652C0091610A2129F0C0FD2FF06EFB0028FBD0F1
:10653C004A4B4FF400225A6147485A210170A52159
:10654C004170052181708221C170142101711A21C1
:10655C00417100218171B4F83E11C1719A61082119
:10656C0029F0A2FD2FF050FB0028FBD03B4B4FF441
:10657C0000225A6138485A210170A5214170052129
:10658C0081708221C170142101711C214171002183
:10659C008171D4F82411C1719A61082129F084FD0C
:1065AC002FF032FB0028FBD02C4A4FF40021516114
:1065BC0029485A230370A523437005238370822333
:1065CC00C370142303711E23437100238371D4F809
:1065DC0024311B0AC3719161082129F065FD2FF04C
:1065EC0013FB0028FBD01D4B4FF400225A611A48B4
:1065FC005A210170A5214170052181708221C17041
:10660C00142101712021417100218171B4F82611EE
