:020000040000fa
:10000000f0ff032091cf020073e90200e700030034
:10001000831503008f1703008f18030000000000f2
:1000200000000000000000000000000001120300ba
:100030004313030000000000d1dd0200650503004a
:1000400091190300911903009119030091190300fc
:1000500091190300911903009119030091190300ec
:1000600091190300911903009119030091190300dc
:100070009119030045130300651303009119030050
:100080009119030085130300a5130300c513030092
:100090008d110300b1110300d5110300a90e030057
:1000a000d10e030091190300911903009119030067
:1000b000911903009119030091190300911903008c
:1000c000911903009119030091190300911903007c
:1000d000911903009119030091190300911903006c
:1000e00091190300911903000000000000000000b6
:1000f00000000000911903009119030091190300f9
:10010000911903009119030091190300911903003b
:1001100091190300911903004de302004de3020021
:100120004de302004de30200a5ab0200a5ab0200c7
:10013000a5ab0200a5ab02002de102002de10200fb
:100140002de102002de102009de202009de202008d
:100150009de202009de20200f5e20200f5e20200eb
:10016000f5e20200f5e20200a5e30200a5e30200c9
:10017000a5e30200a5e302001dc50200adc6020012
:1001800091190300911903009119030091190300bb
:100190000000000091190300911903009119030058
:1001a000911903009119030091190300911903009b
:1001b000911903009119030091190300911903008b
:1001c000911903009119030091190300911903007b
:1001d000911903009119030091190300911903006b
:1001e000911903009119030091190300911903005b
:1001f000911903009119030091190300911903004b
:10020000911903009119030091190300911903003a
:10021000911903009119030091190300911903002a
:10022000911903009119030091190300911903001a
:10023000911903009119030091190300911903000a
:1002400091190300911903009119030091190300fa
:1002500091190300911903009119030091190300ea
:020000040000fa
:10026000f8b500bff8bc08bc9e467047d9ef020045
:10027000f8b500bff8bc08bc9e467047b5ef020059
:020000040000fa
:08028000c88302000100000028
:020000040000fa
:100288002de9f04ff9b000247694779474948df8a2
:10029800d441adf8cc417194729470946d946e947d
:1002a8008df8bc416b94cdf8af41689469946a9419
:1002b8006594669467946294639464945b945c9484
:1002c8005d945e945f9460946194579458945994a3
:1002d800adf8684151945294539454945594cdf880
:1002e80057419222214617a831f0b6fa1594169470
:1002f8001e22214605a831f0affab34fb34cdff800
:100308002c83dff82ca3dff82c93dff82cb331e231
:10031800af4b18682cf032fc0025aaf80050a9f859
:100328000050ac4b1d70ac4b1d802a4676a9ab4bd8
:1003380018682bf0b3fc2a4674a9a94b18682bf04f
:10034800adfc2a4673a9a74b18682bf0a7fc9df8ab
:10035800df31012b40f0d8819df8d231002b40f0dd
:10036800d3819df8d1316d2b26d89df8d131632bdf
:1003780000f2ca819c4e689640238df8aa319b4da5
:100388000023642268a928682bf068fb4ff47a7070
:100398002ff0f0fd689600238df886318df8aa318c
:1003a800642268a928682bf059fb64202ff0e2fd2d
:1003b8008f4b01221a70a7e18e4b1d608e4b1d607a
:1003c800894b689340238df8aa31884e2b466422c6
:1003d80068a930682bf042fb4ff47a702ff0cafd01
:1003e800814b68938df886518df8aa512b4664226b
:1003f80068a930682bf032fb64202ff0bbfd7c4be2
:1004080001221a700c2388f80030aee77b4b659305
:1004180000258df898512b46642265a97848006814
:100428002bf01cfb64202ff0a5fd764b6293012670
:100438008df862618df88c618df863518df88d515e
:100448008df864518df88e512b46642262a96e484e
:1004580000682bf003fb64202ff08cfd624b68933f
:100468008df884618df8a5612b46642268a95f48e0
:1004780000682bf0f3fa64202ff07cfd2a4673a95c
:10048800584b18682bf00afc9df8cc31b34240f069
:100498003b81574b02221a7036e1534d6895402331
:1004a8008df8aa31514e0023642268a930682bf0d8
:1004b800d5fa4ff47a702ff05dfd689500258df818
:1004c80086518df8aa512b46642268a930682bf012
:1004d800c5fa64202ff04efd2a4674a9404b1868cf
:1004e8002bf0dcfb002800f00f819df8d131503b48
:1004f800dbb21d2b25d99df8d1316d2b0dd9434b7e
:100508001b78002b00f09a80414b00221a700c23b4
:1005180088f8003001202ef0bff83e4b1b681e2bd8
:1005280040f3f2803b4b00221a60384b1b7823b90a
:10053800394b4ff48032c3f898202d4b00221a70a3
:10054800e2e002202ef0a8f8334b4ff48032c3f8d3
:100558009420092388f800302d4b01221a70254b6e
:100568001b6893420ed02d4b1b78022b18d0214bc1
:100578001b6813b91e4b03221a70264a13680133ed
:100588001360b8e72a468df84050022310a9244882
:1005980000682bf063fa234b18682cf0effae2e7b7
:1005a8001e4b5b78012be2d1114b03221a700022fb
:1005b8008df84420022311a91b4800682bf04efa3d
:1005c8000d4b01221a60d2e7f1990120f49801201d
:1005d800cc970120109a012042950120a89801206b
:1005e800ac980120d098012002c4ec157098012025
:1005f800c5990120389901204099012001c4ec15c2
:100608005498012002d4ec1544980120e199012066
:10061800e69901202499012000800041cc9901200d
:10062800589701204097012068970120b999012027
:10063800d8990120dc990120ef990120b84b4ff49b
:100648008032c3f89820b74b18682bf0c9fd4ff6d5
:10065800ff702ef0ebfd0023b34a1360b34a13601a
:10066800b34b1b78002b7ff44fafb14b01221a70ac
:10067800b04b18782df072fb46e70025ae4b1d6095
:10068800ae4b659308238df847318df89b312b4687
:10069800642265a9aa4800682bf0e0f94ff47a7043
:1006a8002ff068fca74e68968df885518df8a851f3
:1006b8008df886518df8aa518df887518df8ab5178
:1006c8002b46642268a9a04800682bf0c7f94ff4ac
:1006d8007a702ff04ffc2a4673a99c4b18682bf0b0
:1006e800ddfa689602238df884318df8a5312b4602
:1006f800642268a9944800682bf0b0f964202ff0b0
:1007080039fc934b04221a7098f800308df8513058
:10071800baf80020adf84e20b9f80020adf84c200a
:100728009bf800208df852203a788df850208df8eb
:1007380048300223002213a9864800682bf08ef95e
:100748000223002212a9844800682bf087f9236845
:10075800012b0bd1002323607d4a13707f4b18684f
:100768002cf00cfa7e4b18682bf03afd4ff44870c9
:100778002ff000fc00220da97a4b18682bf08efa96
:1007880028b1794a9df8343011880b441380704b96
:100798001b78dbb21e2bb7d801a252f823f000bf9a
:1007a8001903000015040000a304000083060000dc
:1007b8002508000011070000990800001107000033
:1007c80011070000110700001107000011070000c1
:1007d80011070000110700001107000011070000b1
:1007e800190a000011070000450b0000710d0000f8
:1007f800410e000011070000c5100000110700009d
:100808001107000011070000110700001107000080
:100818001107000011070000711a0000002274a9d6
:10082800524b18682bf03afa002273a9474b186804
:100838002bf034fa9df8d231012b1fd09df8cc3122
:10084800fa2b02d0fc2b00d013b9414b00221a70ae
:100858009df8d1316d2b7ff657af454b1b7823b9e7
:100868002f4b4ff48032c3f898200023414a13706d
:100878000c2288f80020364a137045e79df8d131dc
:10088800503bdbb21d2bd9d8314b06221a70d5e765
:100898000022274b1a7073a92c4b18682bf0fef90d
:1008a8009df8cc31312b0ed91f4b1b68012b28d05a
:1008b800002b41f0208200226ba92f4b18682bf0e7
:1008c800edf900285cd19df8cc31fa2b02d0fc2b35
:1008d80000d053b9144a1268012a19d02ab91c4aff
:1008e80000211170104a012111600a2b7ff40caf0e
:1008f800224b1b780133dbb2f02b79d01f4a1370df
:1009080002e7134b10221a709df8cc31fa2bded176
:100918000f4a00211170044a01211160e5e700bf68
:1009280000800041749701203899012040990120e6
:100938001c9a0120779a01202499012001c4ec1502
:100948005498012002c4ec1570980120d098012019
:10095800c5990120549701201497012098970120e8
:100968005c9801209497012042950120ac980120c1
:10097800e1990120e6990120b8980120289a0120e0
:100988009df8ac318df838309df8ad318df839309f
:100998009df8ae318df83a309df8af318df83b3087
:1009a8009df8b0318df83c309df8b1318df83d306f
:1009b800022300220ea9534800682bf04ff89df837
:1009c8003830002b3ff47faf4f4b01221a604f4b5a
:1009d80010221a7002238df84030002210a94c48ca
:1009e80000682bf03bf84b4b18682cf0c7f86ae707
:1009f8000023494a1370454a1370484b40f233129a
:100a08001a80474b02221a7011202df0a7f97be6b5
:100a1800414b00221a70434b1b686bbb424b1b783f
:100a2800022b2dd1404b5b78012b29d115468df82f
:100a38004420022311a93d4800682bf00ff83c4bd5
:100a4800689301238df886318df8aa312b466422ec
:100a580068a9384800682bf001f864202ff08afa5a
:100a68002a4673a9344b18682bf018f9274b122221
:100a78001a700e202df072f92a4b1b68012b22d018
:100a8800002273a92c4b18682bf008f99df8cc317b
:100a9800fa2b04d0fc2b02d0002b7ff435ae1b4b75
:100aa80000221a70184b01221a601c4b4ff49a72dc
:100ab8001a801b4b02221a7006202ff0fffd11200e
:100ac8002df04cf920e61a4b689301238df88631f6
:100ad8008df8aa310023642268a9164800682af014
:100ae800bdff64202ff046fa002273a9124b186844
:100af8002bf0d4f8054b12221a700e202df02ef987
:100b0800bee700bf5c97012038990120c5990120f4
:100b18005897012040970120289a012082960120a9
:100b2800f599012040990120cc990120689701206e
:100b380002c4ec1570980120d09801200123a84a1e
:100b48001360a84a4ff40011c2f8181100224e92ff
:100b5800a54a4f928df8403102238df84131002289
:100b68004ea9a24800682af079ffa14b18682cf01a
:100b780005f8002271a99f4b18682bf08ff8002800
:100b880000f0d7809df8c4319df8c52102eb0322ff
:100b9800994981fb0232931007ee903af8eee77a12
:100ba8009df8c6219df8c73103eb022381fb03237f
:100bb8009b1007ee103ab8eec77abdeec77a17ee6b
:100bc800103a8e4a92fbf3f303eb83035b0007eec4
:100bd800103ab8eec77a8a4b83ed007ab2ee047aff
:100be80067ee877a93ed007af4eec77af1ee10faa1
:100bf80048bfc3ed007a834b689300258df8aa514e
:100c08002b46642268a9804800682af027ff6420e0
:100c18002ff0b0f97d4b6593794ad2ed007afcee5e
:100c2800e77a17ee903a8df89831d2ed007afcee1b
:100c3800e77a17ee903ac3f307238df89931e0234a
:100c48008df89a312e238df89b314ff010028df8d4
:100c58009c2127238df89d3114268df89e618df8ef
:100c68009f512b46642265a9694800682af0f6fe60
:100c78004ff496702ff07ef98df898618df89951a0
:100c8800c8238df89a318df89b518df89c618df8a9
:100c98009d5164268df89e618df89f515d4b65933b
:100ca8002b46324665a95a4800682af0d7fe4ff409
:100cb80096702ff05ff902238df886318df8aa31ee
:100cc800504b68932b46324668a94f4800682af073
:100cd800c5fe30462ff04ef910202df03ff82a4679
:100ce80073a94d4b18682af0d9ff9df8cc21a2f1c1
:100cf8005b03dbb2092b08d8484b13221a70394b17
:100d08004ff48012c3f8142113e0fa2a01d0fc2a08
:100d180027d1424b00221a70414b40f235121a80fb
:100d2800404b02221a7008202ff0c8fc11202df029
:100d380015f800250e95adf83c5002232a460ea959
:100d4800394800682af08afe8df8405002232a4666
:100d580010a9364800682af081fe354b1d809d7029
:100d6800d2e4002ad5d0e4e7002274a9314b1868f0
:100d78002af094ff9df8d131312b7ff6c5ac194b81
:100d8800d3f8203113f0807f19d101238df88531f4
:100d98008df8a8310c238df886318df8aa31194bbe
:100da80068930023642268a9174800682af056fe51
:100db80064202ff0dff8194b14221a70a4e4174ba3
:100dc80000221a70164b40f235121a80154b022277
:100dd8001a7007202ff072fc11202cf0bfff93e44b
:100de80040990120008000410000484304980120f8
:100df80008980120c098012067666666c0d4010083
:100e0800d897012002c4ec157098012003c4ec1592
:100e18005498012004c0ec15d0980120c5990120f0
:100e280082960120f59901205c97012058970120ae
:100e3800cc990120ac980120002270a9854b186834
:100e48002af02cff9df8c0319df8c12102eb032246
:100e5800814981fb0232921007ee902af8eee77a78
:100e68007e4bc3ed007a9df8c2219df8c33103eb98
:100e7800022381fb03239b1007ee103ab8eec77ad2
:100e8800774b83ed007a4ff080434e93cded4f7a48
:100e980001238df8403102238df8413100224ea9fb
:100ea800704800682af0dafd6f4b18682bf066fe70
:100eb8009df8c1318df8a4319df8c0318df8a53168
:100ec8009df8c3318df8a6319df8c2318df8a73150
:100ed800664b68930023642268a9654800682af075
:100ee800bdfd64202ff046f812202cf037ff0022b9
:100ef80073a9604b18682af0d1fe00283ff404acaf
:100f08009df8cc31782b1ad09df8cc31fa2b04d02f
:100f1800fc2b02d0002b7ff4f7ab574b1e221a7024
:100f2800564b4ff49b721a80554b02221a700820b8
:100f38002ff0c4fb11202cf011fffff7e5bb514b3c
:100f48001e6830f0d1fc4ef660250095002302465d
:100f5800012130462df030fd4b4b1e6830f0c4fcab
:100f6800009500230246012130462df025fd474b10
:100f78001e6830f0b9fc0095002302460121304676
:100f88002df01afd424b1e6830f0aefc0095002390
:100f98000246012130462df00ffd3e4b1e6830f011
:100fa800a3fc009500230246012130462df004fde4
:100fb800394b1e6830f098fc009500230246012149
:100fc80030462df0f9fc2c4b16221a70334b18784a
:100fd8002ef0a6fd64202ef0cdff314d28782ef09e
:100fe800bbfd64202ef0c6ff2e4e30882ef0d0fdbb
:100ff80064202ef0bfff2c4908782ef001fe6420f3
:101008002ef0b8ff294800782ef0defd64202ef07f
:10101800b1ff274a10782ef00ffe64202ef0aaffa9
:10102800244b1a68244b1a6031882b781b4a127893
:101038001b0243ea014313433f931c4801781a4bb0
:101048001b781b4a12781b0243ea0143134340935f
:101058005ae700bfc898012067666666a499012010
:1010680004990120049801200898012005c4ec1572
:1010780070980120d0980120c599012082960120fe
:10108800f5990120e89801206c99012070990120b8
:101098007499012078990120a4970120019a0120d0
:1010a8001a9a01205a8d0120199a01200a9a0120c2
:1010b800269a0120c497012030980120554b1868c2
:1010c8002bf05cfd03202df0e7fa534b18882ef027
:1010d8007ffc524b1b78072b00f09780002270a9e9
:1010e8004f4b18682af0dafd002840f0b9806420d8
:1010f8002ef040ff9df8c1318df8a4319df8c03124
:101108008df8a5319df8c3318df8a6319df8c2310f
:101118008df8a731434b68930023642268a942489d
:1011280000682af09bfc64202ef024ff00226da9a1
:101138003e4b18682af0b2fda0b13d4a13789df8dd
:10114800b6013c49c854062188f8001001331370d1
:10115800324b1b78042b40f28c83304b1b78052bc9
:1011680000f09283344b1b78052b00f09583304bad
:101178001b78052b00f00a84304b1b782bb9304bb9
:101188001b78dbb2012b00f020842c4b1b78dbb2e0
:10119800012b00f025849df8cc31292b03d0fa2ba4
:1011a80001d0fc2b12d1274b1e221a70092388f874
:1011b8000030254bca221a80244b02221a700a20ba
:1011c8002ff07cfa224b1a68224b1a609df8b43132
:1011d800012b00f01c84204b1b78022b7ff494aa6f
:1011e8001d4b9b78012b7ff48faa164b1e221a7079
:1011f800092388f80030184b00221a809a70144b83
:101208001a68144b1a60fff77fba144b18782ff03e
:10121800e7f863e77497012042950120109a0120ae
:10122800c898012005c4ec1570980120c4980120c5
:101238000d9a012084960120159a0120e199012038
:10124800e6990120c599012082960120f59901208f
:10125800c497012038980120cc990120c999012010
:101268009df8c2219df8c33103eb0223c34a82fbd8
:1012780003139b0807ee903af8ee677ac04bc3ed6c
:10128800007a9df8c0119df8c13103eb012382fb60
:1012980003239b0807ee103ab8ee477ab94b83ed63
:1012a800007a17ee900a2ef0e7fe02460b46b64982
:1012b80005a830f055f91e2105a82cf04ffa30f09a
:1012c8006bfa0028fbd0ae4bd3ed007aad4bd3edd3
:1012d800006a27eea67aad4b83ed007aac4b1b78fb
:1012e800002b40f08780ab4b1a68ab4b1a6093ed2c
:1012f800006ab4eec67af1ee10fa34d5a74b1b7823
:1013080033bb9feda77a76ee876acded4f6aa24b85
:1013180093ed006aa34bd3ed006a86ee267af4eecd
:10132800c77af1ee10fac0f28880f5ee007a27ee5f
:10133800277a8ded4e7a03238df8413101238df8fc
:101348004031022300224ea9974800682af086fb04
:10135800924b1b78dbb2012b7cd0904b1b78dbb215
:10136800012b00f0be808c4bd3ed007a874b93edb8
:10137800007ab4eee77af1ee10fa3bdd874b1b7882
:1013880063bb804bd3ed007a9fed857a77ee877a41
:10139800cded4f7a804bd3ed006a824bd3ed007ac6
:1013a80086eea77a764bd3ed007ab4eee77af1eec3
:1013b80010fa00f2d580f5ee007a27ee277a8ded47
:1013c8004e7a03238df8413101238df840310223f1
:1013d80000224ea9744800682af040fb6f4b1b7826
:1013e800dbb2012b00f0ec806c4b1b78dbb2012bdd
:1013f80000f02d81664b1b78dbb2012b00f0668173
:101408006a490a7890006a4d05449df8c2619df8c2
:10141800c33103eb0623594e86fb03639b0807ee93
:10142800903af8ee677ac5ed007a624b03445d485e
:101438000068186001320a7059e6f4eec77af1eed6
:1014480010fa7ff578afb5ee007a67ee877acdedc2
:101458004e7a70e7584b1b78dbb2112b7ff67dafc5
:10146800564b4ff40012c3f81821464bd3ed007abf
:101478009fed4b7a77ee877acded4f7a464bd3edd9
:10148800007ab6ee007a67ee877a464bd3ed006aab
:1014980087eea67a3a4bd3ed007ab4eee77af1ee0e
:1014a80010fa12d8f6ee007a27ee277a8ded4e7aea
:1014b80002238df8413101228df8402100224ea9e6
:1014c800394800682af0cafa4de7b4eee77af1ee37
:1014d80010faedddb6ee007a67ee877acded4e7a3a
:1014e800e6e7354b1b78dbb2112b3ff63caf254bbb
:1014f800d3ed007a9fed2a7a77ee877acded4f7a91
:10150800254bd3ed006a274bd3ed007a86eea77af8
:101518001b4bd3ed007ab4eee77af1ee10fa13d84c
:10152800f5ee007a27ee277a8ded4e7a03238df8b3
:10153800413101238df84031022300224ea91a4877
:1015480000682af08bfa0ee7b4eee77af1ee10faab
:10155800ecddb5ee007a67ee877acded4e7ae5e7f9
:10156800b4eee77af1ee10fa7ff72bafb5ee007a1a
:1015780067ee877acded4e7a23e700bf6766666629
:1015880004990120a499012068220100649901208e
:10159800ed990120649a0120f0970120e19901203a
:1015a800000000006c9a012004980120159a01207f
:1015b80088940120b0940120c19901200080004145
:1015c800bf4b1b78dbb2112b7ff60eafbd4b4ff430
:1015d8000012c3f81821bc4bd3ed007a9fedbb7afb
:1015e80077ee877acded4f7ab94bd3ed007ab6ee28
:1015f800007a67ee877ab74bd3ed006a87eea67a52
:10160800b54bd3ed007ab4eee77af1ee10fa12d8c2
:10161800f6ee007a27ee277a8ded4e7a02238df8c2
:10162800413101228df8402100224ea9ab480068c3
:101638002af014fadee6b4eee77af1ee10faeddd00
:10164800b6ee007a67ee877acded4e7ae6e79c4be8
:101658001b78dbb2112b3ff6cdae9b4bd3ed007a56
:101668009fed9a7a77ee877acded4f7a984bd3ed46
:10167800006a984bd3ed007a86eea77a964bd3eda5
:10168800007ab4eee77af1ee10fa13d8f5ee007aa4
:1016980027ee277a8ded4e7a03238df84131012309
:1016a8008df84031022300224ea98c4800682af0a8
:1016b800d5f99fe6b4eee77af1ee10faecddb5ee77
:1016c800007a67ee877acded4e7ae5e7844b1b7892
:1016d8005bbb7d4bd3ed007a9fed7c7a77ee877a02
:1016e800cded4f7a7f4bd3ed006a7a4bd3ed007a7c
:1016f80086eea77a784bd3ed007ab4eee77af1ee6e
:1017080010fa50d8f5ee007a27ee277a8ded4e7a4a
:1017180003238df8413101238df840310223002243
:101728004ea96e4800682af099f96d4b1b78dbb218
:10173800012b44d06a4b1b78dbb2012b7ff460aedf
:101748005f4b1b78dbb2112b3ff65aae5e4bd3ede5
:10175800007a9fed5e7a77ee877acded4f7a614b0e
:10176800d3ed006a5b4bd3ed007a86eea77a5a4b2d
:10177800d3ed007ab4eee77af1ee10fa6dd8f5ee13
:10178800007a27ee277a8ded4e7a03238df84131c2
:1017980001238df84031022300224ea94f480068ea
:1017a8002af05cf92ce6b4eee77af1ee10faafdd38
:1017b800b5ee007a67ee877acded4e7aa8e7404b12
:1017c8001b78dbb2112bb5d93e4b4ff40012c3f88e
:1017d8001821444b93ed007adfed437ab4eee77ab3
:1017e800f1ee10fac8bfc3ed007a374bd3ed007a9b
:1017f8009fed367a77ee877acded4f7a394bd3ed78
:10180800006a344bd3ed007a86eea77a324bd3eddb
:10181800007ab4eee77af1ee10fa12d8f6ee007a12
:1018280027ee277a8ded4e7a02238df84131012279
:101838008df8402100224ea9284800682af00ef9a8
:10184800dee5b4eee77af1ee10faedddb6ee007af9
:1018580067ee877acded4e7ae6e7b4eee77af1eef9
:1018680010fa92ddb5ee007a67ee877acded4e7a02
:101878008be72ef0b5fd9df8b6211c4b1a701c4a5b
:1018880013780133137068e4194b07221a709df816
:10189800b6318bf8003065e44ff0000c154b83f837
:1018a80000c0baf80010b9f80000134b134a03f14e
:1018b800140ecdf80cc01e461546029122e000bf5a
:1018c800c199012000800041a49901200000000076
:1018d800f09701206c9a01200499012004980120b6
:1018e800e1990120f897012000606a47c999012011
:1018f800109a0120159a012088940120b0940120a3
:10190800734525d0f3ec017a96ed007ab4eee77ac8
:10191800f1ee10fa09d8c6ed007afceee77a17ee78
:10192800901a89b202914ff0010cf2ec017a95ed10
:10193800007ab4eee77af1ee10fae1d8c5ed007a54
:10194800fceee77a17ee901a88b201210391d7e7e7
:101958000299bcf1000f01d0aaf80010039b0bb14b
:10196800a9f80000344bd3ed007afceee77a17eec5
:10197800900a2ef065f8314bd3ed007afceee77a49
:1019880017ee900a2ef040f8fff7f1bb00252c4b1c
:101998001d7097f800c02b4b5e1d18464ff0010ec6
:1019a80001e0b34208d013f8012b01789142f8d82e
:1019b800027094467546f4e70db187f800c0214bd4
:1019c80018782ef0f5fcfff7d7bb00228df84420dd
:1019d800022311a91c4800682af040f8fff7d5bb7c
:1019e8001a4b1b78dbb2012b7ff4d5ab184b1b7855
:1019f800dbb2132b7ff6cfab00228df844200223f5
:101a080011a9114800682af029f8fff7c4bb114b47
:101a18001e221a70092388f800300f4bc9221a8039
:101a28000e4b02221a700a202ef048fe0c4b1a6840
:101a38000c4b1a60fff7cfbb88940120b0940120ab
:101a48000d9a01208496012068970120e6990120cb
:101a5800c1990120c599012082960120f59901209c
:101a6800c497012038980120a74b1b78dbb2012bc3
:101a780000f00981a54b1b78dbb2012b00f019811e
:101a88004ff003038df884318df8a531a04b68938e
:101a9800a04e0023642268a9306829f0dfff3220b5
:101aa8002ef068fa00258df8a4518df8a5519a4ab0
:101ab80068922b46642268a9306829f0cfff32204b
:101ac8002ef058fa95494ff48010c1f81801944b3c
:101ad8001a68944b1a608c4b1d7002238df84131a3
:101ae8008df840512a464ea98f48006829f0b6ff64
:101af80040f6b8302ef03efa4ff003008df8a501fd
:101b0800834b68932b46642268a80146306829f005
:101b1800a5ff32202ef02efa8df8a4518df8a5518c
:101b28007d4a68922b46642268a80146306829f0ed
:101b380095ff32202ef01efa78494ff48013c1f831
:101b480018310a2300932b462a4603217748006858
:101b58002cf032ff764b18782ef08af8754b1878ef
:101b68002ef0a2f8744b18882ef0baf8734b187838
:101b78002ef0eef8724b18782ef0cef8714b1878dc
:101b88002ef002f9704b18682ef036f96f4b1b785f
:101b9800dbb2012b00f0a3806c4b1b78dbb2022b6d
:101ba80000f0a180694b1b78dbb2032b00f09f800b
:101bb8005c4bd3ed007afceee77a654b93ed007a47
:101bc800bceec77a17ee903a17ee102a9b1a07ee6a
:101bd800903af8ee677a5f4dc5ed007afceee77a49
:101be80017ee900a2ef0ecf85b4b15221a700520c0
:101bf8002cf052fd544b1b683e934f4b19884d4bac
:101c08001b784b4a12781b0243ea01431343419362
:101c18004b4b1978494b1b784a4a12781b0243ea06
:101c28000143134342934d4b1a783b7843ea0243ee
:101c38004393d5ed007afceee77a17ee903a43f439
:101c480000334493414b1a78454d2b8843ea0243ad
:101c5800459302238df8f030002364223ca94148c3
:101c6800006829f0fbfe404b18682af087ff012323
:101c7800236000222a803d4a13703d4a13703d4a72
:101c88001370fef741bd214b1b78002b7ff4f2ae99
:101c980000228df8402103238df8413102234ea9fb
:101ca8002148006829f0dafe40f6b8302ef062f9d3
:101cb800e0e6154b1b78dbb2012b7ff4e1ae002286
:101cc8008df8402102238df841314ea9164800684d
:101cd80029f0c4fe40f6b8302ef04cf9d0e60120c9
:101ce8002ef0ecfc58e702202ef0e8fc5ae703201f
:101cf8002ef0e4fc5ce79df8cc31fa2b7ef4e7adde
:101d08001d4a1268fef7eabde6990120e199012013
:101d180002c4ec157098012005c4ec150080004140
:101d2800c49701203898012004980120a497012025
:101d3800019a01201a9a01205a8d0120199a01202e
:101d48000a9a0120269a012000970120f49901207f
:101d58003098012028970120779a0120c9990120fd
:101d6800429501208097012084970120e599012060
:0c1d7800e4990120e39901203899012032
:020000040000fa
:101d84002de9f04ff1b000246e946f946c94cdf86b
:101d9400b3416a948df8ac41adf8a441679468945a
:101da4006694639464948df894416094619462940d
:101db4005d945e945f945a945b945c9453945494ad
:101dc400559456945794589459944f9450945194cc
:101dd400adf8484149944a944b944c944d94cdf8b1
:101de4003741469447944894922221460fa82ff0f5
:101df40035fd0d940e94b34eb34fdff82c83dff80a
:101e04002c93dff82cb3dff82ca32de2af4b18682a
:101e14002af0b6fe0024ae4b1c70a9f80040abf8c3
:101e24000040ac4b1c8022466ea9ab4b186829f0cd
:101e340037ff22466aa9a94b186829f031ff2246c8
:101e440069a9a74b186829f02bff9df8bf31012b16
:101e540040f0d2819df8aa31002b40f0cd819df84d
:101e6400a9316d2b26d89df8a931632b00f2c481ca
:101e74009c4d609540238df88a319b4c002364224d
:101e840060a9206829f0ecfd4ff47a702ef074f804
:101e9400609500238df851318df88a31642260a950
:101ea400206829f0ddfd64202ef066f88f4b0122b6
:101eb4001a70a1e18e4b1c608e4b1c60894b6093a1
:101ec40040238df88a31884d2346642260a928680e
:101ed40029f0c6fd4ff47a702ef04ef8814b6093d2
:101ee4008df851418df88a412346642260a92868ff
:101ef40029f0b6fd64202ef03ff87c4b01221a70c5
:101f04000c2388f80030aee77b4b5d9300248df8fa
:101f14007841234664225da97848006829f0a0fd31
:101f240064202ef029f8764b5a9301258df84251fe
:101f34008df86c518df843418df86d418df8444115
:101f44008df86e41234664225aa96e48006829f030
:101f540087fd64202ef010f8624b60938df84f518a
:101f64008df885512346642260a95f48006829f0f2
:101f740077fd64202ef000f8224669a9584b1868b2
:101f840029f08efe9df8a431ab4240f03581574bc9
:101f940002221a7030e1534c609440238df88a3148
:101fa400514d0023642260a9286829f059fd4ff49b
:101fb4007a702df0e1ff609400248df851418df882
:101fc4008a412346642260a9286829f049fd6420d7
:101fd4002df0d2ff22466aa9404b186829f060fe12
:101fe400002800f009819df8a931503bdbb21d2b7c
:101ff40025d99df8a9316d2b0dd9434b1b78002ba6
:1020040000f09a80414b00221a700c2388f80030ab
:1020140001202ef0d1fa3e4b1b681e2b40f3ec80be
:102024003b4b00221a60384b1b7823b9394b4ff4d1
:102034008032c3f898202d4b00221a70dce0022075
:102044002ef0bafa334b4ff48032c3f894200923ac
:1020540088f800302d4b01221a70254b1b689342df
:102064000ed02d4b1b78012b18d0214b1b6813b9b4
:102074001e4b03221a70264a136801331360b8e713
:1020840022468df82040022308a92448006829f03c
:10209400e7fc234b18682af073fde2e71e4b5b78dc
:1020a400012be2d1114b03221a7000228df8242057
:1020b400022309a91b48006829f0d2fc0d4b012218
:1020c4001a60d2e7f0990120f0980120cc97012002
:1020d4000f9a012092930120789801207c98012086
:1020e400a098012002c0ec1570980120c19901202c
:1020f400349901203c99012001c0ec155498012029
:1021040002d0ec1544980120e6990120e1990120c0
:102114002099012000800041d09901205897012086
:10212400409701206897012089960120d6990120c3
:10213400da990120ee990120af4b4ff48032c3f8b5
:102144009820ae4b18682af04df84ff6ff702df02a
:102154006ff80023aa4a1360aa4a1360aa4b1b789b
:10216400002b7ff44fafa84b01221a70a74b1878ad
:102174002bf0f6fd46e70024a54b1c60a54b5d93b0
:1021840008238df825318df87b31234664225da91f
:10219400a148006829f064fc4ff47a702df0ecfe3d
:1021a4009e4d60958df850418df888418df85141d0
:1021b4008df88a418df852418df88b412346642273
:1021c40060a99748006829f04bfc4ff47a702df011
:1021d400d3fe609502238df84f318df88531234667
:1021e400642260a98e48006829f03afc64202df02e
:1021f400c3fe8c4b04221a7098f800308df83130ed
:10220400b9f80030adf82e30bbf80030adf82c3002
:102214009af800308df8323033788df8303002235c
:1022240000220ba98048006829f01afc98f80030b5
:102234008df82830022300220aa97c48006829f07e
:102244000ffc3b68012b0bd100233b60754a1370d4
:10225400774b18682af094fc764b186829f0c2ff73
:102264004ff4fa702df088fe6e4b1b78dbb21e2bf8
:10227400c2d801a252f823f0111e00000d1f000065
:102284009b1f00007b210000f9220000fd210000bb
:102294006d230000fd210000fd210000fd21000050
:1022a400fd210000fd210000fd210000fd210000b2
:1022b400fd210000fd210000e3240000fd210000b9
:1022c400112600004928000021290000fd210000fa
:1022d400a52b0000fd210000fd210000fd210000d0
:1022e400fd210000fd210000fd210000fd21000072
:1022f4002735000000226aa94f4b186829f0d0fc4a
:10230400002269a94d4b186829f0cafc9df8aa312e
:10231400012b1fd09df8a431fa2b02d0fc2b00d046
:1023240013b9404b00221a709df8a9316d2b7ff62a
:1023340063af434b1b7823b92f4b4ff48032c3f860
:10234400982000233f4a13700c2288f80020354a55
:10235400137051e79df8a931503bdbb21d2bd9d83e
:10236400304b06221a70d5e70022274b1a7069a950
:10237400324b186829f094fc9df8a431312b0ed906
:102384001f4b1b68012b28d0002b41f0098200222f
:102394006ca92d4b186829f083fc002858d19df8ae
:1023a400a431fa2b02d0fc2b00d053b9144a126882
:1023b400012a19d02ab91b4a00211170104a01219f
:1023c40011600a2b7ff418af204b1b780133dbb26a
:1023d400f02b74d01d4a13700ee7124b10221a70a2
:1023e4009df8a431fa2bded10e4a00211170044a63
:1023f40001211160e5e700bf0080004174970120ce
:10240400349901203c9901201b9a0120779a0120dc
:102414002099012001c0ec155498012002c0ec154c
:1024240070980120c1990120509701201097012034
:102434008c9701204c9801207c980120a0980120c1
:10244400e6990120e199012088980120279a01202a
:102454009df8b0318df818309df8b1318df81930f0
:102464009df8b2318df81a309df8b3318df81b30d8
:102474009df8b4318df81c309df8b5318df81d30c0
:102484000223002206a95348006829f0e9fa9df8be
:102494001830002b83d001234f4a13604f4a102178
:1024a40011708df820304e4b18682af069fb022316
:1024b400002208a94b48006829f0d2fa6fe70023ec
:1024c400494a1370454a1370484b40f233121a803c
:1024d400474b01221a7008202bf042fc8ce6424b39
:1024e40000221a70434b1b6873bb434b1b78012bb0
:1024f4002ed1414b5b78012b2ad114468df8242030
:10250400022309a93d48006829f0aafa3c4b6093cc
:1025140001238df851318df88a312346642260a954
:102524003848006829f09cfa64202df025fd4ff40a
:102534007a7269a9344b186829f0b2fb274b12222e
:102544001a7005202bf00cfc2a4b1b68012b21d0a0
:10255400002269a92c4b186829f0a2fb9df8a4312c
:10256400fa2b04d0fc2b02d0002b7ff445ae1b4b7e
:1025740000221a700123184a13601c4a4ff49a71fe
:1025840011801b4a137006202ef084f808202bf0cb
:10259400e7fb31e61a4b609301238df851318df836
:1025a4008a310023642260a91648006829f058fa89
:1025b40064202df0e1fc4ff47a7269a9124b18687b
:1025c40029f06efb054b12221a7005202bf0c8fb74
:1025d400bee700bf5c97012034990120c199012016
:1025e4004097012058970120279a012082960120c4
:1025f400f59901203c990120d09901206897012088
:1026040002c0ec1570980120a0980120ad4b4ff446
:102614000012c3f8182100234693ab4b47930124bf
:102624008df820418df821410023642246a9a74852
:10263400006829f015faa64b18682af0a1faa54bf0
:102644001c60002267a9a44b186829f029fb002804
:1026540000f0d3809df89c319df89d2102eb03226c
:102664009e4981fb0232931007ee903af8eee77a26
:102674009df89e219df89f3103eb022381fb0323e8
:102684009b1007ee103ab8eec77abdeec77a17ee84
:10269400103a934a92fbf3f303eb8303a34007ee50
:1026a400103ab8eec77a8f4b83ed007ab2ee047a13
:1026b40067ee877a93ed007af4eec77af1ee10faba
:1026c40048bfc3ed007a884b609300248df88a419b
:1026d4002346642260a98548006829f0c1f9642072
:1026e4002df04afc824b5d937e4ad2ed007afceedb
:1026f400e77a17ee903a8df87831d2ed007afcee55
:10270400e77a17ee903ac3f307238df87931e02383
:102714008df87a312e238df87b3110238df87c319e
:1027240027238df87d3114258df87e518df87f4156
:10273400234664225da96f48006829f091f94ff49b
:10274400fa702df019fc8df878518df87941c82371
:102754008df87a318df87b418df87c518df87d416f
:1027640064258df87e518df87f41634b5d9323463c
:102774002a465da95f48006829f072f94ff4fa709f
:102784002df0fafb02238df851318df88a3103f1d3
:10279400af5303f54c23609323462a4660a953485c
:1027a400006829f05df94ff4fa702df0e5fb07207d
:1027b4002bf0d6fa224669a9504b186829f070fa12
:1027c4009df8a4315b3bdbb2092b2ed99df8a431d3
:1027d400fa2b02d0fc2b00d07bb9494b00221a7093
:1027e400484b40f235121a80474b01221a700820d8
:1027f4002df050ff08202bf0b3fa00240694adf816
:102804001c408df820400223224608a93f48006856
:1028140029f026f90223224606a93d48006829f03a
:102824001ff93c4b1c809c70e6e4354b13221a7054
:102834004ff47a702df0a0fb224b4ff40022c3f822
:102844001421c3e700226aa9334b186829f028fa37
:102854009df8a931312b1ed91a4bd3f8a03013f4ab
:10286400000f1dd101238df850318df888310c23d0
:102874008df851318df88a311b4b6093002364220b
:1028840060a91a48006829f0ebf864202df074fb65
:102894001b4b14221a704ff47a702df06dfbabe4cd
:1028a400174b00221a70174b40f235121a80164b40
:1028b40001221a7007202df0edfe08202bf050faab
:1028c400e9e700bf0080004100004843049801206c
:1028d400089801203c99012090980120676666665b
:1028e400c0d40100d497012002c0ec1570980120d7
:1028f40003c0ec155498012004c0ec15a0980120e5
:10290400c199012082960120f59901205897012050
:102914005c970120d09901207c980120002266a9af
:10292400854b186829f0bcf99df898319df89921d8
:1029340002eb0322814981fb0232921007ee902ab6
:10294400f8eee77a7e4bc3ed007a9df89a219df864
:102954009b3103eb022381fb03239b1007ee103a08
:10296400b8eec77a774b83ed007a4ff080434693f5
:10297400cded477a01238df820318df821310023e4
:10298400642246a97048006829f06af86f4b1868f9
:102994002af0f6f89df899318df884319df8983134
:1029a4008df885319df89b318df886319df89a31eb
:1029b4008df88731664b60930023642260a96548d3
:1029c400006829f04df80a202df0d6fa09202bf0e2
:1029d400c7f9002269a9604b186829f061f9002839
:1029e4003ff40aac9df8a431782b1ad09df8a43199
:1029f400fa2b04d0fc2b02d0002b7ff4fdab574bf9
:102a04001e221a70564b4ff49b721a80554b0122aa
:102a14001a7008202df03efe08202bf0a1f9fff7d4
:102a2400ebbb514b1d682ef061ff4ef66024009401
:102a340000230246012128462bf0c0ff4b4b1d68a2
:102a44002ef054ff009400230246012128462bf067
:102a5400b5ff474b1d682ef049ff00940023024642
:102a6400012128462bf0aaff424b1d682ef03effa1
:102a7400009400230246012128462bf09fff3e4b81
:102a84001d682ef033ff00940023024601212846de
:102a94002bf094ff394b1d682ef028ff009400237f
:102aa4000246012128462bf089ff2c4b16221a706e
:102ab400334b18782cf006fe64202df05dfa314c6f
:102ac40020782cf01bfe64202df056fa2e4d288819
:102ad4002cf030fe64202df04ffa2c4908782cf0ad
:102ae40061fe64202df048fa294800782cf03efe5f
:102af40064202df041fa274a10782cf06ffe6420f0
:102b04002df03afa244b1a68244b1a60298823784a
:102b14001b4a12781b0243ea0143134337931c48b0
:102b240001781a4b1b781b4a12781b0243ea0143b3
:102b3400134338935ae700bf989801206766666686
:102b4400a0990120009901200498012008980120ef
:102b540005c0ec1570980120a0980120c1990120ae
:102b640082960120f5990120a0970120e898012080
:102b74006c990120709901207499012078990120a1
:102b8400019a01201a9a01205a8d0120199a0120d4
:102b94000a9a0120269a0120c09701202c9801202e
:102ba400002205a9bf4b186829f07af828b1be4a5b
:102bb4009df8143011880b441380bc4b186829f01d
:102bc400dfff03202df0f8fcb74b18882cf0d2fc63
:102bd400b74b1b78072b00f0a981002266a9b54bdf
:102be400186829f05df8002800f0d5809df89a3126
:102bf4009df89b2102eb0322af4981fb023293082b
:102c040007ee103ab8ee477aac4b83ed007a9df8a4
:102c140098219df8993103eb022381fb03239b0840
:102c240007ee903af8ee677aa54bc3ed007a67eeab
:102c3400276aa44bc3ed006aa34b1b78002b40f01a
:102c44008880a24b1a68a24b1a6093ed006af4eed6
:102c5400c66af1ee10fa35d59e4b1b7833bbdfed17
:102c64009e6a77eea67acded477a994b93ed006a8a
:102c74009a4bd3ed006ac6ee267ab4eee77af1ee0b
:102c840010fac0f25881b5ee007a67ee877acded7e
:102c9400467a03238df8213101238df82031022354
:102ca400002246a98e48006828f0dafe894b1b787a
:102cb400dbb2012b00f04c81864b1b78dbb2012b7d
:102cc40000f08d81824bd3ed007a7e4b93ed007a38
:102cd400b4eee77af1ee10fa3bdd7e4b1b7863bb72
:102ce400774bd3ed007a9fed7c7a77ee877acded42
:102cf400477a774bd3ed006a784b93ed007ac6eeb2
:102d0400877a6e4b93ed007af4eec77af1ee10faff
:102d140000f2a481b5ee007a67ee877acded467aab
:102d240003238df8213101238df820310223002261
:102d340046a96b48006828f093fe664b1b78dbb20b
:102d4400012b00f09881634b1b78dbb2012b00f060
:102d5400d9815d4b1b78dbb2012b00f029826148dd
:102d640002789100604b0b445c4c24681c605f4b00
:102d740019449df89a419df89b3103eb04234e4c72
:102d840084fb03439b0807ee903af8ee677ac1eda3
:102d9400007a0132027064202df0eef89df899312a
:102da4008df884319df898318df885319df89b31eb
:102db4008df886319df89a318df887314c4b6093ac
:102dc4000023642260a94b48006828f049fe64206f
:102dd4002df0d2f8002263a9474b186828f060ff51
:102de400a0b1464a13789df88e014549c85406217e
:102df40088f80010013313702d4b1b78042b40f21c
:102e0400aa822b4b1b78052b00f0b082354b1b7824
:102e1400052b00f0b382394b1b78052b00f0068399
:102e2400384b1b78dbb2012b00f01e83354b1b782b
:102e3400dbb2012b00f027839df8a431292b03d0aa
:102e4400fa2b01d0fc2b12d12f4b1e221a7009230e
:102e540088f800302d4bca221a802d4b01221a709b
:102e64000a202df017fc2b4b1a682b4b1a609df887
:102e74008c31012b00f04283284b1b78012b7ff40b
:102e8400bba9264b9b78012b7ff4b6a91e4b1e22af
:102e94001a70092388f80030204b00221a809a7097
:102ea4003ee000bf8897012092930120749701208f
:102eb4000f9a0120989801206766666600990120a0
:102ec400a099012060990120ec990120649a0120c5
:102ed400f0970120e699012000000000689a012083
:102ee40004980120149a01209c94012074940120d8
:102ef40005c0ec1570980120949801200c9a0120cb
:102f04007c960120e1990120c1990120829601203b
:102f1400f5990120c097012034980120d09901200f
:102f2400984b1a68984b1a60fff766b9974b187854
:102f34002df028fa51e6b4eee77af1ee10fa7ff5b7
:102f4400a8aef5ee007a27ee277a8ded467aa0e654
:102f54008f4b1b78dbb2112b7ff6aeae8d4b4ff44b
:102f64000012c3f818218c4bd3ed007a9fed8b7ab5
:102f740077ee877acded477a894bd3ed007ab6eeba
:102f8400007a67ee877a874bd3ed006a87eea67adc
:102f9400854bd3ed007ab4eee77af1ee10fa12d84d
:102fa400f6ee007a27ee277a8ded467a01238df826
:102fb40021318df820310223002246a97b48006884
:102fc40028f04efd7ee6b4eee77af1ee10faeddd80
:102fd400b6ee007a67ee877acded467ae6e76c4b7b
:102fe4001b78dbb2112b3ff66dae6b4bd3ed007a41
:102ff4009fed6a7a77ee877acded477a684bd3ed09
:10300400006a684bd3ed007a86eea77a664bd3ed5f
:10301400007ab4eee77af1ee10fa13d8f5ee007afe
:1030240027ee277a8ded467a03238df8213101238b
:103034008df820310223002246a95c48006828f05c
:103044000ffd3fe6b4eee77af1ee10faecddb5eef3
:10305400007a67ee877acded467ae5e7f4eec77a33
:10306400f1ee10fa7ff75caef5ee007a27ee277ae0
:103074008ded467a54e6464b1b78dbb2112b7ff676
:1030840062ae444b4ff40012c3f81821424bd3ed07
:10309400007a9fed427a77ee877acded477a404bfe
:1030a400d3ed007ab6ee007a67ee877a3d4bd3ed26
:1030b400006a87eea67a3c4bd3ed007ab4eee77a49
:1030c400f1ee10fa12d8f6ee007a27ee277a8ded9b
:1030d400467a01238df821318df820310223002214
:1030e40046a93248006828f0bbfc32e6b4eee77a21
:1030f400f1ee10faedddb6ee007a67ee877acdedeb
:10310400467ae6e7224b1b78dbb2112b3ff621ae61
:10311400214bd3ed007a9fed217a77ee877acdedbe
:10312400477a1f4bd3ed006a1e4bd3ed007a86ee2f
:10313400a77a1d4bd3ed007ab4eee77af1ee10fadc
:1031440013d8f5ee007a27ee277a8ded467a03231d
:103154008df8213101238df820310223002246a964
:103164001248006828f07cfcf3e5b4eee77af1ee4f
:1031740010faecddb5ee007a67ee877acded467a8b
:10318400e5e700bfc097012034980120d3990120be
:10319400c599012000800041a09901200000000091
:1031a400f0970120689a01200099012004980120d9
:1031b400c04b1b785bbbc04bd3ed007a9fedbf7a4d
:1031c40077ee877acded477abd4bd3ed006abd4be0
:1031d40093ed007ac6ee877abb4b93ed007af4ee5a
:1031e400c77af1ee10fa50d8b5ee007a67ee877a16
:1031f400cded467a03238df8213101238df820315a
:103204000223002246a9b148006828f029fca94bf2
:103214001b78dbb2012b44d0a64b1b78dbb2012b0d
:103224007ff49dadaa4b1b78dbb2112b3ff697ad13
:10323400a14bd3ed007a9feda17a77ee877acded9d
:10324400477a9f4bd3ed006a9e4bd3ed007a86ee0e
:10325400a77a9d4bd3ed007ab4eee77af1ee10fa3b
:103264006dd8f5ee007a27ee277a8ded467a0323a2
:103274008df8213101238df820310223002246a943
:103284009248006828f0ecfb69e5f4eec77af1eea9
:1032940010faafddf5ee007a27ee277a8ded467a47
:1032a400a8e78b4b1b78dbb2112bb5d9894b4ff4b4
:1032b4000012c3f81821824b93ed007adfed867a71
:1032c400b4eee77af1ee10fac8bfc3ed007a7a4b98
:1032d400d3ed007a9fed797a77ee877acded477a50
:1032e400774bd3ed006a774bd3ed007a86eea77a5d
:1032f400754bd3ed007ab4eee77af1ee10fa12d8fa
:10330400f6ee007a27ee277a8ded467a01238df8c2
:1033140021318df820310223002246a96b48006830
:1033240028f09efb1be5b4eee77af1ee10faeddd32
:10333400b6ee007a67ee877acded467ae6e7b4ee2c
:10334400e77af1ee10fa92ddb5ee007a67ee877a4d
:10335400cded467a8be72df015f8604a13780133ea
:1033640013709df88e215e4b1a704ae59df88e31dc
:103374008af80030594b07221a7047e54ff0000cc9
:10338400584b83f800c0b9f80010bbf80000564b46
:10339400564a03f1140ecdf80cc01d461446029192
:1033a40001e0734525d0f3ec017a95ed007ab4ee93
:1033b400e77af1ee10fa09d8c5ed007afceee77a67
:1033c40017ee901a89b202914ff0010cf2ec017ad7
:1033d40094ed007ab4eee77af1ee10fae1d8c4ed98
:1033e400007afceee77a17ee901a88b20121039175
:1033f400d7e70299bcf1000f01d0a9f80010039b94
:103404000bb1abf80000384bd3ed007afceee77a51
:1034140017ee900a2cf0e6f8344bd3ed007afcee6c
:10342400e77a17ee900a2cf0c1f8f4e40024304b4c
:103434001c7096f800c02f4b5d1d18464ff0010e0e
:1034440001e09d4208d013f8012b01789142f8d88d
:10345400027094467446f4e70cb186f800c0254b1c
:1034640018782cf077ffdbe4124b1b78002b7ff4e9
:10347400ddac00228df82420022309a91e4800682f
:1034840028f0eefad2e40b4b1b78dbb2012b7ff46d
:10349400d3ac0f4b1b78dbb2132b7ff6cdac0022e1
:1034a4008df82420022309a91348006828f0d8facb
:1034b400c2e400bfe6990120a099012000000000a9
:1034c400f4970120689a01200099012004980120b2
:1034d400c59901200080004100606a470f9a0120cd
:1034e400d3990120149a0120749401209c94012002
:1034f4000c9a01207c96012068970120ad4b1e2276
:103504001a70092088f80000ab4bc9221a80ab4b13
:1035140001221a702df0bef8a94b1a68a94b1a6043
:10352400aae4a94b1b78dbb2012b00f00181a64b66
:103534001b78dbb2012b00f011814ff003038df8ef
:103544004f318df88531a14b6093a14d0023642246
:1035540060a9286828f084fa32202cf00dfd00249c
:103564008df884418df885419a4a609223466422fd
:1035740060a9286828f074fa32202cf0fdfc9649e2
:103584004ff40020c1f818018d4b1b688d4803606f
:103594008d4b1c708df8204101238df821310223bd
:1035a400224646a98d48006828f05afa40f6b830f9
:1035b4002cf0e2fc4ff0030c8df885c1834b609333
:1035c400234664220df5c07c6146286828f048fa39
:1035d40032202cf0d1fc8df884418df885417d4a50
:1035e4006092234664220df5c07c6146286828f069
:1035f40037fa32202cf0c0fc77494ff40023c1f88d
:1036040018310a2300932346224603217448006894
:103614002bf0d4f9734b18782cf0fcf8724b187813
:103624002cf014f9714b18882cf02cf9704b187885
:103634002cf060f96f4b18782cf040f96e4b187829
:103644002cf074f96d4b18682cf0a8f95d48d0ed96
:10365400007afceee77a6a4b93ed007abceec77a07
:1036640017ee100a17ee903a181a664b18602cf0f1
:1036740079f9654b1b78dbb2012b00f08580624b36
:103684001b78dbb2022b00f083805f4b1b78dbb22c
:10369400032b00f081805d4b0c221a7005202cf066
:1036a4008bff564b1b683693504b19884e4b1b7837
:1036b4004c4a12781b0243ea0143134339934d4b9e
:1036c40019784b4b1b784c4a12781b0243ea01438e
:1036d40013433a934e4b1a78337843ea02433b93ad
:1036e400484b1b6843f480333c93474b1a78494c4e
:1036f400238843ea02433d9302238df8d03000230c
:10370400642234a94448006828f0aaf9434b186895
:1037140029f036fa01233b6000222280404a1370cc
:10372400404a1370404a1370404a1370fef764bd58
:103734003f4b1b78002b7ff4faae00228df820213a
:1037440003238df82131022346a92448006828f078
:1037540087f940f6b8302cf00ffce8e6344b1b78c0
:10376400dbb2012b7ff4e9ae00228df820218df825
:103774002131022346a91948006828f071f940f65e
:10378400b8302cf0f9fbd8e601202cf083ff76e763
:1037940002202cf07fff78e703202cf07bff7ae7f0
:1037a4009df8a431fa2b7ef4fead224a1268fef78e
:1037b40001be00bfc199012082960120f599012024
:1037c400c097012034980120e199012002c0ec1532
:1037d4007098012005c0ec15008000410498012078
:1037e400a0970120019a01201a9a01205a8d0120e4
:1037f400199a01200a9a0120269a0120fc96012098
:103804002c98012024970120f4990120779a012013
:10381400d39901209293012080970120849701205d
:10382400d5990120e0990120df990120de9901203a
:08383400e699012034990120fe
:020000040000fa
:10383c00949301201c00000000000000449501201e
:10384c000800000000000000b09301201c000000e4
:10385c0000000000c49401201000000000000000d3
:10386c004c9501201800000000000000cc930120b2
:10387c001c00000000000000d49401201000000087
:10388c000000000064950120100000000000000002
:10389c00f08b0120c000000000000000ca9901203c
:1038ac000200000000000000d09201202c0000005b
:1038bc0000000000e0910120f0000000000000007a
:1038cc004c9a01200400000001000000aaaaaaaa38
:1038dc008c960120040000000000000090010020e4
:1038ec00608a01000000000090960120100000008a
:1038fc00000000007495012008000000000000008a
:10390c00a09601200800000000000000e8930120b0
:10391c002800000000000000a896012018000000fc
:10392c0000000000e08f0120640000000000000097
:10393c00c09601201400000000000000109401202b
:10394c002800000000000000d496012010000000a8
:10395c00000000003894012014000000000000005a
:10396c00e496012004000000000000004c940120ab
:10397c002800000000000000e8960120080000006c
:10398c0000000000509a012004000000010000001b
:10399c000400000000000020900100000000000066
:1039ac00f096012014000000000000009790012008
:1039bc000100000000000000bf9901200100000080
:1039cc00000000000497012004000000000000002b
:1039dc00cf99012001000000000000000897012091
:1039ec00040000000000000081960120010000008e
:1039fc00000000000c9701200c00000000000000eb
:103a0c00899601200100000000000000b9990120f6
:103a1c000100000000000000c1990120010000001d
:103a2c0000000000c599012001000000000000000a
:103a3c00189701201400000000000000d699012006
:103a4c00020000000000000074940120140000002b
:103a5c0000000000d89901200200000000000000c6
:103a6c00889401201400000000000000da99012065
:103a7c0002000000000000009c94012014000000d3
:103a8c0000000000dc990120020000000000000092
:103a9c00b094012014000000000000002c970120bd
:103aac0004000000000000002c91012040000000e8
:103abc0000000000fc9201205000000000000000fb
:103acc00088e0120a40000000000000030970120a7
:103adc000800000000000000d49901200100000043
:103aec0000000000389701203c000000000000009e
:103afc00068e01200200000000000000aa910120a7
:103b0c000200000000000000de9101200200000015
:103b1c000000000074970120040000000000000069
:103b2c00d39901200100000000000000c999012078
:103b3c000100000000000000789701201000000038
:103b4c0000000000d59901200100000000000000d9
:103b5c00de99012003000000000000009293012078
:103b6c000200000000000000889701200400000003
:103b7c0000000000e199012001000000000000009d
:103b8c008c9701200800000000000000e299012041
:103b9c00040000000000000042950120020000001b
:103bac0000000000949701200400000000000000b9
:103bbc00e699012001000000000000009897012008
:103bcc000800000000000000e7990120010000003f
:103bdc0000000000e8990120010000000000000036
:103bec00a09701203000000000000000e99901209e
:103bfc000300000000000000d09701200c00000022
:103c0c000000000044900120530000000000000060
:103c1c00dc9701203800000000000000ac9101206e
:103c2c003200000000000000149801201400000075
:103c3c0000000000ec9901200200000000000000d0
:103c4c00289801200400000000000000ee990120db
:103c5c0003000000000000007c960120050000001d
:103c6c0000000000f199012001000000000000009c
:103c7c008496012005000000000000002c98012013
:103c8c000800000000000000f29901200200000072
:103c9c0000000000d099012003000000000000008b
:103cac00cc99012003000000000000003498012092
:103cbc000800000000000000f49901200100000041
:103ccc0000000000389501200a00000000000000f0
:103cdc00829601200200000000000000f5990120ee
:103cec0001000000000000003c98012004000000ce
:103cfc0000000000f6990120010000000000000007
:103d0c008a9601200200000000000000ba990120f0
:103d1c000200000000000000c29901200200000017
:103d2c00000000007c9501206800000000000000ed
:103d3c00409801202000000000000000e4950120c4
:103d4c006800000000000000609801208000000066
:103d5c00000000004c960120300000000000000024
:103d6c00f79901200100000000000000e0980120fc
:103d7c000400000000000000f8990120020000007f
:103d8c0000000000e4980120040000000000000086
:103d9c00fa9901200100000000000000e8980120c1
:103dac0004000000000000006c9101203e000000a7
:103dbc0000000000c6990120020000000000000075
:103dcc00fb9901200100000000000000ec9801208c
:103ddc000400000000000000fc990120030000001a
:103dec0000000000f0980120080000000000000016
:103dfc00ff9901200200000000000000f89801204b
:103e0c001000000000000000019a012002000000d8
:103e1c0000000000089901200400000000000000d0
:103e2c00039a012001000000000000000c99012001
:103e3c000800000000000000b08c0120aa00000067
:103e4c000000000014990120040000000000000094
:103e5c00049a01200300000000000000c899012012
:103e6c000100000000000000079a01200100000082
:103e7c000000000018990120040000000000000060
:103e8c00e890012044000000000000001c99012073
:103e9c000c00000000000000089a01200200000045
:103eac0000000000c4990120010000000000000087
:103ebc00c099012001000000000000002899012099
:103ecc0008000000000000000a9a01200500000014
:103edc0000000000309901200400000000000000e8
:103eec000f9a012005000000000000003499012009
:103efc001000000000000000149a012002000000d5
:103f0c0000000000449901200400000000000000a3
:103f1c00169a0120030000000000000048990120bf
:103f2c0008000000000000005c8d0120aa000000c9
:103f3c000000000050990120040000000000000067
:103f4c00199a012001000000000000005499012082
:103f5c0004000000000000001a9a0120010000007b
:103f6c0000000000bc9901200300000000000000cc
:103f7c001b9a012004000000000000005899012049
:103f8c0004000000000000001f9a01200200000045
:103f9c00000000005c9901200c00000000000000f3
:103fac00219a012001000000000000006899012006
:103fbc000400000000000000229a01200100000013
:103fcc00000000006c9901200400000000000000bb
:103fdc00239a0120010000000000000070990120cc
:103fec000400000000000000249a012001000000e1
:103ffc000000000074990120040000000000000083
:10400c00259a012001000000000000007899012091
:10401c000400000000000000b8990120010000001d
:10402c00000000007c9901200c0000000000000042
:10403c00889901200c00000000000000ac8e0120cb
:10404c00a000000000000000e4940120100000001b
:10405c0000000000269a0120010000000000000072
:10406c001495012024000000000000009499012008
:10407c000400000000000000279a0120020000004c
:10408c0000000000989901200400000000000000ce
:10409c00f494012010000000000000004c8f01205f
:1040ac0094000000000000009c9901200c0000000e
:1040bc00000000005a8d01200200000000000000ea
:1040cc004a9a0120020000000100000004010000d7
:1040dc002a9a01202000000001000000b4005aa51b
:1040ec001b82524068747470733a2f2f7777772e37
:1040fc007374617469712e696e2fffff299a012008
:10410c0001000000010000000c000000769a012064
:10411c0005000000010000000c030f50140000000b
:10412c00549a012004000000010000000000803fb0
:10413c007b9a012002000000010000000101000038
:10414c00589a01200400000001000000cdcccc3fa7
:10415c005c9a01200c0000000100000000000040ef
:10416c00000000400060ea47749a01200200000041
:10417c0001000000af4a0000689a0120080000000e
:10418c00010000000000484300004843709a0120e1
:10419c00040000000100000000004843a899012021
:1041ac000400000000000000049501201000000035
:1041bc00000000004c9301204600000000000000ad
:1041cc00ac99012004000000000000009890012030
:1041dc005000000000000000b09901200800000011
:1041ec00000000000000000000000000666666662b
:1041fc006666666666666666666666666666666653
:08420c0066666666666666667a
:020000040000fa
:104f7c002de9f04f87b09a4c00230193994f9a4b2f
:104f8c0003f13c050123009300f0fabf974b1a681c
:104f9c0095490a601b68cbb1954b1b785bb12268b5
:104fac00924b53f82230002b40f0a380904b4ff0e3
:104fbc0000021a709de08e4b4ff001021a708b4b61
:104fcc001b6833804ff47a602af0d2ff2268874b3b
:104fdc0053f82230002b40f08c80854b1b78002b33
:104fec0000f08780e2e7814b5a687f494a605b6832
:104ffc00c3b17f4b5b7853b122687c4b53f82230a2
:10500c00002b76d17a4b4ff000025a7071e0784b3e
:10501c004ff001025a70754b5b6833804ff47a6025
:10502c002af0a6ff2268714b53f82230002b60d176
:10503c006f4b5b78002b5cd0e4e76c4b9a686a4949
:10504c008a609b68c3b16a4b9b7853b12268674beb
:10505c0053f82230002b4cd1654b4ff000029a7064
:10506c0047e0634b4ff001029a70604b9b683380b2
:10507c004ff47a602af07cff22685c4b53f82230a4
:10508c00002b36d15a4b9b78002b32d0e4e7574b90
:10509c00da685549ca60db68bbb1554bdb784bb15c
:1050ac002268524b53f822301bbb514b4ff000027d
:1050bc00da701ee04e4b4ff00102da704b4bdb689e
:1050cc0033804ff47a602af053ff2268474b53f831
:1050dc00223073b9464bdb785bb1e6e7434bd3f830
:1050ec008430012b66d0414bd3f88430022b00f076
:1050fc00a0803388adf80c30b8f80030adf80e3025
:10510c00b9f80030adf81030baf80030adf8123004
:10511c003b88adf81430bbf80030adf816300223e4
:10512c00002203a93348006826f096fc236801335b
:10513c0023601f2b00f355861b2bdad801a252f8e3
:10514c0023f000bf994f0000f34f000047500000c0
:10515c009b500000e9500000ff500000a9520000d5
:10516c00035300005d530000b753000011540000be
:10517c007d540000d754000033550000ff50000050
:10518c008d5500006f560000655700004758000011
:10519c0015590000f7590000c75a0000975b000032
:1051ac00ff500000f55b0000db5c0000375d000089
:1051bc00935d00000d4b19690f4a11601b6953b3c5
:1051cc000b4b93f82c30cbb12268084b53f82230a0
:1051dc00002b88d1064b4ff0000283f82c2082e77d
:1051ec0030990120ba9901202c910120088e0120c0
:1051fc006c91012048970120fc920120984b4ff0b4
:10520c00010283f82c20974b1b69a8f800304ff44f
:10521c007a602af0adfe2268924b53f82230002bb4
:10522c007ff461af8e4b93f82c30002b3ff45bafc7
:10523c00d0e723688b4a52f823008b49086052f858
:10524c002320eab1864a92f82d205ab1854a52f8a9
:10525c002330002b7ff44daf814b4ff0000283f8cd
:10526c002d2046e77e4a4ff0010182f82d107d4a31
:10527c0052f82330a9f800304ff47a602af078fe07
:10528c002268784b53f82230002b7ff432af744bea
:10529c0093f82d30002b3ff42cafdde7714b9a695e
:1052ac0072490a619b69cbb16d4b9b795bb12268ea
:1052bc006c4b53f82230002b7ff41baf684b4ff034
:1052cc0000029a7115e7664b4ff001029a71654b1b
:1052dc009b6933804ff47a602af04afe2268614b56
:1052ec0053f82230002b7ff404af5d4b9b79002bdd
:1052fc003ff4ffaee2e75b4bda695c494a61db697c
:10530c00cbb1574bdb795bb12268564b53f822304b
:10531c00002b7ff4eeae524b4ff00002da71e8e650
:10532c004f4b4ff00102da714e4bdb6933804ff477
:10533c007a602af01dfe22684a4b53f82230002b6b
:10534c007ff4d7ae464bdb79002b3ff4d2aee2e7cd
:10535c00444b1a6a45498a611b6acbb1404b1b7a94
:10536c005bb122683f4b53f82230002b7ff4c1ae67
:10537c003b4b4ff000021a72bbe6394b4ff0010267
:10538c001a72384b1b6a33804ff47a602af0f0fda6
:10539c002268344b53f82230002b7ff4aaae304bea
:1053ac001b7a002b3ff4a5aee2e72e4b5a6a2f492d
:1053bc00ca615b6acbb12a4b5b7a5bb12268294b21
:1053cc0053f82230002b7ff494ae254b4ff00002a3
:1053dc005a728ee6234b5b6a3380214b4ff00102ed
:1053ec005a724ff47a602af0c3fd22681d4b53f8b1
:1053fc002230002b7ff47dae194b5b7a002b3ff4ef
:10540c0078aee2e7174b9a6a18490a629b6acbb1ed
:10541c00134b9b7a5bb12268124b53f82230002b52
:10542c007ff467ae0e4b4ff000029a7261e60c4ba4
:10543c004ff001029a720b4b9b6a33804ff47a60e7
:10544c002af096fd2268074b53f82230002b7ff48c
:10545c0050ae034b9b7a002b3ff44baee2e700bf00
:10546c006c910120088e0120249301202c910120a5
:10547c009a4bda6a9a494a62db6acbb1994bdb7a6e
:10548c005bb12268954b53f82230002b7ff431ae80
:10549c00944b4ff00002da722be6924b4ff0010264
:1054ac00da728e4bdb6a33804ff47a602af060fd3f
:1054bc0022688a4b53f82230002b7ff41aae894baa
:1054cc00db7a002b3ff415aee2e7844b1a6b844970
:1054dc008a621b6bd3b1834b1b7b5bb122687f4b06
:1054ec0053f82230002b7ff404ae7e4b4ff00002b9
:1054fc001a73fee57b4b4ff001021a73774b1b6b53
:10550c00aaf800304ff47a602af032fd2268734b0f
:10551c0053f82230002b7ff4ecad724b1b7b002b2d
:10552c003ff4e7ade1e76d4b5a6b6d49ca625b6bbb
:10553c00cbb16c4b5b7b5bb12268684b53f8223070
:10554c00002b7ff4d6ad674b4ff000025a73d0e5b9
:10555c00644b4ff001025a73604b5b6b33804ff41a
:10556c007a602af005fd22685c4b53f82230002b40
:10557c007ff4bfad5b4b5b7b002b3ff4baade2e736
:10558c00564bd3f88830012b20d0544bd3f88830ad
:10559c00022b7ff4aead2368504a52f823005249d7
:1055ac00886052f82320002a4dd04e4a92f82f20c2
:1055bc00002a3ad0494a52f82330002b7ff499ad97
:1055cc00484b4ff0000283f82f2092e5434bd96be8
:1055dc00464a9160db6be3b1424b93f82e305bb1e2
:1055ec0022683e4b53f82230002bced13d4b4ff06e
:1055fc00000283f82e20c8e73a4b4ff0010283f8e3
:10560c002e20364bdb6ba8f800304ff47a602af072
:10561c00affc2268314b53f82230002bb5d1314b03
:10562c0093f82e30002bb0d0e0e72e4a4ff001015a
:10563c0082f82f10294a52f82330a9f800304ff481
:10564c007a602af095fc2268244b53f82230002b08
:10565c007ff44fad234b93f82f30002b3ff449ad23
:10566c00aee71e4bd3f8a430012b20d01b4bd3f844
:10567c00a430022b7ff43dad2368184a52f8230066
:10568c001949c86052f82320002a57d0154a92f8bd
:10569c003120002a44d0114a52f82330002b7ff4d9
:1056ac0028ad104b4ff0000283f8312021e50b4b55
:1056bc00196c0e4ad1601b6c33b30a4b93f8303023
:1056cc00b3b12268054b53f82230002bced1054bd9
:1056dc004ff0000283f83020c8e700bf088e01208d
:1056ec002c9101206c91012024930120fc9201202b
:1056fc00a44b4ff0010283f83020a34b1b6c3b8072
:10570c004ff47a602af034fc22689f4b53f8223015
:10571c00002babd19b4b93f83030002ba6d0d6e7a7
:10572c00984a4ff0010182f83110974a52f8233011
:10573c00abf800304ff47a602af01afc2268924bd6
:10574c0053f82230002b7ff4d4ac8e4b93f83130cd
:10575c00002b3ff4ceaca4e78b4bd3f89c30012b41
:10576c0020d0894bd3f89c30022b7ff4c2ac236839
:10577c00854a52f823008549086152f82320002af3
:10578c004dd0804a92f83320002a3ad07e4a52f803
:10579c002330002b7ff4adac7a4b4ff0000283f832
:1057ac003320a6e4784b596c794a11615b6ce3b1f8
:1057bc00744b93f832305bb12268734b53f8223040
:1057cc00002bced16f4b4ff0000283f83220c8e78c
:1057dc006c4b4ff0010283f832206b4b5b6ca8f8da
:1057ec0000304ff47a602af0c3fb2268664b53f802
:1057fc002230002bb5d1634b93f83230002bb0d054
:10580c00e0e7604a4ff0010182f833105e4a52f82b
:10581c002330a9f800304ff47a602af0a9fb2268f3
:10582c00594b53f82230002b7ff463ac554b93f853
:10583c003330002b3ff45dacaee7534bd3f89c30c8
:10584c00012b20d0504bd3f89c30022b7ff451ac61
:10585c0023684d4a52f823004c49486152f82320e2
:10586c00002a43d0474a92f83520002a35d0464ac0
:10587c0052f82330002b7ff43cac424b4ff000022b
:10588c0083f8352035e4404b996c414a51619b6c4f
:10589c00bbb13c4b93f834305bb122683a4b53f8b4
:1058ac002230002bced1374b4ff0000283f834203e
:1058bc00c8e7354b9b6ca8f800304ff47a602af09f
:1058cc0057fb2268304b53f82230002bbad12d4baa
:1058dc0093f83430002bb5d0e5e72b4a52f823303f
:1058ec00a9f800304ff47a602af042fb2268264b6c
:1058fc0053f82230002b7ff4fcab224b93f835305d
:10590c00002b3ff4f6abb8e71f4bd3f89030012bcc
:10591c0021d01d4bd3f89030022b7ff4eaab2368d7
:10592c00194a52f823001949886152f82320002a99
:10593c004dd0144a92f83720002a3fd0124a52f820
:10594c002330002b7ff4d5ab0e4b4ff0000283f8c5
:10595c003720fff7cebb0c4bd96c0d4a9161db6c39
:10596c0003b3084b93f83630a3b12268064b53f8b7
:10597c002230002bcdd1034b4ff0000283f83620a0
:10598c00c7e700bf6c910120088e012024930120f1
:10599c00fc920120a84bdb6ca8f800304ff47a6025
:1059ac002af0e6fa2268a44b53f82230002bb0d12f
:1059bc00a24b93f83630002babd0dce79e4a52f862
:1059cc002330a9f800304ff47a602af0d1fa22681b
:1059dc00994b53f82230002b7ff48bab974b93f8f9
:1059ec003730002b3ff485abaee7934bd3f89430b4
:1059fc00012b21d0904bd3f89430022b7ff479ab50
:105a0c0023688d4a52f823008d49c86152f823202f
:105a1c00002a44d0894a92f83920002a36d0864a86
:105a2c0052f82330002b7ff464ab844b4ff0000210
:105a3c0083f83920fff75dbb7f4b196d814ad1612b
:105a4c001b6dbbb17d4b93f838305bb122687a4b40
:105a5c0053f82230002bcdd1784b4ff0000283f855
:105a6c003820c7e7744b1b6da8f800304ff47a60f0
:105a7c002af07efa2268704b53f82230002bb9d1f1
:105a8c006e4b93f83830002bb4d0e5e76a4a52f8e5
:105a9c002330a9f800304ff47a602af069fa2268b2
:105aac00654b53f82230002b7ff423ab634b93f8f8
:105abc003930002b3ff41dabb7e75f4bd3f8983070
:105acc00012b21d05c4bd3f89830022b7ff411ab17
:105adc002368594a52f823005949086252f8232086
:105aec00002a44d0554a92f83b20002a36d0524a1c
:105afc0052f82330002b7ff4fcaa504b4ff00002dd
:105b0c0083f83b20fff7f5ba4b4b596d4d4a1162a8
:105b1c005b6dbbb1494b93f83a305bb12268464b95
:105b2c0053f82230002bcdd1444b4ff0000283f8b8
:105b3c003a20c7e7404b5b6da8f800304ff47a6011
:105b4c002af016fa22683c4b53f82230002bb9d1bc
:105b5c003a4b93f83a30002bb4d0e5e7364a52f87a
:105b6c002330a9f800304ff47a602af001fa226849
:105b7c00314b53f82230002b7ff4bbaa2f4b93f8f8
:105b8c003b30002b3ff4b5aab7e72b4b9a6d2e494f
:105b9c000a639b6ddbb1294b9b7d63b12268264b5d
:105bac0053f82230002b7ff4a4aa244b4ff00002b0
:105bbc009a75fff79eba214b4ff001029a751e4b56
:105bcc009b6daaf800304ff47a602af0d1f9226864
:105bdc00194b53f82230002b7ff48baa174b9b7d6b
:105bec00002b3ff486aae0e7134bd3f88c30012b43
:105bfc002cd0114bd3f88c30022b7ff47aaa23686b
:105c0c000d4a52f823000e49486252f82320002a0c
:105c1c004fd00a4a92f83d20002a41d0064a52f849
:105c2c002330002b7ff465aa044b4ff0000283f85d
:105c3c003d20fff75eba00bf088e01206c91012059
:105c4c0024930120fc9201202c910120934b196e7e
:105c5c00934a51621b6ebbb1924b93f83c305bb1d3
:105c6c0022688e4b53f82230002bc2d18d4b4ff053
:105c7c00000283f83c20bce7884b1b6ea8f8003070
:105c8c004ff47a602af074f92268844b53f822306e
:105c9c00002baed1834b93f83c30002ba9d0e5e719
:105cac007e4a52f82330a9f800304ff47a602af07b
:105cbc005ff92268794b53f82230002b7ff419aa34
:105ccc00784b93f83d30002b3ff413aaace7734ba1
:105cdc005a6e75494a635b6ed3b1724b5b7e63b18e
:105cec0022686e4b53f82230002b7ff402aa6d4bc6
:105cfc004ff000025a76fff7fcb96a4b4ff00102e5
:105d0c005a76664b5b6e33804ff47a602af030f92a
:105d1c002268624b53f82230002b7ff4eaa9614bc6
:105d2c005b7e002b3ff4e5a9e1e75c4b9a6e5e4984
:105d3c008a639b6ed3b15b4b9b7e63b12268574bde
:105d4c0053f82230002b7ff4d4a9564b4ff00002ad
:105d5c009a76fff7ceb9534b4ff001029a764f4b20
:105d6c009b6e33804ff47a602af002f922684b4b19
:105d7c0053f82230002b7ff4bca94a4b9b7e002b9e
:105d8c003ff4b7a9e1e7454bda6e47498a63db6e0e
:105d9c00d3b1444bdb7e63b12268404b53f82230c5
:105dac00002b7ff4a6a93f4b4ff00002da76fff7e9
:105dbc00a0b93c4b4ff00102da76384bdb6e3380e6
:105dcc004ff47a602af0d4f82268344b53f822301e
:105ddc00002b7ff48ea9334bdb7e002b3ff489a97b
:105dec00e1e7324b1a78304b043b002001e0ab4228
:105dfc0007d053f8041f0029f9d00132d2b2009811
:105e0c00f5e708b1294b1a70284b1b7853b1274b77
:105e1c004ff000021a70264b1a78214b03f1280020
:105e2c00002622e0234b4ff000021a80224b1a80ee
:105e3c00adf80c20214b1b88adf80e30204b1b8885
:105e4c00adf81030adf812203b88adf814301d4b76
:105e5c001b88adf816300223019a03a91a48006872
:105e6c0025f0fafdd7e7984207d053f8041b002918
:105e7c00f9d00132d2b2009ef5e70eb10c4b1a707c
:105e8c000b4b1b7833b30a4b4ff000021a700f4bbd
:105e9c001a780f4b03f1280000263ee0088e0120f3
:105eac00fc9201206c9101202c910120049a01207c
:105ebc00059a0120068e01208a960120aa910120c4
:105ecc00de910120c299012048970120069a0120f9
:105edc0024930120334b4ff000021a803a80324b4e
:105eec001b88adf80c30adf80e20304b1b88adf88c
:105efc0010302f4b1b88adf81230adf814202d4b01
:105f0c001b88adf816300223019a03a92a480068b1
:105f1c0025f0a2fdbbe7834207d053f8041b0029f0
:105f2c00f9d00132d2b2009ef5e70eb1234b1a70b4
:105f3c00224b1b78002b30d11c4b4ff000021a80e7
:105f4c001c4b1a80184b1b88adf80c30154b1b885a
:105f5c00adf80e30adf81020154b1b88adf8123093
:105f6c003b88adf81430adf816200223019a03a932
:105f7c001148006825f070fd4ff47a7029f0f8ff95
:105f8c00019b2360084edff82490dff81880dff8bf
:105f9c0020a0dff820b0fff7cfb8084b4ff000027d
:105fac001a70e9e7aa910120068e0120de910120ea
:105fbc008a960120c299012048970120069a012057
:020000040000fa
:105fcc0038b50446d4485a230370a52343700723dd
:105fdc0083708223c3701423037102234371d4f89a
:105fec0000311a0e82711a0cc2711a0a02724372b3
:105ffc00ca4b4ff400229a610a2127f0e7fb2bf0e1
:10600c00d1fb0028fbd0c54b4ff400225a61c2488b
:10601c005a210170a5214170052181708221c17026
:10602c00142101710621417100218171b4f81e11f6
:10603c00c1719a61082127f0c9fb2bf0b3fb002832
:10604c00fbd0b64b4ff400225a61b3485a21017071
:10605c00a5214170052181708221c170142101712b
:10606c000821417100258571d4f80451c5719a61dc
:10607c0027f0acfb2bf096fb0028fbd0a74a4ff483
:10608c0000215161a4485a230370a52343700523b2
:10609c0083708223c370142303710a23437100237a
:1060ac008371d4f804311b0ac3719161082127f064
:1060bc008dfb2bf077fb0028fbd0984b4ff4002284
:1060cc005a6195485a210170a521417005218170b2
:1060dc008221c170142101710c2141710021817147
:1060ec00b4f80611c1719a61082127f06ffb2bf0ef
:1060fc0059fb0028fbd0894b4ff400225a6186488b
:10610c005a210170a5214170052181708221c17035
:10611c00142101710e21417100218171b4f80e110d
:10612c00c1719a61082127f051fb2bf03bfb002831
:10613c00fbd07a4a4ff40021516177485a230370ff
:10614c00a5234370052383708223c370142303712a
:10615c001023437100238371d4f80c311b0ac371d3
:10616c009161082127f032fb2bf01cfb0028fbd09f
:10617c006a4b4ff400225a6167485a210170a521dd
:10618c004170052181708221c1701421017112218d
:10619c00417100218171d4f80c11c1719a610821ef
:1061ac0027f014fb2bf0fefa0028fbd05b4a4ff4cf
:1061bc000021516158485a230370a52343700723cb
:1061cc0083708223c3701423037116234371d4f894
:1061dc0020311d0e85711d0cc5711d0a057243728f
:1061ec0091610a2127f0f2fa2bf0dcfa0028fbd09f
:1061fc004a4b4ff400225a6147485a210170a5219d
:10620c004170052181708221c170142101711a2104
:10621c00417100218171b4f83e11c1719a6108215c
:10622c0027f0d4fa2bf0befa0028fbd03b4b4ff4ee
:10623c0000225a6138485a210170a521417005216c
:10624c0081708221c170142101711c2141710021c6
:10625c008171d4f82411c1719a61082127f0b6fa22
:10626c002bf0a0fa0028fbd02c4a4ff400215161ee
:10627c0029485a230370a523437005238370822376
:10628c00c370142303711e23437100238371d4f84c
:10629c0024311b0ac3719161082127f097fa2bf066
:1062ac0081fa0028fbd01d4b4ff400225a611a488a
:1062bc005a210170a5214170052181708221c17084
:1062cc00142101712021417100218171b4f8261132
:1062dc00c1719a61082127f079fa2bf063fa002832
:1062ec00fbd00e4b4ff400225a610b485a2101701f
:1062fc00a5214170052181708221c1701421017189
:10630c002221417100218171b4f82e11c1719a6161
:10631c00082127f05bfa03e0749301200080004110
:10632c002bf040fa0028fbd0d54a4ff400215161e4
:10633c00d4485a230370a52343700523837082230a
:10634c00c370142303712423437100238371d4f885
:10635c002c311b0ac3719161082127f037fa2bf0fd
:10636c0021fa0028fbd0c64b4ff400225a61c548d5
:10637c005a210170a5214170052181708221c170c3
:10638c00142101712621417100218171d4f82c1145
:10639c00c1719a61082127f019fa2bf003fa002831
:1063ac00fbd0b74a4ff400215161b6485a23037011
:1063bc00a5234370072383708223c37014230371b6
:1063cc002a234371d4f840311d0e85711d0cc57103
:1063dc001d0a0572437291610a2127f0f7f92bf01f
:1063ec00e1f90028fbd0a64b4ff400225a61a548d6
:1063fc005a210170a5214170052181708221c17043
:10640c00142101712e21417100218171b4f85e11aa
:10641c00c1719a61082127f0d9f92bf0c3f9002832
:10642c00fbd0974b4ff400225a6196485a210170c9
:10643c00a5214170052181708221c1701421017147
:10644c003021417100218171d4f84411c1719a61dc
:10645c00082127f0bbf92bf0a5f90028fbd0884abe
:10646c004ff40021516187485a230370a5234370d0
:10647c00052383708223c370142303713223437169
:10648c0000238371d4f844311b0ac3719161082134
:10649c0027f09cf92bf086f90028fbd0784b4ff4b1
:1064ac0000225a6177485a210170a52141700521bb
:1064bc0081708221c170142101713421417100213c
:1064cc008171b4f84611c1719a61082127f07ef9e7
:1064dc002bf068f90028fbd0694b4ff400225a616d
:1064ec0068485a210170a5214170052181708221d3
:1064fc00c170142101713621417100218171b4f8f0
:10650c004e11c1719a61082127f060f92bf04af9fc
:10651c000028fbd05a4a4ff40021516159485a23a4
:10652c000370a5234370052383708223c370142347
:10653c0003713823437100238371d4f84c311b0a47
:10654c00c3719161082127f041f92bf02bf9002838
:10655c00fbd04b4b4ff400225a614a485a21017030
:10656c00a5214170052181708221c1701421017116
:10657c003a21417100218171d4f84c11c1719a6199
:10658c00082127f023f92bf00df90028fbd03c4a09
:10659c004ff4002151613b485a230370a5234370eb
:1065ac00072383708223c370142303714023437128
:1065bc00d4f860311d0e85711d0cc5711d0a057254
:1065cc00437291610a2127f001f92bf0ebf80028b6
:1065dc00fbd02b4b4ff400225a612a485a210170f0
:1065ec00a5214170052181708221c1701421017196
:1065fc004421417100218171b4f87e11c1719a61fd
:10660c00082127f0e3f82bf0cdf80028fbd01c4b29
:10661c004ff400225a611b485a210170a521417088
:10662c00052181708221c1701421017146214171b3
:10663c0000218171d4f86411c1719a61082127f08d
:10664c00c5f82bf0aff80028fbd00d4a4ff4002111
:10665c0051610c485a230370a523437005238370a2
:10666c008223c37014230371482343710023837165
:10667c00d4f864311b0ac3719161082104e000bf96
:10668c00008000417493012027f0a0f82bf08af8c9
:10669c000028fbd0d54b4ff400225a61d4485a2124
:1066ac000170a5214170052181708221c1701421d6
:1066bc0001714a21417100218171b4f86611c171d7
:1066cc009a61082127f082f82bf06cf80028fbd097
:1066dc00c64b4ff400225a61c5485a210170a521be
:1066ec004170052181708221c170142101714c21ee
:1066fc00417100218171b4f86e11c1719a61082148
:10670c0027f064f82bf04ef80028fbd0b74a4ff472
:10671c0000215161b6485a230370a5234370052309
:10672c0083708223c370142303714e23437100239f
:10673c008371d4f86c311b0ac3719161082127f065
:10674c0045f82bf02ff80028fbd0a84b4ff4002273
:10675c005a61a7485a210170a52141700521817009
:10676c008221c1701421017150214171002181716c
:10677c00d4f86c11c1719a61082127f027f82bf01d
:10678c0011f80028fbd0994a4ff400215161984828
:10679c005a230370a5234370072383708223c3708d
:1067ac001423037156234371d4f880311d0e857167
:1067bc001d0cc5711d0a0572437291610a2127f0e7
:1067cc0005f82af0efff0028fbd0884b4ff400228d
:1067dc005a6187485a210170a52545700525857099
:1067ec008225c57014250571417100218171b4f8a1
:1067fc009e11c1719a61082126f0e8ff2af0d2ffa0
