:10000000F0FF0320B15402003B6F02009B7102001D
:100010009B9502002B9902000B9A02000000000041
:10002000000000000000000000000000F195020048
:10003000D78F020000000000C1600200D18E0200D4
:10004000439C0200439C0200439C0200439C02002C
:10005000439C0200439C0200439C0200439C02001C
:10006000439C0200439C0200439C0200439C02000C
:10007000439C02002D99020049990200439C020012
:10008000439C020065990200819902009D9902003B
:1000900091970200B1970200D19702009D9502004E
:1000A000C1950200439C0200439C0200439C020055
:1000B000439C0200439C0200439C0200439C0200BC
:1000C000439C0200439C0200439C0200439C0200AC
:1000D000439C0200439C0200439C0200439C02009C
:1000E000439C0200439C020000000000000000004E
:1000F00000000000439C0200439C0200439C02005D
:10010000439C0200439C0200439C0200439C02006B
:10011000439C0200439C02002D6B02002D6B0200E9
:100120002D6B02002D6B02002D2602002D260200F1
:100130002D2602002D2602003D6A02003D6A0200C3
:100140003D6A02003D6A02005D6802005D680200CF
:100150005D6802005D6802004D6902004D690200A1
:100160004D6902004D6902001D6C02001D6C020009
:100170001D6C02001D6C0200D54A0200894B020072
:10018000439C0200439C0200439C0200439C0200EB
:1001900000000000439C0200439C0200439C0200BC
:1001A000439C0200439C0200439C0200439C0200CB
:1001B000439C0200439C0200439C0200439C0200BB
:1001C000439C0200439C0200439C0200439C0200AB
:1001D000439C0200439C0200439C0200439C02009B
:1001E000439C0200439C0200439C0200439C02008B
:1001F000439C0200439C0200439C0200439C02007B
:10020000439C0200439C0200439C0200439C02006A
:10021000439C0200439C0200439C0200439C02005A
:10022000439C0200439C0200439C0200439C02004A
:10023000439C0200439C0200439C0200439C02003A
:10024000439C0200439C0200439C0200439C02002A
:10025000439C0200439C0200439C0200439C02001A
:10026000100D0200010000002DE9F04F0024F9B04C
:100270009222214653A80F94CDE911440B948DF896
:100280003040ADF82440CDE913440A94CDE9194437
:100290008DF86C40CDF83F40CDE91C44CDE91E44BB
:1002A000CDE92044CDE922442494CDE93244CDE97E
:1002B0003444CDE936443894CDE928442A94309426
:1002C000ADF8AC40CDE92C44CDE92E44CDF8C34087
:1002D00029F000FD1E22214639A8CDE91544DFF89A
:1002E00024A3B04DDFF820B3AF4FDFF82083AF4E2B
:1002F00029F0F0FC1DE2AE4B186824F0F5FCAD4B84
:100300003C801C70AC4BA8F80040002211A9186872
:10031000AAF8004023F0CEFDA84B00220BA91868D4
:1003200023F0C8FDA64B002209A9186823F0C2FDDE
:100330009DF84B90B9F1010F40F0C7819DF82E3028
:100340000393002B40F0C1819DF82D306D2B24D8F4
:10035000632B00F2BA819B4B9B481C934023642281
:100360001CA98DF87A300068002323F02BFE4FF48F
:100370007A7028F027FC9448924B1C936422002347
:100380001CA900688DF8E2408DF87A4023F01AFE2F
:10039000642028F017FC012396E18C4B039A1A6025
:1003A0008B4B89481A60874B1C9340231CA98DF8FE
:1003B0007A3000681346642223F004FE4FF47A700A
:1003C00028F000FC80487F49039B1C9164221CA9F3
:1003D00000688DF8E2408DF87A4023F0F3FD642048
:1003E00028F0F0FB0C238BF8003085F800909DF886
:1003F0002D30ADE77748784B1F93642200231FA967
:1004000000688DF8804023F0DDFD642028F0DAFBE1
:100410007248734B22934FF001090023642222A9F2
:100420000068ADF8A6908DF8A840ADF88C908DF8D6
:100430008E4023F0C7FD642028F0C4FB6248614B66
:100440001C93642200231CA900688DF8E0908DF8AD
:10045000759023F0B7FD642028F0B4FB584B0022C0
:10046000186809A923F026FD9DF824304B4540F07B
:100470002C814FF0020327E1524B53481C93402339
:1004800064221CA98DF87A300068002323F09AFDBD
:100490004FF47A7028F096FB4B484A4B1C93642229
:1004A00000231CA900688DF8E2408DF87A4023F003
:1004B00089FD642028F086FB404B00220BA91868B8
:1004C00023F0F8FC002800F000819DF82D30A3F106
:1004D00050021D2A21D96D2B0ED9424B1B7803F0F7
:1004E000FF09002B00F094803F4B01201C700C236F
:1004F0008BF8003025F078FE3C4B1B681E2B40F338
:10050000E4803A4B1C60374B1B7823B9384B4FF4CF
:100510008032C3F898202C70D7E0022025F064FECA
:10052000334B4FF48032C3F8942009232E4A8BF8C2
:10053000003001231370254B1B68012B0FD02D4B6E
:100540001B78022B19D0214B1B680BB903232B708E
:10055000264A1368013313609DF82D30BBE7264807
:100560008DF81C400223002207A9006823F02AFD11
:10057000224B186824F0B8FBE1E71E4A92F801907C
:10058000B9F1010FDFD11E488DF8184003222A70FF
:1005900006A90022006823F015FD0D4BC3F800905A
:1005A000D1E700BFAD990120C0990120D898012062
:1005B000B0970120F89901208C9801209098012093
:1005C000B498012002C4EC15549801201C99012014
:1005D000249901203898012001C4EC1528980120A5
:1005E00002D4EC15C9990120CE9901200899012067
:1005F00000800041B49901203C97012024970120FC
:100600004C97012026950120A1990120C499012031
:10061000B24B4FF48032C3F89820B14B186823F0E6
:10062000CFFD4FF6FF7027F099FCAE4BC3F800905A
:10063000AD4BC3F80090AD4B1B78002B7FF454AF4B
:10064000AA4A01231370AA4B187825F0B5FE4BE790
:10065000A84BA9481C60A94B1F93082364221FA91B
:100660008DF8B3308DF883300068002323F0AAFCA6
:100670004FF47A7028F0A6FAA148A24B1C9364228A
:1006800000231CA900688DF87840ADF87A4023F06B
:1006900099FC4FF47A7028F095FA9B4B002209A937
:1006A000186823F007FC974B95481C930223389356
:1006B0008DF87530642200231CA9006823F082FCA9
:1006C000642028F07FFA04232B709BF800303A88CE
:1006D000ADF85E20B8F80020ADF85C208B4A8C485D
:1006E00012788DF862208B4A8DF8613012788DF87F
:1006F00060208DF814300022022317A9006823F02F
:1007000061FC85480223002205A9006823F05AFCF9
:100710003368012B09D1814B346018682C7024F0A8
:10072000E3FA7F4B186823F04BFD4FF4487028F034
:1007300049FA7C4B002208A9186823F0BBFB30B1B2
:10074000BAF800209DF820301344AAF800302B7826
:100750001E2BBAD801A252F823F000BFF702000006
:10076000F50300007904000051060000D9070000DD
:10077000CB0600003F080000CB060000CB060000BF
:10078000CB060000CB060000CB060000CB06000025
:10079000CB060000CB060000CB0600009509000048
:1007A000CB060000870A0000E30C0000490D0000A2
:1007B000CB060000E50F0000CB060000CB060000D2
:1007C000CB060000CB060000CB060000CB060000E5
:1007D000CB06000089180000534B00220BA91868B3
:1007E00023F068FB484B0022186809A923F062FB3C
:1007F0009DF82E309DF82D20012B19D09DF8243026
:10080000FA2B02D0FC2B00D003B92C706D2A7FF696
:100810005CAF464B1B7823B9304B4FF48032C3F8A2
:100820009820434B1C700C238BF800302C704EE743
:10083000A2F150031D2B9CBF06232B70DEE72B4B30
:100840001C70314B0022186809A923F033FB9DF876
:100850002430312B15D9234AD2F80090B9F1010F79
:1008600032D0B9F1000F41F05381324B4A460FA903
:10087000186823F01FFB002864D19DF82430FA2B60
:1008800002D0FC2B00D043B9164A1268012A7FD04F
:100890001AB914492A7001220A600A2B7FF415AF95
:1008A000254A13780133DBB2F02B13707FF40DAFC0
:1008B000214B224A1C7040F233132C701380204BC2
:1008C0004FF002021A70BEE01022FA2B2A703FF499
:1008D00022AEFC2B7FF4F9AED6E700BF00800041CA
:1008E000589701201C99012024990120049A012085
:1008F0005F9A0120089901203898012001C4EC1565
:100900005498012002C4EC15B4980120D799012015
:1009100038970120D9990120F89601207C97012071
:10092000409801207897012090980120C9990120D2
:10093000CE9901209C980120109A012066960120F2
:10094000DD9901200F9BB6480D93BDF84030ADF8FE
:1009500038304A4602230DA9006823F033FB9DF886
:100960003430002B89D0AF4AAF48012313601023E5
:100970002B704FF002038DF81C304A46022307A962
:10098000006823F01FFBA94B186824F0ADF974E749
:100990002C7082E7A64B1C70A64BD3F80090B9F1DF
:1009A000000F2FD1A44B1B78022B2ED1A24A5278D4
:1009B0000392012A29D1A1488DF818904A4606A928
:1009C000006823F0FFFA9E4B9E481C93039B8DF812
:1009D000E23064221CA98DF87A3000684B4623F07F
:1009E000F1FA642028F0EEF8974B4A4609A91868F6
:1009F00023F060FA12230E202B7025F0DDFC8D4BC6
:100A0000D3F80090B9F1010F21D08F4B0022186864
:100A100009A923F04FFA9DF82430FA2B04D0FC2BBF
:100A200002D0002B7FF451AE7E4A2C70012313605C
:100A3000864A4FF49A731380854B4FF002021A7066
:100A4000062027F099FB112025F0B6FC3DE67D48F5
:100A50007B4B1C931CA90023642200688DF8E29054
:100A60008DF87A9023F0AEFA642028F0ABF8764B3C
:100A7000002209A9186823F01DFA12230E202B70FA
:100A800025F09AFCC1E76B4A724801231360724B50
:100A900000684FF40012C3F81821002325936F4B10
:100AA000269340F20123002225A9ADF89C300223B1
:100AB00023F088FA6A4B186824F016F9694B002273
:100AC00013A9186823F0F6F9002800F0F0809DF8CB
:100AD0004C309DF84D2064495A488DF87A4002EB1D
:100AE0000322A1FB0232D30807EE903A9DF84E2074
:100AF0009DF84F30006803EB0223A1FB0323DB08C2
:100B000007EE103AB8EEC77A584ABDEEC77AF8EE4B
:100B1000E77A17EE103A92FBF3F303EB83035B00E3
:100B200007EE103A524BB8EEC77A642283ED007A92
:100B3000B2EE047A67EE877A93ED007AF4EEC77A24
:100B4000F1EE10FA48BFC3ED007A3D4B1C931CA98F
:100B5000002323F037FA642028F034F8444A454B48
:100B6000D2ED007A1F93FCEEE77A434817EE903AF5
:100B7000D2ED007A8DF88030FCEEE77A642217EE31
:100B8000903AC3F307238DF8813041F65833ADF81E
:100B900082303A4B21931FA90023006823F012FAF8
:100BA0004FF4967028F00EF8354A364B3248CDE9AE
:100BB0001F23A3F5C80364221FA921930068002303
:100BC00023F000FA4FF4967027F0FCFF1D481C4BF1
:100BD0001C934FF0020200231CA98DF8E2208DF82F
:100BE0007A200068642223F0EDF9642027F0EAFF00
:100BF000102025F0E1FB144B0022186809A923F00E
:100C000059F99DF82430A3F15B02092A3CD813233B
:100C10002B70114B4FF48012C3F8142147E000BF32
:100C2000409701201C9901203C9701202497012026
:100C3000109A012024990120B49901204C97012099
:100C400002C4EC1554980120B49801206696012046
:100C5000DD990120E8970120008000410000484311
:100C6000EC970120A4980120CDCCCCCC70110100D0
:100C7000BC97012003C4EC153898012010271400FC
:100C800004C0EC151400C800FA2B01D0FC2B25D1B0
:100C9000B54A2C7040F235131380B44B4FF002026A
:100CA00008201A7027F068FA112025F085FBB0485B
:100CB0000D94022300220DA90068ADF8384023F0FE
:100CC00081F9AC488DF81C400223002207A9006876
:100CD00023F078F9A84B1C809C70F6E4002BD7D049
:100CE000E5E7A64B002218680BA923F0E3F89DF86E
:100CF0002D30312B7FF6E9ACA14BD3F8203113F026
:100D0000807316D101228DF8782040F60142ADF8AB
:100D1000E1209C480C228DF87A209B4A1C921CA949
:100D20006422006823F04EF9642027F04BFF14235F
:100D3000CAE48D4A2C7040F2351313808B4B4FF070
:100D400002021A7007207CE6904B00220AA918685C
:100D500023F0B0F89DF828309DF829208C498D4863
:100D600002EB0322A1FB0232D20807EE902A8A4B43
:100D70009DF82A200068F8EEE77AC3ED007A9DF826
:100D80002B30CDED267A03EB0223A1FB0323DB08F6
:100D900007EE103A814BB8EEC77A002283ED007A55
:100DA0004FF08043259340F2012325A9ADF89C30F4
:100DB000022323F007F97A4B186823F095FFBDF85A
:100DC000283070485BBAADF87430764B1C936422BF
:100DD00000231CA9006823F0F5F8642027F0F2FE38
:100DE000714B002209A9186823F064F800283FF429
:100DF0006CAC9DF82430782B12D0FA2B04D0FC2B4D
:100E000002D0002B7FF461AC1E23574A2B704FF4A5
:100E10009B731380554B4FF002021A70082010E6A6
:100E2000624BD3F8009028F097FF4EF660230246FD
:100E3000012100934846002327F0A8FE5C4BD3F81D
:100E4000009028F089FF4EF66023024601210093AE
:100E50004846002327F09AFE564BD3F8009028F01E
:100E60007BFF4EF660230246012100934846002393
:100E700027F08CFE504BD3F8009028F06DFF4EF613
:100E800060230246012100934846002327F07EFE9E
:100E90004A4BD3F8009028F05FFF4EF660230246DD
:100EA000012100934846002327F070FE444BD3F8FD
:100EB000009028F051FF4EF6602302460121009376
:100EC0004846002327F062FE122025F075FA032021
:100ED00025F08AF916232B703A4B187828F034FA4B
:100EE000642027F06FFE3849087828F041FA642022
:100EF00027F068FE354B188828F04EFA642027F05A
:100F000061FE334A107828F06FFA642027F05AFE09
:100F10003049087828F054FA642027F053FE2E4810
:100F2000007828F075FA642027F04CFE2B4B2C4AF1
:100F30001B6813602448254B224A198803781278CD
:100F400025481B0243EA014313432249204A0978FA
:100F50004493137802781B0243EA014313434593F9
:100F60009DF8243049E700BF66960120DD990120F5
:100F7000409701203C970120B499012090980120CE
:100F8000008000415498012002C4EC15AC98012067
:100F9000CDCCCCCCE89701208C990120E898012099
:100FA000EC97012005C4EC15B4980120CC980120E1
:100FB0005099012054990120589901205C990120F1
:100FC00088970120E9990120029A01205A8D012079
:100FD000019A0120F29901200E9A0120A897012080
:100FE00014980120BF4B186823F07EFEBAF8000069
:100FF00026F058FDBC4B1B78072B72D0BB4B002250
:101000000AA9186822F056FF00286FD1B84B0022B9
:1010100019A9186822F04EFF90B1B649B64A0B786C
:101020009DF86600D05401330B70AF4B1B7806223D
:10103000042B8BF8002040F24783052B00F05083EF
:10104000AE4B1B78052B00F05383AA4B1B78052B66
:1010500000F0A483AA4B1B7803F0FF0223B9A94B2D
:101060001B78012B00F0BA83A54B1B78012B00F0F5
:10107000BE839DF82430292B03D0FA2B01D0FC2B02
:1010800012D11E232B70A04A09238BF80030CA23EB
:1010900013809E4B4FF002020A201A7027F06CF862
:1010A0009B4B9C4A1B6813609DF86430012B00F039
:1010B000B283994B1B78022B7FF407AB964B9B783E
:1010C000012B7FF402AB944A924914801E23947042
:1010D0008F4A2B7012680A6009238BF80030FFF7E3
:1010E000F6BA8E4B187826F0BDFC87E79DF82A20CB
:1010F0009DF82B3003EB0223894AA2FB0313DB0884
:1011000007EE903A874B9DF82810F8EE677AC3ED0A
:10111000007A9DF8293003EB0123A2FB0323DB08AF
:1011200007EE103A804BB8EE477A17EE900A83ED3F
:10113000007A27F025FE02460B4639A87B4928F0A5
:1011400057FC1E2139A824F08FFC28F08BFD0028C5
:10115000FBD0744B93ED007A734BD3ED006A744B64
:1011600067EE267AC3ED007A724B1B78002B7DD197
:10117000714B724A1B68136092ED006AF4EEC67AF6
:10118000F1EE10FA33D55E4B1B781BBBDFED6C7AAA
:101190006C4B92ED006A76EEA76ACDED266AD3ED30
:1011A000006AC6EE267AB4EEE77AF1EE10FAC0F2E3
:1011B000D580B5EE007A67EE877ACDED257A624864
:1011C00040F20133ADF89C300022022325A90068CB
:1011D00022F0F8FE4A4B1B78012B00F0C880484BE8
:1011E0001B78012B00F00081514BD3ED007A534A5C
:1011F00092ED007AB4EEE77AF1EE10FA36D5404B74
:101200001B784BBB484B9FED4E7AD3ED007A4D4B8C
:10121000D2ED006A77EE877ACDED267AD3ED007AAB
:10122000404B86EEA77AD3ED007AB4EEE77AF1EE82
:1012300010FA00F20881F5EE007A27EE277A8DED9C
:10124000257A414840F20133ADF89C300022022358
:1012500025A9006822F0B6FE294B1B78012B00F06F
:10126000FB80274B1B78012B00F03381314B1B781F
:10127000012B00F05D81214B9DF82AE01A78334B59
:10128000BDF82A00910003EB010C9DF82B3003EB15
:101290000E23DFF88CE0AEFB03E3DB0807EE903AA9
:1012A0002B4B1944274B1B680B60144B01321A70EF
:1012B000BDF8283040BAADF876005BBA2548ADF8E5
:1012C0007430F8EE677A244B1C93642200231CA927
:1012D0000068CCED007A22F075FE322027F072FC17
:1012E00094E600BF58970120F8990120AC9801209E
:1012F000A8980120F599012068960120FD99012008
:10130000C9990120CE99012066960120DD9901201E
:10131000A89701201C980120B4990120B1990120BF
:10132000CDCCCCCCE89801208C990120B8EA000003
:1013300048990120D59901204C9A0120D497012089
:1013400000000000549A0120E89701206C940120CD
:10135000949401205498012005C4EC157FF52FAF1B
:10136000F5EE007A27EE277A8DED257A27E7CB4B2D
:101370001B78112B7FF633AFC94B9FEDCA7A4FF420
:101380000012C3F81821C84BD3ED007AC74B77EE93
:10139000877AF6EE006ACDED267AD3ED007AC44B5B
:1013A00067EEA67A93ED006AC24B87EE867AD3ED9C
:1013B000007AB4EEE77AF1EE10FA0FD827EE267A2B
:1013C0008DED257A40F20123BB48ADF89C30002218
:1013D000022325A9006822F0F5FD05E7C4BF67EEEA
:1013E000A67ACDED257AEDE7AC4B1B78112B3FF6B5
:1013F000FBAEAD4B9FEDAB7AD3ED007AAB4B77EE06
:10140000877AD3ED006AAA4BCDED267AD3ED007A28
:10141000A84B86EEA77AD3ED007AB4EEE77AF1EE28
:1014200010FA08D8F5EE007A27EE277A8DED257AA6
:1014300040F20133C8E7FBDDB5EE007A67EE877A4C
:10144000CDED257AF4E77FF7FCAEB5EE007A67EED6
:10145000877ACDED257AF4E6904B1B78112B7FF639
:1014600000AF8F4B9FED8F7A4FF40012C3F8182115
:101470008D4BD3ED007A8D4B77EE877AF6EE006ACE
:10148000CDED267AD3ED007A894B67EEA67A93EDFF
:10149000006A884B87EE867AD3ED007AB4EEE77A5D
:1014A000F1EE10FA0FD827EE267A8DED257A40F26C
:1014B00001238148ADF89C300022022325A9006851
:1014C00022F080FDD2E6C4BF67EEA67ACDED257A84
:1014D000EDE7724B1B78112B3FF6C8AE724B9FEDB8
:1014E000717AD3ED007A714B77EE877AD3ED006A8B
:1014F0006F4BCDED267AD3ED007A6E4B86EEA77A50
:10150000D3ED007AB4EEE77AF1EE10FA08D8F5EEF2
:10151000007A27EE277A8DED257A40F20133C8E76D
:10152000FBDDB5EE007A67EE877ACDED257AF4E73C
:10153000624B1B784BBB5C4B9FED5A7AD3ED007A24
:101540005F4B77EE877AD3ED006A594BCDED267A63
:10155000D3ED007A574B86EEA77AD3ED007AB4EE3E
:10156000E77AF1EE10FA40D8F5EE007A27EE277A06
:101570008DED257A504840F20133ADF89C300022C1
:10158000022325A9006822F01DFD4C4B1B78012B7E
:1015900033D04A4B1B78012B7FF46DAE3F4B1B7849
:1015A000112B3FF668AE404B9FED3E7AD3ED007AAB
:1015B000434B77EE877AD3ED006A3D4BCDED267A2B
:1015C000D3ED007A3B4B86EEA77AD3ED007AB4EEEA
:1015D000E77AF1EE10FA58D8F5EE007A27EE277A7E
:1015E0008DED257A40F201333DE0C3DDB5EE007AA2
:1015F00067EE877ACDED257ABCE7284B1B78112B57
:10160000C7D9274BDFED2F7A4FF40012C3F818210A
:101610002B4B93ED007AB4EEE77AF1EE10FAC8BFE7
:10162000C3ED007A204B9FED1F7AD3ED007A244B57
:1016300077EE877AD3ED006A1D4BCDED267AD3ED98
:10164000007A1C4B86EEA77AD3ED007AB4EEE77AE7
:10165000F1EE10FA11D8F6EE007A27EE277A8DED2A
:10166000257A40F201231448ADF89C300022022371
:1016700025A9006822F0A6FCFDE5F2DDB6EE007AB1
:1016800067EE877ACDED257AEBE7ABDDB5EE007A34
:1016900067EE877ACDED257AA4E700BFA9990120EE
:1016A00000800041000000008C990120D4970120A7
:1016B000549A0120E8980120E8970120C999012057
:1016C000DC97012000B8084726F0CCF95C4A9DF869
:1016D000663013705B4A13780133DBB21370ACE4ED
:1016E000584A07231370584A9DF866301370A7E4D0
:1016F000564B39881C70564BB8F8000093ED007AB1
:10170000544A4FF0000C0433F0EE477AE64689461F
:1017100004E05149994227D0F3EC017AB4EEE77A1C
:10172000F1EE10FA0CD84A49BCEEE77AC1ED007A26
:1017300017EE101A4FF0010E1FFA81F9B0EE677A1A
:101740004449F2EC017AD1ED006AF4EEE76AF1EE79
:1017500010FADED8C1ED007AFCEEE77A4FF0010C0A
:1017600017EE901A88B2D4E7BEF1000F01D0A7F8A7
:101770000090BCF1000F01D0A8F80000FCEEC77A81
:1017800017EE900A26F0CEF9324BD3ED007AFCEE3C
:10179000E77A17EE900A26F0A5F956E42F4B1C7055
:1017A0002F4B93F800C02F4B18785A1C002103468A
:1017B00004E02D4B934209D012F8013B9842F8D82F
:1017C000284918460B709C460121F2E711B1244BC1
:1017D00083F800C080B226F025F93BE423488DF859
:1017E0001820022306A9006822F0ECFB3CE4204B01
:1017F0001B78012B7FF43DAC1E4B1B78132B7FF61F
:1018000038AC1A488DF818400223002206A9006857
:1018100022F0D8FB2DE41E232B70174A09238BF8E6
:101820000030C9231380154B4FF002020A201A70B2
:1018300026F0A2FC124B134A1B68136039E400BF68
:10184000B1990120F8990120D7990120FD99012033
:101850006C9401209494012080940120F59901203A
:10186000D9990120689601206D9601204C9701209E
:10187000CE990120A999012066960120DD990120C9
:10188000A89701201C980120A54B1B78012B00F084
:101890000B81A44B1B78012B00F01C81A248A34BA9
:1018A0001C934FF00309002364221CA900688DF8E3
:1018B000E0908DF8759022F085FB322027F082F9B8
:1018C00099489B4A1C92002364221CA90068ADF829
:1018D000744022F077FB322027F074F99549964B3B
:1018E000964A97484FF4801CC1F818C11B681360D2
:1018F0008B4B00681C700DF1940C4FF40073614623
:101900000022ADF89C30022322F05CFB40F6B83098
:1019100027F058F98448854B1C930DF1700C6146F3
:101920000023642200688DF8759022F04BFB322072
:1019300027F048F97C487E4A1C920DF1700C6146F4
:10194000002364220068ADF8744022F03BFB322093
:1019500027F038F977497B484FF48013C1F81831E4
:101960000A23009300231A464946006827F00EF91F
:10197000754B187827F060FD744B187827F070FDD0
:10198000734B188827F080FD724B187827F0A4FD60
:10199000714B187827F08CFD704B187827F0B0FD4C
:1019A0006F4B186826F05EF96E4B1878C0B20128AC
:1019B00000F0A5806B4B1878C0B2022800F0A2801E
:1019C000684B1878C0B2032800F09F805B4BD3EDC2
:1019D000007A654B93ED007AFCEEE77ABCEEC77AAD
:1019E00017EE903A17EE102A9B1A07EE903A5F4BCB
:1019F000F8EE677AC3ED007AFCEEE77A17EE900A0C
:101A000026F010F95A4A15230420137024F0ECFB39
:101A1000534A584813684E4A439311884B4A00680A
:101A20001378494A1B02127843EA014313434A4A96
:101A300046931178474A1378484A1B02127843EAC2
:101A4000014313434C494D4A479312780B7843EABC
:101A500002434893454BD3ED007AFCEEE77A41A967
:101A600017EE903A43F4003349933E4B1A78BAF894
:101A7000003043EA02434A934FF0020364228DF898
:101A80000431002322F09EFA3D4B186823F02CF914
:101A90003C4AAAF80040012313703B4A336013709C
:101AA0003A4A1370FEF711BE1E4B1B7803F0FF027B
:101AB000002B7FF4EEAE22484FF44073ADF89C301B
:101AC00025A90223006822F07DFA40F6B83027F0FD
:101AD00079F8DEE6124B1B78012B7FF4DFAE184855
:101AE0004FF40073ADF89C300022022325A9006852
:101AF00022F068FA40F6B83027F064F8CEE626F017
:101B00003BFB57E726F038FB5AE726F035FB5DE74D
:101B1000FA2B3EF4DAADFC2B7EF4BFAEFEF7D5BD5A
:101B2000CE990120C99901205498012002C4EC15D6
:101B300005C4EC1500800041A89701201C980120E5
:101B4000E897012088970120E9990120029A012055
:101B50005A8D0120019A0120F29901200E9A01204C
:101B6000E4960120DC990120149801200C970120B3
:101B70005F9A012064970120D9990120B199012031
:101B800068970120CD990120CC990120CB990120A3
:101B90002DE9F04F0024F1B0922221464BA80F947A
:101BA000CDE91144CDF83F400B948DF83040ADF8AD
:101BB0002440CDE913440A94CDE919448DF86C40D2
:101BC000CDE91C44CDE91E44CDE92044CDE92244B1
:101BD0002494CDE93244CDE93444CDE936443894F7
:101BE000CDE92844DFF844B32A94B74D3094ADF8DA
:101BF000AC40CDE92C44CDE92E44CDF8C340CDE92D
:101C000025442794B14FDFF82883DFF828A3B04E8E
:101C100028F060F8CDE915441CE2AE4B186823F0BB
:101C200063F8AD4B3C801C70AC4BA8F800401C80A6
:101C3000AB4B002211A9186822F03CF9A94B0022F5
:101C40000BA9186822F036F9A74B002209A91868D9
:101C500022F030F99DF84B90B9F1010F40F0C581A9
:101C60009DF82E300393002B40F0BF819DF82D305E
:101C70006D2B24D8632B00F2B8819C4B9C481C939D
:101C8000402364221CA98DF87A300068002322F0DA
:101C900099F94FF47A7026F095FF9548934B1C9371
:101CA000642200231CA900688DF8CD408DF87A408D
:101CB00022F088F9642026F085FF012393E18D4B03
:101CC000039A1A608C4B8A481A60884B1C934023F5
:101CD0001CA98DF87A3000681346642222F072F94C
:101CE0004FF47A7026F06EFF81488049039B1C9167
:101CF00064221CA900688DF8CD408DF87A4022F04E
:101D000061F9642026F05EFF0C232B708BF80090A5
:101D10009DF82D30AEE77948794B1F93642200235C
:101D20001FA900688DF8804022F04CF9642026F04D
:101D300049FF7448744B22934FF001090023642239
:101D400022A90068ADF8A6908DF8A840ADF88C9057
:101D50008DF88E4022F036F9642026F033FF644877
:101D6000624B1C93642200231CA900688DF8CB9061
:101D70008DF8759022F026F9642026F023FF5A4B47
:101D80000022186809A922F095F89DF824304B45E7
:101D900040F02B814FF0020325E1544B54481C9333
:101DA000402364221CA98DF87A300068002322F0B9
:101DB00009F94FF47A7026F005FF4D484B4B1C9300
:101DC000642200231CA900688DF8CD408DF87A406C
:101DD00022F0F8F8642026F0F5FE424B00220BA911
:101DE000186822F067F8002800F0FF809DF82D3079
:101DF000A3F150021D2A21D96D2B0DD9434B1B781D
:101E000003F0FF09002B00F09780414B01201C706C
:101E10000C232B7026F0FCF83E4B1B681E2B40F366
:101E2000E4803C4B1C60394B1B7823B93A4B4FF490
:101E30008032C3F898208BF80040D6E0022026F0CC
:101E4000E7F8354B4FF48032C3F894200923304A29
:101E50002B7001231370274B1B68012B10D02F4BC5
:101E60001B78012B1AD0234B1B6813B903238BF863
:101E70000030284A1368013313609DF82D30BBE70A
:101E800027488DF81C400223002207A9006822F091
:101E900099F8244B186822F027FFE0E71F4B93F8CE
:101EA0000190B9F1010FDED11F488DF818400323CE
:101EB0008BF800300022022306A9006822F082F885
:101EC0000D4BC3F80090CEE76D960120BE9901201E
:101ED000D4980120B0970120F79901209293012016
:101EE0005C980120609801208498012002C0EC15C4
:101EF0005498012018990120209901203898012038
:101F000001C0EC152898012002D0EC15CE990120D3
:101F1000C99901200499012000800041B89901204D
:101F20003C970120249701204C970120A99901207A
:101F3000C2990120D8990120BF4B4FF48032C3F8D9
:101F40009820BE4B186822F03BF94FF6FF7026F040
:101F500005F8BB4BC3F80090BA4BC3F80090BA4BDE
:101F60001B78002B7FF451AFB74A01231370B74B96
:101F7000187824F021FA48E7B54BB6481C60B64BF8
:101F80001F93082364221FA98DF8B1308DF8833088
:101F90000068002322F016F84FF47A7026F012FE43
:101FA000AE48AF4B1C93642200231CA900688DF837
:101FB0007840ADF87A4022F005F84FF47A7026F0B8
:101FC00001FEA74BA5481C930223CDF8CB308DF81A
:101FD0007530642200231CA9006821F0F3FF6420FF
:101FE00026F0F0FD04238BF800302B788DF861305B
:101FF0003B88ADF85E30B8F80030ADF85C30994BF6
:1020000099481B788DF862309AF800308DF860306E
:102010000022022317A9006821F0D4FF93482B78EF
:102020008DF814300022022305A9006821F0CAFFB0
:102030003368012B0AD18E4B346018688BF800404E
:1020400022F052FE8B4B186822F0BAF84FF4FA7067
:1020500026F0B8FD9BF800301E2BC6D801A252F81E
:1020600023F000BF1B1C0000171D00009B1D00007B
:10207000791F0000E1200000EB1F00004B21000051
:10208000EB1F0000EB1F0000EB1F0000EB1F000028
:10209000EB1F0000EB1F0000EB1F0000EB1F000018
:1020A000EB1F0000A5220000EB1F00009F23000093
:1020B000012600007B260000EB1F00000D29000018
:1020C000EB1F0000EB1F0000EB1F0000EB1F0000E8
:1020D000EB1F0000EB1F0000EB1F00008D31000024
:1020E000654B00220BA9186821F0E4FE634B002227
:1020F000186809A921F0DEFE9DF82E309DF82D20EC
:10210000012B1AD09DF82430FA2B02D0FC2B00D0E2
:102110000BB98BF800406D2A7FF667AF584B1B78E0
:1021200023B9454B4FF48032C3F89820554B1C70AF
:102130000C232B708BF8004058E7A2F150031D2BA5
:102140009CBF06238BF80030DCE73F4B1C704B4BE9
:102150000022186809A921F0ADFE9DF82430312B2A
:1021600014D9374AD2F80090B9F1010F32D0B9F141
:10217000000F41F04281444B4A460FA9186821F0F4
:1021800099FE88BB9DF82430FA2B02D0FC2B00D09E
:102190004BB92B4A1268012A4BD022B928498BF837
:1021A000002001220A600A2B7FF41FAF374A137800
:1021B0000133DBB2F02B13707FF417AF334B344A8B
:1021C0001C7040F233138BF800401380314A012316
:1021D0001370C2E01022FA2B8BF800203FF42BAED4
:1021E000FC2B7FF402AFD4E70F9B2B480D93BDF877
:1021F0004030ADF838304A4602230DA9006821F07E
:10220000E1FE9DF83430002BBCD00D4A0123136051
:102210008DF81C30214B102218688BF8002022F01A
:1022200063FD1F4802234A4607A9006821F0CAFE41
:10223000A8E78BF80040B6E70080004158970120DE
:102240001899012020990120039A01205F9A01200A
:10225000049901203898012001C0EC155498012000
:1022600002C0EC15D699012034970120F496012084
:1022700070970120309801206098012084980120F7
:10228000CE990120C99901206C9801200F9A012054
:1022900066960120DD9901204097012024970120B6
:1022A0003C970120BD4B1C70BD4BD3F80090B9F199
:1022B000000F32D1BB4B1B78012B31D1B94B5B786E
:1022C0000393012B2CD1B8488DF818904A4602236D
:1022D00006A9006821F076FEB44BB5481C93039B19
:1022E0008DF8CD3064221CA98DF87A3000684B46F9
:1022F00021F068FE642026F065FCAE4B4FF47A7244
:1023000009A9186821F0D6FD122305208BF80030AA
:1023100024F052F8A24BD3F80090B9F1010F20D06D
:10232000A44B0022186809A921F0C4FD9DF82430AF
:10233000FA2B04D0FC2B02D0002B7FF456AE9E4A21
:102340009E498BF80040012313604FF49A720A8073
:102350009B4A0620137025F0F1FE082024F02CF88B
:1023600043E69348914B1C931CA900236422006808
:102370008DF8CD908DF87A9021F024FE642026F01F
:1023800021FC8C4B4FF47A7209A9186821F092FD58
:10239000122305208BF8003024F00EF8C0E7894B9B
:1023A00089484FF40012C3F8182100232593874B66
:1023B000269340F20113642225A9ADF89C300068F1
:1023C000002321F0FFFD824B186822F08DFC744A37
:1023D000012313607F4B002213A9186821F06AFDC6
:1023E000002800F0B5809DF84C309DF84D207A49CA
:1023F0006F488DF87A4002EB0322A1FB0232D3082A
:1024000007EE903A9DF84E209DF84F30006803EBA0
:102410000223A1FB0323DB0807EE103AB8EEC77ACC
:102420006E4ABDEEC77AF8EEE77A17EE103A92FBE5
:10243000F3F303EB83035B0007EE103A684BB8EE4F
:10244000C77A642283ED007AB2EE047A67EE877A67
:1024500093ED007AF4EEC77AF1EE10FA48BFC3EDBF
:10246000007A524B1C931CA9002321F0ABFD642081
:1024700026F0A8FB5A4A5B4BD2ED007A1F93FCEE84
:10248000E77A594817EE903AD2ED007A8DF880300D
:10249000FCEEE77A642217EE903AC3F307238DF837
:1024A000813041F65833ADF88230504B21931FA94B
:1024B0000023006821F086FD4FF4FA7026F082FBBD
:1024C0004B4A4C4B4848CDE91F23A3F5C80364226F
:1024D0001FA921930068002321F074FD4FF4FA70C6
:1024E00026F070FB3248314B1C934FF00202002360
:1024F0001CA98DF8CD208DF87A200068642221F087
:1025000061FD4FF4FA7026F05DFB072023F054FFC5
:10251000284B0022186809A921F0CCFC9DF8243032
:10252000A3F15B02092A2AD9FA2B02D0FC2B00D096
:1025300073B9224A8BF8004040F235131380204AC9
:1025400001230820137025F0F9FD082023F034FF43
:1025500029480D940223002207A90068ADF83840ED
:102560008DF81C4021F02EFD2448022300220DA9E5
:10257000006821F027FD0B4B1C809C7035E5132370
:102580004FF47A708BF8003026F01CFB0D4B4FF4A3
:102590000022C3F814219DF82430C5E70F9A0120CA
:1025A00020990120B89901204C97012002C0EC1518
:1025B00054980120849801201899012066960120E2
:1025C000DD99012000800041E89701200000484388
:1025D000EC97012074980120CDCCCCCC7011010077
:1025E000B897012003C0EC1538980120102714007B
:1025F00004C0EC151400C8003C970120409701204E
:10260000A64B002218680BA921F054FC9DF82D3030
:10261000312B1DD9A24BD3F8A03013F400031CD1E9
:1026200001228DF8782040F60142ADF8CC209D487B
:102630000C228DF87A209C4A1C921CA96422006806
:1026400021F0C0FC642026F0BDFA14238BF8003082
:102650004FF47A7026F0B6FAC7E4944A8BF800403B
:1026600040F235131380924A01230720137025F09E
:1026700065FD082023F0A0FEEAE78E4B00220AA9A0
:10268000186821F017FC9DF828309DF829208A4908
:102690008A4802EB0322A1FB0232D20807EE902AFD
:1026A000874B9DF82A200068F8EEE77AC3ED007AA0
:1026B0009DF82B30CDED267A03EB0223A1FB0323FB
:1026C000DB0807EE103A7F4BB8EEC77A642283ED41
:1026D000007A4FF08043259340F2011325A9ADF80D
:1026E0009C30002321F06EFC774B186822F0FCFA36
:1026F000BDF828306B485BBAADF87430734B1C934F
:10270000642200231CA9006821F05CFC0A2026F04A
:1027100059FA6F4B002209A9186821F0CBFB002859
:102720003FF463AC9DF82430782B12D0FA2B04D000
:10273000FC2B02D0002B7FF458AC1E235B4A8BF895
:1027400000304FF49B731380594A01231370082003
:1027500001E6604BD3F8009027F0FEFA4EF66023B6
:102760000246012100934846002326F00FFA5A4BF7
:10277000D3F8009027F0F0FA4EF6602302460121CC
:1027800000934846002326F001FA544BD3F80090FA
:1027900027F0E2FA4EF660230246012100934846F4
:1027A000002326F0F3F94E4BD3F8009027F0D4FA2B
:1027B0004EF660230246012100934846002326F08E
:1027C000E5F9484BD3F8009027F0C6FA4EF660239F
:1027D0000246012100934846002326F0D7F9424BD8
:1027E000D3F8009027F0B8FA4EF660230246012194
:1027F00000934846002326F0C9F9092023F0DCFDA8
:10280000032025F005FC16238BF80030374B187891
:1028100026F0AAFC642026F0D5F93549087826F080
:10282000B7FC642026F0CEF9324B188826F0C4FCA1
:10283000642026F0C7F9304A107826F0E5FC6420C1
:1028400026F0C0F92D49087826F0CAFC642026F04D
:10285000B9F92B48007826F0EBFC642026F0B2F999
:10286000284B294A1B6813602148224B1F4A1988AC
:102870000378127822481B0243EA014313431F499D
:102880001D4A09783C93137802781B0243EA0143FE
:1028900013433D939DF8243048E700BF6098012022
:1028A000008000415498012002C0EC15669601207A
:1028B000DD9901207C980120CDCCCCCCE89701207B
:1028C00088990120E4980120EC97012005C0EC15BF
:1028D0008498012084970120CC98012050990120F0
:1028E00054990120589901205C990120E99901200F
:1028F000029A01205A8D0120019A0120F2990120AB
:102900000E9A0120A497012010980120BA4B0022B2
:1029100008A9186821F0CEFA28B1B8499DF82030EE
:102920000A8813440B80B64B186822F0DDF9B34BCC
:10293000188824F077FFB34B1B78072B00F04E81EB
:10294000B14B00220AA9186821F0B4FA002800F05F
:10295000E1809DF82A309DF82B20AC4902EB032240
:10296000A1FB0232D30807EE103AA94B9DF82820AC
:10297000B8EE477A83ED007A9DF8293003EB022305
:10298000A1FB0323DB0807EE903AA24BF8EE677A2F
:10299000C3ED007A67EE276A9F4BC3ED006A9F4B39
:1029A0001B78002B7DD19E4B9E4A1B68136092EDD5
:1029B000006AF4EEC66AF1EE10FA33D59A4B1B7832
:1029C0001BBBDFED9A6A9A4B92ED006A77EEA67A0E
:1029D000D3ED006ACDED267AC6EE267AB4EEE77A1C
:1029E000F1EE10FAC0F2FF80B5EE007A67EE877A5A
:1029F000CDED257A8F4840F20133ADF89C300022AE
:102A0000022325A9006821F0DDFA874B1B78012BF2
:102A100000F03081844B1B78012B00F068817E4BE5
:102A2000D3ED006A7F4AD2ED007AF4EEE67AF1EE59
:102A300010FA36D57C4B1B784BBB764B9FED7B7ADF
:102A4000D3ED007A7A4BD2ED006A77EE877A93ED78
:102A5000007ACDED267AC6EE877A6D4B93ED007A3B
:102A6000F4EEC77AF1EE10FA00F27081B5EE007A5A
:102A700067EE877ACDED257A6E4840F20133ADF8E6
:102A80009C300022022325A9006821F09BFA664BA6
:102A90001B78012B00F06381634B1B78012B00F046
:102AA0009B815E4B1B78012B00F0C581624B634913
:102AB0001A785F489DF82AC00068930019440132D3
:102AC00008605F48BDF82A1018449DF82B3003EBCE
:102AD0000C23DFF838C1ACFB03C3DB0807EE903AE8
:102AE000554BF8EE677A1A70BDF82830C0ED007AC1
:102AF0005BBA5448ADF8743049BA534BADF8761010
:102B00001C93642200231CA9006821F05BFA322088
:102B100026F058F84D4B002219A9186821F0CAF97F
:102B200088B14B494B4A0B789DF86600D05401336D
:102B30000B70344B1B780622042B2A7040F246821D
:102B4000052B00F04F823C4B1B78052B00F0528286
:102B50003F4B1B78052B00F0A3823F4B1B78012BCA
:102B600000F0BC823C4B1B78012B00F0C7829DF823
:102B70002430292B03D0FA2B01D0FC2B11D11E239A
:102B80008BF80030354A09232B70CA231380344A4E
:102B900001230A20137025F0D1FA324B324A1B6808
:102BA00013609DF86430012B00F0BC822F4B1B7822
:102BB000012B7FF41AAA2D4B9B78012B7FF415AAC9
:102BC0002A4A294914801E239470264A8BF8003023
:102BD00012680A6009232B70FFF708BA244B187893
:102BE00024F000FEACE67FF505AFF5EE007A27EEA7
:102BF000277A8DED257AFDE66C97012092930120CE
:102C000058970120F79901207C980120CDCCCCCC9D
:102C1000E49801208899012044990120D499012049
:102C20004C9A0120D4970120CE9901200000000089
:102C3000509A0120E8970120FC99012080940120FE
:102C4000589401205498012005C0EC157898012073
:102C5000F499012060960120C9990120669601200F
:102C6000DD990120A497012018980120B89901202E
:102C7000BB990120CA4B1B78112B7FF6CBAEC94BF9
:102C80009FEDC97A4FF40012C3F81821C74BD3ED5A
:102C9000007AC74B77EE877AF6EE006ACDED267A9A
:102CA000D3ED007AC34B67EEA67A93ED006AC24B70
:102CB00087EE867AD3ED007AB4EEE77AF1EE10FA79
:102CC0000FD827EE267A8DED257A40F20113BB4806
:102CD000ADF89C300022022325A9006821F072F98A
:102CE0009DE6C4BF67EEA67ACDED257AEDE7AC4B45
:102CF0001B78112B3FF693AEAC4B9FEDAB7AD3ED27
:102D0000007AAB4B77EE877AD3ED006AA94BCDED15
:102D1000267AD3ED007AA84B86EEA77AD3ED007A17
:102D2000B4EEE77AF1EE10FA08D8F5EE007A27EE65
:102D3000277A8DED257A40F20133C8E7FBDDB5EE49
:102D4000007A67EE877ACDED257AF4E77FF794AEC7
:102D5000F5EE007A27EE277A8DED257A8CE6904BFA
:102D60001B78112B7FF698AE8E4B9FED8F7A4FF428
:102D70000012C3F818218D4BD3ED007A8C4B77EEFF
:102D8000877AF6EE006ACDED267AD3ED007A894B8C
:102D900067EEA67A93ED006A874B87EE867AD3EDCD
:102DA000007AB4EEE77AF1EE10FA0FD827EE267A21
:102DB0008DED257A40F201138048ADF89C30002259
:102DC000022325A9006821F0FDF86AE6C4BF67EE7A
:102DD000A67ACDED257AEDE7714B1B78112B3FF6E6
:102DE00060AE724B9FED707AD3ED007A704B77EE48
:102DF000877AD3ED006A6F4BCDED267AD3ED007A5A
:102E00006D4B86EEA77AD3ED007AB4EEE77AF1EE59
:102E100010FA08D8F5EE007A27EE277A8DED257A9C
:102E200040F20133C8E7FBDDB5EE007A67EE877A42
:102E3000CDED257AF4E7624B1B784BBB5B4B9FEDE6
:102E40005A7AD3ED007A5F4BD3ED006A594B77EE97
:102E5000877A93ED007ACDED267AC6EE877A564BC7
:102E600093ED007AF4EEC77AF1EE10FA40D8B5EEA1
:102E7000007A67EE877ACDED257A504840F201332B
:102E8000ADF89C300022022325A9006821F09AF8B1
:102E90004B4B1B78012B33D0494B1B78012B7FF414
:102EA00005AE3F4B1B78112B3FF600AE3F4B9FED1D
:102EB0003E7AD3ED007A434B77EE877AD3ED006A02
:102EC0003C4BCDED267AD3ED007A3B4B86EEA77ACC
:102ED000D3ED007AB4EEE77AF1EE10FA58D8F5EEB9
:102EE000007A27EE277A8DED257A40F201333DE016
:102EF000C3DDF5EE007A27EE277A8DED257ABCE763
:102F0000274B1B78112BC7D9264BDFED2F7A4FF4B7
:102F10000012C3F818212B4B93ED007AB4EEE77A38
:102F2000F1EE10FAC8BFC3ED007A204B9FED1E7A78
:102F3000D3ED007A234B77EE877AD3ED006A1D4BF1
:102F4000CDED267AD3ED007A1B4B86EEA77AD3ED32
:102F5000007AB4EEE77AF1EE10FA11D8F6EE007AC4
:102F600027EE277A8DED257A40F201131348ADF84C
:102F70009C300022022325A9006821F023F895E562
:102F8000F2DDB6EE007A67EE877ACDED257AEBE7D3
:102F9000ABDDB5EE007A67EE877ACDED257AA4E752
:102FA000AD990120008000410000000088990120B7
:102FB000D4970120509A0120E4980120E89701203D
:102FC000CE990120D897012000B8084724F00AFCC8
:102FD0005D4A5E4913780133DBB213709DF86620B9
:102FE0000A70ADE55A4A9DF866301370564A0723B9
:102FF0001370A8E5574B39881C70574BB8F8000080
:1030000093ED007A554A4FF0000C0433F0EE477A06
:10301000E646894604E05249994227D0F3EC017A0A
:10302000B4EEE77AF1EE10FA0CD84B49BCEEE77A31
:10303000C1ED007A17EE101A4FF0010E1FFA81F958
:10304000B0EE677A4549F2EC017AD1ED006AF4EE10
:10305000E76AF1EE10FADED8C1ED007AFCEEE77A0D
:103060004FF0010C17EE901A88B2D4E7BEF1000FB2
:1030700001D0A7F80090BCF1000F01D0A8F8000023
:10308000FCEEC77A17EE900A24F00CFC334BD3ED1C
:10309000007AFCEEE77A17EE900A24F0E3FB57E59E
:1030A000304B9AF800C01C702F4B18785A1C002126
:1030B000034604E02D4B934209D012F8013B98429D
:1030C000F8D8294918460B709C460121F2E709B14E
:1030D0008AF800C080B224F065FB3EE5244B1B78E3
:1030E00003F0FF02002B7FF43DAD22488DF818203D
:1030F000022306A9006820F065FF33E51C4B1B780E
:10310000012B7FF434AD1C4B1B78132B7FF62FADB6
:1031100018488DF818400223002206A9006820F004
:1031200051FF24E51E2215498BF80020C9220A8090
:10313000134A09201370287025F000F8114B124A29
:103140001B68136032E500BFF7990120BB9901208D
:10315000D6990120FC9901205894012080940120E7
:103160006C940120F499012060960120659601205D
:10317000CE9901204C970120AD990120669601203F
:10318000DD990120A4970120189801209F4B1B78FE
:10319000012B00F0FE809D4B1B78012B00F00F816E
:1031A0009B489C4B1C934FF00309002364221CA9ED
:1031B00000688DF8CB908DF8759020F003FF3220D9
:1031C00025F000FD9248944A1C92002364221CA919
:1031D0000068ADF8744020F0F5FE322025F0F2FCD6
:1031E0008E498F4B8F4A90484FF4002CC1F818C17C
:1031F0001B681360854B00681C700DF1940C4FF434
:10320000807361460022ADF89C30022320F0DAFE84
:1032100040F6B83025F0D6FC7D487E4B1C930DF16E
:10322000700C61460023642200688DF8759020F0D0
:10323000C9FE322025F0C6FC7548774A1C920DF174
:10324000700C6146002364220068ADF8744020F0E1
:10325000B9FE322025F0B6FC704974484FF40023C3
:10326000C1F818310A23009300231A464946006822
:1032700025F08CFC6E4B187825F0EEFF6D4B18781E
:1032800025F0FEFF6C4B188826F00EF86B4B187873
:1032900026F032F86A4B187826F01AF8694B18783D
:1032A00026F03EF8684B186824F09CFB5D4A674B9B
:1032B000D2ED007A93ED007AFCEEE77ABCEEC77AA5
:1032C00017EE903A17EE100A181A614B186024F0A6
:1032D00069FB604B1878C0B2012800F085805D4B17
:1032E0001878C0B2022800F082805A4B1878C0B219
:1032F00003287FD0584A0C230420137024F088FE42
:10330000514B4B4A1B683B934B4B54481988494BD4
:1033100000681B7812781B0243EA014313433E9373
:10332000474B484A1978454B1B7812781B0243EAF1
:10333000014313433F934A4B1A789AF8003043EA0B
:1033400002434093424B1B6843F480334193414B0B
:103350001A78444B1B884FF0020143EA0243429320
:10336000642200238DF8E41039A920F02BFE3E4999
:10337000086821F0B9FC3B4A14803C4A01231370D1
:103380003B4A336013703B4A13703B4A1370FEF79D
:103390002CBE3A4B1B7803F0FF02002B7FF4FBAEF0
:1033A00021484FF44073ADF89C3025A902230068F2
:1033B00020F008FE40F6B83025F004FCEBE62F4B79
:1033C0001B78012B7FF4ECAE17484FF48073ADF8F7
:1033D0009C300022022325A9006820F0F3FD40F66E
:1033E000B83025F0EFFBDBE624F0A8FE77E724F009
:1033F000A5FE7AE724F0A2FE7CE7FA2B3EF4F5ADB9
:10340000FC2B7EF4D0AEFEF7F0BD00BFC9990120C1
:103410005498012002C0EC1505C0EC150080004155
:10342000A497012018980120E89701208497012093
:10343000E9990120029A01205A8D0120019A012068
:10344000F29901200E9A0120E096012010980120A7
:1034500008970120DC9901205F9A012064970120E0
:10346000BB9901209293012068970120BD9901200A
:10347000C8990120C7990120C6990120CE99012041
:10348000289501200800000000000000949301200E
:103490001C00000000000000A894012010000000A3
:1034A000000000003095012018000000000000001E
:1034B000B09301201C00000000000000B89401201F
:1034C00010000000000000004895012010000000DE
:1034D00000000000F08B0120C00000000000000090
:1034E000B29901200200000000000000D0920120EB
:1034F0002C00000000000000E0910120F00000001E
:1035000000000000349A01200400000001000000C7
:10351000AAAAAAAA709601200400000000000000D8
:1035200090010020608A01000000000074960120D4
:103530001000000000000000589501200800000065
:103540000000000084960120080000000000000038
:10355000CC93012028000000000000008C96012080
:103560001800000000000000E08F0120640000004F
:1035700000000000A49601201400000000000000DC
:10358000F49301202800000000000000B8960120FC
:1035900010000000000000001C9401201400000036
:1035A00000000000C8960120040000000000000098
:1035B000309401202800000000000000CC9601207B
:1035C0000800000000000000389A012004000000FC
:1035D0000100000004000000000000209001000035
:1035E00000000000D496012014000000000000003C
:1035F000979001200100000000000000A799012021
:103600000100000000000000E89601200400000016
:1036100000000000B7990120010000000000000038
:10362000EC960120040000000000000065960120D7
:103630000100000000000000F09601200C000000D6
:10364000000000006D960120010000000000000055
:10365000A19901200100000000000000A9990120AB
:103660000100000000000000AD99012001000000F1
:1036700000000000FC960120140000000000000083
:10368000BE990120020000000000000058940120B3
:103690001400000000000000C0990120020000009A
:1036A000000000006C9401201400000000000000E5
:1036B000C299012002000000000000008094012057
:1036C0001400000000000000C49901200200000066
:1036D000000000009494012014000000000000008D
:1036E0001097012004000000000000002C91012030
:1036F0004000000000000000FC920120500000008B
:1037000000000000088E0120A4000000000000005E
:10371000149701200800000000000000BC9901205F
:1037200001000000000000001C9701203C00000088
:1037300000000000068E01200200000000000000D2
:10374000AA9101200200000000000000DE9101208B
:103750000200000000000000589701200400000053
:1037600000000000BB9901200100000000000000E3
:10377000B199012001000000000000005C970120C9
:103780001000000000000000BD99012001000000B1
:1037900000000000C69901200300000000000000A6
:1037A0009293012002000000000000006C970120AD
:1037B0000400000000000000C99901200100000081
:1037C00000000000709701200800000000000000C9
:1037D000CA99012004000000000000002695012085
:1037E00002000000000000007897012004000000A3
:1037F00000000000CE990120010000000000000040
:103800007C9701200800000000000000CF990120F3
:103810000100000000000000D0990120010000001C
:10382000000000008497012030000000000000002C
:10383000D19901200300000000000000B49701208E
:103840000C00000000000000449001205300000024
:1038500000000000C09701203800000000000000B8
:10386000AC9101203200000000000000F897012018
:103870001400000000000000D499012002000000A4
:10388000000000000C98012004000000000000006F
:10389000D69901200300000000000000609601207E
:1038A0000500000000000000D9990120010000007F
:1038B00000000000689601200500000000000000E4
:1038C000109801200800000000000000DA99012093
:1038D0000200000000000000B89901200300000071
:1038E00000000000B4990120030000000000000067
:1038F000189801200800000000000000DC99012059
:1039000001000000000000001C9501200A000000DA
:103910000000000066960120020000000000000088
:10392000DD99012001000000000000002098012026
:103930000400000000000000DE99012001000000EA
:10394000000000006E960120020000000000000050
:10395000A29901200200000000000000AA990120A5
:1039600002000000000000006095012068000000D7
:10397000000000002498012020000000000000004A
:10398000C895012068000000000000004498012054
:103990008000000000000000309601203000000090
:1039A00000000000DF99012001000000000000007D
:1039B000C49801200400000000000000E0990120EC
:1039C0000200000000000000C89801200400000070
:1039D00000000000E299012001000000000000004A
:1039E000CC98012004000000000000006C91012030
:1039F0003E00000000000000AE990120020000001F
:103A000000000000E3990120010000000000000018
:103A1000D09801200400000000000000E49901207B
:103A20000300000000000000D498012008000000FE
:103A300000000000E79901200200000000000000E3
:103A4000DC9801201000000000000000E99901202E
:103A50000200000000000000EC98012004000000BB
:103A600000000000EB9901200100000000000000B0
:103A7000F09801200800000000000000B08C012038
:103A8000AA00000000000000F898012004000000D7
:103A900000000000EC99012003000000000000007D
:103AA000B09901200100000000000000EF99012002
:103AB0000100000000000000FC980120040000004C
:103AC00000000000E8900120440000000000000019
:103AD000009901200C00000000000000F099012076
:103AE0000200000000000000AC990120010000006D
:103AF00000000000A8990120010000000000000063
:103B00000C9901200800000000000000F29901203B
:103B100005000000000000001499012004000000CE
:103B200000000000F79901200500000000000000DF
:103B3000189901201000000000000000FC990120ED
:103B4000020000000000000028990120040000008D
:103B500000000000FE9901200300000000000000AA
:103B60002C99012008000000000000005C8D01205D
:103B7000AA000000000000003499012004000000A9
:103B800000000000019A0120010000000000000078
:103B9000389901200400000000000000029A012072
:103BA0000100000000000000A499012003000000B3
:103BB00000000000039A0120040000000000000043
:103BC0003C9901200400000000000000079A012039
:103BD0000200000000000000409901200C000000DD
:103BE00000000000099A0120010000000000000010
:103BF0004C99012004000000000000000A9A0120F6
:103C000001000000000000005099012004000000A5
:103C1000000000000B9A01200100000000000000DD
:103C20005499012004000000000000000C9A0120BB
:103C3000010000000000000058990120040000006D
:103C4000000000000D9A01200100000000000000AB
:103C50005C9901200800000000000000A0990120EC
:103C60000100000000000000649901200C00000029
:103C700000000000709901200C000000000000000E
:103C8000AC8E0120A000000000000000C8940120BC
:103C900010000000000000000E9A0120010000004A
:103CA00000000000F8940120240000000000000043
:103CB0007C99012004000000000000000F9A012000
:103CC00002000000000000008099012004000000B4
:103CD00000000000D8940120100000000000000047
:103CE0004C8F012094000000000000008499012006
:103CF0000C000000000000005A8D012002000000AE
:103D000000000000329A01200200000001000000C3
:103D100004010000129A01202000000001000000B0
:103D2000B4005AA51B82524068747470733A2F2FE6
:103D30007777772E7374617469712E696E2FFFFF28
:103D4000119A012001000000010000000C00000099
:103D50005E9A012005000000010000000C030F50D6
:103D6000140000003C9A0120040000000100000043
:103D70000000803F639A0120020000000100000063
:103D800001010000409A0120040000000100000031
:103D9000CDCCCC3F449A01200C0000000100000073
:103DA000000000400000004000B888475C9A0120F5
:103DB0000200000001000000204E0000509A012087
:103DC00008000000010000000000484300004843D4
:103DD000589A012004000000010000000000484340
:103DE000909901200400000000000000E8940120E8
:103DF00010000000000000004C930120460000006D
:103E00000000000094990120040000000000000060
:103E100098900120500000000000000098990120B7
:103E2000080000000000000000000000000000008A
:103E30006666666666666666666666666666666622
:083E400066666666666666664A
:104BF0002DE9F04FA54DA64CA64EDFF8B482A64F86
:104C0000DFF8B092DFF8B0B2DFF8B0A285B000F004
:104C1000FBBEA24A236813602368BBB1A04B1B787C
:104C200053B12B6854F82330002B40F08F809C4BFD
:104C30004FF000021A7089E0994B4FF001021A7090
:104C40004FF47A602368338023F0BCFF2B6854F85C
:104C50002330002B7AD1924B1B78002B76D0E6E7DD
:104C60008E4A636853606368B3B18D4B5B784BB118
:104C70002B6854F82330002B68D1894B4FF0000289
:104C80005A7063E0864B4FF001025A704FF47A601D
:104C90006368338023F096FF2B6854F82330002B91
:104CA00054D17F4B5B78002B50D0E6E77B4AA3685A
:104CB0009360A368B3B17A4B9B784BB12B6854F8DF
:104CC0002330002B42D1764B4FF000029A703DE02A
:104CD000734B4FF001029A704FF47A60A3683380EF
:104CE00023F070FF2B6854F823307BBB6C4B9B7810
:104CF00063B3E8E7694AE368D360E368ABB1684B44
:104D0000DB7843B12B6854F82330FBB9644B4FF088
:104D10000002DA701AE0624B4FF00102DA704FF4D1
:104D20007A60E368338023F04DFF2B6854F823301A
:104D300063B95B4BDB784BB1E8E7D4F88430012BE7
:104D400062D0D4F88430022B00F089803388ADF82B
:104D50000430B8F80030ADF806303B88ADF80830C4
:104D6000B9F80030ADF80A304E48BBF80030ADF865
:104D70000C30BAF80030ADF80E300022022301A941
:104D800000681FF01FF92B6801331F2B2B6000F305
:104D90007D851A2BDAD801A252F823F0134C0000BB
:104DA000614C0000AD4C0000F54C00003B4D000094
:104DB0004D4D0000F34E0000454F0000974F00009E
:104DC000E94F00003B5000008D500000DF50000014
:104DD0003D5100004D4D00008F5100005752000022
:104DE00021530000F9530000AD540000615500004C
:104DF00017560000D95600004D4D00002F570000F7
:104E0000E557000039580000274922690A602269E5
:104E1000C2B1234A92F82C2052B12B6854F82330A7
:104E2000002B8ED11E4B4FF0000283F82C2088E718
:104E30001B4A4FF47A6082F82C302369A8F80030BE
:104E400023F0C0FE2B6854F82330002B7FF479AF99
:104E5000134B93F82C30002B3FF473AFE2E72B6831
:104E6000124954F823200A6054F82320AAB30C4AAC
:104E700092F82D2022B354F82330002B7FF466AF34
:104E8000074B4FF0000283F82D205FE714990120B3
:104E9000088E0120068E0120DE9101202C91012038
:104EA0006C9101202C970120FC9201202493012079
:104EB000AA9101206E960120A2990120AA990120B1
:104EC0009C4A54F823303B804FF001014FF47A6044
:104ED00082F82D1023F076FE2B6854F82330002B37
:104EE0007FF434AF934B93F82D30002B3FF42EAF6B
:104EF000C6E7914AA3691361A369BBB18D4B9B7946
:104F000053B12B6854F82330002B7FF41FAF894B2B
:104F10004FF000029A7119E7864B4FF001029A7127
:104F20004FF47A60A369338023F04CFE2B6854F869
:104F30002330002B7FF40AAF7E4B9B79002B3FF48C
:104F400005AFE4E77C4AE3695361E369BBB1794BA0
:104F5000DB7953B12B6854F82330002B7FF4F6AE85
:104F6000744B4FF00002DA71F0E6724B4FF0010221
:104F7000DA714FF47A60E369338023F023FE2B6803
:104F800054F82330002B7FF4E1AE6A4BDB79002B21
:104F90003FF4DCAEE4E7684A236A9361236ABBB15D
:104FA000644B1B7A53B12B6854F82330002B7FF4E9
:104FB000CDAE604B4FF000021A72C7E65D4B4FF06A
:104FC00001021A724FF47A60236A338023F0FAFDEB
:104FD0002B6854F82330002B7FF4B8AE554B1B7A66
:104FE000002B3FF4B3AEE4E7534A636AD361636ACC
:104FF000BBB1504B5B7A53B12B6854F82330002B74
:105000007FF4A4AE4B4B4FF000025A729EE6636AE7
:105010003380484B4FF001024FF47A605A7223F00C
:10502000D1FD2B6854F82330002B7FF48FAE414B19
:105030005B7A002B3FF48AAEE4E73F4AA36A13622F
:10504000A36ABBB13B4B9B7A53B12B6854F8233016
:10505000002B7FF47BAE374B4FF000029A7275E65F
:10506000344B4FF001029A724FF47A60A36A338096
:1050700023F0A8FD2B6854F82330002B7FF466AE94
:105080002C4B9B7A002B3FF461AEE4E72A4AE36A9B
:105090005362E36ABBB1274BDB7A53B12B6854F8F8
:1050A0002330002B7FF452AE224B4FF00002DA7215
:1050B0004CE6204B4FF00102DA724FF47A60E36A5B
:1050C000338023F07FFD2B6854F82330002B7FF4CE
:1050D0003DAE184BDB7A002B3FF438AEE4E7164ABE
:1050E000236B9362236BC3B1124B1B7B53B12B68B1
:1050F00054F82330002B7FF429AE0E4B4FF0000202
:105100001A7323E60B4B4FF001021A734FF47A60C7
:10511000236BA9F8003023F055FD2B6854F8233099
:10512000002B7FF413AE034B1B7B002B3FF40EAE22
:10513000E3E700BF6C9101202C910120AA4A636B28
:10514000D362636BBBB1A94B5B7B53B12B6854F843
:105150002330002B7FF4FAADA44B4FF000025A73BA
:10516000F4E5A24B4FF001025A734FF47A60636B7F
:10517000338023F027FD2B6854F82330002B7FF475
:10518000E5AD9A4B5B7B002B3FF4E0ADE4E7D4F850
:105190008830012B1DD0D4F88830022B7FF4D6AD97
:1051A0002B68934954F823208A6054F82320002A5E
:1051B00045D08E4A92F82F20002A33D054F823305D
:1051C000002B7FF4C3AD894B4FF0000283F82F20F2
:1051D000BCE58849E26B8A60E26BC2B1834A92F80F
:1051E0002E2052B12B6854F82330002BD3D17F4BA3
:1051F0004FF0000283F82E20CDE77C4A4FF47A600E
:1052000082F82E30E36BA8F8003023F0DBFC2B682B
:1052100054F82330002BBED1744B93F82E30002B62
:10522000B9D0E4E7714A54F823303B804FF00101D4
:105230004FF47A6082F82F1023F0C4FC2B6854F8E6
:105240002330002B7FF482AD684B93F82F30002B76
:105250003FF47CADB7E7D4F8A430012B1DD0D4F8CF
:10526000A430022B7FF472AD2B68614954F82320DF
:10527000CA6054F82320002A46D05C4A92F83120B4
:10528000002A33D054F82330002B7FF45FAD574B06
:105290004FF0000283F8312058E55649226CCA606D
:1052A000226CC2B1514A92F8302052B12B6854F8A6
:1052B0002330002BD3D14D4B4FF0000283F8302028
:1052C000CDE74A4A4FF47A6082F83030236CABF86D
:1052D000003023F077FC2B6854F82330002BBED12C
:1052E000424B93F83030002BB9D0E4E73F4A54F8F2
:1052F0002330AAF800304FF001014FF47A6082F8B1
:10530000311023F05FFC2B6854F82330002B7FF41E
:105310001DAD364B93F83130002B3FF417ADB6E797
:10532000D4F89C30012B1DD0D4F89C30022B7FF494
:105330000DAD2B682E4954F823200A6154F8232020
:10534000002A45D0294A92F83320002A33D054F855
:105350002330002B7FF4FAAC244B4FF0000283F88B
:105360003320F3E42349626C0A61626CC2B11F4AC4
:1053700092F8322052B12B6854F82330002BD3D14D
:105380001A4B4FF0000283F83220CDE7174A4FF452
:105390007A6082F83230636CA8F8003023F012FC97
:1053A0002B6854F82330002BBED1104B93F83230C9
:1053B000002BB9D0E4E70D4A54F823303B804FF07E
:1053C00001014FF47A6082F8331023F0FBFB2B6865
:1053D00054F82330002B7FF4B9AC044B93F83330EE
:1053E000002B3FF4B3ACB7E72C9101206C91012066
:1053F00024930120FC920120D4F89C30012B1DD075
:10540000D4F89C30022B7FF4A1AC2B68A64954F849
:1054100023204A6154F82320002A3BD0A34A54F8A1
:10542000233092F83520002A2ED0002B7FF48EAC4A
:105430009E4B4FF0000283F8352087E49C4AA36C12
:105440005361A36CABB1994B93F8343053B12B68D3
:1054500054F82330002BD3D1944B4FF0000283F843
:105460003420CDE7A36CA8F800304FF47A6023F025
:10547000A9FB2B6854F82330002BC1D18B4B93F838
:105480003430002BBCD0E7E74FF47A603B8023F048
:1054900099FB2B6854F82330002B7FF457AC834BD7
:1054A00093F83530002B3FF451ACC1E7D4F890307D
:1054B000012B1DD0D4F89030022B7FF447AC2B6821
:1054C000794954F823208A6154F82320002A3BD0DC
:1054D000764A54F8233092F83720002A2ED0002B39
:1054E0007FF434AC714B4FF0000283F837202DE489
:1054F0006F4AE36C9361E36CABB16C4B93F836305D
:1055000053B12B6854F82330002BD3D1674B4FF0A5
:10551000000283F83620CDE7E36CA8F800304FF4A2
:105520007A6023F04FFB2B6854F82330002BC1D155
:105530005E4B93F83630002BBCD0E7E74FF47A602F
:105540003B8023F03FFB2B6854F82330002B7FF483
:10555000FDAB564B93F83730002B3FF4F7ABC1E768
:10556000D4F89430012B1ED0D4F89430022B7FF461
:10557000EDAB2B684C4954F82320CA6154F8232022
:10558000002A3CD0494A54F8233092F83920002AA6
:105590002FD0002B7FF4DAAB444B4FF0000283F89E
:1055A0003920FFF7D3BB424A236DD361236DABB1E2
:1055B0003E4B93F8383053B12B6854F82330002B0E
:1055C000D2D13A4B4FF0000283F83820CCE7236D5C
:1055D000A8F800304FF47A6023F0F4FA2B6854F8FE
:1055E0002330002BC0D1314B93F83830002BBBD087
:1055F000E7E74FF47A603B8023F0E4FA2B6854F835
:105600002330002B7FF4A2AB284B93F83930002BCA
:105610003FF49CABC0E7D4F89830012B1ED0D4F8EF
:105620009830022B7FF492AB2B681F4954F823204B
:105630000A6254F82320002A42D01C4A54F823302E
:1056400092F83B20002A35D0002B7FF47FAB174B1C
:105650004FF0000283F83B20FFF778BB144A636DDC
:105660001362636DABB1114B93F83A3053B12B68B1
:1056700054F82330002BD2D10C4B4FF0000283F8AA
:105680003A20CCE7636DA8F800304FF47A6023F03D
:1056900099FA2B6854F82330002BC0D1034B93F8B0
:1056A0003A30002BBBD0E7E7249301206C91012016
:1056B000FC9201204FF47A603B8023F083FA2B6840
:1056C00054F82330002B7FF441AB9E4B93F83B30D2
:1056D000002B3FF43BABBAE79B4AA36D1363A36D6A
:1056E000CBB1984B9B7D5BB12B6854F82330002BDA
:1056F0007FF42CAB934B4FF000029A75FFF726BB5B
:10570000904B4FF001029A754FF47A60A36DA9F89F
:10571000003023F057FA2B6854F82330002B7FF425
:1057200015AB884B9B7D002B3FF410ABE2E7D4F820
:105730008C30012B1ED0D4F88C30022B7FF406ABBA
:105740002B68824954F823204A6254F82320002A07
:105750003CD07C4A54F8233092F83D20002A2FD0C8
:10576000002B7FF4F3AA774B4FF0000283F83D2023
:10577000FFF7ECBA764A236E5362236EABB1714BDE
:1057800093F83C3053B12B6854F82330002BD2D11E
:105790006C4B4FF0000283F83C20CCE7236EA8F856
:1057A00000304FF47A6023F00DFA2B6854F8233060
:1057B000002BC0D1634B93F83C30002BBBD0E7E704
:1057C0004FF47A603B8023F0FDF92B6854F82330C6
:1057D000002B7FF4BBAA5B4B93F83D30002B3FF4CA
:1057E000B5AAC0E7584A636E5363636EC3B1554BA5
:1057F0005B7E5BB12B6854F82330002B7FF4A6AAA4
:10580000504B4FF000025A76FFF7A0BA4D4B4FF0C5
:1058100001025A764FF47A60636E338023F0D2F936
:105820002B6854F82330002B7FF490AA454B5B7E05
:10583000002B3FF48BAAE3E7434AA36E9363A36E66
:10584000C3B1404B9B7E5BB12B6854F82330002BD7
:105850007FF47CAA3B4B4FF000029A76FFF776BAB2
:10586000384B4FF001029A764FF47A60A36E338082
:1058700023F0A8F92B6854F82330002B7FF466AA94
:10588000304B9B7E002B3FF461AAE3E7314B93F84A
:1058900000C0314B6246002002E03049994207D0F7
:1058A00053F8041F0029F8D00132D2B20120F4E7E6
:1058B00068B1284B1A7062B1264B4FF000021A7083
:1058C000274B93F800C0224B6246002021E062463D
:1058D000F1E7B8F80030ADF806303B88ADF8083095
:1058E0002048BBF80030ADF80C30BAF80030ADF805
:1058F0000E3001A9022300683280A9F80020ADF81B
:105900000420ADF80A201EF05DFBD9E71649994244
:1059100007D053F8041B0029F8D00132D2B201207D
:10592000F4E768B10E4B1A7012B30D4B4FF0000242
:105930001A700E4B93F800C0044B6246002037E00B
:105940006246F1E76C9101202C9101202493012003
:10595000FC920120EC9901202891012068910120FE
:10596000ED9901202C97012024930120EE9901202C
:105970003388ADF804303B88ADF808302848B9F8D2
:105980000030ADF80A30BAF80030ADF80E3001A999
:1059900002230068A8F80020ABF80020ADF806202C
:1059A000ADF80C201EF00EFBC3E71E49994207D04C
:1059B00053F8041B0029F8D00132D2B20120F4E7D9
:1059C00030B3194B1A702ABB3388ADF80430B8F8DD
:1059D0000030ADF806301248B9F80030ADF80A30A2
:1059E000BBF80030ADF80C3001A9022300683A8002
:1059F000AAF80020ADF80820ADF80E201EF0E2FA5B
:105A00004FF47A7023F0DEF800232B60FFF7C1B962
:105A10006246D8E7044B4FF000021A70F0E700BF6F
:105A20002C9701204C930120EE9901202DE980480C
:105A3000002083B021F05AFAC648DFF800A4DFF84E
:105A40000094C54DC54FDFF8FCB3DFF8FC831FF0B1
:105A500017FCC3481FF0CEFB0022AB21042021F02D
:105A6000BBFCC04B00221860AA21012021F0B4FC2D
:105A7000BD4B002218609421012021F0ADFCBB4BEE
:105A8000002218600121502021F0A6FCB84B012112
:105A900018600022084621F09FFCB64B00221860D7
:105AA0000C21142021F098FCB34B002218600C212B
:105AB000052021F091FCB14B002218600C2105203B
:105AC00021F08AFCAE4B002218600C21052021F049
:105AD00083FCAC4B002218600C21052021F07CFCDB
:105AE000A94B002218600821012021F075FCA74B6A
:105AF000002218600521012021F06EFCA44B002239
:105B000018600B21012021F067FCA24B00221860D5
:105B10000821012021F060FC9F4B00221860072122
:105B2000012021F059FC9D4B002218600821012022
:105B300021F052FC9A4B002218600821012021F02C
:105B40004BFC984B002218600921012021F044FCF5
:105B5000954B002218600421012021F03DFC934B5D
:105B6000002218600821012021F036FC904B002211
:105B700018600221012021F02FFC8E4B01211860BA
:105B80000022084621F028FC8B4B002218600221DD
:105B9000012021F021FC894B0022186008210120FE
:105BA00021F01AFC864B002218600521012021F00B
:105BB00013FC844B002218600B21012021F00CFC07
:105BC000814B002218600821012021F005FC7F4B49
:105BD000002218600721012021F0FEFB7C4B0022EF
:105BE00018600821012021F0F7FB7A4B0022186091
:105BF0000821012021F0F0FB774B002218600921D9
:105C0000012021F0E9FB754B0022186004210120DE
:105C100021F0E2FB724B002218600821012021F0E4
:105C2000DBFB704B002218600221012021F0D4FB25
:105C30006D4B012118600022084621F0CDFB6B4B13
:105C4000002218600221012021F0C6FB684B0022CF
:105C500018600C21052021F0BFFB664B0022186064
:105C600001211E2021F0B8FB634B002218600121A6
:105C70001E2021F0B1FB614B012118600022084673
:105C800021F0AAFB5E4B0022186028211E2021F083
:105C9000A3FB5C4B002218604821052021F09CFBEF
:105CA000594B012118600022084621F095FB574B03
:105CB000012118600022084621F08EFB544B00227F
:105CC000186004210C2021F087FB524B0121186041
:105CD0000022084621F080FB4F4B01211860002272
:105CE000084621F079FB4D4B01211860002208463F
:105CF00021F072FB4A4B012118600022084621F076
:105D00006BFB484B012118600022084621F064FB20
:105D1000454B012118600022084621F05DFB434BF2
:105D2000012118600022084621F056FB404B00225A
:105D300018600421012021F04FFB3E4B0022186027
:105D40000221012021F048FB3B4B002218600A2170
:105D50007CE000BF00000020409801202497012033
:105D6000C8000020C4970120C09701201897012087
:105D70001C970120AC970120E8960120549801203F
:105D80003898012048980120289801205C9801202B
:105D90006098012064980120689801206C98012087
:105DA0007098012074980120789801207C98012037
:105DB000809801208498012088980120BC980120B7
:105DC0008C980120909801209498012098980120A7
:105DD0009C980120A0980120A4980120A898012057
:105DE000AC980120B0980120B4980120B898012007
:105DF000C0980120E897012090970120FC9701208E
:105E0000F49701209897012064970120EC960120D7
:105E1000F09601205C970120F4960120F89601206D
:105E2000F897012020980120CC9701206C97012041
:105E300078970120E497012030970120589801209D
:105E40003C9801207C990120D8960120012021F066
:105E5000C3FAB24B002218600C21012021F0BCFAD9
:105E6000AF4B002218600821012021F0B5FAAD4B9C
:105E7000002218600821012021F0AEFAAA4B00226E
:105E800018604421042021F0A7FAA84B00221860D2
:105E90000821012021F0A0FAA54B0022186008215A
:105EA000012021F099FAA34B012118600022084635
:105EB00021F092FAA04B002218600821012021F065
:105EC0008BFA9E4B012118600022084621F084FACB
:105ED0009B4B002218600C210A2021F07DFA994B7F
:105EE000002218600C21142021F076FA964B022132
:105EF00018600022084621F06FFA944B1860944B0A
:105F0000009300231A4642F21071924821F01EFAC3
:105F1000914B1860914B009300231A4642F2107186
:105F20008F4821F013FA8F4B18608F4B009300239A
:105F30001A4642F210718D4821F008FA8C4B186015
:105F40008C4B009300231A4642F210718A4821F0CC
:105F5000FDF98A4B18608A4B009300231A4644F6D9
:105F60002061884821F0F2F9874B1860874B009335
:105F700000231A464FF47A71854821F0E7F9854BE2
:105F80001860854B009300231A464FF4FA6183484A
:105F900021F0DCF9824B1860824B009300231A46F3
:105FA00044F62061804821F0D1F9804B1860804B85
:105FB000009300231A464FF4FA717E4821F0C6F987
:105FC0007D4B18607D4B009300231A464EF66021EE
:105FD0007B4821F0BBF97B4B18607B4B009300237F
:105FE0001A464EF66021794821F0B0F9784B1860D6
:105FF000784B0093012200233221774821F0A6F943
:10600000764B1860764B009301220023C821754817
:1060100021F09CF9744B1860744B0093012200230B
:106020004FF4FA71724821F091F9724B1860724B7B
:106030000093012200234FF47A71704821F086F911
:106040006F4B18606F4B0093012200234EF66021C6
:106050006D4821F07BF96D4B18606D4B0093012268
:1060600000234EF660216B4821F070F96A4B1860EE
:106070006A4B0093012200234EF66021684821F00C
:1060800065F9684B1860684B009300231A464EF67A
:106090006021664821F05AF9654B1860654B009302
:1060A00000231A464EF66021634821F04FF9634BF6
:1060B0001860634B009300231A464EF66021614836
:1060C00021F044F9604B1860604B009300231A469E
:1060D00049F640415E4821F039F95E4B18605E4B4D
:1060E000009300231A4649F640415C4821F02EF9FE
:1060F0005B4B18605B4B009300231A4649F6404106
:10610000594821F023F9594B1860594B009300234B
:106110001A461921574821F019F9ADE0549701208A
:106120002C970120349701203897012044970120B3
:1061300028970120509701204C970120409701207B
:106140003C970120F0970120E0970120489701201B
:10615000298F020090EB0000CC9801205D96020090
:10616000A0EB00005099012081960200ACEB0000EA
:1061700054990120A5960200B8EB0000589901201F
:10618000C9960200C4EB00005C9901204191020015
:10619000D0EB00006C990120D56F0200E0EB00000D
:1061A0003099012039550200F4EB000028990120B4
:1061B000B59C020008EC00002C99012065750200D6
:1061C00018EC000084970120A57502002CEC00005B
:1061D00088970120D19D020040EC000050980120DA
:1061E000DD9D020050EC000034980120E99D020082
:1061F00060EC000044980120BD6C020070EC0000CF
:10620000249801207198020080EC00003C99012044
:10621000919802008CEC00004099012089610200F5
:1062200098EC0000C8980120FD9A0200A8EC00003C
:10623000C4980120159B0200B4EC0000EC980120EA
:106240002D9B0200C0EC0000F09801200D6D0200B3
:10625000CCEC000068990120A19D0200D8EC000060
:106260000C990120558F0200E4EC000038990120C0
:10627000AD9D0200F0EC0000BE4B1860BE4B0093D9
:1062800000231A46C821BD4821F060F8BC4B1860B5
:10629000BC4B009300231A464FF4FA61BA4821F030
:1062A00055F8BA4B1860BA4B009300231A464FF4C6
:1062B000FA61B84821F04AF8B74BB8491860012490
:1062C000B74B01934FF4007200230094B54823F0BC
:1062D0000DFA00238022B449B448CDE9004A23F0E6
:1062E00005FA00238022B249B248CDE9004923F0E3
:1062F000FDF9B14BB149B248CDE9004380220023FA
:1063000023F0F4F9AF4AB049B048CDE90042002388
:10631000802223F0EBF9AE49AE48CDE900410023DD
:106320004FF40072AC4923F0E1F90226AB4801902A
:10633000009600234FF48062A949AA4823F0D6F9B9
:10634000CDE9006500234FF48062A749A74DA84816
:1063500023F0CCF9CDE9004700234FF48072A54922
:10636000A54FA64823F0C2F9CDE9004500238022BD
:10637000A349A448A44D23F0B9F9CDE9004700236F
:106380004FF48072A149A248A24F23F0AFF9A24A6C
:10639000A249A348CDE900420023802223F0A6F9B8
:1063A000A049A148CDE9004100234FF400729F4964
:1063B00023F09CF99E489F49CDE9004000234FF40B
:1063C00000729D4823F092F9CDE9004500234FF477
:1063D00000729A499A4D9B4823F088F9CDE900470D
:1063E00000234FF480729849984F994823F07EF922
:1063F000CDE9004500234FF400729649964823F0FA
:1064000075F9CDE9004700234FF400729349944891
:10641000944F23F06BF900234FF480729249934814
:10642000CDE9004B23F062F9914B92499248CDE9B6
:1064300000638022002323F059F9904B9049914842
:10644000CDE900438022002323F050F98E4A8F4982
:106450008F48CDE9006200234FF4807223F046F9A3
:106460008C4B8D498D48CDE90043802200230025C7
:1064700023F03CF98A4B019300952B4680228949F1
:10648000894823F033F9894989482B46CDE90041F1
:106490008022884923F02AF987488849CDE900609D
:1064A0002B468022864823F021F9CDE90067854EEE
:1064B00085498648864F2B46802223F017F92B46C4
:1064C000CDE900464FF4006282498348834E23F0B1
:1064D0000DF90323019600934FF4C0622B468049C7
:1064E0008048814E23F002F90423019600934FF473
:1064F00000622B467D497E487E4E23F0F7F82B46FE
:106500004FF480727C497D48CDE9004823F0EEF8D5
:106510002B464FF4807278497948CDE9004723F043
:10652000E5F82B46774D744977484FF48072CDE9F2
:10653000004623F0DBF84FF480720023734974485F
:10654000CDE9004523F0D2F80021724823F0E0FBAA
:106550000A21714820F05AF90021704823F0DEFB2F
:1065600021466F4820F0CAF9DBF800001DF028FE34
:10657000D8E000BF8C970120B99D0200FCEC000020
:10658000FC980120F59D02000CED000064990120AB
:10659000959D02001CED0000F89801202CED0000F4
:1065A000F498012069D9000040ED00009506020032
:1065B00050ED0000891402004C98012064ED0000A9
:1065C0006D1901002C98012078ED0000D51602000D
:1065D000EC970120C10101008CED000030980120F2
:1065E000A4ED0000911B0000BCED00000498012008
:1065F00069020000D4ED0000DC960120751D010049
:10660000E8ED0000E94E0200C897012000EE00000E
:1066100061150100009801200898012010EE00008B
:10662000F12202000C980120B510010024EE0000B8
:10663000A09701203CEE0000C940020054EE00008B
:106640002097012025F6000068EE0000D098012078
:10665000791F02007CEE000035C7000090EE0000BC
:1066600055E100007C970120A4EE0000DDEF000062
:106670009C970120BCEE00001D740200949701203D
:10668000D0EE00008500020010970120E4EE00002B
:106690002D12020014970120FCEE0000F14B0000C7
:1066A000B497012014EF000039500200B097012088
:1066B000751D020028EF00007097012038EF0000E0
:1066C000354502006097012050EF00000D460200A2
:1066D0000097012068EF00003DFC00006897012052
:1066E00080EF0000EDD00000FC96012098EF000044
:1066F000F90B010004970120B4EF0000C12702004C
:10670000A54202005897012081430200CCEF00000F
:106710002D580200B19802001C950120BD550200C1
:10672000A8990120DAF800001DF04AFDD9F8000010
:106730001DF046FD334B18681DF042FD324A1068CB
:106740001DF03EFD314908681DF03AFD30480068F3
:106750001DF036FD2F4B18681DF032FD2E4B1868CA
:106760001DF02EFD2D4B18681DF02AFD2C4B1868CE
:106770001DF026FD2B4A10681DF022FD2A480068F6
:106780001DF01EFD294B18681DF01AFD284B1868D6
:106790001DF016FD274B18681DF012FD264B1868DA
:1067A0001DF00EFD254A10681DF00AFD24490868F9
:1067B0001DF006FD234908681DF002FD224800680F
:1067C0001DF0FEFC214B18681DF0FAFC204B1868E8
:1067D0001DF0F6FC1F4B18681DF0F2FC1E4B1868EC
:1067E0001DF0EEFCD8F800001DF0EAFC38681DF042
:1067F000E7FC30681DF0E4FC28681DF0E1FC1EF0A9
:10680000D9FFFEE74C9801202C980120EC9701203D
:1068100030980120409801202497012004980120FD
:10682000DC96012008980120A0970120C89701203C
:106830000098012020970120D09801201097012076
:106840000C980120B0970120709701207C970120BF
:106850006097012068970120FC96012038B5B84C5C
:10686000B84B23604FF40573A380D0F800311BBAF6
:10687000C4F80630B44B4FF4002205469A610A2151
