:10200000F0FF032051090300531403003F1903009C
:10201000D32B0300AB2F0300975C030000000000EC
:10202000000000000000000000000000015E03004E
:10203000632703000000000041190300FD4B03006B
:10204000BB710300BB710300BB710300BB710300D4
:10205000BB710300BB710300BB710300BB710300C4
:10206000BB710300BB710300BB710300BB710300B4
:10207000BB710300CD5F0300ED5F0300BB71030084
:10208000BB7103000D6003002D6003004D60030071
:10209000715D0300955D0300B95D0300ED5703001A
:1020A00015580300BB710300BB710300BB71030033
:1020B000BB710300BB710300BB710300BB71030064
:1020C000BB710300BB710300BB710300BB71030054
:1020D000BB710300BB710300BB710300BB71030044
:1020E000BB710300BB710300000000000000000092
:1020F00000000000BB710300BB710300BB71030053
:10210000BB710300BB710300BB710300BB71030013
:10211000BB710300BB710300A1200300A1200300D9
:10212000A1200300A1200300A1CA0200A1CA02004D
:10213000A1CA0200A1CA0200811E0300811E030081
:10214000811E0300811E0300F11F0300F11F030025
:10215000F11F0300F11F0300492003004920030081
:102160004920030049200300F9200300F92003005F
:10217000F9200300F92003008DF5020019F7020091
:10218000BB710300BB710300BB710300BB71030093
:1021900000000000BB710300BB710300BB710300B2
:1021A000BB710300BB710300BB710300BB71030073
:1021B000BB710300BB710300BB710300BB71030063
:1021C000BB710300BB710300BB710300BB71030053
:1021D000BB710300BB710300BB710300BB71030043
:1021E000BB710300BB710300BB710300BB71030033
:1021F000BB710300BB710300BB710300BB71030023
:10220000BB710300BB710300BB710300BB71030012
:10221000BB710300BB710300BB710300BB71030002
:10222000BB710300BB710300BB710300BB710300F2
:10223000BB710300BB710300BB710300BB710300E2
:10224000BB710300BB710300BB710300BB710300D2
:10225000BB710300BB710300BB710300BB710300C2
:10226000F8B500BFF8BC08BC9E467047D12F0300EC
:10227000F8B500BFF8BC08BC9E467047AD2F030000
:10228000B8820200010000002DE9F04FF9B00024EF
:102290007694779474948DF8D441ADF8CC417194D0
:1022A000729470946D946E948DF8BC416B94CDF8DB
:1022B000AF41689469946A94659466946794629453
:1022C000639464945B945C945D945E945F94609476
:1022D0006194579458945994ADF86841519452942C
:1022E000539454945594CDF857419222214617A8FF
:1022F00034F0A8FD159416941E22214605A834F04A
:10230000A1FDB34FB34CDFF82C83DFF82CA3DFF82B
:102310002C93DFF82CB331E2AF4B18682EF0FEF9A6
:102320000025AAF80050A9F80050AC4B1D70AC4B2A
:102330001D802A4676A9AB4B18682CF039F92A463D
:1023400074A9A94B18682CF033F92A4673A9A74B36
:1023500018682CF02DF99DF8DF31012B40F0D88161
:102360009DF8D231002B40F0D3819DF8D1316D2BF7
:1023700026D89DF8D131632B00F2CA819C4E689615
:1023800040238DF8AA319B4D0023642268A9286858
:102390002BF0F0FF4FF47A7031F0C8FF68960023FD
:1023A0008DF886318DF8AA31642268A928682BF04F
:1023B000E1FF642031F0BAFF8F4B01221A70A7E1D0
:1023C0008E4B1D608E4B1D60894B689340238DF8AA
:1023D000AA31884E2B46642268A930682BF0CAFFC8
:1023E0004FF47A7031F0A2FF814B68938DF88651DB
:1023F0008DF8AA512B46642268A930682BF0BAFFE9
:10240000642031F093FF7C4B01221A700C2388F872
:102410000030AEE77B4B659300258DF898512B4635
:10242000642265A9784800682BF0A4FF642031F08D
:102430007DFF764B629301268DF862618DF88C6189
:102440008DF863518DF88D518DF864518DF88E5152
:102450002B46642262A96E4800682BF08BFF642033
:1024600031F064FF624B68938DF884618DF8A5614B
:102470002B46642268A95F4800682BF07BFF64202C
:1024800031F054FF2A4673A9584B18682CF090F885
:102490009DF8CC31B34240F03B81574B02221A7079
:1024A00036E1534D689540238DF8AA31514E0023F3
:1024B000642268A930682BF05DFF4FF47A7031F028
:1024C00035FF689500258DF886518DF8AA512B4669
:1024D000642268A930682BF04DFF642031F026FF9C
:1024E0002A4674A9404B18682CF062F8002800F0C6
:1024F0000F819DF8D131503BDBB21D2B25D99DF8C2
:10250000D1316D2B0DD9434B1B78002B00F09A80F5
:10251000414B00221A700C2388F8003001202FF064
:1025200069FF3E4B1B681E2B40F3F2803B4B0022A1
:102530001A60384B1B7823B9394B4FF48032C3F8FB
:1025400098202D4B00221A70E2E002202FF052FF5B
:10255000334B4FF48032C3F89420092388F80030BD
:102560002D4B01221A70254B1B6893420ED02D4B28
:102570001B78022B18D0214B1B6813B91E4B03226A
:102580001A70264A136801331360B8E72A468DF89B
:102590004050022310A9244800682BF0EBFE234B87
:1025A00018682EF0BBF8E2E71E4B5B78012BE2D1F6
:1025B000114B03221A7000228DF84420022311A926
:1025C0001B4800682BF0D6FE0D4B01221A60D2E7A3
:1025D000A39B01209C9A012074990120C29B012099
:1025E00032930120509A0120549A0120789A0120B8
:1025F00002C4EC15189A0120719B0120E09A012079
:10260000E89A012001C4EC15FC99012002D4EC15D4
:10261000EC990120939B0120989B0120CC9A0120EA
:1026200000800041889B0120FC980120E498012053
:102630000C9901206D9B01207E9B0120869B01202F
:10264000A19B0120B84B4FF48032C3F89820B74BC0
:1026500018682CF09DFD4FF6FF7030F087FE0023C8
:10266000B34A1360B34A1360B34B1B78002B7FF45B
:102670004FAFB14B01221A70B04B18782FF0F8F819
:1026800046E70025AE4B1D60AE4B659308238DF8E1
:1026900047318DF89B312B46642265A9AA48006812
:1026A0002BF068FE4FF47A7031F040FEA74E68962A
:1026B0008DF885518DF8A8518DF886518DF8AA5165
:1026C0008DF887518DF8AB512B46642268A9A0483C
:1026D00000682BF04FFE4FF47A7031F027FE2A4647
:1026E00073A99C4B18682BF063FF689602238DF842
:1026F00084318DF8A5312B46642268A9944800687E
:102700002BF038FE642031F011FE934B04221A7036
:1027100098F800308DF85130BAF80020ADF84E200E
:10272000B9F80020ADF84C209BF800208DF852201D
:102730003A788DF850208DF848300223002213A9F2
:10274000864800682BF016FE0223002212A9844856
:1027500000682BF00FFE2368012B0BD100232360B0
:102760007D4A13707F4B18682DF0D8FF7E4B186898
:102770002CF00EFD4FF4487031F0D8FD00220DA969
:102780007A4B18682BF014FF28B1794A9DF8343041
:1027900011880B441380704B1B78DBB21E2BB7D80B
:1027A00001A252F823F000BF1923000015240000F5
:1027B000A324000083260000252800001127000024
:1027C00099280000112700001127000011270000A0
:1027D0001127000011270000112700001127000019
:1027E0001127000011270000192A000011270000FE
:1027F000452B0000712D0000412E00001127000024
:10280000B930000011270000112700001127000037
:1028100011270000112700001127000011270000D8
:10282000553A0000002274A9524B18682BF0C0FEE4
:10283000002273A9474B18682BF0BAFE9DF8D231DD
:10284000012B1FD09DF8CC31FA2B02D0FC2B00D0ED
:1028500013B9414B00221A709DF8D1316D2B7FF6D0
:1028600057AF454B1B7823B92F4B4FF48032C3F839
:1028700098200023414A13700C2288F80020364A21
:10288000137045E79DF8D131503BDBB21D2BD9D8F1
:10289000314B06221A70D5E70022274B1A7073A914
:1028A0002C4B18682BF084FE9DF8CC31312B0ED9BF
:1028B0001F4B1B68012B28D0002B41F012820022F5
:1028C0006BA92F4B18682BF073FE00285CD19DF884
:1028D000CC31FA2B02D0FC2B00D053B9144A126829
:1028E000012A19D02AB91C4A00211170104A01216D
:1028F00011600A2B7FF40CAF224B1B780133DBB243
:10290000F02B79D01F4A137002E7134B10221A7074
:102910009DF8CC31FA2BDED10F4A00211170044A08
:1029200001211160E5E700BF0080004118990120F6
:10293000E09A0120E89A0120CE9B01208F9C012083
:10294000CC9A012001C4EC15FC99012002C4EC15BD
:10295000189A0120789A0120719B0120F898012093
:10296000B89801203C990120049A0120389901204F
:1029700032930120549A0120939B0120989B0120BF
:10298000609A0120DA9B01209DF8AC318DF8383037
:102990009DF8AD318DF839309DF8AE318DF83A3073
:1029A0009DF8AF318DF83B309DF8B0318DF83C305B
:1029B0009DF8B1318DF83D30022300220EA9534815
:1029C00000682BF0D7FC9DF83830002B3FF47FAF28
:1029D0004F4B01221A604F4B10221A7002238DF8C0
:1029E0004030002210A94C4800682BF0C3FC4B4B30
:1029F00018682DF093FE6AE70023494A1370454A90
:102A00001370484B40F233121A80474B02221A705F
:102A100011202EF02DFF7BE6414B00221A70434B14
:102A20001B686BBB424B1B78022B2DD1404B5B7854
:102A3000012B29D115468DF84420022311A93D48C8
:102A400000682BF097FC3C4B689301238DF886318E
:102A50008DF8AA312B46642268A9384800682BF00B
:102A600089FC642031F062FC2A4673A9344B186853
:102A70002BF09EFD274B12221A700E202EF0F8FE2E
:102A80002A4B1B68012B22D0002273A92C4B1868FB
:102A90002BF08EFD9DF8CC31FA2B04D0FC2B02D00C
:102AA000002B7FF435AE1B4B00221A70184B01220D
:102AB0001A601C4B4FF49A721A801B4B02221A7038
:102AC000062032F0E5F911202EF0D2FE20E61A4B56
:102AD000689301238DF886318DF8AA310023642292
:102AE00068A9164800682BF045FC642031F01EFCF4
:102AF000002273A9124B18682BF05AFD054B1222C5
:102B00001A700E202EF0B4FEBEE700BF009901201F
:102B1000E09A0120719B0120FC980120E49801209B
:102B2000DA9B012036950120A79B0120E89A01201D
:102B3000889B01200C99012002C4EC15189A0120F1
:102B4000789A01200123A84A1360A84A4FF4001183
:102B5000C2F8181100224E92A54A4F928DF84031CA
:102B600002238DF8413100224EA9A24800682BF0C3
:102B700001FCA14B18682DF0D1FD002271A99F4BDB
:102B800018682BF015FD002800F0D7809DF8C4319F
:102B90009DF8C52102EB0322994981FB0232931073
:102BA00007EE903AF8EEE77A9DF8C6219DF8C73116
:102BB00003EB022381FB03239B1007EE103AB8EED0
:102BC000C77ABDEEC77A17EE103A8E4A92FBF3F33E
:102BD00003EB83035B0007EE103AB8EEC77A8A4B2B
:102BE00083ED007AB2EE047A67EE877A93ED007A8D
:102BF000F4EEC77AF1EE10FA48BFC3ED007A834BCA
:102C0000689300258DF8AA512B46642268A9804854
:102C100000682BF0AFFB642031F088FB7D4B65939F
:102C2000794AD2ED007AFCEEE77A17EE903A8DF809
:102C30009831D2ED007AFCEEE77A17EE903AC3F3C2
:102C400007238DF8993158238DF89A311B238DF87D
:102C50009B314FF010028DF89C2127238DF89D3178
:102C600014268DF89E618DF89F512B46642265A92C
:102C7000694800682BF07EFB4FF4967031F056FBEC
:102C80008DF898618DF89951C8238DF89A318DF897
:102C90009B518DF89C618DF89D5164268DF89E6145
:102CA0008DF89F515D4B65932B46324665A95A4876
:102CB00000682BF05FFB4FF4967031F037FB022376
:102CC0008DF886318DF8AA31504B68932B463246E9
:102CD00068A94F4800682BF04DFB304631F026FBC9
:102CE00010202EF0C5FD2A4673A94D4B18682BF015
:102CF0005FFC9DF8CC21A2F15B03DBB2092B08D865
:102D0000484B13221A70394B4FF48012C3F8142128
:102D100013E0FA2A01D0FC2A27D1424B00221A7074
:102D2000414B40F235121A80404B02221A700820A3
:102D300032F0AEF811202EF09BFD00250E95ADF877
:102D40003C5002232A460EA9394800682BF012FB9A
:102D50008DF8405002232A4610A9364800682BF00F
:102D600009FB354B1D809D70D2E4002AD5D0E4E7E5
:102D7000002274A9314B18682BF01AFC9DF8D13150
:102D8000312B7FF6C5AC194BD3F8203113F0807F7F
:102D900019D101238DF885318DF8A8310C238DF8D8
:102DA00086318DF8AA31194B68930023642268A9F3
:102DB000174800682BF0DEFA642031F0B7FA194B9F
:102DC00014221A70A4E4174B00221A70164B40F21A
:102DD00035121A80154B02221A70072032F058F86B
:102DE00011202EF045FD93E4E89A01200080004177
:102DF00000004843AC990120B0990120689A012055
:102E000067666666701101008099012002C4EC15A6
:102E1000189A012003C4EC15FC99012004C0EC159C
:102E2000789A0120719B012036950120A79B0120F3
:102E300000990120FC980120889B0120549A0120D0
:102E4000002270A9824B18682BF0B2FB9DF8C031AC
:102E50009DF8C12102EB03227E4981FB02329210D0
:102E600007EE902AF8EEE77A7B4BC3ED007A9DF8E7
:102E7000C2219DF8C33103EB022381FB03239B1086
:102E800007EE103AB8EEC77A744B83ED007A4FF034
:102E900080434E93CDED4F7A01238DF840310223CC
:102EA0008DF8413100224EA96D4800682BF062FA7E
:102EB0006C4B18682DF032FC9DF8C1318DF8A431AF
:102EC0009DF8C0318DF8A531674B689300236422CB
:102ED00068A9664800682BF04DFA642031F026FAA4
:102EE000002273A9624B18682BF062FB00283FF4A4
:102EF0000FAC9DF8CC31782B1AD09DF8CC31FA2B41
:102F000004D0FC2B02D0002B7FF402AC594B1E22C4
:102F10001A70594B4FF49B721A80584B02221A7048
:102F2000082031F0B5FF11202EF0A2FCFFF7F0BB16
:102F3000534B1E6834F0EAF84EF6602500950023E6
:102F400002460121304630F051F94E4B1E6834F0F4
:102F5000DDF80095002302460121304630F046F9A5
:102F6000494B1E6834F0D2F8009500230246012137
:102F7000304630F03BF9454B1E6834F0C7F80095F9
:102F8000002302460121304630F030F9404B1E68E4
:102F900034F0BCF80095002302460121304630F0A1
:102FA00025F93C4B1E6834F0B1F800950023024629
:102FB0000121304630F01AF912202EF059FC03207E
:102FC0002FF018FA2B4B16221A70334B187830F06A
:102FD00035FF642031F0AAF9304D287830F04AFFEF
:102FE000642031F0A3F92E4E308830F05FFF64206A
:102FF00031F09CF92B49087830F090FF642031F0D3
:1030000095F92948007830F06DFF642031F08EF991
:10301000264A107830F09EFF642031F087F9244B67
:103020001A68244B1A6031882B781B4A12781B02CD
:1030300043EA014313433F931B480178194B1B7824
:103040001A4A12781B0243EA01431343409354E7A0
:10305000709A012067666666549B0120AC9A012035
:10306000AC990120B099012005C4EC15189A0120F3
:10307000789A0120719B012036950120A79B0120A1
:10308000909A0120149B0120189B01201C9B012079
:10309000209B01204C990120B39B0120CC9B012057
:1030A000FA8C0120CB9B0120BC9B0120D89B0120E6
:1030B0006C990120D8990120444B18682DF02EFB03
:1030C000434B188830F012FE424B1B78072B77D009
:1030D000002270A9404B18682BF06AFA002840F0D3
:1030E000978000226DA93D4B18682BF061FAA0B1C2
:1030F0003B4A13789DF8B6013A49C854062188F82E
:10310000001001331370334B1B78042B40F2A8835B
:10311000304B1B78052B00F0AE83334B1B78052B0F
:1031200000F0B1832E4B1B78052B00F025842F4B2C
:103130001B782BB92E4B1B78DBB2012B00F03B84A4
:103140002A4B1B78DBB2012B00F040849DF8CC3178
:10315000292B03D0FA2B01D0FC2B12D1254B1E2298
:103160001A70092388F80030234BCA221A80234B97
:1031700002221A700A2031F08BFE214B1A68214B73
:103180001A609DF8B431012B00F037841E4B1B7878
:10319000022B7FF4BDAA1C4B9B78012B7FF4B8AAAD
:1031A000144B1E221A70092388F80030164B002297
:1031B0001A809A70124B1A68124B1A60FFF7A8BA5D
:1031C000124B187831F0A2FB82E700BF189901205A
:1031D00032930120C29B0120709A01206C9A012039
:1031E000BF9B012028980120C79B0120939B0120B1
:1031F000989B0120719B012036950120A79B0120FF
:103200006C990120E0990120889B01207D9B012081
:103210009DF8C2219DF8C33103EB0223CA4A82FB09
:1032200003139B0807EE903AF8EE677AC74BC3ED9D
:10323000007A9DF8C0119DF8C13103EB012382FB98
:1032400003239B0807EE103AB8EE477AC04B83ED94
:10325000007A17EE900A31F09DF802460B46BD4900
:1032600005A833F05FF91E2105A82DF097FF33F074
:1032700051FD0028FBD0B54BD3ED007AB44BD3ED14
:10328000006A27EEA67AB44B83ED007AB34B1B7825
:10329000002B40F08880B24B1A68B24B1A6093ED55
:1032A000006AB4EEC67AF1EE10FA35D5AE4B1B7853
:1032B00033BB9FEDAE7A76EE876ACDED4F6AA94BB0
:1032C00093ED006AAA4BD3ED006A86EE267AF4EEFF
:1032D000C77AF1EE10FAC0F2A480F5EE007A27EE7C
:1032E000277A8DED4E7A03238DF8413101238DF835
:1032F0004031022300224EA99E4800682BF03AF884
:10330000994B1B78DBB2012B00F09880964B1B7811
:10331000DBB2012B00F0D980924BD3ED007A8E4BBB
:1033200093ED007AB4EEE77AF1EE10FA3BDD8E4BC6
:103330001B7863BB864BD3ED007A9FED8C7A77EEDA
:10334000877ACDED4F7A874BD3ED006A884BD3ED6A
:10335000007A86EEA77A7D4BD3ED007AB4EEE77A59
:10336000F1EE10FA00F21681F5EE007A27EE277AD8
:103370008DED4E7A03238DF8413101238DF84031D4
:10338000022300224EA97B4800682AF0F3FF764B07
:103390001B78DBB2012B00F00A81734B1B78DBB288
:1033A000012B00F04B816D4B1B78DBB2012B00F041
:1033B00084819DF8C2019DF8C3516F4E32784FEA67
:1033C000820C6E49614405EB0023DFF87CE18EFB43
:1033D00003E39B0807EE903AF8EE677AC1ED007AB6
:1033E000674B9C44624B1B68CCF800300132327052
:1033F0009DF8C1318DF8A4319DF8C0318DF8A5310B
:103400008DF8A6518DF8A7015E4B689300236422C6
:1034100068A95D4800682AF0ADFF322030F086FFD1
:103420005FE6F4EEC77AF1EE10FA7FF55CAFB5EE29
:10343000007A67EE877ACDED4E7A54E7534B1B78CE
:10344000DBB2112B7FF662AF514B4FF40012C3F881
:1034500018213F4BD3ED007A9FED447A77EE877ABF
:10346000CDED4F7A3F4BD3ED007AB6EE007A67EEA2
:10347000877A3F4BD3ED006A87EEA67A334BD3EDC4
:10348000007AB4EEE77AF1EE10FA12D8F6EE007A8E
:1034900027EE277A8DED4E7A02238DF841310122F5
:1034A0008DF8402100224EA9324800682AF062FFC0
:1034B00032E7B4EEE77AF1EE10FAEDDDB6EE007A1F
:1034C00067EE877ACDED4E7AE6E7304B1B78DBB2BC
:1034D000112B3FF621AF1E4BD3ED007A9FED237ADF
:1034E00077EE877ACDED4F7A1E4BD3ED006A204BF5
:1034F000D3ED007A86EEA77A144BD3ED007AB4EEC2
:10350000E77AF1EE10FA13D8F5EE007A27EE277A73
:103510008DED4E7A03238DF8413101238DF8403132
:10352000022300224EA9134800682AF023FFF3E685
:10353000B4EEE77AF1EE10FAECDDB5EE007A67EE64
:10354000877ACDED4E7AE5E767666666AC9A01202C
:10355000549B0120603F01000C9B01209F9B012098
:10356000A89D012098990120939B01200000000054
:10357000B09D0120AC990120C79B01202C96012011
:103580005496012005C4EC15189A01208F9B012048
:1035900000800041B4EEE77AF1EE10FA7FF7EAAE70
:1035A000B5EE007A67EE877ACDED4E7AE2E6BF4B54
:1035B0001B78DBB2112B7FF6F0AEBD4B4FF400123F
:1035C000C3F81821BB4BD3ED007A9FEDBB7A77EEA1
:1035D000877ACDED4F7AB94BD3ED007AB6EE007A0B
:1035E00067EE877AB64BD3ED006A87EEA67AB54BC5
:1035F000D3ED007AB4EEE77AF1EE10FA12D8F6EED7
:10360000007A27EE277A8DED4E7A02238DF841312C
:1036100001228DF8402100224EA9AB4800682AF013
:10362000A9FEC0E6B4EEE77AF1EE10FAEDDDB6EEF3
:10363000007A67EE877ACDED4E7AE6E79B4B1B78F2
:10364000DBB2112B3FF6AFAE9A4BD3ED007A9FED74
:103650009A7A77EE877ACDED4F7A984BD3ED006A60
:10366000974BD3ED007A86EEA77A964BD3ED007A8E
:10367000B4EEE77AF1EE10FA13D8F5EE007A27EE01
:10368000277A8DED4E7A03238DF8413101238DF891
:103690004031022300224EA98B4800682AF06AFEBE
:1036A00081E6B4EEE77AF1EE10FAECDDB5EE007AE1
:1036B00067EE877ACDED4E7AE5E7844B1B785BBBEE
:1036C0007C4BD3ED007A9FED7C7A77EE877ACDED57
:1036D0004F7A7F4BD3ED006A794BD3ED007A86EEBB
:1036E000A77A784BD3ED007AB4EEE77AF1EE10FAD0
:1036F00050D8F5EE007A27EE277A8DED4E7A032327
:103700008DF8413101238DF84031022300224EA96A
:103710006D4800682AF02EFE6C4B1B78DBB2012B43
:1037200044D06A4B1B78DBB2012B7FF442AE5F4B77
:103730001B78DBB2112B3FF63CAE5E4BD3ED007A2B
:103740009FED5D7A77EE877ACDED4F7A604BD3EDC2
:10375000006A5B4BD3ED007A86EEA77A594BD3ED26
:10376000007AB4EEE77AF1EE10FA6DD8F5EE007A51
:1037700027EE277A8DED4E7A03238DF84131012310
:103780008DF84031022300224EA94F4800682AF0EC
:10379000F1FD0EE6B4EEE77AF1EE10FAAFDDB5EE2C
:1037A000007A67EE877ACDED4E7AA8E73F4B1B781B
:1037B000DBB2112BB5D93E4B4FF40012C3F81821E0
:1037C000434B93ED007ADFED437AB4EEE77AF1EE06
:1037D00010FAC8BFC3ED007A364BD3ED007A9FEDE7
:1037E000367A77EE877ACDED4F7A394BD3ED006A92
:1037F000334BD3ED007A86EEA77A324BD3ED007AC5
:10380000B4EEE77AF1EE10FA12D8F6EE007A27EE6F
:10381000277A8DED4E7A02238DF8413101228DF801
:10382000402100224EA9284800682AF0A3FDC0E5E7
:10383000B4EEE77AF1EE10FAEDDDB6EE007A67EE5F
:10384000877ACDED4E7AE6E7B4EEE77AF1EE10FA3C
:1038500092DDB5EE007A67EE877ACDED4E7A8BE792
:1038600031F054F89DF8B6211B4B1A701B4A13789F
:10387000013313704CE4194B07221A709DF8B631CE
:103880008BF8003049E44FF0000C154B83F800C072
:10389000BAF80010B9F80000124B134A03F1140EE5
:1038A000CDF80CC01E461546029121E08F9B0120E9
:1038B00000800041549B01200000000098990120E5
:1038C000B09D0120AC9A0120AC990120939B01206E
:1038D000A099012000B808477D9B0120C29B0120D0
:1038E000C79B01202C96012054960120734525D0BA
:1038F000F3EC017A96ED007AB4EEE77AF1EE10FA85
:1039000009D8C6ED007AFCEEE77A17EE901A89B274
:1039100002914FF0010CF2EC017A95ED007AB4EED1
:10392000E77AF1EE10FAE1D8C5ED007AFCEEE77A1D
:1039300017EE901A88B201210391D7E70299BCF1E2
:10394000000F01D0AAF80010039B0BB1A9F80000EA
:10395000344BD3ED007AFCEEE77A17EE900A30F0A4
:10396000FDF9314BD3ED007AFCEEE77A17EE900AC1
:1039700030F0D8F9FFF7D6BB00252C4B1D7097F817
:1039800000C02B4B5E1D18464FF0010E01E0B34204
:1039900008D013F8012B01789142F8D802709446B0
:1039A0007546F4E70DB187F800C0214B187830F068
:1039B00095FFFFF7BCBB00228DF84420022311A91C
:1039C0001C4800682AF0D6FCFFF7BABB1A4B1B78DC
:1039D000DBB2012B7FF4BAAB184B1B78DBB2132B95
:1039E0007FF6B4AB00228DF84420022311A91148C0
:1039F00000682AF0BFFCFFF7A9BB114B1E221A700A
:103A0000092388F800300F4BC9221A800E4B02227E
:103A10001A700A2031F03CFA0C4B1A680C4B1A60F1
:103A2000FFF7B4BB2C96012054960120BF9B0120C8
:103A3000289801200C990120989B01208F9B012040
:103A4000719B012036950120A79B01206C990120D4
:103A5000E0990120A74B1B78DBB2012B00F0098114
:103A6000A54B1B78DBB2012B00F019814FF003034B
:103A70008DF884318DF8A531A04B6893A04E0023BA
:103A8000642268A930682AF075FC322030F04EFCC0
:103A900000258DF8A4518DF8A5519A4A68922B46BD
:103AA000642268A930682AF065FC322030F03EFCC0
:103AB00095494FF48010C1F81801944B1A68944B43
:103AC0001A608C4B1D7002238DF841318DF84051E6
:103AD0002A464EA98F4800682AF04CFC40F6B830C0
:103AE00030F024FC4FF003008DF8A501834B689360
:103AF0002B46642268A8014630682AF03BFC32203D
:103B000030F014FC8DF8A4518DF8A5517D4A6892CF
:103B10002B46642268A8014630682AF02BFC32202C
:103B200030F004FC78494FF48013C1F818310A23AF
:103B300000932B462A460321774800682FF056FB56
:103B4000764B187830F022FA754B187830F03AFA44
:103B5000744B188830F052FA734B187830F086FAAC
:103B6000724B187830F066FA714B187830F09AFA88
:103B7000704B186830F0CEFA6F4B1B78DBB2012B1C
:103B800000F0A3806C4B1B78DBB2022B00F0A1800D
:103B9000694B1B78DBB2032B00F09F805C4BD3EDAD
:103BA000007AFCEEE77A654B93ED007ABCEEC77ABB
:103BB00017EE903A17EE102A9B1A07EE903AF8EE9D
:103BC000677A5F4DC5ED007AFCEEE77A17EE900A52
:103BD00030F084FA5B4B15221A7005202EF00AFC97
:103BE000544B1B683E934F4B19884D4B1B784B4AE7
:103BF00012781B0243EA0143134341934B4B19785C
:103C0000494B1B784A4A12781B0243EA014313438B
:103C100042934D4B1A783B7843EA02434393D5EDE8
:103C2000007AFCEEE77A17EE903A43F400334493BF
:103C3000414B1A78454D2B8843EA024345930223B2
:103C40008DF8F030002364223CA9414800682AF036
:103C500091FB404B18682CF061FD0123236000228A
:103C60002A803D4A13703D4A13703D4A1370FEF797
:103C70004FBD214B1B78002B7FF4F2AE00228DF854
:103C8000402103238DF8413102234EA921480068C9
:103C90002AF070FB40F6B83030F048FBE0E6154BF8
:103CA0001B78DBB2012B7FF4E1AE00228DF84021BE
:103CB00002238DF841314EA9164800682AF05AFBBC
:103CC00040F6B83030F032FBD0E6012031F0E0F8B9
:103CD00058E7022031F0DCF85AE7032031F0D8F839
:103CE0005CE79DF8CC31FA2B7EF4F5AD1D4A1268E5
:103CF000FEF7F8BD989B0120939B012002C4EC15B0
:103D0000189A012005C4EC15008000416C9901202F
:103D1000E0990120AC9901204C990120B39B01202E
:103D2000CC9B0120FA8C0120CB9B0120BC9B012065
:103D3000D89B0120A4980120A69B0120D89901209E
:103D4000CC9801208F9C01207D9B01203293012083
:103D50002499012028990120979B0120969B0120FE
:103D6000959B0120E09A01202DE9F04FF1B000244D
:103D70006E946F946C94CDF8B3416A948DF8AC4115
:103D8000ADF8A441679468946694639464948DF844
:103D900094416094619462945D945E945F945A94AB
:103DA0005B945C94539454945594569457945894BB
:103DB00059944F9450945194ADF8484149944A9481
:103DC0004B944C944D94CDF8374146944794489485
:103DD000922221460FA833F035F80D940E94B34E7D
:103DE000B34FDFF82C83DFF82C93DFF82CB3DFF828
:103DF0002CA32DE2AF4B18682CF090FC0024AE4BA6
:103E00001C70A9F80040ABF80040AC4B1C80224667
:103E10006EA9AB4B18682AF0CBFB22466AA9A94BC6
:103E200018682AF0C5FB224669A9A74B18682AF032
:103E3000BFFB9DF8BF31012B40F0D2819DF8AA3124
:103E4000002B40F0CD819DF8A9316D2B26D89DF82F
:103E5000A931632B00F2C4819C4D609540238DF8FD
:103E60008A319B4C0023642260A920682AF082FAE0
:103E70004FF47A7030F05AFA609500238DF8513182
:103E80008DF88A31642260A920682AF073FA6420D0
:103E900030F04CFA8F4B01221A70A1E18E4B1C605E
:103EA0008E4B1C60894B609340238DF88A31884D7E
:103EB0002346642260A928682AF05CFA4FF47A70DD
:103EC00030F034FA814B60938DF851418DF88A417E
:103ED0002346642260A928682AF04CFA642030F056
:103EE00025FA7C4B01221A700C2388F80030AEE7CB
:103EF0007B4B5D9300248DF87841234664225DA9B5
:103F0000784800682AF036FA642030F00FFA764BD1
:103F10005A9301258DF842518DF86C518DF843412B
:103F20008DF86D418DF844418DF86E412346642231
:103F30005AA96E4800682AF01DFA642030F0F6F99C
:103F4000624B60938DF84F518DF885512346642262
:103F500060A95F4800682AF00DFA642030F0E6F9A5
:103F6000224669A9584B18682AF022FB9DF8A43113
:103F7000AB4240F03581574B02221A7030E1534C6E
:103F8000609440238DF88A31514D0023642260A94A
:103F900028682AF0EFF94FF47A7030F0C7F960948E
:103FA00000248DF851418DF88A412346642260A98E
:103FB00028682AF0DFF9642030F0B8F922466AA9AF
:103FC000404B18682AF0F4FA002800F009819DF8A7
:103FD000A931503BDBB21D2B25D99DF8A9316D2BA2
:103FE0000DD9434B1B78002B00F09A80414B0022E7
:103FF0001A700C2388F80030012030F06DFE3E4B23
:104000001B681E2B40F3EC803B4B00221A60384BA0
:104010001B7823B9394B4FF48032C3F898202D4BCD
:1040200000221A70DCE0022030F056FE334B4FF4D1
:104030008032C3F89420092388F800302D4B0122E8
:104040001A70254B1B6893420ED02D4B1B78012B09
:1040500018D0214B1B6813B91E4B03221A70264A35
:10406000136801331360B8E722468DF8204002231D
:1040700008A9244800682AF07DF9234B18682CF021
:104080004DFBE2E71E4B5B78012BE2D1114B032283
:104090001A7000228DF82420022309A91B48006809
:1040A0002AF068F90D4B01221A60D2E7A29B012089
:1040B000989A012074990120C19B0120FE92012051
:1040C000209A0120249A0120489A012002C0EC1570
:1040D000189A01208F9B0120DC9A0120E49A01208C
:1040E00001C0EC15FC99012002D0EC15EC990120DF
:1040F000989B0120939B0120C89A012000800041D9
:104100008C9B0120FC980120E49801200C9901204F
:104110002D980120769B0120829B0120A09B0120ED
:10412000AF4B4FF48032C3F89820AE4B18682BF099
:104130002FF84FF6FF702FF019F90023AA4A1360E9
:10414000AA4A1360AA4B1B78002B7FF44FAFA84BF1
:1041500001221A70A74B18782DF08AFB46E700243D
:10416000A54B1C60A54B5D9308238DF825318DF878
:104170007B31234664225DA9A14800682AF0FAF841
:104180004FF47A7030F0D2F89E4D60958DF8504122
:104190008DF888418DF851418DF88A418DF8524152
:1041A0008DF88B412346642260A9974800682AF065
:1041B000E1F84FF47A7030F0B9F8609502238DF889
:1041C0004F318DF885312346642260A98E480068FE
:1041D0002AF0D0F8642030F0A9F88C4B04221A7031
:1041E00098F800308DF83130B9F80030ADF82E3045
:1041F000BBF80030ADF82C309AF800308DF8323032
:1042000033788DF83030022300220BA980480068F3
:104210002AF0B0F898F800308DF8283002230022F8
:104220000AA97C4800682AF0A5F83B68012B0BD14D
:1042300000233B60754A1370774B18682CF06EFAB8
:10424000764B18682AF0A4FF4FF4FA7030F06EF83D
:104250006E4B1B78DBB21E2BC2D801A252F823F0A2
:10426000F53D0000F13E00007F3F00005F4100008F
:10427000DD420000E141000051430000E141000047
:10428000E1410000E1410000E1410000E1410000A6
:10429000E1410000E1410000E1410000E141000096
:1042A000C7440000E1410000F54500002D48000032
:1042B00005490000E14100007D4B0000E1410000A4
:1042C000E1410000E1410000E1410000E141000066
:1042D000E1410000E14100000155000000226AA90F
:1042E0004F4B18682AF064F9002269A94D4B1868F1
:1042F0002AF05EF99DF8AA31012B1FD09DF8A43158
:10430000FA2B02D0FC2B00D013B9404B00221A70BC
:104310009DF8A9316D2B7FF663AF434B1B7823B912
:104320002F4B4FF48032C3F8982000233F4A13707C
:104330000C2288F80020354A137051E79DF8A93106
:10434000503BDBB21D2BD9D8304B06221A70D5E773
:104350000022274B1A7069A9324B18682AF028F9F5
:104360009DF8A431312B0ED91F4B1B68012B28D08F
:10437000002B41F0048200226CA92D4B18682AF012
:1043800017F9002858D19DF8A431FA2B02D0FC2B44
:1043900000D053B9144A1268012A19D02AB91B4A0D
:1043A00000211170104A012111600A2B7FF418AF0F
:1043B000204B1B780133DBB2F02B74D01D4A1370F5
:1043C0000EE7124B10221A709DF8A431FA2BDED1A1
:1043D0000E4A00211170044A01211160E5E700BF77
:1043E0000080004118990120DC9A0120E49A012004
:1043F000CD9B01208F9C0120C89A012001C0EC15A3
:10440000FC99012002C0EC15189A01208F9B012015
:10441000F4980120B498012030990120F4990120EA
:10442000249A0120489A0120989B0120939B012007
:10443000309A0120D99B01209DF8B0318DF81830B9
:104440009DF8B1318DF819309DF8B2318DF81A30E0
:104450009DF8B3318DF81B309DF8B4318DF81C30C8
:104460009DF8B5318DF81D300223002206A953486E
:10447000006829F07FFF9DF81830002B83D00123BE
:104480004F4A13604F4A102111708DF820304E4B67
:1044900018682CF043F90223002208A94B48006851
:1044A00029F068FF6FE70023494A1370454A1370EB
:1044B000484B40F233121A80474B01221A700820F1
:1044C0002DF0D6F98CE6424B00221A70434B1B6844
:1044D00073BB434B1B78012B2ED1414B5B78012BD7
:1044E0002AD114468DF82420022309A93D480068EA
:1044F00029F040FF3C4B609301238DF851318DF83A
:104500008A312346642260A93848006829F032FFC6
:1045100064202FF00BFF4FF47A7269A9344B1868AE
:104520002AF046F8274B12221A7005202DF0A0F928
:104530002A4B1B68012B21D0002269A92C4B18683B
:104540002AF036F89DF8A431FA2B04D0FC2B02D0C7
:10455000002B7FF445AE1B4B00221A700123184A32
:1045600013601C4A4FF49A7111801B4A1370062085
:1045700030F078FC08202DF07BF931E61A4B60937F
:1045800001238DF851318DF88A310023642260A90E
:104590001648006829F0EEFE64202FF0C7FE4FF4A5
:1045A0007A7269A9124B18682AF002F8054B122298
:1045B0001A7005202DF05CF9BEE700BF00990120BC
:1045C000DC9A01208F9B0120E4980120FC980120B7
:1045D000D99B012036950120A79B0120E49A012058
:1045E0008C9B01200C99012002C0EC15189A012027
:1045F000489A0120AD4B4FF40012C3F81821002354
:104600004693AB4B479301248DF820418DF821410F
:104610000023642246A9A748006829F0ABFEA64BF8
:1046200018682CF07BF8A54B1C60002267A9A44BEE
:10463000186829F0BDFF002800F0D3809DF89C3158
:104640009DF89D2102EB03229E4981FB02329310CB
:1046500007EE903AF8EEE77A9DF89E219DF89F319B
:1046600003EB022381FB03239B1007EE103AB8EE05
:10467000C77ABDEEC77A17EE103A934A92FBF3F36E
:1046800003EB8303A34007EE103AB8EEC77A8F4BD3
:1046900083ED007AB2EE047A67EE877A93ED007AC2
:1046A000F4EEC77AF1EE10FA48BFC3ED007A884BFA
:1046B000609300248DF88A412346642260A98548CE
:1046C000006829F057FE64202FF030FE824B5D9386
:1046D0007E4AD2ED007AFCEEE77A17EE903A8DF83A
:1046E0007831D2ED007AFCEEE77A17EE903AC3F318
:1046F00007238DF8793158238DF87A311B238DF8F3
:104700007B3110238DF87C3127238DF87D311425E2
:104710008DF87E518DF87F41234664225DA96F4854
:10472000006829F027FE4FF4FA702FF0FFFD8DF896
:1047300078518DF87941C8238DF87A318DF87B4115
:104740008DF87C518DF87D4164258DF87E518DF872
:104750007F41634B5D9323462A465DA95F4800680D
:1047600029F008FE4FF4FA702FF0E0FD02238DF8D7
:1047700051318DF88A3103F1AF5303F54C23609327
:1047800023462A4660A95348006829F0F3FD4FF4F8
:10479000FA702FF0CBFD07202DF06AF8224669A9A8
:1047A000504B186829F004FF9DF8A4315B3BDBB245
:1047B000092B2ED99DF8A431FA2B02D0FC2B00D066
:1047C0007BB9494B00221A70484B40F235121A80CF
:1047D000474B01221A70082030F044FB08202DF0CE
:1047E00047F800240694ADF81C408DF820400223C1
:1047F000224608A93F48006829F0BCFD0223224652
:1048000006A93D48006829F0B5FD3C4B1C809C7012
:10481000E6E4354B13221A704FF47A702FF086FDC0
:10482000224B4FF40022C3F81421C3E700226AA9E7
:10483000334B186829F0BCFE9DF8A931312B1ED9E5
:104840001A4BD3F8A03013F4000F1DD101238DF8BB
:1048500050318DF888310C238DF851318DF88A3123
:104860001B4B60930023642260A91A48006829F05A
:1048700081FD64202FF05AFD1B4B14221A704FF457
:104880007A702FF053FDABE4174B00221A70174BD0
:1048900040F235121A80164B01221A70072030F0B0
:1048A000E1FA08202CF0E4FFE9E700BF00800041B6
:1048B00000004843AC990120B0990120E49A0120FE
:1048C000389A012067666666701101007C990120A4
:1048D00002C0EC15189A012003C0EC15FC990120C8
:1048E00004C0EC15489A01208F9B012036950120C9
:1048F000A79B0120FC980120009901208C9B01209E
:10490000249A0120002266A9824B186829F050FEE3
:104910009DF898319DF8992102EB03227E4981FB95
:104920000232921007EE902AF8EEE77A7B4BC3ED45
:10493000007A9DF89A219DF89B3103EB022381FBBD
:1049400003239B1007EE103AB8EEC77A744B83ED41
:10495000007A4FF080434693CDED477A01238DF8DE
:1049600020318DF821310023642246A96D4800686A
:1049700029F000FD6C4B18682BF0D0FE9DF89931A2
:104980008DF884319DF898318DF88531674B6093AF
:104990000023642260A96648006829F0EBFC0A2025
:1049A0002FF0C4FC002269A9624B186829F000FEB0
:1049B00000283FF415AC9DF8A431782B1AD09DF84F
:1049C000A431FA2B04D0FC2B02D0002B7FF408ACCE
:1049D000594B1E221A70594B4FF49B721A80584B38
:1049E00001221A70082030F03DFA08202CF040FF18
:1049F000FFF7F6BB534B1D6832F088FB4EF6602480
:104A0000009400230246012128462EF0EFFB4E4B76
:104A10001D6832F07BFB00940023024601212846EA
:104A20002EF0E4FB494B1D6832F070FB009400232C
:104A30000246012128462EF0D9FB454B1D6832F075
:104A400065FB009400230246012128462EF0CEFB90
:104A5000404B1D6832F05AFB0094002302460121AE
:104A600028462EF0C3FB3C4B1D6832F04FFB0094F0
:104A700000230246012128462EF0B8FB09202CF025
:104A8000F7FE032030F028F92B4B16221A70334B17
:104A900018782EF0A3FF64202FF048FC304C2078CB
:104AA0002EF0B8FF64202FF041FC2E4D28882EF008
:104AB000CDFF64202FF03AFC2B4908782EF0FEFF42
:104AC00064202FF033FC294800782EF0DBFF6420AF
:104AD0002FF02CFC264A10782FF00CF864202FF0D1
:104AE00025FC244B1A68244B1A60298823781B4A1A
:104AF00012781B0243EA0143134337931B480178A2
:104B0000194B1B781A4A12781B0243EA01431343DC
:104B1000389354E7409A012067666666509B0120EF
:104B2000A89A0120AC990120B099012005C0EC158C
:104B3000189A0120489A01208F9B01203695012068
:104B4000A79B012048990120909A0120149B0120E5
:104B5000189B01201C9B0120209B0120B39B01205E
:104B6000CC9B0120FA8C0120CB9B0120BC9B012017
:104B7000D89B012068990120D4990120002205A921
:104B8000BD4B186829F014FD28B1BC4A9DF81430BB
:104B900011880B441380BA4B18682BF0BFFDB74B3C
:104BA00018882EF073FEB74B1B78072B00F0A281FC
:104BB000002266A9B44B186829F0FAFC002800F01E
:104BC000EE809DF89A319DF89B2102EB0322AF49BC
:104BD00081FB0232930807EE103AB8EE477AAC4BED
:104BE00083ED007A9DF898219DF8993103EB02231B
:104BF00081FB03239B0807EE903AF8EE677AA54BFA
:104C0000C3ED007A67EE276AA34BC3ED006AA34B9E
:104C10001B78002B40F08880A14B1A68A14B1A60CA
:104C200093ED006AF4EEC66AF1EE10FA35D59E4BAC
:104C30001B7833BBDFED9D6A77EEA67ACDED477A20
:104C4000984B93ED006A9A4BD3ED006AC6EE267A34
:104C5000B4EEE77AF1EE10FAC0F25181B5EE007AC7
:104C600067EE877ACDED467A03238DF82131012353
:104C70008DF820310223002246A98E48006829F0D1
:104C800079FB894B1B78DBB2012B00F04581864B09
:104C90001B78DBB2012B00F08681824BD3ED007ACA
:104CA0007D4B93ED007AB4EEE77AF1EE10FA3BDD3E
:104CB0007D4B1B7863BB774BD3ED007A9FED7B7AFE
:104CC00077EE877ACDED477A764BD3ED006A784B55
:104CD00093ED007AC6EE877A6D4B93ED007AF4EE91
:104CE000C77AF1EE10FA00F29D81B5EE007A67EE18
:104CF000877ACDED467A03238DF8213101238DF893
:104D000020310223002246A96A48006829F032FBBC
:104D1000654B1B78DBB2012B00F09181624B1B7855
:104D2000DBB2012B00F0D2815C4B1B78DBB2012B94
:104D300000F00B82604C22789500604B2B445C495C
:104D4000096819609DF89A119DF89B015C4B1D4400
:104D500000EB0123DFF834C18CFB03C39B0807EE93
:104D6000903AF8EE677AC5ED007A013222709DF82C
:104D700099318DF884319DF898318DF885318DF811
:104D800086018DF887114F4B60930023642260A940
:104D90004D48006829F0EEFA32202FF0C7FA0022C1
:104DA00063A94A4B186829F003FCA0B1484A13785C
:104DB0009DF88E014749C854062188F80010013338
:104DC0001370304B1B78042B40F2AB822D4B1B78B9
:104DD000052B00F0B182384B1B78052B00F0B48214
:104DE0003B4B1B78052B00F007833B4B1B78DBB25A
:104DF000012B00F01F83384B1B78DBB2012B00F036
:104E000028839DF8A431292B03D0FA2B01D0FC2B49
:104E100012D1324B1E221A70092388F80030304B11
:104E2000CA221A802F4B01221A700A2030F01AF879
:104E30002D4B1A682D4B1A609DF88C31012B00F018
:104E40001E832B4B1B78012B7FF4CAA9284B9B7820
:104E5000012B7FF4C5A9214B1E221A70092388F863
:104E60000030234B00221A809A701F4B1A681F4B88
:104E70001A60FFF7B5B900BF2C990120FE920120FE
:104E800018990120C19B0120409A0120676666663F
:104E9000A89A0120509B0120089B01209E9B012085
:104EA000A89D012098990120989B012000000000F6
:104EB000AC9D0120AC990120C69B012040960120A9
:104EC0001896012005C0EC15189A01203C9A012083
:104ED000BE9B012020980120939B01208F9B0120E5
:104EE00036950120A79B012068990120DC990120BB
:104EF0008C9B0120CC4B18782FF0A8FC58E6B4EE20
:104F0000E77AF1EE10FA7FF5AFAEF5EE007A27EE14
:104F1000277A8DED467AA7E6C44B1B78DBB2112BBE
:104F20007FF6B5AEC24B4FF40012C3F81821C14B47
:104F3000D3ED007A9FEDC07A77EE877ACDED477A90
:104F4000BE4BD3ED007AB6EE007A67EE877ABC4BA3
:104F5000D3ED006A87EEA67ABA4BD3ED007AB4EEB1
:104F6000E77AF1EE10FA12D8F6EE007A27EE277AF9
:104F70008DED467A01238DF821318DF82031022301
:104F8000002246A9B048006829F0F4F985E6B4EE9D
:104F9000E77AF1EE10FAEDDDB6EE007A67EE877A89
:104FA000CDED467AE6E7A14B1B78DBB2112B3FF63D
:104FB00074AEA04BD3ED007A9FED9F7A77EE877A9F
:104FC000CDED477A9D4BD3ED006A9D4BD3ED007A32
:104FD00086EEA77A9B4BD3ED007AB4EEE77AF1EE3A
:104FE00010FA13D8F5EE007A27EE277A8DED467A7F
:104FF00003238DF8213101238DF820310223002273
:1050000046A99148006829F0B5F946E6B4EEE77A7A
:10501000F1EE10FAECDDB5EE007A67EE877ACDEDB1
:10502000467AE5E7F4EEC77AF1EE10FA7FF763AE61
:10503000F5EE007A27EE277A8DED467A5BE67B4B1C
:105040001B78DBB2112B7FF669AE794B4FF400125F
:10505000C3F81821774BD3ED007A9FED777A77EE7E
:10506000877ACDED477A754BD3ED007AB6EE007AAC
:1050700067EE877A724BD3ED006A87EEA67A714BA2
:10508000D3ED007AB4EEE77AF1EE10FA12D8F6EE2C
:10509000007A27EE277A8DED467A01238DF82131AB
:1050A0008DF820310223002246A96748006829F0C4
:1050B00061F939E6B4EEE77AF1EE10FAEDDDB6EE1D
:1050C000007A67EE877ACDED467AE6E7574B1B7894
:1050D000DBB2112B3FF628AE564BD3ED007A9FED95
:1050E000567A77EE877ACDED477A544BD3ED006A46
:1050F000534BD3ED007A86EEA77A524BD3ED007A6C
:10510000B4EEE77AF1EE10FA13D8F5EE007A27EE56
:10511000277A8DED467A03238DF8213101238DF80E
:1051200020310223002246A94748006829F022F9CD
:10513000FAE5B4EEE77AF1EE10FAECDDB5EE007ABE
:1051400067EE877ACDED467AE5E7404B1B785BBB8F
:10515000384BD3ED007A9FED387A77EE877ACDED34
:10516000477A3B4BD3ED006A354B93ED007AC6EEA0
:10517000877A344B93ED007AF4EEC77AF1EE10FAA9
:1051800068D8B5EE007A67EE877ACDED467A0323CC
:105190008DF8213101238DF820310223002246A908
:1051A0002948006829F0E6F8284B1B78DBB2012B70
:1051B0005CD0264B1B78DBB2012B7FF4BBAD1B4BC5
:1051C0001B78DBB2112B3FF6B5AD1A4BD3ED007A4D
:1051D0009FED197A77EE877ACDED477A1C4BD3EDA8
:1051E000006A174BD3ED007A86EEA77A154BD3ED04
:1051F000007AB4EEE77AF1EE10FA00F28580F5EE6F
:10520000007A27EE277A8DED467A03238DF8213137
:1052100001238DF820310223002246A90A480068A4
:1052200029F0A8F886E500BF759B0120719B01203D
:1052300000800041509B012000000000989901204F
:10524000AC9D0120A89A0120AC990120989B0120D7
:105250009C990120F4EEC77AF1EE10FA97DDF5EE95
:10526000007A27EE277A8DED467A90E78D4B1B78F2
:10527000DBB2112B9DD98C4B4FF40012C3F81821CF
:105280008A4B93ED007ADFED8A7AB4EEE77AF1EE9D
:1052900010FAC8BFC3ED007A864BD3ED007A9FEDBC
:1052A000867A77EE877ACDED477A804BD3ED006A28
:1052B000824BD3ED007A86EEA77A814BD3ED007A4C
:1052C000B4EEE77AF1EE10FA12D8F6EE007A27EE95
:1052D000277A8DED467A01238DF821318DF8203122
:1052E0000223002246A97748006829F043F821E507
:1052F000B4EEE77AF1EE10FAEDDDB6EE007A67EE85
:10530000877ACDED467AE6E7B4EEE77AF1EE10FA69
:105310007FF77BAFB5EE007A67EE877ACDED467A00
:1053200073E72FF093FA684A1378013313709DF8EE
:105330008E21664B1A7049E59DF88E318AF800304F
:10534000614B07221A7046E54FF0000C604B83F862
:1053500000C0B9F80010BBF800005E4B5E4A03F1D4
:10536000140ECDF80CC01D461446029101E07345A1
:1053700025D0F3EC017A95ED007AB4EEE77AF1EE00
:1053800010FA09D8C5ED007AFCEEE77A17EE901A0C
:1053900089B202914FF0010CF2EC017A94ED007A9F
:1053A000B4EEE77AF1EE10FAE1D8C4ED007AFCEE43
:1053B000E77A17EE901A88B201210391D7E7029994
:1053C000BCF1000F01D0A9F80010039B0BB1ABF8A2
:1053D0000000404BD3ED007AFCEEE77A17EE900A1E
:1053E0002EF08CFA3C4BD3ED007AFCEEE77A17EE08
:1053F000900A2EF067FAF3E40024384B1C7096F8FC
:1054000000C0374B5D1D18464FF0010E01E09D4274
:1054100008D013F8012B01789142F8D80270944615
:105420007446F4E70CB186F800C02D4B18782FF0C5
:10543000F5F9DAE42B4B1B78002B7FF4DCAC00226F
:105440008DF82420022309A92748006828F092FF3C
:10545000D1E4244B1B78DBB2012B7FF4D2AC114B8F
:105460001B78DBB2132B7FF6CCAC00228DF8242006
:10547000022309A91C48006828F07CFFC1E41B4BEB
:105480001E221A70092088F80000194BC9221A80C0
:10549000184B01221A702FF0E5FC174B1A68174BB6
:1054A0001A60CEE4719B0120008000419C9901208C
:1054B00000B80847509B012000000000AC9D01206F
:1054C000A89A0120AC990120C19B0120759B012065
:1054D000C69B01201896012040960120BE9B01200A
:1054E00020980120989B01200C9901208F9B01207E
:1054F00036950120A79B012068990120DC990120A5
:10550000A34B1B78DBB2012B00F00181A04B1B7871
:10551000DBB2012B00F011814FF003038DF84F3106
:105520008DF885319B4B60939B4D0023642260A9CD
:10553000286828F01FFF32202EF0F8FE00248DF896
:1055400084418DF88541954A60922346642260A982
:10555000286828F00FFF32202EF0E8FE90494FF423
:105560000020C1F818018F4B1B688F480360884BDF
:105570001C708DF8204101238DF821310223224631
:1055800046A98A48006828F0F5FE40F6B8302EF0AB
:10559000CDFE4FF0030C8DF885C17E4B6093234602
:1055A00064220DF5C07C6146286828F0E3FE3220B5
:1055B0002EF0BCFE8DF884418DF88541774A6092CB
:1055C000234664220DF5C07C6146286828F0D2FE8F
:1055D00032202EF0ABFE72494FF40023C1F818318F
:1055E0000A230093234622460321714800682DF0C8
:1055F000FDFD704B18782EF099FA6F4B18782EF04D
:10560000B1FA6E4B18882EF0C9FA6D4B18782EF04F
:10561000FDFA6C4B18782EF0DDFA6B4B18782EF0F3
:1056200011FB6A4B18682EF045FB5F48D0ED007AFD
:10563000FCEEE77A664B93ED007ABCEEC77A17EE84
:10564000100A17EE903A181A624B18602EF016FBEB
:10565000614B1B78DBB2012B00F085805E4B1B7821
:10566000DBB2022B00F083805B4B1B78DBB2032B99
:1056700000F08180594B0C221A7005202FF02CFB72
:10568000524B1B6836934D4B19884B4B1B78494A3C
:1056900012781B0243EA014313433993494B1978AB
:1056A000474B1B78484A12781B0243EA01431343D5
:1056B0003A934B4B1A78337843EA02433B93454B7A
:1056C0001B6843F480333C93434B1A78454C238842
:1056D00043EA02433D9302238DF8D0300023642235
:1056E00034A94148006828F045FE404B18682BF06B
:1056F00015F801233B60002222803D4A13703D4A89
:1057000013703D4A13703D4A1370FEF769BD3C4B60
:105710001B78002B7FF4FAAE00228DF820210323A2
:105720008DF82131022346A92048006828F022FE86
:1057300040F6B8302EF0FAFDE8E6314B1B78DBB2CC
:10574000012B7FF4E9AE00228DF820218DF8213164
:10575000022346A91548006828F00CFE40F6B83030
:105760002EF0E4FDD8E601202FF07CFB76E7022046
:105770002FF078FB78E703202FF074FB7AE79DF891
:10578000A431FA2B7EF403AE1E4A1268FEF706BE61
:10579000939B012002C0EC15189A012005C0EC155E
:1057A0000080004168990120DC990120AC9901201A
:1057B00048990120B39B0120CC9B0120FA8C012049
:1057C000CB9B0120BC9B0120D89B0120A0980120ED
:1057D000D4990120C8980120A69B01208F9C01200C
:1057E000759B0120FE920120249901202899012017
:1057F000819B0120929B0120919B0120859B012090
:10580000989B0120DC9A01208C9D0120040000005F
:105810000100000000000000389501201C0000007D
:1058200000000000E89601200800000000000000D1
:10583000549501201C000000000000006896012023
:105840001000000000000000F09601201800000089
:1058500000000000709501201C0000000000000006
:105860007896012010000000000000000897012039
:105870001000000000000000FC8C0120C0000000AF
:1058800000000000729B01200200000000000000E8
:10589000249401202C00000000000000349301201B
:1058A000F000000000000000909D012004000000B6
:1058B00001000000AAAAAAAA309801200400000052
:1058C00000000000A0010020608A0100000000002C
:1058D00034980120100000000000000018970120FB
:1058E00008000000000000004498012008000000AB
:1058F000000000008C95012028000000000000003E
:105900004C9801201800000000000000EC900120DD
:1059100064000000000000006498012014000000F2
:1059200000000000B49501202800000000000000E5
:10593000789801201000000000000000DC95012094
:1059400014000000000000008898012004000000FE
:1059500000000000F0950120280000000000000079
:105960008C9801200800000000000000949D012098
:1059700004000000010000000400000010000020EE
:105980009001000000000000949801201400000025
:1059900000000000A39101200100000000000000B1
:1059A0007B9B01200100000000000000A89801205E
:1059B00004000000000000008B9B0120010000009B
:1059C00000000000AC98012004000000000000006E
:1059D000259801200100000000000000B09801207F
:1059E0000C000000000000002D98012001000000C4
:1059F000000000006D9B012001000000000000007D
:105A00008F9B01200100000000000000719B01201D
:105A10000100000000000000BC98012014000000FC
:105A200000000000769B0120020000000000000042
:105A30001896012014000000000000007E9B012049
:105A400002000000000000002C960120140000005D
:105A500000000000829B0120020000000000000006
:105A6000409601201400000000000000869B0120E9
:105A70000200000000000000549601201400000005
:105A800000000000D0980120040000000000000089
:105A9000809201204000000000000000509401208E
:105AA0005000000000000000148F0120A40000003E
:105AB00000000000D4980120080000000000000051
:105AC000F49101204600000000000000909B01209E
:105AD0000100000000000000DC9801203C000000F4
:105AE00000000000668E012002000000000000009F
:105AF000128F012002000000000000003A920120F5
:105B000002000000000000001899012004000000BD
:105B100000000000759B0120010000000000000053
:105B20007D9B012001000000000000001C99012065
:105B30001000000000000000819B01200100000017
:105B400000000000859B0120010000000000000013
:105B5000919B01200200000000000000FE92012045
:105B600002000000000000002C9901200400000049
:105B700000000000939B01200100000000000000D5
:105B8000309901200800000000000000949B0120D3
:105B90000400000000000000329301200200000019
:105BA00000000000389901200400000000000000FF
:105BB000989B012001000000000000003C9901209A
:105BC0000800000000000000999B01200100000077
:105BD00000000000449901200400000000000000C3
:105BE0009A9B01200100000000000000489901205C
:105BF00030000000000000009B9B0120030000001B
:105C000000000000789901200C0000000000000056
:105C100050910120530000000000000084990120F1
:105C20003800000000000000009301203200000056
:105C300000000000BC9901201400000000000000DA
:105C40009E9B01200200000000000000D09901206E
:105C50000400000000000000A09B012003000000E1
:105C60000000000020980120050000000000000056
:105C7000A39B0120010000000000000028980120E3
:105C80000500000000000000D49901200800000079
:105C900000000000A49B01200200000000000000A2
:105CA0008C9B01200300000000000000889B012065
:105CB0000300000000000000DC9901200800000043
:105CC00000000000A69B0120010000000000000071
:105CD000DC9601200A00000000000000369501203B
:105CE0000200000000000000A79B0120010000004E
:105CF00000000000E4990120040000000000000002
:105D0000A89B01200100000000000000E696012091
:105D100002000000000000002698012002000000A0
:105D2000000000002E98012002000000000000008A
:105D3000209701206800000000000000E899012081
:105D4000200000000000000088970120680000008B
:105D500000000000089A0120800000000000000000
:105D6000F09701203000000000000000A99B0120F6
:105D70000100000000000000889A012004000000DB
:105D800000000000AA9B01200200000000000000AB
:105D90008C9A01200400000000000000AC9B012050
:105DA0000100000000000000909A012004000000A3
:105DB00000000000C09201203E0000000000000032
:105DC0006E9B01200200000000000000A094012052
:105DD0005000000000000000008C0120FA000000CC
:105DE00000000000AD9B0120010000000000000049
:105DF000949A01200400000000000000AE9B0120E6
:105E00000300000000000000989A01200800000034
:105E100000000000B19B0120020000000000000013
:105E2000A09A01201000000000000000B39B012098
:105E30000200000000000000B09A012004000000F1
:105E400000000000B59B01200100000000000000E0
:105E5000B49A01200800000000000000BC8D012061
:105E6000AA00000000000000BC9A0120040000000D
:105E700000000000B69B01200300000000000000AD
:105E8000849B01200100000000000000B99B01205C
:105E90000100000000000000C09A01200400000082
:105EA000000000003C9201204400000000000000BF
:105EB000C49A01200C00000000000000BA9B0120E1
:105EC0000200000000000000809B01200100000093
:105ED000000000007C9B0120010000000000000089
:105EE000D09A01200800000000000000BC9B0120A7
:105EF0000500000000000000D89A01200400000006
:105F000000000000C19B012005000000000000000F
:105F1000DC9A01201000000000000000C69B012058
:105F20000200000000000000EC9A012004000000C4
:105F300000000000C89B01200300000000000000DA
:105F4000F09A01200800000000000000688E012087
:105F5000AA00000000000000F89A012004000000E0
:105F600000000000CB9B01200100000000000000A9
:105F7000FC9A01200400000000000000CC9B0120DE
:105F80000100000000000000789B012003000000D9
:105F900000000000CD9B0120040000000000000074
:105FA000009B01200400000000000000D19B0120A4
:105FB0000200000000000000049B01200C00000013
:105FC00000000000D39B0120010000000000000041
:105FD000109B01200400000000000000D49B012061
:105FE0000100000000000000149B012004000000DC
:105FF00000000000D59B012001000000000000000F
:10600000189B01200400000000000000D69B012026
:1060100001000000000000001C9B012004000000A3
:1060200000000000D79B01200100000000000000DC
:10603000209B01200800000000000000749B01204C
:106040000100000000000000709B01200100000022
:10605000000000006C9B0120010000000000000017
:10606000289B01201C00000000000000B88F0120C8
:10607000A000000000000000889601201000000031
:1060800000000000D89B012001000000000000007B
:10609000B89601202400000000000000449B01206D
:1060A0000400000000000000D99B01200200000055
:1060B00000000000489B01200400000000000000D8
:1060C0009896012010000000000000005890012068
:1060D00094000000000000004C9B01200C00000018
:1060E00000000000FA8C0120020000000000000007
:1060F000229C0120020000000100000004010000B9
:10610000429C01200200000001000000B4000000D9
:10611000249C01201E000000010000005AA51B82E3
:10612000524068747470733A2F2F7777772E737498
:10613000617469712E696E2FFFFF0000DB9B0120E7
:1061400001000000010000000C0000007B9C012009
:1061500001000000010000000C0000008F9C0120E5
:10616000010000000100000003000000B39C0120BA
:1061700001000000010000000F0000002B9D012025
:10618000010000000100000050000000379D0120C8
:10619000010000000100000014000000449C0120E8
:1061A0001E00000001000000454D455247454E438A
:1061B000595F425554544F4E5F50524553534544D6
:1061C0002F4F4E0D0A000000649C012017000000B4
:1061D00001000000454D455247454E435920425568
:1061E00054544F4E204F46460D0A0000989D012002
:1061F00004000000010000000000803FB49C01206A
:106200000E0000000100000047464349204E4F5455
:10621000204F4B0D0A000000449D01200A000000A1
:106220000100000047464349204F4B0D0A00000083
:10623000439D01200100000001000000010000005A
:10624000A29C0120010000000100000001000000EC
:10625000C49C01200E00000001000000494D4431A3
:10626000204E4F54204F4B0D0A000000509D01203E
:106270000A00000001000000494D4431204F4B0D41
:106280000A000000D49C01200E0000000100000064
:10629000494D4432204E4F54204F4B0D0A00000010
:1062A0005C9D01200A00000001000000494D4432BD
:1062B000204F4B0D0A000000149D01200C0000002F
:1062C0000100000047415445204F50454E0D0A0043
:1062D000E49C01200E0000000100000047415445ED
:1062E00020434C4F5345440D0A0000009C9D012063
:1062F0000400000001000000CDCCCC3FA49C012094
:106300000F000000010000005048415345204E4F4F
:1063100054204F4B0D0A0000209D01200B0000006F
:106320000100000050484153455F4F4B0D0A0000EB
:10633000A09D01200C0000000100000000000040B2
:106340000000004000B888472C9D01200B00000091
:106350000100000052474231204F46460D0A00001E
:10636000689D01200A0000000100000052474231F0
:106370005F4F4E0D0A000000389D01200B00000009
:106380000100000052474232204F46460D0A0000ED
:10639000749D01200A0000000100000052474232B3
:1063A0005F4F4E0D0A000000629C012002000000B9
:1063B00001000000204E00007C9C01201300000022
:1063C00001000000534D4F4B45204953205052458A
:1063D00053454E540D0A0000909C0120120000000D
:1063E00001000000534D4F4B45204E4F5420544860
:1063F0004552450D0A000000049D01200D000000DB
:1064000001000000535044204E4F54204F4B0D0AC2
:1064100000000000809D0120090000000100000034
:10642000535044204F4B0D0A00000000AC9D01204A
:10643000080000000100000000004843000048433D
:10644000DC9B012046000000010000004170706CE0
:1064500069636174696F6E2072756E206166746520
:106460007220726563696576696E6720636F6D6D12
:10647000616E64207468726F75676820626F6F74F4
:106480006C6F6164657220646F6E652E2E2E2E0D0A
:106490000A000000F49C01200E0000000100000032
:1064A000494E5445525255505445440D0A0000007F
:1064B000B49D0120040000000100000000004843DA
:1064C000589B01200800000000000000A896012051
:1064D0001000000000000000F094012046000000C1
:1064E00000000000609B012004000000000000008C
:1064F000A49101205000000000000000649B0120D6
:106500000800000000000000B89D01200400000009
:10651000010000000000000000000000000000007A
:08652000666666666666666643
:106FA80038B50446D4485A230370A52343700723F1
:106FB80083708223C3701423037102234371D4F8AE
:106FC80000311A0E82711A0CC2711A0A02724372C7
:106FD800CA4B4FF400229A610A212AF015F92FF0C2
:106FE800A5FE0028FBD0C54B4FF400225A61C248C9
:106FF8005A210170A5214170052181708221C1703B
:10700800142101710621417100218171B4F81E110A
:10701800C1719A6108212AF0F7F82FF087FE00283D
:10702800FBD0B64B4FF400225A61B3485A21017085
:10703800A5214170052181708221C170142101713F
:107048000821417100258571D4F80451C5719A61F0
:107058002AF0DAF82FF06AFE0028FBD0A74A4FF48E
:1070680000215161A4485A230370A52343700523C6
:1070780083708223C370142303710A23437100238E
:107088008371D4F804311B0AC371916108212AF075
:10709800BBF82FF04BFE0028FBD0984B4FF4002292
:1070A8005A6195485A210170A521417005218170C6
:1070B8008221C170142101710C214171002181715B
:1070C800B4F80611C1719A6108212AF09DF82FF0D1
:1070D8002DFE0028FBD0894B4FF400225A618648C8
:1070E8005A210170A5214170052181708221C1704A
:1070F800142101710E21417100218171B4F80E1122
:10710800C1719A6108212AF07FF82FF00FFE00283C
:10711800FBD07A4A4FF40021516177485A23037013
:10712800A5234370052383708223C370142303713E
:107138001023437100238371D4F80C311B0AC371E7
:10714800916108212AF060F82FF0F0FD0028FBD0AB
:107158006A4B4FF400225A6167485A210170A521F1
:107168004170052181708221C170142101711221A1
:10717800417100218171D4F80C11C1719A61082103
:107188002AF042F82FF0D2FD0028FBD05B4A4FF4DA
:107198000021516158485A230370A52343700723DF
:1071A80083708223C3701423037116234371D4F8A8
:1071B80020311D0E85711D0CC5711D0A05724372A3
:1071C80091610A212AF020F82FF0B0FD0028FBD0A9
:1071D8004A4B4FF400225A6147485A210170A521B1
:1071E8004170052181708221C170142101711A2119
:1071F800417100218171B4F83E11C1719A61082171
:107208002AF002F82FF092FD0028FBD03B4B4FF4F8
:1072180000225A6138485A210170A5214170052180
:1072280081708221C170142101711C2141710021DA
:107238008171D4F82411C1719A61082129F0E4FF01
:107248002FF074FD0028FBD02C4A4FF40021516127
:1072580029485A230370A52343700523837082238A
:10726800C370142303711E23437100238371D4F860
:1072780024311B0AC3719161082129F0C5FF2FF041
:1072880055FD0028FBD01D4B4FF400225A611A48C7
:107298005A210170A5214170052181708221C17098
:1072A800142101712021417100218171B4F8261146
:1072B800C1719A61082129F0A7FF2FF037FD002836
:1072C800FBD00E4B4FF400225A610B485A21017033
:1072D800A5214170052181708221C170142101719D
:1072E8002221417100218171B4F82E11C1719A6176
:1072F800082129F089FF03E018950120008000414A
:107308002FF014FD0028FBD0D54A4FF4002151611D
:10731800D4485A230370A52343700523837082231E
:10732800C370142303712423437100238371D4F899
:107338002C311B0AC3719161082129F065FF2FF0D8
:10734800F5FC0028FBD0C64B4FF400225A61C54813
:107358005A210170A5214170052181708221C170D7
:10736800142101712621417100218171D4F82C1159
:10737800C1719A61082129F047FF2FF0D7FC002836
:10738800FBD0B74A4FF400215161B6485A23037025
:10739800A5234370072383708223C37014230371CA
:1073A8002A234371D4F840311D0E85711D0CC57117
:1073B8001D0A0572437291610A2129F025FF2FF0F9
:1073C800B5FC0028FBD0A64B4FF400225A61A54813
:1073D8005A210170A5214170052181708221C17057
:1073E800142101712E21417100218171B4F85E11BF
:1073F800C1719A61082129F007FF2FF097FC002836
:10740800FBD0974B4FF400225A6196485A210170DD
:10741800A5214170052181708221C170142101715B
:107428003021417100218171D4F84411C1719A61F0
:10743800082129F0E9FE2FF079FC0028FBD0884AC2
:107448004FF40021516187485A230370A5234370E4
:10745800052383708223C37014230371322343717D
:1074680000238371D4F844311B0AC3719161082148
:1074780029F0CAFE2FF05AFC0028FBD0784B4FF4B5
:1074880000225A6177485A210170A52141700521CF
:1074980081708221C1701421017134214171002150
:1074A8008171B4F84611C1719A61082129F0ACFEC6
:1074B8002FF03CFC0028FBD0694B4FF400225A61A6
:1074C80068485A210170A5214170052181708221E7
:1074D800C170142101713621417100218171B4F804
:1074E8004E11C1719A61082129F08EFE2FF01EFC01
:1074F8000028FBD05A4A4FF40021516159485A23B9
:107508000370A5234370052383708223C37014235B
:1075180003713823437100238371D4F84C311B0A5B
:10752800C3719161082129F06FFE2FF0FFFB00283D
:10753800FBD04B4B4FF400225A614A485A21017044
:10754800A5214170052181708221C170142101712A
:107558003A21417100218171D4F84C11C1719A61AD
:10756800082129F051FE2FF0E1FB0028FBD03C4A0E
:107578004FF4002151613B485A230370A5234370FF
:10758800072383708223C37014230371402343713C
:10759800D4F860311D0E85711D0CC5711D0A057268
:1075A800437291610A2129F02FFE2FF0BFFB0028BA
:1075B800FBD02B4B4FF400225A612A485A21017004
:1075C800A5214170052181708221C17014210171AA
:1075D8004421417100218171B4F87E11C1719A6111
:1075E800082129F011FE2FF0A1FB0028FBD01C4B2D
:1075F8004FF400225A611B485A210170A52141709D
:10760800052181708221C1701421017146214171C7
:1076180000218171D4F86411C1719A61082129F09F
:10762800F3FD2FF083FB0028FBD00D4A4FF4002117
:1076380051610C485A230370A523437005238370B6
:107648008223C37014230371482343710023837179
:10765800D4F864311B0AC3719161082104E000BFAA
:10766800008000411895012029F0CEFD2FF05EFB27
:107678000028FBD0D54B4FF400225A61D4485A2138
:107688000170A5214170052181708221C1701421EA
:1076980001714A21417100218171B4F86611C171EB
:1076A8009A61082129F0B0FD2FF040FB0028FBD09B
:1076B800C64B4FF400225A61C5485A210170A521D2
:1076C8004170052181708221C170142101714C2102
:1076D800417100218171B4F86E11C1719A6108215C
:1076E80029F092FD2FF022FB0028FBD0B74A4FF477
:1076F80000215161B6485A230370A523437005231E
:1077080083708223C370142303714E2343710023B3
:107718008371D4F86C311B0AC3719161082129F077
:1077280073FD2FF003FB0028FBD0A84B4FF4002279
:107738005A61A7485A210170A5214170052181701D
:107748008221C17014210171502141710021817180
:10775800D4F86C11C1719A61082129F055FD2FF0F8
:10776800E5FA0028FBD0994A4FF400215161984866
:107778005A230370A5234370072383708223C370A1
:107788001423037156234371D4F880311D0E85717B
:107798001D0CC5711D0A0572437291610A2129F0F9
:1077A80033FD2FF0C3FA0028FBD0884B4FF400229A
:1077B8005A6187485A210170A525457005258570AD
:1077C8008225C57014250571417100218171B4F8B5
:1077D8009E11C1719A61082129F016FD2FF0A6FAB1
:1077E8000028FBD0794B4FF400225A6178485A217F
:1077F8000170A5214170052181708221C170142179
:1078080001715C21417100218171D4F88411C17129
:107818009A61082129F0F8FC2FF088FA0028FBD09B
:107828006A4A4FF40021516169485A230370A5231D
:107838004370052383708223C370142303715E236E
:10784800437100238371D4F884311B0AC371916199
:10785800082129F0D9FC2FF069FA0028FBD05B4BEE
:107868004FF400225A615A485A210170A5214170EB
:10787800052181708221C17014210171602141713B
:1078880000218171B4F88611C1719A61082129F02B
:10789800BBFC2FF04BFA0028FBD04C4B4FF40022D6
:1078A8005A614B485A210170A52141700521817008
:1078B8008221C170142101716221417100218171FD
:1078C800B4F88E11C1719A61082129F09DFC2FF03E
:1078D8002DFA0028FBD03D4A4FF4002151613C4865
:1078E8005A230370A5234370052383708223C37032
:1078F800142303716423437100238371D4F88C31FA
:107908001B0AC3719161082129F07EFC2FF00EFA41
:107918000028FBD02D4B4FF400225A612C485A21E5
:107928000170A5214170052181708221C170142147
:1079380001716621417100218171D4F88C11C171E6
:107948009A61082129F060FC2FF0F0F90028FBD09B
:107958001E4A4FF4002151611D485A230370A52384
:107968004370072383708223C370142303716C232D
:107978004371D4F8A0311D0E85711D0CC5711D0A07
:107988000572437291610A2129F03EFC2FF0CEF96D
:107998000028FBD00D4B4FF400225A610C485A21A5
:1079A8000170A5214170052181708221C1701421C7
:1079B80001717021417100218171B4F8BE11C1714A
:1079C8009A61082129F020FC04E000BF00800041F2
:1079D800189501202FF0AAF90028FBD0D44B4FF4BA
:1079E80000225A61D3485A210170A521417005210E
:1079F80081708221C17014210171722141710021AD
:107A08008171D4F8A411C1719A61082129F0FCFB95
:107A18002FF08CF90028FBD0C54A4FF400215161A2
:107A2800C4485A230370A523437005238370822317
:107A3800C370142303717423437100238371D4F832
:107A4800A4311B0AC3719161082129F0DDFB2FF0D5
:107A58006DF90028FBD0B64B4FF400225A61B548A7
:107A68005A210170A5214170052181708221C170C0
:107A7800142101717621417100218171B4F8A61198
:107A8800C1719A61082129F0BFFB2FF04FF9002836
:107A9800FBD0A74B4FF400225A61A6485A21017027
:107AA800A5214170052181708221C17014210171C5
:107AB8007821417100218171B4F8AE11C1719A61C8
:107AC800082129F0A1FB2FF031F90028FBD0984AB2
:107AD8004FF40021516197485A230370A52343703E
:107AE800052383708223C370142303717A2343719F
:107AF80000238371D4F8AC311B0AC371916108214A
:107B080029F082FB2FF012F90028FBD0884B4FF4A4
:107B180000225A6187485A210170A5214170052128
:107B280081708221C170142101717C214171002171
:107B38008171D4F8AC11C1719A61082129F064FBF4
:107B48002FF0F4F80028FBD0794A4FF40021516156
:107B580078485A230370A523437007238370822330
:107B6800C3701423037180234371D4F8C0311D0EF0
:107B780085711D0CC5711D0A0572437291610A2138
:107B880029F042FB2FF0D2F80028FBD0684B4FF4C5
:107B980000225A6167485A210170A52141700521C8
:107BA80081708221C17014210171842141710021E9
:107BB8008171B4F8DE11C1719A61082129F024FBA2
:107BC8002FF0B4F80028FBD0594B4FF400225A612B
:107BD80058485A210170A5214170052181708221E0
:107BE800C170142101718621417100218171D4F87D
:107BF800C411C1719A61082129F006FB2FF096F88B
:107C08000028FBD04A4A4FF40021516149485A23C1
:107C18000370A5234370052383708223C370142344
:107C280003718823437100238371D4F8C4311B0A7C
:107C3800C3719161082129F0E7FA2FF077F800283D
:107C4800FBD03B4B4FF400225A613A485A2101704D
:107C5800A5214170052181708221C1701421017113
:107C68008A21417100218171B4F8C611C1719A61EC
:107C7800082129F0C9FA2FF059F80028FBD02C4B1D
:107C88004FF400225A612B485A210170A5214170F6
:107C9800052181708221C170142101718C214171EB
:107CA80000218171B4F8CE11C1719A61082129F0BF
:107CB800ABFA2FF03BF80028FBD01D4A4FF4002107
:107CC80051611C485A230370A52343700523837010
:107CD8008223C370142303718E234371002383719D
:107CE800D4F8CC311B0AC3719161082129F08CFAB0
:107CF8002FF01CF80028FBD00D4B4FF400225A61DE
:107D08000C485A210170A5214170052181708221FA
:107D1800C170142101719021417100218171D4F841
:107D2800CC11C1719A61082129F06EFA04E000BFF4
:107D380000800041189501202EF0F8FF0028FBD0A4
:107D48007D4A4FF4002151617C485A230370A523D2
:107D58004370072383708223C37014230371942311
:107D68004371D4F8E0311D0E85711D0CC5711D0AD3
:107D78000572437291610A2129F046FA2EF0D6FF66
:107D88000028FBD06C4B4FF400225A616B485A21F3
:107D98000170A5214170052181708221C1701421D3
:107DA80001719821417100218171B4F8FE11C171EE
:107DB8009A61082129F028FA2EF0B8FF0028FBD094
:107DC8005D4B4FF400225A615C485A210170A5218D
:107DD8004170052181708221C170142101719A219D
:107DE800417100218171D4F8E411C1719A610821AF
:107DF80029F00AFA2EF09AFF0028FBD04E4A4FF4D9
:107E0800002151614D485A230370A523437005236F
:107E180083708223C370142303719C23437100234E
:107E28008371D4F8E4311B0AC3719161082129F0E8
:107E3800EBF92EF07BFF0028FBD03F4B4FF40022DC
:107E48005A613E485A210170A5214170052181706F
:107E58008221C170142101719E214171002181711B
:107E6800B4F8E611C1719A61082129F0CDF92EF014
:107E78005DFF0028FBD0304B4FF400225A612F4899
:107E88005A210170A5214170052181708221C1709C
:107E980014210171A021417100218171B4F8EE1102
:107EA800C1719A61082129F0AFF92EF03FFF00282F
:107EB800FBD0214A4FF40021516120485A23037016
:107EC800A5234370052383708223C3701423037191
:107ED800A223437100238371D4F8EC311B0AC371C8
:107EE8009161082129F090F92EF020FF0028FBD09D
:107EF800114B4FF400225A6110485A210170A521F4
:107F08004170052181708221C17014210171A42161
:107F1800417100218171D4F8EC11C1719A61082175
:107F280029F072F92EF002FF0028FBD0024B4FF423
:107F380000225A6138BD00BF008000411895012019
:107F480038B50446D4485A230370A5234370072341
:107F580083708223C3701423037102234371D4F8FE
:107F680000311A0E82711A0CC2711A0A0272437217
:107F7800CA4B4FF400229A610A2129F045F92EF0E4
:107F8800D5FE0028FBD0C54B4FF400225A61C248E9
:107F98005A210170A5214170052181708221C1708B
:107FA800142101710621417100218171B4F81E115B
:107FB800C1719A61082129F027F92EF0B7FE00282F
:107FC800FBD0B64B4FF400225A61B3485A210170D6
:107FD800A5214170052181708221C1701421017190
:107FE8000821417100258571D4F80451C5719A6141
:107FF80029F00AF92EF09AFE0028FBD0A74A4FF480
:1080080000215161A4485A230370A5234370052316
:1080180083708223C370142303710A2343710023DE
:108028008371D4F804311B0AC3719161082129F0C6
:10803800EBF82EF07BFE0028FBD0984B4FF4002283
:108048005A6195485A210170A52141700521817016
:108058008221C170142101710C21417100218171AB
:10806800B4F80611C1719A61082129F0CDF82EF0F3
:108078005DFE0028FBD0894B4FF400225A618648E8
:108088005A210170A5214170052181708221C1709A
:10809800142101710E21417100218171B4F80E1172
:1080A800C1719A61082129F0AFF82EF03FFE00282F
:1080B800FBD07A4A4FF40021516177485A23037064
:1080C800A5234370052383708223C370142303718F
:1080D8001023437100238371D4F80C311B0AC37138
:1080E8009161082129F090F82EF020FE0028FBD09D
:1080F8006A4B4FF400225A6167485A210170A52142
:108108004170052181708221C170142101711221F1
:10811800417100218171D4F80C11C1719A61082153
:1081280029F072F82EF002FE0028FBD05B4A4FF4CB
:108138000021516158485A230370A523437007232F
:1081480083708223C3701423037116234371D4F8F8
:1081580020311D0E85711D0CC5711D0A05724372F3
:1081680091610A2129F050F82EF0E0FD0028FBD09B
:108178004A4B4FF400225A6147485A210170A52101
:108188004170052181708221C170142101711A2169
:10819800417100218171B4F83E11C1719A610821C1
:1081A80029F032F82EF0C2FD0028FBD03B4B4FF4EB
:1081B80000225A6138485A210170A52141700521D1
:1081C80081708221C170142101711C21417100212B
:1081D8008171D4F82411C1719A61082129F014F829
:1081E8002EF0A4FD0028FBD02C4A4FF40021516149
:1081F80029485A230370A5234370052383708223DB
:10820800C370142303711E23437100238371D4F8B0
:1082180024311B0AC3719161082128F0F5FF2EF063
:1082280085FD0028FBD01D4B4FF400225A611A48E7
:108238005A210170A5214170052181708221C170E8
:10824800142101712021417100218171B4F8261196
:10825800C1719A61082128F0D7FF2EF067FD002828
:10826800FBD00E4B4FF400225A610B485A21017083
:10827800A5214170052181708221C17014210171ED
:108288002221417100218171B4F82E11C1719A61C6
:10829800082128F0B9FF03E018950120008000416B
:1082A8002EF044FD0028FBD0D54A4FF4002151613F
:1082B800D4485A230370A52343700523837082236F
:1082C800C370142303712423437100238371D4F8EA
:1082D8002C311B0AC3719161082128F095FF2EF0FB
:1082E80025FD0028FBD0C64B4FF400225A61C54833
:1082F8005A210170A5214170052181708221C17028
:10830800142101712621417100218171D4F82C11A9
:10831800C1719A61082128F077FF2EF007FD002827
:10832800FBD0B74A4FF400215161B6485A23037075
:10833800A5234370072383708223C370142303711A
:108348002A234371D4F840311D0E85711D0CC57167
:108358001D0A0572437291610A2128F055FF2EF01B
:10836800E5FC0028FBD0A64B4FF400225A61A54833
:108378005A210170A5214170052181708221C170A7
:10838800142101712E21417100218171B4F85E110F
:10839800C1719A61082128F037FF2EF0C7FC002828
:1083A800FBD0974B4FF400225A6196485A2101702E
:1083B800A5214170052181708221C17014210171AC
:1083C8003021417100218171D4F84411C1719A6141
:1083D800082128F019FF2EF0A9FC0028FBD0884AB4
:1083E8004FF40021516187485A230370A523437035
:1083F800052383708223C3701423037132234371CE
:1084080000238371D4F844311B0AC3719161082198
:1084180028F0FAFE2EF08AFC0028FBD0784B4FF4A7
:1084280000225A6177485A210170A521417005211F
:1084380081708221C17014210171342141710021A0
:108448008171B4F84611C1719A61082128F0DCFEE7
:108458002EF06CFC0028FBD0694B4FF400225A61C7
:1084680068485A210170A521417005218170822137
:10847800C170142101713621417100218171B4F854
:108488004E11C1719A61082128F0BEFE2EF04EFCF3
:108498000028FBD05A4A4FF40021516159485A2309
:1084A8000370A5234370052383708223C3701423AC
:1084B80003713823437100238371D4F84C311B0AAC
:1084C800C3719161082128F09FFE2EF02FFC00282F
:1084D800FBD04B4B4FF400225A614A485A21017095
:1084E800A5214170052181708221C170142101717B
:1084F8003A21417100218171D4F84C11C1719A61FE
:10850800082128F081FE2EF011FC0028FBD03C4AFF
:108518004FF4002151613B485A230370A52343704F
:10852800072383708223C37014230371402343718C
:10853800D4F860311D0E85711D0CC5711D0A0572B8
:10854800437291610A2128F05FFE2EF0EFFB0028AC
