:10200000F8FF03208500030027AF0200CF0803007C
:10201000FF1E03006F23030047270300000000009A
:102020000000000000000000000000005157030005
:10203000870B03000000000081100300A944030087
:10204000636703006367030063670300636703005C
:10205000636703006367030063670300636703004C
:10206000636703006367030063670300636703003C
:10207000636703001D5903003D59030063670300B4
:10208000636703005D5903007D5903009D590300F8
:10209000BD560300E15603000557030099500300A5
:1020A000C1500300636703006367030063670300B5
:1020B00063670300636703006367030063670300EC
:1020C00063670300636703006367030063670300DC
:1020D00063670300636703006367030063670300CC
:1020E0006367030063670300000000000000000056
:1020F0000000000063670300636703006367030079
:10210000636703006367030063670300636703009B
:1021100063670300636703003D1803003D18030075
:102120003D1803003D180300D1C10200D1C10200D7
:10213000D1C10200D1C10200C1150300C1150300C5
:10214000C1150300C11503008D1703008D1703008F
:102150008D1703008D170300E5170300E517030033
:10216000E5170300E5170300951803009518030011
:10217000951803009518030035EB020051EE02009C
:10218000636703006367030063670300636703001B
:1021900000000000636703006367030063670300D8
:1021A00063670300636703006367030063670300FB
:1021B00063670300636703006367030063670300EB
:1021C00063670300636703006367030063670300DB
:1021D00063670300636703006367030063670300CB
:1021E00063670300636703006367030063670300BB
:1021F000254403006367030063670300636703000C
:1022000051440300636703006367030063670300CF
:10221000636703006367030063670300636703008A
:10222000636703006367030063670300636703007A
:10223000636703006367030063670300636703006A
:10224000636703006367030063670300636703005A
:10225000636703006367030063670300636703004A
:10226000F8B500BFF8BC08BC9E4670476D27030058
:10227000F8B500BFF8BC08BC9E467047492703006C
:102280004077020001000000B89D0120040000001A
:102290000100000000000000709501201C000000FB
:1022A000000000002097012008000000000000004E
:1022B0008C9501201C00000000000000A096012069
:1022C0001000000000000000289701201800000006
:1022D00000000000A89501201C0000000000000084
:1022E000B09601201000000000000000409701207F
:1022F0001000000000000000C88D0120C000000098
:10230000000000009A9B0120020000000000000075
:102310005C9401202C000000000000006C93012060
:10232000F0000000000000005097012010000000A5
:1023300000000000BC9D012004000000010000001E
:10234000AAAAAAAA789801200400000000000000B0
:10235000A0010020608A0100000000007C9801209C
:10236000100000000000000060970120080000003D
:10237000000000008C980120080000000000000010
:10238000C49501202800000000000000949801205E
:1023900018000000000000002491012064000000EB
:1023A00000000000AC9801201400000000000000B4
:1023B000EC9501202800000000000000C0980120DA
:1023C000100000000000000014960120140000001E
:1023D00000000000D0980120040000000000000070
:1023E000289601202800000000000000D498012059
:1023F0000800000000000000C09D01200400000053
:102400000100000004000000100000209001000006
:1024100000000000DC980120140000000000000013
:10242000DB9101200100000000000000A39B0120BF
:102430000100000000000000F098012004000000EE
:1024400000000000B39B012001000000000000001C
:10245000F498012004000000000000006D980120A5
:102460000100000000000000F89801200C000000AE
:10247000000000007598012001000000000000002D
:10248000959B01200100000000000000049901203C
:1024900014000000000000009E9B012002000000CC
:1024A0000000000050960120140000000000000011
:1024B000A69B01200200000000000000649601209D
:1024C0001400000000000000AA9B01200200000090
:1024D00000000000789601201400000000000000B9
:1024E000AE9B012002000000000000008C9601203D
:1024F00014000000000000001899012004000000F2
:1025000000000000B8920120400000000000000020
:10251000889401205000000000000000E08F01209E
:10252000A4000000000000001C9901200800000029
:10253000000000002C920120460000000000000076
:10254000B89B012001000000000000002499012038
:102550003C00000000000000328F0120020000005B
:1025600000000000DE8F01200200000000000000DB
:10257000729201200200000000000000609901201A
:102580000400000000000000B79B012001000000D3
:1025900000000000999B01200100000000000000E5
:1025A0006499012010000000000000009D9B0120A4
:1025B0000100000000000000A59B012001000000B8
:1025C00000000000A99B01200100000000000000A5
:1025D000AD9B0120010000000000000036930120A7
:1025E00002000000000000007499012004000000B7
:1025F00000000000B99B0120010000000000000065
:10260000789901200800000000000000BA9B01201A
:1026100005000000000000006A9301200200000095
:10262000000000008099012004000000000000006C
:10263000BF9B0120010000000000000084990120E0
:102640000800000000000000C09B01200200000004
:10265000000000008C990120040000000000000030
:10266000C29B0120010000000000000090990120A1
:102670003000000000000000C39B012003000000A8
:1026800000000000C09901200C00000000000000C4
:10269000889101205300000000000000CC99012027
:1026A0001400000000000000C69B01200100000093
:1026B00000000000E099012024000000000000005C
:1026C000389301203200000000000000049A01202D
:1026D0001400000000000000C79B01200200000061
:1026E00000000000189A0120040000000000000013
:1026F000C99B012002000000000000006898012032
:102700000500000000000000CB9B0120010000003C
:10271000000000007098012005000000000000008B
:102720001C9A01200800000000000000CC9B012042
:102730000200000000000000B49B01200300000024
:1027400000000000B09B012003000000000000001A
:10275000249A01200800000000000000CE9B012008
:102760000100000000000000149701200A00000092
:10277000000000006E950120020000000000000033
:10278000CF9B012001000000000000002C9A0120D6
:102790000400000000000000D09B012001000000A8
:1027A000000000001E970120020000000000000051
:1027B0006E980120020000000000000076980120C1
:1027C000020000000000000068970120680000007F
:1027D00000000000309A01202000000000000000EE
:1027E000D09701206800000000000000509A0120EE
:1027F0008000000000000000389801203000000038
:1028000000000000D19B012001000000000000003A
:10281000D09A01200400000000000000D29B01209B
:102820000200000000000000D49A01200400000013
:1028300000000000D49B0120010000000000000007
:10284000D89A01200400000000000000F892012046
:102850003E00000000000000969B012002000000E6
:1028600000000000D894012050000000000000008B
:10287000008C0120FA00000000000000D59B012020
:102880000100000000000000DC9A012004000000AC
:1028900000000000D69B01200500000000000000A1
:1028A000E09A01200400000000000000DB9B0120F2
:1028B0000200000000000000E49A01200C0000006B
:1028C00000000000DD9B012002000000000000006D
:1028D000F09A01200400000000000000DF9B0120AE
:1028E0000100000000000000F49A01200800000030
:1028F00000000000888E0120AA00000000000000F7
:10290000FC9A01200400000000000000E09B012070
:102910000300000000000000AC9B0120010000004B
:1029200000000000E39B0120010000000000000007
:10293000009B0120040000000000000074920120B0
:102940004400000000000000049B0120040000007F
:1029500000000000E49B01200200000000000000D5
:10296000A89B01200100000000000000A49B0120A2
:102970000100000000000000089B0120080000008A
:1029800000000000E69B01200500000000000000A0
:10299000109B01200400000000000000EB9B0120C0
:1029A0000700000000000000149B0120040000004C
:1029B00000000000F29B0120030000000000000066
:1029C000189B01200800000000000000348F012047
:1029D000AA00000000000000209B0120040000006D
:1029E00000000000F59B0120010000000000000035
:1029F000249B01200400000000000000F69B012041
:102A00000100000000000000A09B01200300000066
:102A100000000000F79B01200400000000000000FF
:102A2000289B01200400000000000000FB9B012007
:102A300002000000000000002C9B01200C000000A0
:102A400000000000FD9B01200100000000000000CC
:102A5000389B01200400000000000000FE9B0120C4
:102A600001000000000000003C9B01200400000069
:102A700000000000FF9B012001000000000000009A
:102A8000409B01200400000000000000009C012089
:102A90000100000000000000449B01200400000031
:102AA00000000000019C0120010000000000000067
:102AB000489B012008000000000000009C9B0120B2
:102AC0000100000000000000989B012001000000B0
:102AD00000000000949B01200100000000000000A5
:102AE000509B01201C000000000000008490012089
:102AF000A000000000000000C096012010000000AF
:102B000000000000029C0120010000000000000005
:102B1000F096012024000000000000006C9B0120C2
:102B20000400000000000000039C012002000000DF
:102B300000000000709B0120040000000000000065
:102B4000D09601201000000000000000FC8C012045
:102B5000CC00000000000000749B01200C0000006D
:102B600000000000FA8C01200200000000000000BC
:102B70004E9C012002000000010000000401000042
:102B80006E9C01200200000001000000B400000063
:102B9000509C01201E000000010000005AA51B826D
:102BA000524068747470733A2F2F7777772E73744E
:102BB000617469712E696E2FFFFF0000A79C0120D0
:102BC00001000000010000000C000000BB9C01207F
:102BD00001000000010000000C000000DF9C01204B
:102BE000010000000100000003000000579D0120CB
:102BF00001000000010000000F000000639D0120A3
:102C00000100000001000000460000006F9D01204F
:102C1000010000000100000050000000CE9C0120D7
:102C200002000000010000003C410000EE9C012079
:102C300002000000010000003C410000FE9C012059
:102C40000200000001000000010100000E9D0120B3
:102C50000200000001000000011400001E9D012080
:102C60000200000001000000010100002E9D012073
:102C7000010000000100000001000000709C012024
:102C80001E00000001000000454D455247454E43DF
:102C9000595F425554544F4E5F505245535345442B
:102CA0002F4F4E0D0A000000909C012017000000DD
:102CB00001000000454D455247454E4359204255BD
:102CC00054544F4E204F46460D0A0000C49D01202B
:102CD000040000000100000033335340E09C012059
:102CE0000E0000000100000047464349204E4F54AB
:102CF000204F4B0D0A000000709D01200A000000CB
:102D00000100000047464349204F4B0D0A000000D8
:102D1000C89D01200400000001000000000048439D
:102D20002F9D0120010000000100000001000000B3
:102D3000CC9D012004000000010000000000484379
:102D40007A9D012001000000010000000100000048
:102D5000F09C01200E00000001000000494D4431AC
:102D6000204E4F54204F4B0D0A0000007C9D012047
:102D70000A00000001000000494D4431204F4B0D76
:102D80000A000000009D01200E000000010000006C
:102D9000494D4432204E4F54204F4B0D0A00000045
:102DA000889D01200A00000001000000494D4432C6
:102DB000204F4B0D0A000000409D01200C00000038
:102DC0000100000047415445204F50454E0D0A0078
:102DD000109D01200E0000000100000047415445F5
:102DE00020434C4F5345440D0A000000D09D012064
:102DF0000400000001000000CDCCCC3FD09C01209D
:102E00000F000000010000005048415345204E4F84
:102E100054204F4B0D0A00004C9D01200B00000078
:102E20000100000050484153455F4F4B0D0A000020
:102E3000D49D01200C0000000100000000000040B3
:102E400000000040007C1249589D01200B0000004A
:102E50000100000052474231204F46460D0A000053
:102E6000949D01200A0000000100000052474231F9
:102E70005F4F4E0D0A000000649D01200B00000012
:102E80000100000052474232204F46460D0A000022
:102E9000A09D01200A0000000100000052474232BC
:102EA0005F4F4E0D0A0000008E9C012002000000C2
:102EB00001000000AF4A0000A89C012013000000A0
:102EC00001000000534D4F4B4520495320505245BF
:102ED00053454E540D0A0000BC9C01201200000016
:102EE00001000000534D4F4B45204E4F5420544895
:102EF0004552450D0A000000309D01200D000000E4
:102F000001000000535044204E4F54204F4B0D0AF7
:102F100000000000AC9D012009000000010000003D
:102F2000535044204F4B0D0A00000000E09D01204B
:102F30000800000001000000000048430000484372
:102F4000089C012046000000010000004170706CE8
:102F500069636174696F6E2072756E206166746555
:102F60007220726563696576696E6720636F6D6D47
:102F7000616E64207468726F75676820626F6F7429
:102F80006C6F6164657220646F6E652E2E2E2E0D3F
:102F90000A000000209D01200E000000010000003A
:102FA000494E5445525255505445440D0A000000B4
:102FB000E89D0120040000000100000000004843DB
:102FC000809B01200800000000000000E096012026
:102FD00010000000000000002895012046000000BD
:102FE00000000000889B0120040000000000000099
:102FF000DC91012050000000000000008C9B0120AB
:103000000800000000000000EC9D0120040000000A
:1030100001000000000000000000000000000000AF
:103020006666666666666666666666666666666640
:08303000666666666666666668
:103AC8002DE9F04F2DED048BBFB04FF0000A56469C
:103AD800CDF8ECA0CDF8F0A0CDF8F4A0CDF8E0A09A
:103AE800CDF8E4A0CDF8E8A0CDF8D4A0CDF8D8A0C2
:103AF800CDF8DCA0ADF8C0A0CDF8B8A08DF8BCA07A
:103B08003222514621A832F071FFCDF87CA0CDF8C1
:103B180080A0CDF878A0CDF86CA0CDF870A08DF875
:103B280074A0B74CB74DDFF824B39FEDB78A9FED6B
:103B3800B79ADFEDB78AF1E0B64B1B78022B40F05D
:103B4800DC80B44B5B78012B40F0D780B24B4FF44C
:103B58008032C3F89820B14B01221A7000278DF8E3
:103B6800D07002233A4634A9AD48006829F09EFF78
:103B78008DF81C7002238DF81D303A4605A9A94816
:103B8800006829F093FFA84B18682CF05DF9B4E0A1
:103B9800A14B4FF40012C3F814213B9540238DF834
:103BA800F630A24F002364223BA9386829F07EFF33
:103BB8004FF47A702FF0E0FF3B9500238DF8F63034
:103BC80064223BA9386829F071FF64202FF0D4FFE4
:103BD800924B02221A7090E0954B389300278DF88B
:103BE800E4703B46642238A99248006829F05EFFD9
:103BF80064202FF0C1FF904B35934FF001088DF8EA
:103C0800D8808DF8D9708DF8DA703B46642235A9D2
:103C18008A48006829F04AFF64202FF0ADFF3B95E1
:103C28008DF8F1803B4664223BA98048006829F062
:103C38003DFF64202FF0A0FF237843455DD1774BEB
:103C480003221A7059E03B9540238DF8F630774FE0
:103C5800002364223BA9386829F028FF4FF47A70C2
:103C68002FF08AFF3B9500238DF8F63064223BA99C
:103C7800386829F01BFF64202FF07EFF674B042271
:103C88001A706B4B389308238DF8E73000236422B1
:103C980038A96848006829F009FF4FF47A702FF0B6
:103CA8006BFF3B9500278DF8F4708DF8F6708DF852
:103CB800F770DFF878813B4664223BA9D8F800000A
:103CC80029F0F4FE4FF47A702FF056FF3A4630A9E7
:103CD8005B4B18682AF008F83B9502238DF8F13001
:103CE8003B4664223BA9D8F8000029F0DFFE642097
:103CF8002FF042FF494B05221A702278514921A81A
:103D080032F0E2F8322121A82CF0DEFD32F0C6FDB7
:103D18000028FBD04FF4FA702FF02EFF002230A9B4
:103D2800474B186829F0E0FF10B19DF8C0302370A8
:103D380000222EA9444B186829F0D6FF18B19DF827
:103D4800BAA09DF8B960354B1B78DBB21F2BD4D8CD
:103D580001A252F823F000BF413B0000993B00004C
:103D6800E13B00004F3C00008B3C0000E13D0000BF
:103D7800033D0000593E0000033D0000033D0000E4
:103D8800033D0000033D0000033D0000033D00002B
:103D9800033D0000033D0000033D0000D73E000046
:103DA800033D00003D3F0000F5400000CB4100000E
:103DB800033D000039440000033D0000033D0000BE
:103DC800033D0000033D0000033D0000033D0000EB
:103DD800033D0000054C0000BAF1010F0BD09DF81F
:103DE800C030FA2B03D0FC2B01D0002B85D10B4B14
:103DF80000221A7081E7094B07221A70EFE700BF0B
:103E0800C69B012002C4EC150000000000007A43A4
:103E180000004D43B09B012000800041959B01208C
:103E280054990120F4990120F8990120609A012001
:103E380001C4EC15449A012002D4EC15349A0120EF
:103E4800C09A0120044301009C9A012005C4EC1586
:103E58002378312B02D9C34A11211170FA2B02D0D1
:103E6800FC2B00D093B9BF4B1F221A700027BE4B02
:103E78001F70BE4B40F233121A80BD4B02221A70DB
:103E880011202DF08BF8BB4B1F809F7023780A2BD5
:103E98007FF433AFB44B1B780133DBB2F02B02D085
:103EA800B14A137029E70027AF4B1F70AD4B1F2293
:103EB8001A70AE4B40F233121A80AD4B02221A70C0
:103EC80011202DF06BF8AB4B1F809F7015E7002376
:103ED800A54A13703B9501228DF8F62064223BA970
:103EE800A548006829F0E2FD64202FF045FE9D4BAF
:103EF80013221A700E202DF051F82378FA2B04D0D3
:103F0800FC2B02D0002B7FF4F8AE964B1F221A70C0
:103F1800964B4FF49A721A80954B02221A7006201B
:103F280030F008FC11202DF039F8924B00221A804D
:103F38009A70E2E600221FA9904B186829F0D4FE77
:103F4800002800F0CB809DF87C209DF87D3003EBA5
:103F580002238B4A82FB03139B1007EE903AF8EE7C
:103F6800E77A9DF87E109DF87F3003EB012382FBF2
:103F780003239B1007EE103AB8EEC77ABDEEC77A56
:103F880017EE103A7F4A92FBF3F303EB83035B00CF
:103F980007EE103AB8EEC77A7B4B83ED007AB2EEA3
:103FA800047A67EE877A93ED007AF4EEC77AF1EE39
:103FB80010FA48BFC3ED007A3B9500278DF8F670DC
:103FC8003B4664223BA96C48006829F06FFD6420D9
:103FD8002FF0D2FD6D4B38936B4AD2ED007AFCEE90
:103FE800E77A17EE903A8DF8E430D2ED007AFCEEDD
:103FF800E77A17EE903AC3F307238DF8E53070237C
:104008008DF8E63017238DF8E7304FF010038DF860
:10401800E83027238DF8E9304FF014088DF8EA804E
:104028008DF8EB70DFF874913B46642238A9D9F813
:10403800000029F03BFD4FF496702FF09DFD8DF8A0
:10404800E4808DF8E570C8238DF8E6308DF8E770C8
:104058008DF8E8808DF8E9704FF064088DF8EA80F3
:104068008DF8EB704A4B38933B46424638A9D9F84D
:10407800000029F01BFD4FF496702FF07DFD022300
:104088008DF8F6303B953B4642463BA93A480068D6
:1040980029F00CFD40462FF06FFD10202CF07EFF1C
:1040A8002278A2F15B03DBB2092B03D82D4B142233
:1040B8001A7013E0FA2A01D0FC2A14D1294B1F22C6
:1040C8001A702A4B40F235121A80294B02221A70B4
:1040D800082030F02FFB11202CF060FF254B002228
:1040E8001A809A7009E6002AE8D0F7E7312E03D93A
:1040F800284B1B78012B19D0264B1B78002B7FF4FB
:10410800FCAD01238DF8F4300C238DF8F6303B9587
:10411800002364223BA91848006829F0C7FC6420E2
:104128002FF02AFD0F4B15221A70E6E51A4BD3F82B
:10413800203113F0807F33D101238DF8F4300C2324
:104148008DF8F6303B95002364223BA90A480068A5
:1041580029F0ACFC64202FF00FFD024B15221A70D9
:10416800CAE700BF959B0120049C01206E950120A1
:10417800CF9B0120B09B0120609A0120B09A0120BA
:1041880067666666C0270900C899012003C4EC1554
:1041980004C0EC15FF9C012000800041449A0120D6
:1041A8008A4B1F221A708A4B40F235121A80894BAB
:1041B80002221A70072030F0BDFA11202CF0EEFE12
:1041C8009AE7854B4FF48012C3F8142100221EA9E8
:1041D800824B186829F088FD9DF878309DF8792081
:1041E80002EB03227E4981FB0232921007EE902AED
:1041F800F8EEE77A7B4BC3ED007A9DF87A209DF8BC
:104208007B3003EB022381FB03239B1007EE103A5C
:10421800B8EEC77A744B83ED007AF4EEE87AF1EEE3
:1042280010FA04DDB5EEC07AF1EE10FA18DA237848
:10423800FA2B04D0FC2B02D0002B7FF45EAD634B2D
:104248001F221A70624B4FF49B721A80614B022234
:104258001A70082030F06EFA11202CF09FFE4CE501
:104268004FF080430593CDED067A01238DF81C307D
:1042780002238DF81D30002205A95C48006829F04A
:1042880015FC5B4B18682BF0DFFD9DF879308DF835
:10429800F0309DF878308DF8F130CDF8ECB000238F
:1042A80064223BA95348006829F000FC64202FF0E1
:1042B80063FC2378782BBAD14F4BD3F8008032F0C7
:1042C80023FD4EF660270097002302460121404651
:1042D8002EF096FB494BD3F8008032F015FD00977D
:1042E80000230246012140462EF08AFB444BD3F8B6
:1042F800008032F009FD0097002302460121404664
:104308002EF07EFB3F4BD3F8008032F0FDFC009787
:1043180000230246012140462EF072FB3A4BD3F8A7
:10432800008032F0F1FC009700230246012140464C
:104338002EF066FB354BD3F8008032F0E5FC009791
:1043480000230246012140462EF05AFB12202CF091
:1043580025FE03202DF018FC1C4B17221A702C4B3D
:1043680018782FF091F9DFF8C08098F800002FF046
:10437800A7F9DFF8B890B9F800002FF0BDF9254982
:1043880008782FF0F1F9244800782FF0D1F9234F5D
:1043980038782FF005FA224B1A68224B1A60B9F8C0
:1043A800001098F800301A4A12781B0243EA0143B9
:1043B80013430B9318480178164B1B783A781B0265
:1043C80043EA014313430C9331E700BF959B012057
:1043D8006E950120CF9B012000800041B89A0120F2
:1043E800676666667C9B0120EC9A0120F49901209F
:1043F800F8990120609A0120D89A01203C9B01205D
:10440800409B0120449B0120489B01209499012056
:10441800DD9B0120F59B0120E69B0120029C0120E9
:10442800B4990120209A0120F69B0120FA8C0120E2
:1044380000221AA9BB4B186829F056FC28B1BA4AC1
:104448009DF8683011880B441380B84B18682BF01E
:10445800FBFCB54B18882FF06FF800221EA9B44B4F
:10446800186829F041FC002800F0EE809DF87A20B9
:104478009DF87B3003EB0223AE4981FB03239B08A5
:1044880007EE903AF8EE677AAB4AC2ED007A9DF8EB
:1044980078009DF8792002EB002281FB0212920835
:1044A80007EE902AF8EE677AA44AC2ED007AFA2B52
:1044B80084BFA14B83ED009AA14B1B78072B00F01A
:1044C8009C819D4B93ED007A9C4BD3ED006A67EE7F
:1044D800267A9C4BC3ED007A9B4B1A689B4B1A605B
:1044E80093ED006AF4EEC67AF1EE10FA31D5984BE6
:1044F8001B7813BBCDED066A944B93ED006A954B80
:10450800D3ED006AC6EE267AB4EEE77AF1EE10FA39
:10451800C0F27881B6EE007A67EE877ACDED057A3B
:1045280003238DF81D3001238DF81C30022300224F
:1045380005A98948006829F0B9FA854B1B78DBB2D0
:10454800012B00F06C81824B1B78DBB2012B00F051
:1045580099817E4BD3ED007A7A4B93ED007AB4EED5
:10456800E77AF1EE10FA35DD794B1B7833BB734BE4
:104578001B680693754BD3ED006A764BD3ED007A32
:1045880086EEA77A6C4BD3ED007AB4EEE77AF1EEBB
:1045980010FA00F2AF81F6EE007A27EE277A8DED59
:1045A800057A03238DF81D3001238DF81C30022372
:1045B800002205A96848006829F078FA644B1B783E
:1045C800DBB2012B00F0A381614B1B78DBB2012B1E
:1045D80000F0D5819DF87A109DF87B005F4F3A78FE
:1045E8004FEA820C5E4B03EB0C0E00EB0123DFF865
:1045F800448188FB03839B0807EE903AF8EE677ABC
:10460800CEED007A574B6344DFF848C1DCF800C0B0
:10461800C3F800C001323A709DF879308DF8F03057
:104628009DF878308DF8F1308DF8F2008DF8F310A0
:10463800CDF8ECB0002364223BA94B48006829F070
:1046480035FA32202FF098FA00221BA9474B186838
:1046580029F04AFB88B1464A13789DF86E0045490F
:10466800C85401331370364B1B78042B40F2BF81BA
:10467800334B1B78052B00F0C581384B1B78052B75
:1046880000F0C8813A4B1B78052B00F041820623C5
:104698008DF8CD30384A1288ADF8CA20374A1288CA
:1046A800ADF8C820364A12788DF8CE20354A1278EF
:1046B8008DF8CC208DF8C4300223002232A932486C
:1046C800006829F0F3F90223002231A92F48006875
:1046D80029F0ECF91E4B1B782BB92D4B1B78DBB25C
:1046E800012B00F036821A4B1B78DBB2012B00F04D
:1046F8003A822378292B03D0FA2B01D0FC2B53D1F3
:10470800244B1F221A70244BCA221A80234B0222E0
:104718001A700A2030F00EF8214B1A68214B1A60E3
:1047280042E000BF809901206A930120609901202E
:10473800B89A012067666666EC9A01207C9B012086
:10474800EC9B0120349B0120DC9D0120E099012095
:10475800B99B0120E49D0120F4990120F19B0120DF
:10476800649601208C960120609A0120B49A012059
:10477800E99B012070980120A69B0120AE9B012097
:10478800C99B0120CB9B0120409901200099012061
:10479800BF9B0120959B01206E950120CF9B012096
:1047A800B4990120289A01209DF86C30012B00F063
:1047B800F081A6F14603DBB23B2B07D8C04A137839
:1047C8000133DBB21370052B00F2F481BD4B1B786B
:1047D800022B7FF492AABB4B9B78012B7FF48DAA06
:1047E800B94B1F221A70B74B00221A809A70B74B28
:1047F8001A68B74B1A60FFF780BAB64B18782FF0D3
:10480800ABFC5EE6B4EEE77AF1EE10FA7FF588AE1F
:10481800F6EE007A27EE277A8DED057A80E6AE4B24
:104828001B78002B3FF48FAEAC4B1B680693AC4B48
:10483800D3ED007AB6EE007A67EE877AA94BD3ED0E
:10484800006A87EEA67AA84BD3ED007AB4EEE77A31
:10485800F1EE10FA0ED88DED057A02238DF81D3091
:1048680001228DF81C20002205A9A048006829F023
:104878001DF96EE6B4EEE77AF1EE10FAC8BFCDED99
:10488800057AEAE7944B1B78002B7FF462AE934BD2
:104898001B680693924BD3ED006A924BD3ED007AD6
:1048A80086EEA77A904BD3ED007AB4EEE77AF1EE74
:1048B80010FA13D8F6EE007A27EE277A8DED057AEE
:1048C80003238DF81D3001238DF81C3002230022AC
:1048D80005A98648006829F0E9F83AE6B4EEE77ACF
:1048E800F1EE10FAECDDB6EE007A67EE877ACDEDE0
:1048F800057AE5E7B4EEE77AF1EE10FA7FF751AE04
:10490800B6EE007A67EE877ACDED057A49E6724B06
:104918001B78002B3FF458AE754B4FF48032C3F828
:1049280098206E4B1B6806936D4BD3ED007AB6EE5C
:10493800007A67EE877A6B4BD3ED006A87EEA67A2A
:10494800694BD3ED007AB4EEE77AF1EE10FA0ED89F
:104958008DED057A02238DF81D3001228DF81C207B
:10496800002205A96148006829F0A0F832E6B4EEF3
:10497800E77AF1EE10FAC8BFCDED057AEAE7564BB3
:104988001B78002B7FF426AE544B1B680693544BC0
:10499800D3ED006A534BD3ED007A86EEA77A524BDB
:1049A800D3ED007AB4EEE77AF1EE10FA13D8F6EE0A
:1049B800007A27EE277A8DED057A03238DF81D30CE
:1049C80001238DF81C300223002205A947480068FE
:1049D80029F06CF8FEE5B4EEE77AF1EE10FAECDDBA
:1049E800B6EE007A67EE877ACDED057AE5E72FF027
:1049F800B3FB9DF86E20374B1A703E4A137801338B
:104A0800137035E63B4B07221A709DF86E203A4B1F
:104A18001A7032E64FF0000E384B83F800E0384B3E
:104A28001988384B1888384B384A03F11409CDF8DF
:104A38000CE09C464FF00108174601E04B4523D097
:104A4800F3EC017A9CED007AB4EEE77AF1EE10FA15
:104A580007D8CCED007AFCEEE77A17EE901A89B207
:104A6800C646F2EC017A97ED007AB4EEE77AF1EEF9
:104A780010FAE3D8C7ED007AFCEEE77A17EE900A51
:104A880080B2CDF80C80D9E7BEF1000F01D01C4BE5
:104A98001980039B0BB11B4B18801B4BD3ED007A7D
:104AA800FCEEE77A17EE900A2EF07EFD174BD3ED59
:104AB800007AFCEEE77A17EE900A2EF059FDE1E550
:104AC800DC9B0120B09B0120959B0120B49901201B
:104AD800289A0120999B0120759801207C9B012030
:104AE800E0990120E49D0120EC9A0120F49901202D
:104AF80000800041EC9B0120C99B0120F19B012013
:104B0800A69B0120AE9B0120649601208C96012073
:104B180000272F4B1F702F4B93F800E02E4B03F10B
:104B2800050C18464FF0010801E0634508D013F85A
:104B3800012B01789142F8D8027096464746F4E76F
:104B480017B1244B83F800E0234B18782FF0ECFAC8
:104B58009DE500228DF8D020022334A91F48006863
:104B680028F0A4FFBFE51E4B1B78DBB2012B7FF4B6
:104B7800C0AD1C4B1B78DBB2142B7FF6BAAD0022FC
:104B88008DF8D020022334A91448006828F08EFF3D
:104B9800AFE5154B1F221A70144BC9221A80144B0B
:104BA80002221A700A202FF0C5FD124B1A68124B08
:104BB8001A60FEE50C4B1F221A700D4B02221A7068
:104BC80009202FF0B7FD0B4B1A680B4B1A60FDE557
:104BD800E99B0120CB9B012070980120549901206A
:104BE800BF9B012075980120959B01206E9501209F
:104BF800CF9B0120B4990120289A0120B74B1B783C
:104C08002BB9B74B1B78DBB2012B00F02E81B34BCD
:104C18001B78DBB2012B00F039814FF003098DF8C6
:104C2800F1903B95DFF83883002364223BA9D8F83C
:104C3800000028F03BFF32202EF09EFF00278DF861
:104C4800F0708DF8F170CDF8ECB03B4664223BA9CA
:104C5800D8F8000028F02AFF32202EF08DFFA14B53
:104C68001A68A14B1A609E4B1F708DED058A8DED59
:104C7800068A8DF81C7002238DF81D303A4605A966
:104C88009A48006828F012FF994B18682BF0DCF856
:104C98008DF8F1903B953B4664223BA9D8F800007B
:104CA80028F004FF32202EF067FF8DF8F0708DF8A1
:104CB800F170CDF8ECB03B4664223BA9D8F800006F
:104CC80028F0F4FE32202EF057FF0A2300933B46CB
:104CD8003A464946874800682DF092FE864B187878
:104CE8002EF07AFD854B18782EF092FD844B1888AB
:104CF8002EF0AAFD834B18782EF0DEFD824B187833
:104D08002EF0BEFD814B18782EF0F2FD804B18680E
:104D18002EF026FE7F4B1B78DBB2012B00F0CC80F7
:104D28007C4B1B78DBB2022B00F0CA80794B1B78D6
:104D3800DBB2032B00F0C8806B4BD3ED007AFCEE9E
:104D4800E77A754B93ED007ABCEEC77A17EE100A36
:104D580017EE903A181A714F38602EF0E5FD704B37
:104D680015221A7005202CF00FFF694B1B680A9357
:104D7800634B1988614B1B785F4A12781B0243EA20
:104D8800014313430D93604B19785E4B1B785F4AC0
:104D980012781B0243EA014313430E93614B1A78BE
:104DA800614B1B7843EA02430F933B6843F400339B
:104DB8001093584B1A78DFF8AC91B9F8003043EAF1
:104DC800024311934FF002088DF8208000236422DB
:104DD80008A95648006828F069FE554B18682BF05A
:104DE80033F80027A9F800700123524A1370524A79
:104DF8001370524A1370524B1F70524B1F809F7092
:104E080009238DF8CD30ADF8CA70ADF8C8708DF8AB
:104E1800CE708DF8CC708DF8C43043463A4632A92E
:104E28004948006828F042FE43463A4631A94748B7
:104E3800006828F03BFE464B1F70284B1B78002B60
:104E480046D04FF6FF702DF09BFE00233C4A1370AE
:104E58003C4A138093703F4B18682AF0F5FF3E4B8D
:104E6800186829F031FDFEF748BF00228DF81C2094
:104E780003238DF81D30022305A91C48006828F07B
:104E880015FE40F6B8302EF077FEC0E6144B1B78BE
:104E9800DBB2012B7FF4C1AE00228DF81C20022367
:104EA8008DF81D3005A91148006828F0FFFD40F66F
:104EB800B8302EF061FEB0E601202FF03BFC2FE762
:104EC80002202FF037FC31E703202FF033FC33E7C3
:104ED800224B186829F0F8FCB3E700BFB99B012002
:104EE800BF9B0120B4990120289A0120F499012040
:104EF800F899012094990120DD9B0120F69B01205F
:104F0800FA8C0120F59B0120E69B0120029C0120E0
:104F1800EC980120CE9B0120209A012014990120B1
:104F2800DF9C0120999B0120CB9B01206C990120DB
:104F380070990120BE9B0120BD9B0120BC9B0120D4
:104F4800DC9B0120B09B01204099012000990120A1
:104F5800959B0120849901204C9A01206099012099
:104F6800609A01206A9301202DE9F04F2DED048B02
:104F7800BDB00024A346A24639943A943B94369493
:104F880037943894339434943594ADF8C4402F94BE
:104F98008DF8C040322221461FA831F027FD1D940C
:104FA8001E941C9419941A948DF86C40AE4D9FED84
:104FB800AF8A9FEDAF9ADFEDAF8A5DE0AE4B1B780D
:104FC800012B48D1AC4B5B78012B44D1AB4B4FF450
:104FD8008032C3F898200127A94B1F7000268DF84E
:104FE800C8600223324632A9A648006828F05EFD50
:104FF8008DF814608DF815700223324603A9A24873
:10500800006828F053FDA14B18682AF01DFF22E024
:105018009A4B4FF40012C3F81421399540238DF8A8
:10502800EE309B4E0023642239A9306828F03EFDFB
:105038004FF47A702EF0A0FD399500238DF8EE30EC
:10504800642239A9306828F031FD64202EF094FDDF
:105058008B4B02221A7022468E491FA830F034FF6B
:1050680032211FA82BF030FC31F018FC0028FBD0AF
:105078004FF4FA702EF080FD002231A9864B186893
:1050880028F032FE08B19DF8C44000222FA9834BB6
:10509800186828F029FE18B19DF8BEB09DF8BDA08B
:1050A800774B1B78DBB21F2BD5D801A252F823F01F
:1050B800C54F00001950000039510000A5510000EB
:1050C800E35100004B5200005F500000B95200004D
:1050D8005F5000005F5000005F5000005F5000000C
:1050E8005F5000005F5000005F5000005F500000FC
:1050F8005F500000355300005F50000099530000D6
:10510800535500002F5600005F50000091580000D2
:105118005F5000005F5000005F5000005F500000CB
:105128005F5000005F5000005F5000005D600000AD
:105138005B4B369300268DF8DC603346642236A933
:105148005848006828F0B2FC64202EF015FD564B34
:10515800339301278DF8D0708DF8D1608DF8D26027
:105168003346642233A95148006828F09FFC642024
:105178002EF002FD39958DF8E9703346642239A97D
:105188004348006828F092FC64202EF0F5FCBC42ED
:105198007FF461AF3A4B03221A705CE739954023DC
:1051A8008DF8EE303A4E0023642239A9306828F091
:1051B8007DFC4FF47A702EF0DFFC399500238DF8D2
:1051C800EE30642239A9306828F070FC64202EF093
:1051D800D3FC2B4B04221A703DE7314B369308233E
:1051E8008DF8DF300023642236A92E48006828F0A5
:1051F8005DFC4FF47A702EF0BFFC399500268DF8CF
:10520800EC608DF8EE608DF8EF60214F3346642234
:1052180039A9386828F04AFC4FF47A702EF0ACFCB3
:10522800399502238DF8E9303346642239A9386864
:1052380028F03CFC64202EF09FFC114B05221A70CC
:1052480009E7BBF1010F0AD0FA2C04D0FC2C02D0DC
:10525800002C7FF400AF0A4B00221A70FBE6084BC3
:1052680007221A70F0E700BF02C0EC15000000002A
:1052780000007A4300004D43B49B012000800041A8
:105288007598012054990120F4990120F89901207A
:10529800609A0120F0420100909A01206C9A012046
:1052A80001C0EC15449A012002D0EC15349A012073
:1052B800312C02D9C34B11221A70FA2C02D0FC2CC3
:1052C80000D09CB9BF4B1F221A700026BE490E7031
:1052D8001A70BE4B40F233121A80BD4B01221A706D
:1052E80008202BF05BFEBB4B1E809E700A2C7FF4BF
:1052F800B2AEB54B1B780133DBB2F02B02D0B24A09
:105308001370A8E60026B04B1E70AE4B1F221A7011
:10531800AE4B40F233121A80AD4B01221A700820AE
:105328002BF03CFEAB4B1E809E7094E60023A64AF1
:105338001370399501228DF8EE20642239A9A64808
:10534800006828F0B3FB64202EF016FC9D4B132256
:105358001A7005202BF022FEFA2C04D0FC2C02D067
:10536800002C7FF478AE974B1F221A70974B4FF49E
:105378009A721A80964B01221A7006202FF0C4F9EF
:1053880008202BF00BFE934B00221A809A7062E6DD
:1053980000221DA9914B186828F0A6FC002800F0EF
:1053A800CC809DF874209DF8753003EB02238C4A5D
:1053B80082FB03139B1007EE903AF8EEE77A9DF80C
:1053C80076109DF8773003EB012382FB03239B10B3
:1053D80007EE103AB8EEC77ABDEEC77A17EE103A64
:1053E800804A92FBF3F303EB83035B0007EE103A6A
:1053F800B8EEC77A7C4B83ED007AB2EE047A67EE9A
:10540800877A93ED007AF4EEC77AF1EE10FA48BF86
:10541800C3ED007A399500268DF8EE606E4F33465D
:10542800642239A9386828F041FB64202EF0A4FBD7
:105438006E4B36936C4AD2ED007AFCEEE77A17EEA3
:10544800903A8DF8DC30D2ED007AFCEEE77A17EE70
:10545800903AC3F307238DF8DD3070238DF8DE30E2
:1054680017238DF8DF3010238DF8E03027238DF8CF
:10547800E1304FF014088DF8E2808DF8E360DFF832
:1054880080913346642236A9D9F8000028F00EFB33
:105498004FF4FA702EF070FB8DF8DC808DF8DD602B
:1054A800C8238DF8DE308DF8DF608DF8E0808DF848
:1054B800E1604FF064088DF8E2808DF8E3604C4BB2
:1054C80036933346424636A9D9F8000028F0EEFA5A
:1054D8004FF4FA702EF050FB02238DF8EE30399518
:1054E8003346424639A9386828F0E0FA4FF4FA7092
:1054F8002EF042FB324631A93E4B186828F0F4FBE7
:10550800A4F15B03DBB2092B03D82E4B14221A70CB
:1055180013E0FA2C01D0FC2C14D12A4B1F221A704C
:105528002A4B40F235121A80294B01221A700820A2
:105538002FF0EAF808202BF031FD264B00221A80C4
:105548009A7088E5002CE8D0F7E72B4B1B78012BE5
:1055580019D0294B1B78002B7FF47DAD01238DF8E2
:10556800EC300C238DF8EE3039950023642239A9EC
:105578001948006828F09AFA64202EF0FDFA114BB9
:1055880015221A7067E5BAF1310F7FF664AD1B4B2F
:10559800D3F8A03013F4000F34D101238DF8EC3088
:1055A8000C238DF8EE3039950023642239A90A4876
:1055B800006828F07BFA64202EF0DEFA014B1522F1
:1055C8001A70C6E775980120039C01206E9501208A
:1055D800CF9B0120B49B0120609A0120809A012072
:1055E80067666666C0270900C499012003C0EC15E8
:1055F80004C0EC15909A0120FE9C01200080004117
:10560800449A0120864B1F221A70864B40F23512AD
:105618001A80854B01221A7007202FF075F8082090
:105628002BF0BCFC95E7814B4FF40022C3F8142102
:1056380000221CA97E4B186828F056FB9DF8703094
:105648009DF8712002EB03227A4981FB0232921005
:1056580007EE902AF8EEE77A774BC3ED007A9DF8CB
:1056680072209DF8733003EB022381FB03239B1008
:1056780007EE103AB8EEC77A704B83ED007AF4EE75
:10568800E87AF1EE10FA04DDB5EEC07AF1EE10FA20
:1056980019DA9DF8C430FA2B04D0FC2B02D0002B69
:1056A8007FF4D9AC5E4B1F221A705E4B4FF49B728D
:1056B8001A805D4B01221A7008202FF025F8082067
:1056C8002BF06CFCC7E44FF080430393CDED047AD4
:1056D80001238DF814308DF815300223002203A918
:1056E8005748006828F0E2F9564B18682AF0ACFBD6
:1056F8009DF871308DF8E8309DF870308DF8E930FC
:10570800514B39930023642239A95048006828F086
:10571800CDF90A202EF030FA782CBAD14C4B1F68FC
:1057280031F0F2FA4EF66026009600230246012177
:1057380038462DF065F9474B1F6831F0E5FA0096B9
:1057480000230246012138462DF05AF9424B1F68C2
:1057580031F0DAFA009600230246012138462DF08E
:105768004FF93E4B1F6831F0CFFA009600230246EE
:10577800012138462DF044F9394B1F6831F0C4FA3D
:10578800009600230246012138462DF039F9354BA1
:105798001F6831F0B9FA0096002302460121384605
:1057A8002DF02EF909202BF0F9FB03202EF0E6FE50
:1057B8001B4B17221A702C4F38782DF035FDDFF867
:1057C800C08098F800002DF04BFDDFF8B890B9F8CC
:1057D80000002DF061FD254B18782DF095FD244A29
:1057E80010782DF075FD234E30782DF0A9FD224B51
:1057F8001A68224B1A60B9F8001098F800303A7805
:105808001B0243EA014313430993194A1178174BC2
:105818001B7832781B0243EA014313430A9338E7A3
:10582800759801206E950120CF9B012000800041D2
:10583800889A012067666666789B0120E89A0120AD
:10584800F4990120F899012005C0EC15609A01200F
:1058580090990120D89A01203C9B0120409B01206F
:10586800449B0120489B0120DD9B0120F59B0120E2
:10587800E69B0120029C0120B09901201C9A01207E
:10588800F69B0120FA8C0120002218A9BB4B18684E
:1058980028F02AFA28B1BA4A9DF8603011880B44DA
:1058A8001380B84B18682AF0CFFAB54B18882DF03A
:1058B80013FCB54B1B78072B00F0C38100221CA9F1
:1058C800B24B186828F010FA002800F0E2809DF822
:1058D80072209DF8733003EB0223AD4981FB03234B
:1058E8009B0807EE903AF8EE677AAA4AC2ED007A6A
:1058F8009DF870009DF8712002EB002281FB0212D6
:10590800920807EE902AF8EE677AA34AC2ED007A69
:10591800FA2B84BF9F4B83ED009A9E4BD3ED006A10
:1059280027EEA67A9D4B83ED007A9D4B1A689D4B16
:105938001A6093ED006AB4EEC67AF1EE10FA31D52A
:10594800994B1B7813BBCDED047A964B93ED006A07
:10595800964B93ED007AC6EE077AF4EEE76AF1EE1D
:1059680010FAC0F27381B6EE007A67EE877ACDED51
:10597800037A03238DF8153001238DF814300223A0
:10598800002203A98A48006828F090F8864B1B7803
:10599800DBB2012B00F06781834B1B78DBB2012B54
:1059A80000F099817F4BD3ED007A7C4B93ED007A20
:1059B800B4EEE77AF1EE10FA35DD7B4B1B7833BB9A
:1059C800754B1B680493774BD3ED006A774BD3ED87
:1059D800007A86EEA77A6F4BD3ED007AB4EEE77AB9
:1059E800F1EE10FA00F2AF81F6EE007A27EE277A90
:1059F8008DED037A03238DF8153001238DF81430CB
:105A08000223002203A96A48006828F04FF8664B71
:105A18001B78DBB2012B00F0A381634B1B78DBB250
:105A2800012B00F0D581634802784FEA820C624B63
:105A380063445E49096819609DF872609DF8737047
:105A48005E49614407EB0623DFF844C18CFB03C3BE
:105A58009B0807EE903AF8EE677AC1ED007A0132BA
:105A680002709DF871308DF8E8309DF870308DF82F
:105A7800E9308DF8EA708DF8EB60514B39930023CB
:105A8800642239A94F48006828F010F832202EF017
:105A980073F8002219A94C4B186828F025F988B129
:105AA8004A4A13789DF866004949C854013313706F
:105AB800354B1B78042B40F2C381334B1B78052BE5
:105AC80000F0C9813B4B1B78052B00F0C8813F4B88
:105AD8001B78052B00F0188206268DF8B5603D4B23
:105AE8001B88ADF8B2303C4B1B88ADF8B0303B4B4F
:105AF8001B788DF8B6303A4B1B788DF8B4300223FA
:105B080000222CA93748006827F0D0FF8DF8B8602C
:105B1800022300222EA93448006827F0C7FF334B20
:105B28001B78DBB2012B00F03982304B1B78DBB2DB
:105B3800012B00F04282292C03D0FA2C01D0FC2C36
:105B48000FD12B4B1F221A702A4BCA221A802A4BBC
:105B580001221A700A202EF0D7FD284B1A68284B0C
:105B68001A609DF86430012B00F03D82AAF14603CB
:105B7800DBB23B2B4ED8234A137845E074990120B9
:105B88003693012060990120EB9B0120889A01201F
:105B980067666666E89A0120789B0120309B0120A1
:105BA800DC9D0120E0990120BF9B0120E09D0120A0
:105BB800F4990120F09B012078960120509601204D
:105BC80005C0EC15609A0120849A0120E89B012009
:105BD800689801209E9B0120AA9B0120B79B012069
:105BE800CA9B01203C990120FC980120B99B012007
:105BF800759801206E950120CF9B0120B099012056
:105C0800249A0120DB9B01200133DBB21370052BA2
:105C180000F2FA81C24B1B78012B7FF41CAAC04BFF
:105C28009B78012B7FF417AABE4B1F221A70BC4B1E
:105C380000221A809A70BC4B1A68BC4B1A60FFF796
:105C48000ABABB4B18782EF027FA37E6F4EEE76A63
:105C5800F1EE10FA7FF58DAEF6EE007A66EEA76AE1
:105C6800CDED036A85E6B34B1B78002B3FF494AE69
:105C7800B14B4FF48032C3F89820B04B1B680493A3
:105C8800AF4BD3ED007AB6EE007A67EE877AAD4B6C
:105C9800D3ED006A87EEA67AAB4BD3ED007AB4EE6B
:105CA800E77AF1EE10FA0ED88DED037A01238DF81C
:105CB80015308DF814300223002203A9A348006888
:105CC80027F0F4FE6EE6B4EEE77AF1EE10FAC8BFFC
:105CD800CDED037AEAE7974B1B78002B7FF462AE91
:105CE800964B1B680493964BD3ED006A954BD3ED06
:105CF800007A86EEA77A944BD3ED007AB4EEE77A71
:105D0800F1EE10FA13D8F6EE007A27EE277A8DED29
:105D1800037A03238DF8153001238DF814300223FC
:105D2800002203A98948006827F0C0FE3AE6B4EECD
:105D3800E77AF1EE10FAECDDB6EE007A67EE877AD4
:105D4800CDED037AE5E7B4EEE77AF1EE10FA7FF7E6
:105D580051AEB6EE007A67EE877ACDED037A49E662
:105D6800744B1B78002B3FF458AE734B4FF48032C2
:105D7800C3F89820714B1B680493714BD3ED007ADC
:105D8800B6EE007A67EE877A6E4BD3ED006A87EE3F
:105D9800A67A6D4BD3ED007AB4EEE77AF1EE10FAFD
:105DA8000ED88DED037A01238DF815308DF8143057
:105DB8000223002203A96548006827F077FE32E62F
:105DC800B4EEE77AF1EE10FAC8BFCDED037AEAE750
:105DD800584B1B78002B7FF426AE584B1B68049356
:105DE800574BD3ED006A574BD3ED007A86EEA77A6E
:105DF800554BD3ED007AB4EEE77AF1EE10FA13D8EA
:105E0800F6EE007A27EE277A8DED037A03238DF8D4
:105E1800153001238DF814300223002203A94B48C2
:105E2800006827F043FEFEE5B4EEE77AF1EE10FADB
:105E3800ECDDB6EE007A67EE877ACDED037AE5E71A
:105E48002EF02AF9424A1378013313709DF8662020
:105E5800374B1A7031E63E4B07221A7032E64FF084
:105E6800000C3C4B83F800C03B4B19883B4B18880F
:105E78003B4B3C4A03F1140EE0461F464FF0010924
:105E8800164601E0734522D0F3EC017A97ED007ACB
:105E9800B4EEE77AF1EE10FA07D8C7ED007AFCEE17
:105EA800E77A17EE901A89B2CC46F2EC017A96EDB1
:105EB800007AB4EEE77AF1EE10FAE3D8C6ED007A8C
:105EC800FCEEE77A17EE900A80B2C846DAE7BCF132
:105ED800000F01D0204B1980B8F1000F01D01F4BE3
:105EE80018801F4BD3ED007AFCEEE77A17EE900A84
:105EF8002DF02AF91B4BD3ED007AFCEEE77A17EE6A
:105F0800900A2DF005F9E2E50026174B1E70174B95
:105F180093F800C0164B5F1D18464FF0010E2BE09A
:105F2800B49B012075980120B0990120249A012082
:105F3800B79B0120959B012000800041789B0120A0
:105F4800E0990120E09D0120E89A0120F4990120C0
:105F5800EB9B0120F09B01209E9B0120AA9B012026
:105F68005096012078960120E89B0120CA9B0120C9
:105F780068980120BB4208D013F8012B01789142A0
:105F8800F8D8027094467646F4E716B1274B83F8A2
:105F980000C0274B18782EF067F89DE5254B1B7835
:105FA800002B7FF4C2AD00228DF8C820022332A94D
:105FB8002148006827F07AFDB7E51E4B1B78DBB255
:105FC800012B7FF4B8AD1D4B1B78DBB2142B7FF689
:105FD800B2AD00228DF8C820022332A91648006805
:105FE80027F064FDA7E5164B1F221A70154BC9222E
:105FF8001A80154B01221A7009202EF085FB134BCD
:106008001A68134B1A60B1E50D4B1F221A700D4B1D
:10601800C9221A800C4B01221A700A202EF074FB38
:106028000A4B1A680A4B1A60F4E500BFCA9B0120A4
:1060380068980120BF9B012054990120959B01205D
:10604800759801206E950120CF9B0120B099012001
:10605800249A0120B94B1B78DBB2012B00F0308168
:10606800B64B1B78DBB2012B00F040814FF00308E0
:106078008DF8E9803995B24F0023642239A9386830
:1060880027F014FD32202DF077FD00268DF8E8600A
:106098008DF8E960AB4B39933346642239A93868E7
:1060A80027F004FD32202DF067FDA74B1B68DFF8B1
:1060B8001493C9F80030A14B1E708DED038A8DED45
:1060C800048A8DF8146001238DF8153002233246B6
:1060D80003A99E48006827F0E9FC9D4B186829F041
:1060E800B3FE8DF8E98039953346642239A93868BA
:1060F80027F0DCFC32202DF03FFD8DF8E8608DF8AC
:10610800E960904B39933346642239A9386827F0FF
:10611800CDFC32202DF030FD0A2300933346324661
:1061280041468C4800682CF06BFC8B4B18782DF09E
:1061380023F98A4B18782DF03BF9894B18882DF0F4
:1061480053F9884B18782DF087F9874B18782DF07C
:1061580067F9864B18782DF09BF9854B18682DF058
:10616800CFF9D9ED007AFCEEE77A824B93ED007A0D
:10617800BCEEC77A17EE100A17EE903A181A7E4B43
:1061880018602DF0A1F97D4B1B78DBB2012B00F0D4
:10619800C3807A4B1B78DBB2022B00F0C180774BAF
:1061A8001B78DBB2032B00F0BF80754B0C221A70F2
:1061B80005202EF0E3F96E4B1B680893684B19888D
:1061C800664B1B78644A12781B0243EA0143134367
:1061D8000B93654B1978634B1B78644A12781B0242
:1061E80043EA014313430C93664B1A78664B1B78BA
:1061F80043EA02430D93604B1B6843F480330E93CC
:106208005E4B1A78DFF8C081B8F8003043EA0243E1
:106218000F9302278DF818700023642206A95B48A3
:10622800006827F043FC5A4B186829F00DFE002639
:10623800A8F800600123574A1370574A1370574A49
:106248001370574A1370574B1E809E70DFF87C817D
:1062580088F800604FF009098DF8B590ADF8B26084
:10626800ADF8B0608DF8B6608DF8B4603B46324644
:106278002CA94D48006827F019FC8DF8B8903B46CA
:1062880032462EA94948006827F010FC88F80060BB
:10629800474B1E70474B1B78002B49D04FF6FF70B9
:1062A8002CF06EFC3F4B00221A809A70424B186803
:1062B80029F0CAFD414B186828F006FBFEF7CBBE53
:1062C8003C4B1B78002B7FF4CBAE00228DF81420BA
:1062D80003238DF81530022303A91C48006827F012
:1062E800E5FB40F6B8302DF047FCB9E6314B1B789A
:1062F800DBB2012B7FF4BAAE00228DF814208DF8A2
:106308001530022303A91148006827F0CFFB40F697
:10631800B8302DF031FCA9E601202EF0F5F938E768
:1063280002202EF0F1F93AE703202EF0EDF93CE7D0
:10633800234B186828F0C8FAB0E700BFB99B0120C2
:10634800609A012005C0EC15B0990120F49901204C
:10635800F899012090990120DD9B0120F69B0120EE
:10636800FA8C0120F59B0120E69B0120029C01206C
:10637800E89801201C9A012010990120CE9B012049
:10638800DF9C0120B79B0120CA9B01206C9901204A
:10639800709901209D9B0120AD9B0120A99B0120A4
:1063A800A59B0120B49B01203C990120FC98012069
:1063B80075980120BF9B0120789901203C9A012003
:1063C80060990120249A012036930120DB9B01204B
:1063D80038B50446D4485A230370A52343700723CD
:1063E80083708223C3701423037102234371D4F88A
:1063F80000311A0E82711A0CC2711A0A02724372A3
:10640800CA4B4FF400229A610A212AF097FA30F019
:1064180055FA0028FBD0C54B4FF400225A61C248F8
:106428005A210170A5214170052181708221C17016
:10643800142101710621417100218171B4F81E11E6
:10644800C1719A6108212AF079FA30F037FA0028E8
:10645800FBD0B64B4FF400225A61B3485A21017061
:10646800A5214170052181708221C170142101711B
:106478000821417100258571D4F80451C5719A61CC
:106488002AF05CFA30F01AFA0028FBD0A74A4FF439
:1064980000215161A4485A230370A52343700523A2
:1064A80083708223C370142303710A23437100236A
:1064B8008371D4F804311B0AC371916108212AF051
:1064C8003DFA30F0FBF90028FBD0984B4FF400223E
:1064D8005A6195485A210170A521417005218170A2
:1064E8008221C170142101710C2141710021817137
:1064F800B4F80611C1719A6108212AF01FFA30F028
:10650800DDF90028FBD0894B4FF400225A618648F8
:106518005A210170A5214170052181708221C17025
:10652800142101710E21417100218171B4F80E11FD
:10653800C1719A6108212AF001FA30F0BFF90028E8
:10654800FBD07A4A4FF40021516177485A230370EF
:10655800A5234370052383708223C370142303711A
:106568001023437100238371D4F80C311B0AC371C3
:10657800916108212AF0E2F930F0A0F90028FBD057
:106588006A4B4FF400225A6167485A210170A521CD
:106598004170052181708221C1701421017112217D
:1065A800417100218171D4F80C11C1719A610821DF
:1065B8002AF0C4F930F082F90028FBD05B4A4FF486
:1065C8000021516158485A230370A52343700723BB
:1065D80083708223C3701423037116234371D4F884
:1065E80020311D0E85711D0CC5711D0A057243727F
:1065F80091610A212AF0A2F930F060F90028FBD055
:106608004A4B4FF400225A6147485A210170A5218C
:106618004170052181708221C170142101711A21F4
:10662800417100218171B4F83E11C1719A6108214C
:106638002AF084F930F042F90028FBD03B4B4FF4A4
:1066480000225A6138485A210170A521417005215C
:1066580081708221C170142101711C2141710021B6
:106668008171D4F82411C1719A6108212AF066F960
:1066780030F024F90028FBD02C4A4FF40021516156
:1066880029485A230370A523437005238370822366
:10669800C370142303711E23437100238371D4F83C
:1066A80024311B0AC371916108212AF047F930F09F
:1066B80005F90028FBD01D4B4FF400225A611A48F7
:1066C8005A210170A5214170052181708221C17074
:1066D800142101712021417100218171B4F8261122
:1066E800C1719A6108212AF029F930F0E7F80028E9
:1066F800FBD00E4B4FF400225A610B485A2101700F
:10670800A5214170052181708221C1701421017178
:106718002221417100218171B4F82E11C1719A6151
:1067280008212AF00BF903E0509501200080004170
:1067380030F0C4F80028FBD0D54A4FF4002151614D
:10674800D4485A230370A5234370052383708223FA
:10675800C370142303712423437100238371D4F875
:106768002C311B0AC371916108212AF0E7F830F037
:10677800A5F80028FBD0C64B4FF400225A61C54843
:106788005A210170A5214170052181708221C170B3
:10679800142101712621417100218171D4F82C1135
:1067A800C1719A6108212AF0C9F830F087F80028E9
:1067B800FBD0B74A4FF400215161B6485A23037001
:1067C800A5234370072383708223C37014230371A6
:1067D8002A234371D4F840311D0E85711D0CC571F3
:1067E8001D0A0572437291610A212AF0A7F830F058
:1067F80065F80028FBD0A64B4FF400225A61A54843
:106808005A210170A5214170052181708221C17032
:10681800142101712E21417100218171B4F85E119A
:10682800C1719A6108212AF089F830F047F80028E8
:10683800FBD0974B4FF400225A6196485A210170B9
:10684800A5214170052181708221C1701421017137
:106858003021417100218171D4F84411C1719A61CC
:1068680008212AF06BF830F029F80028FBD0884A74
:106878004FF40021516187485A230370A5234370C0
:10688800052383708223C370142303713223437159
:1068980000238371D4F844311B0AC3719161082124
:1068A8002AF04CF830F00AF80028FBD0784B4FF467
:1068B80000225A6177485A210170A52141700521AB
:1068C80081708221C170142101713421417100212C
:1068D8008171B4F84611C1719A6108212AF02EF825
:1068E8002FF0ECFF0028FBD0694B4FF400225A61CF
:1068F80068485A210170A5214170052181708221C3
:10690800C170142101713621417100218171B4F8DF
:106918004E11C1719A6108212AF010F82FF0CEFFAC
:106928000028FBD05A4A4FF40021516159485A2394
:106938000370A5234370052383708223C370142337
:1069480003713823437100238371D4F84C311B0A37
:10695800C3719161082129F0F1FF2FF0AFFF0028E2
:10696800FBD04B4B4FF400225A614A485A21017020
:10697800A5214170052181708221C1701421017106
:106988003A21417100218171D4F84C11C1719A6189
:10699800082129F0D3FF2FF091FF0028FBD03C4AB3
:1069A8004FF4002151613B485A230370A5234370DB
:1069B800072383708223C370142303714023437118
:1069C800D4F860311D0E85711D0CC5711D0A057244
:1069D800437291610A2129F0B1FF2FF06FFF00285F
:1069E800FBD02B4B4FF400225A612A485A210170E0
:1069F800A5214170052181708221C1701421017186
:106A08004421417100218171B4F87E11C1719A61EC
:106A1800082129F093FF2FF051FF0028FBD01C4BD1
:106A28004FF400225A611B485A210170A521417078
:106A3800052181708221C1701421017146214171A3
:106A480000218171D4F86411C1719A61082129F07B
:106A580075FF2FF033FF0028FBD00D4A4FF40021BB
:106A680051610C485A230370A52343700523837092
:106A78008223C37014230371482343710023837155
:106A8800D4F864311B0AC3719161082104E000BF86
:106A9800008000415095012029F050FF2FF00EFF93
:106AA8000028FBD0D54B4FF400225A61D4485A2114
:106AB8000170A5214170052181708221C1701421C6
:106AC80001714A21417100218171B4F86611C171C7
:106AD8009A61082129F032FF2FF0F0FE0028FBD040
:106AE800C64B4FF400225A61C5485A210170A521AE
:106AF8004170052181708221C170142101714C21DE
:106B0800417100218171B4F86E11C1719A61082137
:106B180029F014FF2FF0D2FE0028FBD0B74A4FF41B
:106B280000215161B6485A230370A52343700523F9
:106B380083708223C370142303714E23437100238F
:106B48008371D4F86C311B0AC3719161082129F053
:106B5800F5FE2FF0B3FE0028FBD0A84B4FF400221F
:106B68005A61A7485A210170A521417005218170F9
:106B78008221C1701421017150214171002181715C
:106B8800D4F86C11C1719A61082129F0D7FE2FF051
:106B980095FE0028FBD0994A4FF40021516198488E
:106BA8005A230370A5234370072383708223C3707D
:106BB8001423037156234371D4F880311D0E857157
:106BC8001D0CC5711D0A0572437291610A2129F0D5
:106BD800B5FE2FF073FE0028FBD0884B4FF400223F
:106BE8005A6187485A210170A52545700525857089
:106BF8008225C57014250571417100218171B4F891
:106C08009E11C1719A61082129F098FE2FF056FE55
:106C18000028FBD0794B4FF400225A6178485A215A
:106C28000170A5214170052181708221C170142154
:106C380001715C21417100218171D4F88411C17105
:106C48009A61082129F07AFE2FF038FE0028FBD03F
:106C58006A4A4FF40021516169485A230370A523F9
:106C68004370052383708223C370142303715E234A
:106C7800437100238371D4F884311B0AC371916175
:106C8800082129F05BFE2FF019FE0028FBD05B4B92
:106C98004FF400225A615A485A210170A5214170C7
:106CA800052181708221C170142101716021417117
:106CB80000218171B4F88611C1719A61082129F007
:106CC8003DFE2FF0FBFD0028FBD04C4B4FF400227B
:106CD8005A614B485A210170A521417005218170E4
:106CE8008221C170142101716221417100218171D9
:106CF800B4F88E11C1719A61082129F01FFE2FF096
:106D0800DDFD0028FBD03D4A4FF4002151613C488D
:106D18005A230370A5234370052383708223C3700D
:106D2800142303716423437100238371D4F88C31D5
:106D38001B0AC3719161082129F000FE2FF0BEFDE6
:106D48000028FBD02D4B4FF400225A612C485A21C1
:106D58000170A5214170052181708221C170142123
:106D680001716621417100218171D4F88C11C171C2
:106D78009A61082129F0E2FD2FF0A0FD0028FBD040
:106D88001E4A4FF4002151611D485A230370A52360
:106D98004370072383708223C370142303716C2309
:106DA8004371D4F8A0311D0E85711D0CC5711D0AE3
:106DB8000572437291610A2129F0C0FD2FF07EFD12
:106DC8000028FBD00D4B4FF400225A610C485A2181
:106DD8000170A5214170052181708221C1701421A3
:106DE80001717021417100218171B4F8BE11C17126
:106DF8009A61082129F0A2FD04E000BF008000414B
:106E0800509501202FF05AFD0028FBD0D44B4FF4A9
:106E180000225A61D3485A210170A52141700521E9
:106E280081708221C1701421017172214171002188
:106E38008171D4F8A411C1719A61082129F07EFDED
:106E48002FF03CFD0028FBD0C54A4FF400215161CA
:106E5800C4485A230370A5234370052383708223F3
:106E6800C370142303717423437100238371D4F80E
:106E7800A4311B0AC3719161082129F05FFD2FF02D
:106E88001DFD0028FBD0B64B4FF400225A61B548CF
:106E98005A210170A5214170052181708221C1709C
:106EA800142101717621417100218171B4F8A61174
:106EB800C1719A61082129F041FD2FF0FFFC0028DB
:106EC800FBD0A74B4FF400225A61A6485A21017003
:106ED800A5214170052181708221C17014210171A1
:106EE8007821417100218171B4F8AE11C1719A61A4
:106EF800082129F023FD2FF0E1FC0028FBD0984A57
:106F08004FF40021516197485A230370A523437019
:106F1800052383708223C370142303717A2343717A
:106F280000238371D4F8AC311B0AC3719161082125
:106F380029F004FD2FF0C2FC0028FBD0884B4FF449
:106F480000225A6187485A210170A5214170052104
:106F580081708221C170142101717C21417100214D
:106F68008171D4F8AC11C1719A61082129F0E6FC4D
:106F78002FF0A4FC0028FBD0794A4FF4002151617E
:106F880078485A230370A52343700723837082230C
:106F9800C3701423037180234371D4F8C0311D0ECC
:106FA80085711D0CC5711D0A0572437291610A2114
:106FB80029F0C4FC2FF082FC0028FBD0684B4FF46A
:106FC80000225A6167485A210170A52141700521A4
:106FD80081708221C17014210171842141710021C5
:106FE8008171B4F8DE11C1719A61082129F0A6FCFB
:106FF8002FF064FC0028FBD0594B4FF400225A6153
:1070080058485A210170A5214170052181708221BB
:10701800C170142101718621417100218171D4F858
:10702800C411C1719A61082129F088FC2FF046FC2F
:107038000028FBD04A4A4FF40021516149485A239D
:107048000370A5234370052383708223C370142320
:1070580003718823437100238371D4F8C4311B0A58
:10706800C3719161082129F069FC2FF027FC0028E1
:10707800FBD03B4B4FF400225A613A485A21017029
:10708800A5214170052181708221C17014210171EF
:107098008A21417100218171B4F8C611C1719A61C8
:1070A800082129F04BFC2FF009FC0028FBD02C4BC1
:1070B8004FF400225A612B485A210170A5214170D2
:1070C800052181708221C170142101718C214171C7
:1070D80000218171B4F8CE11C1719A61082129F09B
:1070E8002DFC2FF0EBFB0028FBD01D4A4FF40021AC
:1070F80051611C485A230370A523437005238370EC
:107108008223C370142303718E2343710023837178
:10711800D4F8CC311B0AC3719161082129F00EFC07
:107128002FF0CCFB0028FBD00D4B4FF400225A6106
:107138000C485A210170A5214170052181708221D6
:10714800C170142101719021417100218171D4F81D
:10715800CC11C1719A61082129F0F0FB04E000BF4D
:1071680000800041509501202FF0A8FB0028FBD09B
:107178007D4A4FF4002151617C485A230370A523AE
:107188004370072383708223C370142303719423ED
:107198004371D4F8E0311D0E85711D0CC5711D0AAF
:1071A8000572437291610A2129F0C8FB2FF086FB12
:1071B8000028FBD06C4B4FF400225A616B485A21CF
:1071C8000170A5214170052181708221C1701421AF
:1071D80001719821417100218171B4F8FE11C171CA
:1071E8009A61082129F0AAFB2FF068FB0028FBD040
:1071F8005D4B4FF400225A615C485A210170A52169
:107208004170052181708221C170142101719A2178
:10721800417100218171D4F8E411C1719A6108218A
:1072280029F08CFB2FF04AFB0028FBD04E4A4FF484
:10723800002151614D485A230370A523437005234B
:1072480083708223C370142303719C23437100232A
:107258008371D4F8E4311B0AC3719161082129F0C4
:107268006DFB2FF02BFB0028FBD03F4B4FF4002287
:107278005A613E485A210170A5214170052181704B
:107288008221C170142101719E21417100218171F7
:10729800B4F8E611C1719A61082129F04FFB2FF06B
:1072A8000DFB0028FBD0304B4FF400225A612F48C9
:1072B8005A210170A5214170052181708221C17078
:1072C80014210171A021417100218171B4F8EE11DE
:1072D800C1719A61082129F031FB2FF0EFFA0028DB
:1072E800FBD0214A4FF40021516120485A230370F2
:1072F800A5234370052383708223C370142303716D
:10730800A223437100238371D4F8EC311B0AC371A3
:107318009161082129F012FB2FF0D0FA0028FBD048
:10732800114B4FF400225A6110485A210170A521CF
:107338004170052181708221C17014210171A4213D
:10734800417100218171D4F8EC11C1719A61082151
:1073580029F0F4FA2FF0B2FA0028FBD0024B4FF4D0
:1073680000225A6138BD00BF0080004150950120BD
:1073780038B50446D4485A230370A523437007231D
:1073880083708223C3701423037102234371D4F8DA
:1073980000311A0E82711A0CC2711A0A02724372F3
:1073A800CA4B4FF400229A610A2129F0C7FA2FF03C
:1073B80085FA0028FBD0C54B4FF400225A61C24819
:1073C8005A210170A5214170052181708221C17067
:1073D800142101710621417100218171B4F81E1137
:1073E800C1719A61082129F0A9FA2FF067FA0028DB
:1073F800FBD0B64B4FF400225A61B3485A210170B2
:10740800A5214170052181708221C170142101716B
:107418000821417100258571D4F80451C5719A611C
:1074280029F08CFA2FF04AFA0028FBD0A74A4FF42B
:1074380000215161A4485A230370A52343700523F2
:1074480083708223C370142303710A2343710023BA
:107458008371D4F804311B0AC3719161082129F0A2
:107468006DFA2FF02BFA0028FBD0984B4FF400222E
:107478005A6195485A210170A521417005218170F2
:107488008221C170142101710C2141710021817187
:10749800B4F80611C1719A61082129F04FFA2FF04A
:1074A8000DFA0028FBD0894B4FF400225A61864818
:1074B8005A210170A5214170052181708221C17076
:1074C800142101710E21417100218171B4F80E114E
:1074D800C1719A61082129F031FA2FF0EFF90028DB
:1074E800FBD07A4A4FF40021516177485A23037040
:1074F800A5234370052383708223C370142303716B
:107508001023437100238371D4F80C311B0AC37113
:107518009161082129F012FA2FF0D0F90028FBD048
:107528006A4B4FF400225A6167485A210170A5211D
:107538004170052181708221C170142101711221CD
:10754800417100218171D4F80C11C1719A6108212F
:1075580029F0F4F92FF0B2F90028FBD05B4A4FF478
:107568000021516158485A230370A523437007230B
:1075780083708223C3701423037116234371D4F8D4
:1075880020311D0E85711D0CC5711D0A05724372CF
:1075980091610A2129F0D2F92FF090F90028FBD047
:1075A8004A4B4FF400225A6147485A210170A521DD
:1075B8004170052181708221C170142101711A2145
:1075C800417100218171B4F83E11C1719A6108219D
:1075D80029F0B4F92FF072F90028FBD03B4B4FF497
:1075E80000225A6138485A210170A52141700521AD
:1075F80081708221C170142101711C214171002107
:107608008171D4F82411C1719A61082129F096F981
:107618002FF054F90028FBD02C4A4FF40021516177
:1076280029485A230370A5234370052383708223B6
:10763800C370142303711E23437100238371D4F88C
:1076480024311B0AC3719161082129F077F92FF0C1
:1076580035F90028FBD01D4B4FF400225A611A4817
:107668005A210170A5214170052181708221C170C4
:10767800142101712021417100218171B4F8261172
:10768800C1719A61082129F059F92FF017F90028DA
:10769800FBD00E4B4FF400225A610B485A2101705F
:1076A800A5214170052181708221C17014210171C9
:1076B8002221417100218171B4F82E11C1719A61A2
:1076C800082129F03BF903E0509501200080004192
:1076D8002FF0F4F80028FBD0D54A4FF4002151616F
:1076E800D4485A230370A52343700523837082234B
:1076F800C370142303712423437100238371D4F8C6
:107708002C311B0AC3719161082129F017F92FF058
:10771800D5F80028FBD0C64B4FF400225A61C54863
:107728005A210170A5214170052181708221C17003
:10773800142101712621417100218171D4F82C1185
:10774800C1719A61082129F0F9F82FF0B7F80028DB
:10775800FBD0B74A4FF400215161B6485A23037051
:10776800A5234370072383708223C37014230371F6
:107778002A234371D4F840311D0E85711D0CC57143
:107788001D0A0572437291610A2129F0D7F82FF07A
:1077980095F80028FBD0A64B4FF400225A61A54863
:1077A8005A210170A5214170052181708221C17083
:1077B800142101712E21417100218171B4F85E11EB
:1077C800C1719A61082129F0B9F82FF077F80028DB
:1077D800FBD0974B4FF400225A6196485A2101700A
:1077E800A5214170052181708221C1701421017188
:1077F8003021417100218171D4F84411C1719A611D
:10780800082129F09BF82FF059F80028FBD0884A66
:107818004FF40021516187485A230370A523437010
:10782800052383708223C3701423037132234371A9
:1078380000238371D4F844311B0AC3719161082174
:1078480029F07CF82FF03AF80028FBD0784B4FF459
:1078580000225A6177485A210170A52141700521FB
:1078680081708221C170142101713421417100217C
:107878008171B4F84611C1719A61082129F05EF846
:107888002FF01CF80028FBD0694B4FF400225A61F6
:1078980068485A210170A521417005218170822113
:1078A800C170142101713621417100218171B4F830
:1078B8004E11C1719A61082129F040F82EF0FEFF9F
:1078C8000028FBD05A4A4FF40021516159485A23E5
:1078D8000370A5234370052383708223C370142388
:1078E80003713823437100238371D4F84C311B0A88
:1078F800C3719161082129F021F82EF0DFFF0028DB
:10790800FBD04B4B4FF400225A614A485A21017070
:10791800A5214170052181708221C1701421017156
:107928003A21417100218171D4F84C11C1719A61D9
:10793800082129F003F82EF0C1FF0028FBD03C4AAB
:107948004FF4002151613B485A230370A52343702B
:10795800072383708223C370142303714023437168
:10796800D4F860311D0E85711D0CC5711D0A057294
:10797800437291610A2128F0E1FF2EF09FFF002851
:10798800FBD02B4B4FF400225A612A485A21017030
:10799800A5214170052181708221C17014210171D6
:1079A8004421417100218171B4F87E11C1719A613D
:1079B800082128F0C3FF2EF081FF0028FBD01C4BC4
:1079C8004FF400225A611B485A210170A5214170C9
:1079D800052181708221C1701421017146214171F4
:1079E80000218171D4F86411C1719A61082128F0CD
:1079F800A5FF2EF063FF0028FBD00D4A4FF40021AD
:107A080051610C485A230370A523437005238370E2
:107A18008223C370142303714823437100238371A5
:107A2800D4F864311B0AC3719161082104E000BFD6
:107A3800008000415095012028F080FF2EF03EFF85
:107A48000028FBD0D54B4FF400225A61D4485A2164
:107A58000170A5214170052181708221C170142116
:107A680001714A21417100218171B4F86611C17117
:107A78009A61082128F062FF2EF020FF0028FBD031
:107A8800C64B4FF400225A61C5485A210170A521FE
:107A98004170052181708221C170142101714C212E
:107AA800417100218171B4F86E11C1719A61082188
:107AB80028F044FF2EF002FF0028FBD0B74A4FF40D
:107AC80000215161B6485A230370A523437005234A
:107AD80083708223C370142303714E2343710023E0
:107AE8008371D4F86C311B0AC3719161082128F0A5
:107AF80025FF2EF0E3FE0028FBD0A84B4FF4002210
:107B08005A61A7485A210170A52141700521817049
:107B18008221C170142101715021417100218171AC
:107B2800D4F86C11C1719A61082128F007FF2EF072
:107B3800C5FE0028FBD0994A4FF4002151619848AE
:107B48005A230370A5234370072383708223C370CD
:107B58001423037156234371D4F880311D0E8571A7
:107B68001D0CC5711D0A0572437291610A2128F026
:107B7800E5FE2EF0A3FE0028FBD0884B4FF4002230
:107B88005A6187485A210170A525457005258570D9
:107B98008225C57014250571417100218171B4F8E1
:107BA8009E11C1719A61082128F0C8FE2EF086FE48
:107BB8000028FBD0794B4FF400225A6178485A21AB
:107BC8000170A5214170052181708221C1701421A5
:107BD80001715C21417100218171D4F88411C17156
:107BE8009A61082128F0AAFE2EF068FE0028FBD032
:107BF8006A4A4FF40021516169485A230370A5234A
:107C08004370052383708223C370142303715E239A
:107C1800437100238371D4F884311B0AC3719161C5
:107C2800082128F08BFE2EF049FE0028FBD05B4B84
:107C38004FF400225A615A485A210170A521417017
:107C4800052181708221C170142101716021417167
:107C580000218171B4F88611C1719A61082128F058
:107C68006DFE2EF02BFE0028FBD04C4B4FF400226B
:107C78005A614B485A210170A52141700521817034
:107C88008221C17014210171622141710021817129
:107C9800B4F88E11C1719A61082128F04FFE2EF0B8
:107CA8000DFE0028FBD03D4A4FF4002151613C48AD
:107CB8005A230370A5234370052383708223C3705E
:107CC800142303716423437100238371D4F88C3126
:107CD8001B0AC3719161082128F030FE2EF0EEFDD9
:107CE8000028FBD02D4B4FF400225A612C485A2112
:107CF8000170A5214170052181708221C170142174
:107D080001716621417100218171D4F88C11C17112
:107D18009A61082128F012FE2EF0D0FD0028FBD031
:107D28001E4A4FF4002151611D485A230370A523B0
:107D38004370072383708223C370142303716C2359
:107D48004371D4F8A0311D0E85711D0CC5711D0A33
:107D58000572437291610A2128F0F0FD2EF0AEFD04
:107D68000028FBD00D4B4FF400225A610C485A21D1
:107D78000170A5214170052181708221C1701421F3
:107D880001717021417100218171B4F8BE11C17176
:107D98009A61082128F0D2FD04E000BF008000416C
:107DA800509501202EF08AFD0028FBD0D44B4FF4CB
:107DB80000225A61D3485A210170A521417005213A
:107DC80081708221C17014210171722141710021D9
:107DD8008171D4F8A411C1719A61082128F0AEFD0F
:107DE8002EF06CFD0028FBD0C54A4FF400215161EC
:107DF800C4485A230370A523437005238370822344
:107E0800C370142303717423437100238371D4F85E
:107E1800A4311B0AC3719161082128F08FFD2EF04F
:107E28004DFD0028FBD0B64B4FF400225A61B548EF
:107E38005A210170A5214170052181708221C170EC
:107E4800142101717621417100218171B4F8A611C4
:107E5800C1719A61082128F071FD2EF02FFD0028CC
:107E6800FBD0A74B4FF400225A61A6485A21017053
:107E7800A5214170052181708221C17014210171F1
:107E88007821417100218171B4F8AE11C1719A61F4
:107E9800082128F053FD2EF011FD0028FBD0984A48
:107EA8004FF40021516197485A230370A52343706A
:107EB800052383708223C370142303717A234371CB
:107EC80000238371D4F8AC311B0AC3719161082176
:107ED80028F034FD2EF0F2FC0028FBD0884B4FF43C
:107EE80000225A6187485A210170A5214170052155
:107EF80081708221C170142101717C21417100219E
:107F08008171D4F8AC11C1719A61082128F016FD6D
:107F18002EF0D4FC0028FBD0794A4FF4002151619F
:107F280078485A230370A52343700723837082235C
:107F3800C3701423037180234371D4F8C0311D0E1C
:107F480085711D0CC5711D0A0572437291610A2164
:107F580028F0F4FC2EF0B2FC0028FBD0684B4FF45C
:107F680000225A6167485A210170A52141700521F4
:107F780081708221C1701421017184214171002115
:107F88008171B4F8DE11C1719A61082128F0D6FC1C
:107F98002EF094FC0028FBD0594B4FF400225A6174
:107FA80058485A210170A52141700521817082210C
:107FB800C170142101718621417100218171D4F8A9
:107FC800C411C1719A61082128F0B8FC2EF076FC22
:107FD8000028FBD04A4A4FF40021516149485A23EE
:107FE8000370A5234370052383708223C370142371
:107FF80003718823437100238371D4F8C4311B0AA9
:10800800C3719161082128F099FC2EF057FC0028D3
:10801800FBD03B4B4FF400225A613A485A21017079
:10802800A5214170052181708221C170142101713F
:108038008A21417100218171B4F8C611C1719A6118
:10804800082128F07BFC2EF039FC0028FBD02C4BB3
:108058004FF400225A612B485A210170A521417022
:10806800052181708221C170142101718C21417117
:1080780000218171B4F8CE11C1719A61082128F0EC
:108088005DFC2EF01BFC0028FBD01D4A4FF400219C
:1080980051611C485A230370A5234370052383703C
:1080A8008223C370142303718E23437100238371C9
:1080B800D4F8CC311B0AC3719161082128F03EFC29
:1080C8002EF0FCFB0028FBD00D4B4FF400225A6128
:1080D8000C485A210170A521417005218170822127
:1080E800C170142101719021417100218171D4F86E
:1080F800CC11C1719A61082128F020FC04E000BF6E
:1081080000800041509501202EF0D8FB0028FBD0BC
:108118007D4A4FF4002151617C485A230370A523FE
:108128004370072383708223C3701423037194233D
:108138004371D4F8E0311D0E85711D0CC5711D0AFF
:108148000572437291610A2128F0F8FB2EF0B6FB04
:108158000028FBD06C4B4FF400225A616B485A211F
:108168000170A5214170052181708221C1701421FF
:1081780001719821417100218171B4F8FE11C1711A
:108188009A61082128F0DAFB2EF098FB0028FBD032
:108198005D4B4FF400225A615C485A210170A521B9
:1081A8004170052181708221C170142101719A21C9
:1081B800417100218171D4F8E411C1719A610821DB
:1081C80028F0BCFB2EF07AFB0028FBD04E4A4FF477
:1081D800002151614D485A230370A523437005239C
:1081E80083708223C370142303719C23437100237B
:1081F8008371D4F8E4311B0AC3719161082128F016
:108208009DFB2EF05BFB0028FBD03F4B4FF4002278
:108218005A613E485A210170A5214170052181709B
:108228008221C170142101719E2141710021817147
:10823800B4F8E611C1719A61082128F07FFB2EF08D
:108248003DFB0028FBD0304B4FF400225A612F48E9
:108258005A210170A5214170052181708221C170C8
:1082680014210171A021417100218171B4F8EE112E
:10827800C1719A61082128F061FB2EF01FFB0028CC
:10828800FBD0214A4FF40021516120485A23037042
:10829800A5234370052383708223C37014230371BD
:1082A800A223437100238371D4F8EC311B0AC371F4
:1082B8009161082128F042FB2EF000FB0028FBD03A
:1082C800114B4FF400225A6110485A210170A52120
:1082D8004170052181708221C17014210171A4218E
:1082E800417100218171D4F8EC11C1719A610821A2
:1082F80028F024FB2EF0E2FA0028FBD0024B4FF4C2
:1083080000225A6138BD00BF00800041509501200D
:1083180038B50446D4485A230370A523437007236D
:1083280083708223C3701423037102234371D4F82A
:1083380000311A0E82711A0CC2711A0A0272437243
:10834800CA4B4FF400229A610A2128F0F7FA2EF05E
:10835800B5FA0028FBD0C54B4FF400225A61C24839
:108368005A210170A5214170052181708221C170B7
:10837800142101710621417100218171B4F81E1187
:10838800C1719A61082128F0D9FA2EF097FA0028CD
:10839800FBD0B64B4FF400225A61B3485A21017002
:1083A800A5214170052181708221C17014210171BC
:1083B8000821417100258571D4F80451C5719A616D
:1083C80028F0BCFA2EF07AFA0028FBD0A74A4FF41E
:1083D80000215161A4485A230370A5234370052343
:1083E80083708223C370142303710A23437100230B
:1083F8008371D4F804311B0AC3719161082128F0F4
:108408009DFA2EF05BFA0028FBD0984B4FF400221F
:108418005A6195485A210170A52141700521817042
:108428008221C170142101710C21417100218171D7
:10843800B4F80611C1719A61082128F07FFA2EF06C
:108448003DFA0028FBD0894B4FF400225A61864838
:108458005A210170A5214170052181708221C170C6
:10846800142101710E21417100218171B4F80E119E
:10847800C1719A61082128F061FA2EF01FFA0028CC
:10848800FBD07A4A4FF40021516177485A23037090
:10849800A5234370052383708223C37014230371BB
:1084A8001023437100238371D4F80C311B0AC37164
:1084B8009161082128F042FA2EF000FA0028FBD03A
:1084C8006A4B4FF400225A6167485A210170A5216E
:1084D8004170052181708221C1701421017112211E
:1084E800417100218171D4F80C11C1719A61082180
:1084F80028F024FA2EF0E2F90028FBD05B4A4FF46A
:108508000021516158485A230370A523437007235B
:1085180083708223C3701423037116234371D4F824
:1085280020311D0E85711D0CC5711D0A057243721F
:1085380091610A2128F002FA2EF0C0F90028FBD038
:108548004A4B4FF400225A6147485A210170A5212D
:108558004170052181708221C170142101711A2195
