:020000040000fa
:10000000f0ff0320e1ce020043e80200b7ff020048
:10001000531403005f1603005f1703000000000085
:10002000000000000000000000000000d1100300ec
:100030001312030000000000a1dc020035040300dd
:1000400059180300591803005918030059180300e0
:1000500059180300591803005918030059180300d0
:1000600059180300591803005918030059180300c0
:100070005918030015120300351203005918030024
:10008000591803005512030075120300951203005e
:100090005d10030081100300a5100300790d03001b
:1000a000a10d030059180300591803005918030043
:1000b0005918030059180300591803005918030070
:1000c0005918030059180300591803005918030060
:1000d0005918030059180300591803005918030050
:1000e0005918030059180300000000000000000028
:1000f00000000000591803005918030059180300a4
:10010000591803005918030059180300591803001f
:1001100059180300591803001de202001de20200f5
:100120001de202001de202000dab02000dab020059
:100130000dab02000dab0200fddf0200fddf02008f
:10014000fddf0200fddf02006de102006de1020053
:100150006de102006de10200c5e10200c5e10200af
:10016000c5e10200c5e1020075e2020075e202008d
:1001700075e2020075e20200edc202007dc40200d9
:10018000591803005918030059180300591803009f
:100190000000000059180300591803005918030003
:1001a000591803005918030059180300591803007f
:1001b000591803005918030059180300591803006f
:1001c000591803005918030059180300591803005f
:1001d000591803005918030059180300591803004f
:1001e000591803005918030059180300591803003f
:1001f000591803005918030059180300591803002f
:10020000591803005918030059180300591803001e
:10021000591803005918030059180300591803000e
:1002200059180300591803005918030059180300fe
:1002300059180300591803005918030059180300ee
:1002400059180300591803005918030059180300de
:1002500059180300591803005918030059180300ce
:020000040000fa
:10026000f8b500bff8bc08bc9e467047a9ee020076
:10027000f8b500bff8bc08bc9e46704785ee02008a
:020000040000fa
:080280003083020001000000c0
:020000040000fa
:100288002de9f04ff9b000247694779474948df8a2
:10029800d441adf8cc417194729470946d946e947d
:1002a8008df8bc416b94cdf8af41689469946a9419
:1002b8006594669467946294639464945b945c9484
:1002c8005d945e945f9460946194579458945994a3
:1002d800adf8684151945294539454945594cdf880
:1002e80057419222214617a831f01efa1594169408
:1002f8001e22214605a831f017fab34fb34cdff898
:100308002c83dff82ca3dff82c93dff82cb32de235
:10031800af4b18682cf0dafb0025aaf80050a9f8b2
:100328000050ac4b1d70ac4b1d802a4676a9ab4bd8
:1003380018682bf067fc2a4674a9a94b18682bf09b
:1003480061fc2a4673a9a74b18682bf05bfc9df843
:10035800df31012b40f0d4819df8d231002b40f0e1
:10036800cf819df8d1316d2b26d89df8d131632be3
:1003780000f2c6819c4e689640238df8aa319b4da9
:100388000023642268a928682bf01cfb4ff47a70bc
:100398002ff058fd689600238df886318df8aa3124
:1003a800642268a928682bf00dfb64202ff04afd11
:1003b8008f4b01221a70a3e18e4b1d608e4b1d607e
:1003c800894b689340238df8aa31884e2b466422c6
:1003d80068a930682bf0f6fa4ff47a702ff032fde6
:1003e800814b68938df886518df8aa512b4664226b
:1003f80068a930682bf0e6fa64202ff023fd7c4bc7
:1004080001221a700c2388f80030aee77b4b659305
:1004180000258df898512b46642265a97848006814
:100428002bf0d0fa64202ff00dfd764b6293012655
:100438008df862618df88c618df863518df88d515e
:100448008df864518df88e512b46642262a96e484e
:1004580000682bf0b7fa64202ff0f4fc624b689325
:100468008df884618df8a5612b46642268a95f48e0
:1004780000682bf0a7fa64202ff0e4fc2a4673a941
:10048800584b18682bf0befb9df8cc31b34240f0b6
:100498003781574b02221a7032e1534d6895402339
:1004a8008df8aa31514e0023642268a930682bf0d8
:1004b80089fa4ff47a702ff0c5fc689500258df8fd
:1004c80086518df8aa512b46642268a930682bf012
:1004d80079fa64202ff0b6fc2a4674a9404b1868b4
:1004e8002bf090fb002800f00b819df8d131503b98
:1004f800dbb21d2b25d99df8d1316d2b0dd9434b7e
:100508001b78002b00f09a80414b00221a700c23b4
:1005180088f8003001202ef027f83e4b1b681e2b70
:1005280040f3ee803b4b00221a60384b1b7823b90e
:10053800394b4ff48032c3f898202d4b00221a70a3
:10054800dee002202ef010f8334b4ff48032c3f86f
:100558009420092388f800302d4b01221a70254b6e
:100568001b6893420ed02d4b1b78022b18d0214bc1
:100578001b6813b91e4b03221a70264a13680133ed
:100588001360b8e72a468df84050022310a9244882
:1005980000682bf017fa234b18682cf097fae2e75b
:1005a8001e4b5b78012be2d1114b03221a700022fb
:1005b8008df84420022311a91b4800682bf002fa89
:1005c8000d4b01221a60d2e7e9990120ec9801202d
:1005d800c8970120089a012042950120a09801207f
:1005e800a4980120c898012002c4ec15689801203d
:1005f800bd990120309901203899012001c4ec15da
:100608004c98012002d4ec153c980120d99901207e
:10061800de9901201c99012000800041c499012025
:10062800589701204097012068970120b19901202f
:10063800d0990120d4990120e7990120b64b4ff4b5
:100648008032c3f898204ff6ff702ef057fd002334
:10065800b24a1360b24a1360b24b1b78002b7ff486
:1006680053afb04b01221a70af4b18782df0dafa5d
:100678004ae70025ad4b1d60ad4b659308238df807
:1006880047318df89b312b46642265a9a94800683b
:100698002bf098f94ff47a702ff0d4fba64e689699
:1006a8008df885518df8a8518df886518df8aa518d
:1006b8008df887518df8ab512b46642268a99f4865
:1006c80000682bf07ff94ff47a702ff0bbfb2a46b5
:1006d80073a99b4b18682bf095fa689602238df83e
:1006e80084318df8a5312b46642268a993480068a7
:1006f8002bf068f964202ff0a5fb924b04221a70a6
:1007080098f800308df85130baf80020adf84e2036
:10071800b9f80020adf84c209bf800208df8522045
:100728003a788df850208df848300223002213a91a
:10073800854800682bf046f90223002212a9834855
:1007480000682bf03ff92368012b0bd100232360ad
:100758007c4a13707e4b18682cf0b8f97d4b1868ea
:100768002bf0f2fc4ff448702ff06cfb00220da91f
:10077800794b18682bf046fa28b1784a9df834303e
:1007880011880b4413806f4b1b78dbb21e2bb7d834
:1007980001a252f823f000bf19030000150400005d
:1007a800a30400007b0600001d08000009070000e4
:1007b8009108000009070000090700000907000068
:1007c80009070000090700000907000009070000e1
:1007d80009070000090700000b0a000009070000cc
:1007e800350b0000610d0000310e00000907000004
:1007f800b5100000090700000907000009070000fc
:1008080009070000090700000907000009070000a0
:100818005d1a0000002274a9514b18682bf0f2f9f8
:10082800002273a9464b18682bf0ecf99df8d231d9
:10083800012b1fd09df8cc31fa2b02d0fc2b00d015
:1008480013b9404b00221a709df8d1316d2b7ff6f9
:1008580057af444b1b7823b92f4b4ff48032c3f862
:1008680098200023404a13700c2288f80020354a4b
:10087800137045e79df8d131503bdbb21d2bd9d819
:10088800304b06221a70d5e70022264b1a7073a93e
:100898002b4b18682bf0b6f99df8cc31312b0ed9bb
:1008a8001e4b1b68012b28d0002b41f01a82002216
:1008b8006ba92e4b18682bf0a5f900285ad19df882
:1008c800cc31fa2b02d0fc2b00d053b9134a126852
:1008d800012a19d02ab91b4a002111700f4a012197
:1008e80011600a2b7ff40caf214b1b780133dbb26c
:1008f800f02b76d01e4a137002e7124b10221a70a2
:100908009df8cc31fa2bded10e4a00211170034a32
:1009180001211160e5e700bf008000413099012006
:1009280038990120149a01206f9a01201c990120fe
:1009380001c4ec154c98012002c4ec1568980120fc
:10094800c8980120bd9901205497012014970120cf
:1009580094970120549801209097012042950120f6
:10096800a4980120d9990120de990120b09801208e
:10097800209a01209df8ac318df838309df8ad31c2
:100988008df839309df8ae318df83a309df8af3199
:100998008df83b309df8b0318df83c309df8b13181
:1009a8008df83d30022300220ea9524800682bf032
:1009b80009f89df83830002b81d04f4b01221a607e
:1009c8004e4b10221a7002238df84030002210a9d5
:1009d8004b4800682af0f6ff4a4b18682cf076f866
:1009e8006de70023484a1370444a1370474b40f29e
:1009f80033121a80464b02221a7011202df012f978
:100a08007ee6414b00221a70424b1b686bbb424b7f
:100a18001b78022b2dd1404b5b78012b29d1154631
:100a28008df84420022311a93c4800682af0caff27
:100a38003b4b689301238df886318df8aa312b46fc
:100a4800642268a9374800682af0bcff64202ff0a8
:100a5800f9f92a4673a9344b18682bf0d3f8274bb9
:100a680012221a700e202df0ddf82a4b1b68012b7c
:100a780022d0002273a92c4b18682bf0c3f89df8dc
:100a8800cc31fa2b04d0fc2b02d0002b7ff438aeeb
:100a98001a4b00221a70184b01221a601b4b4ff494
:100aa8009a721a801a4b02221a7006202ff06efdd5
:100ab80011202df0b7f823e6194b689301238df820
:100ac80086318df8aa310023642268a91548006888
:100ad8002af078ff64202ff0b5f9002273a9124b91
:100ae80018682bf08ff8054b12221a700e202df083
:100af80099f8bee75c97012030990120bd99012043
:100b08005897012040970120209a012082960120c1
:100b1800ed99012038990120c49901206897012096
:100b280002c4ec1568980120c89801200123a84a3e
:100b38001360a84a4ff40011c2f8181100224e920f
:100b4800a54a4f928df8403102238df84131002299
:100b58004ea9a24800682af035ffa14b18682bf06f
:100b6800b5ff002271a99f4b18682bf04bf800289d
:100b780000f0d7809df8c4319df8c52102eb03220f
:100b8800994981fb0232931007ee903af8eee77a22
:100b98009df8c6219df8c73103eb022381fb03238f
:100ba8009b1007ee103ab8eec77abdeec77a17ee7b
:100bb800103a8e4a92fbf3f303eb83035b0007eed4
:100bc800103ab8eec77a8a4b83ed007ab2ee047a0f
:100bd80067ee877a93ed007af4eec77af1ee10fab1
:100be80048bfc3ed007a834b689300258df8aa515e
:100bf8002b46642268a9804800682af0e3fe642036
:100c08002ff020f97d4b6593794ad2ed007afceefe
:100c1800e77a17ee903a8df89831d2ed007afcee2b
:100c2800e77a17ee903ac3f307238df89931e0235a
:100c38008df89a312e238df89b314ff010028df8e4
:100c48009c2127238df89d3114268df89e618df8ff
:100c58009f512b46642265a9694800682af0b2feb4
:100c68004ff496702ff0eef88df898618df8995141
:100c7800c8238df89a318df89b518df89c618df8b9
:100c88009d5164268df89e618df89f515d4b65934b
:100c98002b46324665a95a4800682af093fe4ff45d
:100ca80096702ff0cff802238df886318df8aa318f
:100cb800504b68932b46324668a94f4800682af083
:100cc80081fe30462ff0bef810202cf0abff2a46ec
:100cd80073a94d4b18682af095ff9df8cc21a2f115
:100ce8005b03dbb2092b08d8484b13221a70394b27
:100cf8004ff48012c3f8142113e0fa2a01d0fc2a19
:100d080027d1424b00221a70414b40f235121a800b
:100d1800404b02221a7008202ff038fc11202cf0ca
:100d280081ff00250e95adf83c5002232a460ea9f6
:100d3800394800682af046fe8df8405002232a46ba
:100d480010a9364800682af03dfe354b1d809d707d
:100d5800d6e4002ad5d0e4e7002274a9314b1868fc
:100d68002af050ff9df8d131312b7ff6c9ac194bd1
:100d7800d3f8203113f0807f19d101238df8853104
:100d88008df8a8310c238df886318df8aa31194bce
:100d980068930023642268a9174800682af012fea5
:100da80064202ff04ff8194b14221a70a8e4174b3f
:100db80000221a70164b40f235121a80154b022287
:100dc8001a7007202ff0e2fb11202cf02bff97e47c
:100dd800389901200080004100004843fc97012019
:100de80000980120b898012067666666c0d40100a3
:100df800d497012002c4ec156898012003c4ec15af
:100e08004c98012004c0ec15c8980120bd99012018
:100e180082960120ed9901205c97012058970120c6
:100e2800c4990120a4980120002270a9854b186854
:100e38002af0e8fe9df8c0319df8c12102eb03229b
:100e4800814981fb0232921007ee902af8eee77a88
:100e58007e4bc3ed007a9df8c2219df8c33103eba8
:100e6800022381fb03239b1007ee103ab8eec77ae2
:100e7800774b83ed007a4ff080434e93cded4f7a58
:100e880001238df8403102238df8413100224ea90b
:100e9800704800682af096fd6f4b18682bf016fe14
:100ea8009df8c1318df8a4319df8c0318df8a53178
:100eb8009df8c3318df8a6319df8c2318df8a73160
:100ec800664b68930023642268a9654800682af085
:100ed80079fd64202ef0b6ff12202cf0a3fe00222c
:100ee80073a9604b18682af08dfe00283ff408acff
:100ef8009df8cc31782b1ad09df8cc31fa2b04d040
:100f0800fc2b02d0002b7ff4fbab574b1e221a7030
:100f1800564b4ff49b721a80554b02221a700820c8
:100f28002ff034fb11202cf07dfefff7e9bb514b6d
:100f38001e6830f03bfc4ef6602500950023024603
:100f4800012130462df0a0fc4b4b1e6830f02efce2
:100f5800009500230246012130462df095fc474bb1
:100f68001e6830f023fc009500230246012130461c
:100f78002df08afc424b1e6830f018fc00950023c7
:100f88000246012130462df07ffc3e4b1e6830f0b2
:100f98000dfc009500230246012130462df074fc1b
:100fa800394b1e6830f002fc0095002302460121ef
:100fb80030462df069fc2c4b16221a70334b1878ea
:100fc8002ef016fd64202ef03dff314d28782ef0ce
:100fd8002bfd64202ef036ff2e4e30882ef040fd7b
:100fe80064202ef02fff2c4908782ef071fd642024
:100ff8002ef028ff294800782ef04efd64202ef0b0
:1010080021ff274a10782ef07ffd64202ef01aff6a
:10101800244b1a68244b1a6031882b781b4a1278a3
:101028001b0243ea014313433f931c4801781a4bc0
:101038001b781b4a12781b0243ea0143134340936f
:101048005ae700bfc0980120676666669c99012030
:10105800fc980120fc9701200098012005c4ec159c
:1010680068980120c8980120bd9901208296012026
:10107800ed990120e09801206499012068990120e8
:101088006c99012070990120a0970120f9990120fd
:10109800129a01205a8d0120119a0120029a0120ea
:1010a8001e9a0120c09701202898012047f230504d
:1010b8002ef024f803202df057fa524b18882ef002
:1010c800effb514b1b78072b00f09780002270a98b
:1010d8004e4b18682af096fd002840f0b78064202f
:1010e8002ef0b0fe9df8c1318df8a4319df8c031c5
:1010f8008df8a5319df8c3318df8a6319df8c23120
:101108008df8a731424b68930023642268a94148af
:1011180000682af057fc64202ef094fe00226da986
:101128003d4b18682af06efda0b13c4a13789df833
:10113800b6013b49c854062188f8001001331370e2
:10114800314b1b78042b40f28a832f4b1b78052bdd
:1011580000f09083334b1b78052b00f093832f4bc3
:101168001b78052b00f008842f4b1b782bb92f4bcd
:101178001b78dbb2012b00f01e842b4b1b78dbb2f3
:10118800012b00f023849df8cc31292b03d0fa2bb6
:1011980001d0fc2b12d1264b1e221a70092388f885
:1011a8000030244bca221a80234b02221a700a20cc
:1011b8002ff0ecf9214b1a68214b1a609df8b431d5
:1011c800012b00f01a841f4b1b78022b7ff498aa7e
:1011d8001c4b9b78012b7ff493aa154b1e221a7087
:1011e800092388f80030174b00221a809a70134b95
:1011f8001a68134b1a60fff783ba134b18782ff04d
:1012080057f863e742950120089a0120c098012009
:1012180005c4ec1568980120bc980120059a0120a6
:10122800849601200d9a0120d9990120de99012088
:10123800bd99012082960120ed990120c0970120d7
:1012480030980120c4990120c19901209df8c2213c
:101258009df8c33103eb0223c34a82fb03139b08a7
:1012680007ee903af8ee677ac04bc3ed007a9df826
:10127800c0119df8c13103eb012382fb03239b08b6
:1012880007ee103ab8ee477ab94b83ed007a17eebd
:10129800900a2ef059fe02460b46b64905a830f0d2
:1012a800c7f81e2105a82cf0bdf930f0ddf900289b
:1012b800fbd0ae4bd3ed007aad4bd3ed006a27eef1
:1012c800a67aad4b83ed007aac4b1b78002b40f02f
:1012d8008780ab4b1a68ab4b1a6093ed006ab4ee8b
:1012e800c67af1ee10fa34d5a74b1b7833bb9fedc5
:1012f800a77a76ee876acded4f6aa24b93ed006a26
:10130800a34bd3ed006a86ee267af4eec77af1eea7
:1013180010fac0f28880f5ee007a27ee277a8ded74
:101328004e7a03238df8413101238df84031022391
:1013380000224ea9974800682af044fb924b1b787c
:10134800dbb2012b7cd0904b1b78dbb2012b00f079
:10135800be808c4bd3ed007a874b93ed007ab4eec8
:10136800e77af1ee10fa3bdd874b1b7863bb804bc5
:10137800d3ed007a9fed857a77ee877acded4f7ab7
:10138800804bd3ed006a824bd3ed007a86eea77ac4
:10139800764bd3ed007ab4eee77af1ee10fa00f26c
:1013a800d580f5ee007a27ee277a8ded4e7a032365
:1013b8008df8413101238df84031022300224ea9d6
:1013c800744800682af0fefa6f4b1b78dbb2012bd9
:1013d80000f0ec806c4b1b78dbb2012b00f02d8108
:1013e800664b1b78dbb2012b00f066816a490a78ec
:1013f80090006a4d05449df8c2619df8c33103eb26
:101408000623594e86fb03639b0807ee903af8eed5
:10141800677ac5ed007a624b03445d48006818603e
:1014280001320a705be6f4eec77af1ee10fa7ff546
:1014380078afb5ee007a67ee877acded4e7a70e731
:10144800584b1b78dbb2112b7ff67daf564b4ff410
:101458000012c3f81821464bd3ed007a9fed4b7a62
:1014680077ee877acded4f7a464bd3ed007ab6ee1c
:10147800007a67ee877a464bd3ed006a87eea67a44
:101488003a4bd3ed007ab4eee77af1ee10fa12d8bf
:10149800f6ee007a27ee277a8ded4e7a02238df844
:1014a800413101228df8402100224ea939480068b7
:1014b8002af088fa4de7b4eee77af1ee10faeddd9e
:1014c800b6ee007a67ee877acded4e7ae6e7354bd1
:1014d8001b78dbb2112b3ff63caf254bd3ed007ade
:1014e8009fed2a7a77ee877acded4f7a254bd3edab
:1014f800006a274bd3ed007a86eea77a1b4bd3ed13
:10150800007ab4eee77af1ee10fa13d8f5ee007a25
:1015180027ee277a8ded4e7a03238df8413101238a
:101528008df84031022300224ea91a4800682af09b
:1015380049fa0ee7b4eee77af1ee10faecddb5ee13
:10154800007a67ee877acded4e7ae5e7b4eee77a72
:10155800f1ee10fa7ff72bafb5ee007a67ee877ad7
:10156800cded4e7a23e700bf67666666fc980120da
:101578009c990120e82101005c990120e59901204e
:101588005c9a0120ec970120d99901200000000005
:10159800649a0120fc9701200d9a0120889401206b
:1015a800b0940120b999012000800041bf4b1b78fd
:1015b800dbb2112b7ff60eafbd4b4ff40012c3f810
:1015c8001821bc4bd3ed007a9fedbb7a77ee877a72
:1015d800cded4f7ab94bd3ed007ab6ee007a67eecf
:1015e800877ab74bd3ed006a87eea67ab54bd3ed71
:1015f800007ab4eee77af1ee10fa12d8f6ee007a35
:1016080027ee277a8ded4e7a02238df8413101229b
:101618008df8402100224ea9ab4800682af0d2f983
:10162800dee6b4eee77af1ee10faedddb6ee007a1a
:1016380067ee877acded4e7ae6e79c4b1b78dbb2f6
:10164800112b3ff6cdae9b4bd3ed007a9fed9a7ae6
:1016580077ee877acded4f7a984bd3ed006a984ba9
:10166800d3ed007a86eea77a964bd3ed007ab4eee6
:10167800e77af1ee10fa13d8f5ee007a27ee277a1a
:101688008ded4e7a03238df8413101238df84031d9
:10169800022300224ea98c4800682af093f99fe69d
:1016a800b4eee77af1ee10faecddb5ee007a67ee0b
:1016b800877acded4e7ae5e7844b1b785bbb7d4b93
:1016c800d3ed007a9fed7c7a77ee877acded4f7a6d
:1016d8007f4bd3ed006a7a4bd3ed007a86eea77a7a
:1016e800784bd3ed007ab4eee77af1ee10fa50d8e1
:1016f800f5ee007a27ee277a8ded4e7a03238df8e2
:10170800413101238df84031022300224ea96e4851
:1017180000682af057f96d4b1b78dbb2012b44d0d7
:101728006a4b1b78dbb2012b7ff460ae5f4b1b78f2
:10173800dbb2112b3ff65aae5e4bd3ed007a9fed2c
:101748005e7a77ee877acded4f7a614bd3ed006afa
:101758005b4bd3ed007a86eea77a5a4bd3ed007a2d
:10176800b4eee77af1ee10fa6dd8f5ee007a27eece
:10177800277a8ded4e7a03238df8413101238df8b8
:101788004031022300224ea94f4800682af01af976
:101798002ce6b4eee77af1ee10faafddb5ee007a9a
:1017a80067ee877acded4e7aa8e7404b1b78dbb21f
:1017b800112bb5d93e4b4ff40012c3f81821444bf6
:1017c80093ed007adfed437ab4eee77af1ee10faa2
:1017d800c8bfc3ed007a374bd3ed007a9fed367a58
:1017e80077ee877acded4f7a394bd3ed006a344bdb
:1017f800d3ed007a86eea77a324bd3ed007ab4eeb9
:10180800e77af1ee10fa12d8f6ee007a27ee277a88
:101818008ded4e7a02238df8413101228df8402159
:1018280000224ea9284800682af0ccf8dee5b4ee7c
:10183800e77af1ee10faedddb6ee007a67ee877a18
:10184800cded4e7ae6e7b4eee77af1ee10fa92dde6
:10185800b5ee007a67ee877acded4e7a8be72ef0fb
:1018680027fd9df8b6211c4b1a701c4a13780133ca
:1018780013706ae4194b07221a709df8b6318bf879
:10188800003067e44ff0000c154b83f800c0baf83d
:101898000010b9f80000134b134a03f1140ecdf8e9
:1018a8000cc01e461546029122e000bfb9990120de
:1018b800008000419c99012000000000ec97012065
:1018c800649a0120fc980120fc970120d9990120f5
:1018d800f497012000606a47c1990120089a012005
:1018e8000d9a012088940120b0940120734525d0d9
:1018f800f3ec017a96ed007ab4eee77af1ee10fa9d
:1019080009d8c6ed007afceee77a17ee901a89b28c
:1019180002914ff0010cf2ec017a95ed007ab4eee9
:10192800e77af1ee10fae1d8c5ed007afceee77a35
:1019380017ee901a88b201210391d7e70299bcf1fa
:10194800000f01d0aaf80010039b0bb1a9f8000002
:10195800344bd3ed007afceee77a17ee900a2df0bf
:10196800d7ff314bd3ed007afceee77a17ee900af9
:101978002df0b2fffff7f3bb00252c4b1d7097f835
:1019880000c02b4b5e1d18464ff0010e01e0b3421c
:1019980008d013f8012b01789142f8d802709446c8
:1019a8007546f4e70db187f800c0214b18782ef082
:1019b80067fcfff7d9bb00228df84420022311a948
:1019c8001c48006829f0fefffff7d7bb1a4b1b78ad
:1019d800dbb2012b7ff4d7ab184b1b78dbb2132b90
:1019e8007ff6d1ab00228df84420022311a91148bb
:1019f800006829f0e7fffff7c6bb114b1e221a70db
:101a0800092388f800300f4bc9221a800e4b022296
:101a18001a700a202ef0bafd0c4b1a680c4b1a608b
:101a2800fff7d1bb88940120b0940120059a0120ca
:101a38008496012068970120de990120b999012038
:101a4800bd99012082960120ed990120c0970120bf
:101a580030980120a74b1b78dbb2012b00f00981dd
:101a6800a54b1b78dbb2012b00f019814ff0030363
:101a78008df884318df8a531a04b6893a04e0023d2
:101a8800642268a9306829f09dff32202ef0daf927
:101a980000258df8a4518df8a5519a4a68922b46d5
:101aa800642268a9306829f08dff32202ef0caf927
:101ab80095494ff48010c1f81801944b1a68944b5b
:101ac8001a608c4b1d7002238df841318df84051fe
:101ad8002a464ea98f48006829f074ff40f6b830ae
:101ae8002ef0b0f94ff003008df8a501834b6893f1
:101af8002b46642268a80146306829f063ff32202b
:101b08002ef0a0f98df8a4518df8a5517d4a689260
:101b18002b46642268a80146306829f053ff32201a
:101b28002ef090f978494ff48013c1f818310a2340
:101b380000932b462a460321774800682cf0a4fe20
:101b4800764b18782df0fcff754b18782ef014f8aa
:101b5800744b18882ef02cf8734b18782ef060f818
:101b6800724b18782ef040f8714b18782ef074f8f4
:101b7800704b18682ef0a8f86f4b1b78dbb2012b5e
:101b880000f0a3806c4b1b78dbb2022b00f0a18025
:101b9800694b1b78dbb2032b00f09f805c4bd3edc5
:101ba800007afceee77a654b93ed007abceec77ad3
:101bb80017ee903a17ee102a9b1a07ee903af8eeb5
:101bc800677a5f4dc5ed007afceee77a17ee900a6a
:101bd8002ef05ef85b4b15221a7005202cf0c4fc21
:101be800544b1b683e934f4b19884d4b1b784b4aff
:101bf80012781b0243ea0143134341934b4b197874
:101c0800494b1b784a4a12781b0243ea01431343a3
:101c180042934d4b1a783b7843ea02434393d5ed00
:101c2800007afceee77a17ee903a43f400334493d7
:101c3800414b1a78454d2b8843ea024345930223ca
:101c48008df8f030002364223ca94148006829f04f
:101c5800b9fe404b18682af039ff0123236000229f
:101c68002a803d4a13703d4a13703d4a1370fef7af
:101c780047bd214b1b78002b7ff4f2ae00228df874
:101c8800402103238df8413102234ea921480068e1
:101c980029f098fe40f6b8302ef0d4f8e0e6154b5f
:101ca8001b78dbb2012b7ff4e1ae00228df84021d6
:101cb80002238df841314ea91648006829f082feaa
:101cc80040f6b8302ef0bef8d0e601202ef05efccb
:101cd80058e702202ef05afc5ae703202ef056fc53
:101ce8005ce79df8cc31fa2b7ef4edad1d4a126805
:101cf800fef7f0bdde990120d999012002c4ec1548
:101d08006898012005c4ec1500800041c0970120a7
:101d180030980120fc970120a0970120f999012013
:101d2800129a01205a8d0120119a0120029a01204d
:101d38001e9a012000970120ec9901202898012083
:101d4800289701206f9a0120c1990120429501200e
:101d58007c97012080970120dd990120dc990120e2
:081d6800db99012030990120f4
:020000040000fa
:101d70002de9f04ff1b000246e946f946c94cdf87f
:101d8000b3416a948df8ac41adf8a441679468946e
:101d90006694639464948df8944160946194629421
:101da0005d945e945f945a945b945c9453945494c1
:101db000559456945794589459944f9450945194e0
:101dc000adf8484149944a944b944c944d94cdf8c5
:101dd0003741469447944894922221460fa82ff009
:101de000a7fc0d940e94b34eb34fdff82c83dff8ad
:101df0002c93dff82cb3dff82ca329e2af4b186843
:101e00002af068fe0024ae4b1c70a9f80040abf825
:101e10000040ac4b1c8022466ea9ab4b186829f0e1
:101e2000f5fe22466aa9a94b186829f0effe224662
:101e300069a9a74b186829f0e9fe9df8bf31012b6d
:101e400040f0ce819df8aa31002b40f0c9819df869
:101e5000a9316d2b26d89df8a931632b00f2c081e2
:101e60009c4d609540238df88a319b4c0023642261
:101e700060a9206829f0aafd4ff47a702df0e6ffe2
:101e8000609500238df851318df88a31642260a964
:101e9000206829f09bfd64202df0d8ff8f4b012294
:101ea0001a709de18e4b1c608e4b1c60894b6093b9
:101eb00040238df88a31884d2346642260a9286822
:101ec00029f084fd4ff47a702df0c0ff814b6093b0
:101ed0008df851418df88a412346642260a9286813
:101ee00029f074fd64202df0b1ff7c4b01221a70a3
:101ef0000c2388f80030aee77b4b5d9300248df80f
:101f00007841234664225da97848006829f05efd87
:101f100064202df09bff764b5a9301258df842519a
:101f20008df86c518df843418df86d418df8444129
:101f30008df86e41234664225aa96e48006829f044
:101f400045fd64202df082ff624b60938df84f5168
:101f50008df885512346642260a95f48006829f006
:101f600035fd64202df072ff224669a9584b186890
:101f700029f04cfe9df8a431ab4240f03181574b23
:101f800002221a702ce1534c609440238df88a3160
:101f9000514d0023642260a9286829f017fd4ff4f1
:101fa0007a702df053ff609400248df851418df824
:101fb0008a412346642260a9286829f007fd64202d
:101fc0002df044ff22466aa9404b186829f01efef6
:101fd000002800f005819df8a931503bdbb21d2b94
:101fe00025d99df8a9316d2b0dd9434b1b78002bba
:101ff00000f09a80414b00221a700c2388f80030c0
:1020000001202ef043fa3e4b1b681e2b40f3e88064
:102010003b4b00221a60384b1b7823b9394b4ff4e5
:102020008032c3f898202d4b00221a70d8e002208d
:102030002ef02cfa334b4ff48032c3f8942009234e
:1020400088f800302d4b01221a70254b1b689342f3
:102050000ed02d4b1b78012b18d0214b1b6813b9c8
:102060001e4b03221a70264a136801331360b8e727
:1020700022468df82040022308a92448006829f050
:10208000a5fc234b18682af025fde2e71e4b5b7880
:10209000012be2d1114b03221a7000228df824206b
:1020a000022309a91b48006829f090fc0d4b01226e
:1020b0001a60d2e7e8990120e8980120c89701202a
:1020c000079a0120929301207098012074980120b2
:1020d0009898012002c0ec1568980120b999012058
:1020e0002c9901203499012001c0ec154c98012055
:1020f00002d0ec153c980120de990120d9990120ed
:102100001899012000800041c899012058970120aa
:10211000409701206897012089960120ce990120df
:10212000d2990120e6990120ad4b4ff48032c3f8db
:1021300098204ff6ff702cf0e5ff0023a94a1360aa
:10214000a94a1360a94b1b78002b7ff453afa74b10
:1021500001221a70a64b18782bf068fd4ae700247c
:10216000a44b1c60a44b5d9308238df825318df89a
:102170007b31234664225da9a048006829f026fc33
:102180004ff47a702df062fe9d4d60958df85041b0
:102190008df888418df851418df88a418df8524172
:1021a0008df88b412346642260a99648006829f087
:1021b0000dfc4ff47a702df049fe609502238df8e6
:1021c0004f318df885312346642260a98d4800681f
:1021d00029f0fcfb64202df039fe8b4b04221a7091
:1021e00098f800308df83130b9f80030adf82e3065
:1021f000bbf80030adf82c309af800308df8323052
:1022000033788df83030022300220ba97f48006814
:1022100029f0dcfb98f800308df8283002230022ea
:102220000aa97b48006829f0d1fb3b68012b0bd140
:1022300000233b60744a1370764b18682af04afcfe
:10224000754b186829f084ff4ff4fa702df0fefded
:102250006d4b1b78dbb21e2bc2d801a252f823f0c3
:10226000fd1d0000f91e0000871f00005f21000017
:10227000dd220000e121000051230000e1210000e7
:10228000e1210000e1210000e1210000e121000046
:10229000e1210000e1210000e1210000e121000036
:1022a000c3240000e1210000f125000029280000de
:1022b00001290000e1210000852b0000e121000040
:1022c000e1210000e1210000e1210000e121000006
:1022d000e1210000e1210000ff34000000226aa992
:1022e0004e4b186829f092fc002269a94c4b1868e3
:1022f00029f08cfc9df8aa31012b1fd09df8a43148
:10230000fa2b02d0fc2b00d013b93f4b00221a70dd
:102310009df8a9316d2b7ff663af424b1b7823b933
:102320002f4b4ff48032c3f8982000233e4a13709d
:102330000c2288f80020344a137051e79df8a93127
:10234000503bdbb21d2bd9d82f4b06221a70d5e794
:102350000022264b1a7069a9314b186829f056fce7
:102360009df8a431312b0ed91e4b1b68012b28d0b0
:10237000002b41f0038200226ca92c4b186829f035
:1023800045fc002856d19df8a431fa2b02d0fc2b35
:1023900000d053b9134a1268012a19d02ab91a4a2f
:1023a000002111700f4a012111600a2b7ff418af30
:1023b0001f4b1b780133dbb2f02b72d01c4a137019
:1023c0000ee7114b10221a709df8a431fa2bded1c2
:1023d0000d4a00211170034a01211160e5e700bf99
:1023e000008000412c99012034990120139a01208a
:1023f0006f9a01201899012001c0ec154c9801201a
:1024000002c0ec1568980120b9990120509701206d
:10241000109701208897012044980120749801208a
:1024200098980120de990120d999012080980120f7
:102430001f9a01209df8b0318df818309df8b13108
:102440008df819309df8b2318df81a309df8b331fe
:102450008df81b309df8b4318df81c309df8b531e6
:102460008df81d300223002206a95348006829f088
:10247000adfa9df81830002b85d001234f4a136028
:102480004f4a102111708df820304e4b18682af0f9
:1024900021fb0223002208a94b48006829f096fa84
:1024a00071e70023494a1370454a1370484b40f2c4
:1024b00033121a80474b01221a7008202bf0b6fb0a
:1024c0008ee6424b00221a70434b1b6873bb434b92
:1024d0001b78012b2ed1414b5b78012b2ad114465e
:1024e0008df82420022309a93d48006829f06efade
:1024f0003c4b609301238df851318df88a3123468e
:10250000642260a93848006829f060fa64202df040
:102510009dfc4ff47a7269a9344b186829f076fb58
:10252000274b12221a7005202bf080fb2a4b1b68c8
:10253000012b21d0002269a92c4b186829f066fbd9
:102540009df8a431fa2b04d0fc2b02d0002b7ff491
:1025500047ae1b4b00221a700123184a13601c4a15
:102560004ff49a7111801b4a137006202df0fcff66
:1025700008202bf05bfb33e61a4b609301238df8a8
:1025800051318df88a310023642260a91648006811
:1025900029f01cfa64202df059fc4ff47a7269a9d5
:1025a000124b186829f032fb054b12221a700520d5
:1025b0002bf03cfbbee700bf5c9701202c9901206b
:1025c000b999012040970120589701201f9a0120b6
:1025d00082960120ed99012034990120c8990120ab
:1025e0006897012002c0ec15689801209898012096
:1025f000ad4b4ff40012c3f8182100234693ab4ba8
:10260000479301248df820418df821410023642255
:1026100046a9a748006829f0d9f9a64b18682af0fe
:1026200059faa54b1c60002267a9a44b186829f031
:10263000edfa002800f0d3809df89c319df89d2193
:1026400002eb03229e4981fb0232931007ee903a7f
:10265000f8eee77a9df89e219df89f3103eb022367
:1026600081fb03239b1007ee103ab8eec77abdee4c
:10267000c77a17ee103a934a92fbf3f303eb830306
:10268000a34007ee103ab8eec77a8f4b83ed007a7d
:10269000b2ee047a67ee877a93ed007af4eec77aa9
:1026a000f1ee10fa48bfc3ed007a884b6093002426
:1026b0008df88a412346642260a98548006829f084
:1026c00085f964202df0c2fb824b5d937e4ad2edea
:1026d000007afceee77a17ee903a8df87831d2ed79
:1026e000007afceee77a17ee903ac3f307238df8f1
:1026f0007931e0238df87a312e238df87b31102348
:102700008df87c3127238df87d3114258df87e518d
:102710008df87f41234664225da96f48006829f047
:1027200055f94ff4fa702df091fb8df878518df832
:102730007941c8238df87a318df87b418df87c5131
:102740008df87d4164258df87e518df87f41634b76
:102750005d9323462a465da95f48006829f036f953
:102760004ff4fa702df072fb02238df851318df881
:102770008a3103f1af5303f54c23609323462a4675
:1027800060a95348006829f021f94ff4fa702df040
:102790005dfb07202bf04afa224669a9504b1868c6
:1027a00029f034fa9df8a4315b3bdbb2092b2ed91a
:1027b0009df8a431fa2b02d0fc2b00d07bb9494bf9
:1027c00000221a70484b40f235121a80474b012202
:1027d0001a7008202df0c8fe08202bf027fa0024dc
:1027e0000694adf81c408df820400223224608a92b
:1027f0003f48006829f0eaf80223224606a93d482e
:10280000006829f0e3f83c4b1c809c70e8e4354bf1
:1028100013221a704ff47a702df018fb224b4ff4ec
:102820000022c3f81421c3e700226aa9334b1868b9
:1028300029f0ecf99df8a931312b1ed91a4bd3f8a8
:10284000a03013f4000f1dd101238df850318df805
:1028500088310c238df851318df88a311b4b6093f0
:102860000023642260a91a48006829f0aff86420a8
:102870002df0ecfa1b4b14221a704ff47a702df0e5
:10288000e5faade4174b00221a70174b40f23512ef
:102890001a80164b01221a7007202df065fe0820c1
:1028a0002bf0c4f9e9e700bf008000410000484375
:1028b000fc9701200098012034990120889801207c
:1028c00067666666c0d40100d097012002c0ec158f
:1028d0006898012003c0ec154c98012004c0ec1549
:1028e00098980120b999012082960120ed99012044
:1028f000589701205c970120c89901207498012005
:10290000002266a9854b186829f080f99df8983156
:102910009df8992102eb0322814981fb023292103a
:1029200007ee902af8eee77a7e4bc3ed007a9df829
:102930009a219df89b3103eb022381fb03239b101b
:1029400007ee103ab8eec77a774b83ed007a4ff076
:1029500080434693cded477a01238df820318df8e1
:1029600021310023642246a97048006829f02ef81e
:102970006f4b18682af0aef89df899318df88431c4
:102980009df898318df885319df89b318df8863111
:102990009df89a318df88731664b6093002364224d
:1029a00060a96548006829f011f80a202df04efa58
:1029b00009202bf03bf9002269a9604b186829f027
:1029c00025f900283ff40cac9df8a431782b1ad0df
:1029d0009df8a431fa2b04d0fc2b02d0002b7ff4fd
:1029e000ffab574b1e221a70564b4ff49b721a8046
:1029f000554b01221a7008202df0b6fd08202bf04f
:102a000015f9fff7edbb514b1d682ef0d3fe4ef6c6
:102a10006024009400230246012128462bf038ff51
:102a20004b4b1d682ef0c6fe009400230246012188
:102a300028462bf02dff474b1d682ef0bbfe00945f
:102a400000230246012128462bf022ff424b1d683d
:102a50002ef0b0fe009400230246012128462bf000
:102a600017ff3e4b1d682ef0a5fe00940023024682
:102a7000012128462bf00cff394b1d682ef09afee1
:102a8000009400230246012128462bf001ff2c4b25
:102a900016221a70334b18782cf07efd64202df02e
:102aa000d5f9314c20782cf093fd64202df0cef92f
:102ab0002e4d28882cf0a8fd64202df0c7f92c4954
:102ac00008782cf0d9fd64202df0c0f92948007851
:102ad0002cf0b6fd64202df0b9f9274a10782cf0bf
:102ae000e7fd64202df0b2f9244b1a68244b1a60dc
:102af000298823781b4a12781b0243ea01431343b7
:102b000037931c4801781a4b1b781b4a12781b021a
:102b100043ea0143134338935ae700bf90980120da
:102b20006766666698990120f8980120fc97012055
:102b30000098012005c0ec156898012098980120a4
:102b4000b999012082960120ed9901209c970120de
:102b5000e098012064990120689901206c99012076
:102b600070990120f9990120129a01205a8d0120b3
:102b7000119a0120029a01201e9a0120bc9701207f
:102b800024980120002205a9c04b186829f03ef8be
:102b900028b1bf4a9df8143011880b44138047f2c6
:102ba00030502cf0affa03202df070fcb84b188891
:102bb0002cf04afcb74b1b78072b00f0a7810022b2
:102bc00066a9b54b186829f021f8002800f0d580d7
:102bd0009df89a319df89b2102eb0322af4981fbbe
:102be0000232930807ee103ab8ee477aac4b83ed09
:102bf000007a9df898219df8993103eb022381fb1f
:102c000003239b0807ee903af8ee677aa54bc3edd5
:102c1000007a67ee276aa44bc3ed006aa34b1b78ca
:102c2000002b40f08880a24b1a68a24b1a6093edeb
:102c3000006af4eec66af1ee10fa35d59e4b1b78a9
:102c400033bbdfed9e6a77eea67acded477a994bde
:102c500093ed006a9a4bd3ed006ac6ee267ab4ee85
:102c6000e77af1ee10fac0f25681b5ee007a67ee1f
:102c7000877acded467a03238df8213101238df833
:102c800020310223002246a98e48006828f09efecb
:102c9000894b1b78dbb2012b00f04a81864b1b78f5
:102ca000dbb2012b00f08b81824bd3ed007a7e4b9f
:102cb00093ed007ab4eee77af1ee10fa3bdd7e4b4d
:102cc0001b7863bb774bd3ed007a9fed7c7a77ee70
:102cd000877acded477a774bd3ed006a784b93ed49
:102ce000007ac6ee877a6e4b93ed007af4eec77adf
:102cf000f1ee10fa00f2a281b5ee007a67ee877a63
:102d0000cded467a03238df8213101238df8203152
:102d10000223002246a96b48006828f057fe664b44
:102d20001b78dbb2012b00f09681634b1b78dbb282
:102d3000012b00f0d7815d4b1b78dbb2012b00f03b
:102d40002582614802789100604b0b445c4c2468fa
:102d50001c605f4b19449df89a419df89b3103eb31
:102d600004234e4c84fb03439b0807ee903af8ee95
:102d7000677ac1ed007a0132027064202df066f8a6
:102d80009df899318df884319df898318df8853111
:102d90009df89b318df886319df89a318df88731f9
:102da0004c4b60930023642260a94b48006828f0d4
:102db0000dfe64202df04af8002263a9474b1868e5
:102dc00028f024ffa0b1464a13789df88e014549aa
:102dd000c854062188f80010013313702d4b1b785e
:102de000042b40f2a6822b4b1b78052b00f0ac8203
:102df000354b1b78052b00f0af82394b1b78052b28
:102e000000f00283384b1b78dbb2012b00f01a83f1
:102e1000354b1b78dbb2012b00f023839df8a431e6
:102e2000292b03d0fa2b01d0fc2b12d12f4b1e22c1
:102e30001a70092388f800302d4bca221a802d4bb6
:102e400001221a700a202df08ffb2b4b1a682b4b96
:102e50001a609df88c31012b00f03e83284b1b78c3
:102e6000012b7ff4bda9264b9b78012b7ff4b8a9d9
:102e70001e4b1e221a70092388f80030204b0022b6
:102e80001a809a701c4b1a683ce000bf849701209e
:102e900092930120079a0120909801206766666648
:102ea000f89801209899012058990120e49901206f
:102eb0005c9a0120ec970120de99012000000000bf
:102ec000609a0120fc9701200c9a01209c9401201b
:102ed0007494012005c0ec15689801208c9801209d
:102ee000049a01207c960120d9990120b9990120ea
:102ef00082960120ed990120bc9701202c98012099
:102f0000c8990120974b1a60fff76ab9964b187859
:102f10002df0a2f953e6b4eee77af1ee10fa7ff560
:102f2000aaaef5ee007a27ee277a8ded467aa2e674
:102f30008e4b1b78dbb2112b7ff6b0ae8c4b4ff46f
:102f40000012c3f818218b4bd3ed007a9fed8a7adb
:102f500077ee877acded477a884bd3ed007ab6eedf
:102f6000007a67ee877a864bd3ed006a87eea67a01
:102f7000844bd3ed007ab4eee77af1ee10fa12d872
:102f8000f6ee007a27ee277a8ded467a01238df84a
:102f900021318df820310223002246a97a480068a9
:102fa00028f014fd80e6b4eee77af1ee10faeddddc
:102fb000b6ee007a67ee877acded467ae6e76b4ba0
:102fc0001b78dbb2112b3ff66fae6a4bd3ed007a64
:102fd0009fed697a77ee877acded477a674bd3ed2f
:102fe000006a674bd3ed007a86eea77a654bd3ed86
:102ff000007ab4eee77af1ee10fa13d8f5ee007a23
:1030000027ee277a8ded467a03238df821310123af
:103010008df820310223002246a95b48006828f081
:10302000d5fc41e6b4eee77af1ee10faecddb5ee50
:10303000007a67ee877acded467ae5e7f4eec77a57
:10304000f1ee10fa7ff75eaef5ee007a27ee277a02
:103050008ded467a56e6454b1b78dbb2112b7ff699
:1030600064ae434b4ff40012c3f81821414bd3ed2b
:10307000007a9fed417a77ee877acded477a3f4b24
:10308000d3ed007ab6ee007a67ee877a3c4bd3ed4b
:10309000006a87eea67a3b4bd3ed007ab4eee77a6e
:1030a000f1ee10fa12d8f6ee007a27ee277a8dedbf
:1030b000467a01238df821318df820310223002238
:1030c00046a93148006828f081fc34e6b4eee77a7e
:1030d000f1ee10faedddb6ee007a67ee877acded0f
:1030e000467ae6e7214b1b78dbb2112b3ff623ae85
:1030f000204bd3ed007a9fed207a77ee877acdede5
:10310000477a1e4bd3ed006a1d4bd3ed007a86ee55
:10311000a77a1c4bd3ed007ab4eee77af1ee10fa01
:1031200013d8f5ee007a27ee277a8ded467a032341
:103130008df8213101238df820310223002246a988
:103140001148006828f042fcf5e5b4eee77af1eeac
:1031500010faecddb5ee007a67ee877acded467aaf
:10316000e5e700bf2c980120cb990120bd990120f3
:10317000008000419899012000000000ec97012098
:10318000609a0120f8980120fc970120c04b1b7821
:103190005bbbc04bd3ed007a9fedbf7a77ee877aa9
:1031a000cded477abd4bd3ed006abd4b93ed007a70
:1031b000c6ee877abb4b93ed007af4eec77af1ee58
:1031c00010fa50d8b5ee007a67ee877acded467ae0
:1031d00003238df8213101238df8203102230022b1
:1031e00046a9b148006828f0f1fba94b1b78dbb277
:1031f000012b44d0a64b1b78dbb2012b7ff4a1ad91
:10320000aa4b1b78dbb2112b3ff69bada14bd3ed44
:10321000007a9feda17a77ee877acded477a9f4bc2
:10322000d3ed006a9e4bd3ed007a86eea77a9d4bd4
:10323000d3ed007ab4eee77af1ee10fa6dd8f5ee40
:10324000007a27ee277a8ded467a03238df8213117
:1032500001238df820310223002246a992480068fc
:1032600028f0b4fb6de5f4eec77af1ee10faafddad
:10327000f5ee007a27ee277a8ded467aa8e78b4b9c
:103280001b78dbb2112bb5d9894b4ff40012c3f870
:103290001821824b93ed007adfed867ab4eee77a5f
:1032a000f1ee10fac8bfc3ed007a7a4bd3ed007a85
:1032b0009fed797a77ee877acded477a774bd3ed2c
:1032c000006a774bd3ed007a86eea77a754bd3ed83
:1032d000007ab4eee77af1ee10fa12d8f6ee007a40
:1032e00027ee277a8ded467a01238df821318df86e
:1032f00020310223002246a96b48006828f066fbb3
:103300001fe5b4eee77af1ee10faedddb6ee007ae5
:1033100067ee877acded467ae6e7b4eee77af1ee2e
:1033200010fa92ddb5ee007a67ee877acded467a37
:103330008be72cf091ff604a1378013313709df8ee
:103340008e215e4b1a704ee59df88e318af8003062
:10335000594b07221a704be54ff0000c584b83f87d
:1033600000c0b9f80010bbf80000564b564a03f1f4
:10337000140ecdf80cc01d461446029101e07345b1
:1033800025d0f3ec017a95ed007ab4eee77af1ee10
:1033900010fa09d8c5ed007afceee77a17ee901a1c
:1033a00089b202914ff0010cf2ec017a94ed007aaf
:1033b000b4eee77af1ee10fae1d8c4ed007afcee53
:1033c000e77a17ee901a88b201210391d7e70299a4
:1033d000bcf1000f01d0a9f80010039b0bb1abf8b2
:1033e0000000384bd3ed007afceee77a17ee900a36
:1033f0002cf062f8344bd3ed007afceee77a17ee4e
:10340000900a2cf03df8f8e40024304b1c7096f83c
:1034100000c02f4b5d1d18464ff0010e01e09d428c
:1034200008d013f8012b01789142f8d80270944625
:103430007446f4e70cb186f800c0254b18782cf0e0
:10344000f3fedfe4124b1b78002b7ff4e1ac00228b
:103450008df82420022309a91e48006828f0b6fa36
:10346000d6e40b4b1b78dbb2012b7ff4d7ac0f4bb0
:103470001b78dbb2132b7ff6d1ac00228df8242011
:10348000022309a91348006828f0a0fac6e400bf87
:10349000de9901209899012000000000f09701209a
:1034a000609a0120f8980120fc970120bd99012025
:1034b0000080004100606a47079a0120cb990120f3
:1034c0000c9a0120749401209c940120049a0120fc
:1034d0007c96012068970120ad4b1e221a700920ae
:1034e00088f80000ab4bc9221a80ab4b01221a703e
:1034f0002df03af8a94b1a68a94b1a60aee4a94b13
:103500001b78dbb2012b00f00181a64b1b78dbb2ec
:10351000012b00f011814ff003038df84f318df82e
:103520008531a14b6093a14d0023642260a92868d6
:1035300028f04cfa32202cf089fc00248df88441cc
:103540008df885419a4a60922346642260a92868d2
:1035500028f03cfa32202cf079fc96494ff40020f8
:10356000c1f818018d4b1b688d4803608d4b1c7092
:103570008df8204101238df821310223224646a9ee
:103580008d48006828f022fa40f6b8302cf05efc36
:103590004ff0030c8df885c1834b60932346642262
:1035a0000df5c07c6146286828f010fa32202cf016
:1035b0004dfc8df884418df885417d4a609223460b
:1035c00064220df5c07c6146286828f0fff932209e
:1035d0002cf03cfc77494ff40023c1f818310a2342
:1035e0000093234622460321744800682bf050f9cb
:1035f000734b18782cf078f8724b18782cf090f800
:10360000714b18882cf0a8f8704b18782cf0dcf867
:103610006f4b18782cf0bcf86e4b18782cf0f0f843
:103620006d4b18682cf024f95d48d0ed007afcee63
:10363000e77a6a4b93ed007abceec77a17ee100a70
:1036400017ee903a181a664b18602cf0f5f8654b97
:103650001b78dbb2012b00f08580624b1b78dbb25c
:10366000022b00f083805f4b1b78dbb2032b00f052
:1036700081805d4b0c221a7005202cf007ff564b01
:103680001b683693504b19884e4b1b784c4a127866
:103690001b0243ea0143134339934d4b19784b4bbb
:1036a0001b784c4a12781b0243ea014313433a93b6
:1036b0004e4b1a78337843ea02433b93484b1b68de
:1036c00043f480333c93474b1a78494c238843eab0
:1036d00002433d9302238df8d0300023642234a9a5
:1036e0004448006828f072f9434b186829f0f2f951
:1036f00001233b6000222280404a1370404a13702d
:10370000404a1370404a1370fef76abd3f4b1b7866
:10371000002b7ff4faae00228df8202103238df8d0
:103720002131022346a92448006828f04ff940f6c9
:10373000b8302cf08bfbe8e6344b1b78dbb2012b66
:103740007ff4e9ae00228df820218df8213102238b
:1037500046a91948006828f039f940f6b8302cf02d
:1037600075fbd8e601202cf0fffe76e702202cf056
:10377000fbfe78e703202cf0f7fe7ae79df8a431f2
:10378000fa2b7ef404ae224a1268fef707be00bf91
:10379000b999012082960120ed990120bc97012062
:1037a0002c980120d999012002c0ec1568980120bd
:1037b00005c0ec1500800041fc9701209c9701207a
:1037c000f9990120129a01205a8d0120119a0120a5
:1037d000029a01201e9a0120fc96012024980120c3
:1037e00024970120ec9901206f9a0120cb990120a8
:1037f000929301207c97012080970120cd99012090
:10380000d8990120d7990120d6990120de9901206d
:043810002c990120ce
:020000040000fa
:10381400949301201c000000000000004495012046
:103824000800000000000000b09301201c0000000c
:1038340000000000c49401201000000000000000fb
:103844004c9501201800000000000000cc930120da
:103854001c00000000000000d494012010000000af
:10386400000000006495012010000000000000002a
:10387400f08b0120c000000000000000c29901206c
:103884000200000000000000d09201202c00000083
:1038940000000000e0910120f000000000000000a2
:1038a400449a01200400000001000000aaaaaaaa68
:1038b4008c9601200400000000000000900100200c
:1038c400608a0100000000009096012010000000b2
:1038d40000000000749501200800000000000000b2
:1038e400a09601200800000000000000e8930120d9
:1038f4002800000000000000a89601201800000025
:1039040000000000e08f01206400000000000000bf
:10391400c096012014000000000000001094012053
:103924002800000000000000d496012010000000d0
:103934000000000038940120140000000000000082
:10394400e496012004000000000000004c940120d3
:103954002800000000000000e89601200800000094
:1039640000000000489a012004000000010000004b
:10397400040000000000002090010000000000008e
:10398400f096012014000000000000009790012030
:103994000100000000000000b799012001000000b0
:1039a4000000000004970120040000000000000053
:1039b400c7990120010000000000000008970120c1
:1039c40004000000000000008196012001000000b6
:1039d400000000000c9701200c0000000000000013
:1039e400899601200100000000000000b199012027
:1039f4000100000000000000b9990120010000004e
:103a040000000000bd99012001000000000000003a
:103a1400189701201400000000000000ce99012036
:103a24000200000000000000749401201400000053
:103a340000000000d09901200200000000000000f6
:103a4400889401201400000000000000d299012095
:103a540002000000000000009c94012014000000fb
:103a640000000000d49901200200000000000000c2
:103a7400b094012014000000000000002c970120e5
:103a840004000000000000002c9101204000000010
:103a940000000000fc920120500000000000000023
:103aa400088e0120a40000000000000030970120cf
:103ab4000800000000000000cc9901200100000073
:103ac40000000000389701203c00000000000000c6
:103ad400068e01200200000000000000aa910120cf
:103ae4000200000000000000de910120020000003e
:103af40000000000cb99012001000000000000003c
:103b0400c199012001000000000000007497012009
:103b14001000000000000000cd9901200100000009
:103b240000000000d69901200300000000000000fe
:103b340092930120020000000000000084970120fd
:103b44000400000000000000d999012001000000d9
:103b54000000000088970120080000000000000019
:103b6400da990120040000000000000042950120c1
:103b740002000000000000009097012004000000f3
:103b840000000000de990120010000000000000098
:103b9400949701200800000000000000df99012034
:103ba4000100000000000000e09901200100000075
:103bb400000000009c97012030000000000000007d
:103bc400e19901200300000000000000cc970120cf
:103bd4000c0000000000000044900120530000008d
:103be40000000000d897012034000000000000000d
:103bf400ac91012032000000000000000c9801206c
:103c04001400000000000000e499012002000000fc
:103c140000000000209801200400000000000000c3
:103c2400e699012003000000000000007c960120ba
:103c34000500000000000000e999012001000000d7
:103c44000000000084960120050000000000000030
:103c5400249801200800000000000000ea990120d7
:103c64000200000000000000c899012003000000c9
:103c740000000000c49901200300000000000000bf
:103c84002c9801200800000000000000ec9901209d
:103c94000100000000000000389501200a00000027
:103ca40000000000829601200200000000000000d5
:103cb400ed9901200100000000000000349801206b
:103cc4000400000000000000ee9901200100000043
:103cd400000000008a96012002000000000000009d
:103ce400b29901200200000000000000ba990120ee
:103cf40002000000000000007c9501206800000024
:103d0400000000003898012020000000000000009e
:103d1400e49501206800000000000000589801208c
:103d240080000000000000004c96012030000000dc
:103d340000000000ef9901200100000000000000d5
:103d4400d89801200400000000000000f099012030
:103d54000200000000000000dc98012004000000c4
:103d640000000000f29901200100000000000000a2
:103d7400e098012004000000000000006c91012084
:103d84003e00000000000000be9901200200000077
:103d940000000000f3990120010000000000000071
:103da400e49801200400000000000000f4990120c0
:103db4000300000000000000e89801200800000053
:103dc40000000000f799012002000000000000003c
:103dd400f09801201000000000000000f999012073
:103de400020000000000000000990120040000000f
:103df40000000000fb990120010000000000000009
:103e0400049901200800000000000000b08c01208b
:103e1400aa000000000000000c990120040000002a
:103e240000000000fc9901200300000000000000d5
:103e3400c09901200100000000000000ff9901204a
:103e4400010000000000000010990120040000009f
:103e540000000000e8900120440000000000000081
:103e6400149901200c00000000000000009a0120b9
:103e74000200000000000000bc99012001000000c5
:103e840000000000b89901200100000000000000bb
:103e9400209901200800000000000000029a01207f
:103ea4000500000000000000289901200400000023
:103eb40000000000079a0120050000000000000037
:103ec4002c99012010000000000000000c9a012031
:103ed40002000000000000003c99012004000000e2
:103ee400000000000e9a0120030000000000000002
:103ef4004099012008000000000000005c8d0120b2
:103f0400aa000000000000004899012004000000fd
:103f140000000000119a01200100000000000000d0
:103f24004c9901200400000000000000129a0120b6
:103f34000100000000000000b4990120030000000b
:103f440000000000139a012004000000000000009b
:103f5400509901200400000000000000179a01207d
:103f64000200000000000000549901200c00000031
:103f740000000000199a0120010000000000000068
:103f84006099012004000000000000001a9a01203a
:103f940001000000000000006499012004000000fa
:103fa400000000001b9a0120010000000000000036
:103fb4006899012004000000000000001c9a012000
:103fc40001000000000000006c99012004000000c2
:103fd400000000001d9a0120010000000000000004
:103fe400709901200400000000000000b099012035
:103ff4000100000000000000749901200c00000082
:1040040000000000809901200c0000000000000066
:10401400ac8e0120a000000000000000e494012008
:1040240010000000000000001e9a012001000000a2
:10403400000000001495012024000000000000008e
:104044008c99012004000000000000001f9a012048
:10405400020000000000000090990120040000000c
:1040640000000000f4940120100000000000000093
:104074004c8f01209400000000000000949901205e
:104084000c000000000000005a8d01200200000016
:1040940000000000429a012002000000010000001c
:1040a40004010000229a0120200000000100000009
:1040b400b4005aa51b82524068747470733a2f2f4f
:1040c4007777772e7374617469712e696e2fffff91
:1040d400219a012001000000010000000c000000f2
:1040e4006e9a012005000000010000000c030f502f
:1040f400140000004c9a012004000000010000009c
:104104000000803f739a01200200000001000000bb
:1041140001010000509a0120040000000100000089
:10412400cdcccc3f549a01200c00000001000000cb
:1041340000000040000000400060ea476c9a012043
:104144000200000001000000af4a0000609a012054
:10415400080000000100000000004843000048433c
:10416400689a012004000000010000000000484398
:10417400a099012004000000000000000495012023
:1041840010000000000000004c93012046000000d5
:1041940000000000a49901200400000000000000b9
:1041a400989001205000000000000000a899012010
:1041b40008000000000000000000000000000000f3
:1041c400666666666666666666666666666666668b
:1041d400666666666666666666666666666666667b
:020000040000fa
:104f34002de9f04f87b09a4c00230193994f9a4b77
:104f440003f13c050123009300f0fabf974b1a6864
:104f540095490a601b68cbb1954b1b785bb12268fd
:104f6400924b53f82230002b40f0a380904b4ff02b
:104f740000021a709de08e4b4ff001021a708b4ba9
:104f84001b6833804ff47a602af05eff2268874bf7
:104f940053f82230002b40f08c80854b1b78002b7b
:104fa40000f08780e2e7814b5a687f494a605b687a
:104fb400c3b17f4b5b7853b122687c4b53f82230ea
:104fc400002b76d17a4b4ff000025a7071e0784b87
:104fd4004ff001025a70754b5b6833804ff47a606e
:104fe4002af032ff2268714b53f82230002b60d133
:104ff4006f4b5b78002b5cd0e4e76c4b9a686a4992
:105004008a609b68c3b16a4b9b7853b12268674b33
:1050140053f82230002b4cd1654b4ff000029a70ac
:1050240047e0634b4ff001029a70604b9b683380fa
:105034004ff47a602af008ff22685c4b53f8223060
:10504400002b36d15a4b9b78002b32d0e4e7574bd8
:10505400da685549ca60db68bbb1554bdb784bb1a4
:105064002268524b53f822301bbb514b4ff00002c5
:10507400da701ee04e4b4ff00102da704b4bdb68e6
:1050840033804ff47a602af0dffe2268474b53f8ee
:10509400223073b9464bdb785bb1e6e7434bd3f878
:1050a4008430012b66d0414bd3f88430022b00f0be
:1050b400a0803388adf80c30b8f80030adf80e306d
:1050c400b9f80030adf81030baf80030adf812304d
:1050d4003b88adf81430bbf80030adf8163002232d
:1050e400002203a93348006826f06efc23680133cc
:1050f40023601f2b00f355861b2bdad801a252f82c
:1051040023f000bf514f0000ab4f0000ff4f0000e1
:1051140053500000a1500000b7500000615200003d
:10512400bb520000155300006f530000c953000028
:10513400355400008f540000eb540000b7500000b9
:1051440045550000275600001d570000ff5700007a
:10515400cd580000af5900007f5a00004f5b00009b
:10516400b7500000ad5b0000935c0000ef5c0000f2
:105174004b5d00000d4b19690f4a11601b6953b355
:105184000b4b93f82c30cbb12268084b53f82230e8
:10519400002b88d1064b4ff0000283f82c2082e7c5
:1051a40028990120b29901202c910120088e012018
:1051b4006c91012048970120fc920120984b4ff0fc
:1051c400010283f82c20974b1b69a8f800304ff498
:1051d4007a602af039fe2268924b53f82230002b71
:1051e4007ff461af8e4b93f82c30002b3ff45baf10
:1051f400d0e723688b4a52f823008b49086052f8a1
:105204002320eab1864a92f82d205ab1854a52f8f1
:105214002330002b7ff44daf814b4ff0000283f815
:105224002d2046e77e4a4ff0010182f82d107d4a79
:1052340052f82330a9f800304ff47a602af004fec3
:105244002268784b53f82230002b7ff432af744b32
:1052540093f82d30002b3ff42cafdde7714b9a69a6
:1052640072490a619b69cbb16d4b9b795bb1226832
:105274006c4b53f82230002b7ff41baf684b4ff07c
:1052840000029a7115e7664b4ff001029a71654b63
:105294009b6933804ff47a602af0d6fd2268614b13
:1052a40053f82230002b7ff404af5d4b9b79002b25
:1052b4003ff4ffaee2e75b4bda695c494a61db69c4
:1052c400cbb1574bdb795bb12268564b53f8223094
:1052d400002b7ff4eeae524b4ff00002da71e8e699
:1052e4004f4b4ff00102da714e4bdb6933804ff4c0
:1052f4007a602af0a9fd22684a4b53f82230002b29
:105304007ff4d7ae464bdb79002b3ff4d2aee2e715
:10531400444b1a6a45498a611b6acbb1404b1b7adc
:105324005bb122683f4b53f82230002b7ff4c1aeaf
:105334003b4b4ff000021a72bbe6394b4ff00102af
:105344001a72384b1b6a33804ff47a602af07cfd62
:105354002268344b53f82230002b7ff4aaae304b32
:105364001b7a002b3ff4a5aee2e72e4b5a6a2f4975
:10537400ca615b6acbb12a4b5b7a5bb12268294b69
:1053840053f82230002b7ff494ae254b4ff00002eb
:105394005a728ee6234b5b6a3380214b4ff0010235
:1053a4005a724ff47a602af04ffd22681d4b53f86d
:1053b4002230002b7ff47dae194b5b7a002b3ff437
:1053c40078aee2e7174b9a6a18490a629b6acbb136
:1053d400134b9b7a5bb12268124b53f82230002b9b
:1053e4007ff467ae0e4b4ff000029a7261e60c4bed
:1053f4004ff001029a720b4b9b6a33804ff47a6030
:105404002af022fd2268074b53f82230002b7ff448
:1054140050ae034b9b7a002b3ff44baee2e700bf48
:105424006c910120088e0120249301202c910120ed
:105434009a4bda6a9a494a62db6acbb1994bdb7ab6
:105444005bb12268954b53f82230002b7ff431aec8
:10545400944b4ff00002da722be6924b4ff00102ac
:10546400da728e4bdb6a33804ff47a602af0ecfcfc
:1054740022688a4b53f82230002b7ff41aae894bf2
:10548400db7a002b3ff415aee2e7844b1a6b8449b8
:105494008a621b6bd3b1834b1b7b5bb122687f4b4e
:1054a40053f82230002b7ff404ae7e4b4ff0000201
:1054b4001a73fee57b4b4ff001021a73774b1b6b9b
:1054c400aaf800304ff47a602af0befc2268734bcd
:1054d40053f82230002b7ff4ecad724b1b7b002b76
:1054e4003ff4e7ade1e76d4b5a6b6d49ca625b6b04
:1054f400cbb16c4b5b7b5bb12268684b53f82230b9
:10550400002b7ff4d6ad674b4ff000025a73d0e501
:10551400644b4ff001025a73604b5b6b33804ff462
:105524007a602af091fc22685c4b53f82230002bfd
:105534007ff4bfad5b4b5b7b002b3ff4baade2e77e
:10554400564bd3f88830012b20d0544bd3f88830f5
:10555400022b7ff4aead2368504a52f8230052491f
:10556400886052f82320002a4dd04e4a92f82f200a
:10557400002a3ad0494a52f82330002b7ff499addf
:10558400484b4ff0000283f82f2092e5434bd96b30
:10559400464a9160db6be3b1424b93f82e305bb12a
:1055a40022683e4b53f82230002bced13d4b4ff0b6
:1055b400000283f82e20c8e73a4b4ff0010283f82b
:1055c4002e20364bdb6ba8f800304ff47a602af0bb
:1055d4003bfc2268314b53f82230002bb5d1314bc0
:1055e40093f82e30002bb0d0e0e72e4a4ff00101a3
:1055f40082f82f10294a52f82330a9f800304ff4ca
:105604007a602af021fc2268244b53f82230002bc4
:105614007ff44fad234b93f82f30002b3ff449ad6b
:10562400aee71e4bd3f8a430012b20d01b4bd3f88c
:10563400a430022b7ff43dad2368184a52f82300ae
:105644001949c86052f82320002a57d0154a92f805
:105654003120002a44d0114a52f82330002b7ff421
:1056640028ad104b4ff0000283f8312021e50b4b9d
:10567400196c0e4ad1601b6c33b30a4b93f830306b
:10568400b3b12268054b53f82230002bced1054b21
:105694004ff0000283f83020c8e700bf088e0120d5
:1056a4002c9101206c91012024930120fc92012073
:1056b400a44b4ff0010283f83020a34b1b6c3b80ba
:1056c4004ff47a602af0c0fb22689f4b53f82230d3
:1056d400002babd19b4b93f83030002ba6d0d6e7f0
:1056e400984a4ff0010182f83110974a52f823305a
:1056f400abf800304ff47a602af0a6fb2268924b94
:1057040053f82230002b7ff4d4ac8e4b93f8313015
:10571400002b3ff4ceaca4e78b4bd3f89c30012b89
:1057240020d0894bd3f89c30022b7ff4c2ac236881
:10573400854a52f823008549086152f82320002a3b
:105744004dd0804a92f83320002a3ad07e4a52f84b
:105754002330002b7ff4adac7a4b4ff0000283f87a
:105764003320a6e4784b596c794a11615b6ce3b140
:10577400744b93f832305bb12268734b53f8223088
:10578400002bced16f4b4ff0000283f83220c8e7d4
:105794006c4b4ff0010283f832206b4b5b6ca8f822
:1057a40000304ff47a602af04ffb2268664b53f8be
:1057b4002230002bb5d1634b93f83230002bb0d09c
:1057c400e0e7604a4ff0010182f833105e4a52f874
:1057d4002330a9f800304ff47a602af035fb2268b0
:1057e400594b53f82230002b7ff463ac554b93f89c
:1057f4003330002b3ff45dacaee7534bd3f89c3011
:10580400012b20d0504bd3f89c30022b7ff451aca9
:1058140023684d4a52f823004c49486152f823202a
:10582400002a43d0474a92f83520002a35d0464a08
:1058340052f82330002b7ff43cac424b4ff0000273
:1058440083f8352035e4404b996c414a51619b6c97
:10585400bbb13c4b93f834305bb122683a4b53f8fc
:105864002230002bced1374b4ff0000283f8342086
:10587400c8e7354b9b6ca8f800304ff47a602af0e7
:10588400e3fa2268304b53f82230002bbad12d4b67
:1058940093f83430002bb5d0e5e72b4a52f8233087
:1058a400a9f800304ff47a602af0cefa2268264b29
:1058b40053f82230002b7ff4fcab224b93f83530a5
:1058c400002b3ff4f6abb8e71f4bd3f89030012b15
:1058d40021d01d4bd3f89030022b7ff4eaab236820
:1058e400194a52f823001949886152f82320002ae2
:1058f4004dd0144a92f83720002a3fd0124a52f869
:105904002330002b7ff4d5ab0e4b4ff0000283f80d
:105914003720fff7cebb0c4bd96c0d4a9161db6c81
:1059240003b3084b93f83630a3b12268064b53f8ff
:105934002230002bcdd1034b4ff0000283f83620e8
:10594400c7e700bf6c910120088e01202493012039
:10595400fc920120a84bdb6ca8f800304ff47a606d
:105964002af072fa2268a44b53f82230002bb0d1eb
:10597400a24b93f83630002babd0dce79e4a52f8aa
:105984002330a9f800304ff47a602af05dfa2268d7
:10599400994b53f82230002b7ff48bab974b93f841
:1059a4003730002b3ff485abaee7934bd3f89430fc
:1059b400012b21d0904bd3f89430022b7ff479ab98
:1059c40023688d4a52f823008d49c86152f8232078
:1059d400002a44d0894a92f83920002a36d0864acf
:1059e40052f82330002b7ff464ab844b4ff0000259
:1059f40083f83920fff75dbb7f4b196d814ad16174
:105a04001b6dbbb17d4b93f838305bb122687a4b88
:105a140053f82230002bcdd1784b4ff0000283f89d
:105a24003820c7e7744b1b6da8f800304ff47a6038
:105a34002af00afa2268704b53f82230002bb9d1ad
:105a44006e4b93f83830002bb4d0e5e76a4a52f82d
:105a54002330a9f800304ff47a602af0f5f922686f
:105a6400654b53f82230002b7ff423ab634b93f840
:105a74003930002b3ff41dabb7e75f4bd3f89830b8
:105a8400012b21d05c4bd3f89830022b7ff411ab5f
:105a94002368594a52f823005949086252f82320ce
:105aa400002a44d0554a92f83b20002a36d0524a64
:105ab40052f82330002b7ff4fcaa504b4ff0000225
:105ac40083f83b20fff7f5ba4b4b596d4d4a1162f1
:105ad4005b6dbbb1494b93f83a305bb12268464bde
:105ae40053f82230002bcdd1444b4ff0000283f801
:105af4003a20c7e7404b5b6da8f800304ff47a605a
:105b04002af0a2f922683c4b53f82230002bb9d179
:105b14003a4b93f83a30002bb4d0e5e7364a52f8c2
:105b24002330a9f800304ff47a602af08df9226806
:105b3400314b53f82230002b7ff4bbaa2f4b93f840
:105b44003b30002b3ff4b5aab7e72b4b9a6d2e4997
:105b54000a639b6ddbb1294b9b7d63b12268264ba5
:105b640053f82230002b7ff4a4aa244b4ff00002f8
:105b74009a75fff79eba214b4ff001029a751e4b9e
:105b84009b6daaf800304ff47a602af05df9226820
:105b9400194b53f82230002b7ff48baa174b9b7db3
:105ba400002b3ff486aae0e7134bd3f88c30012b8b
:105bb4002cd0114bd3f88c30022b7ff47aaa2368b3
:105bc4000d4a52f823000e49486252f82320002a55
:105bd4004fd00a4a92f83d20002a41d0064a52f892
:105be4002330002b7ff465aa044b4ff0000283f8a6
:105bf4003d20fff75eba00bf088e01206c910120a2
:105c040024930120fc9201202c910120934b196ec6
:105c1400934a51621b6ebbb1924b93f83c305bb11b
:105c240022688e4b53f82230002bc2d18d4b4ff09b
:105c3400000283f83c20bce7884b1b6ea8f80030b8
:105c44004ff47a602af000f92268844b53f822302a
:105c5400002baed1834b93f83c30002ba9d0e5e761
:105c64007e4a52f82330a9f800304ff47a602af0c3
:105c7400ebf82268794b53f82230002b7ff419aaf1
:105c8400784b93f83d30002b3ff413aaace7734be9
:105c94005a6e75494a635b6ed3b1724b5b7e63b1d6
:105ca40022686e4b53f82230002b7ff402aa6d4b0e
:105cb4004ff000025a76fff7fcb96a4b4ff001022d
:105cc4005a76664b5b6e33804ff47a602af0bcf8e8
:105cd4002268624b53f82230002b7ff4eaa9614b0f
:105ce4005b7e002b3ff4e5a9e1e75c4b9a6e5e49cd
:105cf4008a639b6ed3b15b4b9b7e63b12268574b27
:105d040053f82230002b7ff4d4a9564b4ff00002f5
:105d14009a76fff7ceb9534b4ff001029a764f4b68
:105d24009b6e33804ff47a602af08ef822684b4bd6
:105d340053f82230002b7ff4bca94a4b9b7e002be6
:105d44003ff4b7a9e1e7454bda6e47498a63db6e56
:105d5400d3b1444bdb7e63b12268404b53f822300d
:105d6400002b7ff4a6a93f4b4ff00002da76fff731
:105d7400a0b93c4b4ff00102da76384bdb6e33802e
:105d84004ff47a602af060f82268344b53f82230da
:105d9400002b7ff48ea9334bdb7e002b3ff489a9c3
:105da400e1e7324b1a78304b043b002001e0ab4270
:105db40007d053f8041f0029f9d00132d2b2009859
:105dc400f5e708b1294b1a70284b1b7853b1274bc0
:105dd4004ff000021a70264b1a78214b03f1280069
:105de400002622e0234b4ff000021a80224b1a8037
:105df400adf80c20214b1b88adf80e30204b1b88ce
:105e0400adf81030adf812203b88adf814301d4bbe
:105e14001b88adf816300223019a03a91a480068ba
:105e240025f0d2fdd7e7984207d053f8041b002988
:105e3400f9d00132d2b2009ef5e70eb10c4b1a70c4
:105e44000b4b1b7833b30a4b4ff000021a700f4b05
:105e54001a780f4b03f1280000263ee0088e01203b
:105e6400fc9201206c9101202c910120fc990120cd
:105e7400fd990120068e01208a960120aa91012015
:105e8400de910120ba99012048970120fe99012052
:105e940024930120334b4ff000021a803a80324b96
:105ea4001b88adf80c30adf80e20304b1b88adf8d4
:105eb40010302f4b1b88adf81230adf814202d4b49
:105ec4001b88adf816300223019a03a92a480068fa
:105ed40025f07afdbbe7834207d053f8041b002961
:105ee400f9d00132d2b2009ef5e70eb1234b1a70fd
:105ef400224b1b78002b30d11c4b4ff000021a8030
:105f04001c4b1a80184b1b88adf80c30154b1b88a2
:105f1400adf80e30adf81020154b1b88adf81230db
:105f24003b88adf81430adf816200223019a03a97a
:105f34001148006825f048fd4ff47a7029f084ff79
:105f4400019b2360084edff82490dff81880dff807
:105f540020a0dff820b0fff7cfb8084b4ff00002c5
:105f64001a70e9e7aa910120068e0120de91012032
:105f74008a960120ba99012048970120fe990120b0
:020000040000fa
:105f840038b50446d4485a230370a5234370072325
:105f940083708223c3701423037102234371d4f8e2
:105fa40000311a0e82711a0cc2711a0a02724372fb
:105fb400ca4b4ff400229a610a2127f06ffb2bf0a1
:105fc4005dfb0028fbd0c54b4ff400225a61c24848
:105fd4005a210170a5214170052181708221c1706f
:105fe400142101710621417100218171b4f81e113f
:105ff400c1719a61082127f051fb2bf03ffb002867
:10600400fbd0b64b4ff400225a61b3485a210170b9
:10601400a5214170052181708221c1701421017173
:106024000821417100258571d4f80451c5719a6124
:1060340027f034fb2bf022fb0028fbd0a74a4ff4b7
:1060440000215161a4485a230370a52343700523fa
:1060540083708223c370142303710a2343710023c2
:106064008371d4f804311b0ac3719161082127f0ac
:1060740015fb2bf003fb0028fbd0984b4ff40022b8
:106084005a6195485a210170a521417005218170fa
:106094008221c170142101710c214171002181718f
:1060a400b4f80611c1719a61082127f0f7fa2bf0b0
:1060b400e5fa0028fbd0894b4ff400225a61864848
:1060c4005a210170a5214170052181708221c1707e
:1060d400142101710e21417100218171b4f80e1156
:1060e400c1719a61082127f0d9fa2bf0c7fa002868
:1060f400fbd07a4a4ff40021516177485a23037048
:10610400a5234370052383708223c3701423037172
:106114001023437100238371d4f80c311b0ac3711b
:106124009161082127f0bafa2bf0a8fa0028fbd0d5
:106134006a4b4ff400225a6167485a210170a52125
:106144004170052181708221c170142101711221d5
:10615400417100218171d4f80c11c1719a61082137
:1061640027f09cfa2bf08afa0028fbd05b4a4ff404
:106174000021516158485a230370a5234370072313
:1061840083708223c3701423037116234371d4f8dc
:1061940020311d0e85711d0cc5711d0a05724372d7
:1061a40091610a2127f07afa2bf068fa0028fbd0d3
:1061b4004a4b4ff400225a6147485a210170a521e5
:1061c4004170052181708221c170142101711a214d
:1061d400417100218171b4f83e11c1719a610821a5
:1061e40027f05cfa2bf04afa0028fbd03b4b4ff423
:1061f40000225a6138485a210170a52141700521b5
:1062040081708221c170142101711c21417100210e
:106214008171d4f82411c1719a61082127f03efae2
:106224002bf02cfa0028fbd02c4a4ff400215161aa
:1062340029485a230370a5234370052383708223be
:10624400c370142303711e23437100238371d4f894
:1062540024311b0ac3719161082127f01ffa2bf026
:106264000dfa0028fbd01d4b4ff400225a611a4846
:106274005a210170a5214170052181708221c170cc
:10628400142101712021417100218171b4f826117a
:10629400c1719a61082127f001fa2bf0eff9002867
:1062a400fbd00e4b4ff400225a610b485a21017067
:1062b400a5214170052181708221c17014210171d1
:1062c4002221417100218171b4f82e11c1719a61aa
:1062d400082127f0e3f903e07493012000800041d2
:1062e4002bf0ccf90028fbd0d54a4ff400215161a2
:1062f400d4485a230370a523437005238370822353
:10630400c370142303712423437100238371d4f8cd
:106314002c311b0ac3719161082127f0bff92bf0be
:10632400adf90028fbd0c64b4ff400225a61c54892
:106334005a210170a5214170052181708221c1700b
:10634400142101712621417100218171d4f82c118d
:10635400c1719a61082127f0a1f92bf08ff9002867
:10636400fbd0b74a4ff400215161b6485a23037059
:10637400a5234370072383708223c37014230371fe
:106384002a234371d4f840311d0e85711d0cc5714b
:106394001d0a0572437291610a2127f07ff92bf0df
:1063a4006df90028fbd0a64b4ff400225a61a54892
:1063b4005a210170a5214170052181708221c1708b
:1063c400142101712e21417100218171b4f85e11f3
:1063d400c1719a61082127f061f92bf04ff9002867
:1063e400fbd0974b4ff400225a6196485a21017012
:1063f400a5214170052181708221c1701421017190
:106404003021417100218171d4f84411c1719a6124
:10641400082127f043f92bf031f90028fbd0884af2
:106424004ff40021516187485a230370a523437018
:10643400052383708223c3701423037132234371b1
:1064440000238371d4f844311b0ac371916108217c
:1064540027f024f92bf012f90028fbd0784b4ff4e5
:1064640000225a6177485a210170a5214170052103
:1064740081708221c1701421017134214171002184
:106484008171b4f84611c1719a61082127f006f9a7
:106494002bf0f4f80028fbd0694b4ff400225a612a
:1064a40068485a210170a52141700521817082211b
:1064b400c170142101713621417100218171b4f838
:1064c4004e11c1719a61082127f0e8f82bf0d6f833
:1064d4000028fbd05a4a4ff40021516159485a23ed
:1064e4000370a5234370052383708223c370142390
:1064f40003713823437100238371d4f84c311b0a90
:10650400c3719161082127f0c9f82bf0b7f800286e
:10651400fbd04b4b4ff400225a614a485a21017078
:10652400a5214170052181708221c170142101715e
:106534003a21417100218171d4f84c11c1719a61e1
:10654400082127f0abf82bf099f80028fbd03c4a3f
:106554004ff4002151613b485a230370a523437033
:10656400072383708223c370142303714023437170
:10657400d4f860311d0e85711d0cc5711d0a05729c
:10658400437291610a2127f089f82bf077f80028eb
:10659400fbd02b4b4ff400225a612a485a21017038
:1065a400a5214170052181708221c17014210171de
:1065b4004421417100218171b4f87e11c1719a6145
:1065c400082127f06bf82bf059f80028fbd01c4b5e
:1065d4004ff400225a611b485a210170a5214170d1
:1065e400052181708221c1701421017146214171fc
:1065f40000218171d4f86411c1719a61082127f0d6
:106604004df82bf03bf80028fbd00d4a4ff4002145
:1066140051610c485a230370a523437005238370ea
:106624008223c370142303714823437100238371ad
:10663400d4f864311b0ac3719161082104e000bfde
:10664400008000417493012027f028f82bf016f8fd
:106654000028fbd0d54b4ff400225a61d4485a216c
:106664000170a5214170052181708221c17014211e
:1066740001714a21417100218171b4f86611c1711f
:106684009a61082127f00af82af0f8ff0028fbd0c5
:10669400c64b4ff400225a61c5485a210170a52106
:1066a4004170052181708221c170142101714c2136
:1066b400417100218171b4f86e11c1719a61082190
:1066c40026f0ecff2af0daff0028fbd0b74a4ff49b
:1066d40000215161b6485a230370a5234370052352
:1066e40083708223c370142303714e2343710023e8
:1066f4008371d4f86c311b0ac3719161082126f0af
:10670400cdff2af0bbff0028fbd0a84b4ff400229a
:106714005a61a7485a210170a52141700521817051
:106724008221c170142101715021417100218171b4
:10673400d4f86c11c1719a61082126f0afff2af0d8
:106744009dff0028fbd0994a4ff4002151619848dd
:106754005a230370a5234370072383708223c370d5
:106764001423037156234371d4f880311d0e8571af
:106774001d0cc5711d0a0572437291610a2126f030
:106784008dff2af07bff0028fbd0884b4ff40022ba
:106794005a6187485a210170a525457005258570e1
:1067a4008225c57014250571417100218171b4f8e9
:1067b4009e11c1719a61082126f070ff2af05effd4
:1067c4000028fbd0794b4ff400225a6178485a21b3
:1067d4000170a5214170052181708221c1701421ad
:1067e40001715c21417100218171d4f88411c1715e
