:020000040000fa
:10000000f0ff032009ca0200e3e3020057fb0200ed
:10001000930f03009f1103009f12030000000000d4
:10002000000000000000000000000000110c0300b0
:10003000530d03000000000041d80200a5ff02009c
:10004000a9130300a9130300a9130300a9130300b4
:10005000a9130300a9130300a9130300a9130300a4
:10006000a9130300a9130300a9130300a913030094
:10007000a9130300550d0300750d0300a913030018
:10008000a9130300950d0300b50d0300d50d030062
:10009000a10b0300c50b0300e90b0300bd0803001f
:1000a000e5080300a9130300a9130300a913030023
:1000b000a9130300a9130300a9130300a913030044
:1000c000a9130300a9130300a9130300a913030034
:1000d000a9130300a9130300a9130300a913030024
:1000e000a9130300a9130300000000000000000092
:1000f00000000000a9130300a9130300a9130300c3
:10010000a9130300a9130300a9130300a9130300f3
:10011000a9130300a9130300bddd0200bddd020029
:10012000bddd0200bddd0200bda70200bda70200cb
:10013000bda70200bda702009ddb02009ddb0200ff
:100140009ddb02009ddb02000ddd02000ddd0200e3
:100150000ddd02000ddd020065dd020065dd02003f
:1001600065dd020065dd020015de020015de02001d
:1001700015de020015de020015be0200a5bf02005a
:10018000a9130300a9130300a9130300a913030073
:1001900000000000a9130300a9130300a913030022
:1001a000a9130300a9130300a9130300a913030053
:1001b000a9130300a9130300a9130300a913030043
:1001c000a9130300a9130300a9130300a913030033
:1001d000a9130300a9130300a9130300a913030023
:1001e000a9130300a9130300a9130300a913030013
:1001f000a9130300a9130300a9130300a913030003
:10020000a9130300a9130300a9130300a9130300f2
:10021000a9130300a9130300a9130300a9130300e2
:10022000a9130300a9130300a9130300a9130300d2
:10023000a9130300a9130300a9130300a9130300c2
:10024000a9130300a9130300a9130300a9130300b2
:10025000a9130300a9130300a9130300a9130300a2
:020000040000fa
:10026000f8b500bff8bc08bc9e46704749ea0200da
:10027000f8b500bff8bc08bc9e46704725ea0200ee
:020000040000fa
:08028000e07f02000100000014
:020000040000fa
:100288002de9f04ff7b000247494759472948df8aa
:10029800cc41adf8c4416f9470946e946b946c9497
:1002a8008df8b4416994cdf8a74166946794689431
:1002b80063946494659460946194629459945a9494
:1002c8005b945c945d945e945f94559456945794b3
:1002d800adf860414f945094519452945394cdf892
:1002e8004f419022214616a830f0beff1494159471
:1002f8001e22214604a830f0b7ffb34fb34cdff8f5
:100308002c83dff82ca3dff82c93dff82cb32de235
:10031800af4b18682cf06ef90025aaf80050a9f820
:100328000050ac4b1d70ac4b1d802a4674a9ab4bda
:1003380018682bf0fdf92a4672a9a94b18682bf00a
:10034800f7f92a4671a9a74b18682bf0f1f99df81f
:10035800d731012b40f0d4819df8ca31002b40f0f1
:10036800cf819df8c9316d2b26d89df8c931632bf3
:1003780000f2c6819c4e669640238df8a2319b4db3
:100388000023642266a928682bf0b2f84ff47a702b
:100398002ff028fb669600238df87e318df8a23168
:1003a800642266a928682bf0a3f864202ff01afbb2
:1003b8008f4b01221a70a3e18e4b1d608e4b1d607e
:1003c800894b669340238df8a231884e2b466422d0
:1003d80066a930682bf08cf84ff47a702ff002fb86
:1003e800814b66938df87e518df8a2512b4664227d
:1003f80066a930682bf07cf864202ff0f3fa7c4b68
:1004080001221a700c2388f80030aee77b4b639307
:1004180000258df890512b46642263a9784800681e
:100428002bf066f864202ff0ddfa764b60930126f6
:100438008df85a618df884618df85b518df885517e
:100448008df85c518df886512b46642260a96e4860
:1004580000682bf04df864202ff0c4fa624b6693c5
:100468008df87c618df89d612b46642266a95f48f2
:1004780000682bf03df864202ff0b4fa2a4671a9e1
:10048800584b18682bf054f99df8c431b34240f02a
:100498003781574b02221a7032e1534d669540233b
:1004a8008df8a231514e0023642266a930682bf0e2
:1004b8001ff84ff47a702ff095fa669500258df89d
:1004c8007e518df8a2512b46642266a930682bf024
:1004d8000ff864202ff086fa2a4672a9404b186854
:1004e8002bf026f9002800f00b819df8c931503b0c
:1004f800dbb21d2b25d99df8c9316d2b0dd9434b86
:100508001b78002b00f09a80414b00221a700c23b4
:1005180088f8003001202df0f7fd3e4b1b681e2b9c
:1005280040f3ee803b4b00221a60384b1b7823b90e
:10053800394b4ff48032c3f898202d4b00221a70a3
:10054800dee002202df0e0fd334b4ff48032c3f89b
:100558009420092388f800302d4b01221a70254b6e
:100568001b6893420ed02d4b1b78022b18d0214bc1
:100578001b6813b91e4b03221a70264a13680133ed
:100588001360b8e72a468df83c5002230fa9244887
:1005980000682af0adff234b18682cf02bf8e2e72f
:1005a8001e4b5b78012be2d1114b03221a700022fb
:1005b8008df84020022310a91b4800682af098fff4
:1005c8000d4b01221a60d2e7b1990120bc98012095
:1005d800a0970120d099012026950120709801202c
:1005e800749801209898012002c4ec1538980120cd
:1005f80085990120009901200899012001c4ec1572
:100608001c98012002d4ec150c980120a199012016
:10061800a6990120ec980120008000418c990120c6
:100628003c970120249701204897012079990120bf
:10063800989901209c990120af990120b64b4ff45d
:100648008032c3f898204ff6ff702ef027fb002366
:10065800b24a1360b24a1360b24b1b78002b7ff486
:1006680053afb04b01221a70af4b18782df0aef88b
:100678004ae70025ad4b1d60ad4b639308238df809
:100688003f318df893312b46642263a9a94800684d
:100698002af02eff4ff47a702ff0a4f9a64e669632
:1006a8008df87d518df8a0518df87e518df8a251ad
:1006b8008df87f518df8a3512b46642266a99f4877
:1006c80000682af015ff4ff47a702ff08bf92a464c
:1006d80071a99b4b18682bf02bf8669602238df8ae
:1006e8007c318df89d312b46642266a993480068b9
:1006f8002af0fefe64202ff075f9924b04221a703e
:1007080098f800308df84d30baf80020adf84a203e
:10071800b9f80020adf848209bf800208df84e204d
:100728003a788df84c208df844300223002212a923
:10073800854800682af0dcfe0223002211a98348bc
:1007480000682af0d5fe2368012b0bd10023236013
:100758007c4a13707e4b18682bf04cff7d4b186851
:100768002bf088fa4ff448702ff03cf900220ca9be
:10077800794b18682af0dcff28b1784a9df83030a8
:1007880011880b4413806f4b1b78dbb21e2bb7d834
:1007980001a252f823f000bf19030000150400005d
:1007a800a30400007b0600001d08000009070000e4
:1007b8009108000009070000090700000907000068
:1007c80009070000090700000907000009070000e1
:1007d80009070000090700000b0a000009070000cc
:1007e800350b0000610d0000310e00000907000004
:1007f800b5100000090700000907000009070000fc
:1008080009070000090700000907000009070000a0
:100818005d1a0000002272a9514b18682af088ff5f
:10082800002271a9464b18682af082ff9df8ca3148
:10083800012b1fd09df8c431fa2b02d0fc2b00d01d
:1008480013b9404b00221a709df8c9316d2b7ff601
:1008580057af444b1b7823b92f4b4ff48032c3f862
:1008680098200023404a13700c2288f80020354a4b
:10087800137045e79df8c931503bdbb21d2bd9d821
:10088800304b06221a70d5e70022264b1a7071a940
:100898002b4b18682af04cff9df8c431312b0ed928
:1008a8001e4b1b68012b28d0002b41f01a82002216
:1008b80069a92e4b18682af03bff00285ad19df8e9
:1008c800c431fa2b02d0fc2b00d053b9134a12685a
:1008d800012a19d02ab91b4a002111700f4a012197
:1008e80011600a2b7ff40caf214b1b780133dbb26c
:1008f800f02b76d01e4a137002e7124b10221a70a2
:100908009df8c431fa2bded10e4a00211170034a3a
:1009180001211160e5e700bf008000410099012036
:1009280008990120dc990120379a0120ec980120d0
:1009380001c4ec151c98012002c4ec15389801205c
:10094800989801208599012038970120f896012070
:1009580070970120249801206c970120269501208a
:1009680074980120a1990120a6990120809801205e
:10097800e89901209df8a4318df834309df8a5310f
:100988008df835309df8a6318df836309df8a731b1
:100998008df837309df8a8318df838309df8a93199
:1009a8008df83930022300220da9524800682af038
:1009b8009ffd9df83430002b81d04f4b01221a60e7
:1009c8004e4b10221a7002238df83c3000220fa9da
:1009d8004b4800682af08cfd4a4b18682bf00afe39
:1009e8006de70023484a1370444a1370474b40f29e
:1009f80033121a80464b02221a7011202cf0e6fea0
:100a08007ee6414b00221a70424b1b686bbb424b7f
:100a18001b78022b2dd1404b5b78012b29d1154631
:100a28008df84020022310a93c4800682af060fd98
:100a38003b4b669301238df87e318df8a2312b460e
:100a4800642266a9374800682af052fd64202ef017
:100a5800c9ff2a4671a9344b18682af069fe274b4a
:100a680012221a700e202cf0b1fe2a4b1b68012ba3
:100a780022d0002271a92c4b18682af059fe9df843
:100a8800c431fa2b04d0fc2b02d0002b7ff438aef3
:100a98001a4b00221a70184b01221a601b4b4ff494
:100aa8009a721a801a4b02221a7006202ff026fb1f
:100ab80011202cf08bfe23e6194b669301238df849
:100ac8007e318df8a2310023642266a9154800689a
:100ad8002af00efd64202ef085ff002271a9124b2a
:100ae80018682af025fe054b12221a700e202cf0e9
:100af8006dfebee7409701200099012085990120ed
:100b08003c97012024970120e8990120669601204e
:100b1800b5990120089901208c9901204897012056
:100b280002c4ec1538980120989801200123a84a9e
:100b38001360a84a4ff40011c2f8181100224c9211
:100b4800a54a4d928df8383102238df839310022ab
:100b58004ca9a24800682af0cbfca14b18682bf0de
:100b680049fd00226fa99f4b18682af0e1fd002873
:100b780000f0d7809df8bc319df8bd2102eb03221f
:100b8800994981fb0232931007ee903af8eee77a22
:100b98009df8be219df8bf3103eb022381fb03239f
:100ba8009b1007ee103ab8eec77abdeec77a17ee7b
:100bb800103a8e4a92fbf3f303eb83035b0007eed4
:100bc800103ab8eec77a8a4b83ed007ab2ee047a0f
:100bd80067ee877a93ed007af4eec77af1ee10fab1
:100be80048bfc3ed007a834b669300258df8a25168
:100bf8002b46642266a9804800682af079fc6420a4
:100c08002ef0f0fe7d4b6393794ad2ed007afcee2c
:100c1800e77a17ee903a8df89031d2ed007afcee33
:100c2800e77a17ee903ac3f307238df89131e02362
:100c38008df892312e238df893314ff010028df8f4
:100c4800942127238df8953114268df896618df817
:100c580097512b46642263a9694800682af048fc2a
:100c68004ff496702ef0befe8df890618df891517c
:100c7800c8238df892318df893518df894618df8d1
:100c8800955164268df896618df897515d4b639365
:100c98002b46324663a95a4800682af029fc4ff4cb
:100ca80096702ef09ffe02238df87e318df8a231ca
:100cb800504b66932b46324666a94f4800682af087
:100cc80017fc30462ef08efe10202cf07ffd2a46b1
:100cd80071a94d4b18682af02bfd9df8c421a2f18b
:100ce8005b03dbb2092b08d8484b13221a70394b27
:100cf8004ff48012c3f8142113e0fa2a01d0fc2a19
:100d080027d1424b00221a70414b40f235121a800b
:100d1800404b02221a7008202ff0f0f911202cf015
:100d280055fd00250d95adf8385002232a460da92a
:100d3800394800682af0dcfb8df83c5002232a462b
:100d48000fa9364800682af0d3fb354b1d809d70eb
:100d5800d6e4002ad5d0e4e7002272a9314b1868fe
:100d68002af0e6fc9df8c931312b7ff6c9ac194b46
:100d7800d3f8203113f0807f19d101238df87d310c
:100d88008df8a0310c238df87e318df8a231194be6
:100d980066930023642266a9174800682af0a8fb16
:100da80064202ef01ffe194b14221a70a8e4174b6a
:100db80000221a70164b40f235121a80154b022287
:100dc8001a7007202ff09af911202cf0fffc97e4f5
:100dd800089901200080004100004843d097012075
:100de800d49701208898012067666666c0d4010000
:100df800ac97012002c4ec153898012003c4ec1507
:100e08001c98012004c0ec159898012085990120b0
:100e180066960120b5990120409701203c97012052
:100e28008c9901207498012000226ea9854b1868be
:100e38002af07efc9df8b8319df8b92102eb032217
:100e4800814981fb0232921007ee902af8eee77a88
:100e58007e4bc3ed007a9df8ba219df8bb3103ebb8
:100e6800022381fb03239b1007ee103ab8eec77ae2
:100e7800774b83ed007a4ff080434c93cded4d7a5c
:100e880001238df8383102238df8393100224ca91d
:100e9800704800682af02cfb6f4b18682bf0aafbef
:100ea8009df8b9318df89c319df8b8318df89d3198
:100eb8009df8bb318df89e319df8ba318df89f3180
:100ec800664b66930023642266a9654800682af089
:100ed8000ffb64202ef086fd12202cf077fc0022f8
:100ee80071a9604b18682af023fc00283ff408ac6d
:100ef8009df8c431782b1ad09df8c431fa2b04d050
:100f0800fc2b02d0002b7ff4fbab574b1e221a7030
:100f1800564b4ff49b721a80554b02221a700820c8
:100f28002ff0ecf811202cf051fcfff7e9bb514be6
:100f38001e6830f0e1f94ef6602500950023024660
:100f4800012130462df070fa4b4b1e6830f0d4f971
:100f5800009500230246012130462df065fa474be3
:100f68001e6830f0c9f90095002302460121304679
:100f78002df05afa424b1e6830f0bef90095002356
:100f88000246012130462df04ffa3e4b1e6830f0e4
:100f9800b3f9009500230246012130462df044faaa
:100fa800394b1e6830f0a8f900950023024601214c
:100fb80030462df039fa2c4b16221a70334b18781c
:100fc8002ef0e6fa64202ef00dfd314d28782ef033
:100fd800fbfa64202ef006fd2e4e30882ef010fb12
:100fe80064202ef0fffc2c4908782ef041fb642089
:100ff8002ef0f8fc294800782ef01efb64202ef015
:10100800f1fc274a10782ef04ffb64202ef0eafc02
:10101800244b1a68244b1a6031882b781b4a1278a3
:101028001b0243ea014313433d931c4801781a4bc2
:101038001b781b4a12781b0243ea014313433e9371
:101048005ae700bf90980120676666666499012098
:10105800cc980120d0970120d497012005c4ec1525
:1010680038980120989801208599012066960120da
:10107800b5990120b09801203099012034990120b8
:10108800389901203c99012078970120c1990120c5
:10109800da9901205a8d0120d9990120ca99012095
:1010a800e699012098970120f897012047f23050df
:1010b8002df0f4fd03202df027f8524b18882ef060
:1010c800bff9514b1b78072b00f0978000226ea9bf
:1010d8004e4b18682af02cfb002840f0b78064209b
:1010e8002ef080fc9df8b9318df89c319df8b8310f
:1010f8008df89d319df8bb318df89e319df8ba3140
:101108008df89f31424b66930023642266a94148bb
:1011180000682af0edf964202ef064fc00226ba927
:101128003d4b18682af004fba0b13c4a13789df89f
:10113800ae013b49c854062188f8001001331370ea
:10114800314b1b78042b40f28a832f4b1b78052bdd
:1011580000f09083334b1b78052b00f093832f4bc3
:101168001b78052b00f008842f4b1b782bb92f4bcd
:101178001b78dbb2012b00f01e842b4b1b78dbb2f3
:10118800012b00f023849df8c431292b03d0fa2bbe
:1011980001d0fc2b12d1264b1e221a70092388f885
:1011a8000030244bca221a80234b02221a700a20cc
:1011b8002ef0a4ff214b1a68214b1a609df8ac3120
:1011c800012b00f01a841f4b1b78022b7ff498aa7e
:1011d8001c4b9b78012b7ff493aa154b1e221a7087
:1011e800092388f80030174b00221a809a70134b95
:1011f8001a68134b1a60fff783ba134b18782ef04e
:1012080027fe63e726950120d099012090980120b8
:1012180005c4ec15389801208c980120cd9901203f
:1012280068960120d5990120a1990120a69901204d
:101238008599012066960120b5990120989701208b
:10124800009801208c990120899901209df8ba21e4
:101258009df8bb3103eb0223c34a82fb03139b08af
:1012680007ee903af8ee677ac04bc3ed007a9df826
:10127800b8119df8b93103eb012382fb03239b08c6
:1012880007ee103ab8ee477ab94b83ed007a17eebd
:10129800900a2ef029fc02460b46b64904a82ff006
:1012a80067fe1e2104a82bf091ff2ff07dff002878
:1012b800fbd0ae4bd3ed007aad4bd3ed006a27eef1
:1012c800a67aad4b83ed007aac4b1b78002b40f02f
:1012d8008780ab4b1a68ab4b1a6093ed006ab4ee8b
:1012e800c67af1ee10fa34d5a74b1b7833bb9fedc5
:1012f800a77a76ee876acded4d6aa24b93ed006a28
:10130800a34bd3ed006a86ee267af4eec77af1eea7
:1013180010fac0f28880f5ee007a27ee277a8ded74
:101328004c7a03238df8393101238df838310223a3
:1013380000224ca9974800682af0daf8924b1b78eb
:10134800dbb2012b7cd0904b1b78dbb2012b00f079
:10135800be808c4bd3ed007a874b93ed007ab4eec8
:10136800e77af1ee10fa3bdd874b1b7863bb804bc5
:10137800d3ed007a9fed857a77ee877acded4d7ab9
:10138800804bd3ed006a824bd3ed007a86eea77ac4
:10139800764bd3ed007ab4eee77af1ee10fa00f26c
:1013a800d580f5ee007a27ee277a8ded4c7a032367
:1013b8008df8393101238df83831022300224ca9e8
:1013c800744800682af094f86f4b1b78dbb2012b45
:1013d80000f0ec806c4b1b78dbb2012b00f02d8108
:1013e800664b1b78dbb2012b00f066816a490a78ec
:1013f80090006a4d05449df8ba619df8bb3103eb36
:101408000623594e86fb03639b0807ee903af8eed5
:10141800677ac5ed007a624b03445d48006818603e
:1014280001320a705be6f4eec77af1ee10fa7ff546
:1014380078afb5ee007a67ee877acded4c7a70e733
:10144800584b1b78dbb2112b7ff67daf564b4ff410
:101458000012c3f81821464bd3ed007a9fed4b7a62
:1014680077ee877acded4d7a464bd3ed007ab6ee1e
:10147800007a67ee877a464bd3ed006a87eea67a44
:101488003a4bd3ed007ab4eee77af1ee10fa12d8bf
:10149800f6ee007a27ee277a8ded4c7a02238df846
:1014a800393101228df8382100224ca939480068c9
:1014b8002af01ef84de7b4eee77af1ee10faeddd0a
:1014c800b6ee007a67ee877acded4c7ae6e7354bd3
:1014d8001b78dbb2112b3ff63caf254bd3ed007ade
:1014e8009fed2a7a77ee877acded4d7a254bd3edad
:1014f800006a274bd3ed007a86eea77a1b4bd3ed13
:10150800007ab4eee77af1ee10fa13d8f5ee007a25
:1015180027ee277a8ded4c7a03238df83931012394
:101528008df83831022300224ca91a48006829f0a6
:10153800dfff0ee7b4eee77af1ee10faecddb5ee78
:10154800007a67ee877acded4c7ae5e7b4eee77a74
:10155800f1ee10fa7ff72bafb5ee007a67ee877ad7
:10156800cded4c7a23e700bf67666666cc9801200c
:1015780064990120502101002c990120ad99012086
:10158800249a0120c4970120a1990120000000009d
:101598002c9a0120d0970120d5990120849401200c
:1015a800ac9401208199012000800041bf4b1b7839
:1015b800dbb2112b7ff60eafbd4b4ff40012c3f810
:1015c8001821bc4bd3ed007a9fedbb7a77ee877a72
:1015d800cded4d7ab94bd3ed007ab6ee007a67eed1
:1015e800877ab74bd3ed006a87eea67ab54bd3ed71
:1015f800007ab4eee77af1ee10fa12d8f6ee007a35
:1016080027ee277a8ded4c7a02238df839310122a5
:101618008df8382100224ca9ab48006829f068fff2
:10162800dee6b4eee77af1ee10faedddb6ee007a1a
:1016380067ee877acded4c7ae6e79c4b1b78dbb2f8
:10164800112b3ff6cdae9b4bd3ed007a9fed9a7ae6
:1016580077ee877acded4d7a984bd3ed006a984bab
:10166800d3ed007a86eea77a964bd3ed007ab4eee6
:10167800e77af1ee10fa13d8f5ee007a27ee277a1a
:101688008ded4c7a03238df8393101238df83831eb
:10169800022300224ca98c48006829f029ff9fe604
:1016a800b4eee77af1ee10faecddb5ee007a67ee0b
:1016b800877acded4c7ae5e7844b1b785bbb7d4b95
:1016c800d3ed007a9fed7c7a77ee877acded4d7a6f
:1016d8007f4bd3ed006a7a4bd3ed007a86eea77a7a
:1016e800784bd3ed007ab4eee77af1ee10fa50d8e1
:1016f800f5ee007a27ee277a8ded4c7a03238df8e4
:10170800393101238df83831022300224ca96e4863
:10171800006829f0edfe6d4b1b78dbb2012b44d03d
:101728006a4b1b78dbb2012b7ff460ae5f4b1b78f2
:10173800dbb2112b3ff65aae5e4bd3ed007a9fed2c
:101748005e7a77ee877acded4d7a614bd3ed006afc
:101758005b4bd3ed007a86eea77a5a4bd3ed007a2d
:10176800b4eee77af1ee10fa6dd8f5ee007a27eece
:10177800277a8ded4c7a03238df8393101238df8c2
:101788003831022300224ca94f48006829f0b0fee6
:101798002ce6b4eee77af1ee10faafddb5ee007a9a
:1017a80067ee877acded4c7aa8e7404b1b78dbb221
:1017b800112bb5d93e4b4ff40012c3f81821444bf6
:1017c80093ed007adfed437ab4eee77af1ee10faa2
:1017d800c8bfc3ed007a374bd3ed007a9fed367a58
:1017e80077ee877acded4d7a394bd3ed006a344bdd
:1017f800d3ed007a86eea77a324bd3ed007ab4eeb9
:10180800e77af1ee10fa12d8f6ee007a27ee277a88
:101818008ded4c7a02238df8393101228df838216b
:1018280000224ca92848006829f062fedee5b4eee3
:10183800e77af1ee10faedddb6ee007a67ee877a18
:10184800cded4c7ae6e7b4eee77af1ee10fa92dde8
:10185800b5ee007a67ee877acded4c7a8be72ef0fd
:10186800f7fa9df8ae211c4b1a701c4a1378013305
:1018780013706ae4194b07221a709df8ae318bf881
:10188800003067e44ff0000c154b83f800c0baf83d
:101898000010b9f80000134b134a03f1140ecdf8e9
:1018a8000cc01e461546029122e000bf8199012016
:1018b800008000416499012000000000c4970120c5
:1018c8002c9a0120cc980120d0970120a1990120c1
:1018d800cc97012000606a4789990120d09901209e
:1018e800d599012084940120ac940120734525d01a
:1018f800f3ec017a96ed007ab4eee77af1ee10fa9d
:1019080009d8c6ed007afceee77a17ee901a89b28c
:1019180002914ff0010cf2ec017a95ed007ab4eee9
:10192800e77af1ee10fae1d8c5ed007afceee77a35
:1019380017ee901a88b201210391d7e70299bcf1fa
:10194800000f01d0aaf80010039b0bb1a9f8000002
:10195800344bd3ed007afceee77a17ee900a2df0bf
:10196800a7fd314bd3ed007afceee77a17ee900a2b
:101978002df082fdfff7f3bb00252c4b1d7097f867
:1019880000c02b4b5e1d18464ff0010e01e0b3421c
:1019980008d013f8012b01789142f8d802709446c8
:1019a8007546f4e70db187f800c0214b18782ef082
:1019b80037fafff7d9bb00228df84020022310a97f
:1019c8001c48006829f094fdfff7d7bb1a4b1b7819
:1019d800dbb2012b7ff4d7ab184b1b78dbb2132b90
:1019e8007ff6d1ab00228df84020022310a91148c0
:1019f800006829f07dfdfff7c6bb114b1e221a7047
:101a0800092388f800300f4bc9221a800e4b022296
:101a18001a700a202ef072fb0c4b1a680c4b1a60d5
:101a2800fff7d1bb84940120ac940120cd9901200b
:101a38006896012048970120a699012081990120e4
:101a48008599012066960120b59901209897012073
:101a580000980120a74b1b78dbb2012b00f009810d
:101a6800a54b1b78dbb2012b00f019814ff0030363
:101a78008df87c318df89d31a04b6693a04e0023e4
:101a8800642266a9306829f033fd32202df0aaffc0
:101a980000258df89c518df89d519a4a66922b46e7
:101aa800642266a9306829f023fd32202df09affc0
:101ab80095494ff48010c1f81801944b1a68944b5b
:101ac8001a608c4b1d7002238df839318df838510e
:101ad8002a464ca98f48006829f00afd40f6b8301c
:101ae8002df080ff4ff003008df89d01834b669326
:101af8002b46642266a80146306829f0f9fc32209a
:101b08002df070ff8df89c518df89d517d4a66929d
:101b18002b46642266a80146306829f0e9fc322089
:101b28002df060ff78494ff48013c1f818310a236b
:101b380000932b462a460321774800682cf074fc52
:101b4800764b18782df0ccfd754b18782df0e4fd08
:101b5800744b18882df0fcfd734b18782df030fe6f
:101b6800724b18782df010fe714b18782df044fe4a
:101b7800704b18682df078fe6f4b1b78dbb2012b89
:101b880000f0a3806c4b1b78dbb2022b00f0a18025
:101b9800694b1b78dbb2032b00f09f805c4bd3edc5
:101ba800007afceee77a654b93ed007abceec77ad3
:101bb80017ee903a17ee102a9b1a07ee903af8eeb5
:101bc800677a5f4dc5ed007afceee77a17ee900a6a
:101bd8002df02efe5b4b15221a7005202cf094fa7e
:101be800544b1b683c934f4b19884d4b1b784b4a01
:101bf80012781b0243ea014313433f934b4b197876
:101c0800494b1b784a4a12781b0243ea01431343a3
:101c180040934d4b1a783b7843ea02434193d5ed04
:101c2800007afceee77a17ee903a43f400334293d9
:101c3800414b1a78454d2b8843ea024343930223cc
:101c48008df8e830002364223aa94148006829f059
:101c58004ffc404b18682af0cdfc0123236000227a
:101c68002a803d4a13703d4a13703d4a1370fef7af
:101c780047bd214b1b78002b7ff4f2ae00228df874
:101c8800382103238df8393102234ca921480068f3
:101c980029f02efc40f6b8302df0a4fee0e6154bf6
:101ca8001b78dbb2012b7ff4e1ae00228df83821de
:101cb80002238df839314ca91648006829f018fc20
:101cc80040f6b8302df08efed0e601202ef016fa40
:101cd80058e702202ef012fa5ae703202ef00efae7
:101ce8005ce79df8c431fa2b7ef4edad1d4a12680d
:101cf800fef7f0bda6990120a199012002c4ec15b8
:101d08003898012005c4ec150080004198970120ff
:101d180000980120d097012078970120c1990120cf
:101d2800da9901205a8d0120d9990120ca990120f8
:101d3800e6990120e4960120b4990120f897012042
:101d48000c970120379a01208999012026950120b6
:101d58005c97012060970120a5990120a499012092
:081d6800a3990120009901205c
:020000040000fa
:101d70002de9f04fefb000246c946d946a94cdf887
:101d8000ab4168948df8a441adf89c41659466948c
:101d90006494619462948df88c415e945f94609435
:101da0005b945c945d94589459945a9451945294d1
:101db000539454945594569457944d944e944f94f0
:101dc000adf840414794489449944a944b94cdf8d7
:101dd0002f41449445944694902221460ea82ff01a
:101de00047fa0c940d94b34eb34fdff82c83dff811
:101df0002c93dff82cb3dff82ca329e2af4b186843
:101e00002af0fcfb0024ae4b1c70a9f80040abf894
:101e10000040ac4b1c8022466ca9ab4b186829f0e3
:101e20008bfc224668a9a94b186829f085fc22463c
:101e300067a9a74b186829f07ffc9df8b731012be3
:101e400040f0ce819df8a231002b40f0c9819df871
:101e5000a1316d2b26d89df8a131632b00f2c081f2
:101e60009c4d5e9540238df882319b4c002364226b
:101e70005ea9206829f040fb4ff47a702df0b6fd82
:101e80005e9500238df849318df8823164225ea978
:101e9000206829f031fb64202df0a8fd8f4b012232
:101ea0001a709de18e4b1c608e4b1c60894b5e93bb
:101eb00040238df88231884d234664225ea928682c
:101ec00029f01afb4ff47a702df090fd814b5e9350
:101ed0008df849418df88241234664225ea9286825
:101ee00029f00afb64202df081fd7c4b01221a7041
:101ef0000c2388f80030aee77b4b5b9300248df811
:101f00007041234664225ba97848006829f0f4fafe
:101f100064202df06bfd764b589301258df83a51d6
:101f20008df864518df83b418df865418df83c4149
:101f30008df866412346642258a96e48006829f04e
:101f4000dbfa64202df052fd624b5e938df8475111
:101f50008df87d51234664225ea95f48006829f010
:101f6000cbfa64202df042fd224667a9584b186831
:101f700029f0e2fb9df89c31ab4240f03181574b98
:101f800002221a702ce1534c5e9440238df882316a
:101f9000514d002364225ea9286829f0adfa4ff460
:101fa0007a702df023fd5e9400248df849418df860
:101fb0008241234664225ea9286829f09dfa6420a4
:101fc0002df014fd224668a9404b186829f0b4fb97
:101fd000002800f005819df8a131503bdbb21d2b9c
:101fe00025d99df8a1316d2b0dd9434b1b78002bc2
:101ff00000f09a80414b00221a700c2388f80030c0
:1020000001202df0fbff3e4b1b681e2b40f3e880a8
:102010003b4b00221a60384b1b7823b9394b4ff4e5
:102020008032c3f898202d4b00221a70d8e002208d
:102030002df0e4ff334b4ff48032c3f89420092392
:1020400088f800302d4b01221a70254b1b689342f3
:102050000ed02d4b1b78012b18d0214b1b6813b9c8
:102060001e4b03221a70264a136801331360b8e727
:1020700022468df81c40022307a92448006829f055
:102080003bfa234b18682af0b9fae2e71e4b5b785b
:10209000012be2d1114b03221a7000228df820206f
:1020a000022308a91b48006829f026fa0d4b0122db
:1020b0001a60d2e7b0990120b8980120a0970120ba
:1020c000cf9901208e93012040980120449801204f
:1020d0006898012002c0ec153898012081990120f0
:1020e000fc9801200499012001c0ec151c980120e6
:1020f00002d0ec150c980120a6990120a19901208d
:10210000e898012000800041909901203c9701202f
:1021100024970120489701206d960120969901206f
:102120009a990120ae990120ad4b4ff48032c3f84b
:1021300098204ff6ff702cf0b5fd0023a94a1360dc
:10214000a94a1360a94b1b78002b7ff453afa74b10
:1021500001221a70a64b18782bf03cfb4ae70024aa
:10216000a44b1c60a44b5b9308238df81d318df8a4
:102170007331234664225ba9a048006829f0bcf9aa
:102180004ff47a702df032fc9d4d5e958df84841ec
:102190008df880418df849418df882418df84a4192
:1021a0008df88341234664225ea99648006829f091
:1021b000a3f94ff47a702df019fc5e9502238df887
:1021c00047318df87d31234664225ea98d48006831
:1021d00029f092f964202df009fc8b4b04221a702f
:1021e00098f800308df82d30b9f80030adf82a306d
:1021f000bbf80030adf828309af800308df82e305a
:1022000033788df82c30022300220aa97f48006819
:1022100029f072f998f800308df82430022300225a
:1022200009a97b48006829f067f93b68012b0bd1ad
:1022300000233b60744a1370764b18682af0def96d
:10224000754b186829f01afd4ff4fa702df0cefb8b
:102250006d4b1b78dbb21e2bc2d801a252f823f0c3
:10226000fd1d0000f91e0000871f00005f21000017
:10227000dd220000e121000051230000e1210000e7
:10228000e1210000e1210000e1210000e121000046
:10229000e1210000e1210000e1210000e121000036
:1022a000c3240000e1210000f125000029280000de
:1022b00001290000e1210000852b0000e121000040
:1022c000e1210000e1210000e1210000e121000006
:1022d000e1210000e1210000ff340000002268a994
:1022e0004e4b186829f028fa002267a94c4b186851
:1022f00029f022fa9df8a231012b1fd09df89c31c4
:10230000fa2b02d0fc2b00d013b93f4b00221a70dd
:102310009df8a1316d2b7ff663af424b1b7823b93b
:102320002f4b4ff48032c3f8982000233e4a13709d
:102330000c2288f80020344a137051e79df8a1312f
:10234000503bdbb21d2bd9d82f4b06221a70d5e794
:102350000022264b1a7067a9314b186829f0ecf956
:102360009df89c31312b0ed91e4b1b68012b28d0b8
:10237000002b41f0038200226aa92c4b186829f037
:10238000dbf9002856d19df89c31fa2b02d0fc2baa
:1023900000d053b9134a1268012a19d02ab91a4a2f
:1023a000002111700f4a012111600a2b7ff418af30
:1023b0001f4b1b780133dbb2f02b72d01c4a137019
:1023c0000ee7114b10221a709df89c31fa2bded1ca
:1023d0000d4a00211170034a01211160e5e700bf99
:1023e00000800041fc98012004990120db99012024
:1023f000379a0120e898012001c0ec151c980120b3
:1024000002c0ec15389801208199012034970120f1
:10241000f496012068970120149801204498012027
:1024200068980120a6990120a199012050980120c7
:10243000e79901209df8a8318df814309df8a93155
:102440008df815309df8aa318df816309df8ab3116
:102450008df817309df8ac318df818309df8ad31fe
:102460008df819300223002205a95348006829f08d
:1024700043f89df81430002b85d001234f4a136098
:102480004f4a102111708df81c304e4b18682af0fd
:10249000b5f80223002207a94b48006829f02cf860
:1024a00071e70023494a1370454a1370484b40f2c4
:1024b00033121a80474b01221a7008202bf08af938
:1024c0008ee6424b00221a70434b1b6873bb434b92
:1024d0001b78012b2ed1414b5b78012b2ad114465e
:1024e0008df82020022308a93d48006829f004f84f
:1024f0003c4b5e9301238df849318df882312346a0
:1025000064225ea93848006828f0f6ff64202df0a8
:102510006dfa4ff47a7267a9344b186829f00cf9f8
:10252000274b12221a7005202bf054f92a4b1b68f6
:10253000012b21d0002267a92c4b186829f0fcf848
:102540009df89c31fa2b04d0fc2b02d0002b7ff499
:1025500047ae1b4b00221a700123184a13601c4a15
:102560004ff49a7111801b4a137006202df0b4fdb0
:1025700008202bf02ff933e61a4b5e9301238df8d8
:1025800049318df88231002364225ea91648006823
:1025900028f0b2ff64202df029fa4ff47a7267a96f
:1025a000124b186829f0c8f8054b12221a70052042
:1025b0002bf010f9bee700bf40970120fc980120e6
:1025c00081990120249701203c970120e79901205f
:1025d00066960120b5990120049901209099012067
:1025e0004897012002c0ec15389801206898012016
:1025f000ad4b4ff40012c3f8182100234493ab4baa
:10260000459301248df818418df819410023642267
:1026100044a9a748006828f06fffa64b186829f066
:10262000edffa54b1c60002265a9a44b186829f09a
:1026300083f8002800f0d3809df894319df895210f
:1026400002eb03229e4981fb0232931007ee903a7f
:10265000f8eee77a9df896219df8973103eb022377
:1026600081fb03239b1007ee103ab8eec77abdee4c
:10267000c77a17ee103a934a92fbf3f303eb830306
:10268000a34007ee103ab8eec77a8f4b83ed007a7d
:10269000b2ee047a67ee877a93ed007af4eec77aa9
:1026a000f1ee10fa48bfc3ed007a884b5e93002428
:1026b0008df88241234664225ea98548006828f08f
:1026c0001bff64202df092f9824b5b937e4ad2ed82
:1026d000007afceee77a17ee903a8df87031d2ed81
:1026e000007afceee77a17ee903ac3f307238df8f1
:1026f0007131e0238df872312e238df87331102360
:102700008df8743127238df8753114258df87651a5
:102710008df87741234664225ba96f48006828f052
:10272000ebfe4ff4fa702df061f98df870518df8d1
:102730007141c8238df872318df873418df8745151
:102740008df8754164258df876518df87741634b8e
:102750005b9323462a465ba95f48006828f0ccfebd
:102760004ff4fa702df042f902238df849318df8bb
:10277000823103f1af5303f54c235e9323462a467f
:102780005ea95348006828f0b7fe4ff4fa702df0a8
:102790002df907202bf01ef8224667a9504b186828
:1027a00028f0caff9df89c315b3bdbb2092b2ed988
:1027b0009df89c31fa2b02d0fc2b00d07bb9494b01
:1027c00000221a70484b40f235121a80474b012202
:1027d0001a7008202df080fc08202af0fbff00244e
:1027e0000594adf818408df81c400223224607a935
:1027f0003f48006828f080fe0223224605a93d4894
:10280000006828f079fe3c4b1c809c70e8e4354b56
:1028100013221a704ff47a702df0e8f8224b4ff41f
:102820000022c3f81421c3e7002268a9334b1868bb
:1028300028f082ff9df8a131312b1ed91a4bd3f815
:10284000a03013f4000f1dd101238df848318df80d
:1028500080310c238df849318df882311b4b5e930a
:10286000002364225ea91a48006828f045fe64200f
:102870002df0bcf81b4b14221a704ff47a702df017
:10288000b5f8ade4174b00221a70174b40f2351221
:102890001a80164b01221a7007202df01dfc08200b
:1028a0002af098ffe9e700bf00800041000048439c
:1028b000d0970120d4970120049901205898012035
:1028c00067666666c0d40100a897012002c0ec15b7
:1028d0003898012003c0ec151c98012004c0ec15a9
:1028e000689801208199012066960120b599012000
:1028f0003c970120409701209099012044980120a5
:10290000002264a9854b186828f016ff9df89031c5
:102910009df8912102eb0322814981fb0232921042
:1029200007ee902af8eee77a7e4bc3ed007a9df829
:1029300092219df8933103eb022381fb03239b102b
:1029400007ee103ab8eec77a774b83ed007a4ff076
:1029500080434493cded457a01238df818318df8ed
:1029600019310023642244a97048006828f0c4fd8e
:102970006f4b186829f042fe9df891318df87c313b
:102980009df890318df87d319df893318df87e3131
:102990009df892318df87f31664b5e93002364225f
:1029a0005ea96548006828f0a7fd0a202df01ef8f2
:1029b00009202af00fff002267a9604b186828f051
:1029c000bbfe00283ff40cac9df89c31782b1ad04c
:1029d0009df89c31fa2b04d0fc2b02d0002b7ff405
:1029e000ffab574b1e221a70564b4ff49b721a8046
:1029f000554b01221a7008202df06efb08202af09a
:102a0000e9fefff7edbb514b1d682ef079fc4ef649
:102a10006024009400230246012128462bf008fd83
:102a20004b4b1d682ef06cfc0094002302460121e4
:102a300028462bf0fdfc474b1d682ef061fc0094ee
:102a400000230246012128462bf0f2fc424b1d6870
:102a50002ef056fc009400230246012128462bf05c
:102a6000e7fc3e4b1d682ef04bfc00940023024611
:102a7000012128462bf0dcfc394b1d682ef040fc70
:102a8000009400230246012128462bf0d1fc2c4b58
:102a900016221a70334b18782cf04efb64202cf061
:102aa000a5ff314c20782cf063fb64202cf09effb6
:102ab0002e4d28882cf078fb64202cf097ff2c49b1
:102ac00008782cf0a9fb64202cf090ff29480078ae
:102ad0002cf086fb64202cf089ff274a10782cf01c
:102ae000b7fb64202cf082ff244b1a68244b1a6039
:102af000298823781b4a12781b0243ea01431343b7
:102b000035931c4801781a4b1b781b4a12781b021c
:102b100043ea0143134336935ae700bf609801200c
:102b20006766666660990120c8980120d0970120e9
:102b3000d497012005c0ec15389801206898012031
:102b40008199012066960120b59901207497012092
:102b5000b098012030990120349901203899012042
:102b60003c990120c1990120da9901205a8d012058
:102b7000d9990120ca990120e69901209497012052
:102b8000f4970120002204a9c04b186828f0d4fd56
:102b900028b1bf4a9df8103011880b44138047f2ca
:102ba00030502cf07ff803202df028fab84b18880d
:102bb0002cf01afab74b1b78072b00f0a7810022e4
:102bc00064a9b54b186828f0b7fd002800f0d5803f
:102bd0009df892319df8932102eb0322af4981fbce
:102be0000232930807ee103ab8ee477aac4b83ed09
:102bf000007a9df890219df8913103eb022381fb2f
:102c000003239b0807ee903af8ee677aa54bc3edd5
:102c1000007a67ee276aa44bc3ed006aa34b1b78ca
:102c2000002b40f08880a24b1a68a24b1a6093edeb
:102c3000006af4eec66af1ee10fa35d59e4b1b78a9
:102c400033bbdfed9e6a77eea67acded457a994be0
:102c500093ed006a9a4bd3ed006ac6ee267ab4ee85
:102c6000e77af1ee10fac0f25681b5ee007a67ee1f
:102c7000877acded447a03238df8193101238df83d
:102c800018310223002244a98e48006828f034fc41
:102c9000894b1b78dbb2012b00f04a81864b1b78f5
:102ca000dbb2012b00f08b81824bd3ed007a7e4b9f
:102cb00093ed007ab4eee77af1ee10fa3bdd7e4b4d
:102cc0001b7863bb774bd3ed007a9fed7c7a77ee70
:102cd000877acded457a774bd3ed006a784b93ed4b
:102ce000007ac6ee877a6e4b93ed007af4eec77adf
:102cf000f1ee10fa00f2a281b5ee007a67ee877a63
:102d0000cded447a03238df8193101238df8183164
:102d10000223002244a96b48006828f0edfb664bb3
:102d20001b78dbb2012b00f09681634b1b78dbb282
:102d3000012b00f0d7815d4b1b78dbb2012b00f03b
:102d40002582614802789100604b0b445c4c2468fa
:102d50001c605f4b19449df892419df8933103eb41
:102d600004234e4c84fb03439b0807ee903af8ee95
:102d7000677ac1ed007a0132027064202cf036fed1
:102d80009df891318df87c319df890318df87d3131
:102d90009df893318df87e319df892318df87f3119
:102da0004c4b5e93002364225ea94b48006828f0d8
:102db000a3fb64202cf01afe002261a9474b18687f
:102dc00028f0bafca0b1464a13789df8860145491f
:102dd000c854062188f80010013313702d4b1b785e
:102de000042b40f2a6822b4b1b78052b00f0ac8203
:102df000354b1b78052b00f0af82394b1b78052b28
:102e000000f00283384b1b78dbb2012b00f01a83f1
:102e1000354b1b78dbb2012b00f023839df89c31ee
:102e2000292b03d0fa2b01d0fc2b12d12f4b1e22c1
:102e30001a70092388f800302d4bca221a802d4bb6
:102e400001221a700a202df047f92b4b1a682b4be0
:102e50001a609df88431012b00f03e83284b1b78cb
:102e6000012b7ff4bda9264b9b78012b7ff4b8a9d9
:102e70001e4b1e221a70092388f80030204b0022b6
:102e80001a809a701c4b1a683ce000bf64970120be
:102e90008e930120cf9901206098012067666666b5
:102ea000c89801206099012028990120ac9901203f
:102eb000249a0120c4970120a69901200000000057
:102ec000289a0120d0970120d499012098940120bc
:102ed0007094012005c0ec15389801205c98012001
:102ee000cc99012060960120a199012081990120af
:102ef00066960120b599012094970120fc97012046
:102f000090990120974b1a60fff76ab9964b187891
:102f10002cf072ff53e6b4eee77af1ee10fa7ff58b
:102f2000aaaef5ee007a27ee277a8ded447aa2e676
:102f30008e4b1b78dbb2112b7ff6b0ae8c4b4ff46f
:102f40000012c3f818218b4bd3ed007a9fed8a7adb
:102f500077ee877acded457a884bd3ed007ab6eee1
:102f6000007a67ee877a864bd3ed006a87eea67a01
:102f7000844bd3ed007ab4eee77af1ee10fa12d872
:102f8000f6ee007a27ee277a8ded447a01238df84c
:102f900019318df818310223002244a97a480068bb
:102fa00028f0aafa80e6b4eee77af1ee10faeddd49
:102fb000b6ee007a67ee877acded447ae6e76b4ba2
:102fc0001b78dbb2112b3ff66fae6a4bd3ed007a64
:102fd0009fed697a77ee877acded457a674bd3ed31
:102fe000006a674bd3ed007a86eea77a654bd3ed86
:102ff000007ab4eee77af1ee10fa13d8f5ee007a23
:1030000027ee277a8ded447a03238df819310123b9
:103010008df818310223002244a95b48006828f08b
:103020006bfa41e6b4eee77af1ee10faecddb5eebc
:10303000007a67ee877acded447ae5e7f4eec77a59
:10304000f1ee10fa7ff75eaef5ee007a27ee277a02
:103050008ded447a56e6454b1b78dbb2112b7ff69b
:1030600064ae434b4ff40012c3f81821414bd3ed2b
:10307000007a9fed417a77ee877acded457a3f4b26
:10308000d3ed007ab6ee007a67ee877a3c4bd3ed4b
:10309000006a87eea67a3b4bd3ed007ab4eee77a6e
:1030a000f1ee10fa12d8f6ee007a27ee277a8dedbf
:1030b000447a01238df819318df81831022300224a
:1030c00044a93148006828f017fa34e6b4eee77aec
:1030d000f1ee10faedddb6ee007a67ee877acded0f
:1030e000447ae6e7214b1b78dbb2112b3ff623ae87
:1030f000204bd3ed007a9fed207a77ee877acdede5
:10310000457a1e4bd3ed006a1d4bd3ed007a86ee57
:10311000a77a1c4bd3ed007ab4eee77af1ee10fa01
:1031200013d8f5ee007a27ee277a8ded447a032343
:103130008df8193101238df818310223002244a99a
:103140001148006828f0d8f9f5e5b4eee77af1ee19
:1031500010faecddb5ee007a67ee877acded447ab1
:10316000e5e700bffc970120939901208599012094
:10317000008000416099012000000000c4970120f8
:10318000289a0120c8980120d0970120c04b1b78b5
:103190005bbbc04bd3ed007a9fedbf7a77ee877aa9
:1031a000cded457abd4bd3ed006abd4b93ed007a72
:1031b000c6ee877abb4b93ed007af4eec77af1ee58
:1031c00010fa50d8b5ee007a67ee877acded447ae2
:1031d00003238df8193101238df8183102230022c1
:1031e00044a9b148006828f087f9a94b1b78dbb2e5
:1031f000012b44d0a64b1b78dbb2012b7ff4a1ad91
:10320000aa4b1b78dbb2112b3ff69bada14bd3ed44
:10321000007a9feda17a77ee877acded457a9f4bc4
:10322000d3ed006a9e4bd3ed007a86eea77a9d4bd4
:10323000d3ed007ab4eee77af1ee10fa6dd8f5ee40
:10324000007a27ee277a8ded447a03238df8193121
:1032500001238df818310223002244a99248006806
:1032600028f04af96de5f4eec77af1ee10faafdd19
:10327000f5ee007a27ee277a8ded447aa8e78b4b9e
:103280001b78dbb2112bb5d9894b4ff40012c3f870
:103290001821824b93ed007adfed867ab4eee77a5f
:1032a000f1ee10fac8bfc3ed007a7a4bd3ed007a85
:1032b0009fed797a77ee877acded457a774bd3ed2e
:1032c000006a774bd3ed007a86eea77a754bd3ed83
:1032d000007ab4eee77af1ee10fa12d8f6ee007a40
:1032e00027ee277a8ded447a01238df819318df878
:1032f00018310223002244a96b48006828f0fcf82a
:103300001fe5b4eee77af1ee10faedddb6ee007ae5
:1033100067ee877acded447ae6e7b4eee77af1ee30
:1033200010fa92ddb5ee007a67ee877acded447a39
:103330008be72cf061fd604a1378013313709df820
:1033400086215e4b1a704ee59df886318af8003072
:10335000594b07221a704be54ff0000c584b83f87d
:1033600000c0b9f80010bbf80000564b564a03f1f4
:10337000140ecdf80cc01d461446029101e07345b1
:1033800025d0f3ec017a95ed007ab4eee77af1ee10
:1033900010fa09d8c5ed007afceee77a17ee901a1c
:1033a00089b202914ff0010cf2ec017a94ed007aaf
:1033b000b4eee77af1ee10fae1d8c4ed007afcee53
:1033c000e77a17ee901a88b201210391d7e70299a4
:1033d000bcf1000f01d0a9f80010039b0bb1abf8b2
:1033e0000000384bd3ed007afceee77a17ee900a36
:1033f0002bf032fe344bd3ed007afceee77a17ee79
:10340000900a2bf00dfef8e40024304b1c7096f867
:1034100000c02f4b5d1d18464ff0010e01e09d428c
:1034200008d013f8012b01789142f8d80270944625
:103430007446f4e70cb186f800c0254b18782cf0e0
:10344000c3fcdfe4124b1b78002b7ff4e1ac0022bd
:103450008df82020022308a91e48006828f04cf8a7
:10346000d6e40b4b1b78dbb2012b7ff4d7ac0f4bb0
:103470001b78dbb2132b7ff6d1ac00228df8202015
:10348000022308a91348006828f036f8c6e400bff4
:10349000a69901206099012000000000c897012032
:1034a000289a0120c8980120d097012085990120f1
:1034b0000080004100606a47cf9901209399012064
:1034c000d49901207094012098940120cc99012076
:1034d0006096012048970120ad4b1e221a700920ea
:1034e00088f80000ab4bc9221a80ab4b01221a703e
:1034f0002cf0f2fda94b1a68a94b1a60aee4a94b57
:103500001b78dbb2012b00f00181a64b1b78dbb2ec
:10351000012b00f011814ff003038df847318df836
:103520007d31a14b5e93a14d002364225ea92868e2
:1035300027f0e2ff32202cf059fa00248df87c416c
:103540008df87d419a4a5e92234664225ea92868de
:1035500027f0d2ff32202cf049fa96494ff4002090
:10356000c1f818018d4b1b688d4803608d4b1c7092
:103570008df8184101238df819310223224644a900
:103580008d48006827f0b8ff40f6b8302cf02eface
:103590004ff0030c8df87dc1834b5e93234664226c
:1035a0000df5bc7c6146286827f0a6ff32202cf080
:1035b0001dfa8df87c418df87d417d4a5e9223464f
:1035c00064220df5bc7c6146286827f095ff322007
:1035d0002cf00cfa77494ff40023c1f818310a2374
:1035e0000093234622460321744800682af020fff6
:1035f000734b18782bf048fe724b18782bf060fe56
:10360000714b18882bf078fe704b18782bf0acfebd
:103610006f4b18782bf08cfe6e4b18782bf0c0fe99
:103620006d4b18682bf0f4fe5d48d0ed007afcee8f
:10363000e77a6a4b93ed007abceec77a17ee100a70
:1036400017ee903a181a664b18602bf0c5fe654bc2
:103650001b78dbb2012b00f08580624b1b78dbb25c
:10366000022b00f083805f4b1b78dbb2032b00f052
:1036700081805d4b0c221a7005202cf0bffc564b4c
:103680001b683493504b19884e4b1b784c4a127868
:103690001b0243ea0143134337934d4b19784b4bbd
:1036a0001b784c4a12781b0243ea014313433893b8
:1036b0004e4b1a78337843ea02433993484b1b68e0
:1036c00043f480333a93474b1a78494c238843eab2
:1036d00002433b9302238df8c8300023642232a9b1
:1036e0004448006827f008ff434b186828f086ff1d
:1036f00001233b6000222280404a1370404a13702d
:10370000404a1370404a1370fef76abd3f4b1b7866
:10371000002b7ff4faae00228df8182103238df8d8
:103720001931022344a92448006827f0e5fe40f639
:10373000b8302cf05bf9e8e6344b1b78dbb2012b98
:103740007ff4e9ae00228df818218df8193102239b
:1037500044a91948006827f0cffe40f6b8302cf095
:1037600045f9d8e601202cf0b7fc76e702202cf0d2
:10377000b3fc78e703202cf0affc7ae79df89c318e
:10378000fa2b7ef404ae224a1268fef707be00bf91
:103790008199012066960120b59901209497012016
:1037a000fc970120a199012002c0ec153898012056
:1037b00005c0ec1500800041d097012074970120ce
:1037c000c1990120da9901205a8d0120d99901204f
:1037d000ca990120e6990120e0960120f497012082
:1037e00008970120b4990120379a0120939901206c
:1037f0008e9301205c97012060970120959901200c
:10380000a09901209f9901209e990120a69901204d
:04381000fc980120ff
:020000040000fa
:10381400909301201c000000000000002895012066
:103824000800000000000000ac9301201c00000010
:1038340000000000c09401201000000000000000ff
:10384400309501201800000000000000c8930120fa
:103854001c00000000000000d094012010000000b3
:103864000000000048950120100000000000000046
:10387400f08b0120c0000000000000008a990120a4
:103884000200000000000000cc9201202c00000087
:1038940000000000dc910120f000000000000000a6
:1038a4000c9a01200400000001000000aaaaaaaaa0
:1038b4007096012004000000000000009001002028
:1038c400608a0100000000007496012010000000ce
:1038d40000000000589501200800000000000000ce
:1038e400849601200800000000000000e4930120f9
:1038f40028000000000000008c9601201800000041
:1039040000000000dc8f01206400000000000000c3
:10391400a496012014000000000000000c94012073
:103924002800000000000000b896012010000000ec
:103934000000000034940120140000000000000086
:10394400c8960120040000000000000048940120f3
:103954002800000000000000cc96012008000000b0
:1039640000000000109a0120040000000100000083
:10397400040000000000002090010000000000008e
:10398400d496012014000000000000009390012050
:1039940001000000000000007f99012001000000e8
:1039a40000000000e8960120040000000000000070
:1039b4008f9901200100000000000000ec96012016
:1039c40004000000000000006596012001000000d2
:1039d40000000000f09601200c0000000000000030
:1039e4006d9601200100000000000000799901207b
:1039f4000100000000000000819901200100000086
:103a04000000000085990120010000000000000072
:103a1400fc9601201400000000000000969901208b
:103a24000200000000000000709401201400000057
:103a3400000000009899012002000000000000002e
:103a44008494012014000000000000009a990120d1
:103a540002000000000000009894012014000000ff
:103a6400000000009c9901200200000000000000fa
:103a7400ac94012014000000000000001097012005
:103a84000400000000000000289101204000000014
:103a940000000000f8920120500000000000000027
:103aa400088e0120a40000000000000014970120eb
:103ab40008000000000000009499012001000000ab
:103ac400000000001c9701203800000000000000e6
:103ad400068e01200200000000000000a6910120d3
:103ae4000200000000000000da9101200200000042
:103af4000000000093990120010000000000000074
:103b04008999012001000000000000005497012061
:103b14001000000000000000959901200100000041
:103b2400000000009e990120030000000000000036
:103b34008e93012002000000000000006497012021
:103b44000400000000000000a19901200100000011
:103b5400000000006897012004000000000000003d
:103b6400a299012004000000000000002695012015
:103b740002000000000000006c9701200400000017
:103b840000000000a69901200100000000000000d0
:103b9400709701200400000000000000a799012094
:103ba4000100000000000000a899012001000000ad
:103bb40000000000749701203000000000000000a5
:103bc400a99901200300000000000000a49701202f
:103bd4000c00000000000000409001205300000091
:103be40000000000b09701202c000000000000003d
:103bf400a89101203200000000000000dc970120a1
:103c04001400000000000000ac9901200200000034
:103c140000000000f09701200400000000000000f4
:103c2400ae9901200300000000000000609601200e
:103c34000500000000000000b1990120010000000f
:103c4400000000006896012005000000000000004c
:103c5400f49701200800000000000000b299012040
:103c64000200000000000000909901200300000001
:103c7400000000008c9901200300000000000000f7
:103c8400fc9701200800000000000000b499012006
:103c940001000000000000001c9501200a00000043
:103ca40000000000669601200200000000000000f1
:103cb400b5990120010000000000000004980120d3
:103cc4000400000000000000b6990120010000007b
:103cd400000000006e9601200200000000000000b9
:103ce4007a9901200200000000000000829901205e
:103cf4000200000000000000609501206800000040
:103d040000000000089801202000000000000000ce
:103d1400c8950120680000000000000028980120d8
:103d240080000000000000003096012030000000f8
:103d340000000000b799012001000000000000000d
:103d4400a89801200400000000000000b899012098
:103d54000200000000000000ac98012004000000f4
:103d640000000000ba9901200100000000000000da
:103d7400b0980120040000000000000068910120b8
:103d84003e000000000000008699012002000000af
:103d940000000000bb9901200100000000000000a9
:103da400b49801200400000000000000bc99012028
:103db4000300000000000000b89801200800000083
:103dc40000000000bf990120020000000000000074
:103dd400c09801201000000000000000c1990120db
:103de4000200000000000000d09801200400000040
:103df40000000000c3990120010000000000000041
:103e0400d49801200800000000000000b08c0120bc
:103e1400aa00000000000000dc980120040000005b
:103e240000000000c499012003000000000000000d
:103e3400889901200100000000000000c7990120ba
:103e44000100000000000000e098012004000000d0
:103e540000000000e4900120440000000000000085
:103e6400e49801200c00000000000000c899012023
:103e740002000000000000008499012001000000fd
:103e840000000000809901200100000000000000f3
:103e9400f09801200800000000000000ca990120e9
:103ea4000500000000000000f89801200400000054
:103eb40000000000cf990120050000000000000070
:103ec400fc9801201000000000000000d49901209b
:103ed40002000000000000000c9901200400000012
:103ee40000000000d699012003000000000000003b
:103ef4001099012008000000000000005c8d0120e2
:103f0400aa0000000000000018990120040000002d
:103f140000000000d9990120010000000000000009
:103f24001c9901200400000000000000da9901201f
:103f340001000000000000007c9901200300000043
:103f440000000000db9901200400000000000000d4
:103f5400209901200400000000000000df990120e6
:103f64000200000000000000249901200c00000061
:103f740000000000e19901200200000000000000a0
:103f8400309901200400000000000000e3990120a2
:103f9400010000000000000034990120040000002a
:103fa40000000000e499012001000000000000006e
:103fb400389901200400000000000000e599012068
:103fc40001000000000000003c99012004000000f2
:103fd40000000000789901200100000000000000aa
:103fe400409901200c000000000000004c990120c1
:103ff4000800000000000000ac8e0120a0000000ba
:1040040000000000e0940120100000000000000007
:10401400e699012001000000000000001095012035
:104024000c0000000000000054990120040000006e
:1040340000000000e79901200200000000000000d9
:10404400589901200400000000000000f0940120b1
:1040540010000000000000004c8f012090000000c0
:10406400000000005c9901200c000000000000002a
:104074005a8d012002000000000000000a9a01206d
:10408400020000000100000004010000ea99012080
:104094002000000001000000b4005aa51b82524019
:1040a40068747470733a2f2f7777772e73746174f2
:1040b40069712e696e2fffffe9990120010000004c
:1040c400010000000c000000369a012005000000e9
:1040d400010000000c030f5014000000149a01208a
:1040e40004000000010000000000803f3b9a012012
:1040f400020000000100000001010000189a0120e4
:104104000400000001000000cdcccc3f1c9a01202b
:104114000c0000000100000000000040000000400e
:104124000060ea47349a0120020000000100000008
:10413400af4a0000289a0120080000000100000096
:104144000000484300004843309a01200400000066
:1041540001000000000048436899012004000000a9
:104164000000000000950120100000000000000085
:104174004893012046000000000000006c990120d3
:104184000400000000000000949001205000000092
:1041940000000000709901200800000000000000e9
:1041a40000000000000000006666666666666666db
:1041b400666666666666666666666666666666669b
:020000040000fa
:104ed4002de9f04f87b09a4c00230193994f9a4bd8
:104ee40003f13c050123009300f0fabf974b1a68c5
:104ef40095490a601b68cbb1954b1b785bb122685e
:104f0400924b53f82230002b40f0a380904b4ff08b
:104f140000021a709de08e4b4ff001021a708b4b09
:104f24001b6833804ff47a602af05efd2268874b59
:104f340053f82230002b40f08c80854b1b78002bdb
:104f440000f08780e2e7814b5a687f494a605b68da
:104f5400c3b17f4b5b7853b122687c4b53f822304a
:104f6400002b76d17a4b4ff000025a7071e0784be7
:104f74004ff001025a70754b5b6833804ff47a60ce
:104f84002af032fd2268714b53f82230002b60d195
:104f94006f4b5b78002b5cd0e4e76c4b9a686a49f2
:104fa4008a609b68c3b16a4b9b7853b12268674b94
:104fb40053f82230002b4cd1654b4ff000029a700d
:104fc40047e0634b4ff001029a70604b9b6833805b
:104fd4004ff47a602af008fd22685c4b53f82230c3
:104fe400002b36d15a4b9b78002b32d0e4e7574b39
:104ff400da685549ca60db68bbb1554bdb784bb105
:105004002268524b53f822301bbb514b4ff0000225
:10501400da701ee04e4b4ff00102da704b4bdb6846
:1050240033804ff47a602af0dffc2268474b53f850
:10503400223073b9464bdb785bb1e6e7434bd3f8d8
:105044008430012b66d0414bd3f88430022b00f01e
:10505400a0803388adf80c30b8f80030adf80e30cd
:10506400b9f80030adf81030baf80030adf81230ad
:105074003b88adf81430bbf80030adf8163002238d
:10508400002203a93348006826f034fa2368013368
:1050940023601f2b00f355861b2bdad801a252f88c
:1050a40023f000bff14e00004b4f00009f4f000063
:1050b400f34f00004150000057500000015200001f
:1050c4005b520000b55200000f530000695300000a
:1050d400d55300002f5400008b540000575000009b
:1050e400e5540000c7550000bd5600009f5700005e
:1050f4006d5800004f5900001f5a0000ef5a00007d
:10510400575000004d5b0000335c00008f5c0000d2
:10511400eb5c00000d4b19690f4a11601b6953b316
:105124000b4b93f82c30cbb12268084b53f8223048
:10513400002b88d1064b4ff0000283f82c2082e725
:10514400f89801207a99012028910120088e0120e5
:10515400689101202c970120f8920120984b4ff080
:10516400010283f82c20974b1b69a8f800304ff4f8
:105174007a602af039fc2268924b53f82230002bd3
:105184007ff461af8e4b93f82c30002b3ff45baf70
:10519400d0e723688b4a52f823008b49086052f801
:1051a4002320eab1864a92f82d205ab1854a52f852
:1051b4002330002b7ff44daf814b4ff0000283f876
:1051c4002d2046e77e4a4ff0010182f82d107d4ada
:1051d40052f82330a9f800304ff47a602af004fc26
:1051e4002268784b53f82230002b7ff432af744b93
:1051f40093f82d30002b3ff42cafdde7714b9a6907
:1052040072490a619b69cbb16d4b9b795bb1226892
:105214006c4b53f82230002b7ff41baf684b4ff0dc
:1052240000029a7115e7664b4ff001029a71654bc3
:105234009b6933804ff47a602af0d6fb2268614b75
:1052440053f82230002b7ff404af5d4b9b79002b85
:105254003ff4ffaee2e75b4bda695c494a61db6924
:10526400cbb1574bdb795bb12268564b53f82230f4
:10527400002b7ff4eeae524b4ff00002da71e8e6f9
:105284004f4b4ff00102da714e4bdb6933804ff420
:105294007a602af0a9fb22684a4b53f82230002b8b
:1052a4007ff4d7ae464bdb79002b3ff4d2aee2e776
:1052b400444b1a6a45498a611b6acbb1404b1b7a3d
:1052c4005bb122683f4b53f82230002b7ff4c1ae10
:1052d4003b4b4ff000021a72bbe6394b4ff0010210
:1052e4001a72384b1b6a33804ff47a602af07cfbc5
:1052f4002268344b53f82230002b7ff4aaae304b93
:105304001b7a002b3ff4a5aee2e72e4b5a6a2f49d5
:10531400ca615b6acbb12a4b5b7a5bb12268294bc9
:1053240053f82230002b7ff494ae254b4ff000024b
:105334005a728ee6234b5b6a3380214b4ff0010295
:105344005a724ff47a602af04ffb22681d4b53f8cf
:105354002230002b7ff47dae194b5b7a002b3ff497
:1053640078aee2e7174b9a6a18490a629b6acbb196
:10537400134b9b7a5bb12268124b53f82230002bfb
:105384007ff467ae0e4b4ff000029a7261e60c4b4d
:105394004ff001029a720b4b9b6a33804ff47a6090
:1053a4002af022fb2268074b53f82230002b7ff4ab
:1053b40050ae034b9b7a002b3ff44baee2e700bfa9
:1053c40068910120088e012020930120289101205a
:1053d4009a4bda6a9a494a62db6acbb1994bdb7a17
:1053e4005bb12268954b53f82230002b7ff431ae29
:1053f400944b4ff00002da722be6924b4ff001020d
:10540400da728e4bdb6a33804ff47a602af0ecfa5e
:1054140022688a4b53f82230002b7ff41aae894b52
:10542400db7a002b3ff415aee2e7844b1a6b844918
:105434008a621b6bd3b1834b1b7b5bb122687f4bae
:1054440053f82230002b7ff404ae7e4b4ff0000261
:105454001a73fee57b4b4ff001021a73774b1b6bfb
:10546400aaf800304ff47a602af0befa2268734b2f
:1054740053f82230002b7ff4ecad724b1b7b002bd6
:105484003ff4e7ade1e76d4b5a6b6d49ca625b6b64
:10549400cbb16c4b5b7b5bb12268684b53f8223019
:1054a400002b7ff4d6ad674b4ff000025a73d0e562
:1054b400644b4ff001025a73604b5b6b33804ff4c3
:1054c4007a602af091fa22685c4b53f82230002b60
:1054d4007ff4bfad5b4b5b7b002b3ff4baade2e7df
:1054e400564bd3f88830012b20d0544bd3f8883056
:1054f400022b7ff4aead2368504a52f82300524980
:10550400886052f82320002a4dd04e4a92f82f206a
:10551400002a3ad0494a52f82330002b7ff499ad3f
:10552400484b4ff0000283f82f2092e5434bd96b90
:10553400464a9160db6be3b1424b93f82e305bb18a
:1055440022683e4b53f82230002bced13d4b4ff016
:10555400000283f82e20c8e73a4b4ff0010283f88b
:105564002e20364bdb6ba8f800304ff47a602af01b
:105574003bfa2268314b53f82230002bb5d1314b22
:1055840093f82e30002bb0d0e0e72e4a4ff0010103
:1055940082f82f10294a52f82330a9f800304ff42a
:1055a4007a602af021fa2268244b53f82230002b27
:1055b4007ff44fad234b93f82f30002b3ff449adcc
:1055c400aee71e4bd3f8a430012b20d01b4bd3f8ed
:1055d400a430022b7ff43dad2368184a52f823000f
:1055e4001949c86052f82320002a57d0154a92f866
:1055f4003120002a44d0114a52f82330002b7ff482
:1056040028ad104b4ff0000283f8312021e50b4bfd
:10561400196c0e4ad1601b6c33b30a4b93f83030cb
:10562400b3b12268054b53f82230002bced1054b81
:105634004ff0000283f83020c8e700bf088e012035
:10564400289101206891012020930120f8920120e3
:10565400a44b4ff0010283f83020a34b1b6c3b801a
:105664004ff47a602af0c0f922689f4b53f8223035
:10567400002babd19b4b93f83030002ba6d0d6e750
:10568400984a4ff0010182f83110974a52f82330ba
:10569400abf800304ff47a602af0a6f92268924bf6
:1056a40053f82230002b7ff4d4ac8e4b93f8313076
:1056b400002b3ff4ceaca4e78b4bd3f89c30012bea
:1056c40020d0894bd3f89c30022b7ff4c2ac2368e2
:1056d400854a52f823008549086152f82320002a9c
:1056e4004dd0804a92f83320002a3ad07e4a52f8ac
:1056f4002330002b7ff4adac7a4b4ff0000283f8db
:105704003320a6e4784b596c794a11615b6ce3b1a0
:10571400744b93f832305bb12268734b53f82230e8
:10572400002bced16f4b4ff0000283f83220c8e734
:105734006c4b4ff0010283f832206b4b5b6ca8f882
:1057440000304ff47a602af04ff92268664b53f820
:105754002230002bb5d1634b93f83230002bb0d0fc
:10576400e0e7604a4ff0010182f833105e4a52f8d4
:105774002330a9f800304ff47a602af035f9226812
:10578400594b53f82230002b7ff463ac554b93f8fc
:105794003330002b3ff45dacaee7534bd3f89c3071
:1057a400012b20d0504bd3f89c30022b7ff451ac0a
:1057b40023684d4a52f823004c49486152f823208b
:1057c400002a43d0474a92f83520002a35d0464a69
:1057d40052f82330002b7ff43cac424b4ff00002d4
:1057e40083f8352035e4404b996c414a51619b6cf8
:1057f400bbb13c4b93f834305bb122683a4b53f85d
:105804002230002bced1374b4ff0000283f83420e6
:10581400c8e7354b9b6ca8f800304ff47a602af047
:10582400e3f82268304b53f82230002bbad12d4bc9
:1058340093f83430002bb5d0e5e72b4a52f82330e7
:10584400a9f800304ff47a602af0cef82268264b8b
:1058540053f82230002b7ff4fcab224b93f8353005
:10586400002b3ff4f6abb8e71f4bd3f89030012b75
:1058740021d01d4bd3f89030022b7ff4eaab236880
:10588400194a52f823001949886152f82320002a42
:105894004dd0144a92f83720002a3fd0124a52f8c9
:1058a4002330002b7ff4d5ab0e4b4ff0000283f86e
:1058b4003720fff7cebb0c4bd96c0d4a9161db6ce2
:1058c40003b3084b93f83630a3b12268064b53f860
:1058d4002230002bcdd1034b4ff0000283f8362049
:1058e400c7e700bf68910120088e012020930120a2
:1058f400f8920120a84bdb6ca8f800304ff47a60d2
:105904002af072f82268a44b53f82230002bb0d14d
:10591400a24b93f83630002babd0dce79e4a52f80a
:105924002330a9f800304ff47a602af05df8226839
:10593400994b53f82230002b7ff48bab974b93f8a1
:105944003730002b3ff485abaee7934bd3f894305c
:10595400012b21d0904bd3f89430022b7ff479abf8
:1059640023688d4a52f823008d49c86152f82320d8
:10597400002a44d0894a92f83920002a36d0864a2f
:1059840052f82330002b7ff464ab844b4ff00002b9
:1059940083f83920fff75dbb7f4b196d814ad161d4
:1059a4001b6dbbb17d4b93f838305bb122687a4be9
:1059b40053f82230002bcdd1784b4ff0000283f8fe
:1059c4003820c7e7744b1b6da8f800304ff47a6099
:1059d4002af00af82268704b53f82230002bb9d110
:1059e4006e4b93f83830002bb4d0e5e76a4a52f88e
:1059f4002330a9f800304ff47a6029f0f5ff2268cb
:105a0400654b53f82230002b7ff423ab634b93f8a0
:105a14003930002b3ff41dabb7e75f4bd3f8983018
:105a2400012b21d05c4bd3f89830022b7ff411abbf
:105a34002368594a52f823005949086252f823202e
:105a4400002a44d0554a92f83b20002a36d0524ac4
:105a540052f82330002b7ff4fcaa504b4ff0000285
:105a640083f83b20fff7f5ba4b4b596d4d4a116251
:105a74005b6dbbb1494b93f83a305bb12268464b3e
:105a840053f82230002bcdd1444b4ff0000283f861
:105a94003a20c7e7404b5b6da8f800304ff47a60ba
:105aa40029f0a2ff22683c4b53f82230002bb9d1d5
:105ab4003a4b93f83a30002bb4d0e5e7364a52f823
:105ac4002330a9f800304ff47a6029f08dff226862
:105ad400314b53f82230002b7ff4bbaa2f4b93f8a1
:105ae4003b30002b3ff4b5aab7e72b4b9a6d2e49f8
:105af4000a639b6ddbb1294b9b7d63b12268264b06
:105b040053f82230002b7ff4a4aa244b4ff0000258
:105b14009a75fff79eba214b4ff001029a751e4bfe
:105b24009b6daaf800304ff47a6029f05dff22687b
:105b3400194b53f82230002b7ff48baa174b9b7d13
:105b4400002b3ff486aae0e7134bd3f88c30012beb
:105b54002cd0114bd3f88c30022b7ff47aaa236813
:105b64000d4a52f823000e49486252f82320002ab5
:105b74004fd00a4a92f83d20002a41d0064a52f8f2
:105b84002330002b7ff465aa044b4ff0000283f806
:105b94003d20fff75eba00bf088e01206891012006
:105ba40020930120f892012028910120934b196e33
:105bb400934a51621b6ebbb1924b93f83c305bb17c
:105bc40022688e4b53f82230002bc2d18d4b4ff0fc
:105bd400000283f83c20bce7884b1b6ea8f8003019
:105be4004ff47a6029f000ff2268844b53f8223086
:105bf400002baed1834b93f83c30002ba9d0e5e7c2
:105c04007e4a52f82330a9f800304ff47a6029f024
:105c1400ebfe2268794b53f82230002b7ff419aa4b
:105c2400784b93f83d30002b3ff413aaace7734b49
:105c34005a6e75494a635b6ed3b1724b5b7e63b136
:105c440022686e4b53f82230002b7ff402aa6d4b6e
:105c54004ff000025a76fff7fcb96a4b4ff001028d
:105c64005a76664b5b6e33804ff47a6029f0bcfe43
:105c74002268624b53f82230002b7ff4eaa9614b6f
:105c84005b7e002b3ff4e5a9e1e75c4b9a6e5e492d
:105c94008a639b6ed3b15b4b9b7e63b12268574b87
:105ca40053f82230002b7ff4d4a9564b4ff0000256
:105cb4009a76fff7ceb9534b4ff001029a764f4bc9
:105cc4009b6e33804ff47a6029f08efe22684b4b32
:105cd40053f82230002b7ff4bca94a4b9b7e002b47
:105ce4003ff4b7a9e1e7454bda6e47498a63db6eb7
:105cf400d3b1444bdb7e63b12268404b53f822306e
:105d0400002b7ff4a6a93f4b4ff00002da76fff791
:105d1400a0b93c4b4ff00102da76384bdb6e33808e
:105d24004ff47a6029f060fe2268344b53f8223035
:105d3400002b7ff48ea9334bdb7e002b3ff489a923
:105d4400e1e7324b1a78304b043b002001e0ab42d0
:105d540007d053f8041f0029f9d00132d2b20098b9
:105d6400f5e708b1294b1a70284b1b7853b1274b20
:105d74004ff000021a70264b1a78214b03f12800c9
:105d8400002622e0234b4ff000021a80224b1a8097
:105d9400adf80c20214b1b88adf80e30204b1b882e
:105da400adf81030adf812203b88adf814301d4b1f
:105db4001b88adf816300223019a03a91a4800681b
:105dc40025f098fbd7e7984207d053f8041b002925
:105dd400f9d00132d2b2009ef5e70eb10c4b1a7025
:105de4000b4b1b7833b30a4b4ff000021a700f4b66
:105df4001a780f4b03f1280000263ee0088e01209c
:105e0400f89201206891012028910120c499012071
:105e1400c5990120068e01206e960120a6910120cd
:105e2400da910120829901202c970120c699012042
:105e340020930120334b4ff000021a803a80324bfa
:105e44001b88adf80c30adf80e20304b1b88adf834
:105e540010302f4b1b88adf81230adf814202d4ba9
:105e64001b88adf816300223019a03a92a4800685a
:105e740025f040fbbbe7834207d053f8041b0029fd
:105e8400f9d00132d2b2009ef5e70eb1234b1a705d
:105e9400224b1b78002b30d11c4b4ff000021a8090
:105ea4001c4b1a80184b1b88adf80c30154b1b8803
:105eb400adf80e30adf81020154b1b88adf812303c
:105ec4003b88adf81430adf816200223019a03a9db
:105ed4001148006825f00efb4ff47a7029f084fd18
:105ee400019b2360084edff82490dff81880dff868
:105ef40020a0dff820b0fff7cfb8084b4ff0000226
:105f04001a70e9e7a6910120068e0120da9101209a
:105f14006e960120829901202c970120c6990120b8
:020000040000fa
:105f240038b50446d4485a230370a5234370072385
:105f340083708223c3701423037102234371d4f842
:105f440000311a0e82711a0cc2711a0a027243725b
:105f5400ca4b4ff400229a610a2127f073f92bf0ff
:105f64002df90028fbd0c54b4ff400225a61c248da
:105f74005a210170a5214170052181708221c170cf
:105f8400142101710621417100218171b4f81e119f
:105f9400c1719a61082127f055f92bf00ff90028f7
:105fa400fbd0b64b4ff400225a61b3485a2101701a
:105fb400a5214170052181708221c17014210171d4
:105fc4000821417100258571d4f80451c5719a6185
:105fd40027f038f92bf0f2f80028fbd0a74a4ff449
:105fe40000215161a4485a230370a523437005235b
:105ff40083708223c370142303710a234371002323
:106004008371d4f804311b0ac3719161082127f00c
:1060140019f92bf0d3f80028fbd0984b4ff4002249
:106024005a6195485a210170a5214170052181705a
:106034008221c170142101710c21417100218171ef
:10604400b4f80611c1719a61082127f0fbf82bf00e
:10605400b5f80028fbd0894b4ff400225a618648da
:106064005a210170a5214170052181708221c170de
:10607400142101710e21417100218171b4f80e11b6
:10608400c1719a61082127f0ddf82bf097f80028f8
:10609400fbd07a4a4ff40021516177485a230370a8
:1060a400a5234370052383708223c37014230371d3
:1060b4001023437100238371d4f80c311b0ac3717c
:1060c4009161082127f0bef82bf078f80028fbd066
:1060d4006a4b4ff400225a6167485a210170a52186
:1060e4004170052181708221c17014210171122136
:1060f400417100218171d4f80c11c1719a61082198
:1061040027f0a0f82bf05af80028fbd05b4a4ff494
:106114000021516158485a230370a5234370072373
:1061240083708223c3701423037116234371d4f83c
:1061340020311d0e85711d0cc5711d0a0572437237
:1061440091610a2127f07ef82bf038f80028fbd063
:106154004a4b4ff400225a6147485a210170a52145
:106164004170052181708221c170142101711a21ad
:10617400417100218171b4f83e11c1719a61082105
:1061840027f060f82bf01af80028fbd03b4b4ff4b3
:1061940000225a6138485a210170a5214170052115
:1061a40081708221c170142101711c21417100216f
:1061b4008171d4f82411c1719a61082127f042f841
:1061c4002af0fcff0028fbd02c4a4ff40021516137
:1061d40029485a230370a52343700523837082231f
:1061e400c370142303711e23437100238371d4f8f5
:1061f40024311b0ac3719161082127f023f82af086
:10620400ddff0028fbd01d4b4ff400225a611a48d1
:106214005a210170a5214170052181708221c1702c
:10622400142101712021417100218171b4f82611da
:10623400c1719a61082127f005f82af0bfff0028f0
:10624400fbd00e4b4ff400225a610b485a210170c7
:10625400a5214170052181708221c1701421017131
:106264002221417100218171b4f82e11c1719a610a
:10627400082126f0e7ff03e070930120008000412d
:106284002af09cff0028fbd0d54a4ff4002151612d
:10629400d4485a230370a5234370052383708223b3
:1062a400c370142303712423437100238371d4f82e
:1062b4002c311b0ac3719161082126f0c3ff2af017
:1062c4007dff0028fbd0c64b4ff400225a61c5481d
:1062d4005a210170a5214170052181708221c1706c
:1062e400142101712621417100218171d4f82c11ee
:1062f400c1719a61082126f0a5ff2af05fff0028ea
:10630400fbd0b74a4ff400215161b6485a230370b9
:10631400a5234370072383708223c370142303715e
:106324002a234371d4f840311d0e85711d0cc571ab
:106334001d0a0572437291610a2126f083ff2af037
:106344003dff0028fbd0a64b4ff400225a61a5481c
:106354005a210170a5214170052181708221c170eb
:10636400142101712e21417100218171b4f85e1153
:10637400c1719a61082126f065ff2af01fff0028e9
:10638400fbd0974b4ff400225a6196485a21017072
:10639400a5214170052181708221c17014210171f0
:1063a4003021417100218171d4f84411c1719a6185
:1063b400082126f047ff2af001ff0028fbd0884a75
:1063c4004ff40021516187485a230370a523437079
:1063d400052383708223c370142303713223437112
:1063e40000238371d4f844311b0ac37191610821dd
:1063f40026f028ff2af0e2fe0028fbd0784b4ff469
:1064040000225a6177485a210170a5214170052163
:1064140081708221c17014210171342141710021e4
:106424008171b4f84611c1719a61082126f00afffe
:106434002af0c4fe0028fbd0694b4ff400225a61b5
:1064440068485a210170a52141700521817082217b
:10645400c170142101713621417100218171b4f898
:106464004e11c1719a61082126f0ecfe2af0a6feb5
:106474000028fbd05a4a4ff40021516159485a234d
:106484000370a5234370052383708223c3701423f0
:1064940003713823437100238371d4f84c311b0af0
:1064a400c3719161082126f0cdfe2af087fe0028f1
:1064b400fbd04b4b4ff400225a614a485a210170d9
:1064c400a5214170052181708221c17014210171bf
:1064d4003a21417100218171d4f84c11c1719a6142
:1064e400082126f0affe2af069fe0028fbd03c4ac2
:1064f4004ff4002151613b485a230370a523437094
:10650400072383708223c3701423037140234371d0
:10651400d4f860311d0e85711d0cc5711d0a0572fc
:10652400437291610a2126f08dfe2af047fe00286d
:10653400fbd02b4b4ff400225a612a485a21017098
:10654400a5214170052181708221c170142101713e
:106554004421417100218171b4f87e11c1719a61a5
:10656400082126f06ffe2af029fe0028fbd01c4be0
:106574004ff400225a611b485a210170a521417031
:10658400052181708221c17014210171462141715c
:1065940000218171d4f86411c1719a61082126f037
:1065a40051fe2af00bfe0028fbd00d4a4ff40021c7
:1065b40051610c485a230370a5234370052383704b
:1065c4008223c3701423037148234371002383710e
:1065d400d4f864311b0ac3719161082104e000bf3f
:1065e400008000417093012026f02cfe2af0e6fd85
:1065f4000028fbd0d54b4ff400225a61d4485a21cd
:106604000170a5214170052181708221c17014217e
:1066140001714a21417100218171b4f86611c1717f
:106624009a61082126f00efe2af0c8fd0028fbd04e
:10663400c64b4ff400225a61c5485a210170a52166
:106644004170052181708221c170142101714c2196
:10665400417100218171b4f86e11c1719a610821f0
:1066640026f0f0fd2af0aafd0028fbd0b74a4ff42b
:1066740000215161b6485a230370a52343700523b2
:1066840083708223c370142303714e234371002348
:106694008371d4f86c311b0ac3719161082126f00f
:1066a400d1fd2af08bfd0028fbd0a84b4ff400222b
:1066b4005a61a7485a210170a521417005218170b2
:1066c4008221c17014210171502141710021817115
:1066d400d4f86c11c1719a61082126f0b3fd2af037
:1066e4006dfd0028fbd0994a4ff400215161984870
:1066f4005a230370a5234370072383708223c37036
:106704001423037156234371d4f880311d0e85710f
:106714001d0cc5711d0a0572437291610a2126f090
:1067240091fd2af04bfd0028fbd0884b4ff400224a
:106734005a6187485a210170a52545700525857041
:106744008225c57014250571417100218171b4f849
:106754009e11c1719a61082126f074fd2af02efd64
:106764000028fbd0794b4ff400225a6178485a2113
:106774000170a5214170052181708221c17014210d
:1067840001715c21417100218171d4f88411c171be
:106794009a61082126f056fd2af010fd0028fbd04e
:1067a4006a4a4ff40021516169485a230370a523b2
