:10200000F0FF0320DD1403007BC30200271D030043
:102010004F330300BF370300973B0300000000006D
:10202000000000000000000000000000D16B030071
:10203000DF1F030000000000D1240300F958030053
:10204000E37B0300E37B0300E37B0300E37B03000C
:10205000E37B0300E37B0300E37B0300E37B0300FC
:10206000E37B0300E37B0300E37B0300E37B0300EC
:10207000E37B03009D6D0300BD6D0300E37B030064
:10208000E37B0300DD6D0300FD6D03001D6E0300A7
:10209000356B0300596B03007D6B0300E96403009B
:1020A00011650300E37B0300E37B0300E37B030094
:1020B000E37B0300E37B0300E37B0300E37B03009C
:1020C000E37B0300E37B0300E37B0300E37B03008C
:1020D000E37B0300E37B0300E37B0300E37B03007C
:1020E000E37B0300E37B030000000000000000002E
:1020F00000000000E37B0300E37B0300E37B0300BD
:10210000E37B0300E37B0300E37B0300E37B03004B
:10211000E37B0300E37B03008D2C03008D2C030085
:102120008D2C03008D2C030025D6020025D602003D
:1021300025D6020025D60200112A0300112A030029
:10214000112A0300112A0300DD2B0300DD2B0300FD
:10215000DD2B0300DD2B0300352C0300352C0300A1
:10216000352C0300352C0300E52C0300E52C03007F
:10217000E52C0300E52C03008DFF0200A9020300FB
:10218000E37B0300E37B0300E37B0300E37B0300CB
:1021900000000000E37B0300E37B0300E37B03001C
:1021A000E37B0300E37B0300E37B0300E37B0300AB
:1021B000E37B0300E37B0300E37B0300E37B03009B
:1021C000E37B0300E37B0300E37B0300E37B03008B
:1021D000E37B0300E37B0300E37B0300E37B03007B
:1021E000E37B0300E37B0300E37B0300E37B03006B
:1021F00075580300E37B0300E37B0300E37B0300EC
:10220000A1580300E37B0300E37B0300E37B0300AF
:10221000E37B0300E37B0300E37B0300E37B03003A
:10222000E37B0300E37B0300E37B0300E37B03002A
:10223000E37B0300E37B0300E37B0300E37B03001A
:10224000E37B0300E37B0300E37B0300E37B03000A
:10225000E37B0300E37B0300E37B0300E37B0300FA
:10226000F8B500BFF8BC08BC9E467047BD3B0300F4
:10227000F8B500BFF8BC08BC9E467047993B030008
:10228000A48D0200010000002DE9F04FADF5077D9F
:1022900000248494859482948DF80C42ADF8044215
:1022A0007F9480947E947B947C948DF8F44179940F
:1022B000CDF8E741769477947894739474947594F8
:1022C00070947194729469946A946B946C946D9404
:1022D0006E946F94659466946794ADF8A0415F9492
:1022E0006094619462946394CDF88F41CA22214630
:1022F00017A835F0B7FD159416941E22214605A89F
:1023000035F0B0FDB24FB34CDFF83083DFF830A3C7
:10231000DFF83093DFF830B332E2AF4B18682EF0BD
:10232000C3FF0025AAF80050A9F80050AB4B1D7060
:10233000AB4B1D80AB4B1D702A4684A9AA4B186875
:102340002CF000FF2A4682A9A84B18682CF0FAFE50
:102350002A4681A9A64B18682CF0F4FE9DF8173286
:10236000012B40F0D7819DF80A32002B40F0D2813A
:102370009DF809326D2B26D89DF80932632B00F2A7
:10238000C9819C4E769640238DF8E2319A4D002308
:10239000642276A928682CF0B7FD4FF47A7032F0E9
:1023A00017FE769600238DF8BE318DF8E231642257
:1023B00076A928682CF0A8FD642032F009FE8F4B26
:1023C00001221A70A6E18E4B1D608E4B1D60894B59
:1023D000769340238DF8E231874E2B46642276A90E
:1023E00030682CF091FD4FF47A7032F0F1FD814BA2
:1023F00076938DF8BE518DF8E2512B46642276A972
:1024000030682CF081FD642032F0E2FD7B4B01222C
:102410001A700C2388F80030AEE77B4B73930025CD
:102420008DF8D0512B46642273A9784800682CF0AF
:102430006BFD642032F0CCFD754B709301268DF856
:102440009A618DF8C4618DF89B518DF8C5518DF856
:102450009C518DF8C6512B46642270A96D480068C6
:102460002CF052FD642032F0B3FD624B76938DF870
:10247000BC618DF8DD612B46642276A95E48006858
:102480002CF042FD642032F0A3FD2A4681A9584B6E
:1024900018682CF057FE9DF80432B34240F03A81A0
:1024A000564B02221A7035E1524D769540238DF835
:1024B000E231514E0023642276A930682CF024FDCD
:1024C0004FF47A7032F084FD769500258DF8BE5178
:1024D0008DF8E2512B46642276A930682CF014FD69
:1024E000642032F075FD2A4682A9404B18682CF012
:1024F00029FE002800F00E819DF80932503BDBB226
:102500001D2B1DD8444B4FF48032C3F8942009236F
:1025100088F80030414B01221A70394B1B689342F6
:1025200048D03F4B1B78022B00F09080344B1B6847
:1025300013B9324B03221A703A4A136801331360FD
:102540009DF809326D2B21D9374B1B78C3B9364B17
:102550001B7823B9304B4FF48032C3F89820334BAB
:1025600018682DF0DFFB4FF6FF7031F035FD0023CA
:10257000234A1360234A13602D4B1B78002B7AD01B
:10258000264B00221A700C2388F80030254B1B685C
:102590001E2B40F3BF80234B00221A60224B1B7876
:1025A00023B91D4B4FF48032C3F89820134B0022FF
:1025B0001A70AFE02A468DF84050022310A91D483A
:1025C00000682CF0A1FC1C4B18682EF06DFEA8E7EB
:1025D000F59B0120E89A0120BC990120169C01205E
:1025E0001E970120EB9B0120989A01209C9A0120C4
:1025F000C09A012002C4EC15609A0120C19B012001
:102600002C9B0120349B012001C4EC15449A01202D
:1026100002D4EC15349A012000800041E99B01208E
:10262000D49B0120189B0120E39B0120609901208D
:10263000229C0120449901202C990120B99B012062
:10264000D29B0120E09B0120F39B0120B44B5B78DF
:10265000012B7FF46BAFB34B03221A7000228DF86D
:102660004420022311A9B04800682CF04DFCAF4B68
:1026700001221A605AE7AE4B01221A70AD4B18784E
:102680002FF0BCFE7CE70025AB4B1D60AB4B73937A
:1026900008238DF87F318DF8D3312B46642273A93E
:1026A000A74800682CF030FC4FF47A7032F090FCB0
:1026B000A44E76968DF8BD518DF8E0518DF8BE513F
:1026C0008DF8E2518DF8BF518DF8E3512B4664220D
:1026D00076A99D4800682CF017FC4FF47A7032F010
:1026E00077FC2A4681A9994B18682CF02BFD769629
:1026F00002238DF8BC318DF8DD312B46642276A99A
:10270000914800682CF000FC642032F061FC854B9D
:1027100004221A7098F800308DF85130BAF8002071
:10272000ADF84E20B9F80020ADF84C209BF8002001
:102730008DF852203A788DF850208DF848300223D9
:10274000002213A9824800682CF0DEFB022300223D
:1027500012A9804800682CF0D7FB2368012B0BD10D
:10276000002323606F4A13707B4B18682EF09CFD8A
:102770007A4B18682DF0D6FA4FF4487032F028FCE6
:1027800000220DA9764B18682CF0DCFC28B1754AA4
:102790009DF8343011880B441380624B1B78DBB2F8
:1027A0001E2BB7D801A252F823F000BF1B23000054
:1027B0001B240000A924000087260000292800000F
:1027C000152700009D280000152700001527000090
:1027D0001527000015270000152700001527000009
:1027E000152700001527000015270000212A0000EA
:1027F000152700004D2B00007B2D0000892E0000C6
:1028000015270000013100001527000015270000E2
:1028100015270000152700001527000015270000C8
:1028200015270000A53B0000002282A94E4B186826
:102830002CF088FC002281A9444B18682CF082FC03
:102840009DF80A32012B1FD09DF80432FA2B02D0DA
:10285000FC2B00D013B9334B00221A709DF80932BB
:102860006D2B7FF657AF414B1B7823B9404B4FF48C
:102870008032C3F8982000233E4A13700C2288F857
:102880000020284A137045E79DF80932503BDBB21F
:102890001D2BD9D8234B06221A70D5E70022244BD2
:1028A0001A7081A9294B18682CF04CFC9DF8043251
:1028B000312B15D9304A126842B91A4A10211170C9
:1028C000FA2B01F0B882FC2B1ED110E0012AF7D1BF
:1028D000002279A9294B18682CF034FC002851D12A
:1028E0009DF80432FA2B02D0FC2B00D063B9224AA7
:1028F0001268012A7DD0204A12682AB9094A0021AB
:1029000011701D4A012111600A2B7FF403AF1C4B8B
:102910001B780133DBB2F02B72D0194A1370F9E641
:10292000D49B0120C19B012054990120349B01209C
:10293000229C01200B9D0120189B012001C4EC1555
:10294000449A012002C4EC15609A0120C09A01202B
:102950004099012000990120849901204C9A01207E
:10296000809901201E9701209C9A0120E39B012061
:1029700000800041E99B01202C9B0120A89A0120A6
:10298000309C01209DF8E4318DF838309DF8E53118
:102990008DF839309DF8E6318DF83A309DF8E73101
:1029A0008DF83B309DF8E8318DF83C309DF8E931E9
:1029B0008DF83D30022300220EA9564800682CF005
:1029C000A3FA9DF83830002B8AD0534B01221A60AD
:1029D000524B10221A7002238DF84030002210A9A9
:1029E0004F4800682CF090FA4E4B18682EF05CFCB3
:1029F00076E74A4A00211170474A0121116083E7B6
:102A00000023494A1370454A1370484B40F2331271
:102A10001A80474B02221A7011202FF0EFFC79E642
:102A2000414B00221A70434B1B686BBB424B1B7817
:102A3000022B2DD1404B5B78012B29D115468DF807
:102A40004420022311A93D4800682CF05DFA3C4B5C
:102A5000769301238DF8BE318DF8E2312B46642246
:102A600076A9384800682CF04FFA642032F0B0FAAA
:102A70002A4681A9344B18682CF064FB274B12229C
:102A80001A700E202FF0BAFC2A4B1B68012B22D0A3
:102A9000002281A92C4B18682CF054FB9DF80432BD
:102AA000FA2B04D0FC2B02D0002B7FF433AE1B4B4F
:102AB00000221A70184B01221A601C4B4FF49A72B4
:102AC0001A801B4B02221A70062033F05FF8112087
:102AD0002FF094FC1EE61A4B769301238DF8BE313D
:102AE0008DF8E2310023642276A9164800682CF0A4
:102AF0000BFA642032F06CFA002281A9124B18689C
:102B00002CF020FB054B12221A700E202FF076FCC1
:102B1000BEE700BF489901202C9B0120C19B0120EA
:102B2000449901202C990120309C01206E980120AD
:102B3000F99B0120349B0120D49B01205499012052
:102B400002C4EC15609A0120C09A01200123B84A02
:102B50001360B84A4FF40011C2F8181100225C92B9
:102B6000B54A5D928DF8783102238DF879310022D3
:102B70005CA9B24800682CF0C7F9B14B18682EF078
:102B800093FB00227FA9AF4B18682CF0DBFA0028DA
:102B900000F0D8809DF8FC319DF8FD2102EB032266
:102BA000A94981FB0232931007EE903AF8EEE77ADA
:102BB0009DF8FE219DF8FF3103EB022381FB0323E7
:102BC0009B1007EE103AB8EEC77ABDEEC77A17EE43
:102BD000103A4EF6602292FBF3F303EB83035B00A3
:102BE00007EE103AB8EEC77A984B83ED007AB2EE52
:102BF000047A67EE877A93ED007AF4EEC77AF1EE05
:102C000010FA48BFC3ED007A914B769300258DF8FA
:102C1000E2512B46642276A98E4800682CF074F9A4
:102C2000642032F0D5F98C4B7393884AD2ED007A48
:102C3000FCEEE77A17EE903A8DF8D031D2ED007ABB
:102C4000FCEEE77A17EE903AC3F307238DF8D13103
:102C500070238DF8D23117238DF8D3314FF0100245
:102C60008DF8D42127238DF8D53114268DF8D6611F
:102C70008DF8D7512B46642273A9784800682CF050
:102C800043F94FF4967032F0A3F98DF8D0618DF8C6
:102C9000D151C8238DF8D2318DF8D3518DF8D4613C
:102CA0008DF8D55164268DF8D6618DF8D7516C4BCF
:102CB00073932B46324673A9684800682CF024F9B8
:102CC0004FF4967032F084F902238DF8BE318DF8FE
:102CD000E2315F4B76932B46324676A95D48006819
:102CE0002CF012F9304632F073F910202FF086FBE9
:102CF0002A4681A95B4B18682CF024FA9DF804221F
:102D0000A2F15B03DBB2092B08D8574B13221A70D0
:102D1000484B4FF48012C3F8142113E0FA2A01D073
:102D2000FC2A27D1504B00221A70504B40F235122A
:102D30001A804F4B02221A70082032F027FF112010
:102D40002FF05CFB00250E95ADF83C5002232A467F
:102D50000EA9484800682CF0D7F88DF8405002239F
:102D60002A4610A9444800682CF0CEF8434B1D8039
:102D70009D70CFE4002AD5D0E4E7002282A9404B21
:102D800018682CF0DFF99DF80932312B7FF6C2ACC0
:102D90003C4B1B78012B30D1264BD3F8203113F05C
:102DA000807F19D101238DF8BD318DF8E0310C23DE
:102DB0008DF8BE318DF8E231254B769300236422E5
:102DC00076A9244800682CF09FF8642032F000F9BE
:102DD000254B14221A709DE4234B00221A70234BBA
:102DE00040F235121A80224B02221A70072032F06C
:102DF000CDFE11202FF002FB8CE401238DF8BD31B4
:102E00008DF8E0310C238DF8BE318DF8E231104B96
:102E100076930023642276A90E4800682CF074F89B
:102E2000642032F0D5F8104B14221A7072E400BFFF
:102E3000349B01200080004100004843F4990120A8
:102E4000F8990120B09A012067666666C89901204A
:102E500002C4EC15609A012003C4EC15449A0120C9
:102E600004C0EC15C09A0120C19B01206E9801207E
:102E7000F99B01204899012044990120D49B01200D
:102E80009C9A01203A9D012000227EA9824B18685D
:102E90002CF058F99DF8F8319DF8F92102EB032246
:102EA0007E4981FB0232921007EE902AF8EEE77A13
:102EB0007B4BC3ED007A9DF8FA219DF8FB3103EBC3
:102EC000022381FB03239B1007EE103AB8EEC77A6A
:102ED000744B83ED007A4FF080435C93CDED5D7AC7
:102EE00001238DF8783102238DF8793100225CA915
:102EF0006D4800682CF008F86C4B18682EF0D4F977
:102F00009DF8F9318DF8DC319DF8F8318DF8DD311F
:102F1000674B76930023642276A9664800682BF0FD
:102F2000F3FF642032F054F8002281A9624B186844
:102F30002CF008F900283FF4EDAB9DF80432782B13
:102F40001AD09DF80432FA2B04D0FC2B02D0002BAF
:102F50007FF4E0AB594B1E221A70594B4FF49B7211
:102F60001A80584B02221A70082032F00FFE1120EE
:102F70002FF044FAFFF7CEBB534B1E6835F000F933
:102F80004EF660250095002302460121304630F0C0
:102F900063FF4E4B1E6835F0F3F8009500230246A0
:102FA0000121304630F058FF494B1E6835F0E8F8F3
:102FB0000095002302460121304630F04DFF454B7D
:102FC0001E6835F0DDF800950023024601213046E9
:102FD00030F042FF404B1E6835F0D2F800950023D8
:102FE00002460121304630F037FF3C4B1E6835F079
:102FF000C7F80095002302460121304630F02CFF2F
:1030000012202FF0FBF903202FF0EAFF2B4B1622A2
:103010001A70334B187831F063FD642031F0D8FF1B
:10302000304D287831F078FD642031F0D1FF2E4EFC
:10303000308831F08DFD642031F0CAFF2B490878CB
:1030400031F0BEFD642031F0C3FF2948007831F033
:103050009BFD642031F0BCFF264A107831F0CCFD96
:10306000642031F0B5FF244B1A68244B1A60318874
:103070002B781B4A12781B0243EA014313434D93FA
:103080001B480178194B1B781A4A12781B0243EA35
:10309000014313434E9354E7B89A0120676666666E
:1030A000A09B0120F89A0120F4990120F8990120B1
:1030B00005C4EC15609A0120C09A0120C19B012033
:1030C0006E980120F99B0120D89A0120609B012075
:1030D000649B0120689B01206C9B01209499012036
:1030E000079C0120209C0120FA8C01201F9C0120BC
:1030F000109C01202E9C0120B4990120209A0120CF
:10310000584B18682EF0D0F8574B188831F040FC17
:10311000564B1B78072B00F0A08000227EA9544B51
:1031200018682CF00FF8002840F0C88000227BA916
:10313000504B18682CF006F8A0B14F4A13789DF850
:10314000EE014E49C854062188F80010013313706F
:10315000464B1B78042B40F21B84444B1B78052BF9
:1031600000F02284464B1B78052B00F02684424B4E
:103170001B78052B00F07A84424B1B782BB9424B0D
:103180001B78DBB2012B00F090843E4B1B78DBB246
:10319000012B00F095844FF4FA6284A93B4B186828
:1031A0002BF0D0FF30B19DF816321BB103F52F7311
:1031B000374A1380002281A9364B18682BF0C2FFD2
:1031C000D0B19DF80432292B03D0FA2B01D0FC2B6F
:1031D00012D1314B1E221A70092388F800302F4B70
:1031E000CA221A802E4B02221A700A2032F0CEFC1C
:1031F0002C4B1A682C4B1A609DF8EC31012B00F017
:103200007684002282A9294B18682BF09BFF68B1B5
:103210009DF80932463BDBB23B2B07D8244A137892
:103220000133DBB21370052B00F27684214B1B783F
:10323000022B00F08284164B1B88B3F5397F05D032
:10324000A3F2E72292B2012A3FF664AA134A13803E
:103250000F4B00221A80FFF75DBA174B187832F037
:10326000A7F95AE7609901201E970120169C0120BA
:10327000B89A0120B49A0120139C01207098012073
:103280001B9C0120E39B0120E99B0120989A0120CF
:10329000DE8F0120C09A0120C19B01206E98012081
:1032A000F99B0120B4990120289A01209C9A0120C1
:1032B000069C0120D49B0120C99B01209DF8FA3176
:1032C0009DF8FB2102EB0322C24981FB02329208E6
:1032D00007EE902AF8EE677ABF4BC3ED007A9DF8AF
:1032E000F8219DF8F93103EB022381FB03239B08AE
:1032F00007EE103AB8EE477AB84B83ED007AB84B38
:1033000093ED007AF4EEC77AF1EE10FA02DD1A6856
:10331000B14B1A60B04B186831F08EFE02460B4676
:10332000B04905A834F014F81E2105A82EF0FCFCC5
:1033300034F0F8FC0028FBD0A74B93ED007AA74BA4
:10334000D3ED007A67EE877AA74BC3ED007AB5EE2E
:10335000407AF1EE10FA07D1A44A136801331360E2
:10336000B3F5967F00F3D480A14B1B78002B40F07F
:103370009180A04B1A68A04B1A60D3ED007A9A4B4B
:1033800093ED007AB4EEE77AF1EE10FA3BD59B4B61
:103390001B7863BB914BD3ED007A9FED997A77EE62
:1033A000877ACDED5D7A944BD3ED006A954BD3EDE2
:1033B000007A86EEA77A884BD3ED007AB4EEE77AEE
:1033C000F1EE10FA00F2BD80F6EE007A27EE277AD1
:1033D0008DED5C7A03238DF8793101238DF87831F6
:1033E000022300225CA9884800682BF08DFD834BE6
:1033F0001B78DBB2012B00F0B180804B1B78DBB275
:10340000012B00F01D817C4BD3ED007A764B93EDC0
:10341000007AB4EEE77AF1EE10FA3BDD774B1B78D9
:1034200063BB6E4BD3ED007A9FED757A77EE877AAA
:10343000CDED5D7A704BD3ED006A724BD3ED007A1F
:1034400086EEA77A644BD3ED007AB4EEE77AF1EE1C
:1034500010FA00F23481F6EE007A27EE277A8DED2D
:103460005C7A03238DF8793101238DF878310223BA
:1034700000225CA9644800682BF046FD5F4B1B7876
:10348000DBB2012B00F028815C4B1B78DBB2012BF7
:1034900000F05D81564B1B78DBB2012B00F096816A
:1034A0009DF8FA019DF8FB51584E32784FEA820C94
:1034B0005749614405EB0023DFF818E18EFB03E375
:1034C0009B0807EE903AF8EE677AC1ED007A514B0F
:1034D0009C444C4B1B68CCF80030013232709DF894
:1034E000F9318DF8DC319DF8F8318DF8DD318DF84A
:1034F000DE518DF8DF01484B76930023642276A9D4
:10350000464800682BF000FD322031F061FD0DE6E9
:10351000434B1E221A70092088F80000414BC92233
:103520001A80414B02221A7032F030FB3F4A0023CE
:10353000138093703E4A11683E4A11602B4A136013
:1035400012E7B4EEE77AF1EE10FA7FF743AFB6EE8A
:10355000007A67EE877ACDED5C7A3BE7364B1B78D5
:10356000DBB2112B7FF649AF344B4FF40012C3F896
:1035700018211A4BD3ED007A9FED217A77EE877AE6
:10358000CDED5D7A1C4BD3ED006A1E4BD3ED007A76
:1035900086EEA77A104BD3ED007AB4EEE77AF1EE1F
:1035A00010FA0ED88DED5C7A02238DF87931012264
:1035B0008DF8782100225CA9134800682BF0A4FC48
:1035C00021E7B4EEE77AF1EE10FAC8BFCDED5C7AF0
:1035D000EAE700BF67666666F89A0120A09B0120B3
:1035E000F89D01204C550100589B0120E09A0120D4
:1035F000F19B0120089E0120E0990120E39B01201E
:1036000000000000109E0120F49901201B9C012065
:10361000649601208C96012005C4EC15609A012067
:10362000C19B01206E980120F99B0120D49B0120B1
:10363000B4990120289A0120BD9B012000800041FF
:10364000C84B1B78DBB2112B3FF6DDAEC64BD3ED7A
:10365000007A9FEDC67A77EE877ACDED5D7AC44B1E
:10366000D3ED006AC34BD3ED007A86EEA77AC24B46
:10367000D3ED007AB4EEE77AF1EE10FA13D8F6EE55
:10368000007A27EE277A8DED5C7A03238DF8793165
:1036900001238DF87831022300225CA9B748006825
:1036A0002BF032FCAFE6B4EEE77AF1EE10FAECDD87
:1036B000B6EE007A67EE877ACDED5C7AE5E7B4EE98
:1036C000E77AF1EE10FA7FF7CCAEB6EE007A67EE4D
:1036D000877ACDED5C7AC4E6A24B1B78DBB2112B66
:1036E0007FF6D2AEA64B4FF40012C3F818219E4BC2
:1036F000D3ED007A9FED9D7A77EE877ACDED5D7AF6
:103700009B4BD3ED006A9B4BD3ED007A86EEA77AF4
:10371000994BD3ED007AB4EEE77AF1EE10FA0ED8B9
:103720008DED5C7A02238DF8793101228DF87821B4
:1037300000225CA9914800682BF0E6FBAAE6B4EEF3
:10374000E77AF1EE10FAC8BFCDED5C7AEAE7854B77
:103750001B78DBB2112B3FF69DAE834BD3ED007A85
:103760009FED827A77EE877ACDED5D7A804BD3ED4F
:10377000006A804BD3ED007A86EEA77A7E4BD3EDBC
:10378000007AB4EEE77AF1EE10FA13D8F6EE007A8A
:1037900027EE277A8DED5C7A03238DF879310123AA
:1037A0008DF87831022300225CA9744800682BF060
:1037B000ABFB6FE6B4EEE77AF1EE10FAECDDB6EEB5
:1037C000007A67EE877ACDED5C7AE5E76D4B1B7882
:1037D0005BBB654BD3ED007A9FED647A77EE877A19
:1037E000CDED5D7A684BD3ED006A624BD3ED007A84
:1037F00086EEA77A604BD3ED007AB4EEE77AF1EE6D
:1038000010FA50D8F6EE007A27EE277A8DED5C7A22
:1038100003238DF8793101238DF8783102230022BA
:103820005CA9564800682BF06FFB564B1B78DBB247
:10383000012B44D0534B1B78DBB2012B7FF430AE0D
:10384000484B1B78DBB2112B3FF62AAE464BD3ED2B
:10385000007A9FED467A77EE877ACDED5D7A4A4B16
:10386000D3ED006A434BD3ED007A86EEA77A424B44
:10387000D3ED007AB4EEE77AF1EE10FA65D8F6EE01
:10388000007A27EE277A8DED5C7A03238DF8793163
:1038900001238DF87831022300225CA937480068A3
:1038A0002BF032FBFCE5B4EEE77AF1EE10FAAFDD77
:1038B000B6EE007A67EE877ACDED5C7AA8E7294B01
:1038C0001B78DBB2112BB5D92D4B4FF40012C3F886
:1038D00018212D4B93ED007ADFED2C7AB4EEE77AC8
:1038E000F1EE10FAC8BFC3ED007A1F4BD3ED007A9A
:1038F0009FED1E7A77EE877ACDED5D7A224BD3ED80
:10390000006A1C4BD3ED007A86EEA77A1A4BD3EDF2
:10391000007AB4EEE77AF1EE10FA0ED88DED5C7A0B
:1039200002238DF8793101228DF8782100225CA9DB
:10393000124800682BF0E8FAB2E5B4EEE77AF1EE4F
:1039400010FAC8BFCDED5C7AEAE7B4EEE77AF1EEA3
:1039500010FA9ADDB6EE007A67EE877ACDED5C7AE2
:1039600093E700BFBD9B0120A09B01200000000049
:10397000E0990120109E0120F89A0120F49901207D
:1039800000800041E39B0120E89901200060EA46A5
:1039900031F00EFE9DF8EE21724B1A70724A1378C8
:1039A00001331370FFF7D9BB6F4B07221A709DF8D4
:1039B000EE318BF80030FFF7D5BB4FF0000C6B4BAE
:1039C00083F800C0BAF80010B9F80000684B694AE3
:1039D00003F1140ECDF80CC01E461546029101E00D
:1039E000734525D0F3EC017A96ED007AB4EEE77AD0
:1039F000F1EE10FA09D8C6ED007AFCEEE77A17EE80
:103A0000901A89B202914FF0010CF2EC017A95ED17
:103A1000007AB4EEE77AF1EE10FAE1D8C5ED007A5B
:103A2000FCEEE77A17EE901A88B201210391D7E7EE
:103A30000299BCF1000F01D0AAF80010039B0BB152
:103A4000A9F800004A4BD3ED007AFCEEE77A17EEB6
:103A5000900A30F0D5FF474BD3ED007AFCEEE77AC1
:103A600017EE900A30F0B0FFFFF781BB0025424B04
:103A70001D7097F800C0414B5E1D18464FF0010EB7
:103A800001E0B34208D013F8012B01789142F8D835
:103A9000027094467546F4E70DB187F800C0374BC5
:103AA000187831F06DFDFFF767BB00228DF84420D8
:103AB000022311A9324800682BF026FAFFF765BBF4
:103AC000304B1B78DBB2012B7FF465AB2E4B1B78A0
:103AD000DBB2132B7FF65FAB00228DF8442002236C
:103AE00011A9274800682BF00FFAFFF754BB274BAA
:103AF0001E221A70092388F80030254BC9221A802B
:103B0000244B02221A700A2032F040F8224B1A6825
:103B1000224B1A60FFF775BB1C4B1E221A7009203E
:103B200088F800001B4B02221A7032F02FF81A4B53
:103B30001A681A4B1A60FFF779BB194B9B78012B57
:103B40007FF479AB114B1E221A70092388F80030DC
:103B5000134B00221A809A700F4B1A680F4B1A6091
:103B6000FFF769BBC99B0120169C01201B9C01200B
:103B7000649601208C960120139C012070980120EE
:103B800054990120E99B0120BD9B0120C19B01208C
:103B90006E980120F99B0120B4990120289A0120F8
:103BA000D49B0120A74B1B78DBB2012B00F00B81CB
:103BB000A54B1B78DBB2012B00F01B814FF00303F8
:103BC0008DF8BC318DF8DD31A04B7693A04E0023EB
:103BD000642276A930682BF097F9322031F0F8F999
:103BE00000258DF8DC518DF8DD519A4A76922B46EE
:103BF000642276A930682BF087F9322031F0E8F999
:103C000095494FF48010C1F81801944B1A68944BF1
:103C10001A608C4B1D708DF8785102238DF8793124
:103C20002A465CA98F4800682BF06EF940F6B83040
:103C300031F0CEF94FF003008DF8DD01834B769320
:103C40002B46642276A8014630682BF05DF93220BD
:103C500031F0BEF98DF8DC518DF8DD517D4A769258
:103C60002B46642276A8014630682BF04DF93220AD
:103C700031F0AEF978494FF48013C1F818310A23B6
:103C800000932B462A4603217748006830F0E4F879
:103C9000764B187830F0CCFF754B187830F0E4FF95
:103CA000744B188830F0FCFF734B187831F030F803
:103CB000724B187831F010F8714B187831F044F8E5
:103CC000704B186831F078F86F4B1B78DBB2012B22
:103CD00000F0A5806C4B1B78DBB2022B00F0A380B8
:103CE000694B1B78DBB2032B00F0A1805C4BD3ED5A
:103CF000007AFCEEE77A654B93ED007ABCEEC77A6A
:103D000017EE903A17EE102A9B1A07EE903AF8EE4B
:103D1000677A5F4DC5ED007AFCEEE77A17EE900A00
:103D200031F02EF85B4B15221A7005202FF058F950
:103D3000544B1B684C934F4B19884D4B1B784B4A87
:103D400012781B0243EA014313434F934B4B1978FC
:103D5000494B1B784A4A12781B0243EA014313433A
:103D600050934D4B1A783B7843EA02435193D5ED7B
:103D7000007AFCEEE77A17EE903A43F40033529360
:103D8000414B1A78454D2B8843EA02435393022353
:103D90008DF82831002364224AA9414800682BF09D
:103DA000B3F8404B18682DF07FFA012323600022FE
:103DB0002A803D490A703D4A13703D4A13703D4ABE
:103DC0001370FEF7A7BC204B1B78002B7FF4F0AEDE
:103DD00000228DF8782103238DF8793102235CA924
:103DE000204800682BF090F840F6B83031F0F0F839
:103DF000DEE6144B1B78DBB2012B7FF4DFAE002232
:103E00008DF8782102238DF879315CA91548006876
:103E10002BF07AF840F6B83031F0DAF8CEE601202F
:103E200031F0B4FE56E7022031F0B0FE58E703202F
:103E300031F0ACFE5AE7204A1268002A3EF45EAD2B
:103E4000FEF768BCE99B0120E39B012002C4EC154E
:103E5000609A012005C4EC1500800041B49901204E
:103E6000289A0120F499012094990120079C0120AF
:103E7000209C0120FA8C01201F9C0120109C012015
:103E80002E9C0120EC980120F89B0120209A012013
:103E9000149901200B9D0120C99B01201E97012030
:103EA0006C99012070990120069C0120E89B01205B
:103EB000E79B0120E69B01202C9B01202DE9F04F80
:103EC000ADF5177D0024949495949294CDF84B42CF
:103ED00090948DF84442ADF83C428D948E948C942D
:103EE00089948A948DF82C4286948794889483943C
:103EF0008494859480948194829479947A947B9428
:103F00007C947D947E947F94759476947794ADF8A8
:103F1000E0416F947094719472947394CDF8CF4192
:103F20006C946D946E94CA22214627A833F09AFFB0
:103F3000259426946422214604A833F093FFB34EBF
:103F4000B34FDFF83483DFF83493DFF834B3DFF8AE
:103F500034A32FE2AF4B18682DF0A6F90024AE4B26
:103F60001C70A9F80040ABF80040AC4B1C70AC4B87
:103F70001C80224694A9AB4B18682BF0E3F822462C
:103F800090A9A94B18682BF0DDF822468FA9A74B02
:103F900018682BF0D7F89DF85732012B40F0D281EA
:103FA0009DF84232002B40F0CD819DF841326D2BBF
:103FB00026D89DF84132632B00F2C4819C4D869532
:103FC00040238DF822329B4C0023642286A920686E
:103FD0002AF09AFF4FF47A7030F0FAFF86950023AA
:103FE0008DF8E9318DF82232642286A920682AF002
:103FF0008BFF642030F0ECFF8F4B01221A70A1E19F
:104000008E4B1C608E4B1C60894B869340238DF831
:104010002232884D2346642286A928682AF074FF3C
:104020004FF47A7030F0D4FF814B86938DF8E941DC
:104030008DF822422346642286A928682AF064FF6C
:10404000642030F0C5FF7C4B01221A700C2388F8E5
:104050000030AEE77B4B839300248DF8104223465B
:10406000642283A9784800682AF04EFF642030F06B
:10407000AFFF764B809301258DF8DA518DF804520D
:104080008DF8DB418DF805428DF8DC418DF8064254
:104090002346642280A96E4800682AF035FF642018
:1040A00030F096FF624B86938DF8E7518DF81D52E4
:1040B0002346642286A95F4800682AF025FF642011
:1040C00030F086FF22468FA9584B18682BF03AF83B
:1040D0009DF83C32AB4240F03581574B02221A70BA
:1040E00030E1534C869440238DF82232514D002309
:1040F000642286A928682AF007FF4FF47A7030F00E
:1041000067FF869400248DF8E9418DF8224223460A
:10411000642286A928682AF0F7FE642030F058FF50
:10412000224690A9404B18682BF00CF8002800F0AC
:1041300009819DF84132503BDBB21D2B1DD8454B08
:104140004FF48032C3F89420092388F80030424BA2
:1041500001221A70394B1B68934248D03F4B1B78A1
:10416000012B00F09180354B1B6813B9324B0322B1
:104170001A703B4A1368013313609DF841326D2B6E
:1041800021D9384B1B78C3B9364B1B7823B9314B37
:104190004FF48032C3F89820334B18682BF0C2FDDF
:1041A0004FF6FF702FF018FF0023244A1360244AB3
:1041B00013602E4B1B78002B7BD0274B00221A70EC
:1041C0000C2388F80030264B1B681E2B40F3BA8066
:1041D000234B00221A60234B1B7823B91D4B4FF44D
:1041E0008032C3F89820144B00221A70AAE02246AD
:1041F0008DF88040022320A91D4800682AF084FE23
:104200001C4B18682DF050F8A8E700BFF49B012064
:10421000E49A0120BC990120159C0120E59B012016
:104220006E950120689A01206C9A0120909A0120D5
:1042300002C0EC15609A0120BD9B0120289B012043
:10424000309B012001C0EC15449A012002D0EC15EE
:10425000349A012000800041E39B0120D89B01207B
:10426000149B0120E99B012060990120219C0120E1
:10427000449901202C99012075980120CE9B0120A2
:10428000DE9B0120F29B0120AB4B5B78012B7FF47E
:104290006AAFAA4B03221A7000228DF884200223F1
:1042A00021A9A74800682AF02FFEA64B01221A6018
:1042B00059E7A54B01221A70A44B18782EF09EF8EE
:1042C0007BE70024A24B1C60A24B839308238DF84C
:1042D000BD318DF813322346642283A99E480068BD
:1042E0002AF012FE4FF47A7030F072FE9B4D8695E4
:1042F0008DF8E8418DF820428DF8E9418DF8224291
:104300008DF8EA418DF823422346642286A9944819
:1043100000682AF0F9FD4FF47A7030F059FE869566
:1043200002238DF8E7318DF81D322346642286A9D9
:104330008B4800682AF0E8FD642030F049FE7F4B8E
:1043400004221A7098F800308DF89130B9F80030D6
:10435000ADF88E30BBF80030ADF88C309AF80030F4
:104360008DF8923033788DF890300223002223A903
:104370007C4800682AF0C8FD98F800308DF8883035
:104380000223002222A9784800682AF0BDFD3B687C
:10439000012B0BD100233B60684A1370734B1868E4
:1043A0002CF082FF724B18682BF0BCFC4FF4FA70B3
:1043B00030F00EFE614B1B78DBB21E2BC2D801A27F
:1043C00052F823F0553F000055400000E340000044
:1043D000C34200004144000045430000B5440000D2
:1043E00045430000454300004543000045430000AD
:1043F000454300004543000045430000454300009D
:104400004543000031460000454300005D47000081
:1044100097490000A94A0000454300002D4D0000C7
:10442000454300004543000045430000454300006C
:104430004543000045430000454300002957000064
:10444000002290A94B4B18682AF07CFE00228FA90D
:10445000494B18682AF076FE9DF84232012B1FD096
:104460009DF83C32FA2B02D0FC2B00D013B9334B11
:1044700000221A709DF841326D2B7FF663AF3F4BDF
:104480001B7823B93E4B4FF48032C3F898200023A9
:104490003C4A13700C2288F80020284A137051E718
:1044A0009DF84132503BDBB21D2BD9D8234B06225D
:1044B0001A70D5E70022244B1A708FA92E4B18686A
:1044C0002AF040FE9DF83C32312B15D92E4A126855
:1044D00042B91A4A10211170FA2B01F0AB82FC2B61
:1044E0001ED110E0012AF7D1002292A9274B1868AB
:1044F0002AF028FE00284DD19DF83C32FA2B02D03C
:10450000FC2B00D063B9204A1268012A79D01E4AD8
:1045100012682AB9094A002111701B4A0121116051
:104520000A2B7FF40FAF1A4B1B780133DBB2F02B51
:104530006ED0174A137005E7D89B0120BD9B012060
:1045400054990120309B0120219C01200B9D0120CA
:10455000149B012001C0EC15449A012002C0EC1507
:10456000609A01203C990120FC9801207899012053
:104570003C9A01206C9A0120909A0120E99B01202D
:1045800000800041E39B0120289B0120789A0120B4
:104590002F9C01209DF848328DF878309DF84932E3
:1045A0008DF879309DF84A328DF87A309DF84B328B
:1045B0008DF87B309DF84C328DF87C309DF84D3273
:1045C0008DF87D30022300221EA9564800682AF08B
:1045D0009BFC9DF87830002B8ED00123524A13604B
:1045E000524A102111708DF88030514B18682CF010
:1045F0005BFE0223002220A94E4800682AF084FCBA
:104600007AE74A4A00211170474A0121116087E781
:104610000023494A1370454A1370484B40F2331245
:104620001A80474B01221A7008202DF0E7FE89E618
:10463000414B00221A70434B1B6873BB424B1B78E3
:10464000012B2ED1404B5B78012B2AD114468DF8DB
:104650008420022321A93D4800682AF055FC3C4BE8
:10466000869301238DF8E9318DF8223223466422A6
:1046700086A9384800682AF047FC642030F0A8FC7E
:104680004FF47A728FA9344B18682AF05BFD274BE0
:1046900012221A7005202DF0B1FE2A4B1B68012B47
:1046A00021D000228FA92C4B18682AF04BFD9DF8D1
:1046B0003C32FA2B04D0FC2B02D0002B7FF442AE0C
:1046C0001A4B00221A700123174A13601B4A4FF439
:1046D0009A7111801A4A1370062031F041FA0820AD
:1046E0002DF08CFE2EE61A4B869301238DF8E931CE
:1046F0008DF822320023642286A9164800682AF029
:1047000003FC642030F064FC4FF47A728FA9124BE2
:1047100018682AF017FD054B12221A7005202DF09B
:104720006DFEBEE748990120289B0120BD9B01201A
:104730002C990120449901202F9C01206E98012082
:10474000F99B0120309B0120D89B01205499012026
:1047500002C0EC15609A0120909A0120BC4B4FF4E6
:104760000012C3F8182100236C93BA4B6D930124F7
:104770008DF8B8418DF8B941002364226CA9B64880
:1047800000682AF0C1FBB54B18682CF08DFDB44BC6
:104790001C6000228DA9B34B18682AF0D3FC0028B6
:1047A00000F0D4809DF834329DF8352202EB0322CC
:1047B000AD4981FB0232931007EE903AF8EEE77AAA
:1047C0009DF836229DF8373203EB022381FB032349
:1047D0009B1007EE103AB8EEC77ABDEEC77A17EE17
:1047E000103A4EF6602292FBF3F303EB8303A340EF
:1047F00007EE103AB8EEC77A9C4B83ED007AB2EE22
:10480000047A67EE877A93ED007AF4EEC77AF1EED8
:1048100010FA48BFC3ED007A954B869300248DF8BB
:1048200022422346642286A9924800682AF06CFB43
:10483000642030F0CDFB904B83938C4AD2ED007A0C
:10484000FCEEE77A17EE903A8DF81032D2ED007A4E
:10485000FCEEE77A17EE903AC3F307238DF8113296
:1048600070238DF8123217238DF8133210238DF830
:10487000143227238DF8153214258DF816528DF831
:1048800017422346642283A97C4800682AF03CFB37
:104890004FF4FA7030F09CFB8DF810528DF81142F5
:1048A000C8238DF812328DF813428DF814528DF80A
:1048B000154264258DF816528DF81742704B83937C
:1048C00023462A4683A96D4800682AF01DFB4FF451
:1048D000FA7030F07DFB02238DF8E9318DF8223239
:1048E00003F1AF5303F54C23869323462A4686A94A
:1048F000604800682AF008FB4FF4FA7030F068FB5B
:1049000007202DF07BFD22468FA95E4B18682AF008
:1049100019FC9DF83C325B3BDBB2092B2ED99DF88C
:104920003C32FA2B02D0FC2B00D07BB9564B002234
:104930001A70564B40F235121A80554B01221A70EC
:10494000082031F00DF908202DF058FD00241E94A8
:10495000ADF87C408DF880400223224620A94D48C6
:1049600000682AF0D1FA022322461EA94A480068AC
:104970002AF0CAFA494B1C809C70E3E4424B132294
:104980001A704FF47A7030F023FB314B4FF4002251
:10499000C3F81421C3E7002290A9414B18682AF0FC
:1049A000D1FB9DF84132312B4DD93E4B1B78012B69
:1049B00030D1274BD3F8A03013F4000F19D10123C5
:1049C0008DF8E8318DF820320C238DF8E9318DF81F
:1049D0002232274B86930023642286A9254800684B
:1049E0002AF092FA642030F0F3FA274B14221A705E
:1049F00029E0254B00221A70244B40F235121A8010
:104A0000234B01221A70072031F0AAF808202DF05C
:104A1000F5FC18E001238DF8E8318DF820320C23E5
:104A20008DF8E9318DF82232114B869300236422F0
:104A300086A9104800682AF067FA642030F0C8FAA6
:104A4000114B14221A704FF47A7030F0C1FA79E4E5
:104A50000080004100004843F4990120F8990120AA
:104A6000309B0120809A012067666666C499012008
:104A700002C0EC15609A012003C0EC15449A012095
:104A800004C0EC15909A0120BD9B01206E98012076
:104A9000F99B01204499012048990120D89B0120CD
:104AA0006C9A01202B9D012000228CA9844B186850
:104AB0002AF048FB9DF830329DF8312202EB0322A8
:104AC000804981FB0232921007EE902AF8EEE77AD5
:104AD0007D4BC3ED007A9DF832229DF8333203EB13
:104AE000022381FB03239B1007EE103AB8EEC77A2E
:104AF000764B83ED007A4FF080436C93CDED6D7A69
:104B000001238DF8B8318DF8B931002364226CA9E6
:104B10006F4800682AF0F8F96E4B18682CF0C4FB57
:104B20009DF831328DF81C329DF830328DF81D32EF
:104B3000694B86930023642286A9684800682AF09E
:104B4000E3F90A2030F044FA00228FA9644B186878
:104B50002AF0F8FA00283FF4F5AB9DF83C32782BA8
:104B60001ED09DF83C32FA2B04D0FC2B02D0002B37
:104B70007FF4E8AB5B4B1E221A705B4B4FF49B72C9
:104B80001A805A4B01221A70082030F0E9FF0820E1
:104B90002DF034FC564B1A68564B1A60FFF7D2BB07
:104BA000554B1D6833F0ECFA4EF660240094002358
:104BB0000246012128462FF04FF9504B1D6833F073
:104BC000DFFA009400230246012128462FF044F921
:104BD0004B4B1D6833F0D4FA0094002302460121A8
:104BE00028462FF039F9474B1D6833F0C9FA009475
:104BF00000230246012128462FF02EF9424B1D6862
:104C000033F0BEFA009400230246012128462FF01B
:104C100023F93E4B1D6833F0B3FA0094002302469B
:104C2000012128462FF018F909202DF0E7FB032079
:104C300030F0D0FE2B4B16221A70354B18782FF01F
:104C40001FFD642030F0C4F9324C20782FF034FD81
:104C5000642030F0BDF9304D28882FF049FD6420E4
:104C600030F0B6F92D4908782FF07AFD642030F045
:104C7000AFF92B4800782FF057FD642030F0A8F9E9
:104C8000284A10782FF088FD642030F0A1F9184BE5
:104C90001A68254B1A60298823781D4A12781B024E
:104CA00043EA014313435D931D4801781B4B1B7876
:104CB0001C4A12781B0243EA014313435E9350E7F8
:104CC000889A0120676666669C9B0120F49A012001
:104CD000F4990120F899012005C0EC15609A012093
:104CE000909A0120BD9B01206E980120F99B012024
:104CF000B0990120249A012090990120D89A01208E
:104D0000609B0120649B0120689B01206C9B01201B
:104D1000079C0120209C0120FA8C01201F9C01206F
:104D2000109C01202E9C01201C9A012000221DA90C
:104D3000BB4B18682AF006FA28B1BA4A9DF87430BD
:104D400011880B441380B84B18682CF0ADFAB54BA2
:104D500018882FF0EDFBB54B1B78072B00F0D9819D
:104D600000228CA9B24B18682AF0ECF9002800F058
:104D7000FC809DF832329DF8332202EB0322AD49CC
:104D800081FB0232920807EE902AB8EE677AAA4BAE
:104D900083ED007A9DF830229DF8313203EB022337
:104DA00081FB03239B0807EE903AF8EE677AA34B4A
:104DB000C3ED007AA24BD3ED006AB4EEE67AF1EED1
:104DC00010FA02DD1A689C4B1A609B4BD3ED006A07
:104DD00027EEA67A9B4B83ED007A9B4B1B78002B2A
:104DE00040F08880994B1A68994B1A6093ED006ADD
:104DF000B4EEC67AF1EE10FA35D5964B1B7833BB7C
:104E00009FED957A77EE877ACDED6D7A904B93EDA5
:104E1000006A924B93ED007AC6EE077AF4EEE76AE9
:104E2000F1EE10FAC0F27A81B6EE007A67EE877A78
:104E3000CDED6C7A03238DF8B93101238DF8B831AB
:104E4000022300226CA9864800682AF05DF8814B95
:104E50001B78DBB2012B00F06E817E4B1B78DBB23E
:104E6000012B00F0A3817A4BD3ED007A754B93EDC3
:104E7000007AB4EEE77AF1EE10FA3BDD754B1B7861
:104E800063BB6E4BD3ED007A9FED737A77EE877A32
:104E9000CDED6D7A6E4BD3ED006A704B93ED007AD9
:104EA000C6EE877A644B93ED007AF4EEC77AF1EEA2
:104EB00010FA00F2BA81B6EE007A67EE877ACDED8D
:104EC0006C7A03238DF8B93101238DF8B8310223B0
:104ED00000226CA9624800682AF016F85D4B1B7826
:104EE000DBB2012B00F0AE815A4B1B78DBB2012BF9
:104EF00000F0E381544B1B78DBB2012B00F03E82C3
:104F0000584C22789500584B2B4454490968196035
:104F10009DF832129DF83302544B1D4400EB0123DF
:104F2000DFF810C18CFB03C39B0807EE903AF8EE44
:104F3000677AC5ED007A013222709DF831328DF822
:104F40001C329DF830328DF81D328DF81E028DF81E
:104F50001F12474B86930023642286A945480068A8
:104F600029F0D2FF322030F033F8002289A9424BD9
:104F700018682AF0E7F8A0B1404A13789DF8260295
:104F80003F49C854062188F8001001331370274B9D
:104F90001B78042B40F2BD82244B1B78052B00F0BC
:104FA000C382304B1B78052B00F0C682334B1B7835
:104FB000052B00F01983334B1B78DBB2012B00F07B
:104FC0003183304B1B78DBB2012B00F03A834FF476
:104FD0007A7294A92C4B18682AF0B4F830B19DF875
:104FE00056321BB103F52F73284A138000228FA974
:104FF000274B18682AF0A6F8002859D09DF83C32B3
:10500000292B03D0FA2B01D0FC2B51D1214B1E228E
:105010001A70092388F800301F4BCA221A803DE01D
:10502000749901206E95012060990120159C012042
:10503000889A012067666666F49A01209C9B01208D
:10504000F49D0120549B0120F09B0120089E01202B
:10505000E0990120E99B0120000000000C9E012046
:10506000F49901201A9C0120789601205096012085
:1050700005C0EC15609A0120849A0120129C012041
:1050800068980120E39B0120689A0120328F01205B
:10509000909A0120BD9B01206E980120A64B012211
:1050A0001A700A2030F05CFDA44B1A68A44B1A60F9
:1050B0009DF82432012B00F0FF82002290A9A14B21
:1050C00018682AF03FF868B19DF84132463BDBB2E0
:1050D0003B2B07D89C4A13780133DBB21370052BA6
:1050E00000F2FD82994B1B78012B00F00983984B4D
:1050F0001B88B3F5397F05D0A3F2E72292B2012ACB
:105100003FF620A9934A1380914B00221A80FFF7A3
:1051100019B9914B187830F0EBF921E6F4EEE76A13
:10512000F1EE10FA7FF586AEF6EE007A66EEA76A2B
:10513000CDED6C6A7EE6894B1B78DBB2112B7FF6D6
:105140008CAE874B4FF40012C3F81821854BD3ED7A
:10515000007A9FED857A77EE877ACDED6D7A834B75
:10516000D3ED006A824BD3ED007A86EEA77A814BAD
:10517000D3ED007AB4EEE77AF1EE10FA0ED88DEDA9
:105180006C7A01238DF8B9318DF8B83102230022F1
:105190006CA97948006829F0B7FE64E6B4EEE77AB6
:1051A000F1EE10FAC8BFCDED6C7AEAE76B4B1B78D5
:1051B000DBB2112B3FF657AE6A4BD3ED007A9FED71
:1051C0006A7A77EE877ACDED6D7A684BD3ED006A17
:1051D000674BD3ED007A86EEA77A664BD3ED007A63
:1051E000B4EEE77AF1EE10FA13D8F6EE007A27EE75
:1051F000277A8DED6C7A03238DF8B93101238DF870
:10520000B831022300226CA95B48006829F07CFEBB
:1052100029E6B4EEE77AF1EE10FAECDDB6EE007AAC
:1052200067EE877ACDED6C7AE5E7F4EEC77AF1EEBA
:1052300010FA7FF746AEF6EE007A27EE277A8DED6C
:105240006C7A3EE6454B1B78DBB2112B7FF64CAEF9
:10525000434B4FF40012C3F81821424BD3ED007AB0
:105260009FED417A77EE877ACDED6D7A3F4BD3EDA6
:10527000006A3F4BD3ED007A86EEA77A3D4BD3ED23
:10528000007AB4EEE77AF1EE10FA0ED88DED6C7A72
:1052900001238DF8B9318DF8B831022300226CA9B1
:1052A0003548006829F030FE24E6B4EEE77AF1EEE6
:1052B00010FAC8BFCDED6C7AEAE7284B1B78DBB259
:1052C000112B3FF617AE274BD3ED007A9FED267AD0
:1052D00077EE877ACDED6D7A244BD3ED006A244BBF
:1052E000D3ED007A86EEA77A224BD3ED007AB4EEA6
:1052F000E77AF1EE10FA13D8F6EE007A27EE277A65
:105300008DED6C7A03238DF8B93101238DF8B83116
:10531000022300226CA91848006829F0F5FDE9E590
:10532000B4EEE77AF1EE10FAECDDB6EE007A67EE55
:10533000877ACDED6C7AE5E7F99B0120B0990120E1
:10534000249A01206C9A0120059C0120D89B012001
:10535000328F01206E980120DB9B0120C19B012030
:10536000008000419C9B012000000000E09901208A
:105370000C9E0120F49A0120F4990120BC4B1B786B
:105380005BBBBC4BD3ED007A9FEDBB7A77EE877A9F
:10539000CDED6D7AB94BD3ED006AB94B93ED007A40
:1053A000C6EE877AB74B93ED007AF4EEC77AF1EE4A
:1053B00010FA50D8B6EE007A67EE877ACDED6C7AA7
:1053C00003238DF8B93101238DF8B831022300226F
:1053D0006CA9AD48006829F097FDA54B1B78DBB29E
:1053E000012B44D0A24B1B78DBB2012B7FF488AD9C
:1053F000A64B1B78DBB2112B3FF682AD9D4BD3ED54
:10540000007A9FED9D7A77EE877ACDED6D7A9B4B92
:10541000D3ED006A9A4BD3ED007A86EEA77A994BCA
:10542000D3ED007AB4EEE77AF1EE10FA65D8F6EE35
:10543000007A27EE277A8DED6C7A03238DF8B93147
:1054400001238DF8B831022300226CA98E48006830
:1054500029F05AFD54E5F4EEC77AF1EE10FAAFDD0B
:10546000F6EE007A27EE277A8DED6C7AA8E7874B67
:105470001B78DBB2112BB5D9854B4FF40012C3F862
:1054800018217E4B93ED007ADFED827AB4EEE77A55
:10549000F1EE10FAC8BFC3ED007A764BD3ED007A77
:1054A0009FED757A77EE877ACDED6D7A734BD3EDFC
:1054B000006A734BD3ED007A86EEA77A714BD3ED79
:1054C000007AB4EEE77AF1EE10FA0ED88DED6C7A30
:1054D00001238DF8B9318DF8B831022300226CA96F
:1054E0006948006829F010FD0AE5B4EEE77AF1EEAC
:1054F00010FAC8BFCDED6C7AEAE7B4EEE77AF1EEC8
:1055000010FA9ADDB6EE007A67EE877ACDED6C7A06
:1055100093E72FF0EDFF604A1378013313709DF885
:1055200026225E4B1A7037E59DF826328AF8003045
:10553000594B07221A7034E54FF0000C584B83F892
:1055400000C0B9F80010BBF80000564B564A03F1F2
:10555000140ECDF80CC01D461446029101E07345AF
:1055600025D0F3EC017A95ED007AB4EEE77AF1EE0E
:1055700010FA09D8C5ED007AFCEEE77A17EE901A1A
:1055800089B202914FF0010CF2EC017A94ED007AAD
:10559000B4EEE77AF1EE10FAE1D8C4ED007AFCEE51
:1055A000E77A17EE901A88B201210391D7E70299A2
:1055B000BCF1000F01D0A9F80010039B0BB1ABF8B0
:1055C0000000384BD3ED007AFCEEE77A17EE900A34
:1055D0002EF0E6FF344BD3ED007AFCEEE77A17EEBF
:1055E000900A2EF0C1FFE1E40024304B1C7096F8C5
:1055F00000C02F4B5D1D18464FF0010E01E0AB427D
:1056000008D013F8012B01789142F8D80270944623
:105610007446F4E70CB186F800C0254B18782FF0DB
:105620004FFFC8E4124B1B78002B7FF4CAAC00225A
:105630008DF88420022321A91E48006829F064FC0B
:10564000BFE40B4B1B78DBB2012B7FF4C0AC0F4BDC
:105650001B78DBB2132B7FF6BAAC00228DF88420C6
:10566000022321A91348006829F04EFCAFE400BFD3
:10567000E99B01209C9B012000000000E49901208F
:105680000C9E0120F49A0120F4990120C19B012075
:10569000008000410060EA46159C0120DB9B012050
:1056A0001A9C01205096012078960120129C01201E
:1056B0006898012054990120B64B1E221A700920C7
:1056C00088F80000B44BC9221A80B44B01221A702A
:1056D00030F046FAB24B1A68B24B1A60EDE4AD4BAB
:1056E0001E221A70092388F80030AC4B01221A7070
:1056F0000A2030F035FAAA4B1A68AA4B1A60F1E476
:10570000A94B9B78012B7FF4F2ACA24B1E221A709E
:10571000092388F80030A44B00221A809A70A04B0D
:105720001A68A04B1A60E2E4A04B1B78DBB2012B95
:1057300000F003819D4B1B78DBB2012B00F013813D
:105740004FF003038DF8E7318DF81D32984B8693A7
:10575000984D0023642286A9286829F0D5FB3220C1
:105760002FF036FC00248DF81C428DF81D42924A21
:1057700086922346642286A9286829F0C5FB322038
:105780002FF026FC8D494FF40020C1F81801844BFE
:105790001B6884480360854B1C708DF8B841012359
:1057A0008DF8B931022322466CA98548006829F09A
:1057B000ABFB40F6B8302FF00BFC4FF0030C8DF82C
:1057C0001DC27B4B8693234664220DF5067C614601
:1057D000286829F099FB32202FF0FAFB8DF81C4243
:1057E0008DF81D42744A8692234664220DF5067C8C
:1057F0006146286829F088FB32202FF0E9FB6F49C9
:105800004FF40023C1F818310A230093234622469F
:1058100003216C4800682EF01FFB6B4B18782EF0AC
:10582000D7FF6A4B18782EF0EFFF694B18882FF0DE
:1058300007F8684B18782FF03BF8674B18782FF073
:105840001BF8664B18782FF04FF8654B18682FF04F
:1058500083F85448D0ED007AFCEEE77A614B93ED83
:10586000007ABCEEC77A17EE100A17EE903A181AB3
:105870005D4B18602FF054F85C4B1B78DBB2012BAA
:1058800000F0CC80594B1B78DBB2022B00F0CA80B1
:10589000564B1B78DBB2032B00F0C880544B0C2214
:1058A0001A70052030F096F84D4B1B685C93484BFE
:1058B0001988464B1B78444A12781B0243EA01437D
:1058C00013435F93444B1978424B1B78434A127839
:1058D0001B0243EA014313436093464B1A78337823
:1058E00043EA02436193404B1B6843F48033629365
:1058F0003E4B1A78404C238843EA024363930223C9
:105900008DF86831002364225AA93C48006829F0C8
:10591000FBFA3B4B18682BF0C7FC01233B600022CD
:10592000228038490B7038490B7038490B70384960
:105930000B70384B1A70FEF705BD374B1B78002BE8
:105940007FF4F8AE00228DF8B82103238DF8B93129
:1059500002236CA91A48006829F0D6FA40F6B8303C
:105960002FF036FBE6E62C4B1B78DBB2012B7FF4E5
:10597000E7AE00228DF8B8218DF8B93102236CA969
:105980000F48006829F0C0FA40F6B8302FF020FB2D
:10599000D6E600BFBD9B01206E980120F99B012037
:1059A000B0990120249A0120D89B0120E39B01207B
:1059B00002C0EC15609A012005C0EC150080004182
:1059C000F499012090990120079C0120209C01203E
:1059D000FA8C01201F9C0120109C01202E9C01208C
:1059E000E89801201C9A012010990120F89B0120C1
:1059F0000B9D0120DB9B01206E9501206C990120FD
:105A000070990120CD9B0120E29B0120DD9B0120AC
:105A1000D19B0120059C0120E99B0120012030F051
:105A20009FF82FE7022030F09BF831E7032030F099
:105A300097F833E7034A1268002A3EF46BADFEF78D
:105A400081BC00BF289B0120E49D012004000000D0
:105A50000100000000000000709501201C00000003
:105A60000000000020970120080000000000000056
:105A70008C9501201C00000000000000A096012071
:105A8000100000000000000028970120180000000E
:105A900000000000A89501201C000000000000008C
:105AA000B096012010000000000000004097012087
:105AB0001000000000000000C88D0120C0000000A0
:105AC00000000000CA9B012002000000000000004E
:105AD0005C9401202C000000000000006C93012069
:105AE000F0000000000000005097012010000000AE
:105AF00000000000E89D01200400000001000000FB
:105B0000AAAAAAAA789801200400000000000000B8
:105B1000A0010020608A0100000000007C980120A4
:105B20001000000000000000609701200800000045
:105B3000000000008C980120080000000000000018
:105B4000C495012028000000000000009498012066
:105B500018000000000000002491012064000000F3
:105B600000000000AC9801201400000000000000BC
:105B7000EC9501202800000000000000C0980120E2
:105B80001000000000000000149601201400000026
:105B900000000000D0980120040000000000000078
:105BA000289601202800000000000000D498012061
:105BB0000800000000000000EC9D0120040000002F
:105BC000010000000400000010000020900100000F
:105BD00000000000DC98012014000000000000001C
:105BE000DB9101200100000000000000C79B0120A4
:105BF0000100000000000000F098012004000000F7
:105C000000000000D79B0120010000000000000000
:105C1000F498012004000000000000006D980120AD
:105C20000100000000000000F89801200C000000B6
:105C30000000000075980120010000000000000035
:105C4000B99B01200100000000000000BD9B012065
:105C50000100000000000000C19B012001000000C5
:105C60000000000004990120140000000000000062
:105C7000CE9B012002000000000000005096012091
:105C80001400000000000000D29B01200200000070
:105C900000000000649601201400000000000000D5
:105CA000DE9B012002000000000000007896012029
:105CB0001400000000000000E09B01200200000032
:105CC000000000008C96012014000000000000007D
:105CD000189901200400000000000000B892012083
:105CE00040000000000000008894012050000000E7
:105CF00000000000E08F0120A40000000000000070
:105D00001C99012008000000000000002C920120D6
:105D10004600000000000000DC9B012001000000A4
:105D200000000000249901203C0000000000000059
:105D30007292012002000000000000003693012052
:105D400002000000000000006A9301200200000031
:105D50000000000060990120040000000000000025
:105D6000DB9B01200100000000000000C99B012016
:105D700001000000000000006499012010000000F4
:105D800000000000CD9B0120010000000000000089
:105D9000D19B01200100000000000000DD9B0120DC
:105DA0000100000000000000E29B01200100000053
:105DB000000000006E9501200200000000000000BD
:105DC000749901200400000000000000E39B012002
:105DD0000100000000000000789901200800000088
:105DE00000000000E49B012005000000000000000E
:105DF0001E97012002000000000000008099012091
:105E00000400000000000000E99B012001000000E8
:105E1000000000008499012008000000000000003C
:105E2000EA9B012002000000000000008C99012084
:105E30000400000000000000EC9B012001000000B5
:105E400000000000909901203000000000000000D8
:105E5000ED9B01200300000000000000C09901201C
:105E60000C00000000000000889101205300000099
:105E700000000000CC990120380000000000000064
:105E8000389301203200000000000000049A012035
:105E90001400000000000000F09B01200200000040
:105EA00000000000189A012004000000000000001B
:105EB000F29B012003000000000000006898012010
:105EC0000500000000000000F59B0120010000001B
:105ED0000000000070980120050000000000000094
:105EE0001C9A01200800000000000000F69B012021
:105EF0000200000000000000D89B01200300000009
:105F000000000000D49B01200300000000000000FE
:105F1000249A01200800000000000000F89B0120E6
:105F20000100000000000000149701200A0000009A
:105F3000000000006E980120020000000000000038
:105F4000F99B012001000000000000002C9A0120B4
:105F50000400000000000000FA9B01200100000086
:105F60000000000076980120020000000000000000
:105F7000BA9B01200200000000000000BE9B01202F
:105F80000200000000000000689701206800000087
:105F900000000000309A01202000000000000000F6
:105FA000D09701206800000000000000509A0120F6
:105FB0008000000000000000389801203000000040
:105FC00000000000FB9B0120010000000000000019
:105FD000D09A01200400000000000000FC9B01207A
:105FE0000200000000000000D49A0120040000001C
:105FF00000000000FE9B01200100000000000000E6
:10600000D89A01200400000000000000F89201204E
:106010003E00000000000000C29B012002000000C2
:1060200000000000D8940120500000000000000093
:10603000008C0120FA00000000000000FF9B0120FE
:106040000100000000000000DC9A012008000000B0
:1060500000000000009C0120030000000000000080
:10606000E49A01200800000000000000039C0120C9
:106070000200000000000000EC9A01200400000073
:1060800000000000059C012002000000000000004C
:10609000F09A01200C00000000000000079C012085
:1060A0000200000000000000FC9A01200400000033
:1060B00000000000099C0120010000000000000019
:1060C000009B01200800000000000000888E0120D5
:1060D000AA00000000000000089B0120040000004E
:1060E000000000000A9C01200300000000000000E6
:1060F000D09B012001000000000000000D9C012049
:1061000001000000000000000C9B012004000000C2
:106110000000000074920120440000000000000014
:10612000109B01200C000000000000000E9C0120CC
:106130000200000000000000CC9B012001000000D4
:1061400000000000C89B01200100000000000000CA
:106150001C9B01200800000000000000109C012092
:106160000500000000000000249B01200400000046
:1061700000000000159C0120050000000000000048
:10618000289B012010000000000000001A9C012044
:106190000200000000000000389B01200400000005
:1061A000000000001C9C0120030000000000000013
:1061B0003C9B01200800000000000000348F0120FB
:1061C000AA00000000000000449B01200400000021
:1061D000000000001F9C01200100000000000000E2
:1061E000489B01200400000000000000209C0120CA
:1061F0000100000000000000328F012002000000BA
:1062000000000000DE8F01200200000000000000FE
:10621000C49B01200300000000000000219C01201D
:1062200006000000000000004C9B0120040000005C
:1062300000000000279C0120020000000000000078
:10624000509B01200C00000000000000299C012050
:1062500001000000000000005C9B01200400000021
:10626000000000002A9C0120010000000000000046
:10627000609B012004000000000000002B9C012016
:106280000100000000000000649B012004000000E9
:10629000000000002C9C0120010000000000000014
:1062A000689B012004000000000000002D9C0120DC
:1062B00001000000000000006C9B012008000000AD
:1062C00000000000C09B0120010000000000000051
:1062D000BC9B01200100000000000000B89B0120D1
:1062E0000100000000000000749B01201C00000061
:1062F0000000000084900120A000000000000000C9
:10630000C096012010000000000000002E9C01201B
:106310000100000000000000F096012024000000B1
:1063200000000000909B012004000000000000001D
:106330002F9C01200200000000000000949B01201F
:106340000400000000000000D096012010000000B2
:1063500000000000FC8C0120CC00000000000000C8
:10636000989B01200C00000000000000FA8C012026
:1063700002000000000000007A9C012002000000E2
:1063800001000000040100009A9C012002000000AE
:1063900001000000B40000007C9C01201E000000F1
:1063A000010000005AA51B82524068747470733A51
:1063B0002F2F7777772E7374617469712E696E2F22
:1063C000FFFF0000D39C012001000000010000003D
:1063D0000C000000E79C012001000000010000000B
:1063E0000C0000000B9D01200100000001000000D6
:1063F00003000000839D0120010000000100000057
:106400000F0000008F9D012001000000010000002E
:10641000460000009B9D01200100000001000000DB
:1064200050000000FA9C0120020000000100000062
:10643000013C00001A9D0120020000000100000044
:10644000413C00002A9D01200200000001000000E4
:10645000410100003A9D01200200000001000000FF
:10646000010100004A9D012002000000010000001F
:10647000140100005A9D01200200000001000000EC
:1064800001010000A69D01200100000001000000A4
:10649000010000009C9C01201E0000000100000083
:1064A000454D455247454E43595F425554544F4E12
:1064B0005F505245535345442F4F4E0D0A00000084
:1064C000BC9C01201700000001000000454D455212
:1064D00047454E435920425554544F4E204F46464F
:1064E0000D0A0000F09D01200400000001000000E2
:1064F000666646400C9D01200E0000000100000071
:1065000047464349204E4F54204F4B0D0A00000090
:106510009C9D01200A0000000100000047464349FD
:10652000204F4B0D0A000000F49D012004000000E4
:106530000100000000004843A79D01200100000069
:106540000100000001000000F89D0120040000008F
:106550000100000000004843B29D0120010000003E
:1065600001000000010000001C9D01200E00000041
:1065700001000000494D4431204E4F54204F4B0D37
:106580000A000000A89D01200A0000000100000090
:10659000494D4431204F4B0D0A0000002C9D012035
:1065A0000E00000001000000494D4432204E4F54BF
:1065B000204F4B0D0A000000B49D01200A0000008E
:1065C00001000000494D4432204F4B0D0A000000ED
:1065D0006C9D01200C000000010000004741544563
:1065E000204F50454E0D0A003C9D01200E0000003A
:1065F000010000004741544520434C4F5345440D92
:106600000A000000FC9D01200400000001000000C1
:10661000CDCCCC3FFC9C01200F000000010000000D
:106620005048415345204E4F54204F4B0D0A000017
:10663000789D01200B0000000100000050484153EC
:10664000455F4F4B0D0A0000009E01200C0000002A
:1066500001000000000000400000004000606A47A8
:10666000849D01200B0000000100000052474231D0
:10667000204F46460D0A0000C09D01200A00000080
:1066800001000000524742315F4F4E0D0A000000EA
:10669000909D01200B000000010000005247423293
:1066A000204F46460D0A0000CC9D01200A00000044
:1066B00001000000524742325F4F4E0D0A000000B9
:1066C000BA9C01200200000001000000AF4A000057
:1066D000D49C01201300000001000000534D4F4BDB
:1066E000452049532050524553454E540D0A000051
:1066F000E89C01201200000001000000534D4F4BA8
:1067000045204E4F542054484552450D0A00000084
:106710005C9D01200D00000001000000535044204A
:106720004E4F54204F4B0D0A00000000D89D012011
:106730000900000001000000535044204F4B0D0A97
:10674000000000000C9E0120080000000100000075
:106750000000484300004843349C012046000000EC
:10676000010000004170706C69636174696F6E2094
:1067700072756E20616674657220726563696576F4
:10678000696E6720636F6D6D616E64207468726FEF
:1067900075676820626F6F746C6F616465722064E6
:1067A0006F6E652E2E2E2E0D0A0000004C9D0120CE
:1067B0000E00000001000000494E54455252555051
:1067C0005445440D0A000000149E012004000000FE
:1067D0000100000000004843A49B012008000000C5
:1067E00000000000E0960120100000000000000002
:1067F000289501204600000000000000AC9B01200D
:106800000400000000000000DC91012050000000A6
:1068100000000000B09B0120080000000000000004
:10682000189E01200400000001000000000000008C
:106830000000000000000000666666666666666628
:1068400066666666666666666666666666666666E8
:08685000666666666666666610
:1073580038B50446D4485A230370A523437007233D
:1073680083708223C3701423037102234371D4F8FA
:1073780000311A0E82711A0CC2711A0A0272437213
:10738800CA4B4FF400229A610A212AF003FD30F01B
:10739800D5FC0028FBD0C54B4FF400225A61C248E7
:1073A8005A210170A5214170052181708221C17087
:1073B800142101710621417100218171B4F81E1157
:1073C800C1719A6108212AF0E5FC30F0B7FC002869
:1073D800FBD0B64B4FF400225A61B3485A210170D2
:1073E800A5214170052181708221C170142101718C
:1073F8000821417100258571D4F80451C5719A613D
:107408002AF0C8FC30F09AFC0028FBD0A74A4FF4B9
:1074180000215161A4485A230370A5234370052312
:1074280083708223C370142303710A2343710023DA
:107438008371D4F804311B0AC371916108212AF0C1
:10744800A9FC30F07BFC0028FBD0984B4FF40022BD
:107458005A6195485A210170A52141700521817012
:107468008221C170142101710C21417100218171A7
:10747800B4F80611C1719A6108212AF08BFC30F02A
:107488005DFC0028FBD0894B4FF400225A618648E6
:107498005A210170A5214170052181708221C17096
:1074A800142101710E21417100218171B4F80E116E
:1074B800C1719A6108212AF06DFC30F03FFC002868
:1074C800FBD07A4A4FF40021516177485A23037060
:1074D800A5234370052383708223C370142303718B
:1074E8001023437100238371D4F80C311B0AC37134
:1074F800916108212AF04EFC30F020FC0028FBD0D6
:107508006A4B4FF400225A6167485A210170A5213D
:107518004170052181708221C170142101711221ED
:10752800417100218171D4F80C11C1719A6108214F
:107538002AF030FC30F002FC0028FBD05B4A4FF404
:107548000021516158485A230370A523437007232B
:1075580083708223C3701423037116234371D4F8F4
:1075680020311D0E85711D0CC5711D0A05724372EF
:1075780091610A212AF00EFC30F0E0FB0028FBD0D4
:107588004A4B4FF400225A6147485A210170A521FD
:107598004170052181708221C170142101711A2165
:1075A800417100218171B4F83E11C1719A610821BD
:1075B8002AF0F0FB30F0C2FB0028FBD03B4B4FF425
:1075C80000225A6138485A210170A52141700521CD
:1075D80081708221C170142101711C214171002127
:1075E8008171D4F82411C1719A6108212AF0D2FB63
:1075F80030F0A4FB0028FBD02C4A4FF40021516145
:1076080029485A230370A5234370052383708223D6
:10761800C370142303711E23437100238371D4F8AC
:1076280024311B0AC371916108212AF0B3FB30F0A1
:1076380085FB0028FBD01D4B4FF400225A611A48E5
:107648005A210170A5214170052181708221C170E4
:10765800142101712021417100218171B4F8261192
:10766800C1719A6108212AF095FB30F067FB002868
:10767800FBD00E4B4FF400225A610B485A2101707F
:10768800A5214170052181708221C17014210171E9
:107698002221417100218171B4F82E11C1719A61C2
:1076A80008212AF077FB03E0509501200080004173
:1076B80030F044FB0028FBD0D54A4FF4002151613B
:1076C800D4485A230370A52343700523837082236B
:1076D800C370142303712423437100238371D4F8E6
:1076E8002C311B0AC371916108212AF053FB30F039
:1076F80025FB0028FBD0C64B4FF400225A61C54831
:107708005A210170A5214170052181708221C17023
:10771800142101712621417100218171D4F82C11A5
:10772800C1719A6108212AF035FB30F007FB002867
:10773800FBD0B74A4FF400215161B6485A23037071
:10774800A5234370072383708223C3701423037116
:107758002A234371D4F840311D0E85711D0CC57163
:107768001D0A0572437291610A212AF013FB30F059
:10777800E5FA0028FBD0A64B4FF400225A61A54831
:107788005A210170A5214170052181708221C170A3
:10779800142101712E21417100218171B4F85E110B
:1077A800C1719A6108212AF0F5FA30F0C7FA002869
:1077B800FBD0974B4FF400225A6196485A2101702A
:1077C800A5214170052181708221C17014210171A8
:1077D8003021417100218171D4F84411C1719A613D
:1077E80008212AF0D7FA30F0A9FA0028FBD0884AF5
:1077F8004FF40021516187485A230370A523437031
:10780800052383708223C3701423037132234371C9
:1078180000238371D4F844311B0AC3719161082194
:107828002AF0B8FA30F08AFA0028FBD0784B4FF4E7
:1078380000225A6177485A210170A521417005211B
:1078480081708221C170142101713421417100219C
:107858008171B4F84611C1719A6108212AF09AFA27
:1078680030F06CFA0028FBD0694B4FF400225A61C3
:1078780068485A210170A521417005218170822133
:10788800C170142101713621417100218171B4F850
:107898004E11C1719A6108212AF07CFA30F04EFA33
:1078A8000028FBD05A4A4FF40021516159485A2305
:1078B8000370A5234370052383708223C3701423A8
:1078C80003713823437100238371D4F84C311B0AA8
:1078D800C371916108212AF05DFA30F02FFA00286F
:1078E800FBD04B4B4FF400225A614A485A21017091
:1078F800A5214170052181708221C1701421017177
:107908003A21417100218171D4F84C11C1719A61F9
:1079180008212AF03FFA30F011FA0028FBD03C4A3F
:107928004FF4002151613B485A230370A52343704B
:10793800072383708223C370142303714023437188
:10794800D4F860311D0E85711D0CC5711D0A0572B4
:10795800437291610A212AF01DFA30F0EFF90028EC
:10796800FBD02B4B4FF400225A612A485A21017050
:10797800A5214170052181708221C17014210171F6
:107988004421417100218171B4F87E11C1719A615D
:1079980008212AF0FFF930F0D1F90028FBD01C4B60
:1079A8004FF400225A611B485A210170A5214170E9
:1079B800052181708221C170142101714621417114
:1079C80000218171D4F86411C1719A6108212AF0EB
:1079D800E1F930F0B3F90028FBD00D4A4FF400214B
:1079E80051610C485A230370A52343700523837003
:1079F8008223C370142303714823437100238371C6
:107A0800D4F864311B0AC3719161082104E000BFF6
:107A180000800041509501202AF0BCF930F08EF921
:107A28000028FBD0D54B4FF400225A61D4485A2184
:107A38000170A5214170052181708221C170142136
:107A480001714A21417100218171B4F86611C17137
:107A58009A6108212AF09EF930F070F90028FBD0CD
:107A6800C64B4FF400225A61C5485A210170A5211E
:107A78004170052181708221C170142101714C214E
:107A8800417100218171B4F86E11C1719A610821A8
:107A98002AF080F930F052F90028FBD0B74A4FF4A9
:107AA80000215161B6485A230370A523437005236A
:107AB80083708223C370142303714E234371002300
:107AC8008371D4F86C311B0AC371916108212AF0C3
:107AD80061F930F033F90028FBD0A84B4FF40022AD
:107AE8005A61A7485A210170A5214170052181706A
:107AF8008221C170142101715021417100218171CD
:107B0800D4F86C11C1719A6108212AF043F930F058
:107B180015F90028FBD0994A4FF400215161984883
:107B28005A230370A5234370072383708223C370ED
:107B38001423037156234371D4F880311D0E8571C7
:107B48001D0CC5711D0A0572437291610A212AF044
:107B580021F930F0F3F80028FBD0884B4FF40022CD
:107B68005A6187485A210170A525457005258570F9
:107B78008225C57014250571417100218171B4F801
:107B88009E11C1719A6108212AF004F930F0D6F8E3
:107B98000028FBD0794B4FF400225A6178485A21CB
:107BA8000170A5214170052181708221C1701421C5
:107BB80001715C21417100218171D4F88411C17176
:107BC8009A6108212AF0E6F830F0B8F80028FBD0CE
:107BD8006A4A4FF40021516169485A230370A5236A
:107BE8004370052383708223C370142303715E23BB
:107BF800437100238371D4F884311B0AC3719161E6
:107C080008212AF0C7F830F099F80028FBD05B4B20
:107C18004FF400225A615A485A210170A521417037
:107C2800052181708221C170142101716021417187
:107C380000218171B4F88611C1719A6108212AF076
:107C4800A9F830F07BF80028FBD04C4B4FF4002209
:107C58005A614B485A210170A52141700521817054
:107C68008221C17014210171622141710021817149
:107C7800B4F88E11C1719A6108212AF08BF830F09E
:107C88005DF80028FBD03D4A4FF4002151613C4883
:107C98005A230370A5234370052383708223C3707E
:107CA800142303716423437100238371D4F88C3146
:107CB8001B0AC371916108212AF06CF830F03EF874
:107CC8000028FBD02D4B4FF400225A612C485A2132
:107CD8000170A5214170052181708221C170142194
:107CE80001716621417100218171D4F88C11C17133
:107CF8009A6108212AF04EF830F020F80028FBD0CD
:107D08001E4A4FF4002151611D485A230370A523D0
:107D18004370072383708223C370142303716C2379
:107D28004371D4F8A0311D0E85711D0CC5711D0A53
:107D38000572437291610A212AF02CF82FF0FEFF98
:107D48000028FBD00D4B4FF400225A610C485A21F1
:107D58000170A5214170052181708221C170142113
:107D680001717021417100218171B4F8BE11C17196
:107D78009A6108212AF00EF804E000BF0080004153
:107D8800509501202FF0DAFF0028FBD0D44B4FF498
:107D980000225A61D3485A210170A521417005215A
:107DA80081708221C17014210171722141710021F9
:107DB8008171D4F8A411C1719A61082129F0EAFFF0
:107DC8002FF0BCFF0028FBD0C54A4FF400215161B9
:107DD800C4485A230370A523437005238370822364
:107DE800C370142303717423437100238371D4F87F
:107DF800A4311B0AC3719161082129F0CBFF2FF030
:107E08009DFF0028FBD0B64B4FF400225A61B548BD
:107E18005A210170A5214170052181708221C1700C
:107E2800142101717621417100218171B4F8A611E4
:107E3800C1719A61082129F0ADFF2FF07FFF00285A
:107E4800FBD0A74B4FF400225A61A6485A21017073
:107E5800A5214170052181708221C1701421017111
:107E68007821417100218171B4F8AE11C1719A6114
:107E7800082129F08FFF2FF061FF0028FBD0984AD6
:107E88004FF40021516197485A230370A52343708A
:107E9800052383708223C370142303717A234371EB
:107EA80000238371D4F8AC311B0AC3719161082196
:107EB80029F070FF2FF042FF0028FBD0884B4FF4C9
:107EC80000225A6187485A210170A5214170052175
:107ED80081708221C170142101717C2141710021BE
:107EE8008171D4F8AC11C1719A61082129F052FF4F
:107EF8002FF024FF0028FBD0794A4FF4002151616C
:107F080078485A230370A52343700723837082237C
:107F1800C3701423037180234371D4F8C0311D0E3C
:107F280085711D0CC5711D0A0572437291610A2184
:107F380029F030FF2FF002FF0028FBD0684B4FF4E8
:107F480000225A6167485A210170A5214170052114
:107F580081708221C1701421017184214171002135
:107F68008171B4F8DE11C1719A61082129F012FFFC
:107F78002FF0E4FE0028FBD0594B4FF400225A6141
:107F880058485A210170A52141700521817082212C
:107F9800C170142101718621417100218171D4F8C9
:107FA800C411C1719A61082129F0F4FE2FF0C6FEB0
:107FB8000028FBD04A4A4FF40021516149485A230E
:107FC8000370A5234370052383708223C370142391
:107FD80003718823437100238371D4F8C4311B0AC9
:107FE800C3719161082129F0D5FE2FF0A7FE002862
:107FF800FBD03B4B4FF400225A613A485A2101709A
:10800800A5214170052181708221C170142101715F
:108018008A21417100218171B4F8C611C1719A6138
:10802800082129F0B7FE2FF089FE0028FBD02C4B41
:108038004FF400225A612B485A210170A521417042
:10804800052181708221C170142101718C21417137
:1080580000218171B4F8CE11C1719A61082129F00B
:1080680099FE2FF06BFE0028FBD01D4A4FF400212B
:1080780051611C485A230370A5234370052383705C
:108088008223C370142303718E23437100238371E9
:10809800D4F8CC311B0AC3719161082129F07AFE0A
:1080A8002FF04CFE0028FBD00D4B4FF400225A61F4
:1080B8000C485A210170A521417005218170822147
:1080C800C170142101719021417100218171D4F88E
:1080D800CC11C1719A61082129F05CFE04E000BF4F
:1080E80000800041509501202FF028FE0028FBD089
:1080F8007D4A4FF4002151617C485A230370A5231F
:108108004370072383708223C3701423037194235D
:108118004371D4F8E0311D0E85711D0CC5711D0A1F
:108128000572437291610A2129F034FE2FF006FE90
:108138000028FBD06C4B4FF400225A616B485A213F
:108148000170A5214170052181708221C17014211F
:1081580001719821417100218171B4F8FE11C1713A
:108168009A61082129F016FE2FF0E8FD0028FBD0BF
:108178005D4B4FF400225A615C485A210170A521D9
:108188004170052181708221C170142101719A21E9
:10819800417100218171D4F8E411C1719A610821FB
:1081A80029F0F8FD2FF0CAFD0028FBD04E4A4FF405
:1081B800002151614D485A230370A52343700523BC
:1081C80083708223C370142303719C23437100239B
:1081D8008371D4F8E4311B0AC3719161082129F035
:1081E800D9FD2FF0ABFD0028FBD03F4B4FF4002208
:1081F8005A613E485A210170A521417005218170BC
:108208008221C170142101719E2141710021817167
:10821800B4F8E611C1719A61082129F0BBFD2FF06D
:108228008DFD0028FBD0304B4FF400225A612F48B7
:108238005A210170A5214170052181708221C170E8
:1082480014210171A021417100218171B4F8EE114E
:10825800C1719A61082129F09DFD2FF06FFD00285A
:10826800FBD0214A4FF40021516120485A23037062
:10827800A5234370052383708223C37014230371DD
:10828800A223437100238371D4F8EC311B0AC37114
:108298009161082129F07EFD2FF050FD0028FBD0C8
:1082A800114B4FF400225A6110485A210170A52140
:1082B8004170052181708221C17014210171A421AE
:1082C800417100218171D4F8EC11C1719A610821C2
:1082D80029F060FD2FF032FD0028FBD0024B4FF44F
:1082E80000225A6138BD00BF00800041509501202E
:1082F80038B50446D4485A230370A523437007238E
:1083080083708223C3701423037102234371D4F84A
:1083180000311A0E82711A0CC2711A0A0272437263
:10832800CA4B4FF400229A610A2129F033FD2FF03D
:1083380005FD0028FBD0C54B4FF400225A61C24806
:108348005A210170A5214170052181708221C170D7
:10835800142101710621417100218171B4F81E11A7
:10836800C1719A61082129F015FD2FF0E7FC00285A
:10837800FBD0B64B4FF400225A61B3485A21017022
:10838800A5214170052181708221C17014210171DC
:108398000821417100258571D4F80451C5719A618D
:1083A80029F0F8FC2FF0CAFC0028FBD0A74A4FF4AC
:1083B80000215161A4485A230370A5234370052363
:1083C80083708223C370142303710A23437100232B
:1083D8008371D4F804311B0AC3719161082129F013
:1083E800D9FC2FF0ABFC0028FBD0984B4FF40022AF
:1083F8005A6195485A210170A52141700521817063
:108408008221C170142101710C21417100218171F7
:10841800B4F80611C1719A61082129F0BBFC2FF04C
:108428008DFC0028FBD0894B4FF400225A61864806
:108438005A210170A5214170052181708221C170E6
:10844800142101710E21417100218171B4F80E11BE
:10845800C1719A61082129F09DFC2FF06FFC00285A
:10846800FBD07A4A4FF40021516177485A230370B0
:10847800A5234370052383708223C37014230371DB
:108488001023437100238371D4F80C311B0AC37184
:108498009161082129F07EFC2FF050FC0028FBD0C8
:1084A8006A4B4FF400225A6167485A210170A5218E
:1084B8004170052181708221C1701421017112213E
:1084C800417100218171D4F80C11C1719A610821A0
:1084D80029F060FC2FF032FC0028FBD05B4A4FF4F7
:1084E8000021516158485A230370A523437007237C
:1084F80083708223C3701423037116234371D4F845
:1085080020311D0E85711D0CC5711D0A057243723F
:1085180091610A2129F03EFC2FF010FC0028FBD0C5
:108528004A4B4FF400225A6147485A210170A5214D
:108538004170052181708221C170142101711A21B5
:10854800417100218171B4F83E11C1719A6108210D
:1085580029F020FC2FF0F2FB0028FBD03B4B4FF416
:1085680000225A6138485A210170A521417005211D
:1085780081708221C170142101711C214171002177
:108588008171D4F82411C1719A61082129F002FC83
:108598002FF0D4FB0028FBD02C4A4FF40021516166
:1085A80029485A230370A523437005238370822327
:1085B800C370142303711E23437100238371D4F8FD
:1085C80024311B0AC3719161082129F0E3FB2FF0C4
