:020000040000fa
:10000000f8ff032049c7020013cf02003fd20200cd
:10001000a3e2020043f90200430b030000000000ca
:10002000000000000000000000000000010a0300c2
:1000300083dd020000000000f1d5020091fd020006
:100040005711030057110300571103005711030004
:1000500057110300571103005711030057110300f4
:1000600057110300571103005711030057110300e4
:1000700057110300450b0300650b030057110300e4
:1000800057110300850b0300a50b0300c50b0300ec
:100090008d090300b1090300d5090300a906030077
:1000a000d106030057110300571103005711030035
:1000b0005711030057110300571103005711030094
:1000c0005711030057110300571103005711030084
:1000d0005711030057110300571103005711030074
:1000e000571103005711030000000000000000003a
:1000f00000000000571103005711030057110300bf
:100100005711030057110300571103005711030043
:100110005711030057110300cddb0200cddb0200b5
:10012000cddb0200cddb02004da202004da2020099
:100130004da202004da20200add90200add90200cd
:10014000add90200add902001ddb02001ddb0200ab
:100150001ddb02001ddb020075db020075db020007
:1001600075db020075db020025dc020025dc0200e5
:1001700025dc020025dc02006dbb0200fdbc020094
:1001800057110300571103005711030057110300c3
:10019000000000005711030057110300571103001e
:1001a00057110300571103005711030057110300a3
:1001b0005711030057110300571103005711030093
:1001c0005711030057110300571103005711030083
:1001d0005711030057110300571103005711030073
:1001e0005711030057110300571103005711030063
:1001f0005711030057110300571103005711030053
:100200005711030057110300571103005711030042
:100210005711030057110300571103005711030032
:100220005711030057110300571103005711030022
:100230005711030057110300571103005711030012
:100240005711030057110300571103005711030002
:1002500057110300571103005711030057110300f2
:020000040000fa
:10026000f8b500bff8bc08bc9e46704735e80200f0
:10027000f8b500bff8bc08bc9e46704711e8020004
:020000040000fa
:08028000b47c02000100000043
:020000040000fa
:100288002de9f04ff9b000247694779474948df8a2
:10029800d441adf8cc417194729470946d946e947d
:1002a8008df8bc416b94cdf8af41689469946a9419
:1002b8006594669467946294639464945b945c9484
:1002c8005d945e945f9460946194579458945994a3
:1002d800adf8684151945294539454945594cdf880
:1002e80057419022214617a830f092fe1594169493
:1002f8001e22214605a830f08bfeb44eb44fdff81d
:100308003083dff83093dff830b3dff830a343e20f
:100318000024a9f80040abf80040ae4b1c70ae4b6f
:100328001c80224676a9ad4b18682bf0abf8224604
:1003380074a9ab4b18682bf0a5f8224673a9a94bf2
:1003480018682bf09ff89df8df31012b40f0ee8103
:100358009df8d231002b40f0e9819df8d1316d2b09
:1003680031d89df8d131632b00f2e0819e4c68941e
:1003780040238df8aa319d4d0023642268a928687e
:100388002af0d0fe4ff47a702ff022fa68940024f5
:100398008df886418df8aa412346642268a9286809
:1003a8002af0c0fe64202ff013fa914b01221a7034
:1003b80004238df8ec30022322463ba98d480068bf
:1003c8002af0b0feb2e18c4b1c608c4b1c60864b53
:1003d800689340238df8aa31844d2346642268a986
:1003e80028682af09ffe4ff47a702ff0f1f97e4bbf
:1003f80068938df886418df8aa412346642268a93e
:1004080028682af08ffe64202ff0e2f9784b012249
:100418001a700c2388f80030a3e7794b6593002401
:100428008df898412346642265a9764800682af029
:1004380079fe64202ff0ccf9734b629301258df877
:1004480062518df88c518df863418df88d418df88e
:1004580064418df88e412346642262a96b48006886
:100468002af060fe64202ff0b3f95f4b68938df893
:1004780084518df8a5512346642268a95b48006819
:100488002af050fe64202ff0a3f9224673a9554b99
:1004980018682af0f7ff9df8cc31ab4240f046814e
:1004a800534b02221a7041e14f4c689440238df857
:1004b800aa314e4d0023642268a928682af032fe2a
:1004c8004ff47a702ff084f9689400248df88641ef
:1004d8008df8aa412346642268a928682af022feda
:1004e80064202ff075f9224674a93d4b18682af04c
:1004f800c9ff002800f01a819df8d131503bdbb2ca
:100508001d2b25d99df8d1316d2b0dd9404b1b786a
:10051800002b00f0a9803f4b00221a700c2388f8aa
:10052800003001202df050fd3b4b1b681e2b40f383
:10053800fd80394b00221a60354b1b7823b9374ba5
:100548004ff48032c3f89820294b00221a70ede04e
:1005580002202df039fd324b18682bf0ebfe2f4ba3
:100568004ff48032c3f8942004238df8ec30022332
:1005780022463ba91f4800682af0d4fd092388f8c1
:100588000030244b01221a701b4b1b6893420ed07b
:10059800244b1b78022b53d0174b1b6813b9144bf1
:1005a80003221a701c4a136801331360aae7224613
:1005b8008df84040022310a91b4800682af0b2fdbc
:1005c8001a4b18682bf0b6fee2e700bfb499012079
:1005d800c0980120d3990120269501207498012004
:1005e800789801209c98012002c4ec153c980120c1
:1005f80089990120a0970120049901200c990120d4
:1006080001c4ec152098012002d4ec1510980120a3
:10061800a5990120aa990120f098012000800041a5
:10062800a4970120909901203c970120249701204c
:100638007d9901209c990120a0990120b29901205f
:10064800b94b5b78012ba7d1b84b03221a70002253
:100658008df84420022311a9b54800682af062fdec
:10066800b44b01221a6097e7b34b4ff48032c3f8ba
:1006780098204ff6ff702ef007fa0023af4a136058
:10068800ac4a1360ae4b1b78002b7ff444afac4be5
:1006980001221a70ab4b18782cf072ff3be700244c
:1006a800a94b1c60a94b659308238df847318df839
:1006b8009b312346642265a9a54800682af032fdcb
:1006c8004ff47a702ff084f8a24d68958df8854123
:1006d8008df8a8418df886418df8aa418df887419b
:1006e8008df8ab412346642268a99b4800682af02c
:1006f80019fd4ff47a702ff06bf8224673a9974bc7
:1007080018682af0bffe689502238df884318df8a9
:10071800a5312346642268a98f4800682af002fda3
:1007280064202ff055f8814b04221a7098f8003095
:100738008df85130b9f80020adf84e20bbf80020f4
:10074800adf84c209af800208df8522032788df8b8
:1007580050208df848300223002213a980480068f1
:100768002af0e0fc0223002212a97e4800682af041
:10077800d9fc3b68012b0bd100233b606b4a1370fb
:10078800794b18682bf0d6fd784b18682bf01cf9bc
:100798004ff448702ff01cf800220da9744b18680c
:1007a8002af070fe28b1734a9df8343011880b4442
:1007b80013805e4b1b78dbb21e2bb7d801a252f810
:1007c80023f000bf1903000023040000b104000057
:1007d800a70600004908000035070000bd08000012
:1007e8003507000035070000350700003507000011
:1007f8003507000035070000350700003507000001
:1008080035070000410a0000350700006d0b0000a5
:10081800990d0000690e000035070000f91000006e
:1008280035070000350700003507000035070000d0
:10083800350700003507000035070000b91a000029
:10084800002274a94c4b18682af01cfe002273a9d8
:10085800424b18682af016fe9df8d231012b1fd0a2
:100868009df8cc31fa2b02d0fc2b00d013b92f4bba
:1008780000221a709df8d1316d2b7ff657af3f4b90
:100888001b7823b92c4b4ff48032c3f898200023ef
:100898003b4a13700c2288f80020244a137045e75d
:1008a8009df8d131503bdbb21d2bd9d81f4b062206
:1008b8001a70d5e70022224b1a7073a9274b1868c3
:1008c8002af0e0fd9df8cc31312b0ed91b4b1b686b
:1008d800012b5bd0002b41f0228200226ba9294b0f
:1008e80018682af0cffd00285ed19df8cc31fa2b8c
:1008f80002d0fc2b00d053b9104a1268012a4cd000
:100908002ab90a4a002111700c4a012111600a2be8
:100918007ff40caf1c4b1b780133dbb2f02b7bd080
:10092800194a137002e700bf9099012089990120a4
:10093800489701200c99012000800041049901206a
:10094800df9901203a9a0120f098012001c4ec15a2
:100958002098012002c4ec153c9801209c980120a5
:1009680038970120f89601207097012028980120d7
:100978006c9701202695012078980120a5990120df
:10098800aa99012084980120eb990120674b102235
:100998001a709df8cc31fa2babd1644a0021117042
:1009a800634a01211160b2e79df8ac318df8383007
:1009b8009df8ad318df839309df8ae318df83a306b
:1009c8009df8af318df83b309df8b0318df83c3053
:1009d8009df8b1318df83d30022300220ea955480b
:1009e80000682af09ffb9df83830002b3ff47daf5c
:1009f8004f4b01221a604d4b10221a7002238df8ba
:100a08004030002210a94c4800682af08bfb4b4b61
:100a180018682bf08ffc68e70023494a1370434a93
:100a28001370484b40f233121a80474b02221a7057
:100a380011202cf0a5fd79e6414b00221a70434b9a
:100a48001b686bbb424b1b78022b2dd1404b5b784c
:100a5800012b29d114468df84420022311a93d48c1
:100a680000682af05ffb3c4b689301238df88631c0
:100a78008df8aa312346642268a9384800682af00c
:100a880051fb64202ef0a4fe224673a9344b18684b
:100a98002af0f8fc254b12221a700e202cf070fd5b
:100aa8002a4b1b68012b22d0002273a92c4b1868f3
:100ab8002af0e8fc9df8cc31fa2b04d0fc2b02d0ac
:100ac800002b7ff433ae194b00221a70184b012209
:100ad8001a601c4b4ff49a721a801b4b02221a7030
:100ae80006202ff001fa11202cf04afd1ee61a4bc1
:100af800689301238df886318df8aa31002364228a
:100b080068a9164800682af00dfb64202ef060fee4
:100b1800002273a9124b18682af0b4fc034b122266
:100b28001a700e202cf02cfdbee700bf8999012019
:100b380004990120409701203c9701202497012027
:100b4800eb99012066960120b89901200c990120a3
:100b5800909901204897012002c4ec153c98012087
:100b68009c9801200123a84a1360a84a4ff4001159
:100b7800c2f8181100224e92a54a4f928df84031c2
:100b880002238df8413100224ea9a24800682af0bc
:100b9800c9faa14b18682bf0cdfb002271a99f4b15
:100ba80018682af06ffc002800f0d7809df8c4313f
:100bb8009df8c52102eb0322994981fb023293106b
:100bc80007ee903af8eee77a9df8c6219df8c7310e
:100bd80003eb022381fb03239b1007ee103ab8eec8
:100be800c77abdeec77a17ee103a8e4a92fbf3f336
:100bf80003eb83035b0007ee103ab8eec77a8a4b23
:100c080083ed007ab2ee047a67ee877a93ed007a84
:100c1800f4eec77af1ee10fa48bfc3ed007a834bc1
:100c2800689300248df8aa412346642268a9804865
:100c380000682af077fa64202ef0cafd7d4b659390
:100c4800794ad2ed007afceee77a17ee903a8df801
:100c58009831d2ed007afceee77a17ee903ac3f3ba
:100c680007238df89931e0238df89a312e238df8da
:100c78009b314ff010028df89c2127238df89d3170
:100c880014258df89e518df89f412346642265a94d
:100c9800694800682af046fa4ff496702ef098fddd
:100ca8008df898518df89941c8238df89a318df8af
:100cb8009b418df89c518df89d4164258df89e517e
:100cc8008df89f415d4b659323462a4665a95a488e
:100cd80000682af027fa4ff496702ef079fd022367
:100ce8008df886318df8aa31504b689323462a46f1
:100cf80068a94f4800682af015fa28462ef068fdc2
:100d080010202cf03dfc224673a94d4b18682af0a0
:100d1800b9fb9df8cc21a2f15b03dbb2092b08d803
:100d2800484b13221a70394b4ff48012c3f8142120
:100d380013e0fa2a01d0fc2a27d1424b00221a706c
:100d4800414b40f235121a80404b02221a7008209b
:100d58002ff0caf811202cf013fc00240e94adf8e3
:100d68003c40022322460ea9394800682af0daf9e5
:100d78008df840400223224610a9364800682af020
:100d8800d1f9354b1c809c70d0e4002ad5d0e4e71b
:100d9800002274a9314b18682af074fb9df8d131f0
:100da800312b7ff6c3ac194bd3f8203113f0807f79
:100db80019d101238df885318df8a8310c238df8d0
:100dc80086318df8aa31194b68930023642268a9eb
:100dd800174800682af0a6f964202ef0f9fc194b90
:100de80014221a70a2e4174b00221a70164b40f214
:100df80035121a80154b02221a7007202ff074f84a
:100e080011202cf0bdfb91e40c99012000800041d9
:100e180000004843d4970120d89701208c980120de
:100e280067666666c0d40100b097012002c4ec155d
:100e38003c98012003c4ec152098012004c0ec154f
:100e48009c9801208999012066960120b899012073
:100e5800409701203c970120909901207898012023
:100e6800002270a9874b18682af00cfb9df8c03146
:100e78009df8c12102eb0322834981fb02329210c3
:100e880007ee902af8eee77a804bc3ed007a9df8da
:100e9800c2219df8c33103eb022381fb03239b107e
:100ea80007ee103ab8eec77a794b83ed007a4ff027
:100eb80080434e93cded4f7a01238df840310223c4
:100ec8008df8413100224ea9724800682af02af9ab
:100ed800714b18682bf02efa9df8c1318df8a431aa
:100ee8009df8c0318df8a5319df8c3318df8a63134
:100ef8009df8c2318df8a731684b689300236422ae
:100f080068a9674800682af00df964202ef060fc93
:100f180012202cf035fb002273a9624b18682af0c6
:100f2800b1fa00283ff402ac9df8cc31782b1ad0e6
:100f38009df8cc31fa2b04d0fc2b02d0002b7ff487
:100f4800f5ab594b1e221a70584b4ff49b721a80fe
:100f5800574b02221a7008202ef0c6ff11202cf0e1
:100f68000ffbfff7e3bb534b1d6830f09ff84ef6bd
:100f78006024009400230246012128462df0b4f98c
:100f88004d4b1d6830f092f8009400230246012171
:100f980028462df0a9f9494b1d6830f087f80094d0
:100fa80000230246012128462df09ef9444b1d6876
:100fb80030f07cf8009400230246012128462df0e9
:100fc80093f9404b1d6830f071f8009400230246f5
:100fd800012128462df088f93b4b1d6830f066f852
:100fe800009400230246012128462df07df92e4b5e
:100ff80016221a70354b18782ef0c0f964202ef09e
:10100800e7fb334c20782ef0d5f964202ef0e0fb76
:10101800304d28882ef0eaf964202ef0d9fb2e49ad
:1010280008782ef01bfa64202ef0d2fb2b480078ab
:101038002ef0f8f964202ef0cbfb294a10782ef018
:1010480029fa64202ef0c4fb264b1a68264b1a6036
:10105800264b18682bf06ef9298823781b4a1278da
:101068001b0243ea014313433f931c4801781a4b80
:101078001b781b4a12781b0243ea0143134340932f
:1010880056e700bf94980120676666666899012054
:10109800d0980120d4970120d897012005c4ec15d9
:1010a8003c9801209c98012089990120669601208e
:1010b800b8990120b4980120349901203899012069
:1010c8003c9901204099012078970120c49901207a
:1010d800dd9901205a8d0120dc990120cd9901204c
:1010e800e999012098970120fc970120a4970120f5
:1010f80047f230502df0c8fc01238df8ec30022364
:1011080000223ba9554800682af00cf803202cf06f
:101118005bff534b18882ef089f8524b1b78072b2e
:1011280000f09780002270a94f4b18682af0aaf99e
:10113800002840f0b98064202ef04afb9df8c131a8
:101148008df8a4319df8c0318df8a5319df8c331d3
:101158008df8a6319df8c2318df8a731434b6893bd
:101168000023642268a94248006829f0dbff642054
:101178002ef02efb00226da93e4b18682af082f94a
:10118800a0b13d4a13789df8b6013c49c8540621e0
:1011980088f8001001331370324b1b78042b40f28f
:1011a8008c83304b1b78052b00f09283344b1b78d3
:1011b800052b00f09583304b1b78052b00f00a8433
:1011c800304b1b782bb9304b1b78dbb2012b00f06e
:1011d80020842c4b1b78dbb2012b00f025849df872
:1011e800cc31292b03d0fa2b01d0fc2b12d1274b61
:1011f8001e221a70092388f80030254bca221a804b
:10120800244b02221a700a202ef06efe224b1a6816
:10121800224b1a609df8b431012b00f01c84204b3e
:101228001b78022b7ff482aa1d4b9b78012b7ff43d
:101238007daa164b1e221a70092388f80030184b15
:1012480000221a809a70144b1a68144b1a60fff720
:101258006dba144b18782ef0f1fc63e7a0970120c3
:1012680026950120d39901209498012005c4ec15f6
:101278003c98012090980120d0990120689601207f
:10128800d8990120a5990120aa99012089990120be
:1012980066960120b89901209897012004980120aa
:1012a800909901208d9901209df8c2219df8c331a4
:1012b80003eb0223c34a82fb03139b0807ee903a11
:1012c800f8ee677ac04bc3ed007a9df8c0119df81f
:1012d800c13103eb012382fb03239b0807ee103a7d
:1012e800b8ee477ab94b83ed007a17ee900a2ef0e4
:1012f800f1fa02460b46b64905a82ff021fd1e213a
:1013080005a82bf003fe2ff023fe0028fbd0ae4be0
:10131800d3ed007aad4bd3ed006a27eea67aad4b3c
:1013280083ed007aac4b1b78002b40f08780ab4be9
:101338001a68ab4b1a6093ed006ab4eec67af1ee08
:1013480010fa34d5a74b1b7833bb9feda77a76eefe
:10135800876acded4f6aa24b93ed006aa34bd3ed9c
:10136800006a86ee267af4eec77af1ee10fac0f239
:101378008880f5ee007a27ee277a8ded4e7a0323e2
:101388008df8413101238df84031022300224ea906
:101398009748006829f0c6fe924b1b78dbb2012bf8
:1013a8007cd0904b1b78dbb2012b00f0be808c4bbd
:1013b800d3ed007a874b93ed007ab4eee77af1ee3d
:1013c80010fa3bdd874b1b7863bb804bd3ed007a6b
:1013d8009fed857a77ee877acded4f7a804bd3ed06
:1013e800006a824bd3ed007a86eea77a764bd3ed6e
:1013f800007ab4eee77af1ee10fa00f2d580f5ee55
:10140800007a27ee277a8ded4e7a03238df8413145
:1014180001238df84031022300224ea97448006848
:1014280029f080fe6f4b1b78dbb2012b00f0ec80bb
:101438006c4b1b78dbb2012b00f02d81664b1b78bf
:10144800dbb2012b00f066816a490a7890006a4c89
:1014580004449df8c2519df8c33103eb0523594d4f
:1014680085fb03539b0807ee903af8ee677ac4edc4
:10147800007a624b03445d480068186001320a70c4
:1014880059e6f4eec77af1ee10fa7ff578afb5eecb
:10149800007a67ee877acded4e7a70e7584b1b7865
:1014a800dbb2112b7ff67daf564b4ff40012c3f819
:1014b8001821464bd3ed007a9fed4b7a77ee877a69
:1014c800cded4f7a464bd3ed007ab6ee007a67ee53
:1014d800877a464bd3ed006a87eea67a3a4bd3ed6e
:1014e800007ab4eee77af1ee10fa12d8f6ee007a46
:1014f80027ee277a8ded4e7a02238df841310122ad
:101508008df8402100224ea93948006829f00afeca
:101518004de7b4eee77af1ee10faedddb6ee007abb
:1015280067ee877acded4e7ae6e7354b1b78dbb26e
:10153800112b3ff63caf254bd3ed007a9fed2a7a6d
:1015480077ee877acded4f7a254bd3ed006a274b9e
:10155800d3ed007a86eea77a1b4bd3ed007ab4ee72
:10156800e77af1ee10fa13d8f5ee007a27ee277a2b
:101578008ded4e7a03238df8413101238df84031ea
:10158800022300224ea91a48006829f0cbfd0ee775
:10159800b4eee77af1ee10faecddb5ee007a67ee1c
:1015a800877acded4e7ae5e7b4eee77af1ee10faf8
:1015b8007ff72bafb5ee007a67ee877acded4e7ade
:1015c80023e700bf67666666d09801206899012006
:1015d8000c20010030990120b0990120249a0120a3
:1015e800c8970120a5990120000000002c9a01202d
:1015f800d4970120d899012084940120ac9401202b
:101608008599012000800041bf4b1b78dbb2112b6c
:101618007ff60eafbd4b4ff40012c3f81821bc4b38
:10162800d3ed007a9fedbb7a77ee877acded4f7ace
:10163800b94bd3ed007ab6ee007a67ee877ab74bee
:10164800d3ed006a87eea67ab54bd3ed007ab4eef7
:10165800e77af1ee10fa12d8f6ee007a27ee277a3a
:101668008ded4e7a02238df8413101228df840210b
:1016780000224ea9ab48006829f054fddee6b4ee1e
:10168800e77af1ee10faedddb6ee007a67ee877aca
:10169800cded4e7ae6e79c4b1b78dbb2112b3ff67b
:1016a800cdae9b4bd3ed007a9fed9a7a77ee877a91
:1016b800cded4f7a984bd3ed006a984bd3ed007a75
:1016c80086eea77a964bd3ed007ab4eee77af1ee80
:1016d80010fa13d8f5ee007a27ee277a8ded4e7ab8
:1016e80003238df8413101238df840310223002274
:1016f8004ea98c48006829f015fd9fe6b4eee77afc
:10170800f1ee10faecddb5ee007a67ee877acdedf2
:101718004e7ae5e7844b1b785bbb7d4bd3ed007ab3
:101728009fed7c7a77ee877acded4f7a7f4bd3edbc
:10173800006a7a4bd3ed007a86eea77a784bd3ed20
:10174800007ab4eee77af1ee10fa50d8f5ee007aa6
:1017580027ee277a8ded4e7a03238df84131012348
:101768008df84031022300224ea96e48006829f006
:10177800d9fc6d4b1b78dbb2012b44d06a4b1b782c
:10178800dbb2012b7ff460ae5f4b1b78dbb2112b11
:101798003ff65aae5e4bd3ed007a9fed5e7a77ee58
:1017a800877acded4f7a614bd3ed006a5b4bd3ed71
:1017b800007a86eea77a5a4bd3ed007ab4eee77a30
:1017c800f1ee10fa6dd8f5ee007a27ee277a8ded56
:1017d8004e7a03238df8413101238df840310223dd
:1017e80000224ea94f48006829f09cfc2ce6b4ee74
:1017f800e77af1ee10faafddb5ee007a67ee877a98
:10180800cded4e7aa8e7404b1b78dbb2112bb5d94a
:101818003e4b4ff40012c3f81821444b93ed007a65
:10182800dfed437ab4eee77af1ee10fac8bfc3ed04
:10183800007a374bd3ed007a9fed367a77ee877ac8
:10184800cded4f7a394bd3ed006a344bd3ed007aa6
:1018580086eea77a324bd3ed007ab4eee77af1ee52
:1018680010fa12d8f6ee007a27ee277a8ded4e7a26
:1018780002238df8413101228df8402100224ea922
:101888002848006829f04efcdee5b4eee77af1ee70
:1018980010faedddb6ee007a67ee877acded4e7a76
:1018a800e6e7b4eee77af1ee10fa92ddb5ee007aeb
:1018b80067ee877acded4e7a8be72ef0bff99df86b
:1018c800b6211c4b1a701c4a13780133137068e454
:1018d800194b07221a709df8b6318af8003065e472
:1018e8004ff0000c154b83f800c0b9f80010bbf896
:1018f8000000134b134a03f1140ecdf80cc01d461b
:101908001446029122e000bf859901200080004121
:101918006899012000000000c89701202c9a012036
:10192800d0980120d4970120a5990120d0970120b3
:1019380000606a478d990120d3990120d899012028
:1019480084940120ac940120734525d0f3ec017aee
:1019580095ed007ab4eee77af1ee10fa09d8c5ed04
:10196800007afceee77a17ee901a89b202914ff0ee
:10197800010cf2ec017a94ed007ab4eee77af1ee1c
:1019880010fae1d8c4ed007afceee77a17ee901a67
:1019980088b201210391d7e70299bcf1000f01d069
:1019a800a9f80010039b0bb1abf80000344bd3ed42
:1019b800007afceee77a17ee900a2df06ffc314bb7
:1019c800d3ed007afceee77a17ee900a2df04afc88
:1019d800fff7f1bb00242c4b1c7096f800c02b4b72
:1019e8005d1d18464ff0010e01e0ab4208d013f818
:1019f800012b01789142f8d8027094467446f4e7b6
:101a08000cb186f800c0214b18782ef0fff8fff7cc
:101a1800d7bb00228df84420022311a91c48006876
:101a280029f080fbfff7d5bb1a4b1b78dbb2012be3
:101a38007ff4d5ab184b1b78dbb2132b7ff6cfabfb
:101a480000228df84420022311a91148006829f0ca
:101a580069fbfff7c4bb114b1e221a70092388f8d3
:101a680000300f4bc9221a800e4b02221a700a202e
:101a78002ef03afa0c4b1a680c4b1a60fff7cfbbe2
:101a880084940120ac940120d0990120689601200b
:101a980048970120aa990120859901208999012058
:101aa80066960120b8990120989701200498012092
:101ab8004ff002038df8413100248df84041022394
:101ac80022464ea99a48006829f02cfb40f6b83007
:101ad8002df07efe4ff003038df884318df8a5318b
:101ae800944b6893944d2346642268a9286829f08a
:101af80019fb32202df06cfe8df8a4418df8a5411c
:101b08008e4a68922346642268a9286829f00afb4d
:101b180032202df05dfe8a494ff4801ec1f818e18d
:101b2800884b1a68884b1a608df8ec4002232246cd
:101b38003ba98648006829f0f5fa854b1c704ff0e0
:101b4800020c8df841c18df84041022322460df563
:101b58009c7c61467648006829f0e4fa40f6b83083
:101b68002df036fe4ff003008df8a501714b6893f8
:101b78002346642268a80146286829f0d3fa32204f
:101b88002df026fe8df8a4418df8a5416b4a689288
:101b98002346642268a80146286829f0c3fa32203f
:101ba8002df016fe66494ff48012c1f81821684bd3
:101bb8001b7823b9674b1b78002b00f09f800a2302
:101bc800009300231a460321634800682cf08cfb1d
:101bd800624b18782df07afc614b18782df092fc46
:101be800604b18882df0aafc5f4b18782df0defcae
:101bf8005e4b18782df0befc5d4b18782df0f2fc8a
:101c08005c4b18682df026fd5b4b1b78dbb2012b73
:101c180079d0594b1b78dbb2022b78d0564b1b7806
:101c2800dbb2032b77d0484bd3ed007afceee77a92
:101c3800524b93ed007abceec77a17ee903a17ee46
:101c4800102a9b1a07ee903af8ee677a4c4cc4edce
:101c5800007afceee77a17ee900a2df0dffc494b8c
:101c680015221a7005202cf0aff9424b1b683e93e1
:101c78003c4b19883a4b1b78384a12781b0243eac6
:101c8800014313434193394b1978374b1b78384a32
:101c980012781b0243ea0143134342933a4b1a78e2
:101ca800337843ea02434393d4ed007afceee77ab3
:101cb80017ee903a43f4003344932f4b1a78334c81
:101cc800238843ea0243459302238df8f03000232a
:101cd80064223ca92e48006829f024fa2d4b186884
:101ce8002af028fb01233b60002222802a4a137035
:101cf8002a4a13702a4a1370fef718bd294b186830
:101d080029f062fe5be701202ef0eef881e7022061
:101d18002ef0eaf882e703202ef0e6f883e79df834
:101d2800cc31fa2b7ef4e5ad1f4a1268fef7e8bd08
:101d3800d497012002c4ec153c98012005c4ec1589
:101d4800008000419897012004980120a097012065
:101d5800aa990120a599012078970120c49901200a
:101d6800dd9901205a8d0120dc990120cd990120af
:101d7800e9990120e4960120b7990120fc970120f8
:101d88000c9701203a9a01208d990120269501206f
:101d98005c97012060970120a9990120a89901204a
:0c1da800a7990120a497012004990120b4
:020000040000fa
:101db4002de9f04ff1b000246e946f946c94cdf83b
:101dc400b3416a948df8ac41adf8a441679468942a
:101dd4006694639464948df89441609461946294dd
:101de4005d945e945f945a945b945c94539454947d
:101df400559456945794589459944f94509451949c
:101e0400adf8484149944a944b944c944d94cdf880
:101e140037414694479448949022214610a82ff0c5
:101e2400f9f80d940e94b44eb44fdff83083dff814
:101e340030b3dff830a3dff830933fe20024b04b37
:101e44001c70abf80040aaf80040ae4b1c80224640
:101e54006ea9ad4b186829f017fb22466aa9ab4b53
:101e6400186829f011fb224669a9a94b186829f0c2
:101e74000bfb9df8bf31012b40f0e8819df8aa319e
:101e8400002b40f0e3819df8a9316d2b31d89df8ea
:101e9400a931632b00f2da819e4c609440238df8c3
:101ea4008a319d4d0023642260a9286829f03cf9f9
:101eb4004ff47a702df08efc609400248df851411b
:101ec4008df88a412346642260a9286829f02cf9f8
:101ed40064202df07ffc914b01221a7003238df8ae
:101ee4003c30022322460fa98d48006829f01cf9d2
:101ef400ace18c4b1c608c4b1c60864b6093402384
:101f04008df88a31844d2346642260a9286829f01b
:101f14000bf94ff47a702df05dfc7e4b60938df8d5
:101f240051418df88a412346642260a9286829f02a
:101f3400fbf864202df04efc784b01221a700c2320
:101f440088f80030a3e7794b5d9300248df878413d
:101f5400234664225da97648006829f0e5f86420e8
:101f64002df038fc734b5a9301258df842518df8ae
:101f74006c518df843418df86d418df844418df8d5
:101f84006e41234664225aa96b48006829f0ccf8b4
:101f940064202df01ffc5f4b60938df84f518df83a
:101fa40085512346642260a95b48006829f0bcf887
:101fb40064202df00ffc224669a9554b186829f0be
:101fc40063fa9df8a431ab4240f04081534b0222a6
:101fd4001a703be14f4c609440238df88a314e4d8a
:101fe4000023642260a9286829f09ef84ff47a70cf
:101ff4002df0f0fb609400248df851418df88a4156
:102004002346642260a9286829f08ef864202df004
:10201400e1fb22466aa93d4b186829f035fa0028ed
:1020240000f014819df8a931503bdbb21d2b25d95a
:102034009df8a9316d2b0dd9404b1b78002b00f076
:10204400a9803f4b00221a700c2388f8003001202d
:102054002df0c8fe3b4b1b681e2b40f3f780394b19
:1020640000221a60354b1b7823b9374b4ff480326a
:10207400c3f89820294b00221a70e7e002202df0c3
:10208400b1fe324b18682af057f92f4b4ff48032c7
:10209400c3f8942003238df83c30022322460fa971
:1020a4001f48006829f040f8092388f80030244bc1
:1020b40001221a701b4b1b6893420ed0244b1b78d1
:1020c400012b53d0174b1b6813b9144b03221a70fe
:1020d4001c4a136801331360aae722468df8204096
:1020e400022308a91b48006829f01ef81a4b186837
:1020f4002af022f9e2e700bfb3990120bc9801203d
:10210400d29901208e9301204498012048980120ff
:102114006c98012002c0ec153c980120859901209f
:102124009c970120009901200899012001c0ec1519
:102134002098012002d0ec1510980120aa990120c2
:10214400a5990120ec98012000800041a49701206a
:10215400949901203c970120249701206d96012039
:102164009a9901209e990120b1990120b74b5b787f
:10217400012ba7d1b64b03221a7000228df824201c
:10218400022309a9b348006828f0ceffb24b01220c
:102194001a6097e7b14b4ff48032c3f898204ff69a
:1021a400ff702cf073fc0023ad4a1360aa4a13603d
:1021b400ac4b1b78002b7ff444afaa4b01221a705e
:1021c400a94b18782bf0def93be70024a74b1c60e1
:1021d400a74b5d9308238df825318df87b31234679
:1021e40064225da9a348006828f09eff4ff47a702a
:1021f4002df0f0faa04d60958df850418df888418e
:102204008df851418df88a418df852418df88b41fa
:102214002346642260a99948006828f085ff4ff49a
:102224007a702df0d7fa609502238df84f318df82e
:1022340085312346642260a99048006828f074ff21
:1022440064202df0c7fa824b04221a7098f80030eb
:102254008df83130bbf80030adf82e30baf80030cc
:10226400adf82c3099f800308df8323033788df891
:102274003030022300220ba98148006828f054ff63
:1022840098f800308df82830022300220aa97d48ee
:10229400006828f049ff3b68012b0bd100233b6009
:1022a4006b4a1370784b18682af046f8774b186815
:1022b40029f08cfb4ff4fa702df08cfa644b1b78e8
:1022c400dbb21e2bc2d801a252f823f0411e00003b
:1022d4004b1f0000d91f0000cf2100004d23000038
:1022e40051220000c12300005122000051220000ad
:1022f400512200005122000051220000512200000e
:102304005122000051220000512200003b25000010
:102314005122000069260000a1280000792900004c
:1023240051220000092c000051220000512200001b
:1023340051220000512200005122000051220000cd
:10234400512200009f35000000226aa9504b1868f2
:1023540029f09af8002269a94e4b186829f094f8dc
:102364009df8aa31012b1fd09df8a431fa2b02d07d
:10237400fc2b00d013b9364b00221a709df8a931fa
:102384006d2b7ff663af444b1b7823b9334b4ff46b
:102394008032c3f898200023404a13700c2288f836
:1023a40000202b4a137051e79df8a931503bdbb252
:1023b4001d2bd9d8264b06221a70d5e70022294bab
:1023c4001a7069a9334b186829f05ef89df8a43196
:1023d400312b0ed9224b1b68012b28d0002b41f046
:1023e4000a8200226ca92e4b186829f04df80028a7
:1023f4005ad19df8a431fa2b02d0fc2b00d053b94a
:10240400174a1268012a19d02ab9114a00211170f9
:10241400134a012111600a2b7ff418af214b1b785a
:102424000133dbb2f02b76d01e4a13700ee7084b53
:1024340010221a709df8a431fa2bded1044a00212f
:102444001170074a01211160e5e700bf949901204a
:1024540085990120489701200899012000800041b6
:1024640000990120de9901203a9a0120ec9801207c
:1024740001c0ec152098012002c0ec153c98012005
:1024840034970120f49601206897012018980120c0
:10249400489801206c980120aa990120a59901204f
:1024a40054980120ea9901209df8b0318df8183034
:1024b4009df8b1318df819309df8b2318df81a308c
:1024c4009df8b3318df81b309df8b4318df81c3074
:1024d4009df8b5318df81d300223002206a953481a
:1024e400006828f021fe9df81830002b81d00123cc
:1024f4004f4a13604f4a102111708df820304e4b13
:10250400186829f019ff0223002208a94b48006823
:1025140028f00afe6de70023494a1370454a1370f8
:10252400484b40f233121a80474b01221a7008209c
:102534002bf028f88ae6424b00221a70434b1b68a2
:1025440073bb434b1b78012b2ed1414b5b78012b82
:102554002ad114468df82420022309a93d48006895
:1025640028f0e2fd3c4b609301238df851318df846
:102574008a312346642260a93848006828f0d4fdd3
:1025840064202df027f94ff47a7269a9344b186846
:1025940028f07aff274b12221a7005202af0f2ff46
:1025a4002a4b1b68012b21d0002269a92c4b1868e7
:1025b40028f06aff9df8a431fa2b04d0fc2b02d03a
:1025c400002b7ff443ae1b4b00221a700123184ae0
:1025d40013601c4a4ff49a7111801b4a1370062031
:1025e4002df06efc08202af0cdff2fe61a4b6093e5
:1025f40001238df851318df88a310023642260a9ba
:102604001648006828f090fd64202df0e3f84ff49c
:102614007a7269a9124b186828f036ff054b12220a
:102624001a7005202af0aeffbee700bf40970120d4
:102634000099012085990120249701203c970120cd
:10264400ea99012066960120b89901200899012091
:10265400949901204897012002c0ec153c98012070
:102664006c980120ad4b4ff40012c3f818210023dd
:102674004693ab4b479301248df820418df82141bb
:102684000023642246a9a748006828f04dfda64b04
:10269400186829f051fea54b1c60002267a9a44bc1
:1026a400186828f0f1fe002800f0d3809df89c31d2
:1026b4009df89d2102eb03229e4981fb0232931077
:1026c40007ee903af8eee77a9df89e219df89f3147
:1026d40003eb022381fb03239b1007ee103ab8eeb1
:1026e400c77abdeec77a17ee103a934a92fbf3f31a
:1026f40003eb8303a34007ee103ab8eec77a8f4b7f
:1027040083ed007ab2ee047a67ee877a93ed007a6d
:10271400f4eec77af1ee10fa48bfc3ed007a884ba5
:10272400609300248df88a412346642260a9854879
:10273400006828f0f9fc64202df04cf8824b5d937e
:102744007e4ad2ed007afceee77a17ee903a8df8e5
:102754007831d2ed007afceee77a17ee903ac3f3c3
:1027640007238df87931e0238df87a312e238df803
:102774007b3110238df87c3127238df87d3114258e
:102784008df87e518df87f41234664225da96f4800
:10279400006828f0c9fc4ff4fa702df01bf88df88e
:1027a40078518df87941c8238df87a318df87b41c1
:1027b4008df87c518df87d4164258df87e518df81e
:1027c4007f41634b5d9323462a465da95f480068b9
:1027d40028f0aafc4ff4fa702cf0fcff02238df8c9
:1027e40051318df88a3103f1af5303f54c236093d3
:1027f40023462a4660a95348006828f095fc4ff404
:10280400fa702cf0e7ff07202af0bcfe224669a9e3
:10281400504b186828f038fe9df8a4315b3bdbb2be
:10282400092b2ed99df8a431fa2b02d0fc2b00d011
:102834007bb9494b00221a70484b40f235121a807a
:10284400474b01221a7008202df03afb08202af089
:1028540099fe00240694adf81c408df82040022314
:10286400224608a93f48006828f05efc022322465d
:1028740006a93d48006828f057fc3c4b1c809c701e
:10288400e4e4354b13221a704ff47a702cf0a2ff53
:10289400224b4ff40022c3f81421c3e700226aa993
:1028a400334b186828f0f0fd9df8a931312b1ed95f
:1028b4001a4bd3f8a03013f4000f1dd101238df867
:1028c40050318df888310c238df851318df88a31cf
:1028d4001b4b60930023642260a91a48006828f007
:1028e40023fc64202cf076ff1b4b14221a704ff447
:1028f4007a702cf06fffa9e4174b00221a70174b63
:1029040040f235121a80164b01221a7007202df05e
:10291400d7fa08202af036fee9e700bf008000411c
:1029240000004843d4970120d8970120089901203a
:102934005c98012067666666c0d40100ac970120ec
:1029440002c0ec153c98012003c0ec15209801202e
:1029540004c0ec156c98012085990120669601202d
:10296400b89901203c9701204097012094990120b7
:1029740048980120002266a9874b186828f084fd36
:102984009df898319df8992102eb0322834981fb3c
:102994000232921007ee902af8eee77a804bc3edec
:1029a400007a9df89a219df89b3103eb022381fb69
:1029b40003239b1007ee103ab8eec77a794b83ede8
:1029c400007a4ff080434693cded477a01238df88a
:1029d40020318df821310023642246a97248006811
:1029e40028f0a2fb714b186829f0a6fc9df89931d8
:1029f4008df884319df898318df885319df89b319f
:102a04008df886319df89a318df88731684b609343
:102a14000023642260a96748006828f085fb0a2027
:102a24002cf0d8fe09202af0adfd002269a9624be2
:102a3400186828f029fd00283ff408ac9df8a4315b
:102a4400782b1ad09df8a431fa2b04d0fc2b02d099
:102a5400002b7ff4fbab594b1e221a70584b4ff4da
:102a64009b721a80574b01221a7008202df028fa05
:102a740008202af087fdfff7e9bb534b1d682ef0b1
:102a840017fb4ef6602400940023024601212846d9
:102a94002bf02cfc4d4b1d682ef00afb00940023f8
:102aa4000246012128462bf021fc494b1d682ef0db
:102ab400fffa009400230246012128462bf016fc5d
:102ac400444b1d682ef0f4fa0094002302460121c1
:102ad40028462bf00bfc404b1d682ef0e9fa0094bd
:102ae40000230246012128462bf000fc3b4b1d68c5
:102af4002ef0defa009400230246012128462bf032
:102b0400f5fb2e4b16221a70354b18782cf008fa68
:102b140064202cf05ffe334c20782cf01dfa6420e6
:102b24002cf058fe304d28882cf032fa64202cf01a
:102b340051fe2e4908782cf063fa64202cf04afeea
:102b44002b4800782cf040fa64202cf043fe294aec
:102b540010782cf071fa64202cf03cfe264b1a6895
:102b6400264b1a60264b186829f0e6fb298823783f
:102b74001b4a12781b0243ea0143134337931c4850
:102b840001781a4b1b781b4a12781b0243ea014353
:102b94001343389356e700bf64980120676666665e
:102ba40064990120cc980120d4970120d897012062
:102bb40005c0ec153c9801206c98012085990120f2
:102bc40066960120b899012074970120b4980120d9
:102bd40034990120389901203c9901204099012021
:102be400c4990120dd9901205a8d0120dc9901202e
:102bf400cd990120e999012094970120f8970120ab
:102c0400a4970120002205a9c04b186828f03cfcb9
:102c140028b1bf4a9df8143011880b44138047f241
:102c240030502bf033ff01238df83c300223002277
:102c34000fa9b848006828f077fa03202df0d2f8dd
:102c4400b34b18882cf0c4f8b34b1b78072b00f057
:102c5400a881002266a9b14b186828f015fc002849
:102c640000f0d5809df89a319df89b2102eb032258
:102c7400ab4981fb0232930807ee103ab8ee477a6b
:102c8400a84b83ed007a9df898219df8993103ebc8
:102c9400022381fb03239b0807ee903af8ee677a40
:102ca400a14bc3ed007a67ee276aa04bc3ed006a1f
:102cb4009f4b1b78002b40f088809e4b1a689e4bdc
:102cc4001a6093ed006af4eec66af1ee10fa35d597
:102cd4009a4b1b7833bbdfed9a6a77eea67acded7b
:102ce400477a954b93ed006a964bd3ed006ac6ee96
:102cf400267ab4eee77af1ee10fac0f25781b5ee17
:102d0400007a67ee877acded467a03238df8213178
:102d140001238df820310223002246a98a48006845
:102d240028f002fa854b1b78dbb2012b00f04b81b3
:102d3400824b1b78dbb2012b00f08c817e4bd3edf0
:102d4400007a7a4b93ed007ab4eee77af1ee10fa5a
:102d54003bdd7a4b1b7863bb734bd3ed007a9fed5d
:102d6400787a77ee877acded477a734bd3ed006aa4
:102d7400744b93ed007ac6ee877a6a4b93ed007a32
:102d8400f4eec77af1ee10fa00f2a381b5ee007a00
:102d940067ee877acded467a03238df8213101233e
:102da4008df820310223002246a96748006828f0e4
:102db400bbf9624b1b78dbb2012b00f097815f4bb0
:102dc4001b78dbb2012b00f0d881594b1b78dbb2a6
:102dd400012b00f029825d48027891005c4b0b4482
:102de400584c24681c605b4b19449df89a419df82b
:102df4009b3103eb04234a4c84fb03439b0807eefb
:102e0400903af8ee677ac1ed007a013202706420dc
:102e14002cf0e0fc9df899318df884319df89831bf
:102e24008df885319df89b318df886319df89a3166
:102e34008df88731484b60930023642260a947488a
:102e4400006828f071f964202cf0c4fc002263a906
:102e5400434b186828f018fba0b1424a13789df838
:102e64008e014149c854062188f8001001331370bb
:102e7400294b1b78042b40f2aa82274b1b78052b85
:102e840000f0b082314b1b78052b00f0b382354b38
:102e94001b78052b00f00683344b1b78dbb2012b27
:102ea40000f01e83314b1b78dbb2012b00f027832b
:102eb4009df8a431292b03d0fa2b01d0fc2b12d17d
:102ec4002b4b1e221a70092388f80030294bca2282
:102ed4001a80294b01221a700a202cf0f1ff274b8b
:102ee4001a68274b1a609df88c31012b00f042833d
:102ef400244b1b78012b7ff4a9a9224b9b78012b2f
:102f04007ff4a4a91a4b1e221a703de06497012095
:102f14008e9301209c970120d2990120649801206e
:102f240067666666cc980120649901202c9901207b
:102f3400af990120249a0120c8970120aa99012061
:102f440000000000289a0120d4970120d79901207d
:102f5400989401207094012005c0ec153c98012040
:102f640060980120cf99012060960120a599012045
:102f74008599012066960120b89901209497012033
:102f84000098012094990120092388f800309a4b75
:102f940000221a809a70994b1a68994b1a60fff7ad
:102fa40055b9984b18782cf01bfe52e6b4eee77a2c
:102fb400f1ee10fa7ff5a9aef5ee007a27ee277a46
:102fc4008ded467aa1e6904b1b78dbb2112b7ff690
:102fd400afae8e4b4ff40012c3f818218c4bd3edd7
:102fe400007a9fed8c7a77ee877acded477a8a4b1b
:102ff400d3ed007ab6ee007a67ee877a874bd3ed8d
:10300400006a87eea67a864bd3ed007ab4eee77aaf
:10301400f1ee10fa12d8f6ee007a27ee277a8ded4b
:10302400467a01238df821318df8203102230022c4
:1030340046a97c48006828f077f87fe6b4eee77a82
:10304400f1ee10faedddb6ee007a67ee877acded9b
:10305400467ae6e76c4b1b78dbb2112b3ff66eae7b
:103064006b4bd3ed007a9fed6b7a77ee877acdeddb
:10307400477a694bd3ed006a684bd3ed007a86ee4c
:10308400a77a674bd3ed007ab4eee77af1ee10fa43
:1030940013d8f5ee007a27ee277a8ded467a0323ce
:1030a4008df8213101238df820310223002246a915
:1030b4005c48006828f038f840e6b4eee77af1eeb0
:1030c40010faecddb5ee007a67ee877acded467a3c
:1030d400e5e7f4eec77af1ee10fa7ff75daef5eeb0
:1030e400007a27ee277a8ded467a55e6464b1b7813
:1030f400dbb2112b7ff663ae444b4ff40012c3f8de
:103104001821434bd3ed007a9fed427a77ee877a0c
:10311400cded477a404bd3ed007ab6ee007a67eef8
:10312400877a3e4bd3ed006a87eea67a3c4bd3ed0b
:10313400007ab4eee77af1ee10fa12d8f6ee007add
:1031440027ee277a8ded467a01238df821318df80b
:1031540020310223002246a93248006827f0e4ff08
:1031640033e6b4eee77af1ee10faedddb6ee007a6e
:1031740067ee877acded467ae6e7234b1b78dbb220
:10318400112b3ff622ae224bd3ed007a9fed217a2c
:1031940077ee877acded477a1f4bd3ed006a1f4b4c
:1031a400d3ed007a86eea77a1d4bd3ed007ab4ee08
:1031b400e77af1ee10fa13d8f5ee007a27ee277ac3
:1031c4008ded467a03238df8213101238df82031ca
:1031d4000223002246a91348006827f0a5fff4e55e
:1031e400b4eee77af1ee10faecddb5ee007a67eeb4
:1031f400877acded467ae5e79499012094970120ea
:1032040000980120979901208999012000800041ac
:103214006499012000000000c8970120289a012029
:10322400cc980120d4970120c04b1b785bbbc04bca
:10323400d3ed007a9fedbf7a77ee877acded477aaa
:10324400bd4bd3ed006abd4b93ed007ac6ee877a91
:10325400bb4b93ed007af4eec77af1ee10fa50d836
:10326400b5ee007a67ee877acded467a03238df8c2
:10327400213101238df820310223002246a9b148cf
:10328400006827f051ffa94b1b78dbb2012b44d017
:10329400a64b1b78dbb2012b7ff49dadaa4b1b78a8
:1032a400dbb2112b3ff697ada14bd3ed007a9fed26
:1032b400a17a77ee877acded477a9f4bd3ed006afa
:1032c4009e4bd3ed007a86eea77a9d4bd3ed007a20
:1032d400b4eee77af1ee10fa6dd8f5ee007a27ee47
:1032e400277a8ded467a03238df8213101238df859
:1032f40020310223002246a99248006827f014ffd7
:1033040069e5f4eec77af1ee10faafddf5ee007a76
:1033140027ee277a8ded467aa8e78b4b1b78dbb234
:10332400112bb5d9894b4ff40012c3f81821824be5
:1033340093ed007adfed867ab4eee77af1ee10fad7
:10334400c8bfc3ed007a7a4bd3ed007a9fed797a4a
:1033540077ee877acded477a774bd3ed006a774bda
:10336400d3ed007a86eea77a754bd3ed007ab4eeee
:10337400e77af1ee10fa12d8f6ee007a27ee277a01
:103384008ded467a01238df821318df82031022309
:10339400002246a96b48006827f0c6fe1be5b4ee80
:1033a400e77af1ee10faedddb6ee007a67ee877a91
:1033b400cded467ae6e7b4eee77af1ee10fa92dd67
:1033c400b5ee007a67ee877acded467a8be72cf07e
:1033d40007fc604a1378013313709df88e215e4b0d
:1033e4001a704ae59df88e3189f80030594b07224e
:1033f4001a7047e54ff0000c584b83f800c0bbf837
:103404000010baf80000564b564a03f1140ecdf8da
:103414000cc01d461446029101e0734525d0f3ec1f
:10342400017a95ed007ab4eee77af1ee10fa09d854
:10343400c5ed007afceee77a17ee901a89b2029194
:103444004ff0010cf2ec017a94ed007ab4eee77ad5
:10345400f1ee10fae1d8c4ed007afceee77a17ee4b
:10346400901a88b201210391d7e70299bcf1000fa9
:1034740001d0abf80010039b0bb1aaf80000384b45
:10348400d3ed007afceee77a17ee900a2bf0d8fc25
:10349400344bd3ed007afceee77a17ee900a2bf06a
:1034a400b3fcf4e40024304b1c7096f800c02f4b9e
:1034b4005d1d18464ff0010e01e09d4208d013f83f
:1034c400012b01789142f8d8027094467446f4e7cf
:1034d4000cb186f800c0254b18782cf069fbdbe4ae
:1034e400124b1b78002b7ff4ddac00228df82420d6
:1034f400022309a91e48006827f016fed2e40b4bec
:103504001b78dbb2012b7ff4d3ac0f4b1b78dbb2ff
:10351400132b7ff6cdac00228df82420022309a9b9
:103524001348006827f000fec2e400bfaa990120f6
:103534006499012000000000cc970120289a012002
:10354400cc980120d4970120899901200080004162
:1035540000606a47d299012097990120d7990120e8
:103564007094012098940120cf9901206096012045
:1035740048970120a44b1e221a70092088f80000e5
:10358400a24bc9221a80a24b01221a702cf098fc7b
:10359400a04b1a68a04b1a60aae400248df82041bd
:1035a4004ff001038df821310223224646a99b489e
:1035b400006827f0b9fd40f6b8302cf00bf94ff055
:1035c40003038df84f318df88531954b6093954dfc
:1035d4002346642260a9286827f0a6fd32202cf037
:1035e400f9f88df884418df885418f4a609223461d
:1035f400642260a9286827f097fd32202cf0eaf8ad
:103604008a494ff4002ec1f818e1824b1a68824ba4
:103614001a608df83c40022322460df13c0e71469f
:103624008348006827f080fd824b1c708df8204190
:103634004ff0010c8df821c1022322460df58c7c3c
:1036440061467648006827f06ffd40f6b8302cf0ec
:10365400c1f84ff003008df88501714b6093234648
:10366400642260a80146286827f05efd32202cf011
:10367400b1f88df884418df885416b4a60922346f8
:10368400642260a80146286827f04efd32202cf001
:10369400a1f866494ff40023c1f81831664b1b7832
:1036a40023b9644b1b78002b00f094800a23009309
:1036b40000231a460321614800682af017fe604b74
:1036c40018782bf0d5fc5f4b18782bf0edfc5e4b93
:1036d40018882bf005fd5d4b18782bf039fd5c4bf9
:1036e40018782bf019fd5b4b18782bf04dfd5a4bd5
:1036f40018682bf081fd484bd3ed007afceee77a95
:10370400564b93ed007abceec77a17ee100a17ee0b
:10371400903a181a524b18602bf052fd514b1b78fb
:10372400dbb2012b5bd04f4b1b78dbb2022b5ad0a0
:103734004c4b1b78dbb2032b59d04b4b0c221a7029
:1037440005202cf04ffb444b1b6836933e4b1988e5
:103754003c4b1b783a4a12781b0243ea0143134359
:1037640039933b4b1978394b1b783a4a12781b0230
:1037740043ea014313433a933c4b1a78337843eac0
:1037840002433b93364b1b6843f480333c93354be5
:103794001a78374c238843ea02433d9302238df879
:1037a400d0300023642234a93248006827f0bcfcde
:1037b400314b186828f0c0fd01233b6000222280b1
:1037c4002e4a13702e4a13702e4a13702e4a137009
:1037d400fef73cbd2d4b186828f0f8f866e7012089
:1037e4002cf06efb9fe702202cf06afba0e703207d
:1037f4002cf066fba1e79df8a431fa2b7ef4fdad15
:10380400234a1268fef700be8599012066960120be
:10381400b89901209497012000980120d4970120a1
:1038240002c0ec153c98012005c0ec150080004155
:103834009c970120a5990120aa9901207497012041
:10384400c4990120dd9901205a8d0120dc990120c1
:10385400cd990120e9990120e0960120f8970120f3
:1038640008970120b79901203a9a012097990120dd
:103874008e9301205c970120609701209999012083
:10388400a4990120a3990120a2990120a4970120c1
:043894000099012076
:020000040000fa
:10389800909301201c0000000000000028950120e2
:1038a8000800000000000000ac9301201c0000008c
:1038b80000000000c094012010000000000000007b
:1038c8003095012008000000000000003895012014
:1038d80008000000000000004095012008000000da
:1038e80000000000c89301201c0000000000000038
:1038f800d09401201000000000000000489501202d
:103908000800000000000000509501200800000099
:1039180000000000f08b0120c00000000000000043
:103928008e9901200200000000000000cc920120c6
:103938002c00000000000000dc9101203000000095
:10394800000000000c920120300000000000000080
:103958003c92012030000000000000006c92012021
:1039680030000000000000009c92012030000000a0
:10397800000000000c9a0120040000000100000073
:10398800aaaaaaaa7096012004000000000000005c
:1039980090010020608a0100000000007496012058
:1039a80004000000000000007896012004000000d8
:1039b800000000007c9601200400000000000000c8
:1039c80080960120040000000000000058950120a6
:1039d8000800000000000000849601200400000098
:1039e800000000008896012004000000000000008c
:1039f800e49301201400000000000000f893012067
:103a080014000000000000008c9601200400000053
:103a18000000000090960120040000000000000053
:103a280094960120040000000000000098960120f0
:103a380004000000000000009c9601200400000023
:103a480000000000a0960120040000000000000013
:103a5800dc8f01206400000000000000a496012013
:103a68000400000000000000a896012004000000e7
:103a780000000000ac9601200400000000000000d7
:103a8800b09601200400000000000000b496012058
:103a980004000000000000000c9401201400000045
:103aa8000000000020940120140000000000000025
:103ab800b89601200400000000000000bc96012018
:103ac8000400000000000000c0960120040000006f
:103ad80000000000c496012004000000000000005f
:103ae800349401201400000000000000c896012052
:103af80004000000000000004894012014000000a9
:103b0800000000005c940120140000000000000088
:103b1800cc9601200400000000000000d09601208f
:103b28000400000000000000109a012004000000ba
:103b3800010000000400000000000020c800000090
:103b480000000000c8000020c800000000000000bd
:103b5800d49601200400000000000000d89601203f
:103b68000400000000000000dc96012004000000b2
:103b780000000000e09601200400000000000000a2
:103b8800e49601200400000000000000939001204a
:103b980001000000000000008399012001000000de
:103ba80000000000e896012004000000000000006a
:103bb800939901200100000000000000ec9601200c
:103bc80004000000000000006596012001000000cc
:103bd80000000000f0960120040000000000000032
:103be800f49601200400000000000000f89601206f
:103bf80004000000000000006d9601200100000094
:103c0800000000007d990120010000000000000074
:103c18008599012001000000000000008999012019
:103c28000100000000000000fc96012004000000d4
:103c380000000000009701200400000000000000c0
:103c480004970120040000000000000008970120ec
:103c580004000000000000000c9701200400000090
:103c6800000000009a9901200200000000000000f6
:103c78007094012014000000000000009c990120ad
:103c880002000000000000008494012014000000dd
:103c9800000000009e9901200200000000000000c2
:103ca800989401201400000000000000a099012051
:103cb8000200000000000000ac9401201400000085
:103cc8000000000010970120040000000000000020
:103cd800289101204000000000000000f892012017
:103ce80028000000000000002093012028000000a8
:103cf80000000000088e0120a40000000000000061
:103d0800149701200400000000000000189701200b
:103d18000400000000000000989901200100000044
:103d2800000000001c9701200400000000000000b3
:103d380020970120040000000000000024970120c3
:103d48000400000000000000289701200400000083
:103d5800000000002c970120040000000000000073
:103d68003097012004000000000000003497012073
:103d78000400000000000000389701200400000043
:103d8800000000003c970120040000000000000033
:103d98004097012004000000000000004497012023
:103da8000400000000000000489701200400000003
:103db800000000004c9701200400000000000000f3
:103dc800509701200400000000000000068e01202a
:103dd8000200000000000000a6910120020000007f
:103de80000000000da91012002000000000000003d
:103df8009799012001000000000000008d99012022
:103e08000100000000000000549701200400000099
:103e18000000000058970120040000000000000086
:103e28005c9701200400000000000000609701205a
:103e38000400000000000000999901200100000022
:103e480000000000a299012001000000000000000d
:103e5800a39901200100000000000000a49901209e
:103e680001000000000000008e9301200200000005
:103e7800000000006497012004000000000000001a
:103e8800a5990120010000000000000068970120aa
:103e98000400000000000000a699012001000000b5
:103ea80000000000a79901200100000000000000a8
:103eb800a89901200100000000000000a999012034
:103ec800010000000000000026950120020000000b
:103ed800000000006c9701200400000000000000b2
:103ee800aa9901200100000000000000709701203d
:103ef8000400000000000000ab9901200100000050
:103f08000000000074970120040000000000000079
:103f18007897012004000000000000007c97012031
:103f28000400000000000000809701200400000049
:103f38000000000084970120040000000000000039
:103f48008897012004000000000000008c970120e1
:103f58000400000000000000909701200400000009
:103f680000000000949701200400000000000000f9
:103f78009897012004000000000000009c97012091
:103f88000400000000000000a097012004000000c9
:103f980000000000a49701200400000000000000b9
:103fa800ac9901200100000000000000ad9901203b
:103fb8000100000000000000ae990120010000008f
:103fc80000000000a8970120040000000000000085
:103fd800ac9701200400000000000000b097012009
:103fe8000400000000000000409001205300000081
:103ff80000000000b4970120040000000000000049
:10400800b89701200400000000000000bc970120c0
:104018000400000000000000c09701200400000018
:1040280000000000c4970120040000000000000008
:10403800c89701200400000000000000cc97012070
:104048000400000000000000d097012004000000d8
:1040580000000000d49701200400000000000000c8
:10406800d89701200400000000000000dc97012020
:104078000400000000000000a891012032000000a8
:1040880000000000e097012004000000000000008c
:10409800e49701200400000000000000e8970120d8
:1040a8000400000000000000ec970120040000005c
:1040b80000000000f097012004000000000000004c
:1040c800af9901200100000000000000b099012014
:1040d8000100000000000000f49701200400000027
:1040e80000000000b199012001000000000000005c
:1040f800b29901200100000000000000b3990120de
:10410800010000000000000060960120050000008a
:1041180000000000b4990120010000000000000028
:10412800689601200500000000000000f8970120b3
:104138000400000000000000fc97012004000000bb
:1041480000000000b59901200100000000000000f7
:10415800b699012001000000000000009499012098
:1041680003000000000000009099012003000000f7
:10417800000000000098012004000000000000007a
:10418800049801200400000000000000b7990120f5
:1041980001000000000000001c9501200a0000003a
:1041a80000000000669601200200000000000000e8
:1041b800b8990120010000000000000008980120c3
:1041c8000400000000000000b9990120010000006f
:1041d800000000006e9601200200000000000000b0
:1041e8007e9901200200000000000000869901204d
:1041f8000200000000000000609501200800000097
:104208000000000068950120080000000000000080
:10421800709501200800000000000000789501203a
:104228000800000000000000809501200800000040
:104238000000000088950120080000000000000030
:1042480090950120080000000000000098950120ca
:104258000800000000000000a095012008000000f0
:1042680000000000a89501200800000000000000e0
:10427800b09501200800000000000000b89501205a
:104288000800000000000000c095012008000000a0
:10429800000000000c98012004000000000000004d
:1042a800109801200400000000000000149801206c
:1042b800040000000000000018980120040000001d
:1042c800000000001c98012004000000000000000d
:1042d800209801200400000000000000249801201c
:1042e80004000000000000002898012004000000dd
:1042f80000000000c8950120080000000000000030
:10430800d09501200800000000000000d895012089
:104318000800000000000000e095012008000000ef
:1043280000000000e89501200800000000000000df
:10433800f09501200800000000000000f895012019
:10434800080000000000000000960120080000009e
:10435800000000000896012008000000000000008e
:1043680010960120080000000000000018960120a7
:10437800080000000000000020960120080000004e
:10438800000000002896012008000000000000003e
:104398002c98012004000000000000003098012043
:1043a8000400000000000000349801200400000010
:1043b8000000000038980120040000000000000000
:1043c8003c980120040000000000000040980120f3
:1043d80004000000000000004498012004000000d0
:1043e80000000000489801200400000000000000c0
:1043f8004c980120040000000000000050980120a3
:10440800040000000000000054980120040000008f
:10441800000000005898012004000000000000007f
:104428005c98012004000000000000006098012052
:10443800040000000000000064980120040000004f
:10444800000000006898012004000000000000003f
:104458006c98012004000000000000007098012002
:10446800040000000000000074980120040000000f
:1044780000000000789801200400000000000000ff
:104488007c980120040000000000000080980120b2
:1044980004000000000000008498012004000000cf
:1044a80000000000889801200400000000000000bf
:1044b8008c98012004000000000000009098012062
:1044c800040000000000000094980120040000008f
:1044d800000000009898012004000000000000007f
:1044e8009c9801200400000000000000a098012012
:1044f8000400000000000000a4980120040000004f
:1045080000000000a898012004000000000000003e
:1045180030960120080000000000000038960120b5
:10452800080000000000000040960120080000007c
:10453800000000004896012008000000000000006c
:104548005096012008000000000000005896012045
:104558000800000000000000ba99012001000000d6
:1045680000000000ac9801200400000000000000da
:10457800bb9901200100000000000000bc99012047
:104588000100000000000000b098012004000000b5
:1045980000000000bd99012001000000000000009b
:1045a800b498012004000000000000006891012078
:1045b8003e000000000000008a990120020000006f
:1045c80000000000be99012001000000000000006a
:1045d800b89801200400000000000000bf990120e5
:1045e8000100000000000000c09901200100000047
:1045f80000000000c1990120010000000000000037
:10460800bc9801200400000000000000c0980120b0
:104618000400000000000000c29901200100000011
:1046280000000000c3990120010000000000000004
:10463800c49801200400000000000000c898012070
:104648000400000000000000cc98012004000000d5
:1046580000000000d09801200400000000000000c5
:10466800c49901200100000000000000c599012044
:104678000100000000000000d498012004000000a0
:1046880000000000c69901200100000000000000a1
:10469800d89801200400000000000000dc980120e8
:1046a8000400000000000000b08c0120aa000000f7
:1046b80000000000e0980120040000000000000055
:1046c800c79901200100000000000000c8990120de
:1046d8000100000000000000c9990120010000004d
:1046e800000000008c99012001000000000000007b
:1046f800ca9901200100000000000000e498012090
:104708000400000000000000e490012044000000c4
:1047180000000000e89801200400000000000000ec
:10472800ec9801200400000000000000f09801202f
:104738000400000000000000cb99012001000000e7
:1047480000000000cc9901200100000000000000da
:1047580088990120010000000000000084990120d0
:104768000100000000000000f4980120040000008f
:1047780000000000f898012004000000000000007c
:10478800cd9901200100000000000000ce99012011
:104798000100000000000000cf9901200100000086
:1047a80000000000d0990120010000000000000076
:1047b800d19901200100000000000000fc980120b0
:1047c8000400000000000000d29901200100000050
:1047d80000000000d3990120010000000000000043
:1047e800d49901200100000000000000d5990120a3
:1047f8000100000000000000d6990120010000001f
:1048080000000000009901200400000000000000e2
:10481800049901200400000000000000089901200c
:1048280004000000000000000c99012004000000b2
:1048380000000000d79901200100000000000000de
:10484800d899012001000000000000001099012003
:104858000400000000000000d999012001000000b8
:1048680000000000da9901200100000000000000ab
:10487800db990120010000000000000014990120cc
:104888000400000000000000189901200400000046
:10489800000000005c8d0120aa000000000000005c
:1048a8001c9901200400000000000000dc99012090
:1048b8000100000000000000209901200400000011
:1048c80000000000dd990120010000000000000048
:1048d800809901200300000000000000de990120fb
:1048e8000100000000000000df9901200100000025
:1048f80000000000e0990120010000000000000015
:10490800e199012001000000000000002499012025
:104918000400000000000000e299012001000000ee
:1049280000000000e39901200100000000000000e1
:104938002899012004000000000000002c990120a3
:10494800040000000000000030990120040000006d
:1049580000000000e49901200100000000000000b0
:10496800e5990120010000000000000034990120b1
:104978000400000000000000e6990120010000008a
:104988000000000038990120040000000000000029
:10499800e799012001000000000000003c99012077
:1049a8000400000000000000e89901200100000058
:1049b80000000000409901200400000000000000f1
:1049c8007c990120010000000000000044990120aa
:1049d80004000000000000004899012004000000c5
:1049e800000000004c9901200400000000000000b5
:1049f8005099012004000000000000005499012093
:104a08000400000000000000ac8e0120a00000009f
:104a180000000000e09401201000000000000000e9
:104a2800e999012001000000000000001095012014
:104a38000c0000000000000058990120040000004c
:104a480000000000ea9901200100000000000000b9
:104a5800eb99012001000000000000005c99012092
:104a68000400000000000000f09401201000000085
:104a7800000000004c8f01209000000000000000a2
:104a880060990120040000000000000064990120e2
:104a980004000000000000006899012004000000e4
:104aa800000000005a8d01200200000000000000f4
:104ab8000a9a012002000000010000000401000021
:104ac800349a01200200000001000000b400000038
:104ad800ec9901201e000000010000005aa51b826d
:104ae800524068747470733a2f2f7777772e7374e7
:104af800617469712e696e2fffff0000389a0120da
:104b080001000000010000000c000000399a01209b
:104b180001000000010000000c0000003a9a01208a
:104b28000100000001000000030000003b9a012082
:104b380001000000010000000f0000003c9a012065
:104b48000100000001000000500000003d9a012013
:104b5800010000000100000014000000149a012068
:104b680004000000010000000000803f3e9a012080
:104b78000100000001000000010000003f9a012030
:104b8800010000000100000001000000189a012047
:104b98000400000001000000cdcccc3f1c9a01208d
:104ba800040000000100000000000040209a0120dd
:104bb800040000000100000000000040249a0120c9
:104bc80004000000010000000060ea47369a012056
:104bd8000200000001000000af4a0000289a0120ee
:104be8000400000001000000000048432c9a012046
:104bf800040000000100000000004843309a012032
:104c08000400000001000000000048436c990120e6
:104c180004000000000000000095012010000000c2
:104c28000000000048930120280000000000000058
:104c3800709301201e000000000000007099012000
:104c480004000000000000009490012050000000c3
:104c5800000000007499012004000000000000001a
:104c68007899012004000000000000000000000006
:104c780000000000444444444444444444444444fc
:020000040000fa
:104c88002de9f04f87b09a4c00230193994f9a4b26
:104c980003f13c050123009300f0fabf974b1a6813
:104ca80095490a601b68cbb1954b1b785bb12268ac
:104cb800924b53f82230002b40f0a380904b4ff0da
:104cc80000021a709de08e4b4ff001021a708b4b58
:104cd8001b6833804ff47a602af07afd2268874b8c
:104ce80053f82230002b40f08c80854b1b78002b2a
:104cf80000f08780e2e7814b5a687f494a605b6829
:104d0800c3b17f4b5b7853b122687c4b53f8223098
:104d1800002b76d17a4b4ff000025a7071e0784b35
:104d28004ff001025a70754b5b6833804ff47a601c
:104d38002af04efd2268714b53f82230002b60d1c7
:104d48006f4b5b78002b5cd0e4e76c4b9a686a4940
:104d58008a609b68c3b16a4b9b7853b12268674be2
:104d680053f82230002b4cd1654b4ff000029a705b
:104d780047e0634b4ff001029a70604b9b683380a9
:104d88004ff47a602af024fd22685c4b53f82230f5
:104d9800002b36d15a4b9b78002b32d0e4e7574b87
:104da800da685549ca60db68bbb1554bdb784bb153
:104db8002268524b53f822301bbb514b4ff0000274
:104dc800da701ee04e4b4ff00102da704b4bdb6895
:104dd80033804ff47a602af0fbfc2268474b53f883
:104de800223073b9464bdb785bb1e6e7434bd3f827
:104df8008430012b66d0414bd3f88430022b00f06d
:104e0800a0803388adf80c30b8f80030adf80e301b
:104e1800b9f80030adf81030baf80030adf81230fb
:104e28003b88adf81430bbf80030adf816300223db
:104e3800002203a93348006826f074f92368013377
:104e480023601f2b00f355861b2bdad801a252f8da
:104e580023f000bfa54c0000ff4c0000534d00009c
:104e6800a74d0000f54d00000b4e0000b54f0000a7
:104e78000f50000069500000c35000001d51000091
:104e880089510000e35100003f5200000b4e000022
:104e9800995200007b5300007154000053550000e4
:104ea8002156000003570000d3570000a358000004
:104eb8000b4e000001590000e7590000435a00005a
:104ec8009f5a00000d4b19690f4a11601b6953b3b3
:104ed8000b4b93f82c30cbb12268084b53f8223097
:104ee800002b88d1064b4ff0000283f82c2082e774
:104ef800fc9801207e99012028910120088e01202c
:104f0800689101202c970120f8920120984b4ff0ce
:104f1800010283f82c20974b1b69a8f800304ff446
:104f28007a602af055fc2268924b53f82230002b05
:104f38007ff461af8e4b93f82c30002b3ff45bafbe
:104f4800d0e723688b4a52f823008b49086052f84f
:104f58002320eab1864a92f82d205ab1854a52f8a0
:104f68002330002b7ff44daf814b4ff0000283f8c4
:104f78002d2046e77e4a4ff0010182f82d107d4a28
:104f880052f82330a9f800304ff47a602af020fc58
:104f98002268784b53f82230002b7ff432af744be1
:104fa80093f82d30002b3ff42cafdde7714b9a6955
:104fb80072490a619b69cbb16d4b9b795bb12268e1
:104fc8006c4b53f82230002b7ff41baf684b4ff02b
:104fd80000029a7115e7664b4ff001029a71654b12
:104fe8009b6933804ff47a602af0f2fb2268614ba8
:104ff80053f82230002b7ff404af5d4b9b79002bd4
:105008003ff4ffaee2e75b4bda695c494a61db6972
:10501800cbb1574bdb795bb12268564b53f8223042
:10502800002b7ff4eeae524b4ff00002da71e8e647
:105038004f4b4ff00102da714e4bdb6933804ff46e
:105048007a602af0c5fb22684a4b53f82230002bbd
:105058007ff4d7ae464bdb79002b3ff4d2aee2e7c4
:10506800444b1a6a45498a611b6acbb1404b1b7a8b
:105078005bb122683f4b53f82230002b7ff4c1ae5e
:105088003b4b4ff000021a72bbe6394b4ff001025e
:105098001a72384b1b6a33804ff47a602af098fbf7
:1050a8002268344b53f82230002b7ff4aaae304be1
:1050b8001b7a002b3ff4a5aee2e72e4b5a6a2f4924
:1050c800ca615b6acbb12a4b5b7a5bb12268294b18
:1050d80053f82230002b7ff494ae254b4ff000029a
:1050e8005a728ee6234b5b6a3380214b4ff00102e4
:1050f8005a724ff47a602af06bfb22681d4b53f802
:105108002230002b7ff47dae194b5b7a002b3ff4e5
:1051180078aee2e7174b9a6a18490a629b6acbb1e4
:10512800134b9b7a5bb12268124b53f82230002b49
:105138007ff467ae0e4b4ff000029a7261e60c4b9b
:105148004ff001029a720b4b9b6a33804ff47a60de
:105158002af03efb2268074b53f82230002b7ff4dd
:1051680050ae034b9b7a002b3ff44baee2e700bff7
:1051780068910120088e01202093012028910120a8
:105188009a4bda6a9a494a62db6acbb1994bdb7a65
:105198005bb12268954b53f82230002b7ff431ae77
:1051a800944b4ff00002da722be6924b4ff001025b
:1051b800da728e4bdb6a33804ff47a602af008fb90
:1051c80022688a4b53f82230002b7ff41aae894ba1
:1051d800db7a002b3ff415aee2e7844b1a6b844967
:1051e8008a621b6bd3b1834b1b7b5bb122687f4bfd
:1051f80053f82230002b7ff404ae7e4b4ff00002b0
:105208001a73fee57b4b4ff001021a73774b1b6b49
:10521800aaf800304ff47a602af0dafa2268734b61
:1052280053f82230002b7ff4ecad724b1b7b002b24
:105238003ff4e7ade1e76d4b5a6b6d49ca625b6bb2
:10524800cbb16c4b5b7b5bb12268684b53f8223067
:10525800002b7ff4d6ad674b4ff000025a73d0e5b0
:10526800644b4ff001025a73604b5b6b33804ff411
:105278007a602af0adfa22685c4b53f82230002b92
:105288007ff4bfad5b4b5b7b002b3ff4baade2e72d
:10529800564bd3f88830012b20d0544bd3f88830a4
:1052a800022b7ff4aead2368504a52f823005249ce
:1052b800886052f82320002a4dd04e4a92f82f20b9
:1052c800002a3ad0494a52f82330002b7ff499ad8e
:1052d800484b4ff0000283f82f2092e5434bd96bdf
:1052e800464a9160db6be3b1424b93f82e305bb1d9
:1052f80022683e4b53f82230002bced13d4b4ff065
:10530800000283f82e20c8e73a4b4ff0010283f8d9
:105318002e20364bdb6ba8f800304ff47a602af069
:1053280057fa2268314b53f82230002bb5d1314b54
:1053380093f82e30002bb0d0e0e72e4a4ff0010151
:1053480082f82f10294a52f82330a9f800304ff478
:105358007a602af03dfa2268244b53f82230002b59
:105368007ff44fad234b93f82f30002b3ff449ad1a
:10537800aee71e4bd3f8a430012b20d01b4bd3f83b
:10538800a430022b7ff43dad2368184a52f823005d
:105398001949c86052f82320002a57d0154a92f8b4
:1053a8003120002a44d0114a52f82330002b7ff4d0
:1053b80028ad104b4ff0000283f8312021e50b4b4c
:1053c800196c0e4ad1601b6c33b30a4b93f830301a
:1053d800b3b12268054b53f82230002bced1054bd0
:1053e8004ff0000283f83020c8e700bf088e012084
:1053f800289101206891012020930120f892012032
:10540800a44b4ff0010283f83020a34b1b6c3b8068
:105418004ff47a602af0dcf922689f4b53f8223067
:10542800002babd19b4b93f83030002ba6d0d6e79e
:10543800984a4ff0010182f83110974a52f8233008
:10544800abf800304ff47a602af0c2f92268924b28
:1054580053f82230002b7ff4d4ac8e4b93f83130c4
:10546800002b3ff4ceaca4e78b4bd3f89c30012b38
:1054780020d0894bd3f89c30022b7ff4c2ac236830
:10548800854a52f823008549086152f82320002aea
:105498004dd0804a92f83320002a3ad07e4a52f8fa
:1054a8002330002b7ff4adac7a4b4ff0000283f829
:1054b8003320a6e4784b596c794a11615b6ce3b1ef
:1054c800744b93f832305bb12268734b53f8223037
:1054d800002bced16f4b4ff0000283f83220c8e783
:1054e8006c4b4ff0010283f832206b4b5b6ca8f8d1
:1054f80000304ff47a602af06bf92268664b53f853
:105508002230002bb5d1634b93f83230002bb0d04a
:10551800e0e7604a4ff0010182f833105e4a52f822
:105528002330a9f800304ff47a602af051f9226844
:10553800594b53f82230002b7ff463ac554b93f84a
:105548003330002b3ff45dacaee7534bd3f89c30bf
:10555800012b20d0504bd3f89c30022b7ff451ac58
:1055680023684d4a52f823004c49486152f82320d9
:10557800002a43d0474a92f83520002a35d0464ab7
:1055880052f82330002b7ff43cac424b4ff0000222
:1055980083f8352035e4404b996c414a51619b6c46
:1055a800bbb13c4b93f834305bb122683a4b53f8ab
:1055b8002230002bced1374b4ff0000283f8342035
:1055c800c8e7354b9b6ca8f800304ff47a602af096
:1055d800fff82268304b53f82230002bbad12d4bfc
:1055e80093f83430002bb5d0e5e72b4a52f8233036
:1055f800a9f800304ff47a602af0eaf82268264bbe
:1056080053f82230002b7ff4fcab224b93f8353053
:10561800002b3ff4f6abb8e71f4bd3f89030012bc3
:1056280021d01d4bd3f89030022b7ff4eaab2368ce
:10563800194a52f823001949886152f82320002a90
:105648004dd0144a92f83720002a3fd0124a52f817
:105658002330002b7ff4d5ab0e4b4ff0000283f8bc
:105668003720fff7cebb0c4bd96c0d4a9161db6c30
:1056780003b3084b93f83630a3b12268064b53f8ae
:105688002230002bcdd1034b4ff0000283f8362097
:10569800c7e700bf68910120088e012020930120f0
:1056a800f8920120a84bdb6ca8f800304ff47a6020
:1056b8002af08ef82268a44b53f82230002bb0d180
:1056c800a24b93f83630002babd0dce79e4a52f859
:1056d8002330a9f800304ff47a602af079f822686c
:1056e800994b53f82230002b7ff48bab974b93f8f0
:1056f8003730002b3ff485abaee7934bd3f89430ab
:10570800012b21d0904bd3f89430022b7ff479ab46
:1057180023688d4a52f823008d49c86152f8232026
:10572800002a44d0894a92f83920002a36d0864a7d
:1057380052f82330002b7ff464ab844b4ff0000207
:1057480083f83920fff75dbb7f4b196d814ad16122
:105758001b6dbbb17d4b93f838305bb122687a4b37
:1057680053f82230002bcdd1784b4ff0000283f84c
:105778003820c7e7744b1b6da8f800304ff47a60e7
:105788002af026f82268704b53f82230002bb9d142
:105798006e4b93f83830002bb4d0e5e76a4a52f8dc
:1057a8002330a9f800304ff47a602af011f8226803
:1057b800654b53f82230002b7ff423ab634b93f8ef
:1057c8003930002b3ff41dabb7e75f4bd3f8983067
:1057d800012b21d05c4bd3f89830022b7ff411ab0e
:1057e8002368594a52f823005949086252f823207d
:1057f800002a44d0554a92f83b20002a36d0524a13
:1058080052f82330002b7ff4fcaa504b4ff00002d3
:1058180083f83b20fff7f5ba4b4b596d4d4a11629f
:105828005b6dbbb1494b93f83a305bb12268464b8c
:1058380053f82230002bcdd1444b4ff0000283f8af
:105848003a20c7e7404b5b6da8f800304ff47a6008
:1058580029f0beff22683c4b53f82230002bb9d107
:105868003a4b93f83a30002bb4d0e5e7364a52f871
:105878002330a9f800304ff47a6029f0a9ff226894
:10588800314b53f82230002b7ff4bbaa2f4b93f8ef
:105898003b30002b3ff4b5aab7e72b4b9a6d2e4946
:1058a8000a639b6ddbb1294b9b7d63b12268264b54
:1058b80053f82230002b7ff4a4aa244b4ff00002a7
:1058c8009a75fff79eba214b4ff001029a751e4b4d
:1058d8009b6daaf800304ff47a6029f079ff2268ae
:1058e800194b53f82230002b7ff48baa174b9b7d62
:1058f800002b3ff486aae0e7134bd3f88c30012b3a
:105908002cd0114bd3f88c30022b7ff47aaa236861
:105918000d4a52f823000e49486252f82320002a03
:105928004fd00a4a92f83d20002a41d0064a52f840
:105938002330002b7ff465aa044b4ff0000283f854
:105948003d20fff75eba00bf088e01206891012054
:1059580020930120f892012028910120934b196e81
:10596800934a51621b6ebbb1924b93f83c305bb1ca
:1059780022688e4b53f82230002bc2d18d4b4ff04a
:10598800000283f83c20bce7884b1b6ea8f8003067
:105998004ff47a6029f01cff2268844b53f82230b8
:1059a800002baed1834b93f83c30002ba9d0e5e710
:1059b8007e4a52f82330a9f800304ff47a6029f073
:1059c80007ff2268794b53f82230002b7ff419aa7d
:1059d800784b93f83d30002b3ff413aaace7734b98
:1059e8005a6e75494a635b6ed3b1724b5b7e63b185
:1059f80022686e4b53f82230002b7ff402aa6d4bbd
:105a08004ff000025a76fff7fcb96a4b4ff00102db
:105a18005a76664b5b6e33804ff47a6029f0d8fe75
:105a28002268624b53f82230002b7ff4eaa9614bbd
:105a38005b7e002b3ff4e5a9e1e75c4b9a6e5e497b
:105a48008a639b6ed3b15b4b9b7e63b12268574bd5
:105a580053f82230002b7ff4d4a9564b4ff00002a4
:105a68009a76fff7ceb9534b4ff001029a764f4b17
:105a78009b6e33804ff47a6029f0aafe22684b4b64
:105a880053f82230002b7ff4bca94a4b9b7e002b95
:105a98003ff4b7a9e1e7454bda6e47498a63db6e05
:105aa800d3b1444bdb7e63b12268404b53f82230bc
