:10200000F0FF032069750200073D02001F7B0200FC
:10201000AB91020023B00200E7B50200000000000F
:1020200000000000000000000000000031B60200C7
:102030004B8F020000000000818102001DAF0200F2
:102040004BBA02004BBA02004BBA02004BBA020074
:102050004BBA02004BBA02004BBA02004BBA020064
:102060004BBA02004BBA02004BBA02004BBA020054
:102070004BBA02006DB9020089B902004BBA0200E6
:102080004BBA0200A5B90200C1B90200DDB90200D5
:10209000D1B70200F1B7020011B80200E9B50200A1
:1020A0000DB602004BBA02004BBA02004BBA020056
:1020B0004BBA02004BBA02004BBA02004BBA020004
:1020C0004BBA02004BBA02004BBA02004BBA0200F4
:1020D0004BBA02004BBA02004BBA02004BBA0200E4
:1020E0004BBA02004BBA02000000000000000000E2
:1020F000000000004BBA02004BBA02004BBA0200CB
:102100004BBA02004BBA02004BBA02004BBA0200B3
:102110004BBA02004BBA02003D8B02003D8B02001D
:102120003D8B02003D8B0200D5470200D5470200DF
:10213000D5470200D54702004D8A02004D8A0200B1
:102140004D8A02004D8A02006D8802006D880200EF
:102150006D8802006D8802005D8902005D890200C1
:102160005D8902005D8902002D8C02002D8C020029
:102170002D8C02002D8C02008D6B0200416C020040
:102180004BBA02004BBA02004BBA02004BBA020033
:10219000000000004BBA02004BBA02004BBA02002A
:1021A0004BBA02004BBA02004BBA02004BBA020013
:1021B0004BBA02004BBA02004BBA02004BBA020003
:1021C0004BBA02004BBA02004BBA02004BBA0200F3
:1021D0004BBA02004BBA02004BBA02004BBA0200E3
:1021E0004BBA02004BBA02004BBA02004BBA0200D3
:1021F0004BBA02004BBA02004BBA02004BBA0200C3
:102200004BBA02004BBA02004BBA02004BBA0200B2
:102210004BBA02004BBA02004BBA02004BBA0200A2
:102220004BBA02004BBA02004BBA02004BBA020092
:102230004BBA02004BBA02004BBA02004BBA020082
:102240004BBA02004BBA02004BBA02004BBA020072
:102250004BBA02004BBA02004BBA02004BBA020062
:10226000B80C0200010000002DE9F04F0024F9B085
:102270009222214653A80F94CDE911440B948DF876
:102280003040ADF82440CDE913440A94CDE9194417
:102290008DF86C40CDF83F40CDE91C44CDE91E449B
:1022A000CDE92044CDE922442494CDE93244CDE95E
:1022B0003444CDE936443894CDE928442A94309406
:1022C000ADF8AC40CDE92C44CDE92E44CDF8C34067
:1022D00029F020FD1E22214639A8CDE91544DFF85A
:1022E00024A3B04DDFF820B3AF4FDFF82083AF4E0B
:1022F00029F010FD1DE2AE4B186824F051FDAD4BE6
:102300003C801C70AC4BA8F80040002211A9186852
:10231000AAF8004023F0A2FEA84B00220BA91868DF
:1023200023F09CFEA64B002209A9186823F096FE14
:102330009DF84B90B9F1010F40F0C7819DF82E3008
:102340000393002B40F0C1819DF82D306D2B24D8D4
:10235000632B00F2BA819B4B9B481C934023642261
:102360001CA98DF87A300068002323F0FFFE4FF49B
:102370007A7028F04DFC9448924B1C936422002301
:102380001CA900688DF8E2408DF87A4023F0EEFE3B
:10239000642028F03DFC012396E18C4B039A1A60DF
:1023A0008B4B89481A60874B1C9340231CA98DF8DE
:1023B0007A3000681346642223F0D8FE4FF47A7016
:1023C00028F026FC80487F49039B1C9164221CA9AD
:1023D00000688DF8E2408DF87A4023F0C7FE642053
:1023E00028F016FC0C238BF8003085F800909DF83F
:1023F0002D30ADE77748784B1F93642200231FA947
:1024000000688DF8804023F0B1FE642028F000FCC5
:102410007248734B22934FF001090023642222A9D2
:102420000068ADF8A6908DF8A840ADF88C908DF8B6
:102430008E4023F09BFE642028F0EAFB6248614B4B
:102440001C93642200231CA900688DF8E0908DF88D
:10245000759023F08BFE642028F0DAFB584B0022A5
:10246000186809A923F0FAFD9DF824304B4540F087
:102470002C814FF0020327E1524B53481C93402319
:1024800064221CA98DF87A300068002323F06EFEC8
:102490004FF47A7028F0BCFB4B484A4B1C936422E3
:1024A00000231CA900688DF8E2408DF87A4023F0E3
:1024B0005DFE642028F0ACFB404B00220BA918689D
:1024C00023F0CCFD002800F000819DF82D30A3F111
:1024D00050021D2A21D96D2B0ED9424B1B7803F0D7
:1024E000FF09002B00F094803F4B01201C700C234F
:1024F0008BF8003025F0D8FE3C4B1B681E2B40F3B8
:10250000E4803A4B1C60374B1B7823B9384B4FF4AF
:102510008032C3F898202C70D7E0022025F0C4FE4A
:10252000334B4FF48032C3F8942009232E4A8BF8A2
:10253000003001231370254B1B68012B0FD02D4B4E
:102540001B78022B19D0214B1B680BB903232B706E
:10255000264A1368013313609DF82D30BBE72648E7
:102560008DF81C400223002207A9006823F0FEFD1D
:10257000224B186824F014FCE1E71E4A92F80190FF
:10258000B9F1010FDFD11E488DF8184003222A70DF
:1025900006A90022006823F0E9FD0D4BC3F8009066
:1025A000D1E700BFBD990120D0990120E898012012
:1025B000C0970120089A01209C980120A098012032
:1025C000C498012002C4EC15649801202C990120C4
:1025D000349901204898012001C4EC153898012055
:1025E00002D4EC15D9990120DE9901201899012017
:1025F00000800041C49901204C97012034970120AC
:102600005C97012036950120B1990120D4990120D1
:10261000B24B4FF48032C3F89820B14B186823F0C6
:1026200027FE4FF6FF7027F0A1FCAE4BC3F80090D9
:10263000AD4BC3F80090AD4B1B78002B7FF454AF2B
:10264000AA4A01231370AA4B187825F015FF4BE70F
:10265000A84BA9481C60A94B1F93082364221FA9FB
:102660008DF8B3308DF883300068002323F07EFDB1
:102670004FF47A7028F0CCFAA148A24B1C93642244
:1026800000231CA900688DF87840ADF87A4023F04B
:102690006DFD4FF47A7028F0BBFA9B4B002209A91C
:1026A000186823F0DBFC974B95481C930223389362
:1026B0008DF87530642200231CA9006823F056FDB4
:1026C000642028F0A5FA04232B709BF800303A8888
:1026D000ADF85E20B8F80020ADF85C208B4A8C483D
:1026E00012788DF862208B4A8DF8613012788DF85F
:1026F00060208DF814300022022317A9006823F00F
:1027000035FD85480223002205A9006823F02EFD2F
:102710003368012B09D1814B346018682C7024F088
:102720003FFB7F4B186823F0A3FD4FF4487028F05F
:102730006FFA7C4B002208A9186823F08FFC30B197
:10274000BAF800209DF820301344AAF800302B7806
:102750001E2BBAD801A252F823F000BFF7220000C6
:10276000F52300007924000051260000D92700003D
:10277000CB2600003F280000CB260000CB2600001F
:10278000CB260000CB260000CB260000CB26000085
:10279000CB260000CB260000CB26000095290000A8
:1027A000CB260000872A0000E32C0000492D000002
:1027B000CB260000DD2F0000CB260000CB2600003A
:1027C000CB260000CB260000CB260000CB26000045
:1027D000CB26000075380000534B00220BA9186867
:1027E00023F03CFC484B0022186809A923F036FC72
:1027F0009DF82E309DF82D20012B19D09DF8243006
:10280000FA2B02D0FC2B00D003B92C706D2A7FF676
:102810005CAF464B1B7823B9304B4FF48032C3F882
:102820009820434B1C700C238BF800302C704EE723
:10283000A2F150031D2B9CBF06232B70DEE72B4B10
:102840001C70314B0022186809A923F007FC9DF881
:102850002430312B15D9234AD2F80090B9F1010F59
:1028600032D0B9F1000F41F08D81324B4A460FA9A9
:10287000186823F0F3FB002864D19DF82430FA2B6C
:1028800002D0FC2B00D043B9164A1268012A7FD02F
:102890001AB914492A7001220A600A2B7FF415AF75
:1028A000254A13780133DBB2F02B13707FF40DAFA0
:1028B000214B224A1C7040F233132C701380204BA2
:1028C0004FF002021A70BEE01022FA2B2A703FF479
:1028D00022AEFC2B7FF4F9AED6E700BF00800041AA
:1028E000689701202C99012034990120149A012025
:1028F0006F9A0120189901204898012001C4EC1515
:102900006498012002C4EC15C4980120E7990120C5
:1029100048970120E9990120089701208C97012010
:102920005098012088970120A0980120D999012072
:10293000DE990120AC980120209A01207696012092
:10294000ED9901200F9BB6480D93BDF84030ADF8CE
:1029500038304A4602230DA9006823F007FC9DF891
:102960003430002B89D0AF4AAF48012313601023C5
:102970002B704FF002038DF81C304A46022307A942
:10298000006823F0F3FBA94B186824F009FA74E7F8
:102990002C7082E7A64B1C70A64BD3F80090B9F1BF
:1029A000000F2FD1A44B1B78022B2ED1A24A5278B4
:1029B0000392012A29D1A1488DF818904A4606A908
:1029C000006823F0D3FB9E4B9E481C93039B8DF81D
:1029D000E23064221CA98DF87A3000684B4623F05F
:1029E000C5FB642028F014F9974B4A4609A91868DA
:1029F00023F034FB12230E202B7025F03DFD8D4B70
:102A0000D3F80090B9F1010F21D08F4B0022186844
:102A100009A923F023FB9DF82430FA2B04D0FC2BCA
:102A200002D0002B7FF451AE7E4A2C70012313603C
:102A3000864A4FF49A731380854B4FF002021A7046
:102A4000062027F0A1FB112025F016FD3DE67D486C
:102A50007B4B1C931CA90023642200688DF8E29034
:102A60008DF87A9023F082FB642028F0D1F8764B21
:102A7000002209A9186823F0F1FA12230E202B7006
:102A800025F0FAFCC1E76B4A724801231360724BD0
:102A900000684FF40012C3F81821002325936F4BF0
:102AA000269340F20123002225A9ADF89C30022391
:102AB00023F05CFB6A4B186824F072F9694B002222
:102AC00013A9186823F0CAFA002800F0F0809DF8D6
:102AD0004C309DF84D2064495A488DF87A4002EBFD
:102AE0000322A1FB0232D30807EE903A9DF84E2054
:102AF0009DF84F30006803EB0223A1FB0323DB08A2
:102B000007EE103AB8EEC77A584ABDEEC77AF8EE2B
:102B1000E77A17EE103A92FBF3F303EB83035B00C3
:102B200007EE103A524BB8EEC77A642283ED007A72
:102B3000B2EE047A67EE877A93ED007AF4EEC77A04
:102B4000F1EE10FA48BFC3ED007A3D4B1C931CA96F
:102B5000002323F00BFB642028F05AF8444A454B2D
:102B6000D2ED007A1F93FCEEE77A434817EE903AD5
:102B7000D2ED007A8DF88030FCEEE77A642217EE11
:102B8000903AC3F307238DF8813041F65833ADF8FE
:102B900082303A4B21931FA90023006823F0E6FA04
:102BA0004FF4967028F034F8354A364B3248CDE968
:102BB0001F23A3F5C80364221FA9219300680023E3
:102BC00023F0D4FA4FF4967028F022F81D481C4BDD
:102BD0001C934FF0020200231CA98DF8E2208DF80F
:102BE0007A200068642223F0C1FA642028F010F8EB
:102BF000102025F041FC144B0022186809A923F08D
:102C00002DFA9DF82430A3F15B02092A3CD8132346
:102C10002B70114B4FF48012C3F8142147E000BF12
:102C2000509701202C9901204C97012034970120C6
:102C3000209A012034990120C49901205C97012039
:102C400002C4EC1564980120C498012076960120F6
:102C5000ED990120F89701200080004100004843D1
:102C6000FC970120B4980120CDCCCCCC7011010090
:102C7000CC97012003C4EC154898012010271400BC
:102C800004C0EC151400C800FA2B01D0FC2B25D190
:102C9000B34A2C7040F235131380B24B4FF002024E
:102CA00008201A7027F070FA112025F0E5FBAE48D5
:102CB0000D94022300220DA90068ADF8384023F0DE
:102CC00055FAAA488DF81C400223002207A9006883
:102CD00023F04CFAA64B1C809C70F6E4002BD7D056
:102CE000E5E7A44B002218680BA923F0B7F99DF87B
:102CF0002D30312B7FF6E9AC9F4BD3F8203113F008
:102D0000807316D101228DF8782040F60142ADF88B
:102D1000E1209A480C228DF87A20994A1C921CA92D
:102D20006422006823F022FA642027F071FF142344
:102D3000CAE48B4A2C7040F235131380894B4FF054
:102D400002021A7007207CE68E4B00220AA918683E
:102D500023F084F99DF828309DF829208A498B4872
:102D600002EB0322A1FB0232D20807EE902A884B25
:102D70009DF82A200068F8EEE77AC3ED007A9DF806
:102D80002B30CDED267A03EB0223A1FB0323DB08D6
:102D900007EE103A7F4BB8EEC77A002283ED007A37
:102DA0004FF08043259340F2012325A9ADF89C30D4
:102DB000022323F0DBF9784B186823F0F1FFBDF80C
:102DC00028306E485BBAADF87430744B1C936422A3
:102DD00000231CA9006823F0C9F9642027F018FF1C
:102DE000122025F049FB6E4B002209A9186823F038
:102DF00035F900283FF469AC9DF82430782B12D0C7
:102E0000FA2B04D0FC2B02D0002B7FF45EAC1E23E7
:102E1000534A2B704FF49B731380524B4FF00202B6
:102E20001A7008200DE65F4BD3F8009028F0BAFF27
:102E30004EF660230246012100934846002327F006
:102E4000CBFE594BD3F8009028F0ACFF4EF6602330
:102E50000246012100934846002327F0BDFE534B54
:102E6000D3F8009028F09EFF4EF660230246012121
:102E700000934846002327F0AFFE4D4BD3F8009057
:102E800028F090FF4EF66023024601210093484649
:102E9000002327F0A1FE474BD3F8009028F082FFD3
:102EA0004EF660230246012100934846002327F096
:102EB00093FE414BD3F8009028F074FF4EF6602348
:102EC0000246012100934846002327F085FE162381
:102ED0002B703A4B187828F05DFA642027F098FEA2
:102EE0003749087828F06AFA642027F091FE354BBC
:102EF000188828F077FA642027F08AFE324A107882
:102F000028F098FA642027F083FE3049087828F0EA
:102F10007DFA642027F07CFE2D48007828F09EFA88
:102F2000642027F075FE2B4B2B4A1B681360244846
:102F3000244B224A19880378127825481B0243EA59
:102F4000014313432149204A0978449313780278B6
:102F50001B0243EA0143134345939DF824304FE796
:102F600076960120ED990120509701204C97012081
:102F7000C4990120A098012000800041649801209C
:102F800002C4EC15BC980120CDCCCCCCF897012024
:102F90009C990120F8980120FC97012005C4EC15AC
:102FA000C4980120DC9801206099012064990120D7
:102FB000689901206C99012098970120F9990120C6
:102FC000129A01206A8D0120119A0120029A012093
:102FD0001E9A0120B897012024980120434B1868BD
:102FE00023F0DEFE032025F05FF9BAF8000026F09A
:102FF00061FD3F4B1B78072B73D03E4B00220AA983
:10300000186823F02BF8002840F08E803A4B0022FD
:1030100019A9186823F022F890B13849384A0B787A
:103020009DF86600D05401330B70314B1B7806229B
:10303000042B8BF8002040F23883052B00F04183ED
:10304000304B1B78052B00F044832C4B1B78052B51
:1030500000F095832C4B1B7803F0FF0223B92B4B18
:103060001B78012B00F0D583274B1B78012B00F038
:10307000D9839DF82430292B03D0FA2B01D0FC2BC7
:1030800012D11E232B70224A09238BF80030CA2349
:103090001380204B4FF002020A201A7027F074F8B8
:1030A0001D4B1E4A1B6813609DF86430012B00F015
:1030B000CD831B4B1B78022B7FF407AB184B9B78FF
:1030C000012B7FF402AB164A144914801E2394701E
:1030D000114A2B7012680A6009238BF80030FFF741
:1030E000F6BA104B187826F0C5FC86E768970120E1
:1030F000089A0120BC980120B8980120059A012067
:10310000789601200D9A0120D9990120DE9901209D
:1031100076960120ED990120B89701202C98012086
:10312000C4990120C19901209DF82A209DF82B30D7
:1031300003EB0223B94AA2FB0313DB0807EE903A24
:10314000B74B9DF82810F8EE677AC3ED007A9DF82A
:10315000293003EB0123A2FB0323DB0807EE103A1F
:10316000B04BB8EE477A17EE900A83ED007A27F05D
:103170002DFE02460B4639A8AB4928F059FC1E210A
:1031800039A824F0CDFC28F08DFD0028FBD0A44BFD
:1031900093ED007AA34BD3ED006AA44B67EE267A39
:1031A000C3ED007AA24B1B78002B7DD1A14BA24A24
:1031B0001B68136092ED006AF4EEC67AF1EE10FA25
:1031C00033D59E4B1B781BBBDFED9D7A9D4B92ED5B
:1031D000006A76EEA76ACDED266AD3ED006AC6EEE8
:1031E000267AB4EEE77AF1EE10FAC0F29880B5EEE6
:1031F000007A67EE877ACDED257A934840F2013365
:10320000ADF89C300022022325A9006822F0AEFF11
:103210008A4B1B78012B00F08B80884B1B78012B8D
:1032200000F0C380814BD3ED007A834A92ED007A9F
:10323000B4EEE77AF1EE10FA36D5804B1B784BBB33
:10324000784B9FED7F7AD3ED007A7E4BD2ED006A0A
:1032500077EE877ACDED267AD3ED007A704B86EE45
:10326000A77AD3ED007AB4EEE77AF1EE10FA00F225
:10327000CB80F5EE007A27EE277A8DED257A72481D
:1032800040F20133ADF89C300022022325A90068EA
:1032900022F06CFF694B1B78012B00F0E580674B37
:1032A0001B78012B00F01D81614B1B78012B00F076
:1032B0004781664B9DF82AE01A78654BBDF82A00D5
:1032C000910003EB010C9DF82B3003EB0E23DFF88C
:1032D0004CE1AEFB03E3DB0807EE903A5D4B19448B
:1032E000584B1B680B60594B01321A70BDF82830DF
:1032F00040BAADF876005BBA5748ADF87430F8EED6
:10330000677A564B1C93642200231CA90068CCEDFD
:10331000007A22F02BFF322027F07AFC76E67FF548
:103320006CAFF5EE007A27EE277A8DED257A64E70B
:103330004B4B1B78112B7FF670AF4A4B9FED407AB9
:103340004FF40012C3F81821364BD3ED007A3A4BF4
:1033500077EE877AF6EE006ACDED267AD3ED007A25
:10336000384B67EEA67A93ED006A2D4B87EE867A8E
:10337000D3ED007AB4EEE77AF1EE10FA0FD827EE2B
:10338000267A8DED257A40F201232F48ADF89C3046
:103390000022022325A9006822F0E8FE42E7C4BF0C
:1033A00067EEA67ACDED257AEDE72D4B1B78112B34
:1033B0003FF638AF1B4B9FED227AD3ED007A1E4BC0
:1033C00077EE877AD3ED006A1E4BCDED267AD3EDEA
:1033D000007A134B86EEA77AD3ED007AB4EEE77A43
:1033E000F1EE10FA08D8F5EE007A27EE277A8DED87
:1033F000257A40F20133C8E7FBDDB5EE007A67EECF
:10340000877ACDED257AF4E77FF739AFB5EE007A0C
:1034100067EE877ACDED257A31E700BFCDCCCCCCF5
:10342000F89801209C990120800A010058990120F8
:10343000E59901205C9A0120E4970120D9990120A7
:1034400000000000649A0120F89701200D9A0120E5
:103450007C940120A49401206498012005C4EC15FB
:10346000B999012000800041CA4B1B78112B7FF6CF
:1034700016AFC94B9FEDC97A4FF40012C3F818215B
:10348000C74BD3ED007AC74B77EE877AF6EE006A2A
:10349000CDED267AD3ED007AC34B67EEA67A93ED95
:1034A000006AC24B87EE867AD3ED007AB4EEE77AF3
:1034B000F1EE10FA0FD827EE267A8DED257A40F23C
:1034C0000123BB48ADF89C300022022325A90068E7
:1034D00022F04CFEE8E6C4BF67EEA67ACDED257A71
:1034E000EDE7AC4B1B78112B3FF6DEAEAC4B9FEDFE
:1034F000AB7AD3ED007AAB4B77EE877AD3ED006AE7
:10350000A94BCDED267AD3ED007AA84B86EEA77AAB
:10351000D3ED007AB4EEE77AF1EE10FA08D8F5EEC2
:10352000007A27EE277A8DED257A40F20133C8E73D
:10353000FBDDB5EE007A67EE877ACDED257AF4E70C
:103540009C4B1B784BBB964B9FED947AD3ED007A46
:10355000994B77EE877AD3ED006A934BCDED267ABF
:10356000D3ED007A914B86EEA77AD3ED007AB4EED4
:10357000E77AF1EE10FA40D8F5EE007A27EE277AD6
:103580008DED257A8A4840F20133ADF89C30002257
:10359000022325A9006822F0E9FD864B1B78012B48
:1035A00033D0844B1B78012B7FF483AE794B1B788F
:1035B000112B3FF67EAE7A4B9FED787AD3ED007AF1
:1035C0007D4B77EE877AD3ED006A774BCDED267A87
:1035D000D3ED007A754B86EEA77AD3ED007AB4EE80
:1035E000E77AF1EE10FA58D8F5EE007A27EE277A4E
:1035F0008DED257A40F201333DE0C3DDB5EE007A72
:1036000067EE877ACDED257ABCE7624B1B78112BEC
:10361000C7D9614BDFED697A4FF40012C3F8182166
:10362000654B93ED007AB4EEE77AF1EE10FAC8BF7D
:10363000C3ED007A5A4B9FED597AD3ED007A5E4B79
:1036400077EE877AD3ED006A574BCDED267AD3ED2E
:10365000007A564B86EEA77AD3ED007AB4EEE77A7D
:10366000F1EE10FA11D8F6EE007A27EE277A8DEDFA
:10367000257A40F201234E48ADF89C300022022307
:1036800025A9006822F072FD13E6F2DDB6EE007A9D
:1036900067EE877ACDED257AEBE7ABDDB5EE007A04
:1036A00067EE877ACDED257AA4E726F0E3F9444A60
:1036B0009DF866301370434A13780133DBB2137000
:1036C000BBE4404A072313703F4A9DF866301370ED
:1036D000B6E43E4B39881C703D4BB8F8000093EDC2
:1036E000007A3C4A4FF0000C0433F0EE477AE6468D
:1036F000894604E03849994227D0F3EC017AB4EEC8
:10370000E77AF1EE10FA0CD83149BCEEE77AC1ED58
:10371000007A17EE101A4FF0010E1FFA81F9B0EE81
:10372000677A2C49F2EC017AD1ED006AF4EEE76A8F
:10373000F1EE10FADED8C1ED007AFCEEE77A4FF038
:10374000010C17EE901A88B2D4E7BEF1000F01D039
:10375000A7F80090BCF1000F01D0A8F80000FCEE23
:10376000C77A17EE900A26F0E5F91A4BD3ED007AE6
:10377000FCEEE77A17EE900A26F0BCF965E4174BE9
:103780001C70174B93F800C0164B18785A1C002178
:1037900003462EE0B999012000800041000000009E
:1037A0009C990120E4970120649A0120F898012057
:1037B000F8970120D9990120EC97012000B808471B
:1037C000C1990120089A0120E79901200D9A012052
:1037D0007C940120A494012090940120059A01205A
:1037E000E999012078960120B54B934209D012F84F
:1037F000013B9842F8D8B34918460B709C4601210A
:10380000F2E711B1B04B83F800C080B226F012F994
:1038100020E4AE488DF81820022306A9006822F0A3
:10382000A5FC21E4AA4B1B78012B7FF422ACA94B09
:103830001B78132B7FF61DACA4488DF8184002238B
:10384000002206A9006822F091FC12E41E232B70CE
:10385000A14A09238BF80030C92313809F4B4FF0F6
:1038600002020A201A7026F08FFC9D4B9D4A1B68AD
:1038700013601EE4964B1B78012B00F00B819A4BD2
:103880001B78012B00F060819848994B1C934FF0F6
:103890000309002364221CA900688DF8E0908DF8CC
:1038A000759022F063FC322027F0B2F98F48914ADC
:1038B0001C92002364221CA90068ADF8744022F019
:1038C00055FC322027F0A4F98B49854B854A8B485B
:1038D0004FF4801CC1F818C11B6813607C4B006852
:1038E0001C700DF1940C4FF4007361460022ADF88A
:1038F0009C30022322F03AFC40F6B83027F088F9D9
:103900007A487B4B1C930DF1700C614600236422B6
:1039100000688DF8759022F029FC322027F078F9A4
:103920007248744A1C920DF1700C614600236422A7
:103930000068ADF8744022F019FC322027F068F9D5
:103940006D496F484FF48013C1F818310A23009372
:1039500000231A464946006827F03EF9694B18785B
:1039600027F090FD684B187827F0A0FD674B18886A
:1039700027F0B0FD664B187827F0D4FD654B18781A
:1039800027F0BCFD644B187827F0E0FD634B186806
:1039900026F070F9624B1878C0B2012800F0E98077
:1039A0005F4B1878C0B2022800F0E6805C4B1878B4
:1039B000C0B2032800F0E3804A4BD3ED007A594BA4
:1039C00093ED007AFCEEE77ABCEEC77A17EE903AF8
:1039D00017EE102A9B1A07EE903A534BF8EE677ACF
:1039E000C3ED007AFCEEE77A17EE900A26F022F992
:1039F0004E4A15230520137024F056FC474A4C48C4
:103A00001368424A439311883F4A006813783D4A3D
:103A10001B02127843EA014313433E4A469311784E
:103A20003B4A13783C4A1B02127843EA0143134392
:103A30002549404A479312780B7843EA024348935A
:103A4000394BD3ED007AFCEEE77A41A917EE903AB4
:103A500043F400334993324B1A78BAF8003043EA02
:103A600002434A934FF0020364228DF8043100238D
:103A700022F07CFB304B186823F092F92F4AAAF809
:103A80000040012313702E4A336013702D4A1370C7
:103A9000FEF71BBE144B1B7803F0FF02002B7FF4D4
:103AA000EEAE16484FF44073ADF89C3025A90223C2
:103AB000006822F05BFB40F6B83027F0A9F8DEE69C
:103AC0007D96012078960120E99901205C970120DC
:103AD000DE990120B999012076960120ED99012007
:103AE000B89701202C980120D999012064980120D1
:103AF00002C4EC1505C4EC1500800041F8970120C4
:103B000098970120F9990120129A01206A8D0120CD
:103B1000119A0120029A01201E9A0120F496012098
:103B2000EC990120249801201C9701206F9A012014
:103B300074970120C199012078970120DD99012017
:103B4000DC990120DB990120124B1B78012B7FF4BB
:103B50009BAE11484FF40073ADF89C300022022355
:103B600025A9006822F002FB40F6B83027F050F893
:103B70008AE626F009FB13E726F006FB16E726F097
:103B800003FB19E7FA2B3EF4A0ADFC2B7EF485AEC7
:103B9000FEF79BBDDE990120F89701202DE9F04F3B
:103BA0000024F1B0922221464BA80F94CDE9114494
:103BB000CDF83F400B948DF83040ADF82440CDE96E
:103BC00013440A94CDE919448DF86C40CDE91C44A6
:103BD000CDE91E44CDE92044CDE922442494CDE929
:103BE0003244CDE93444CDE936443894CDE9284413
:103BF000DFF844B32A94B74D3094ADF8AC40CDE92A
:103C00002C44CDE92E44CDF8C340CDE9254427947A
:103C1000B14FDFF82883DFF828A3B04E28F07AF8F8
:103C2000CDE915441CE2AE4B186823F0B9F8AD4B52
:103C30003C801C70AC4BA8F800401C80AB4B0022B1
:103C400011A9186822F00AFAA94B00220BA91868DA
:103C500022F004FAA74B002209A9186822F0FEF905
:103C60009DF84B90B9F1010F40F0C5819DF82E30C1
:103C70000393002B40F0BF819DF82D306D2B24D88D
:103C8000632B00F2B8819C4B9C481C934023642218
:103C90001CA98DF87A300068002322F067FA4FF4EF
:103CA0007A7026F0B5FF9548934B1C93642200234D
:103CB0001CA900688DF8CD408DF87A4022F056FAA4
:103CC000642026F0A5FF012393E18D4B039A1A602F
:103CD0008C4B8A481A60884B1C9340231CA98DF892
:103CE0007A3000681346642222F040FA4FF47A706A
:103CF00026F08EFF81488049039B1C9164221CA9F9
:103D000000688DF8CD408DF87A4022F02FFA6420BB
:103D100026F07EFF0C232B708BF800909DF82D3041
:103D2000AEE77948794B1F93642200231FA90068EE
:103D30008DF8804022F01AFA642026F069FF74485A
:103D4000744B22934FF001090023642222A90068DA
:103D5000ADF8A6908DF8A840ADF88C908DF88E4007
:103D600022F004FA642026F053FF6448624B1C934F
:103D7000642200231CA900688DF8CB908DF8759003
:103D800022F0F4F9642026F043FF5A4B0022186811
:103D900009A922F063F99DF824304B4540F02B81AE
:103DA0004FF0020325E1544B54481C9340236422F6
:103DB0001CA98DF87A300068002322F0D7F94FF45F
:103DC0007A7026F025FF4D484B4B1C93642200234C
:103DD0001CA900688DF8CD408DF87A4022F0C6F914
:103DE000642026F015FF424B00220BA9186822F030
:103DF00035F9002800F0FF809DF82D30A3F1500226
:103E00001D2A21D96D2B0DD9434B1B7803F0FF09D7
:103E1000002B00F09780414B01201C700C232B706D
:103E200026F0FEF83E4B1B681E2B40F3E4803C4B13
:103E30001C60394B1B7823B93A4B4FF48032C3F8DE
:103E400098208BF80040D6E0022026F0E9F8354BA8
:103E50004FF48032C3F894200923304A2B70012399
:103E60001370274B1B68012B10D02F4B1B78012B95
:103E70001AD0234B1B6813B903238BF80030284A50
:103E80001368013313609DF82D30BBE727488DF888
:103E90001C400223002207A9006822F067F9244B86
:103EA000186822F07DFFE0E71F4B93F80190B9F10D
:103EB000010FDED11F488DF8184003238BF8003026
:103EC0000022022306A9006822F050F90D4BC3F826
:103ED0000090CEE77D960120CE990120E498012044
:103EE000C0970120079A0120A29301206C9801201D
:103EF000709801209498012002C0EC15649801206C
:103F000028990120309901204898012001C0EC1522
:103F10003898012002D0EC15DE990120D9990120B2
:103F20001499012000800041C89901204C9701207C
:103F3000349701205C970120B9990120D299012082
:103F4000E8990120BF4B4FF48032C3F89820BE4B54
:103F5000186822F08DF94FF6FF7026F007F8BB4B7A
:103F6000C3F80090BA4BC3F80090BA4B1B78002BF3
:103F70007FF451AFB74A01231370B74B187824F080
:103F80007BFA48E7B54BB6481C60B64B1F93082335
:103F900064221FA98DF8B1308DF8833000680023AA
:103FA00022F0E4F84FF47A7026F032FEAE48AF4BC0
:103FB0001C93642200231CA900688DF87840ADF89A
:103FC0007A4022F0D3F84FF47A7026F021FEA74B06
:103FD000A5481C930223CDF8CB308DF875306422B0
:103FE00000231CA9006822F0C1F8642026F010FE0E
:103FF00004238BF800302B788DF861303B88ADF8C6
:104000005E30B8F80030ADF85C30994B99481B78B9
:104010008DF862309AF800308DF86030002202236B
:1040200017A9006822F0A2F893482B788DF8143075
:104030000022022305A9006822F098F83368012BBA
:104040000AD18E4B346018688BF8004022F0A8FE2D
:104050008B4B186822F00CF94FF4FA7026F0D8FD5B
:104060009BF800301E2BC6D801A252F823F000BFE7
:10407000273C0000233D0000A73D0000853F0000D5
:10408000ED400000F73F000057410000F73F0000FF
:10409000F73F0000F73F0000F73F0000F73F000048
:1040A000F73F0000F73F0000F73F0000F73F000038
:1040B000B1420000F73F0000AB4300000D46000096
:1040C00087460000F73F000011490000F73F00005D
:1040D000F73F0000F73F0000F73F0000F73F000008
:1040E000F73F0000F73F000099510000654B0022A8
:1040F0000BA9186821F0B2FF634B0022186809A9C8
:1041000021F0ACFF9DF82E309DF82D20012B1AD008
:104110009DF82430FA2B02D0FC2B00D00BB98BF881
:1041200000406D2A7FF667AF584B1B7823B9454B8B
:104130004FF48032C3F89820554B1C700C232B7021
:104140008BF8004058E7A2F150031D2B9CBF0623BB
:104150008BF80030DCE73F4B1C704B4B002218689B
:1041600009A921F07BFF9DF82430312B14D9374A5F
:10417000D2F80090B9F1010F32D0B9F1000F41F03F
:104180004281444B4A460FA9186821F067FF88BB5B
:104190009DF82430FA2B02D0FC2B00D04BB92B4ACF
:1041A0001268012A4BD022B928498BF8002001223D
:1041B0000A600A2B7FF41FAF374A13780133DBB252
:1041C000F02B13707FF417AF334B344A1C7040F25E
:1041D00033138BF800401380314A01231370C2E07F
:1041E0001022FA2B8BF800203FF42BAEFC2B7FF42F
:1041F00002AFD4E70F9B2B480D93BDF84030ADF8CC
:1042000038304A4602230DA9006821F0AFFF9DF81F
:104210003430002BBCD00D4A012313608DF81C30C4
:10422000214B102218688BF8002022F0B9FD1F489E
:1042300002234A4607A9006821F098FFA8E78BF8F7
:104240000040B6E7008000416897012028990120CE
:1042500030990120139A01206F9A012014990120AE
:104260004898012001C0EC156498012002C0EC15AB
:10427000E6990120449701200497012080970120AE
:10428000409801207098012094980120DE99012027
:10429000D99901207C9801201F9A0120769601204F
:1042A000ED99012050970120349701204C9701206F
:1042B000BD4B1C70BD4BD3F80090B9F1000F32D14B
:1042C000BB4B1B78012B31D1B94B5B780393012B8E
:1042D0002CD1B8488DF818904A46022306A90068E8
:1042E00021F044FFB44BB5481C93039B8DF8CD30AF
:1042F00064221CA98DF87A3000684B4621F036FF05
:10430000642026F085FCAE4B4FF47A7209A9186838
:1043100021F0A4FE122305208BF8003024F0ACF825
:10432000A24BD3F80090B9F1010F20D0A44B00228A
:10433000186809A921F092FE9DF82430FA2B04D0C8
:10434000FC2B02D0002B7FF456AE9E4A9E498BF880
:104350000040012313604FF49A720A809B4A0620A2
:10436000137025F0F3FE082024F086F843E6934806
:10437000914B1C931CA90023642200688DF8CD90FA
:104380008DF87A9021F0F2FE642026F041FC8C4BEF
:104390004FF47A7209A9186821F060FE12230520F3
:1043A0008BF8003024F068F8C0E7894B89484FF457
:1043B0000012C3F8182100232593874B269340F25F
:1043C0000113642225A9ADF89C300068002321F078
:1043D000CDFE824B186822F0E3FC744A012313607F
:1043E0007F4B002213A9186821F038FE002800F046
:1043F000B5809DF84C309DF84D207A496F488DF876
:104400007A4002EB0322A1FB0232D30807EE903A76
:104410009DF84E209DF84F30006803EB0223A1FB6E
:104420000323DB0807EE103AB8EEC77A6E4ABDEEFA
:10443000C77AF8EEE77A17EE103A92FBF3F303EB44
:1044400083035B0007EE103A684BB8EEC77A64222C
:1044500083ED007AB2EE047A67EE877A93ED007A04
:10446000F4EEC77AF1EE10FA48BFC3ED007A524B72
:104470001C931CA9002321F079FE642026F0C8FBC0
:104480005A4A5B4BD2ED007A1F93FCEEE77A59480B
:1044900017EE903AD2ED007A8DF88030FCEEE77A94
:1044A000642217EE903AC3F307238DF8813041F66A
:1044B0005833ADF88230504B21931FA90023006878
:1044C00021F054FE4FF4FA7026F0A2FB4B4A4C4BFD
:1044D0004848CDE91F23A3F5C80364221FA92193EF
:1044E0000068002321F042FE4FF4FA7026F090FBA2
:1044F0003248314B1C934FF0020200231CA98DF867
:10450000CD208DF87A200068642221F02FFE4FF430
:10451000FA7026F07DFB072023F0AEFF284B002227
:10452000186809A921F09AFD9DF82430A3F15B02D7
:10453000092A2AD9FA2B02D0FC2B00D073B9224ABF
:104540008BF8004040F235131380204A01230820E5
:10455000137025F0FBFD082023F08EFF29480D94F1
:104560000223002207A90068ADF838408DF81C40EE
:1045700021F0FCFD2448022300220DA9006821F04F
:10458000F5FD0B4B1C809C7035E513234FF47A70BE
:104590008BF8003026F03CFB0D4B4FF40022C3F8A3
:1045A00014219DF82430C5E71F9A0120309901207D
:1045B000C89901205C97012002C0EC156498012085
:1045C000949801202899012076960120ED990120E8
:1045D00000800041F897012000004843FC9701202B
:1045E00084980120CDCCCCCC70110100C89701205B
:1045F00003C0EC15489801201027140004C0EC15E6
:104600001400C8004C97012050970120A44B0022B1
:1046100018680BA921F022FD9DF82D30312B1DD9F2
:10462000A04BD3F8A03013F400031CD101228DF865
:10463000782040F60142ADF8CC209B480C228DF842
:104640007A209A4A1C921CA96422006821F08EFDEF
:10465000642026F0DDFA14238BF800304FF47A70D2
:1046600026F0D6FAC7E4924A8BF8004040F23513A0
:104670001380904A01230720137025F067FD08205E
:1046800023F0FAFEEAE78C4B00220AA9186821F011
:10469000E5FC9DF828309DF829208849884802EBE0
:1046A0000322A1FB0232D20807EE902A854B9DF827
:1046B0002A200068F8EEE77AC3ED007A9DF82B30E7
:1046C000CDED267A03EB0223A1FB0323DB0807EEE3
:1046D000103A7D4BB8EEC77A642283ED007A4FF032
:1046E0008043259340F2011325A9ADF89C300023A7
:1046F00021F03CFD754B186822F052FBBDF82830C4
:1047000069485BBAADF87430714B1C936422002386
:104710001CA9006821F02AFD0A2026F079FA092058
:1047200023F0AAFE6B4B002209A9186821F096FC21
:1047300000283FF460AC9DF82430782B12D0FA2B7F
:1047400004D0FC2B02D0002B7FF455AC1E23584A1A
:104750008BF800304FF49B731380564A012313707B
:104760000820FEE55C4BD3F8009027F01BFB4EF6CB
:1047700060230246012100934846002326F02CFACC
:10478000564BD3F8009027F00DFB4EF660230246FF
:10479000012100934846002326F01EFA504BD3F81F
:1047A000009027F0FFFA4EF66023024601210093A5
:1047B0004846002326F010FA4A4BD3F8009027F021
:1047C000F1FA4EF660230246012100934846002389
:1047D00026F002FA444BD3F8009027F0E3FA4EF6A5
:1047E00060230246012100934846002326F0F4F995
:1047F0003E4BD3F8009027F0D5FA4EF660230246E0
:10480000012100934846002326F0E6F916238BF891
:104810000030374B187826F0CDFC642026F0F8F9EC
:104820003449087826F0DAFC642026F0F1F9324B9E
:10483000188826F0E7FC642026F0EAF92F4A107861
:1048400026F008FD642026F0E3F92D49087826F0CB
:10485000EDFC642026F0DCF92A48007826F00EFDF5
:10486000642026F0D5F9284B284A1B68136021489C
:10487000214B1F4A19880378127822481B0243EA09
:10488000014313431E491D4A09783C93137802786B
:104890001B0243EA014313433D939DF824304EE746
:1048A00070980120008000416498012002C0EC153E
:1048B00076960120ED9901208C980120CDCCCCCCAE
:1048C000F897012098990120F4980120FC97012085
:1048D00005C0EC159498012094970120DC980120E4
:1048E0006099012064990120689901206C99012048
:1048F000F9990120129A01206A8D0120119A012054
:10490000029A01201E9A0120B497012020980120CC
:10491000BC4B002208A9186821F0A0FB28B1BA49B5
:104920009DF820300A8813440B80B84B186822F099
:1049300037FA032025F074FBB34B188824F07AFF74
:10494000B34B1B78072B00F04E81B24B00220AA913
:10495000186821F083FB002800F0E1809DF82A30E0
:104960009DF82B20AC4902EB0322A1FB0232D308B5
:1049700007EE103AA94B9DF82820B8EE477A83ED50
:10498000007A9DF8293003EB0223A1FB0323DB0807
:1049900007EE903AA24BF8EE677AC3ED007A67EE25
:1049A000276AA04BC3ED006A9F4B1B78002B7DD17B
:1049B0009E4B9F4A1B68136092ED006AF4EEC66A34
:1049C000F1EE10FA33D59B4B1B781BBBDFED9A6AD7
:1049D0009A4B92ED006A77EEA67AD3ED006ACDEDA0
:1049E000267AC6EE267AB4EEE77AF1EE10FAC0F235
:1049F000FF80B5EE007A67EE877ACDED257A904894
:104A000040F20133ADF89C300022022325A9006852
:104A100021F0ACFB874B1B78012B00F03181854BDB
:104A20001B78012B00F069817E4BD3ED006A804A30
:104A3000D2ED007AF4EEE67AF1EE10FA36D57D4B3F
:104A40001B784BBB764B9FED7C7AD3ED007A7B4B8A
:104A5000D2ED006A77EE877A93ED007ACDED267A73
:104A6000C6EE877A6D4B93ED007AF4EEC77AF1EEDD
:104A700010FA00F27181B5EE007A67EE877ACDED1B
:104A8000257A6F4840F20133ADF89C3000220223B2
:104A900025A9006821F06AFB664B1B78012B00F00A
:104AA0006481644B1B78012B00F09C815E4B1B786A
:104AB000012B00F0C681634B63491A785F489DF86B
:104AC0002AC0006893001944013208605F48BDF8AD
:104AD0002A1018449DF82B3003EB0C23DFF838C163
:104AE000ACFB03C3DB0807EE903A564BF8EE677A4F
:104AF0001A70BDF82830C0ED007A5BBA5448ADF8A2
:104B0000743049BA534BADF876101C9364220023DD
:104B10001CA9006821F02AFB322026F079F84E4BC0
:104B2000002219A9186821F099FA88B14B494C4A1A
:104B30000B789DF86600D05401330B70344B1B7812
:104B40000622042B2A7040F24782052B00F0508287
:104B50003C4B1B78052B00F05382404B1B78052BF8
:104B600000F0A4823F4B1B78012B00F0BD823D4B2F
:104B70001B78012B00F0C8829DF82430292B03D02C
:104B8000FA2B01D0FC2B11D11E238BF80030364AB2
:104B900009232B70CA231380344A01230A2013707F
:104BA00025F0D4FA324B334A1B6813609DF8643009
:104BB000012B00F0BD82304B1B78012B7FF41BAA28
:104BC0002D4B9B78012B7FF416AA2B4A2949148080
:104BD0001E239470264A8BF8003012680A6009235D
:104BE0002B70FFF709BA254B187824F003FEACE6CA
:104BF0007FF505AFF5EE007A27EE277A8DED257A61
:104C0000FDE600BF7C970120A29301206897012058
:104C1000079A01208C980120CDCCCCCCF4980120AF
:104C20009899012054990120E49901205C9A01206F
:104C3000E4970120DE99012000000000609A012025
:104C4000F89701200C9A012090940120689401208B
:104C50006498012005C0EC1588980120049A012071
:104C600070960120D999012076960120ED990120B6
:104C7000B497012028980120C8990120CB990120E0
:104C8000CA4B1B78112B7FF6CAAEC94B9FEDC97A70
:104C90004FF40012C3F81821C74BD3ED007AC74B6D
:104CA00077EE877AF6EE006ACDED267AD3ED007ABC
:104CB000C34B67EEA67A93ED006AC24B87EE867A05
:104CC000D3ED007AB4EEE77AF1EE10FA0FD827EEC2
:104CD000267A8DED257A40F20113BB48ADF89C3061
:104CE0000022022325A9006821F040FA9CE6C4BFF7
:104CF00067EEA67ACDED257AEDE7AC4B1B78112B4C
:104D00003FF692AEAC4B9FEDAB7AD3ED007AAB4B56
:104D100077EE877AD3ED006AA94BCDED267AD3EDF5
:104D2000007AA84B86EEA77AD3ED007AB4EEE77A44
:104D3000F1EE10FA08D8F5EE007A27EE277A8DED1D
:104D4000257A40F20133C8E7FBDDB5EE007A67EE65
:104D5000877ACDED257AF4E77FF793AEF5EE007A0A
:104D600027EE277A8DED257A8BE6904B1B78112B59
:104D70007FF697AE8E4B9FED8F7A4FF40012C3F8FB
:104D800018218D4BD3ED007A8C4B77EE877AF6EEB7
:104D9000006ACDED267AD3ED007A894B67EEA67ACC
:104DA00093ED006A874B87EE867AD3ED007AB4EEF6
:104DB000E77AF1EE10FA0FD827EE267A8DED257AF4
:104DC00040F201138048ADF89C300022022325A94F
:104DD000006821F0CBF969E6C4BF67EEA67ACDED95
:104DE000257AEDE7714B1B78112B3FF65FAE724BC6
:104DF0009FED707AD3ED007A704B77EE877AD3ED22
:104E0000006A6F4BCDED267AD3ED007A6D4B86EEBE
:104E1000A77AD3ED007AB4EEE77AF1EE10FA08D86B
:104E2000F5EE007A27EE277A8DED257A40F20133F0
:104E3000C8E7FBDDB5EE007A67EE877ACDED257A1F
:104E4000F4E7624B1B784BBB5B4B9FED5A7AD3ED7B
:104E5000007A5F4BD3ED006A594B77EE877A93ED7A
:104E6000007ACDED267AC6EE877A564B93ED007A1E
:104E7000F4EEC77AF1EE10FA40D8B5EE007A67EE9C
:104E8000877ACDED257A504840F20133ADF89C3059
:104E90000022022325A9006821F068F94B4B1B78FA
:104EA000012B33D0494B1B78012B7FF404AE3F4BD1
:104EB0001B78112B3FF6FFAD3F4B9FED3E7AD3EDB4
:104EC000007A434B77EE877AD3ED006A3C4BCDED09
:104ED000267AD3ED007A3B4B86EEA77AD3ED007AA3
:104EE000B4EEE77AF1EE10FA58D8F5EE007A27EE34
:104EF000277A8DED257A40F201333DE0C3DDF5EEF2
:104F0000007A27EE277A8DED257ABCE7274B1B78B0
:104F1000112BC7D9264BDFED2F7A4FF40012C3F8BF
:104F200018212B4B93ED007AB4EEE77AF1EE10FAEC
:104F3000C8BFC3ED007A204B9FED1E7AD3ED007AF7
:104F4000234B77EE877AD3ED006A1D4BCDED267AA1
:104F5000D3ED007A1B4B86EEA77AD3ED007AB4EE40
:104F6000E77AF1EE10FA11D8F6EE007A27EE277AFA
:104F70008DED257A40F201131348ADF89C300022E4
:104F8000022325A9006821F0F1F894E5F2DDB6EEE0
:104F9000007A67EE877ACDED257AEBE7ABDDB5EEEB
:104FA000007A67EE877ACDED257AA4E7BD990120D6
:104FB000008000410000000098990120E497012042
:104FC000609A0120F4980120F8970120DE990120D1
:104FD000E897012000B8084724F00CFC5D4A5E49C0
:104FE00013780133DBB213709DF866200A70ACE5CC
:104FF0005A4A9DF866301370564A07231370A7E586
:10500000574B39881C70574BB8F8000093ED007A65
:10501000554A4FF0000C0433F0EE477AE6468946D5
:1050200004E05249994227D0F3EC017AB4EEE77AD2
:10503000F1EE10FA0CD84B49BCEEE77AC1ED007ADC
:1050400017EE101A4FF0010E1FFA81F9B0EE677AD1
:105050004549F2EC017AD1ED006AF4EEE76AF1EE2F
:1050600010FADED8C1ED007AFCEEE77A4FF0010CC1
:1050700017EE901A88B2D4E7BEF1000F01D0A7F85E
:105080000090BCF1000F01D0A8F80000FCEEC77A38
:1050900017EE900A24F00EFC334BD3ED007AFCEEB1
:1050A000E77A17EE900A24F0E5FB56E5304B9AF8C4
:1050B00000C01C702F4B18785A1C0021034604E0D6
:1050C0002D4B934209D012F8013B9842F8D8294958
:1050D00018460B709C460121F2E709B18AF800C01E
:1050E00080B224F067FB3DE5244B1B7803F0FF0200
:1050F000002B7FF43CAD22488DF81820022306A92E
:10510000006821F033F832E51C4B1B78012B7FF44B
:1051100033AD1C4B1B78132B7FF62EAD18488DF842
:1051200018400223002206A9006821F01FF823E599
:105130001E2215498BF80020C9220A80134A092033
:105140001370287025F002F8114B124A1B68136087
:1051500031E500BF079A0120CB990120E699012093
:105160000C9A012068940120909401207C940120E5
:10517000049A01207096012075960120DE99012085
:105180005C970120BD99012076960120ED990120C0
:10519000B4970120289801209F4B1B78012B00F029
:1051A000FE809D4B1B78012B00F00F819B489C4B90
:1051B0001C934FF00309002364221CA900688DF89A
:1051C000CB908DF8759020F0D1FF322025F020FD96
:1051D0009248944A1C92002364221CA90068ADF8EE
:1051E000744020F0C3FF322025F012FD8E498F4B12
:1051F0008F4A90484FF4002CC1F818C11B68136007
:10520000854B00681C700DF1940C4FF4807361465F
:105210000022ADF89C30022320F0A8FF40F6B83001
:1052200025F0F6FC7D487E4B1C930DF1700C614619
:105230000023642200688DF8759020F097FF3220DB
:1052400025F0E6FC7548774A1C920DF1700C61461A
:10525000002364220068ADF8744020F087FF3220FC
:1052600025F0D6FC704974484FF40023C1F818317A
:105270000A23009300231A464946006825F0ACFC37
:105280006E4B187826F00EF86D4B187826F01EF845
:105290006C4B188826F02EF86B4B187826F052F8D5
:1052A0006A4B187826F03AF8694B187826F05EF8C1
:1052B000684B186824F09EFB5D4A674BD2ED007A7C
:1052C00093ED007AFCEEE77ABCEEC77A17EE903ADF
:1052D00017EE100A181A614B186024F06BFB604B34
:1052E0001878C0B2012800F085805D4B1878C0B2F4
:1052F000022800F082805A4B1878C0B203287FD071
:10530000584A0C230520137024F08AFE514B4B4A57
:105310001B683B934B4B54481988494B00681B78DA
:1053200012781B0243EA014313433E93474B484A1A
:105330001978454B1B7812781B0243EA014313434B
:105340003F934A4B1A789AF8003043EA024340935D
:10535000424B1B6843F480334193414B1A78444BD2
:105360001B884FF0020143EA024342936422002368
:105370008DF8E41039A920F0F9FE3E49086821F0C3
:105380000FFD3B4A14803C4A012313703B4A3360B3
:1053900013703B4A13703B4A1370FEF72CBE3A4B16
:1053A0001B7803F0FF02002B7FF4FBAE21484FF483
:1053B0004073ADF89C3025A90223006820F0D6FE8A
:1053C00040F6B83025F024FCEBE62F4B1B78012B80
:1053D0007FF4ECAE17484FF48073ADF89C30002298
:1053E000022325A9006820F0C1FE40F6B83025F060
:1053F0000FFCDBE624F0AAFE77E724F0A7FE7AE7AD
:1054000024F0A4FE7CE7FA2B3EF4F5ADFC2B7EF4F1
:10541000D0AEFEF7F0BD00BFD999012064980120FD
:1054200002C0EC1505C0EC1500800041B4970120C6
:1054300028980120F897012094970120F9990120DC
:10544000129A01206A8D0120119A0120029A0120EE
:105450001E9A0120F0960120209801201897012023
:10546000EC9901206F9A012074970120CB990120BB
:10547000A293012078970120CD990120D89901208D
:10548000D7990120D6990120DE9901203895012075
:105490000800000000000000A49301201C00000090
:1054A00000000000B894012010000000000000007F
:1054B000409501201800000000000000C09301206A
:1054C0001C00000000000000C89401201000000033
:1054D00000000000589501201000000000000000AE
:1054E000008C0120C000000000000000C2990120D3
:1054F0000200000000000000E09201202C000000EB
:1055000000000000F0910120F00000000000000009
:10551000449A01200400000001000000AAAAAAAADF
:10552000809601200400000000000000A00100207F
:10553000608A010000000000849601201000000035
:105540000000000068950120080000000000000035
:10555000949601200800000000000000DC93012068
:1055600028000000000000009C96012018000000A8
:1055700000000000F08F0120640000000000000027
:10558000B4960120140000000000000004940120E3
:105590002800000000000000C89601201000000054
:1055A000000000002C940120140000000000000006
:1055B000D896012004000000000000004094012063
:1055C0002800000000000000DC9601200800000018
:1055D00000000000489A01200400000001000000C3
:1055E00004000000100000209001000000000000F6
:1055F000E49601201400000000000000A7900120A4
:105600000100000000000000B79901200100000027
:1056100000000000F89601200400000000000000D7
:10562000C79901200100000000000000FC96012045
:105630000400000000000000759601200100000039
:1056400000000000009701200C0000000000000096
:105650007D9601200100000000000000B1990120AA
:105660000100000000000000B999012001000000C5
:1056700000000000BD9901200100000000000000B2
:105680000C9701201400000000000000CE990120BA
:1056900002000000000000006894012014000000D7
:1056A00000000000D099012002000000000000006E
:1056B0007C9401201400000000000000D299012019
:1056C000020000000000000090940120140000007F
:1056D00000000000D499012002000000000000003A
:1056E000A494012014000000000000002097012075
:1056F00004000000000000003C9101204000000078
:10570000000000000C930120500000000000000089
:10571000188E0120A4000000000000002497012042
:105720000800000000000000CC99012001000000EA
:10573000000000002C9701203C0000000000000049
:10574000168E01200200000000000000BA91012026
:105750000200000000000000EE91012002000000A5
:105760000000000068970120040000000000000015
:10577000CB9901200100000000000000C199012028
:1057800001000000000000006C97012010000000E4
:1057900000000000CD990120010000000000000081
:1057A000D69901200300000000000000A293012010
:1057B00002000000000000007C97012004000000AF
:1057C00000000000D9990120010000000000000045
:1057D000809701200800000000000000DA990120F5
:1057E00004000000000000003695012002000000C7
:1057F0000000000088970120040000000000000065
:10580000DE99012001000000000000008C970120BB
:105810000800000000000000DF99012001000000E6
:1058200000000000E09901200100000000000000DD
:10583000949701203000000000000000E199012051
:105840000300000000000000C49701200C000000CD
:1058500000000000549001205300000000000000F0
:10586000D09701203800000000000000BC9101200A
:105870003200000000000000089801201400000021
:1058800000000000E4990120020000000000000078
:105890001C9801200400000000000000E69901208F
:1058A00003000000000000007096012005000000C9
:1058B00000000000E9990120010000000000000044
:1058C00078960120050000000000000020980120CB
:1058D0000800000000000000EA990120020000001A
:1058E00000000000C8990120030000000000000033
:1058F000C499012003000000000000002898012046
:105900000800000000000000EC99012001000000E8
:10591000000000002C9501200A000000000000009B
:10592000769601200200000000000000ED990120A1
:105930000100000000000000309801200400000079
:1059400000000000EE9901200100000000000000AE
:105950007E9601200200000000000000B2990120A4
:105960000200000000000000BA99012002000000BF
:105970000000000070950120680000000000000099
:10598000349801202000000000000000D89501207C
:105990006800000000000000549801208000000012
:1059A00000000000409601203000000000000000D0
:1059B000EF9901200100000000000000D4980120B0
:1059C0000400000000000000F09901200200000027
:1059D00000000000D8980120040000000000000032
:1059E000F29901200100000000000000DC98012075
:1059F00004000000000000007C9101203E00000037
:105A000000000000BE99012002000000000000001C
:105A1000F39901200100000000000000E09801203F
:105A20000400000000000000F499012003000000C1
:105A300000000000E49801200800000000000000C1
:105A4000F79901200200000000000000EC980120FE
:105A50001000000000000000F99901200200000081
:105A600000000000FC98012004000000000000007D
:105A7000FB990120010000000000000000990120B6
:105A80000800000000000000C08C0120AA000000F7
:105A90000000000008990120040000000000000040
:105AA000FC9901200300000000000000C0990120C3
:105AB0000100000000000000FF990120010000002B
:105AC000000000000C99012004000000000000000C
:105AD000F89001204400000000000000109901200F
:105AE0000C00000000000000009A012002000000ED
:105AF00000000000BC99012001000000000000002F
:105B0000B899012001000000000000001C9901204C
:105B10000800000000000000029A012005000000BB
:105B20000000000024990120040000000000000093
:105B3000079A0120050000000000000028990120BC
:105B400010000000000000000C9A0120020000007C
:105B5000000000003899012004000000000000004F
:105B60000E9A012003000000000000003C99012073
:105B700008000000000000006C8D0120AA00000059
:105B80000000000044990120040000000000000013
:105B9000119A012001000000000000004899012036
:105BA0000400000000000000129A01200100000023
:105BB00000000000B4990120030000000000000074
:105BC000139A012004000000000000004C990120FD
:105BD0000400000000000000179A012002000000ED
:105BE00000000000509901200C000000000000009F
:105BF000199A012001000000000000005C990120BA
:105C000004000000000000001A9A012001000000BA
:105C10000000000060990120040000000000000066
:105C20001B9A01200100000000000000649901207F
:105C300004000000000000001C9A01200100000088
:105C4000000000006899012004000000000000002E
:105C50001D9A012001000000000000006C99012045
:105C60000800000000000000B099012001000000C1
:105C700000000000749901200C00000000000000EA
:105C8000809901200C00000000000000BC8E012063
:105C9000A000000000000000D894012010000000C7
:105CA000000000001E9A012001000000000000001A
:105CB0000895012024000000000000008C990120BC
:105CC00004000000000000001F9A012002000000F4
:105CD0000000000090990120040000000000000076
:105CE000E894012010000000000000005C8F0120FB
:105CF0009400000000000000949901200C000000B6
:105D0000000000006A8D0120020000000000000079
:105D1000429A01200200000001000000040100007E
:105D2000229A01202000000001000000B4005AA5C2
:105D30001B82524068747470733A2F2F7777772ED6
:105D40007374617469712E696E2FFFFF219A0120AF
:105D500001000000010000000C0000006E9A01200C
:105D600005000000010000000C030F5014000000AB
:105D70004C9A012004000000010000000000803F58
:105D8000739A0120020000000100000001010000E0
:105D9000509A01200400000001000000CDCCCC3F4F
:105DA000549A01200C000000010000000000004097
:105DB0000000004000B888476C9A012002000000F3
:105DC00001000000AF4A0000609A012008000000B6
:105DD000010000000000484300004843689A012089
:105DE000040000000100000000004843A0990120C9
:105DF0000400000000000000F894012010000000E2
:105E0000000000005C93012046000000000000003C
:105E1000A49901200400000000000000A8900120C7
:105E20005000000000000000A899012008000000B8
:105E300000000000000000000000000066666666CA
:105E400066666666666666666666666666666666F2
:045E500066666666B6
:106BFC002DE9F04FA54DA64CA64EDFF8B482A64F5A
:106C0C00DFF8B092DFF8B0B2DFF8B0A285B000F0D8
:106C1C00FBBEA24A236813602368BBB1A04B1B7850
:106C2C0053B12B6854F82330002B40F08F809C4BD1
:106C3C004FF000021A7089E0994B4FF001021A7064
:106C4C004FF47A602368338023F0DCFF2B6854F810
:106C5C002330002B7AD1924B1B78002B76D0E6E7B1
:106C6C008E4A636853606368B3B18D4B5B784BB1EC
:106C7C002B6854F82330002B68D1894B4FF000025D
:106C8C005A7063E0864B4FF001025A704FF47A60F1
:106C9C006368338023F0B6FF2B6854F82330002B45
:106CAC0054D17F4B5B78002B50D0E6E77B4AA3682E
:106CBC009360A368B3B17A4B9B784BB12B6854F8B3
:106CCC002330002B42D1764B4FF000029A703DE0FE
:106CDC00734B4FF001029A704FF47A60A3683380C3
:106CEC0023F090FF2B6854F823307BBB6C4B9B78C4
:106CFC0063B3E8E7694AE368D360E368ABB1684B18
:106D0C00DB7843B12B6854F82330FBB9644B4FF05C
:106D1C000002DA701AE0624B4FF00102DA704FF4A5
:106D2C007A60E368338023F06DFF2B6854F82330CE
:106D3C0063B95B4BDB784BB1E8E7D4F88430012BBB
:106D4C0062D0D4F88430022B00F089803388ADF8FF
:106D5C000430B8F80030ADF806303B88ADF8083098
:106D6C00B9F80030ADF80A304E48BBF80030ADF839
:106D7C000C30BAF80030ADF80E300022022301A915
:106D8C0000681FF0EDF92B6801331F2B2B6000F30B
:106D9C007D851A2BDAD801A252F823F01F6C000063
:106DAC006D6C0000B96C0000016D0000476D0000B7
:106DBC00596D0000FF6E0000516F0000A36F0000C2
:106DCC00F56F00004770000099700000EB70000038
:106DDC0049710000596D00009B7100006372000046
:106DEC002D73000005740000B97400006D7500006F
:106DFC0023760000E5760000596D00003B7700001B
:106E0C00F177000045780000274922690A60226961
:106E1C00C2B1234A92F82C2052B12B6854F823307B
:106E2C00002B8ED11E4B4FF0000283F82C2088E7EC
:106E3C001B4A4FF47A6082F82C302369A8F8003092
:106E4C0023F0E0FE2B6854F82330002B7FF479AF4D
:106E5C00134B93F82C30002B3FF473AFE2E72B6805
:106E6C00124954F823200A6054F82320AAB30C4A80
:106E7C0092F82D2022B354F82330002B7FF466AF08
:106E8C00074B4FF0000283F82D205FE72499012077
:106E9C00188E0120168E0120EE9101203C910120CC
:106EAC007C9101203C9701200C930120349301200C
:106EBC00BA9101207E960120B2990120BA99012045
:106ECC009C4A54F823303B804FF001014FF47A6018
:106EDC0082F82D1023F096FE2B6854F82330002BEB
:106EEC007FF434AF934B93F82D30002B3FF42EAF3F
:106EFC00C6E7914AA3691361A369BBB18D4B9B791A
:106F0C0053B12B6854F82330002B7FF41FAF894BFF
:106F1C004FF000029A7119E7864B4FF001029A71FB
:106F2C004FF47A60A369338023F06CFE2B6854F81D
:106F3C002330002B7FF40AAF7E4B9B79002B3FF460
:106F4C0005AFE4E77C4AE3695361E369BBB1794B74
:106F5C00DB7953B12B6854F82330002B7FF4F6AE59
:106F6C00744B4FF00002DA71F0E6724B4FF00102F5
:106F7C00DA714FF47A60E369338023F043FE2B68B7
:106F8C0054F82330002B7FF4E1AE6A4BDB79002BF5
:106F9C003FF4DCAEE4E7684A236A9361236ABBB131
:106FAC00644B1B7A53B12B6854F82330002B7FF4BD
:106FBC00CDAE604B4FF000021A72C7E65D4B4FF03E
:106FCC0001021A724FF47A60236A338023F01AFE9E
:106FDC002B6854F82330002B7FF4B8AE554B1B7A3A
:106FEC00002B3FF4B3AEE4E7534A636AD361636AA0
:106FFC00BBB1504B5B7A53B12B6854F82330002B48
:10700C007FF4A4AE4B4B4FF000025A729EE6636ABB
:10701C003380484B4FF001024FF47A605A7223F0E0
:10702C00F1FD2B6854F82330002B7FF48FAE414BCD
:10703C005B7A002B3FF48AAEE4E73F4AA36A136203
:10704C00A36ABBB13B4B9B7A53B12B6854F82330EA
:10705C00002B7FF47BAE374B4FF000029A7275E633
:10706C00344B4FF001029A724FF47A60A36A33806A
:10707C0023F0C8FD2B6854F82330002B7FF466AE48
:10708C002C4B9B7A002B3FF461AEE4E72A4AE36A6F
:10709C005362E36ABBB1274BDB7A53B12B6854F8CC
:1070AC002330002B7FF452AE224B4FF00002DA72E9
:1070BC004CE6204B4FF00102DA724FF47A60E36A2F
:1070CC00338023F09FFD2B6854F82330002B7FF482
:1070DC003DAE184BDB7A002B3FF438AEE4E7164A92
:1070EC00236B9362236BC3B1124B1B7B53B12B6885
:1070FC0054F82330002B7FF429AE0E4B4FF00002D6
:10710C001A7323E60B4B4FF001021A734FF47A609B
:10711C00236BA9F8003023F075FD2B6854F823304D
:10712C00002B7FF413AE034B1B7B002B3FF40EAEF6
:10713C00E3E700BF7C9101203C910120AA4A636BDC
:10714C00D362636BBBB1A94B5B7B53B12B6854F817
:10715C002330002B7FF4FAADA44B4FF000025A738E
:10716C00F4E5A24B4FF001025A734FF47A60636B53
:10717C00338023F047FD2B6854F82330002B7FF429
:10718C00E5AD9A4B5B7B002B3FF4E0ADE4E7D4F824
:10719C008830012B1DD0D4F88830022B7FF4D6AD6B
:1071AC002B68934954F823208A6054F82320002A32
:1071BC0045D08E4A92F82F20002A33D054F8233031
:1071CC00002B7FF4C3AD894B4FF0000283F82F20C6
:1071DC00BCE58849E26B8A60E26BC2B1834A92F8E3
:1071EC002E2052B12B6854F82330002BD3D17F4B77
:1071FC004FF0000283F82E20CDE77C4A4FF47A60E2
:10720C0082F82E30E36BA8F8003023F0FBFC2B68DF
:10721C0054F82330002BBED1744B93F82E30002B36
:10722C00B9D0E4E7714A54F823303B804FF00101A8
:10723C004FF47A6082F82F1023F0E4FC2B6854F89A
:10724C002330002B7FF482AD684B93F82F30002B4A
:10725C003FF47CADB7E7D4F8A430012B1DD0D4F8A3
:10726C00A430022B7FF472AD2B68614954F82320B3
:10727C00CA6054F82320002A46D05C4A92F8312088
:10728C00002A33D054F82330002B7FF45FAD574BDA
:10729C004FF0000283F8312058E55649226CCA6041
:1072AC00226CC2B1514A92F8302052B12B6854F87A
:1072BC002330002BD3D14D4B4FF0000283F83020FC
:1072CC00CDE74A4A4FF47A6082F83030236CABF841
:1072DC00003023F097FC2B6854F82330002BBED1E0
:1072EC00424B93F83030002BB9D0E4E73F4A54F8C6
:1072FC002330AAF800304FF001014FF47A6082F885
:10730C00311023F07FFC2B6854F82330002B7FF4D2
:10731C001DAD364B93F83130002B3FF417ADB6E76B
:10732C00D4F89C30012B1DD0D4F89C30022B7FF468
:10733C000DAD2B682E4954F823200A6154F82320F4
:10734C00002A45D0294A92F83320002A33D054F829
:10735C002330002B7FF4FAAC244B4FF0000283F85F
:10736C003320F3E42349626C0A61626CC2B11F4A98
:10737C0092F8322052B12B6854F82330002BD3D121
:10738C001A4B4FF0000283F83220CDE7174A4FF426
:10739C007A6082F83230636CA8F8003023F032FC4B
:1073AC002B6854F82330002BBED1104B93F832309D
:1073BC00002BB9D0E4E70D4A54F823303B804FF052
:1073CC0001014FF47A6082F8331023F01BFC2B6818
:1073DC0054F82330002B7FF4B9AC044B93F83330C2
:1073EC00002B3FF4B3ACB7E73C9101207C9101201A
:1073FC00349301200C930120D4F89C30012B1DD028
:10740C00D4F89C30022B7FF4A1AC2B68A64954F81D
:10741C0023204A6154F82320002A3BD0A34A54F875
:10742C00233092F83520002A2ED0002B7FF48EAC1E
:10743C009E4B4FF0000283F8352087E49C4AA36CE6
:10744C005361A36CABB1994B93F8343053B12B68A7
:10745C0054F82330002BD3D1944B4FF0000283F817
:10746C003420CDE7A36CA8F800304FF47A6023F0F9
:10747C00C9FB2B6854F82330002BC1D18B4B93F8EC
:10748C003430002BBCD0E7E74FF47A603B8023F01C
:10749C00B9FB2B6854F82330002B7FF457AC834B8B
:1074AC0093F83530002B3FF451ACC1E7D4F8903051
:1074BC00012B1DD0D4F89030022B7FF447AC2B68F5
:1074CC00794954F823208A6154F82320002A3BD0B0
:1074DC00764A54F8233092F83720002A2ED0002B0D
:1074EC007FF434AC714B4FF0000283F837202DE45D
:1074FC006F4AE36C9361E36CABB16C4B93F8363031
:10750C0053B12B6854F82330002BD3D1674B4FF079
:10751C00000283F83620CDE7E36CA8F800304FF476
:10752C007A6023F06FFB2B6854F82330002BC1D109
:10753C005E4B93F83630002BBCD0E7E74FF47A6003
:10754C003B8023F05FFB2B6854F82330002B7FF437
:10755C00FDAB564B93F83730002B3FF4F7ABC1E73C
:10756C00D4F89430012B1ED0D4F89430022B7FF435
:10757C00EDAB2B684C4954F82320CA6154F82320F6
:10758C00002A3CD0494A54F8233092F83920002A7A
:10759C002FD0002B7FF4DAAB444B4FF0000283F872
:1075AC003920FFF7D3BB424A236DD361236DABB1B6
:1075BC003E4B93F8383053B12B6854F82330002BE2
:1075CC00D2D13A4B4FF0000283F83820CCE7236D30
:1075DC00A8F800304FF47A6023F014FB2B6854F8B1
:1075EC002330002BC0D1314B93F83830002BBBD05B
:1075FC00E7E74FF47A603B8023F004FB2B6854F8E8
:10760C002330002B7FF4A2AB284B93F83930002B9E
:10761C003FF49CABC0E7D4F89830012B1ED0D4F8C3
:10762C009830022B7FF492AB2B681F4954F823201F
:10763C000A6254F82320002A42D01C4A54F8233002
:10764C0092F83B20002A35D0002B7FF47FAB174BF0
:10765C004FF0000283F83B20FFF778BB144A636DB0
:10766C001362636DABB1114B93F83A3053B12B6885
:10767C0054F82330002BD2D10C4B4FF0000283F87E
:10768C003A20CCE7636DA8F800304FF47A6023F011
:10769C00B9FA2B6854F82330002BC0D1034B93F864
:1076AC003A30002BBBD0E7E7349301207C910120CA
:1076BC000C9301204FF47A603B8023F0A3FA2B68E3
:1076CC0054F82330002B7FF441AB9E4B93F83B30A6
:1076DC00002B3FF43BABBAE79B4AA36D1363A36D3E
:1076EC00CBB1984B9B7D5BB12B6854F82330002BAE
:1076FC007FF42CAB934B4FF000029A75FFF726BB2F
:10770C00904B4FF001029A754FF47A60A36DA9F873
:10771C00003023F077FA2B6854F82330002B7FF4D9
:10772C0015AB884B9B7D002B3FF410ABE2E7D4F8F4
:10773C008C30012B1ED0D4F88C30022B7FF406AB8E
:10774C002B68824954F823204A6254F82320002ADB
:10775C003CD07C4A54F8233092F83D20002A2FD09C
:10776C00002B7FF4F3AA774B4FF0000283F83D20F7
:10777C00FFF7ECBA764A236E5362236EABB1714BB2
:10778C0093F83C3053B12B6854F82330002BD2D1F2
:10779C006C4B4FF0000283F83C20CCE7236EA8F82A
:1077AC0000304FF47A6023F02DFA2B6854F8233014
:1077BC00002BC0D1634B93F83C30002BBBD0E7E7D8
:1077CC004FF47A603B8023F01DFA2B6854F8233079
:1077DC00002B7FF4BBAA5B4B93F83D30002B3FF49E
:1077EC00B5AAC0E7584A636E5363636EC3B1554B79
:1077FC005B7E5BB12B6854F82330002B7FF4A6AA78
:10780C00504B4FF000025A76FFF7A0BA4D4B4FF099
:10781C0001025A764FF47A60636E338023F0F2F9EA
:10782C002B6854F82330002B7FF490AA454B5B7ED9
:10783C00002B3FF48BAAE3E7434AA36E9363A36E3A
:10784C00C3B1404B9B7E5BB12B6854F82330002BAB
:10785C007FF47CAA3B4B4FF000029A76FFF776BA86
:10786C00384B4FF001029A764FF47A60A36E338056
:10787C0023F0C8F92B6854F82330002B7FF466AA48
:10788C00304B9B7E002B3FF461AAE3E7314B93F81E
:10789C0000C0314B6246002002E03049994207D0CB
:1078AC0053F8041F0029F8D00132D2B20120F4E7BA
:1078BC0068B1284B1A7062B1264B4FF000021A7057
:1078CC00274B93F800C0224B6246002021E0624611
:1078DC00F1E7B8F80030ADF806303B88ADF8083069
:1078EC002048BBF80030ADF80C30BAF80030ADF8D9
:1078FC000E3001A9022300683280A9F80020ADF8EF
:10790C000420ADF80A201EF02BFCD9E71649994249
:10791C0007D053F8041B0029F8D00132D2B2012051
:10792C00F4E768B10E4B1A7012B30D4B4FF0000216
:10793C001A700E4B93F800C0044B6246002037E0DF
:10794C006246F1E77C9101203C91012034930120A7
:10795C000C930120FC990120389101207891012091
:10796C00FD9901203C97012034930120FE990120C0
:10797C003388ADF804303B88ADF808302848B9F8A6
:10798C000030ADF80A30BAF80030ADF80E3001A96D
:10799C0002230068A8F80020ABF80020ADF8062000
:1079AC00ADF80C201EF0DCFBC3E71E49994207D052
:1079BC0053F8041B0029F8D00132D2B20120F4E7AD
:1079CC0030B3194B1A702ABB3388ADF80430B8F8B1
:1079DC000030ADF806301248B9F80030ADF80A3076
:1079EC00BBF80030ADF80C3001A9022300683A80D6
:1079FC00AAF80020ADF80820ADF80E201EF0B0FB60
:107A0C004FF47A7023F0FEF800232B60FFF7C1B916
:107A1C006246D8E7044B4FF000021A70F0E700BF43
:107A2C003C9701205C930120FE9901202DE98048B0
:107A3C00002083B021F05CFAC648DFF800A4DFF820
:107A4C000094C54DC54FDFF8FCB3DFF8FC831FF085
:107A5C006DFCC3481FF024FC0022AB21042021F054
:107A6C00BDFCC04B00221860AA21012021F0B6FCFD
:107A7C00BD4B002218609421012021F0AFFCBB4BC0
:107A8C00002218600121502021F0A8FCB84B0121E4
:107A9C0018600022084621F0A1FCB64B00221860A9
:107AAC000C21142021F09AFCB34B002218600C21FD
:107ABC00052021F093FCB14B002218600C2105200D
:107ACC0021F08CFCAE4B002218600C21052021F01B
:107ADC0085FCAC4B002218600C21052021F07EFCAB
:107AEC00A94B002218600821012021F077FCA74B3C
:107AFC00002218600521012021F070FCA44B00220B
:107B0C0018600B21012021F069FCA24B00221860A7
:107B1C000821012021F062FC9F4B002218600721F4
:107B2C00012021F05BFC9D4B0022186008210120F4
:107B3C0021F054FC9A4B002218600821012021F0FE
:107B4C004DFC984B002218600921012021F046FCC5
:107B5C00954B002218600421012021F03FFC934B2F
:107B6C00002218600821012021F038FC904B0022E3
:107B7C0018600221012021F031FC8E4B012118608C
:107B8C000022084621F02AFC8B4B002218600221AF
:107B9C00012021F023FC894B0022186008210120D0
:107BAC0021F01CFC864B002218600521012021F0DD
:107BBC0015FC844B002218600B21012021F00EFCD7
:107BCC00814B002218600821012021F007FC7F4B1B
:107BDC00002218600721012021F000FC7C4B0022C0
:107BEC0018600821012021F0F9FB7A4B0022186063
:107BFC000821012021F0F2FB774B002218600921AB
:107C0C00012021F0EBFB754B0022186004210120B0
:107C1C0021F0E4FB724B002218600821012021F0B6
:107C2C00DDFB704B002218600221012021F0D6FBF5
:107C3C006D4B012118600022084621F0CFFB6B4BE5
:107C4C00002218600221012021F0C8FB684B0022A1
:107C5C0018600C21052021F0C1FB664B0022186036
:107C6C0001211E2021F0BAFB634B00221860012178
:107C7C001E2021F0B3FB614B012118600022084645
:107C8C0021F0ACFB5E4B0022186028211E2021F055
:107C9C00A5FB5C4B002218604821052021F09EFBBF
:107CAC00594B012118600022084621F097FB574BD5
:107CBC00012118600022084621F090FB544B002251
:107CCC00186004210C2021F089FB524B0121186013
:107CDC000022084621F082FB4F4B01211860002244
:107CEC00084621F07BFB4D4B012118600022084611
:107CFC0021F074FB4A4B012118600022084621F048
:107D0C006DFB484B012118600022084621F066FBF0
:107D1C00454B012118600022084621F05FFB434BC4
:107D2C00012118600022084621F058FB404B00222C
:107D3C0018600421012021F051FB3E4B00221860F9
:107D4C000221012021F04AFB3B4B002218600A2142
:107D5C007CE000BF100000205098012034970120D7
:107D6C00D8000020D4970120D0970120289701201B
:107D7C002C970120BC970120F896012064980120D3
:107D8C004898012058980120389801206C980120BF
:107D9C007098012074980120789801207C9801201B
:107DAC008098012084980120889801208C980120CB
:107DBC00909801209498012098980120CC9801204B
:107DCC009C980120A0980120A4980120A89801203B
:107DDC00AC980120B0980120B4980120B8980120EB
:107DEC00BC980120C0980120C4980120C89801209B
:107DFC00D0980120F8970120A09701200C98012021
:107E0C0004980120A897012074970120FC9601206A
:107E1C00009701206C9701200497012008970120FE
:107E2C000898012030980120DC9701207C970120D4
:107E3C0088970120F4970120409701206898012031
:107E4C004C9801208C990120E8960120012021F00A
:107E5C00C5FAB24B002218600C21012021F0BEFAA9
:107E6C00AF4B002218600821012021F0B7FAAD4B6E
:107E7C00002218600821012021F0B0FAAA4B002240
:107E8C0018604421042021F0A9FAA84B00221860A4
:107E9C000821012021F0A2FAA54B0022186008212C
:107EAC00012021F09BFAA34B012118600022084607
:107EBC0021F094FAA04B002218600821012021F037
:107ECC008DFA9E4B012118600022084621F086FA9B
:107EDC009B4B002218600C210A2021F07FFA994B51
:107EEC00002218600C21142021F078FA964B022104
:107EFC0018600022084621F071FA944B1860944BDC
:107F0C00009300231A4642F21071924821F020FA95
:107F1C00914B1860914B009300231A4642F210715A
:107F2C008F4821F015FA8F4B18608F4B009300236C
:107F3C001A4642F210718D4821F00AFA8C4B1860E7
:107F4C008C4B009300231A4642F210718A4821F0A0
:107F5C00FFF98A4B18608A4B009300231A4644F6AB
:107F6C002061884821F0F4F9874B1860874B009307
:107F7C0000231A464FF47A71854821F0E9F9854BB4
:107F8C001860854B009300231A464FF4FA6183481E
:107F9C0021F0DEF9824B1860824B009300231A46C5
:107FAC0044F62061804821F0D3F9804B1860804B57
:107FBC00009300231A464FF4FA717E4821F0C8F959
:107FCC007D4B18607D4B009300231A464EF66021C2
:107FDC007B4821F0BDF97B4B18607B4B0093002351
:107FEC001A464EF66021794821F0B2F9784B1860A8
:107FFC00784B0093012200233221774821F0A8F915
:10800C00764B1860764B009301220023C8217548EB
:10801C0021F09EF9744B1860744B009301220023DD
:10802C004FF4FA71724821F093F9724B1860724B4D
:10803C000093012200234FF47A71704821F088F9E3
:10804C006F4B18606F4B0093012200234EF660219A
:10805C006D4821F07DF96D4B18606D4B009301223A
:10806C0000234EF660216B4821F072F96A4B1860C0
:10807C006A4B0093012200234EF66021684821F0E0
:10808C0067F9684B1860684B009300231A464EF64C
:10809C006021664821F05CF9654B1860654B0093D4
:1080AC0000231A464EF66021634821F051F9634BC8
:1080BC001860634B009300231A464EF6602161480A
:1080CC0021F046F9604B1860604B009300231A4670
:1080DC0049F640415E4821F03BF95E4B18605E4B1F
:1080EC00009300231A4649F640415C4821F030F9D0
:1080FC005B4B18605B4B009300231A4649F64041DA
:10810C00594821F025F9594B1860594B009300231D
:10811C001A461921574821F01BF9ADE0649701204C
:10812C003C97012044970120489701205497012047
:10813C0038970120609701205C970120509701200F
:10814C004C97012000980120F097012058970120AE
:10815C0075AF02007C0B0100DC9801209DB602007B
:10816C008C0B010060990120C1B60200980B010034
:10817C0064990120E5B60200A40B01006899012066
:10818C0009B70200B00B01006C9901208DB10200FF
:10819C00BC0B01007C990120E58F0200CC0B010087
:1081AC0040990120F1750200E00B01003899012083
:1081BC00F5BC0200F40B01003C99012075950200FE
:1081CC00040C010094970120B5950200180C0100D5
:1081DC00989701201DBE02002C0C01006098012014
:1081EC0029BE02003C0C01004498012035BE02005F
:1081FC004C0C010054980120CD8C02005C0C010049
:10820C0034980120B1B802006C0C01004C9901208B
:10821C00D1B80200780C010050990120498202006B
:10822C00840C0100D89801203DBB0200940C010085
:10823C00D498012055BB0200A00C0100FC98012031
:10824C006DBB0200AC0C0100009901201D8D0200D9
:10825C00B80C010078990120EDBD0200C40C01009E
:10826C001C990120A1AF0200D00C010048990120FB
:10827C00F9BD0200DC0C0100BE4B1860BE4B009334
:10828C0000231A46C821BD4821F062F8BC4B186087
:10829C00BC4B009300231A464FF4FA61BA4821F004
:1082AC0057F8BA4B1860BA4B009300231A464FF498
:1082BC00FA61B84821F04CF8B74BB8491860012462
:1082CC00B74B01934FF4007200230094B54823F090
:1082DC0027FA00238022B449B448CDE9004A23F0A0
:1082EC001FFA00238022B249B248CDE9004923F09D
:1082FC0017FAB14BB149B248CDE9004380220023B3
:10830C0023F00EFAAF4AB049B048CDE90042002341
:10831C00802223F005FAAE49AE48CDE90041002396
:10832C004FF40072AC4923F0FBF90226AB480190E4
:10833C00009600234FF48062A949AA4823F0F0F973
:10834C00CDE9006500234FF48062A749A74DA848EA
:10835C0023F0E6F9CDE9004700234FF48072A549DC
:10836C00A54FA64823F0DCF9CDE900450023802277
:10837C00A349A448A44D23F0D3F9CDE90047002329
:10838C004FF48072A149A248A24F23F0C9F9A24A26
:10839C00A249A348CDE900420023802223F0C0F972
:1083AC00A049A148CDE9004100234FF400729F4938
:1083BC0023F0B6F99E489F49CDE9004000234FF4C5
:1083CC0000729D4823F0ACF9CDE9004500234FF431
:1083DC0000729A499A4D9B4823F0A2F9CDE90047C7
:1083EC0000234FF480729849984F994823F098F9DC
:1083FC00CDE9004500234FF480729649964823F04E
:10840C008FF9CDE9004700234FF40072934994484B
:10841C00944F23F085F900234FF4807292499348CE
:10842C00CDE9004B23F07CF9914B92499248CDE970
:10843C0000638022002323F073F9904B90499148FC
:10844C00CDE900438022002323F06AF98E4A8F493C
:10845C008F48CDE9006200234FF4807223F060F95D
:10846C008C4B8D498D48CDE900438022002300259B
:10847C0023F056F98A4B019300952B4680228949AB
:10848C00894823F04DF9894989482B46CDE90041AB
:10849C008022884923F044F987488849CDE9006057
:1084AC002B468022864823F03BF9CDE90067854EA8
:1084BC0085498648864F2B46802223F031F92B467E
:1084CC00CDE900464FF4C06282498348834E23F0C5
:1084DC0027F90323019600934FF4C0622B46804981
:1084EC008048814E23F01CF90423019600934FF42D
:1084FC0000622B467D497E487E4E23F011F92B46B7
:10850C004FF480727C497D48CDE9004823F008F98E
:10851C002B464FF4807278497948CDE9004723F017
:10852C00FFF82B46774D744977484FF48072CDE9AC
:10853C00004623F0F5F84FF4807200237349744819
:10854C00CDE9004523F0ECF80021724823F000FC43
:10855C000A21714820F05CF90021704823F0FEFBE1
:10856C0021466F4820F0CCF9DBF800001DF07AFEB4
:10857C00D8E000BF9C97012005BE0200E80C01006A
:10858C000C99012041BE0200F80C010074990120E5
:10859C00E1BD0200080D010008990120180D010031
:1085AC0004990120D1F800002C0D01003D26020099
:1085BC003C0D0100313402005C980120500D01008B
:1085CC00153901003C980120640D0100BD380200F2
:1085DC00FC970120A51C0100780D0100409801209A
:1085EC00900D01009D3B0000A80D01001498012086
:1085FC0069220000C00D0100EC9601201D3D010018
:10860C00D40D0100A16F0200D8970120EC0D0100E0
:10861C00093501001098012018980120FC0D01006B
:10862C00994402001C980120312C0100100E01000D
:10863C00B0970120280E0100093D0200400E0100F8
:10864C0030970120C90F0100540E0100E098012061
:10865C0021410200680E010041E700007C0E010080
:10866C00BD0001008C970120900E01005D160100E9
:10867C00AC970120A80E01002D940200A4970120B4
:10868C00BC0E01002D20020020970120D00E01000D
:10869C00D531020024970120E80E0100FD6B00008B
:1086AC00C4970120000F0100F1700200C097012057
:1086BC001D3F0200140F010080970120240F0100C0
:1086CC000D650200709701203C0F0100E965020066
:1086DC0010970120540F01001922010078970120F6
:1086EC006C0F010055F000000C970120840F010065
:1086FC00DD30010014970120A00F01006949020030
:10870C00556302006897012031640200B80F010024
:10871C00E5780200F1B802002C9501207576020074
:10872C00B8990120DAF800001DF09CFDD9F8000082
:10873C001DF098FD334B18681DF094FD324A1068FB
:10874C001DF090FD314908681DF08CFD3048006823
:10875C001DF088FD2F4B18681DF084FD2E4B1868FA
:10876C001DF080FD2D4B18681DF07CFD2C4B1868FE
:10877C001DF078FD2B4A10681DF074FD2A48006826
:10878C001DF070FD294B18681DF06CFD284B186806
:10879C001DF068FD274B18681DF064FD264B18680A
:1087AC001DF060FD254A10681DF05CFD2449086829
:1087BC001DF058FD234908681DF054FD224800683F
:1087CC001DF050FD214B18681DF04CFD204B186816
:1087DC001DF048FD1F4B18681DF044FD1E4B18681A
:1087EC001DF040FDD8F800001DF03CFD38681DF070
:1087FC0039FD30681DF036FD28681DF033FD1FF083
:10880C002FF8FEE75C9801203C980120FC97012092
:10881C004098012050980120349701201498012091
:10882C00EC96012018980120B0970120D8970120D0
:10883C001098012030970120E0980120209701200A
:10884C001C980120C0970120809701208C97012053
:10885C0070970120789701200C97012038B5B84CFF
:10886C00B84B23604FF40573A380D0F800311BBACA
:10887C00C4F80630B44B4FF4002205469A610A2125
