:020000040000fa
:10000000f0ff0320f9ce0200e3e8020077ff0200d0
:10001000b3140300bf160300bf1703000000000065
:10002000000000000000000000000000311103008b
:10003000731203000000000041dd0200f50303001d
:10004000c1180300c1180300c1180300c118030040
:10005000c1180300c1180300c1180300c118030030
:10006000c1180300c1180300c1180300c118030020
:10007000c11803007512030095120300c118030094
:10008000c1180300b5120300d5120300f5120300d6
:10009000c5100300e91003000d110300910d0300ca
:1000a000b90d0300c1180300c1180300c1180300f3
:1000b000c1180300c1180300c1180300c1180300d0
:1000c000c1180300c1180300c1180300c1180300c0
:1000d000c1180300c1180300c1180300c1180300b0
:1000e000c1180300c1180300000000000000000058
:1000f00000000000c1180300c1180300c11803006c
:10010000c1180300c1180300c1180300c11803007f
:10011000c1180300c1180300bde20200bde20200e5
:10012000bde20200bde202003dab02003dab0200b9
:100130003dab02003dab02009de002009de00200ed
:100140009de002009de002000de202000de20200cf
:100150000de202000de2020065e2020065e202002b
:1001600065e2020065e2020015e3020015e3020009
:1001700015e3020015e3020085c4020015c6020063
:10018000c1180300c1180300c1180300c1180300ff
:1001900000000000c1180300c1180300c1180300cb
:1001a000c1180300c1180300c1180300c1180300df
:1001b000c1180300c1180300c1180300c1180300cf
:1001c000c1180300c1180300c1180300c1180300bf
:1001d000c1180300c1180300c1180300c1180300af
:1001e000c1180300c1180300c1180300c11803009f
:1001f000c1180300c1180300c1180300c11803008f
:10020000c1180300c1180300c1180300c11803007e
:10021000c1180300c1180300c1180300c11803006e
:10022000c1180300c1180300c1180300c11803005e
:10023000c1180300c1180300c1180300c11803004e
:10024000c1180300c1180300c1180300c11803003e
:10025000c1180300c1180300c1180300c11803002e
:020000040000fa
:10026000f8b500bff8bc08bc9e46704705ef020019
:10027000f8b500bff8bc08bc9e467047e1ee02002e
:020000040000fa
:08028000608302000100000090
:020000040000fa
:100288002de9f04ff9b000247694779474948df8a2
:10029800d441adf8cc417194729470946d946e947d
:1002a8008df8bc416b94cdf8af41689469946a9419
:1002b8006594669467946294639464945b945c9484
:1002c8005d945e945f9460946194579458945994a3
:1002d800adf8684151945294539454945594cdf880
:1002e80057419222214617a831f04efa15941694d8
:1002f8001e22214605a831f047fab34fb34cdff868
:100308002c83dff82ca3dff82c93dff82cb331e231
:10031800af4b18682cf0e6fb0025aaf80050a9f8a6
:100328000050ac4b1d70ac4b1d802a4676a9ab4bd8
:1003380018682bf067fc2a4674a9a94b18682bf09b
:1003480061fc2a4673a9a74b18682bf05bfc9df843
:10035800df31012b40f0d8819df8d231002b40f0dd
:10036800d3819df8d1316d2b26d89df8d131632bdf
:1003780000f2ca819c4e689640238df8aa319b4da5
:100388000023642268a928682bf01cfb4ff47a70bc
:100398002ff086fd689600238df886318df8aa31f6
:1003a800642268a928682bf00dfb64202ff078fde3
:1003b8008f4b01221a70a7e18e4b1d608e4b1d607a
:1003c800894b689340238df8aa31884e2b466422c6
:1003d80068a930682bf0f6fa4ff47a702ff060fdb8
:1003e800814b68938df886518df8aa512b4664226b
:1003f80068a930682bf0e6fa64202ff051fd7c4b99
:1004080001221a700c2388f80030aee77b4b659305
:1004180000258df898512b46642265a97848006814
:100428002bf0d0fa64202ff03bfd764b6293012627
:100438008df862618df88c618df863518df88d515e
:100448008df864518df88e512b46642262a96e484e
:1004580000682bf0b7fa64202ff022fd624b6893f6
:100468008df884618df8a5612b46642268a95f48e0
:1004780000682bf0a7fa64202ff012fd2a4673a912
:10048800584b18682bf0befb9df8cc31b34240f0b6
:100498003b81574b02221a7036e1534d6895402331
:1004a8008df8aa31514e0023642268a930682bf0d8
:1004b80089fa4ff47a702ff0f3fc689500258df8cf
:1004c80086518df8aa512b46642268a930682bf012
:1004d80079fa64202ff0e4fc2a4674a9404b186886
:1004e8002bf090fb002800f00f819df8d131503b94
:1004f800dbb21d2b25d99df8d1316d2b0dd9434b7e
:100508001b78002b00f09a80414b00221a700c23b4
:1005180088f8003001202ef077f83e4b1b681e2b20
:1005280040f3f2803b4b00221a60384b1b7823b90a
:10053800394b4ff48032c3f898202d4b00221a70a3
:10054800e2e002202ef060f8334b4ff48032c3f81b
:100558009420092388f800302d4b01221a70254b6e
:100568001b6893420ed02d4b1b78022b18d0214bc1
:100578001b6813b91e4b03221a70264a13680133ed
:100588001360b8e72a468df84050022310a9244882
:1005980000682bf017fa234b18682cf0a3fae2e74f
:1005a8001e4b5b78012be2d1114b03221a700022fb
:1005b8008df84420022311a91b4800682bf002fa89
:1005c8000d4b01221a60d2e7f5990120f498012019
:1005d800cc970120149a012042950120a898012067
:1005e800ac980120d098012002c4ec157098012025
:1005f800c9990120389901204099012001c4ec15be
:100608005498012002d4ec1544980120e599012062
:10061800ea9901202499012000800041d099012005
:10062800589701204097012068970120bd99012023
:10063800dc990120e0990120f3990120b84b4ff48f
:100648008032c3f89820b74b18682bf07dfd4ff621
:10065800ff702ef081fd0023b34a1360b34a136084
:10066800b34b1b78002b7ff44fafb14b01221a70ac
:10067800b04b18782df026fb46e70025ae4b1d60e1
:10068800ae4b659308238df847318df89b312b4687
:10069800642265a9aa4800682bf094f94ff47a708f
:1006a8002ff0fefba74e68968df885518df8a8515e
:1006b8008df886518df8aa518df887518df8ab5178
:1006c8002b46642268a9a04800682bf07bf94ff4f8
:1006d8007a702ff0e5fb2a4673a99c4b18682bf01b
:1006e80091fa689602238df884318df8a5312b464e
:1006f800642268a9944800682bf064f964202ff0fc
:10070800cffb934b04221a7098f800308df85130c3
:10071800baf80020adf84e20b9f80020adf84c200a
:100728009bf800208df852203a788df850208df8eb
:1007380048300223002213a9864800682bf042f9aa
:100748000223002212a9844800682bf03bf9236891
:10075800012b0bd1002323607d4a13707f4b18684f
:100768002cf0c0f97e4b18682bf0eefc4ff4487063
:100778002ff096fb00220da97a4b18682bf042fa4d
:1007880028b1794a9df8343011880b441380704b96
:100798001b78dbb21e2bb7d801a252f823f000bf9a
:1007a8001903000015040000a304000083060000dc
:1007b8002508000011070000990800001107000033
:1007c80011070000110700001107000011070000c1
:1007d80011070000110700001107000011070000b1
:1007e800190a000011070000450b0000710d0000f8
:1007f800410e000011070000b510000011070000ad
:100808001107000011070000110700001107000080
:100818001107000011070000551a0000002274a9f2
:10082800524b18682bf0eef9002273a9474b186851
:100838002bf0e8f99df8d231012b1fd09df8cc316f
:10084800fa2b02d0fc2b00d013b9414b00221a70ae
:100858009df8d1316d2b7ff657af454b1b7823b9e7
:100868002f4b4ff48032c3f898200023414a13706d
:100878000c2288f80020364a137045e79df8d131dc
:10088800503bdbb21d2bd9d8314b06221a70d5e765
:100898000022274b1a7073a92c4b18682bf0b2f959
:1008a8009df8cc31312b0ed91f4b1b68012b28d05a
:1008b800002b41f0128200226ba92f4b18682bf0f5
:1008c800a1f900285cd19df8cc31fa2b02d0fc2b81
:1008d80000d053b9144a1268012a19d02ab91c4aff
:1008e80000211170104a012111600a2b7ff40caf0e
:1008f800224b1b780133dbb2f02b79d01f4a1370df
:1009080002e7134b10221a709df8cc31fa2bded176
:100918000f4a00211170044a01211160e5e700bf68
:1009280000800041749701203899012040990120e6
:10093800209a01207b9a01202499012001c4ec15fa
:100948005498012002c4ec1570980120d098012019
:10095800c9990120549701201497012098970120e4
:100968005c9801209497012042950120ac980120c1
:10097800e5990120ea990120b89801202c9a0120d4
:100988009df8ac318df838309df8ad318df839309f
:100998009df8ae318df83a309df8af318df83b3087
:1009a8009df8b0318df83c309df8b1318df83d306f
:1009b800022300220ea9534800682bf003f89df883
:1009c8003830002b3ff47faf4f4b01221a604f4b5a
:1009d80010221a7002238df84030002210a94c48ca
:1009e80000682af0efff4b4b18682cf07bf86ae799
:1009f8000023494a1370454a1370484b40f233129a
:100a08001a80474b02221a7011202df05bf97be601
:100a1800414b00221a70434b1b686bbb424b1b783f
:100a2800022b2dd1404b5b78012b29d115468df82f
:100a38004420022311a93d4800682af0c3ff3c4b1b
:100a4800689301238df886318df8aa312b466422ec
:100a580068a9384800682af0b5ff64202ff020fa0a
:100a68002a4673a9344b18682bf0ccf8274b12226e
:100a78001a700e202df026f92a4b1b68012b22d064
:100a8800002273a92c4b18682bf0bcf89df8cc31c8
:100a9800fa2b04d0fc2b02d0002b7ff435ae1b4b75
:100aa80000221a70184b01221a601c4b4ff49a72dc
:100ab8001a801b4b02221a7006202ff073fd11209a
:100ac8002df000f920e61a4b689301238df8863142
:100ad8008df8aa310023642268a9164800682af014
:100ae80071ff64202ff0dcf9002273a9124b1868fb
:100af8002bf088f8054b12221a700e202df0e2f820
:100b0800bee700bf5c97012038990120c9990120f0
:100b180058970120409701202c9a012082960120a5
:100b2800f999012040990120d09901206897012066
:100b380002c4ec1570980120d09801200123a84a1e
:100b48001360a84a4ff40011c2f8181100224e92ff
:100b5800a54a4f928df8403102238df84131002289
:100b68004ea9a24800682af02dffa14b18682bf067
:100b7800b9ff002271a99f4b18682bf043f8002891
:100b880000f0d7809df8c4319df8c52102eb0322ff
:100b9800994981fb0232931007ee903af8eee77a12
:100ba8009df8c6219df8c73103eb022381fb03237f
:100bb8009b1007ee103ab8eec77abdeec77a17ee6b
:100bc800103a8e4a92fbf3f303eb83035b0007eec4
:100bd800103ab8eec77a8a4b83ed007ab2ee047aff
:100be80067ee877a93ed007af4eec77af1ee10faa1
:100bf80048bfc3ed007a834b689300258df8aa514e
:100c08002b46642268a9804800682af0dbfe64202d
:100c18002ff046f97d4b6593794ad2ed007afceec8
:100c2800e77a17ee903a8df89831d2ed007afcee1b
:100c3800e77a17ee903ac3f307238df899315823d2
:100c48008df89a311b238df89b314ff010028df8e7
:100c58009c2127238df89d3114268df89e618df8ef
:100c68009f512b46642265a9694800682af0aafeac
:100c78004ff496702ff014f98df898618df899510a
:100c8800c8238df89a318df89b518df89c618df8a9
:100c98009d5164268df89e618df89f515d4b65933b
:100ca8002b46324665a95a4800682af08bfe4ff455
:100cb80096702ff0f5f802238df886318df8aa3159
:100cc800504b68932b46324668a94f4800682af073
:100cd80079fe30462ff0e4f810202cf0f3ff2a4676
:100ce80073a94d4b18682af08dff9df8cc21a2f10d
:100cf8005b03dbb2092b08d8484b13221a70394b17
:100d08004ff48012c3f8142113e0fa2a01d0fc2a08
:100d180027d1424b00221a70414b40f235121a80fb
:100d2800404b02221a7008202ff03cfc11202cf0b6
:100d3800c9ff00250e95adf83c5002232a460ea99e
:100d4800394800682af03efe8df8405002232a46b2
:100d580010a9364800682af035fe354b1d809d7075
:100d6800d2e4002ad5d0e4e7002274a9314b1868f0
:100d78002af048ff9df8d131312b7ff6c5ac194bcd
:100d8800d3f8203113f0807f19d101238df88531f4
:100d98008df8a8310c238df886318df8aa31194bbe
:100da80068930023642268a9174800682af00afe9d
:100db80064202ff075f8194b14221a70a4e4174b0d
:100dc80000221a70164b40f235121a80154b022277
:100dd8001a7007202ff0e6fb11202cf073ff93e424
:100de80040990120008000410000484304980120f8
:100df80008980120c0980120676666667011010096
:100e0800d897012002c4ec157098012003c4ec1592
:100e18005498012004c0ec15d0980120c9990120ec
:100e280082960120f99901205c97012058970120aa
:100e3800d0990120ac980120002270a9814b186834
:100e48002af0e0fe9df8c0319df8c12102eb032293
:100e58007d4981fb0232921007ee902af8eee77a7c
:100e68007a4bc3ed007a9df8c2219df8c33103eb9c
:100e7800022381fb03239b1007ee103ab8eec77ad2
:100e8800734b83ed007a4ff080434e93cded4f7a4c
:100e980001238df8403102238df8413100224ea9fb
:100ea8006c4800682af08efd6b4b18682bf01afe10
:100eb8009df8c1318df8a4319df8c0318df8a53168
:100ec800664b68930023642268a9654800682af085
:100ed80079fd64202ef0e4ff12202cf0f3fe0022ae
:100ee80073a9604b18682af08dfe00283ff40cacfb
:100ef8009df8cc31782b1ad09df8cc31fa2b04d040
:100f0800fc2b02d0002b7ff4ffab574b1e221a702c
:100f1800564b4ff49b721a80554b02221a700820c8
:100f28002ff040fb11202cf0cdfefff7edbb514b0d
:100f38001e6830f06bfc4ef66025009500230246d3
:100f4800012130462df0f0fc4b4b1e6830f05efc62
:100f5800009500230246012130462df0e5fc474b61
:100f68001e6830f053fc00950023024601213046ec
:100f78002df0dafc424b1e6830f048fc0095002347
:100f88000246012130462df0cffc3e4b1e6830f062
:100f98003dfc009500230246012130462df0c4fc9b
:100fa800394b1e6830f032fc0095002302460121bf
:100fb80030462df0b9fc2c4b16221a70334b18789a
:100fc8002ef044fd64202ef06bff314d28782ef072
:100fd80059fd64202ef064ff2e4e30882ef06efdf1
:100fe80064202ef05dff2c4908782ef09ffd6420c8
:100ff8002ef056ff294800782ef07cfd64202ef054
:101008004fff274a10782ef0adfd64202ef048ffe0
:10101800244b1a68244b1a6031882b781b4a1278a3
:101028001b0243ea014313433f931c4801781a4bc0
:101038001b781b4a12781b0243ea0143134340936f
:101048005ae700bfc898012067666666a89901201c
:1010580004990120049801200898012005c4ec1582
:1010680070980120d0980120c9990120829601200a
:10107800f9990120e89801206c99012070990120c4
:101088007499012078990120a4970120059a0120dc
:101098001e9a01205a8d01201d9a01200e9a0120c6
:1010a8002a9a0120c497012030980120454b1868de
:1010b8002bf018fd03202df0a7fa434b18882ef0cb
:1010c8001dfc424b1b78072b77d0002270a9404ba0
:1010d80018682af097fd002840f0968000226da934
:1010e8003c4b18682af08efda0b13b4a13789df856
:1010f800b6013a49c854062188f800100133137024
:10110800324b1b78042b40f2a783304b1b78052bfe
:1011180000f0ad83324b1b78052b00f0b0832e4bcb
:101128001b78052b00f024842e4b1b782bb92e4bf3
:101138001b78dbb2012b00f03a842a4b1b78dbb218
:10114800012b00f03f849df8cc31292b03d0fa2bda
:1011580001d0fc2b12d1254b1e221a70092388f8c6
:101168000030234bca221a80224b02221a700a200e
:101178002ff018fa204b1a68204b1a609df8b431ea
:10118800012b00f036841e4b1b78022b7ff4bcaa7f
:101198001b4b9b78012b7ff4b7aa144b1e221a70a5
:1011a800092388f80030164b00221a809a70124bd7
:1011b8001a68124b1a60fff7a7ba124b18782ff06b
:1011c80057f882e77497012042950120149a01206c
:1011d800c8980120c4980120119a01208496012002
:1011e800199a0120e5990120ea990120c99901205d
:1011f80082960120f9990120c4970120389801208e
:10120800d0990120cd9901209df8c2219df8c331c4
:1012180003eb0223ca4a82fb03139b0807ee903aaa
:10122800f8ee677ac74bc3ed007a9df8c0119df8b8
:10123800c13103eb012382fb03239b0807ee103a1d
:10124800b8ee477ac04b83ed007a17ee900a2ef07d
:101258005bfe02460b46bd4905a830f019f91e2170
:1012680005a82cf02ffa30f02ffa0028fbd0b54b48
:10127800d3ed007ab44bd3ed006a27eea67ab44bcf
:1012880083ed007ab34b1b78002b40f08880b24b7b
:101298001a68b24b1a6093ed006ab4eec67af1eea2
:1012a80010fa35d5ae4b1b7833bb9fedae7a76ee90
:1012b800876acded4f6aa94b93ed006aaa4bd3ed2f
:1012c800006a86ee267af4eec77af1ee10fac0f2da
:1012d800a480f5ee007a27ee277a8ded4e7a032367
:1012e8008df8413101238df84031022300224ea9a7
:1012f8009e4800682af066fb994b1b78dbb2012bed
:1013080000f09880964b1b78dbb2012b00f0d98057
:10131800924bd3ed007a8e4b93ed007ab4eee77ad8
:10132800f1ee10fa3bdd8e4b1b7863bb864bd3ed99
:10133800007a9fed8c7a77ee877acded4f7a874bde
:10134800d3ed006a884bd3ed007a86eea77a7d4b01
:10135800d3ed007ab4eee77af1ee10fa00f21681d6
:10136800f5ee007a27ee277a8ded4e7a03238df875
:10137800413101238df84031022300224ea97b48d8
:1013880000682af01ffb764b1b78dbb2012b00f0bc
:101398000a81734b1b78dbb2012b00f04b816d4b3c
:1013a8001b78dbb2012b00f084819df8c2019df807
:1013b800c3516f4e32784fea820c6e49614405eb97
:1013c8000023dff87ce18efb03e39b0807ee903aed
:1013d800f8ee677ac1ed007a674b9c44624b1b6854
:1013e800ccf80030013232709df8c1318df8a4314b
:1013f8009df8c0318df8a5318df8a6518df8a7015b
:101408005e4b68930023642268a95d4800682af04f
:10141800d9fa32202ef044fd60e6f4eec77af1eef8
:1014280010fa7ff55cafb5ee007a67ee877acdedfe
:101438004e7a54e7534b1b78dbb2112b7ff662af21
:10144800514b4ff40012c3f818213f4bd3ed007aeb
:101458009fed447a77ee877acded4f7a3f4bd3ed07
:10146800007ab6ee007a67ee877a3f4bd3ed006ad2
:1014780087eea67a334bd3ed007ab4eee77af1ee35
:1014880010fa12d8f6ee007a27ee277a8ded4e7a0a
:1014980002238df8413101228df8402100224ea906
:1014a800324800682af08efa32e7b4eee77af1eeb5
:1014b80010faedddb6ee007a67ee877acded4e7a5a
:1014c800e6e7304b1b78dbb2112b3ff621af1e4b02
:1014d800d3ed007a9fed237a77ee877acded4f7ab8
:1014e8001e4bd3ed006a204bd3ed007a86eea77a27
:1014f800144bd3ed007ab4eee77af1ee10fa13d874
:10150800f5ee007a27ee277a8ded4e7a03238df8d3
:10151800413101238df84031022300224ea913489e
:1015280000682af04ffaf3e6b4eee77af1ee10fa23
:10153800ecddb5ee007a67ee877acded4e7ae5e719
:101548006766666604990120a8990120d4210100e4
:1015580064990120f1990120689a0120f0970120ef
:10156800e599012000000000709a012004980120ec
:10157800199a012088940120b094012005c4ec1523
:1015880070980120c599012000800041b4eee77ae7
:10159800f1ee10fa7ff7eaaeb5ee007a67ee877ad9
:1015a800cded4e7ae2e6bf4b1b78dbb2112b7ff60e
:1015b800f0aebd4b4ff40012c3f81821bb4bd3ed6e
:1015c800007a9fedbb7a77ee877acded4f7ab94beb
:1015d800d3ed007ab6ee007a67ee877ab64bd3ed94
:1015e800006a87eea67ab54bd3ed007ab4eee77ab7
:1015f800f1ee10fa12d8f6ee007a27ee277a8ded82
:101608004e7a02238df8413101228df840210022c3
:101618004ea9ab4800682af0d5f9c0e6b4eee77adf
:10162800f1ee10faedddb6ee007a67ee877acdedd1
:101638004e7ae6e79b4b1b78dbb2112b3ff6afae39
:101648009a4bd3ed007a9fed9a7a77ee877acdedb3
:101658004f7a984bd3ed006a974bd3ed007a86ee1c
:10166800a77a964bd3ed007ab4eee77af1ee10fa4a
:1016780013d8f5ee007a27ee277a8ded4e7a0323fc
:101688008df8413101238df84031022300224ea903
:101698008b4800682af096f981e6b4eee77af1ee15
:1016a80010faecddb5ee007a67ee877acded4e7a6a
:1016b800e5e7844b1b785bbb7c4bd3ed007a9fed51
:1016c8007c7a77ee877acded4f7a7f4bd3ed006a3f
:1016d800794bd3ed007a86eea77a784bd3ed007a72
:1016e800b4eee77af1ee10fa50d8f5ee007a27ee6c
:1016f800277a8ded4e7a03238df8413101238df839
:101708004031022300224ea96d4800682af05af998
:101718006c4b1b78dbb2012b44d06a4b1b78dbb2d5
:10172800012b7ff442ae5f4b1b78dbb2112b3ff6e7
:101738003cae5e4bd3ed007a9fed5d7a77ee877a0b
:10174800cded4f7a604bd3ed006a5b4bd3ed007a59
:1017580086eea77a594bd3ed007ab4eee77af1ee2c
:1017680010fa6dd8f5ee007a27ee277a8ded4e7acd
:1017780003238df8413101238df8403102230022e3
:101788004ea94f4800682af01df90ee6b4eee77a34
:10179800f1ee10faafddb5ee007a67ee877acded9f
:1017a8004e7aa8e73f4b1b78dbb2112bb5d93e4bdd
:1017b8004ff40012c3f81821434b93ed007adfed84
:1017c800437ab4eee77af1ee10fac8bfc3ed007ab7
:1017d800364bd3ed007a9fed367a77ee877acdedea
:1017e8004f7a394bd3ed006a334bd3ed007a86ee4e
:1017f800a77a324bd3ed007ab4eee77af1ee10fa1d
:1018080012d8f6ee007a27ee277a8ded4e7a02236b
:101818008df8413101228df8402100224ea9284837
:1018280000682af0cff8c0e5b4eee77af1ee10fad6
:10183800edddb6ee007a67ee877acded4e7ae6e713
:10184800b4eee77af1ee10fa92ddb5ee007a67eec3
:10185800877acded4e7a8be72ef00afd9df8b621fa
:101868001b4b1a701b4a1378013313704de4194b44
:1018780007221a709df8b6318bf800304ae44ff011
:10188800000c154b83f800c0baf80010b9f8000036
:10189800124b134a03f1140ecdf80cc01e46154620
:1018a800029121e0c599012000800041a8990120fa
:1018b80000000000f0970120709a0120049901208f
:1018c80004980120e5990120f897012000b80847fd
:1018d800cd990120149a0120199a01208894012099
:1018e800b0940120734525d0f3ec017a96ed007a87
:1018f800b4eee77af1ee10fa09d8c6ed007afceefc
:10190800e77a17ee901a89b202914ff0010cf2ecc7
:10191800017a95ed007ab4eee77af1ee10fae1d8a3
:10192800c5ed007afceee77a17ee901a88b201212d
:101938000391d7e70299bcf1000f01d0aaf8001073
:10194800039b0bb1a9f80000344bd3ed007afceef1
:10195800e77a17ee900a2ef009f8314bd3ed007aaa
:10196800fceee77a17ee900a2df0e4fffff7d7bbfd
:1019780000252c4b1d7097f800c02b4b5e1d184698
:101988004ff0010e01e0b34208d013f8012b0178a3
:101998009142f8d8027094467546f4e70db187f87d
:1019a80000c0214b18782ef04bfcfff7bdbb00227e
:1019b8008df84420022311a91c4800682af002f877
:1019c800fff7bbbb1a4b1b78dbb2012b7ff4bbab19
:1019d800184b1b78dbb2132b7ff6b5ab00228df8c2
:1019e8004420022311a91148006829f0ebfffff7f2
:1019f800aabb114b1e221a70092388f800300f4b1e
:101a0800c9221a800e4b02221a700a202ef0cafd33
:101a18000c4b1a680c4b1a60fff7b5bb8894012071
:101a2800b0940120119a0120849601206897012022
:101a3800ea990120c5990120c999012082960120bf
:101a4800f9990120c497012038980120a74b1b78e9
:101a5800dbb2012b00f00981a54b1b78dbb2012b0f
:101a680000f019814ff003038df884318df8a5310a
:101a7800a04b6893a04e0023642268a9306829f01f
:101a8800a1ff32202ef00cfa00258df8a4518df814
:101a9800a5519a4a68922b46642268a9306829f0b1
:101aa80091ff32202ef0fcf995494ff48010c1f8cf
:101ab8001801944b1a68944b1a608c4b1d700223c2
:101ac8008df841318df840512a464ea98f4800685b
:101ad80029f078ff40f6b8302ef0e2f94ff0030015
:101ae8008df8a501834b68932b46642268a80146ac
:101af800306829f067ff32202ef0d2f98df8a45112
:101b08008df8a5517d4a68922b46642268a8014643
:101b1800306829f057ff32202ef0c2f978494ff487
:101b28008013c1f818310a2300932b462a46032153
:101b3800774800682cf0f8fe764b18782ef02ef8cf
:101b4800754b18782ef046f8744b18882ef05ef80e
:101b5800734b18782ef092f8724b18782ef072f8b2
:101b6800714b18782ef0a6f8704b18682ef0daf83a
:101b78006f4b1b78dbb2012b00f0a3806c4b1b78fa
:101b8800dbb2022b00f0a180694b1b78dbb2032b80
:101b980000f09f805c4bd3ed007afceee77a654b52
:101ba80093ed007abceec77a17ee903a17ee102a3a
:101bb8009b1a07ee903af8ee677a5f4dc5ed007a0a
:101bc800fceee77a17ee900a2ef090f85b4b1522a0
:101bd8001a7005202cf018fd544b1b683e934f4b90
:101be80019884d4b1b784b4a12781b0243ea014374
:101bf800134341934b4b1978494b1b784a4a127847
:101c08001b0243ea0143134342934d4b1a783b7836
:101c180043ea02434393d5ed007afceee77a17eee8
:101c2800903a43f400334493414b1a78454d2b883e
:101c380043ea0243459302238df8f03000236422df
:101c48003ca94148006829f0bdfe404b18682af0bd
:101c580049ff0123236000222a803d4a13703d4a30
:101c680013703d4a1370fef74fbd214b1b78002bb4
:101c78007ff4f2ae00228df8402103238df8413124
:101c880002234ea92148006829f09cfe40f6b8308e
:101c98002ef006f9e0e6154b1b78dbb2012b7ff43a
:101ca800e1ae00228df8402102238df841314ea982
:101cb8001648006829f086fe40f6b8302ef0f0f895
:101cc800d0e601202ef06efc58e702202ef06afcc8
:101cd8005ae703202ef066fc5ce79df8cc31fa2b1e
:101ce8007ef4f5ad1d4a1268fef7f8bdea990120a9
:101cf800e599012002c4ec157098012005c4ec1583
:101d080000800041c49701203898012004980120e0
:101d1800a4970120059a01201e9a01205a8d0120be
:101d28001d9a01200e9a01202a9a0120009701206d
:101d3800f899012030980120289701207b9a0120ea
:101d4800cd99012042950120809701208497012098
:101d5800e9990120e8990120e799012038990120a3
:020000040000fa
:101d68002de9f04ff1b000246e946f946c94cdf887
:101d7800b3416a948df8ac41adf8a4416794689476
:101d88006694639464948df8944160946194629429
:101d98005d945e945f945a945b945c9453945494c9
:101da800559456945794589459944f9450945194e8
:101db800adf8484149944a944b944c944d94cdf8cd
:101dc8003741469447944894922221460fa82ff011
:101dd800dbfc0d940e94b34eb34fdff82c83dff881
:101de8002c93dff82cb3dff82ca32de2af4b186847
:101df8002af078fe0024ae4b1c70a9f80040abf81e
:101e08000040ac4b1c8022466ea9ab4b186829f0e9
:101e1800f9fe22466aa9a94b186829f0f3fe224662
:101e280069a9a74b186829f0edfe9df8bf31012b71
:101e380040f0d2819df8aa31002b40f0cd819df869
:101e4800a9316d2b26d89df8a931632b00f2c481e6
:101e58009c4d609540238df88a319b4c0023642269
:101e680060a9206829f0aefd4ff47a702ef018f8ba
:101e7800609500238df851318df88a31642260a96c
:101e8800206829f09ffd64202ef00af88f4b01226c
:101e98001a70a1e18e4b1c608e4b1c60894b6093bd
:101ea80040238df88a31884d2346642260a928682a
:101eb80029f088fd4ff47a702df0f2ff814b609382
:101ec8008df851418df88a412346642260a928681b
:101ed80029f078fd64202df0e3ff7c4b01221a7075
:101ee8000c2388f80030aee77b4b5d9300248df817
:101ef8007841234664225da97848006829f062fd8c
:101f080064202df0cdff764b5a9301258df8425170
:101f18008df86c518df843418df86d418df8444131
:101f28008df86e41234664225aa96e48006829f04c
:101f380049fd64202df0b4ff624b60938df84f513a
:101f48008df885512346642260a95f48006829f00e
:101f580039fd64202df0a4ff224669a9584b186862
:101f680029f050fe9df8a431ab4240f03581574b23
:101f780002221a7030e1534c609440238df88a3164
:101f8800514d0023642260a9286829f01bfd4ff4f5
:101f98007a702df085ff609400248df851418df8fa
:101fa8008a412346642260a9286829f00bfd642031
:101fb8002df076ff22466aa9404b186829f022fec8
:101fc800002800f009819df8a931503bdbb21d2b98
:101fd80025d99df8a9316d2b0dd9434b1b78002bc2
:101fe80000f09a80414b00221a700c2388f80030c8
:101ff80001202ef053fa3e4b1b681e2b40f3ec8059
:102008003b4b00221a60384b1b7823b9394b4ff4ed
:102018008032c3f898202d4b00221a70dce0022091
:102028002ef03cfa334b4ff48032c3f89420092346
:1020380088f800302d4b01221a70254b1b689342fb
:102048000ed02d4b1b78012b18d0214b1b6813b9d0
:102058001e4b03221a70264a136801331360b8e72f
:1020680022468df82040022308a92448006829f058
:10207800a9fc234b18682af035fde2e71e4b5b7874
:10208800012be2d1114b03221a7000228df8242073
:10209800022309a91b48006829f094fc0d4b012272
:1020a8001a60d2e7f4990120f0980120cc9701201a
:1020b800139a012092930120789801207c9801209e
:1020c800a098012002c0ec1570980120c599012044
:1020d800349901203c99012001c0ec155498012045
:1020e80002d0ec1544980120ea990120e5990120d5
:1020f8002099012000800041d4990120589701209f
:10210800409701206897012089960120da990120db
:10211800de990120f2990120af4b4ff48032c3f8c9
:102128009820ae4b18682af00ff84ff6ff702df084
:1021380013f80023aa4a1360aa4a1360aa4b1b7813
:10214800002b7ff44fafa84b01221a70a74b1878c9
:102158002bf0b8fd46e70024a54b1c60a54b5d930a
:1021680008238df825318df87b31234664225da93b
:10217800a148006829f026fc4ff47a702df090fef3
:102188009e4d60958df850418df888418df85141ec
:102198008df88a418df852418df88b41234664228f
:1021a80060a99748006829f00dfc4ff47a702df06b
:1021b80077fe609502238df84f318df885312346df
:1021c800642260a98e48006829f0fcfb64202df089
:1021d80067fe8c4b04221a7098f800308df8313065
:1021e800b9f80030adf82e30bbf80030adf82c301f
:1021f8009af800308df8323033788df83030022379
:1022080000220ba98048006829f0dcfb98f8003010
:102218008df82830022300220aa97c48006829f09a
:10222800d1fb3b68012b0bd100233b60754a13702f
:10223800774b18682af056fc764b186829f084ff0b
:102248004ff4fa702df02cfe6e4b1b78dbb21e2b70
:10225800c2d801a252f823f0f51d0000f11e0000bb
:102268007f1f00005f210000dd220000e121000047
:1022780051230000e1210000e1210000e1210000dc
:10228800e1210000e1210000e1210000e12100003e
:10229800e1210000e1210000c7240000e121000045
:1022a800f52500002d28000005290000e121000087
:1022b800792b0000e1210000e1210000e12100006c
:1022c800e1210000e1210000e1210000e1210000fe
:1022d8000535000000226aa94f4b186829f092fcc6
:1022e800002269a94d4b186829f08cfc9df8aa3189
:1022f800012b1fd09df8a431fa2b02d0fc2b00d063
:1023080013b9404b00221a709df8a9316d2b7ff646
:1023180063af434b1b7823b92f4b4ff48032c3f87c
:10232800982000233f4a13700c2288f80020354a71
:10233800137051e79df8a931503bdbb21d2bd9d85a
:10234800304b06221a70d5e70022274b1a7069a96c
:10235800324b186829f056fc9df8a431312b0ed960
:102368001f4b1b68012b28d0002b41f0068200224e
:102378006ca92d4b186829f045fc002858d19df808
:10238800a431fa2b02d0fc2b00d053b9144a12689e
:10239800012a19d02ab91b4a00211170104a0121bb
:1023a80011600a2b7ff418af204b1b780133dbb286
:1023b800f02b74d01d4a13700ee7124b10221a70be
:1023c8009df8a431fa2bded10e4a00211170044a7f
:1023d80001211160e5e700bf0080004174970120ea
:1023e800349901203c9901201f9a01207b9a0120f1
:1023f8002099012001c0ec155498012002c0ec1569
:1024080070980120c599012050970120109701204c
:102418008c9701204c9801207c980120a0980120dd
:10242800ea990120e5990120889801202b9a01203a
:102438009df8b0318df818309df8b1318df819300c
:102448009df8b2318df81a309df8b3318df81b30f4
:102458009df8b4318df81c309df8b5318df81d30dc
:102468000223002206a95348006829f0abfa9df818
:102478001830002b83d001234f4a13604f4a102194
:1024880011708df820304e4b18682af02bfb022370
:10249800002208a94b48006829f094fa6fe7002346
:1024a800494a1370454a1370484b40f233121a8058
:1024b800474b01221a7008202bf004fc8ce6424b93
:1024c80000221a70434b1b6873bb434b1b78012bcc
:1024d8002ed1414b5b78012b2ad114468df824204c
:1024e800022309a93d48006829f06cfa3c4b609327
:1024f80001238df851318df88a312346642260a971
:102508003848006829f05efa64202df0c9fc4ff4c1
:102518007a7269a9344b186829f074fb274b122288
:102528001a7005202bf0cefb2a4b1b68012b21d0fb
:10253800002269a92c4b186829f064fb9df8a43186
:10254800fa2b04d0fc2b02d0002b7ff445ae1b4b9a
:1025580000221a700123184a13601c4a4ff49a711a
:1025680011801b4a137006202ef006f808202bf065
:10257800a9fb31e61a4b609301238df851318df890
:102588008a310023642260a91648006829f01afae3
:1025980064202df085fc4ff47a7269a9124b1868f3
:1025a80029f030fb054b12221a7005202bf08afb0c
:1025b800bee700bf5c97012034990120c59901202e
:1025c80040970120589701202b9a012082960120dc
:1025d800f99901203c990120d4990120689701209c
:1025e80002c0ec1570980120a0980120ad4b4ff463
:1025f8000012c3f8182100234693ab4b47930124dc
:102608008df820418df821410023642246a9a7486e
:10261800006829f0d7f9a64b18682af063faa54b89
:102628001c60002267a9a44b186829f0ebfa00285f
:1026380000f0d3809df89c319df89d2102eb032288
:102648009e4981fb0232931007ee903af8eee77a42
:102658009df89e219df89f3103eb022381fb032304
:102668009b1007ee103ab8eec77abdeec77a17eea0
:10267800103a934a92fbf3f303eb8303a34007ee6c
:10268800103ab8eec77a8f4b83ed007ab2ee047a2f
:1026980067ee877a93ed007af4eec77af1ee10fad6
:1026a80048bfc3ed007a884b609300248df88a41b7
:1026b8002346642260a98548006829f083f96420cc
:1026c8002df0eefb824b5d937e4ad2ed007afcee54
:1026d800e77a17ee903a8df87831d2ed007afcee71
:1026e800e77a17ee903ac3f307238df87931582328
:1026f8008df87a311b238df87b3110238df87c31ce
:1027080027238df87d3114258df87e518df87f4172
:10271800234664225da96f48006829f053f94ff4f5
:10272800fa702df0bdfb8df878518df87941c823ea
:102738008df87a318df87b418df87c518df87d418b
:1027480064258df87e518df87f41634b5d93234658
:102758002a465da95f48006829f034f94ff4fa70f9
:102768002df09efb02238df851318df88a3103f14b
:10277800af5303f54c23609323462a4660a9534878
:10278800006829f01ff94ff4fa702df089fb072033
:102798002bf098fa224669a9504b186829f032faaa
:1027a8009df8a4315b3bdbb2092b2ed99df8a431ef
:1027b800fa2b02d0fc2b00d07bb9494b00221a70af
:1027c800484b40f235121a80474b01221a700820f4
:1027d8002df0d2fe08202bf075fa00240694adf8ef
:1027e8001c408df820400223224608a93f48006873
:1027f80029f0e8f80223224606a93d48006829f096
:10280800e1f83c4b1c809c70e6e4354b13221a70af
:102818004ff47a702df044fb224b4ff40022c3f89a
:102828001421c3e700226aa9334b186829f0eaf992
:102838009df8a931312b1ed91a4bd3f8a03013f4c7
:10284800000f1dd101238df850318df888310c23ec
:102858008df851318df88a311b4b60930023642227
:1028680060a91a48006829f0adf864202df018fb1b
:102878001b4b14221a704ff47a702df011fbabe445
:10288800174b00221a70174b40f235121a80164b5c
:1028980001221a7007202df06ffe08202bf012fa83
:1028a800e9e700bf00800041000048430498012088
:1028b800089801203c990120909801206766666677
:1028c80070110100d497012002c0ec157098012006
:1028d80003c0ec155498012004c0ec15a098012001
:1028e800c599012082960120f99901205897012065
:1028f8005c970120d49901207c980120002266a9c8
:10290800814b186829f07ef99df898319df8992136
:1029180002eb03227d4981fb0232921007ee902ad6
:10292800f8eee77a7a4bc3ed007a9df89a219df884
:102938009b3103eb022381fb03239b1007ee103a24
:10294800b8eec77a734b83ed007a4ff08043469315
:10295800cded477a01238df820318df82131002300
:10296800642246a96c48006829f02cf86b4b18685b
:102978002af0b8f89df899318df884319df898318e
:102988008df88531664b60930023642260a9654801
:10299800006829f017f80a202df082fa09202bf098
:1029a80091f9002269a9604b186829f02bf90028d1
:1029b8003ff412ac9df8a431782b1ad09df8a431bd
:1029c800fa2b04d0fc2b02d0002b7ff405ac574b1c
:1029d8001e221a70564b4ff49b721a80554b0122d7
:1029e8001a7008202df0c8fd08202bf06bf9fff7ae
:1029f800f3bb514b1d682ef009ff4ef6602400947e
:102a080000230246012128462bf08eff4b4b1d6800
:102a18002ef0fcfe009400230246012128462bf0ec
:102a280083ff474b1d682ef0f1fe009400230246f9
:102a3800012128462bf078ff424b1d682ef0e6fe58
:102a4800009400230246012128462bf06dff3e4bdf
:102a58001d682ef0dbfe0094002302460121284663
:102a68002bf062ff394b1d682ef0d0fe0094002336
:102a78000246012128462bf057ff2c4b16221a70cc
:102a8800334b18782cf0b2fd64202df009fa314c44
:102a980020782cf0c7fd64202df002fa2e4d2888ee
:102aa8002cf0dcfd64202df0fbf92c4908782cf083
:102ab8000dfe64202df0f4f9294800782cf0eafd89
:102ac80064202df0edf9274a10782cf01bfe6420c5
:102ad8002df0e6f9244b1a68244b1a6029882378cc
:102ae8001b4a12781b0243ea0143134337931c48dd
:102af80001781a4b1b781b4a12781b0243ea0143e0
:102b0800134338935ae700bf9898012067666666b2
:102b1800a499012000990120049801200898012017
:102b280005c0ec1570980120a0980120c5990120d6
:102b380082960120f9990120a0970120e8980120a8
:102b48006c990120709901207499012078990120cd
:102b5800059a01201e9a01205a8d01201d9a0120f4
:102b68000e9a01202a9a0120c09701202c98012052
:102b7800002205a9be4b186829f044f828b1bd4abf
:102b88009df8143011880b441380bb4b186829f04a
:102b9800a9ff03202df082fcb64b18882cf07efc90
:102ba800b64b1b78072b00f0a381002266a9b44b13
:102bb800186829f027f8002800f0ee809df89a316f
:102bc8009df89b2102eb0322ae4981fb0232930858
:102bd80007ee103ab8ee477aab4b83ed007a9df8d2
:102be80098219df8993103eb022381fb03239b086d
:102bf80007ee903af8ee677aa44bc3ed007a67eed9
:102c0800276aa34bc3ed006aa24b1b78002b40f048
:102c18008880a14b1a68a14b1a6093ed006af4ee04
:102c2800c66af1ee10fa35d59d4b1b7833bbdfed44
:102c38009d6a77eea67acded477a984b93ed006ab8
:102c4800994bd3ed006ac6ee267ab4eee77af1ee38
:102c580010fac0f25281b5ee007a67ee877acdedb0
:102c6800467a03238df8213101238df82031022380
:102c7800002246a98d48006828f0a4fe884b1b78de
:102c8800dbb2012b00f04681854b1b78dbb2012bb0
:102c980000f08781814bd3ed007a7d4b93ed007a6c
:102ca800b4eee77af1ee10fa3bdd7d4b1b7863bb9f
:102cb800764bd3ed007a9fed7b7a77ee877acded70
:102cc800477a764bd3ed006a774b93ed007ac6eee0
:102cd800877a6d4b93ed007af4eec77af1ee10fa2d
:102ce80000f29e81b5ee007a67ee877acded467ade
:102cf80003238df8213101238df82031022300228e
:102d080046a96a48006828f05dfe654b1b78dbb26f
:102d1800012b00f09281624b1b78dbb2012b00f093
:102d2800d3815c4b1b78dbb2012b00f00c82604c2a
:102d3800227895005f4b2b445b49096819609df820
:102d48009a119df89b015c4b1d4400eb0123dff8b1
:102d580034c18cfb03c39b0807ee903af8ee677a00
:102d6800c5ed007a013222709df899318df88431d1
:102d78009df898318df885318df886018df8871189
:102d88004e4b60930023642260a94d48006828f0e8
:102d980019fe32202df084f8002263a9494b1868e7
:102da80028f030ffa0b1484a13789df88e014749b2
:102db800c854062188f80010013313702f4b1b7874
:102dc800042b40f2ac822d4b1b78052b00f0b2820d
:102dd800374b1b78052b00f0b5823b4b1b78052b36
:102de80000f008833a4b1b78dbb2012b00f02083fc
:102df800374b1b78dbb2012b00f029839df8a431f7
:102e0800292b03d0fa2b01d0fc2b12d1314b1e22d7
:102e18001a70092388f800302f4bca221a802f4bca
:102e280001221a700a202df0a7fb2d4b1a682d4b92
:102e38001a609df88c31012b00f01f832a4b1b78f8
:102e4800012b7ff4c9a9284b9b78012b7ff4c4a9d7
:102e5800204b1e221a70092388f80030224b0022ca
:102e68001a809a701e4b1a681e4b1a603ee000bf0b
:102e7800889701209293012074970120139a0120ca
:102e8800989801206766666600990120a499012038
:102e980060990120f0990120689a0120f09701209b
:102ea800ea990120000000006c9a01200498012092
:102eb800189a01209c9401207494012005c0ec15f7
:102ec8007098012094980120109a01207c96012086
:102ed800e5990120c599012082960120f9990120e0
:102ee800c097012034980120d4990120fff774b9c4
:102ef800cc4b18782df08cf957e6b4eee77af1ee62
:102f080010fa7ff5aeaef5ee007a27ee277a8ded52
:102f1800467aa6e6c44b1b78dbb2112b7ff6b4ae1b
:102f2800c24b4ff40012c3f81821c14bd3ed007afd
:102f38009fedc07a77ee877acded477abe4bd3ed19
:102f4800007ab6ee007a67ee877abc4bd3ed006a5a
:102f580087eea67aba4bd3ed007ab4eee77af1eeb3
:102f680010fa12d8f6ee007a27ee277a8ded467a17
:102f780001238df821318df820310223002246a942
:102f8800b048006828f01efd84e6b4eee77af1ee5a
:102f980010faedddb6ee007a67ee877acded467a67
:102fa800e6e7a14b1b78dbb2112b3ff673aea04bc3
:102fb800d3ed007a9fed9f7a77ee877acded477a49
:102fc8009d4bd3ed006a9d4bd3ed007a86eea77a30
:102fd8009b4bd3ed007ab4eee77af1ee10fa13d8f2
:102fe800f5ee007a27ee277a8ded467a03238df8e1
:102ff800213101238df820310223002246a991486e
:10300800006828f0dffc45e6b4eee77af1ee10fa46
:10301800ecddb5ee007a67ee877acded467ae5e726
:10302800f4eec77af1ee10fa7ff762aef5ee007aa9
:1030380027ee277a8ded467a5ae67b4b1b78dbb272
:10304800112b7ff668ae794b4ff40012c3f81821a4
:10305800774bd3ed007a9fed777a77ee877acdedcf
:10306800477a754bd3ed007ab6ee007a67ee877a29
:10307800724bd3ed006a87eea67a714bd3ed007ad6
:10308800b4eee77af1ee10fa12d8f6ee007a27eeef
:10309800277a8ded467a01238df821318df820317c
:1030a8000223002246a96748006828f08bfc38e60e
:1030b800b4eee77af1ee10faedddb6ee007a67eedf
:1030c800877acded467ae6e7574b1b78dbb2112bb2
:1030d8003ff627ae564bd3ed007a9fed567a77ee42
:1030e800877acded477a544bd3ed006a534bd3ed35
:1030f800007a86eea77a524bd3ed007ab4eee77adf
:10310800f1ee10fa13d8f5ee007a27ee277a8ded56
:10311800467a03238df8213101238df820310223cb
:10312800002246a94748006828f04cfcf9e5b4eeaf
:10313800e77af1ee10faecddb5ee007a67ee877a01
:10314800cded467ae5e7404b1b785bbb384bd3edba
:10315800007a9fed387a77ee877acded477a3b4b48
:10316800d3ed006a354b93ed007ac6ee877a344b7f
:1031780093ed007af4eec77af1ee10fa68d8b5ee5e
:10318800007a67ee877acded467a03238df82131f0
:1031980001238df820310223002246a9294800681e
:1031a80028f010fc284b1b78dbb2012b5cd0264b97
:1031b8001b78dbb2012b7ff4baad1b4b1b78dbb25b
:1031c800112b3ff6b4ad1a4bd3ed007a9fed197a67
:1031d80077ee877acded477a1c4bd3ed006a174b13
:1031e800d3ed007a86eea77a154bd3ed007ab4eecc
:1031f800e77af1ee10fa00f28580f5ee007a27ee14
:10320800277a8ded467a03238df8213101238df835
:1032180020310223002246a90a48006828f0d2fb80
:1032280085e500bfd7990120c99901200080004198
:10323800a499012000000000f09701206c9a012059
:103248000099012004980120ea990120f4970120af
:10325800f4eec77af1ee10fa97ddf5ee007a27ee74
:10326800277a8ded467a90e78d4b1b78dbb2112bd0
:103278009dd98c4b4ff40012c3f818218a4b93ed5b
:10328800007adfed8a7ab4eee77af1ee10fac8bf79
:10329800c3ed007a864bd3ed007a9fed867a77ee00
:1032a800877acded477a804bd3ed006a824bd3ed18
:1032b800007a86eea77a814bd3ed007ab4eee77aee
:1032c800f1ee10fa12d8f6ee007a27ee277a8ded95
:1032d800467a01238df821318df82031022300220e
:1032e80046a97748006828f06dfb20e5b4eee77a38
:1032f800f1ee10faedddb6ee007a67ee877acdede5
:10330800467ae6e7b4eee77af1ee10fa7ff77baf9c
:10331800b5ee007a67ee877acded467a73e72cf042
:1033280077ff684a1378013313709df88e21664b36
:103338001a7048e59df88e318af80030614b0722f3
:103348001a7045e54ff0000c604b83f800c0b9f8df
:103358000010bbf800005e4b5e4a03f1140ecdf876
:103368000cc01d461446029101e0734525d0f3eccc
:10337800017a95ed007ab4eee77af1ee10fa09d801
:10338800c5ed007afceee77a17ee901a89b2029141
:103398004ff0010cf2ec017a94ed007ab4eee77a82
:1033a800f1ee10fae1d8c4ed007afceee77a17eef8
:1033b800901a88b201210391d7e70299bcf1000f56
:1033c80001d0a9f80010039b0bb1abf80000404beb
:1033d800d3ed007afceee77a17ee900a2cf096f817
:1033e8003c4bd3ed007afceee77a17ee900a2cf00e
:1033f80071f8f2e40024384b1c7096f800c0374b83
:103408005d1d18464ff0010e01e09d4208d013f8eb
:10341800012b01789142f8d8027094467446f4e77b
:103428000cb186f800c02d4b18782cf0d9fed9e4e1
:103438002b4b1b78002b7ff4dbac00228df824206b
:10344800022309a92748006828f0bcfad0e4244bd5
:103458001b78dbb2012b7ff4d1ac114b1b78dbb2ac
:10346800132b7ff6cbac00228df82420022309a968
:103478001c48006828f0a6fac0e41b4b1e221a70ec
:10348800092088f80000194bc9221a80184b01221c
:103498001a702df071f8174b1a68174b1a60cde4a3
:1034a800c999012000800041f497012000b808471d
:1034b800a4990120000000006c9a012000990120c5
:1034c80004980120139a0120d7990120189a012005
:1034d800749401209c940120109a01207c9601206c
:1034e800ea99012068970120c59901208296012058
:1034f800f9990120c097012034980120a34b1b782b
:10350800dbb2012b00f00181a04b1b78dbb2012b51
:1035180000f011814ff003038df84f318df885319c
:103528009b4b60939b4d0023642260a9286828f078
:1035380049fa32202cf0b4fc00248df884418df82f
:103548008541954a60922346642260a9286828f03c
:1035580039fa32202cf0a4fc90494ff40020c1f82d
:1035680018018f4b1b688f480360884b1c708df8bf
:10357800204101238df821310223224646a98a4899
:10358800006828f01ffa40f6b8302cf089fc4ff09c
:10359800030c8df885c17e4b6093234664220df59c
:1035a800c07c6146286828f00dfa32202cf078fc9f
:1035b8008df884418df88541774a609223466422cc
:1035c8000df5c07c6146286828f0fcf932202cf003
:1035d80067fc72494ff40023c1f818310a2300939d
:1035e800234622460321714800682bf09df9704b51
:1035f80018782cf0a3f86f4b18782cf0bbf86e4baa
:1036080018882cf0d3f86d4b18782cf007f96c4b10
:1036180018782cf0e7f86b4b18782cf01bf96a4bec
:1036280018682cf04ff95f48d0ed007afceee77a85
:10363800664b93ed007abceec77a17ee100a17eec8
:10364800903a181a624b18602cf020f9614b1b78dd
:10365800dbb2012b00f085805e4b1b78dbb2022bbe
:1036680000f083805b4b1b78dbb2032b00f081807a
:10367800594b0c221a7005202cf010ff524b1b6876
:1036880036934d4b19884b4b1b78494a12781b02cd
:1036980043ea014313433993494b1978474b1b7845
:1036a800484a12781b0243ea014313433a934b4baf
:1036b8001a78337843ea02433b93454b1b6843f43b
:1036c80080333c93434b1a78454c238843ea0243a2
:1036d8003d9302238df8d0300023642234a9414859
:1036e800006828f06ff9404b186829f0fbf90123ae
:1036f8003b60002222803d4a13703d4a13703d4ac8
:1037080013703d4a1370fef767bd3c4b1b78002bc6
:103718007ff4faae00228df8202103238df82131a1
:10372800022346a92048006828f04cf940f6b83032
:103738002cf0b6fbe8e6314b1b78dbb2012b7ff4ab
:10374800e9ae00228df820218df82131022346a907
:103758001548006828f036f940f6b8302cf0a0fb80
:10376800d8e601202cf008ff76e702202cf004ffb1
:1037780078e703202cf000ff7ae79df8a431fa2bb4
:103788007ef401ae1e4a1268fef704bee5990120d8
:1037980002c0ec157098012005c0ec1500800041ae
:1037a800c09701203498012004980120a097012097
:1037b800059a01201e9a01205a8d01201d9a012088
:1037c8000e9a01202a9a0120fc9601202c980120ab
:1037d80024970120f89901207b9a0120d79901208c
:1037e800929301208097012084970120d999012084
:1037f800e4990120e3990120e2990120ea99012046
:0438080034990120ce
:020000040000fa
:10380c00949301201c00000000000000449501204e
:10381c000800000000000000b09301201c00000014
:10382c0000000000c4940120100000000000000003
:10383c004c9501201800000000000000cc930120e2
:10384c001c00000000000000d494012010000000b7
:10385c000000000064950120100000000000000032
:10386c00f08b0120c000000000000000ce99012068
:10387c000200000000000000d09201202c0000008b
:10388c0000000000e0910120f000000000000000aa
:10389c00509a01200400000001000000aaaaaaaa64
:1038ac008c96012004000000000000009001002014
:1038bc00608a0100000000009096012010000000ba
:1038cc0000000000749501200800000000000000ba
:1038dc00a09601200800000000000000e8930120e1
:1038ec002800000000000000a8960120180000002d
:1038fc0000000000e08f01206400000000000000c8
:10390c00c09601201400000000000000109401205b
:10391c002800000000000000d496012010000000d8
:10392c00000000003894012014000000000000008a
:10393c00e496012004000000000000004c940120db
:10394c002800000000000000e8960120080000009c
:10395c0000000000549a0120040000000100000047
:10396c000400000000000020900100000000000096
:10397c00f096012014000000000000009790012038
:10398c000100000000000000c399012001000000ac
:10399c00000000000497012004000000000000005b
:1039ac00d3990120010000000000000008970120bd
:1039bc0004000000000000008196012001000000be
:1039cc00000000000c9701200c000000000000001b
:1039dc00899601200100000000000000bd99012023
:1039ec000100000000000000c5990120010000004a
:1039fc0000000000c9990120010000000000000037
:103a0c00189701201400000000000000da99012032
:103a1c00020000000000000074940120140000005b
:103a2c0000000000dc9901200200000000000000f2
:103a3c00889401201400000000000000de99012091
:103a4c0002000000000000009c9401201400000003
:103a5c0000000000e09901200200000000000000be
:103a6c00b094012014000000000000002c970120ed
:103a7c0004000000000000002c9101204000000018
:103a8c0000000000fc92012050000000000000002b
:103a9c00088e0120a40000000000000030970120d7
:103aac000800000000000000d8990120010000006f
:103abc0000000000389701203c00000000000000ce
:103acc00068e01200200000000000000aa910120d7
:103adc000200000000000000de9101200200000046
:103aec00000000007497012004000000000000009a
:103afc00d79901200100000000000000cd990120a1
:103b0c000100000000000000789701201000000068
:103b1c0000000000d9990120010000000000000005
:103b2c00e2990120030000000000000092930120a4
:103b3c000200000000000000889701200400000033
:103b4c0000000000e59901200100000000000000c9
:103b5c008c9701200800000000000000e69901206d
:103b6c00040000000000000042950120020000004b
:103b7c0000000000949701200400000000000000e9
:103b8c00ea99012001000000000000009897012034
:103b9c000800000000000000eb990120010000006b
:103bac0000000000ec990120010000000000000062
:103bbc00a09701203000000000000000ed990120ca
:103bcc000300000000000000d09701200c00000052
:103bdc000000000044900120530000000000000091
:103bec00dc9701203800000000000000ac9101209f
:103bfc0032000000000000001498012014000000a6
:103c0c0000000000f09901200200000000000000fc
:103c1c00289801200400000000000000f299012007
:103c2c0003000000000000007c960120050000004d
:103c3c0000000000f59901200100000000000000c8
:103c4c008496012005000000000000002c98012043
:103c5c000800000000000000f6990120020000009e
:103c6c0000000000d49901200300000000000000b7
:103c7c00d0990120030000000000000034980120be
:103c8c000800000000000000f8990120010000006d
:103c9c0000000000389501200a0000000000000020
:103cac00829601200200000000000000f99901201a
:103cbc0001000000000000003c98012004000000fe
:103ccc0000000000fa990120010000000000000033
:103cdc008a9601200200000000000000be9901201d
:103cec000200000000000000c69901200200000044
:103cfc00000000007c95012068000000000000001e
:103d0c00409801202000000000000000e4950120f4
:103d1c006800000000000000609801208000000096
:103d2c00000000004c960120300000000000000054
:103d3c00fb9901200100000000000000e098012028
:103d4c000400000000000000fc99012002000000ab
:103d5c0000000000e49801200400000000000000b6
:103d6c00fe9901200100000000000000e8980120ed
:103d7c0004000000000000006c9101203e000000d7
:103d8c0000000000ca9901200200000000000000a1
:103d9c00ff9901200100000000000000ec980120b8
:103dac000400000000000000009a01200300000045
:103dbc0000000000f0980120080000000000000046
:103dcc00039a01200200000000000000f898012076
:103ddc001000000000000000059a01200200000005
:103dec000000000008990120040000000000000001
:103dfc00079a012001000000000000000c9901202e
:103e0c000800000000000000b08c0120aa00000097
:103e1c0000000000149901200400000000000000c4
:103e2c00089a01200300000000000000cc9901203a
:103e3c0001000000000000000b9a012001000000ae
:103e4c000000000018990120040000000000000090
:103e5c00e890012044000000000000001c990120a3
:103e6c000c000000000000000c9a01200200000071
:103e7c0000000000c89901200100000000000000b3
:103e8c00c4990120010000000000000028990120c5
:103e9c0008000000000000000e9a01200500000040
:103eac000000000030990120040000000000000018
:103ebc00139a012005000000000000003499012035
:103ecc001000000000000000189a01200200000001
:103edc0000000000449901200400000000000000d4
:103eec001a9a0120030000000000000048990120ec
:103efc0008000000000000005c8d0120aa000000fa
:103f0c000000000050990120040000000000000097
:103f1c001d9a0120010000000000000054990120ae
:103f2c0004000000000000001e9a012001000000a7
:103f3c0000000000c09901200300000000000000f8
:103f4c001f9a012004000000000000005899012075
:103f5c000400000000000000239a01200200000071
:103f6c00000000005c9901200c0000000000000023
:103f7c00259a012001000000000000006899012032
:103f8c000400000000000000269a0120010000003f
:103f9c00000000006c9901200400000000000000eb
:103fac00279a0120010000000000000070990120f8
:103fbc000400000000000000289a0120010000000d
:103fcc0000000000749901200400000000000000b3
:103fdc00299a0120010000000000000078990120be
:103fec000800000000000000bc9901200100000046
:103ffc0000000000809901200c000000000000006f
:10400c008c9901200c00000000000000ac8e0120f7
:10401c00a000000000000000e4940120100000004b
:10402c00000000002a9a012001000000000000009e
:10403c001495012024000000000000009899012034
:10404c0004000000000000002b9a01200200000078
:10405c00000000009c9901200400000000000000fa
:10406c00f494012010000000000000004c8f01208f
:10407c009400000000000000a09901200c0000003a
:10408c00000000005a8d012002000000000000001a
:10409c004e9a012002000000010000000401000003
:1040ac002e9a01202000000001000000b4005aa547
:1040bc001b82524068747470733a2f2f7777772e67
:1040cc007374617469712e696e2fffff2d9a012034
:1040dc0001000000010000000c0000007a9a012091
:1040ec0005000000010000000c030f50140000003c
:1040fc00589a012004000000010000000000803fdd
:10410c007f9a012002000000010000000101000064
:10411c005c9a01200400000001000000cdcccc3fd3
:10412c00609a01200c00000001000000000000401b
:10413c000000004000b88847789a01200200000077
:10414c0001000000af4a00006c9a0120080000003a
:10415c00010000000000484300004843749a01200d
:10416c00040000000100000000004843ac9901204d
:10417c000400000000000000049501201000000065
:10418c00000000004c9301204600000000000000dd
:10419c00b09901200400000000000000989001205c
:1041ac005000000000000000b4990120080000003d
:1041bc00000000000000000000000000666666665b
:1041cc006666666666666666666666666666666683
:0c41dc006666666666666666666666660f
:020000040000fa
:104f5c002de9f04f87b0a74c00230193a64fa74b28
:104f6c0003f13c050123009300f0aebfa44b1a687b
:104f7c00a2490a601b68cbb1a24b1b785bb12268bb
:104f8c009f4b53f82230002b40f0a3809d4b4ff0e9
:104f9c0000021a709de09b4b4ff001021a70984b67
:104fac001b6833804ff47a602af078ff2268944ba8
:104fbc0053f82230002b40f08c80924b1b78002b46
:104fcc0000f08780e2e78e4b5a688c494a605b6838
:104fdc00c3b18c4b5b7853b12268894b53f82230a8
:104fec00002b76d1874b4ff000025a7071e0854b45
:104ffc004ff001025a70824b5b6833804ff47a6039
:10500c002af04cff22687e4b53f82230002b60d1e3
:10501c007c4b5b78002b5cd0e4e7794b9a68774942
:10502c008a609b68c3b1774b9b7853b12268744bf1
:10503c0053f82230002b4cd1724b4ff000029a7077
:10504c0047e0704b4ff001029a706d4b9b683380b8
:10505c004ff47a602af022ff2268694b53f8223011
:10506c00002b36d1674b9b78002b32d0e4e7644b96
:10507c00da686249ca60db68bbb1624bdb784bb162
:10508c0022685f4b53f822301bbb5e4b4ff0000283
:10509c00da701ee05b4b4ff00102da70584bdb68a4
:1050ac0033804ff47a602af0f9fe2268544b53f89f
:1050bc00223073b9534bdb785bb1e6e7504bd3f836
:1050cc008430012b64d04e4bd3f88430022b00f08b
:1050dc009f803388adf80c30b8f80030adf80e3046
:1050ec00b9f80030adf81030baf80030adf8123025
:1050fc003b88adf81430bbf80030adf81630022305
:10510c00002203a94048006826f05afc23680133aa
:10511c0023601f2b00f325861a2bdad801a252f834
:10512c0023f000bf794f0000d34f00002750000040
:10513c007b500000c9500000df5000008752000077
:10514c00e15200003b53000095530000ef53000068
:10515c0049540000b554000011550000df50000008
:10516c006b5500004d5600004157000023580000bd
:10517c00f1580000d3590000a35a0000735b0000e3
:10518c00df500000d15b0000b75c0000135d000035
:10519c001b4b19691d4a11601b69e3b1194b93f83c
:1051ac002c305bb12268164b53f82230002b8ad17d
:1051bc00144b4ff0000283f82c2084e7114b4ff076
:1051cc00010283f82c200e4b1b69a8f800304ff419
:1051dc007a602af063fe2268094b53f82230002bc8
:1051ec007ff471af074b93f82c30002b3ff46baf6f
:1051fc00dee700bf30990120be9901202c910120df
:10520c00088e01206c91012048970120fc9201200e
:10521c002368954a52f823009449086052f82320d9
:10522c00eab1934a92f82d205ab18f4a52f82330a2
:10523c00002b7ff44eaf8e4b4ff0000283f82d20e5
:10524c0047e78b4a4ff0010182f82d10864a52f83d
:10525c002330a9f800304ff47a602af01ffe226840
:10526c00814b53f82230002b7ff433af804b93f8f3
:10527c002d30002b3ff42dafdde77b4b9a697d4938
:10528c000a619b69cbb17a4b9b795bb12268764bf7
:10529c0053f82230002b7ff41caf754b4ff00002fb
:1052ac009a7116e7724b4ff001029a716e4b9b6923
:1052bc0033804ff47a602af0f1fd22686a4b53f880
:1052cc002230002b7ff405af694b9b79002b3ff408
:1052dc0000afe2e7644bda6966494a61db69cbb13e
:1052ec00634bdb795bb122685f4b53f82230002ba8
:1052fc007ff4efae5e4b4ff00002da71e9e65c4be7
:10530c004ff00102da71584bdb6933804ff47a604d
:10531c002af0c4fd2268544b53f82230002b7ff442
:10532c00d8ae534bdb79002b3ff4d3aee2e74e4bb8
:10533c001a6a50498a611b6acbb14d4b1b7a5bb11f
:10534c002268494b53f82230002b7ff4c2ae484bf5
:10535c004ff000021a72bce6454b4ff001021a7274
:10536c00414b1b6a33804ff47a602af097fd226818
:10537c003d4b53f82230002b7ff4abae3c4b1b7ae9
:10538c00002b3ff4a6aee2e7374b5a6a3949ca61a3
:10539c005b6acbb1364b5b7a5bb12268324b53f80c
:1053ac002230002b7ff495ae314b4ff000025a7235
:1053bc008fe62d4b5b6a33802d4b4ff001025a72f6
:1053cc004ff47a602af06afd2268274b53f822309a
:1053dc00002b7ff47eae264b5b7a002b3ff479ae2c
:1053ec00e2e7214b9a6a23490a629b6acbb1204bb4
:1053fc009b7a5bb122681c4b53f82230002b7ff454
:10540c0068ae1b4b4ff000029a7262e6184b4ff0dd
:10541c0001029a72144b9b6a33804ff47a602af023
:10542c003dfd2268104b53f82230002b7ff451ae17
:10543c000f4b9b7a002b3ff44caee2e70a4bda6a37
:10544c000c494a62db6a13b3094bdb7aa3b12268bd
:10545c00054b53f82230002b7ff43bae044b4ff03e
:10546c000002da7235e600bf088e01202493012079
:10547c006c9101202c9101209b4b4ff00102da72b0
:10548c009a4bdb6a33804ff47a602af007fd22686e
:10549c00964b53f82230002b7ff41bae924bdb7ae9
:1054ac00002b3ff416aed9e7904b1a6b90498a62e9
:1054bc001b6bd3b18c4b1b7b5bb122688b4b53f8b2
:1054cc002230002b7ff405ae874b4ff000021a738d
:1054dc00ffe5854b4ff001021a73844b1b6baaf846
:1054ec0000304ff47a602af0d9fc22687f4b53f8d5
:1054fc002230002b7ff4edad7b4b1b7b002b3ff45c
:10550c00e8ade1e7794b5a6b7949ca625b6bcbb179
:10551c00754b5b7b5bb12268744b53f82230002bcc
:10552c007ff4d7ad704b4ff000025a73d1e56e4b40
:10553c004ff001025a736d4b5b6b33804ff47a6002
:10554c002af0acfc2268694b53f82230002b7ff414
:10555c00c0ad654b5b7b002b3ff4bbade2e7634b0f
:10556c00d3f88830012b20d0604bd3f88830022b35
:10557c007ff4afad23685d4a52f823005d49886023
:10558c0052f82320002a4dd0574a92f82f20002a97
:10559c003ad0564a52f82330002b7ff49aad524b36
:1055ac004ff0000283f82f2093e5504bd96b524af1
:1055bc009160db6be3b14c4b93f82e305bb12268fe
:1055cc004a4b53f82230002bced1474b4ff0000200
:1055dc0083f82e20c8e7444b4ff0010283f82e20ad
:1055ec00424bdb6ba8f800304ff47a602af056fc83
:1055fc0022683e4b53f82230002bb5d13a4b93f82e
:10560c002e30002bb0d0e0e7374a4ff0010182f882
:10561c002f10364a52f82330a9f800304ff47a6034
:10562c002af03cfc2268314b53f82230002b7ff4db
:10563c0050ad2d4b93f82f30002b3ff44aadaee715
:10564c002a4bd3f8a430012b20d0284bd3f8a4300c
:10565c00022b7ff43ead2368244a52f823002549df
:10566c00c86052f82320002a56d01f4a92f83120e5
:10567c00002a43d01d4a52f82330002b7ff429ad69
:10568c00194b4ff0000283f8312022e5174b196caf
:10569c00194ad1601b6cdbb1134b93f830305bb102
:1056ac002268124b53f82230002bced10e4b4ff008
:1056bc00000283f83020c8e70b4b4ff0010283f84f
:1056cc0030200a4b1b6c3b804ff47a602af0e6fbcf
:1056dc002268064b53f82230002bb6d1024b93f8bc
:1056ec003030002bb1d0e1e76c910120088e012005
:1056fc002c91012024930120fc920120a24a4ff00e
:10570c00010182f83110a14a52f82330abf8003075
:10571c004ff47a602af0c2fb22689c4b53f822307b
:10572c00002b7ff4d6ac984b93f83130002b3ff420
:10573c00d0aca5e7954bd3f89c30012b20d0934be4
:10574c00d3f89c30022b7ff4c4ac23688f4a52f8f8
:10575c0023008f49086152f82320002a4dd08a4a31
:10576c0092f83320002a3ad0884a52f82330002b82
:10577c007ff4afac844b4ff0000283f83320a8e4e5
:10578c00824b596c834a11615b6ce3b17e4b93f88d
:10579c0032305bb122687d4b53f82230002bced1d6
:1057ac00794b4ff0000283f83220c8e7764b4ff06c
:1057bc00010283f83220754b5b6ca8f800304ff473
:1057cc007a602af06bfb2268704b53f82230002b66
:1057dc00b5d16d4b93f83230002bb0d0e0e76a4a6c
:1057ec004ff0010182f83310684a52f82330a9f8bf
:1057fc0000304ff47a602af051fb2268634b53f867
:10580c002230002b7ff465ac5f4b93f83330002bc8
:10581c003ff45facaee75d4bd3f89c30012b20d04e
:10582c005a4bd3f89c30022b7ff453ac2368574a65
:10583c0052f823005649486152f82320002a43d0dd
:10584c00514a92f83520002a35d0504a52f823306c
:10585c00002b7ff43eac4c4b4ff0000283f835200c
:10586c0037e44a4b996c4b4a51619b6cbbb1464b2c
:10587c0093f834305bb12268444b53f82230002b40
:10588c00ced1414b4ff0000283f83420c8e73f4b98
:10589c009b6ca8f800304ff47a602af0fffa22686b
:1058ac003a4b53f82230002bbad1374b93f83430a3
:1058bc00002bb5d0e5e7354a52f82330a9f8003073
:1058cc004ff47a602af0eafa2268304b53f822300f
:1058dc00002b7ff4feab2c4b93f83530002b3ff4b0
:1058ec00f8abb8e7294bd3f89030012b21d0274bdc
:1058fc00d3f89030022b7ff4ecab2368234a52f898
:10590c0023002349886152f82320002a4dd01e4ad7
:10591c0092f83720002a3fd01c4a52f82330002b33
:10592c007ff4d7ab184b4ff0000283f83720fff70a
:10593c00d0bb164bd96c174a9161db6cbbb1124bc7
:10594c0093f836305bb12268104b53f82230002ba1
:10595c00cdd10d4b4ff0000283f83620c7e70b4b2f
:10596c00db6ca8f800304ff47a602af097fa2268c2
:10597c00064b53f82230002bb9d1034b93f8363039
:10598c00002bb4d0e5e700bf6c910120088e0120fc
:10599c0024930120fc920120a94a52f82330a9f843
:1059ac0000304ff47a602af079fa2268a44b53f84d
:1059bc002230002b7ff48daba24b93f83730002ba9
:1059cc003ff487abaee79e4bd3f89430012b21d03c
:1059dc009b4bd3f89430022b7ff47bab2368984a13
:1059ec0052f823009849c86152f82320002a44d069
:1059fc00944a92f83920002a36d0914a52f8233032
:105a0c00002b7ff466ab8f4b4ff0000283f83920ec
:105a1c00fff75fbb8a4b196d8c4ad1611b6dbbb113
:105a2c00884b93f838305bb12268854b53f82230a1
:105a3c00002bcdd1834b4ff0000283f83820c7e701
:105a4c007f4b1b6da8f800304ff47a602af026fad1
:105a5c0022687b4b53f82230002bb9d1794b93f849
:105a6c003830002bb4d0e5e7754a52f82330a9f84a
:105a7c0000304ff47a602af011fa2268704b53f818
:105a8c002230002b7ff425ab6e4b93f83930002b72
:105a9c003ff41fabb7e76a4bd3f89830012b21d0fa
:105aac00674bd3f89830022b7ff413ab2368644a0e
:105abc0052f823006449086252f82320002a44d08b
:105acc00604a92f83b20002a36d05d4a52f82330c7
:105adc00002b7ff4feaa5b4b4ff0000283f83b20b7
:105aec00fff7f7ba564b596d584a11625b6dbbb153
:105afc00544b93f83a305bb12268514b53f8223037
:105b0c00002bcdd14f4b4ff0000283f83a20c7e762
:105b1c004b4b5b6da8f800304ff47a602af0bef95d
:105b2c002268474b53f82230002bb9d1454b93f8e0
:105b3c003a30002bb4d0e5e7414a52f82330a9f8ab
:105b4c0000304ff47a602af0a9f922683c4b53f8e4
:105b5c002230002b7ff4bdaa3a4b93f83b30002b3c
:105b6c003ff4b7aab7e7364b9a6d39490a639b6d78
:105b7c00dbb1344b9b7d63b12268314b53f822303f
:105b8c00002b7ff4a6aa2f4b4ff000029a75fff75b
:105b9c00a0ba2c4b4ff001029a75294b9b6daaf8b9
:105bac0000304ff47a602af079f92268244b53f8cc
:105bbc002230002b7ff48daa224b9b7d002b3ff4cf
:105bcc0088aae0e71e4bd3f88c30012b21d01c4b5c
:105bdc00d3f88c30022b7ff47caa2368184a52f835
:105bec0023001949486252f82320002a4fd0154a45
:105bfc0092f83d20002a41d0114a52f82330002b54
:105c0c007ff467aa0f4b4ff0000283f83d20fff79b
:105c1c0060ba0b4b196e0d4a51621b6e13b3094bd4
:105c2c0093f83c30b3b12268054b53f82230002b6b
:105c3c00cdd1044b4ff0000283f83c20c7e700bfe6
:105c4c00088e01206c91012024930120fc920120ec
:105c5c002c910120a34b1b6ea8f800304ff47a60f6
:105c6c002af01cf922689f4b53f82230002baed13e
:105c7c009d4b93f83c30002ba9d0dae7994a52f8a7
:105c8c002330a9f800304ff47a602af007f9226823
:105c9c00944b53f82230002b7ff41baa924b93f8b1
:105cac003d30002b3ff415aaace78e4b5a6e8f4952
:105cbc004a635b6ed3b18c4b5b7e63b12268894bbc
:105ccc0053f82230002b7ff404aa874b4ff00002cc
:105cdc005a76fff7feb9844b4ff001025a76814b8e
:105cec005b6e33804ff47a602af0d8f822687d4bd3
:105cfc0053f82230002b7ff4eca97b4b5b7e002bfe
:105d0c003ff4e7a9e1e7774b9a6e78498a639b6e7b
:105d1c00d3b1754b9b7e63b12268724b53f8223022
:105d2c00002b7ff4d6a9704b4ff000029a76fff748
:105d3c00d0b96d4b4ff001029a766a4b9b6e338053
:105d4c004ff47a602af0aaf82268664b53f8223096
:105d5c00002b7ff4bea9644b9b7e002b3ff4b9a9aa
:105d6c00e1e7634b1a78614b043b002001e0ab4246
:105d7c0007d053f8041f0029f9d00132d2b2009891
:105d8c00f5e708b15a4b1a70594b1b7853b1584b65
:105d9c004ff000021a70574b1a78574b03f128003a
:105dac00002622e0554b4ff000021a80544b1a800b
:105dbc00adf80c20534b1b88adf80e30524b1b88a2
:105dcc00adf81030adf812203b88adf814304f4bc5
:105ddc001b88adf816300223019a03a94c480068c1
:105dec0025f0eefdd7e7834207d053f8041b0029ba
:105dfc00f9d00132d2b2009ef5e70eb13d4b1a70cc
:105e0c003c4b1b7853b13b4b4ff000021a70414b8b
:105e1c001a78414b03f12800002622e0394b4ff051
:105e2c0000021a803a80354b1b88adf80c30adf867
:105e3c000e20354b1b88adf81030314b1b88adf85c
:105e4c001230adf81420314b1b88adf816300223fc
:105e5c00019a03a92e48006825f0b2fdd7e78342ca
:105e6c0007d053f8041b0029f9d00132d2b2009e9e
:105e7c00f5e70eb1274b1a70264b1b78002b4dd132
:105e8c00214b4ff000021a80204b1a801b4b1b88b1
:105e9c00adf80c301b4b1b88adf80e30adf8102054
:105eac00174b1b88adf812303b88adf81430adf8a9
:105ebc0016200223019a03a91548006825f080fddd
:105ecc004ff47a7029f0eaff019b23600b4edff848
:105edc003890dff83080dff828a0dff830b0fff71b
:105eec001bb900bf088e01206c9101202c91012060
:105efc00089a0120099a0120fc920120068e0120ab
:105f0c008a960120aa910120de910120c6990120d8
:105f1c00489701200a9a012024930120024b4ff04c
:0c5f2c0000021a70cce700bf0a9a0120a6
:020000040000fa
:105f380038b50446d4485a230370a5234370072371
:105f480083708223c3701423037102234371d4f82e
:105f580000311a0e82711a0cc2711a0a0272437247
:105f6800ca4b4ff400229a610a2127f0e5fb2bf077
:105f7800b3fb0028fbd0c54b4ff400225a61c2483e
:105f88005a210170a5214170052181708221c170bb
:105f9800142101710621417100218171b4f81e118b
:105fa800c1719a61082127f0c7fb2bf095fb0028e7
:105fb800fbd0b64b4ff400225a61b3485a21017006
:105fc800a5214170052181708221c17014210171c0
:105fd8000821417100258571d4f80451c5719a6171
:105fe80027f0aafb2bf078fb0028fbd0a74a4ff438
:105ff80000215161a4485a230370a5234370052347
:1060080083708223c370142303710a23437100230e
:106018008371d4f804311b0ac3719161082127f0f8
:106028008bfb2bf059fb0028fbd0984b4ff4002238
:106038005a6195485a210170a52141700521817046
:106048008221c170142101710c21417100218171db
:10605800b4f80611c1719a61082127f06dfb2bf085
:106068003bfb0028fbd0894b4ff400225a6186483d
:106078005a210170a5214170052181708221c170ca
:10608800142101710e21417100218171b4f80e11a2
:10609800c1719a61082127f04ffb2bf01dfb0028e6
:1060a800fbd07a4a4ff40021516177485a23037094
:1060b800a5234370052383708223c37014230371bf
:1060c8001023437100238371d4f80c311b0ac37168
:1060d8009161082127f030fb2bf0fefa0028fbd055
:1060e8006a4b4ff400225a6167485a210170a52172
:1060f8004170052181708221c17014210171122122
:10610800417100218171d4f80c11c1719a61082183
:1061180027f012fb2bf0e0fa0028fbd05b4a4ff483
:106128000021516158485a230370a523437007235f
:1061380083708223c3701423037116234371d4f828
:1061480020311d0e85711d0cc5711d0a0572437223
:1061580091610a2127f0f0fa2bf0befa0028fbd053
:106168004a4b4ff400225a6147485a210170a52131
:106178004170052181708221c170142101711a2199
:10618800417100218171b4f83e11c1719a610821f1
:1061980027f0d2fa2bf0a0fa0028fbd03b4b4ff4a3
:1061a80000225a6138485a210170a5214170052101
:1061b80081708221c170142101711c21417100215b
:1061c8008171d4f82411c1719a61082127f0b4fab9
:1061d8002bf082fa0028fbd02c4a4ff400215161a1
:1061e80029485a230370a52343700523837082230b
:1061f800c370142303711e23437100238371d4f8e1
:1062080024311b0ac3719161082127f095fa2bf0fc
:1062180063fa0028fbd01d4b4ff400225a611a483c
:106228005a210170a5214170052181708221c17018
:10623800142101712021417100218171b4f82611c6
:10624800c1719a61082127f077fa2bf045fa0028e6
:10625800fbd00e4b4ff400225a610b485a210170b3
:10626800a5214170052181708221c170142101711d
:106278002221417100218171b4f82e11c1719a61f6
:10628800082127f059fa03e07493012000800041a7
:106298002bf022fa0028fbd0d54a4ff40021516197
:1062a800d4485a230370a52343700523837082239f
:1062b800c370142303712423437100238371d4f81a
:1062c8002c311b0ac3719161082127f035fa2bf094
:1062d80003fa0028fbd0c64b4ff400225a61c54888
:1062e8005a210170a5214170052181708221c17058
:1062f800142101712621417100218171d4f82c11da
:10630800c1719a61082127f017fa2bf0e5f90028e6
:10631800fbd0b74a4ff400215161b6485a230370a5
:10632800a5234370072383708223c370142303714a
:106338002a234371d4f840311d0e85711d0cc57197
:106348001d0a0572437291610a2127f0f5f92bf0b5
:10635800c3f90028fbd0a64b4ff400225a61a54888
:106368005a210170a5214170052181708221c170d7
:10637800142101712e21417100218171b4f85e113f
:10638800c1719a61082127f0d7f92bf0a5f90028e7
:10639800fbd0974b4ff400225a6196485a2101705e
:1063a800a5214170052181708221c17014210171dc
:1063b8003021417100218171d4f84411c1719a6171
:1063c800082127f0b9f92bf087f90028fbd0884a73
:1063d8004ff40021516187485a230370a523437065
:1063e800052383708223c3701423037132234371fe
:1063f80000238371d4f844311b0ac37191610821c9
:1064080027f09af92bf068f90028fbd0784b4ff465
:1064180000225a6177485a210170a521417005214f
:1064280081708221c17014210171342141710021d0
:106438008171b4f84611c1719a61082127f07cf97d
:106448002bf04af90028fbd0694b4ff400225a611f
:1064580068485a210170a521417005218170822167
:10646800c170142101713621417100218171b4f884
:106478004e11c1719a61082127f05ef92bf02cf9b1
:106488000028fbd05a4a4ff40021516159485a2339
:106498000370a5234370052383708223c3701423dc
:1064a80003713823437100238371d4f84c311b0adc
:1064b800c3719161082127f03ff92bf00df90028ed
:1064c800fbd04b4b4ff400225a614a485a210170c5
:1064d800a5214170052181708221c17014210171ab
:1064e8003a21417100218171d4f84c11c1719a612e
:1064f800082127f021f92bf0eff80028fbd03c4abf
:106508004ff4002151613b485a230370a52343707f
:10651800072383708223c3701423037140234371bc
:10652800d4f860311d0e85711d0cc5711d0a0572e8
:10653800437291610a2127f0fff82bf0cdf800286b
:10654800fbd02b4b4ff400225a612a485a21017084
:10655800a5214170052181708221c170142101712a
:106568004421417100218171b4f87e11c1719a6191
:10657800082127f0e1f82bf0aff80028fbd01c4bde
:106588004ff400225a611b485a210170a52141701d
:10659800052181708221c170142101714621417148
:1065a80000218171d4f86411c1719a61082127f022
:1065b800c3f82bf091f80028fbd00d4a4ff40021c6
:1065c80051610c485a230370a52343700523837037
:1065d8008223c370142303714823437100238371fa
:1065e800d4f864311b0ac3719161082104e000bf2b
:1065f800008000417493012027f09ef82bf06cf87e
:106608000028fbd0d54b4ff400225a61d4485a21b8
:106618000170a5214170052181708221c17014216a
:1066280001714a21417100218171b4f86611c1716b
:106638009a61082127f080f82bf04ef80028fbd04b
:10664800c64b4ff400225a61c5485a210170a52152
:106658004170052181708221c170142101714c2182
:10666800417100218171b4f86e11c1719a610821dc
:1066780027f062f82bf030f80028fbd0b74a4ff427
:1066880000215161b6485a230370a523437005239e
:1066980083708223c370142303714e234371002334
:1066a8008371d4f86c311b0ac3719161082127f0fa
:1066b80043f82bf011f80028fbd0a84b4ff4002228
:1066c8005a61a7485a210170a5214170052181709e
:1066d8008221c17014210171502141710021817101
:1066e800d4f86c11c1719a61082127f025f82af0b5
:1066f800f3ff0028fbd0994a4ff4002151619848d4
:106708005a230370a5234370072383708223c37021
:106718001423037156234371d4f880311d0e8571fb
:106728001d0cc5711d0a0572437291610a2127f07b
:1067380003f82af0d1ff0028fbd0884b4ff4002241
:106748005a6187485a210170a5254570052585702d
:106758008225c57014250571417100218171b4f835
:106768009e11c1719a61082126f0e6ff2af0b4ff54
:106778000028fbd0794b4ff400225a6178485a21ff
:106788000170a5214170052181708221c1701421f9
:1067980001715c21417100218171d4f88411c171aa
:1067a8009a61082126f0c8ff2af096ff0028fbd03e
:1067b8006a4a4ff40021516169485a230370a5239e
:1067c8004370052383708223c370142303715e23ef
:1067d800437100238371d4f884311b0ac37191611a
:1067e800082126f0a9ff2af077ff0028fbd05b4b91
:1067f8004ff400225a615a485a210170a52141706c
:10680800052181708221c1701421017160214171bb
