:10200000F8FF0320150A0300171503003328030007
:102010007B300300675D0300276A030000000000B7
:10202000000000000000000000000000D15E03007E
:10203000A32C030000000000111A0300CD4C030084
:102040007F7203007F7203007F7203007F720300C0
:102050007F7203007F7203007F7203007F720300B0
:102060007F7203007F7203007F7203007F720300A0
:102070007F7203009D600300BD6003007F72030058
:102080007F720300DD600300FD6003001D6103003B
:10209000415E0300655E0300895E0300BD580300D6
:1020A000E55803007F7203007F7203007F72030014
:1020B0007F7203007F7203007F7203007F72030050
:1020C0007F7203007F7203007F7203007F72030040
:1020D0007F7203007F7203007F7203007F72030030
:1020E0007F7203007F720300000000000000000008
:1020F000000000007F7203007F7203007F72030004
:102100007F7203007F7203007F7203007F720300FF
:102110007F7203007F7203007121030071210300AD
:10212000712103007121030071CB020071CB020009
:1021300071CB020071CB0200511F0300511F03003D
:10214000511F0300511F0300C1200300C1200300E1
:10215000C1200300C120030019210300192103003D
:102160001921030019210300C9210300C92103001B
:10217000C9210300C9210300C5F40200E1F70200F0
:102180007F7203007F7203007F7203007F7203007F
:10219000000000007F7203007F7203007F72030063
:1021A0007F7203007F7203007F7203007F7203005F
:1021B0007F7203007F7203007F7203007F7203004F
:1021C0007F7203007F7203007F7203007F7203003F
:1021D0007F7203007F7203007F7203007F7203002F
:1021E0007F7203007F7203007F7203007F7203001F
:1021F0007F7203007F7203007F7203007F7203000F
:102200007F7203007F7203007F7203007F720300FE
:102210007F7203007F7203007F7203007F720300EE
:102220007F7203007F7203007F7203007F720300DE
:102230007F7203007F7203007F7203007F720300CE
:102240007F7203007F7203007F7203007F720300BE
:102250007F7203007F7203007F7203007F720300AE
:10226000F8B500BFF8BC08BC9E467047A13003001B
:10227000F8B500BFF8BC08BC9E4670477D3003002F
:1022800080830200010000002DE9F04FF9B0002426
:102290007694779474948DF8D441ADF8CC417194D0
:1022A000729470946D946E948DF8BC416B94CDF8DB
:1022B000AF41689469946A94659466946794629453
:1022C000639464945B945C945D945E945F94609476
:1022D0006194579458945994ADF86841519452942C
:1022E000539454945594CDF857419222214617A8FF
:1022F00034F010FE159416941E22214605A834F0E1
:1023000009FEB24FB24CDFF82C83DFF82CA3DFF8C4
:102310002C93DFF82CB32FE2AE4B18682EF060FA46
:102320000025AAF80050A9F80050AB4B1D70AB4B2C
:102330001D802A4676A9AA4B18682CF0A1F92A46D6
:1023400074A9A84B18682CF09BF92A4673A9A64BD0
:1023500018682CF095F99DF8DF31012B40F0D681FB
:102360009DF8D231002B40F0D1819DF8D1316D2BF9
:1023700026D89DF8D131632B00F2C8819B4E689618
:1023800040238DF8AA319A4D0023642268A9286859
:102390002CF058F84FF47A7032F030F86896002339
:1023A0008DF886318DF8AA31642268A928682CF04E
:1023B00049F8642032F022F88E4B01221A70A5E110
:1023C0008D4B1D608D4B1D60884B689340238DF8AD
:1023D000AA31874E2B46642268A930682CF032F867
:1023E0004FF47A7032F00AF8804B68938DF886517A
:1023F0008DF8AA512B46642268A930682CF022F887
:10240000642031F0FBFF7B4B01221A700C2388F80B
:102410000030AEE77A4B659300258DF898512B4636
:10242000642265A9774800682CF00CF8642031F02C
:10243000E5FF754B629301268DF862618DF88C6122
:102440008DF863518DF88D518DF864518DF88E5152
:102450002B46642262A96D4800682BF0F3FF6420CC
:1024600031F0CCFF614B68938DF884618DF8A561E4
:102470002B46642268A95E4800682BF0E3FF6420C5
:1024800031F0BCFF2A4673A9574B18682CF0F8F8B6
:102490009DF8CC31B34240F03981564B02221A707C
:1024A00034E1524D689540238DF8AA31504E0023F7
:1024B000642268A930682BF0C5FF4FF47A7031F0C0
:1024C0009DFF689500258DF886518DF8AA512B4601
:1024D000642268A930682BF0B5FF642031F08EFFCC
:1024E0002A4674A93F4B18682CF0CAF8002800F05F
:1024F0000D819DF8D131503BDBB21D2B1DD8444BD3
:102500004FF48032C3F89420092388F80030414BFF
:1025100001221A70384B1B68934248D03E4B1B78FF
:10252000022B00F08F80344B1B6813B9314B032210
:102530001A703A4A1368013313609DF8D1316D2B3C
:1025400021D9374B1B78C3B9354B1B7823B9304B96
:102550004FF48032C3F89820324B18682CF080FE7C
:102560004FF6FF7030F06AFF0023234A1360234ABE
:1025700013602D4B1B78002B79D0264B00221A704C
:102580000C2388F80030254B1B681E2B40F3BE80BF
:10259000224B00221A60224B1B7823B91C4B4FF4AC
:1025A0008032C3F89820134B00221A70AEE02A46FE
:1025B0008DF84050022310A91C4800682BF042FF00
:1025C0001B4B18682EF00CF9A8E700BFA39B012055
:1025D0009C9A012074990120C29B01203293012012
:1025E000509A0120549A0120789A012002C4EC15D7
:1025F000189A0120719B0120E09A0120E89A01209D
:1026000001C4EC15FC99012002D4EC15EC990120D1
:1026100000800041989B0120889B0120CC9A0120DA
:10262000939B012018990120CE9B0120FC9801204A
:10263000E49801206D9B01207E9B0120869B012058
:10264000A19B0120B74B5B78012B7FF46CAFB64B9D
:1026500003221A7000228DF84420022311A9B348E6
:1026600000682BF0EFFEB24B01221A605BE7B14B22
:1026700001221A70B04B18782FF05CF97DE7002525
:10268000AE4B1D60AE4B659308238DF847318DF836
:102690009B312B46642265A9AA4800682BF0D2FE24
:1026A0004FF47A7031F0AAFEA74E68968DF88551E6
:1026B0008DF8A8518DF886518DF8AA518DF8875163
:1026C0008DF8AB512B46642268A9A04800682BF016
:1026D000B9FE4FF47A7031F091FE2A4673A99C4BF3
:1026E00018682BF0CDFF689602238DF884318DF8A1
:1026F000A5312B46642268A9944800682BF0A2FEFD
:10270000642031F07BFE884B04221A7098F8003068
:102710008DF85130BAF80020ADF84E20B9F80020FD
:10272000ADF84C209BF800208DF852203A788DF8B7
:1027300050208DF848300223002213A985480068F4
:102740002BF080FE0223002212A9834800682BF0A0
:1027500079FE2368012B0BD100232360724A13708A
:102760007E4B18682EF03CF87D4B18682CF078FDF5
:102770004FF4487031F042FE00220DA9794B1868E1
:102780002BF07EFF28B1784A9DF8343011880B4435
:102790001380654B1B78DBB21E2BB7D801A252F811
:1027A00023F000BF1923000015240000A32400001B
:1027B0007F260000212800000D270000952800003A
:1027C0000D2700000D2700000D2700000D27000039
:1027D0000D2700000D2700000D2700000D27000029
:1027E0000D270000192A00000D270000452B0000CE
:1027F000712D0000412E00000D270000B9300000AF
:102800000D2700000D2700000D2700000D270000F8
:102810000D2700000D2700000D270000193A0000C9
:10282000002274A9514B18682BF02AFF002273A9CB
:10283000474B18682BF024FF9DF8D231012B1FD095
:102840009DF8CC31FA2B02D0FC2B00D013B9364BBB
:1028500000221A709DF8D1316D2B7FF657AF444B93
:102860001B7823B9434B4FF48032C3F898200023E0
:10287000414A13700C2288F800202B4A137045E758
:102880009DF8D131503BDBB21D2BD9D8264B062207
:102890001A70D5E70022274B1A7073A92C4B1868C1
:1028A0002BF0EEFE9DF8CC31312B0ED9334B1B684B
:1028B000012B28D0002B41F0F68100226BA9304B70
:1028C00018682BF0DDFE00285ED19DF8CC31FA2B84
:1028D00002D0FC2B00D053B9284A1268012A19D023
:1028E0002AB9114A00211170244A012111600A2BD2
:1028F0007FF40CAF234B1B780133DBB2F02B7BD082
:10290000204A137002E7084B10221A709DF8CC3150
:10291000FA2BDED1044A00211170184A01211160FE
:10292000E5E700BF889B0120719B01200C990120E5
:10293000E89A0120CE9B0120B79C0120CC9A01206F
:1029400001C4EC15FC99012002C4EC15189A012071
:10295000789A0120F8980120B89801203C9901202C
:10296000049A01203899012032930120549A0120C1
:10297000939B012000800041989B0120E09A012058
:10298000609A0120DC9B01209DF8AC318DF8383035
:102990009DF8AD318DF839309DF8AE318DF83A3073
:1029A0009DF8AF318DF83B309DF8B0318DF83C305B
:1029B0009DF8B1318DF83D30022300220EA9534815
:1029C00000682BF03FFD9DF83830002B3FF47DAFC1
:1029D0004F4B01221A604F4B10221A7002238DF8C0
:1029E0004030002210A94C4800682BF02BFD4B4BC7
:1029F00018682DF0F5FE68E70023494A1370454A30
:102A00001370484B40F233121A80474B02221A705F
:102A100011202EF08FFF79E6414B00221A70434BB4
:102A20001B686BBB424B1B78022B2DD1404B5B7854
:102A3000012B29D115468DF84420022311A93D48C8
:102A400000682BF0FFFC3C4B689301238DF8863126
:102A50008DF8AA312B46642268A9384800682BF00B
:102A6000F1FC642031F0CAFC2A4673A9344B186883
:102A70002BF006FE274B12221A700E202EF05AFF62
:102A80002A4B1B68012B22D0002273A92C4B1868FB
:102A90002BF0F6FD9DF8CC31FA2B04D0FC2B02D0A4
:102AA000002B7FF433AE1B4B00221A70184B01220F
:102AB0001A601C4B4FF49A721A801B4B02221A7038
:102AC000062032F04DFA11202EF034FF1EE61A4B8C
:102AD000689301238DF886318DF8AA310023642292
:102AE00068A9164800682BF0ADFC642031F086FC24
:102AF000002273A9124B18682BF0C2FD054B12225D
:102B00001A700E202EF016FFBEE700BF00990120BC
:102B1000E09A0120719B0120FC980120E49801209B
:102B2000DC9B012036950120A79B0120E89A01201B
:102B3000889B01200C99012002C4EC15189A0120F1
:102B4000789A01200123A84A1360A84A4FF4001183
:102B5000C2F8181100224E92A54A4F928DF84031CA
:102B600002238DF8413100224EA9A24800682BF0C3
:102B700069FCA14B18682DF033FE002271A99F4B10
:102B800018682BF07DFD002800F0D7809DF8C43137
:102B90009DF8C52102EB0322994981FB0232931073
:102BA00007EE903AF8EEE77A9DF8C6219DF8C73116
:102BB00003EB022381FB03239B1007EE103AB8EED0
:102BC000C77ABDEEC77A17EE103A8E4A92FBF3F33E
:102BD00003EB83035B0007EE103AB8EEC77A8A4B2B
:102BE00083ED007AB2EE047A67EE877A93ED007A8D
:102BF000F4EEC77AF1EE10FA48BFC3ED007A834BCA
:102C0000689300258DF8AA512B46642268A9804854
:102C100000682BF017FC642031F0F0FB7D4B6593CE
:102C2000794AD2ED007AFCEEE77A17EE903A8DF809
:102C30009831D2ED007AFCEEE77A17EE903AC3F3C2
:102C400007238DF8993158238DF89A311B238DF87D
:102C50009B314FF010028DF89C2127238DF89D3178
:102C600014268DF89E618DF89F512B46642265A92C
:102C7000694800682BF0E6FB4FF4967031F0BEFB1C
:102C80008DF898618DF89951C8238DF89A318DF897
:102C90009B518DF89C618DF89D5164268DF89E6145
:102CA0008DF89F515D4B65932B46324665A95A4876
:102CB00000682BF0C7FB4FF4967031F09FFB0223A6
:102CC0008DF886318DF8AA31504B68932B463246E9
:102CD00068A94F4800682BF0B5FB304631F08EFBF9
:102CE00010202EF027FE2A4673A94D4B18682BF0B2
:102CF000C7FC9DF8CC21A2F15B03DBB2092B08D8FD
:102D0000484B13221A70394B4FF48012C3F8142128
:102D100013E0FA2A01D0FC2A27D1424B00221A7074
:102D2000414B40F235121A80404B02221A700820A3
:102D300032F016F911202EF0FDFD00250E95ADF8AC
:102D40003C5002232A460EA9394800682BF07AFB32
:102D50008DF8405002232A4610A9364800682BF00F
:102D600071FB354B1D809D70D0E4002AD5D0E4E77F
:102D7000002274A9314B18682BF082FC9DF8D131E8
:102D8000312B7FF6C3AC194BD3F8203113F0807F81
:102D900019D101238DF885318DF8A8310C238DF8D8
:102DA00086318DF8AA31194B68930023642268A9F3
:102DB000174800682BF046FB642031F01FFB194BCD
:102DC00014221A70A2E4174B00221A70164B40F21C
:102DD00035121A80154B02221A70072032F0C0F803
:102DE00011202EF0A7FD91E4E89A01200080004117
:102DF00000004843AC990120B0990120689A012055
:102E000067666666701101008099012002C4EC15A6
:102E1000189A012003C4EC15FC99012004C0EC159C
:102E2000789A0120719B012036950120A79B0120F3
:102E300000990120FC980120889B0120549A0120D0
:102E4000002270A9824B18682BF01AFC9DF8C03143
:102E50009DF8C12102EB03227E4981FB02329210D0
:102E600007EE902AF8EEE77A7B4BC3ED007A9DF8E7
:102E7000C2219DF8C33103EB022381FB03239B1086
:102E800007EE103AB8EEC77A744B83ED007A4FF034
:102E900080434E93CDED4F7A01238DF840310223CC
:102EA0008DF8413100224EA96D4800682BF0CAFA16
:102EB0006C4B18682DF094FC9DF8C1318DF8A4314D
:102EC0009DF8C0318DF8A531674B689300236422CB
:102ED00068A9664800682BF0B5FA642031F08EFAD4
:102EE000002273A9624B18682BF0CAFB00283FF43C
:102EF0000DAC9DF8CC31782B1AD09DF8CC31FA2B43
:102F000004D0FC2B02D0002B7FF400AC594B1E22C6
:102F10001A70594B4FF49B721A80584B02221A7048
:102F2000082032F01DF811202EF004FDFFF7EEBB53
:102F3000534B1E6834F04CF94EF660250095002383
:102F400002460121304630F0B9F94E4B1E6834F08C
:102F50003FF90095002302460121304630F0AEF9DA
:102F6000494B1E6834F034F90095002302460121D4
:102F7000304630F0A3F9454B1E6834F029F900952E
:102F8000002302460121304630F098F9404B1E687C
:102F900034F01EF90095002302460121304630F03E
:102FA0008DF93C4B1E6834F013F90095002302465E
:102FB0000121304630F082F912202EF0BBFC0320B4
:102FC0002FF080FA2B4B16221A70334B187830F002
:102FD0009DFF642031F012FA304D287830F0B2FFB6
:102FE000642031F00BFA2E4E308830F0C7FF642099
:102FF00031F004FA2B49087830F0F8FF642031F002
:10300000FDF92948007830F0D5FF642031F0F6F959
:10301000264A107831F006F8642031F0EFF9244B9D
:103020001A68244B1A6031882B781B4A12781B02CD
:1030300043EA014313433F931B480178194B1B7824
:103040001A4A12781B0243EA01431343409354E7A0
:10305000709A012067666666549B0120AC9A012035
:10306000AC990120B099012005C4EC15189A0120F3
:10307000789A0120719B012036950120A79B0120A1
:10308000909A0120149B0120189B01201C9B012079
:10309000209B01204C990120B39B0120CC9B012057
:1030A000FA8C0120CB9B0120BC9B0120DA9B0120E4
:1030B0006C990120D8990120444B18682DF090FBA1
:1030C000434B188830F07AFE424B1B78072B77D0A1
:1030D000002270A9404B18682BF0D2FA002840F06B
:1030E000978000226DA93D4B18682BF0C9FAA0B15A
:1030F0003B4A13789DF8B6013A49C854062188F82E
:10310000001001331370334B1B78042B40F289837A
:10311000304B1B78052B00F08F83334B1B78052B2E
:1031200000F092832E4B1B78052B00F007842F4B69
:103130001B782BB92E4B1B78DBB2012B00F01D84C2
:103140002A4B1B78DBB2012B00F022849DF8CC3196
:10315000292B03D0FA2B01D0FC2B12D1254B1E2298
:103160001A70092388F80030234BCA221A80234B97
:1031700002221A700A2031F0F3FE214B1A68214B0B
:103180001A609DF8B431012B00F019841E4B1B7896
:10319000022B7FF4BBAA1C4B9B78012B7FF4B6AAB1
:1031A000144B1E221A70092388F80030164B002297
:1031B0001A809A70124B1A68124B1A60FFF7A6BA5F
:1031C000124B187831F00AFC82E700BF18990120F1
:1031D00032930120C29B0120709A01206C9A012039
:1031E000BF9B012028980120C79B0120939B0120B1
:1031F000989B0120719B012036950120A79B0120FF
:103200006C990120E0990120889B01207D9B012081
:103210009DF8C2219DF8C33103EB0223CB4A82FB08
:1032200003139B0807EE903AF8EE677AC84BC3ED9C
:10323000007A9DF8C0119DF8C13103EB012382FB98
:1032400003239B0807EE103AB8EE477AC14B83ED93
:10325000007A17EE900A31F005F902460B46BE4996
:1032600005A833F0C7F91E2105A82DF0F9FF33F0AA
:10327000B9FD0028FBD0B64BD3ED007AB54BD3EDAA
:10328000006A27EEA67AB54B83ED007AB44B1B7823
:10329000002B40F08880B34B1A68B34B1A6093ED53
:1032A000006AB4EEC67AF1EE10FA35D5AF4B1B7852
:1032B00033BB9FEDAF7A76EE876ACDED4F6AAA4BAE
:1032C00093ED006AAB4BD3ED006A86EE267AF4EEFE
:1032D000C77AF1EE10FAC0F2A480F6EE007A27EE7B
:1032E000277A8DED4E7A03238DF8413101238DF835
:1032F0004031022300224EA99F4800682BF0A2F81B
:103300009A4B1B78DBB2012B00F09880974B1B780F
:10331000DBB2012B00F0CD80934BD3ED007A8F4BC5
:1033200093ED007AB4EEE77AF1EE10FA3BDD8F4BC5
:103330001B7863BB874BD3ED007A9FED8D7A77EED8
:10334000877ACDED4F7A884BD3ED006A894BD3ED68
:10335000007A86EEA77A7E4BD3ED007AB4EEE77A58
:10336000F1EE10FA00F2E480F6EE007A27EE277A0A
:103370008DED4E7A03238DF8413101238DF84031D4
:10338000022300224EA97C4800682BF05BF8774BA3
:103390001B78DBB2012B00F0FF80744B1B78DBB293
:1033A000012B00F034816E4B1B78DBB2012B00F057
:1033B0006D819DF8C2019DF8C351704E32784FEA7D
:1033C000820C6F49614405EB0023DFF880E18EFB3E
:1033D00003E39B0807EE903AF8EE677AC1ED007AB6
:1033E000684B9C44634B1B68CCF800300132327050
:1033F0009DF8C1318DF8A4319DF8C0318DF8A5310B
:103400008DF8A6518DF8A7015F4B689300236422C5
:1034100068A95E4800682BF015F8322030F0EEFF06
:103420005FE6F4EEC77AF1EE10FA7FF55CAFB6EE28
:10343000007A67EE877ACDED4E7A54E7544B1B78CD
:10344000DBB2112B7FF662AF524B4FF40012C3F880
:103450001821404BD3ED007A9FED457A77EE877ABD
:10346000CDED4F7A404BD3ED006A424BD3ED007A5D
:1034700086EEA77A364BD3ED007AB4EEE77AF1EE1A
:1034800010FA0ED88DED4E7A02238DF841310122CB
:103490008DF8402100224EA9374800682AF0D2FF5B
:1034A0003AE7B4EEE77AF1EE10FAC8BFCDED4E7A06
:1034B000EAE7374B1B78DBB2112B3FF62DAF254BDC
:1034C000D3ED007A9FED2A7A77EE877ACDED4F7AA9
:1034D000254BD3ED006A274BD3ED007A86EEA77A11
:1034E0001B4BD3ED007AB4EEE77AF1EE10FA13D865
:1034F000F6EE007A27EE277A8DED4E7A03238DF8CB
:10350000413101238DF84031022300224EA91A488F
:1035100000682AF097FFFFE6B4EEE77AF1EE10FAC2
:10352000ECDDB6EE007A67EE877ACDED4E7AE5E710
:10353000B4EEE77AF1EE10FA7FF71CAFB6EE007A40
:1035400067EE877ACDED4E7A14E700BF6766666650
:10355000AC9A0120549B01205C3F01000C9B012090
:103560009F9B0120AC9D012098990120939B0120F5
:1035700000000000B49D0120AC990120C79B0120F0
:103580002C9601205496012005C4EC15189A0120B0
:103590008F9B012000800041C94B1B78DBB2112BAF
:1035A0007FF6FBAEC74B4FF40012C3F81821C64B91
:1035B000D3ED007A9FEDC57A77EE877ACDED4F7A1D
:1035C000C34BD3ED006AC34BD3ED007A86EEA77AE6
:1035D000C14BD3ED007AB4EEE77AF1EE10FA0ED8D3
:1035E0008DED4E7A02238DF8413101228DF8402174
:1035F00000224EA9B94800682AF024FFD3E6B4EEB1
:10360000E77AF1EE10FAC8BFCDED4E7AEAE7AC4B9F
:103610001B78DBB2112B3FF6C6AEAB4BD3ED007A75
:103620009FEDAA7A77EE877ACDED4F7AA84BD3ED4E
:10363000006AA84BD3ED007A86EEA77AA64BD3EDAD
:10364000007AB4EEE77AF1EE10FA13D8F6EE007ACB
:1036500027EE277A8DED4E7A03238DF84131012331
:103660008DF84031022300224EA99C4800682AF0C0
:10367000E9FE98E6B4EEE77AF1EE10FAECDDB6EE8C
:10368000007A67EE877ACDED4E7AE5E7944B1B78AA
:103690005BBB8D4BD3ED007A9FED8C7A77EE877A0A
:1036A000CDED4F7A8F4BD3ED006A8A4BD3ED007A84
:1036B00086EEA77A884BD3ED007AB4EEE77AF1EE86
:1036C00010FA50D8F6EE007A27EE277A8DED4E7A72
:1036D00003238DF8413101238DF84031022300226C
:1036E0004EA97E4800682AF0ADFE7D4B1B78DBB208
:1036F000012B44D07A4B1B78DBB2012B7FF459AEFF
:103700006F4B1B78DBB2112B3FF653AE6E4BD3EDF4
:10371000007A9FED6E7A77EE877ACDED4F7A714B16
:10372000D3ED006A6B4BD3ED007A86EEA77A6A4B35
:10373000D3ED007AB4EEE77AF1EE10FA65D8F6EE42
:10374000007A27EE277A8DED4E7A03238DF84131EA
:1037500001238DF84031022300224EA95F48006802
:103760002AF070FE25E6B4EEE77AF1EE10FAAFDD4E
:10377000B6EE007A67EE877ACDED4E7AA8E7504B29
:103780001B78DBB2112BB5D94E4B4FF40012C3F8A6
:103790001821544B93ED007ADFED537AB4EEE77ABB
:1037A000F1EE10FAC8BFC3ED007A474BD3ED007AB3
:1037B0009FED467A77EE877ACDED4F7A494BD3ED80
:1037C000006A444BD3ED007A86EEA77A424BD3EDE4
:1037D000007AB4EEE77AF1EE10FA0ED88DED4E7A5B
:1037E00002238DF8413101228DF8402100224EA99B
:1037F0003A4800682AF026FEDBE5B4EEE77AF1EEFF
:1038000010FAC8BFCDED4E7AEAE7B4EEE77AF1EEF2
:1038100010FA9ADDB6EE007A67EE877ACDED4E7A31
:1038200093E731F0DBF89DF8B621304B1A70304A3F
:103830001378013313706BE42D4B07221A709DF837
:10384000B6318BF8003068E44FF0000C294B83F858
:1038500000C0BAF80010B9F80000274B274A03F15E
:10386000140ECDF80CC01E461546029101E07345BA
:1038700046D0F3EC017A96ED007AB4EEE77AF1EEF9
:1038800010FA09D8C6ED007AFCEEE77A17EE901A26
:1038900089B202914FF0010CF2EC017A95ED007AB9
:1038A000B4EEE77AF1EE10FAE1D8C5ED007AFCEE5D
:1038B000E77A17EE901A88B201210391D7E700BF8B
:1038C0008F9B012000800041549B012000000000DC
:1038D00098990120B49D0120AC9A0120AC99012057
:1038E000939B0120A099012000B808477D9B0120EF
:1038F000C29B0120C79B01202C96012054960120D9
:103900000299BCF1000F01D0AAF80010039B0BB183
:10391000A9F80000344BD3ED007AFCEEE77A17EEFD
:10392000900A30F083FA314BD3ED007AFCEEE77A5F
:1039300017EE900A30F05EFAFFF7F4BB00252C4B2F
:103940001D7097F800C02B4B5E1D18464FF0010EFE
:1039500001E0B34208D013F8012B01789142F8D866
:10396000027094467546F4E70DB187F800C0214B0C
:10397000187831F01BF8FFF7DABB00228DF84420ED
:10398000022311A91C4800682AF05CFDFFF7D8BB90
:103990001A4B1B78DBB2012B7FF4D8AB184B1B788A
:1039A000DBB2132B7FF6D2AB00228DF8442002232A
:1039B00011A9114800682AF045FDFFF7C7BB114B5C
:1039C0001E221A70092388F800300F4BC9221A8072
:1039D0000E4B02221A700A2031F0C2FA0C4B1A6800
:1039E0000C4B1A60FFF7D2BB2C9601205496012095
:1039F000BF9B0120289801200C990120989B012051
:103A00008F9B0120719B012036950120A79B0120EF
:103A10006C990120E0990120A74B1B78DBB2012BA8
:103A200000F00981A54B1B78DBB2012B00F0198156
:103A30004FF003038DF884318DF8A531A04B6893C6
:103A4000A04E0023642268A930682AF0FBFC3220D3
:103A500030F0D4FC00258DF8A4518DF8A5519A4A78
:103A600068922B46642268A930682AF0EBFC322069
:103A700030F0C4FC95494FF48010C1F81801944B04
:103A80001A68944B1A608C4B1D7002238DF84131DB
:103A90008DF840512A464EA98F4800682AF0D2FC82
:103AA00040F6B83030F0AAFC4FF003008DF8A501C5
:103AB000834B68932B46642268A8014630682AF03D
:103AC000C1FC322030F09AFC8DF8A4518DF8A5513C
:103AD0007D4A68922B46642268A8014630682AF025
:103AE000B1FC322030F08AFC78494FF48013C1F8E1
:103AF00018310A2300932B462A4603217748006891
:103B00002FF0DCFB764B187830F0A8FA754B18785C
:103B100030F0C0FA744B188830F0D8FA734B18782C
:103B200030F00CFB724B187830F0ECFA714B1878CF
:103B300030F020FB704B186830F054FB6F4B1B7853
:103B4000DBB2012B00F0A3806C4B1B78DBB2022BA5
:103B500000F0A180694B1B78DBB2032B00F09F8043
:103B60005C4BD3ED007AFCEEE77A654B93ED007A7F
:103B7000BCEEC77A17EE903A17EE102A9B1A07EEA2
:103B8000903AF8EE677A5F4DC5ED007AFCEEE77A81
:103B900017EE900A30F00AFB5B4B15221A700520D5
:103BA0002EF090FC544B1B683E934F4B19884D4BA5
:103BB0001B784B4A12781B0243EA0143134341939B
:103BC0004B4B1978494B1B784A4A12781B0243EA3F
:103BD0000143134342934D4B1A783B7843EA024327
:103BE0004393D5ED007AFCEEE77A17EE903A43F472
:103BF00000334493414B1A78454D2B8843EA0243E6
:103C0000459302238DF8F030002364223CA94148FB
:103C100000682AF017FC404B18682CF0E1FD0123E6
:103C2000236000222A803D4A13703D4A13703D4AAA
:103C30001370FEF76BBD214B1B78002B7FF4F2AEA7
:103C400000228DF8402103238DF8413102234EA933
:103C5000214800682AF0F6FB40F6B83030F0CEFB81
:103C6000E0E6154B1B78DBB2012B7FF4E1AE0022BE
:103C70008DF8402102238DF841314EA91648006885
:103C80002AF0E0FB40F6B83030F0B8FBD0E6012077
:103C900031F066F958E7022031F062F95AE7032063
:103CA00031F05EF95CE79DF8CC31FA2B7EF411AE71
:103CB0001D4A1268FEF714BE989B0120939B0120B9
:103CC00002C4EC15189A012005C4EC1500800041CF
:103CD0006C990120E0990120AC9901204C990120B8
:103CE000B39B0120CC9B0120FA8C0120CB9B0120AF
:103CF000BC9B0120DA9B0120A4980120A69B0120F7
:103D0000D8990120CC980120B79C01207D9B0120EF
:103D1000329301202499012028990120979B0120AA
:103D2000969B0120959B0120E09A01202DE9F04F00
:103D3000F1B000246E946F946C94CDF8B3416A9402
:103D40008DF8AC41ADF8A44167946894669463948F
:103D500064948DF894416094619462945D945E944F
:103D60005F945A945B945C945394549455945694F1
:103D70005794589459944F9450945194ADF84841A5
:103D800049944A944B944C944D94CDF837414694C1
:103D900047944894922221460FA833F0BBF80D9423
:103DA0000E94B24EB24FDFF82C83DFF82C93DFF87D
:103DB0002CB3DFF82CA32BE2AE4B18682CF010FDCF
:103DC0000024AD4B1C70A9F80040ABF80040AB4B91
:103DD0001C8022466EA9AA4B18682AF051FC224684
:103DE0006AA9A84B18682AF04BFC224669A9A64B81
:103DF00018682AF045FC9DF8BF31012B40F0D081B6
:103E00009DF8AA31002B40F0CB819DF8A9316D2B94
:103E100026D89DF8A931632B00F2C2819B4D609595
:103E200040238DF88A319A4C0023642260A92068CF
:103E30002AF008FB4FF47A7030F0E0FA6095002326
:103E40008DF851318DF88A31642260A920682AF0FA
:103E5000F9FA642030F0D2FA8E4B01221A709FE1F9
:103E60008D4B1C608D4B1C60884B609340238DF8FC
:103E70008A31874D2346642260A928682AF0E2FA35
:103E80004FF47A7030F0BAFA804B60938DF851415C
:103E90008DF88A412346642260A928682AF0D2FA64
:103EA000642030F0ABFA7B4B01221A700C2388F8A7
:103EB0000030AEE77A4B5D9300248DF878412346BD
:103EC00064225DA9774800682AF0BCFA642030F0CB
:103ED00095FA754B5A9301258DF842518DF86C5126
:103EE0008DF843418DF86D418DF844418DF86E4158
:103EF000234664225AA96D4800682AF0A3FA642078
:103F000030F07CFA614B60938DF84F518DF88551FC
:103F10002346642260A95E4800682AF093FA642070
:103F200030F06CFA224669A9574B18682AF0A8FBB2
:103F30009DF8A431AB4240F03381564B02221A70F7
:103F40002EE1524C609440238DF88A31504D00236D
:103F5000642260A928682AF075FA4FF47A7030F06C
:103F60004DFA609400248DF851418DF88A41234622
:103F7000642260A928682AF065FA642030F03EFACD
:103F800022466AA93F4B18682AF07AFB002800F005
:103F900007819DF8A931503BDBB21D2B1DD8444B46
:103FA0004FF48032C3F89420092388F80030414B45
:103FB00001221A70384B1B68934248D03E4B1B7845
:103FC000012B00F08F80344B1B6813B9314B032257
:103FD0001A703A4A1368013313609DF8A9316D2BAA
:103FE00021D9374B1B78C3B9354B1B7823B9304BDC
:103FF0004FF48032C3F89820324B18682BF030F918
:104000004FF6FF702FF01AFA0023234A1360234A59
:1040100013602D4B1B78002B79D0264B00221A7091
:104020000C2388F80030254B1B681E2B40F3B8800A
:10403000224B00221A60224B1B7823B91C4B4FF4F1
:104040008032C3F89820134B00221A70A8E0224651
:104050008DF82040022308A91C4800682AF0F2F9D4
:104060001B4B18682CF0BCFBA8E700BFA29B0120EB
:10407000989A012074990120C19B0120FE92012091
:10408000209A0120249A0120489A012002C0EC15B0
:10409000189A01208F9B0120DC9A0120E49A0120CC
:1040A00001C0EC15FC99012002D0EC15EC9901201F
:1040B00000800041939B01208C9B0120C89A012025
:1040C000989B012018990120CD9B0120FC9801208C
:1040D000E49801202D980120769B0120829B0120ED
:1040E000A09B0120AE4B5B78012B7FF46CAFAD4BF6
:1040F00003221A7000228DF82420022309A9AA485D
:1041000000682AF09FF9A94B01221A605BE7A84BCF
:1041100001221A70A74B18782DF00CFC7DE70024C3
:10412000A54B1C60A54B5D9308238DF825318DF8B8
:104130007B31234664225DA9A14800682AF082F9F8
:104140004FF47A7030F05AF99E4D60958DF85041D9
:104150008DF888418DF851418DF88A418DF8524192
:104160008DF88B412346642260A9974800682AF0A5
:1041700069F94FF47A7030F041F9609502238DF8B7
:104180004F318DF885312346642260A98E4800683E
:104190002AF058F9642030F031F9824B04221A7069
:1041A00098F800308DF83130B9F80030ADF82E3085
:1041B000BBF80030ADF82C309AF800308DF8323072
:1041C00033788DF83030022300220BA97F48006835
:1041D0002AF038F998F800308DF8283002230022B0
:1041E0000AA97B4800682AF02DF93B68012B0BD106
:1041F00000233B606B4A1370764B18682CF0F0FA82
:10420000754B18682BF02CF84FF4FA7030F0F6F874
:10421000644B1B78DBB21E2BC2D801A252F823F0EC
:10422000B93D0000B53E0000433F00001F410000C3
:104230009D420000A141000011430000A141000087
:10424000A1410000A1410000A1410000A1410000E6
:10425000A1410000A1410000A1410000A1410000D6
:104260008B440000A1410000B9450000F147000067
:10427000C9480000A1410000414B0000A1410000DD
:10428000A1410000A1410000A1410000A1410000A6
:10429000A1410000A14100008154000000226AA950
:1042A0004E4B18682AF0ECF9002269A94C4B1868AB
:1042B0002AF0E6F99DF8AA31012B1FD09DF8A43110
:1042C000FA2B02D0FC2B00D013B9364B00221A7007
:1042D0009DF8A9316D2B7FF663AF424B1B7823B954
:1042E000414B4FF48032C3F8982000233F4A1370AB
:1042F0000C2288F800202B4A137051E79DF8A93151
:10430000503BDBB21D2BD9D8264B06221A70D5E7BD
:104310000022274B1A7069A9314B18682AF0B0F9AE
:104320009DF8A431312B0ED9314B1B68012B28D0BD
:10433000002B41F0E48100226CA92E4B18682AF072
:104340009FF900285AD19DF8A431FA2B02D0FC2BFA
:1043500000D053B9264A1268012A19D02AB9114A45
:1043600000211170224A012111600A2B7FF418AF3D
:10437000214B1B780133DBB2F02B76D01E4A137031
:104380000EE7084B10221A709DF8A431FA2BDED1EB
:10439000044A00211170164A01211160E5E700BFAF
:1043A0008C9B01208F9B01200C990120E49A012015
:1043B000CD9B0120B79C0120C89A012001C0EC15BB
:1043C000FC99012002C0EC15189A0120F4980120F4
:1043D000B498012030990120F4990120249A0120F9
:1043E000489A0120989B012000800041939B012066
:1043F000DC9A0120309A0120DB9B01209DF8B0312E
:104400008DF818309DF8B1318DF819309DF8B23122
:104410008DF81A309DF8B3318DF81B309DF8B4310A
:104420008DF81C309DF8B5318DF81D300223002227
:1044300006A9534800682AF005F89DF81830002BAB
:1044400081D001234F4A13604F4A102111708DF81B
:1044500020304E4B18682CF0C3F90223002208A923
:104460004B48006829F0EEFF6DE70023494A1370BE
:10447000454A1370484B40F233121A80474B0122D1
:104480001A7008202DF056FA8AE6424B00221A7064
:10449000434B1B6873BB434B1B78012B2ED1414B05
:1044A0005B78012B2AD114468DF82420022309A918
:1044B0003D48006829F0C6FF3C4B609301238DF80E
:1044C00051318DF88A312346642260A9384800684A
:1044D00029F0B8FF64202FF091FF4FF47A7269A998
:1044E000344B18682AF0CCF8274B12221A7005209A
:1044F0002DF020FA2A4B1B68012B21D0002269A93C
:104500002C4B18682AF0BCF89DF8A431FA2B04D083
:10451000FC2B02D0002B7FF443AE1B4B00221A7001
:104520000123184A13601C4A4FF49A7111801B4AE8
:104530001370062030F0FEFC08202DF0FBF92FE66A
:104540001A4B609301238DF851318DF88A31002385
:10455000642260A91648006829F074FF64202FF0D7
:104560004DFF4FF47A7269A9124B18682AF088F847
:10457000054B12221A7005202DF0DCF9BEE700BFB2
:1045800000990120DC9A01208F9B0120E4980120F2
:10459000FC980120DB9B012036950120A79B012080
:1045A000E49A01208C9B01200C99012002C0EC159B
:1045B000189A0120489A0120AD4B4FF40012C3F81D
:1045C000182100234693AB4B479301248DF82041DB
:1045D0008DF821410023642246A9A748006829F0EC
:1045E00031FFA64B18682CF0FBF8A54B1C6000228D
:1045F00067A9A44B18682AF043F8002800F0D3807C
:104600009DF89C319DF89D2102EB03229E4981FB80
:104610000232931007EE903AF8EEE77A9DF89E2169
:104620009DF89F3103EB022381FB03239B1007EED0
:10463000103AB8EEC77ABDEEC77A17EE103A934A31
:1046400092FBF3F303EB8303A34007EE103AB8EEBB
:10465000C77A8F4B83ED007AB2EE047A67EE877AE1
:1046600093ED007AF4EEC77AF1EE10FA48BFC3ED8D
:10467000007A884B609300248DF88A412346642297
:1046800060A98548006829F0DDFE64202FF0B6FEA1
:10469000824B5D937E4AD2ED007AFCEEE77A17EE0C
:1046A000903A8DF87831D2ED007AFCEEE77A17EE89
:1046B000903AC3F307238DF8793158238DF87A3176
:1046C0001B238DF87B3110238DF87C3127238DF847
:1046D0007D3114258DF87E518DF87F41234664226B
:1046E0005DA96F48006829F0ADFE4FF4FA702FF015
:1046F00085FE8DF878518DF87941C8238DF87A318F
:104700008DF87B418DF87C518DF87D4164258DF8C5
:104710007E518DF87F41634B5D9323462A465DA908
:104720005F48006829F08EFE4FF4FA702FF066FEA5
:1047300002238DF851318DF88A3103F1AF5303F51F
:104740004C23609323462A4660A95348006829F009
:1047500079FE4FF4FA702FF051FE07202DF0EAF8A1
:10476000224669A9504B186829F08AFF9DF8A431A8
:104770005B3BDBB2092B2ED99DF8A431FA2B02D07A
:10478000FC2B00D07BB9494B00221A70484B40F2F9
:1047900035121A80474B01221A70082030F0CAFBEC
:1047A00008202DF0C7F800240694ADF81C408DF8C1
:1047B00020400223224608A93F48006829F042FE13
:1047C0000223224606A93D48006829F03BFE3C4BE7
:1047D0001C809C70E4E4354B13221A704FF47A70FD
:1047E0002FF00CFE224B4FF40022C3F81421C3E734
:1047F00000226AA9334B186829F042FF9DF8A931BD
:10480000312B1ED91A4BD3F8A03013F4000F1DD151
:1048100001238DF850318DF888310C238DF85131FA
:104820008DF88A311B4B60930023642260A91A48DB
:10483000006829F007FE64202FF0E0FD1B4B1422D6
:104840001A704FF47A702FF0D9FDA9E4174B0022AB
:104850001A70174B40F235121A80164B01221A704B
:10486000072030F067FB08202DF064F8E9E700BF6F
:104870000080004100004843AC990120B09901201C
:10488000E49A0120389A012067666666701101007B
:104890007C99012002C0EC15189A012003C0EC1588
:1048A000FC99012004C0EC15489A01208F9B01203F
:1048B00036950120A79B0120FC980120009901203A
:1048C0008C9B0120249A0120002266A9824B186843
:1048D00029F0D6FE9DF898319DF8992102EB03222C
:1048E0007E4981FB0232921007EE902AF8EEE77AB9
:1048F0007B4BC3ED007A9DF89A219DF89B3103EB29
:10490000022381FB03239B1007EE103AB8EEC77A0F
:10491000744B83ED007A4FF080434693CDED477A98
:1049200001238DF820318DF821310023642246A91E
:104930006D48006829F086FD6C4B18682BF050FF1D
:104940009DF899318DF884319DF898318DF8853135
:10495000674B60930023642260A96648006829F0D1
:1049600071FD0A202FF04AFD002269A9624B1868E8
:1049700029F086FE00283FF413AC9DF8A431782B73
:104980001AD09DF8A431FA2B04D0FC2B02D0002BB6
:104990007FF406AC594B1E221A70594B4FF49B7290
:1049A0001A80584B01221A70082030F0C3FA0820F0
:1049B0002CF0C0FFFFF7F4BB534B1D6832F008FC2E
:1049C0004EF66024009400230246012128462EF072
:1049D00075FC4E4B1D6832F0FBFB00940023024631
:1049E000012128462EF06AFC494B1D6832F0F0FB8D
:1049F000009400230246012128462EF05FFC454B1F
:104A00001D6832F0E5FB0094002302460121284690
:104A10002EF054FC404B1D6832F0DAFB009400236A
:104A20000246012128462EF049FC3C4B1D6832F01D
:104A3000CFFB009400230246012128462EF03EFCC5
:104A400009202CF077FF032030F0AEF92B4B162213
:104A50001A70334B18782FF029F864202FF0CEFC11
:104A6000304C20782FF03EF864202FF0C7FC2E4DFC
:104A700028882FF053F864202FF0C0FC2B490878C9
:104A80002FF084F864202FF0B9FC294800782FF02B
:104A900061F864202FF0B2FC264A10782FF092F8CB
:104AA00064202FF0ABFC244B1A68244B1A60298831
:104AB00023781B4A12781B0243EA014313433793BE
:104AC0001B480178194B1B781A4A12781B0243EADB
:104AD00001431343389354E7409A012067666666A2
:104AE000509B0120A89A0120AC990120B099012087
:104AF00005C0EC15189A0120489A01208F9B0120CF
:104B000036950120A79B012048990120909A012009
:104B1000149B0120189B01201C9B0120209B01203D
:104B2000B39B0120CC9B0120FA8C0120CB9B012060
:104B3000BC9B0120DA9B012068990120D4990120B7
:104B4000002205A9BD4B186829F09AFD28B1BC4A7E
:104B50009DF8143011880B441380BA4B18682BF061
:104B60003FFEB74B18882EF0F9FEB74B1B78072B8A
:104B700000F0A281002266A9B44B186829F080FDDC
:104B8000002800F0EE809DF89A319DF89B2102EB01
:104B90000322AF4981FB0232930807EE103AB8EEC8
:104BA000477AAC4B83ED007A9DF898219DF89931B6
:104BB00003EB022381FB03239B0807EE903AF8EEF8
:104BC000677AA54BC3ED007A67EE276AA34BC3ED66
:104BD000006AA34B1B78002B40F08880A14B1A6819
:104BE000A14B1A6093ED006AF4EEC66AF1EE10FA7A
:104BF00035D59E4B1B7833BBDFED9D6A77EEA67AE9
:104C0000CDED477A984B93ED006A9A4BD3ED006A4D
:104C1000C6EE267AB4EEE77AF1EE10FAC0F25181D0
:104C2000B6EE007A67EE877ACDED467A03238DF8EB
:104C3000213101238DF820310223002246A98E481C
:104C4000006829F0FFFB894B1B78DBB2012B00F0D9
:104C50004581864B1B78DBB2012B00F07A81824BB9
:104C6000D3ED007A7D4B93ED007AB4EEE77AF1EE66
:104C700010FA3BDD7D4B1B7863BB774BD3ED007A9D
:104C80009FED7B7A77EE877ACDED477A764BD3ED41
:104C9000006A784B93ED007AC6EE877A6D4B93ED00
:104CA000007AF4EEC77AF1EE10FA00F29181B6EED6
:104CB000007A67EE877ACDED467A03238DF82131AD
:104CC00001238DF820310223002246A96A4800689A
:104CD00029F0B8FB654B1B78DBB2012B00F0858116
:104CE000624B1B78DBB2012B00F0BA815C4B1B7866
:104CF000DBB2012B00F0F381604C22789500604B11
:104D00002B445C49096819609DF89A119DF89B0134
:104D10005C4B1D4400EB0123DFF834C18CFB03C363
:104D20009B0807EE903AF8EE677AC5ED007A0132FB
:104D300022709DF899318DF884319DF898318DF865
:104D400085318DF886018DF887114F4B60930023D4
:104D5000642260A94D48006829F074FB32202FF0CE
:104D60004DFB002263A94A4B186829F089FCA0B1C9
:104D7000484A13789DF88E014749C854062188F89F
:104D8000001001331370304B1B78042B40F28882E3
:104D90002D4B1B78052B00F08E82384B1B78052B92
:104DA00000F091823B4B1B78052B00F0E4823B4BDB
:104DB0001B78DBB2012B00F0FC82384B1B78DBB296
:104DC000012B00F005839DF8A431292B03D0FA2B89
:104DD00001D0FC2B12D1324B1E221A70092388F805
:104DE0000030304BCA221A802F4B01221A700A2041
:104DF00030F0A0F82D4B1A682D4B1A609DF88C31BD
:104E0000012B00F0FB822B4B1B78012B7FF4C8A9F0
:104E1000284B9B78012B7FF4C3A9214B1E221A70CB
:104E2000092388F80030234B00221A809A701F4B08
:104E30001A681F4B1A60FFF7B3B900BF2C99012005
:104E4000FE92012018990120C19B0120409A012067
:104E500067666666A89A0120509B0120089B012086
:104E60009E9B0120AC9D012098990120989B0120D8
:104E700000000000B09D0120AC990120C69B0120DC
:104E8000409601201896012005C0EC15189A0120C3
:104E90003C9A0120BE9B012020980120939B012079
:104EA0008F9B012036950120A79B01206899012046
:104EB000DC9901208C9B0120C54B18782FF02EFD2A
:104EC00058E6B4EEE77AF1EE10FA7FF5AFAEF6EE03
:104ED000007A27EE277A8DED467AA7E6BD4B1B7840
:104EE000DBB2112B7FF6B5AEBB4B4FF40012C3F80B
:104EF0001821BA4BD3ED007A9FEDB97A77EE877A15
:104F0000CDED477AB74BD3ED006AB74BD3ED007ABE
:104F100086EEA77AB54BD3ED007AB4EEE77AF1EEE0
:104F200010FA0ED88DED467A01238DF821318DF8D7
:104F300020310223002246A9AD48006829F082FAF8
:104F40008DE6B4EEE77AF1EE10FAC8BFCDED467A01
:104F5000EAE7A04B1B78DBB2112B3FF680AE9F4BEC
:104F6000D3ED007A9FED9E7A77EE877ACDED477A82
:104F70009C4BD3ED006A9C4BD3ED007A86EEA77A6A
:104F80009A4BD3ED007AB4EEE77AF1EE10FA13D82B
:104F9000F6EE007A27EE277A8DED467A03238DF818
:104FA000213101238DF820310223002246A99048A7
:104FB000006829F047FA52E6B4EEE77AF1EE10FA0B
:104FC000ECDDB6EE007A67EE877ACDED467AE5E75E
:104FD000F4EEC77AF1EE10FA7FF76FAEF6EE007AD4
:104FE00027EE277A8DED467A67E67A4B1B78DBB29F
:104FF000112B7FF675AE784B4FF40012C3F81821D1
:10500000764BD3ED007A9FED767A77EE877ACDED09
:10501000477A744BD3ED006A734BD3ED007A86EE7A
:10502000A77A724BD3ED007AB4EEE77AF1EE10FA7C
:105030000ED88DED467A01238DF821318DF820317F
:105040000223002246A96A48006829F0FBF94DE6D0
:10505000B4EEE77AF1EE10FAC8BFCDED467AEAE792
:105060005C4B1B78DBB2112B3FF640AE5B4BD3EDB4
:10507000007A9FED5B7A77EE877ACDED477A594BD0
:10508000D3ED006A584BD3ED007A86EEA77A574BE2
:10509000D3ED007AB4EEE77AF1EE10FA13D8F6EE1B
:1050A000007A27EE277A8DED467A03238DF8213199
:1050B00001238DF820310223002246A94C480068C4
:1050C00029F0C0F912E6B4EEE77AF1EE10FAECDD61
:1050D000B6EE007A67EE877ACDED467AE5E7454B86
:1050E0001B785BBB3D4BD3ED007A9FED3D7A77EEAD
:1050F000877ACDED477A404BD3ED006A3A4B93ED7A
:10510000007AC6EE877A394B93ED007AF4EEC77ACF
:10511000F1EE10FA50D8B6EE007A67EE877ACDED50
:10512000467A03238DF8213101238DF820310223A3
:10513000002246A92E48006829F084F92D4B1B78DF
:10514000DBB2012B5AD02B4B1B78DBB2012B7FF447
:10515000D3AD204B1B78DBB2112B3FF6CDAD1F4BEF
:10516000D3ED007A9FED1E7A77EE877ACDED477A00
:10517000214BD3ED006A1C4BD3ED007A86EEA77A63
:105180001A4BD3ED007AB4EEE77AF1EE10FA7BD841
:10519000F6EE007A27EE277A8DED467A03238DF816
:1051A000213101238DF820310223002246A9104825
:1051B000006829F047F99FE5F4EEC77AF1EE10FA9E
:1051C000AFDDF6EE007A27EE277A8DED467AA8E776
:1051D000759B0120719B012000800041509B0120A4
:1051E0000000000098990120B09D0120A89A01209C
:1051F000AC990120989B01209C990120894B1B7838
:10520000DBB2112B9FD9884B4FF40012C3F8182141
:10521000864B93ED007ADFED867AB4EEE77AF1EE15
:1052200010FAC8BFC3ED007A824BD3ED007A9FED30
:10523000827A77EE877ACDED477A7C4BD3ED006AA0
:105240007E4BD3ED007A86EEA77A7D4BD3ED007AC4
:10525000B4EEE77AF1EE10FA0ED88DED467A01231E
:105260008DF821318DF820310223002246A975489E
:10527000006829F0E7F83FE5B4EEE77AF1EE10FABE
:10528000C8BFCDED467AEAE7B4EEE77AF1EE10FA60
:1052900084DDB6EE007A67EE877ACDED467A7DE75B
:1052A0002FF03CFB684A1378013313709DF88E2170
:1052B000664B1A706CE59DF88E318AF80030624BAF
:1052C00007221A7069E54FF0000C614B83F800C0AB
:1052D000B9F80010BBF800005E4B5F4A03F1140EF2
:1052E000CDF80CC01D461446029101E0734525D04F
:1052F000F3EC017A95ED007AB4EEE77AF1EE10FA6C
:1053000009D8C5ED007AFCEEE77A17EE901A89B25B
:1053100002914FF0010CF2EC017A94ED007AB4EEB8
:10532000E77AF1EE10FAE1D8C4ED007AFCEEE77A04
:1053300017EE901A88B201210391D7E70299BCF1C8
:10534000000F01D0A9F80010039B0BB1ABF80000CF
:10535000404BD3ED007AFCEEE77A17EE900A2EF080
:1053600035FB3D4BD3ED007AFCEEE77A17EE900A61
:105370002EF010FB16E50024384B1C7096F800C088
:10538000374B5D1D18464FF0010E01E0AB4208D0CF
:1053900013F8012B01789142F8D8027094467446B4
:1053A000F4E70CB186F800C02D4B18782FF09EFA68
:1053B000FDE42C4B1B78002B7FF4FFAC00228DF812
:1053C0002420022309A92848006829F03BF8F4E4C6
:1053D000244B1B78DBB2012B7FF4F5AC114B1B780F
:1053E000DBB2132B7FF6EFAC00228DF824200223D2
:1053F00009A91D48006829F025F8E4E41B4B1E228A
:105400001A70092088F80000194BC9221A80194B1C
:1054100001221A702FF08EFD174B1A68174B1A6075
:10542000F1E400BF719B0120008000419C990120A4
:1054300000B80847509B012000000000B09D0120EB
:10544000A89A0120AC990120C19B0120759B0120E5
:10545000C69B01201896012040960120BE9B01208A
:1054600020980120989B01200C9901208F9B0120FE
:1054700036950120A79B012068990120DC99012025
:10548000A34B1B78DBB2012B00F00181A04B1B78F2
:10549000DBB2012B00F011814FF003038DF84F3187
:1054A0008DF885319B4B60939B4D0023642260A94E
:1054B000286828F0C7FF32202EF0A0FF00248DF8C6
:1054C00084418DF88541954A60922346642260A903
:1054D000286828F0B7FF32202EF090FF90494FF453
:1054E0000020C1F818018F4B1B688F480360884B60
:1054F0001C708DF8204101238DF8213102232246B2
:1055000046A98A48006828F09DFF40F6B8302EF082
:1055100075FF4FF0030C8DF885C17E4B60932346D9
:1055200064220DF5C07C6146286828F08BFF32208C
:105530002EF064FF8DF884418DF88541774A6092A2
:10554000234664220DF5C07C6146286828F07AFF66
:1055500032202EF053FF72494FF40023C1F8183166
:105560000A230093234622460321714800682DF048
:10557000A5FE704B18782EF041FB6F4B18782EF07B
:1055800059FB6E4B18882EF071FB6D4B18782EF07E
:10559000A5FB6C4B18782EF085FB6B4B18782EF022
:1055A000B9FB6A4B18682EF0EDFB5F48D0ED007A2E
:1055B000FCEEE77A664B93ED007ABCEEC77A17EE05
:1055C000100A17EE903A181A624B18602EF0BEFBC4
:1055D000614B1B78DBB2012B00F085805E4B1B78A2
:1055E000DBB2022B00F083805B4B1B78DBB2032B1A
:1055F00000F08180594B0C221A7005202FF0D4FB4B
:10560000524B1B6836934D4B19884B4B1B78494ABC
:1056100012781B0243EA014313433993494B19782B
:10562000474B1B78484A12781B0243EA0143134355
:105630003A934B4B1A78337843EA02433B93454BFA
:105640001B6843F480333C93434B1A78454C2388C2
:1056500043EA02433D9302238DF8D03000236422B5
:1056600034A94148006828F0EDFE404B18682BF043
:10567000B7F801233B60002222803D4A13703D4A67
:1056800013703D4A13703D4A1370FEF789BD3C4BC1
:105690001B78002B7FF4FAAE00228DF82021032323
:1056A0008DF82131022346A92048006828F0CAFE5F
:1056B00040F6B8302EF0A2FEE8E6314B1B78DBB2A4
:1056C000012B7FF4E9AE00228DF820218DF82131E5
:1056D000022346A91548006828F0B4FE40F6B83009
:1056E0002EF08CFED8E601202FF024FC76E7022075
:1056F0002FF020FC78E703202FF01CFC7AE79DF8C0
:10570000A431FA2B7EF423AE1E4A1268FEF726BEA1
:10571000939B012002C0EC15189A012005C0EC15DE
:105720000080004168990120DC990120AC9901209A
:1057300048990120B39B0120CC9B0120FA8C0120C9
:10574000CB9B0120BC9B0120DA9B0120A09801206B
:10575000D4990120C8980120A69B0120B79C012064
:10576000759B0120FE920120249901202899012097
:10577000819B0120929B0120919B0120859B012010
:10578000989B0120DC9A0120909D012004000000DC
:105790000100000000000000389501201C000000FE
:1057A00000000000E8960120080000000000000052
:1057B000549501201C0000000000000068960120A4
:1057C0001000000000000000F0960120180000000A
:1057D00000000000709501201C0000000000000087
:1057E00078960120100000000000000008970120BA
:1057F0001000000000000000FC8C0120C000000030
:1058000000000000729B0120020000000000000068
:10581000249401202C00000000000000349301209B
:10582000F000000000000000949D01200400000032
:1058300001000000AAAAAAAA3098012004000000D2
:1058400000000000A0010020608A010000000000AC
:10585000349801201000000000000000189701207B
:10586000080000000000000044980120080000002B
:10587000000000008C9501202800000000000000BE
:105880004C9801201800000000000000EC9001205E
:105890006400000000000000649801201400000073
:1058A00000000000B4950120280000000000000066
:1058B000789801201000000000000000DC95012015
:1058C000140000000000000088980120040000007F
:1058D00000000000F09501202800000000000000FA
:1058E0008C9801200800000000000000989D012015
:1058F000040000000100000004000000100000206F
:1059000090010000000000009498012014000000A5
:1059100000000000A3910120010000000000000031
:105920007B9B01200100000000000000A8980120DE
:1059300004000000000000008B9B0120010000001B
:1059400000000000AC9801200400000000000000EE
:10595000259801200100000000000000B0980120FF
:105960000C000000000000002D9801200100000044
:10597000000000006D9B01200100000000000000FD
:105980008F9B01200100000000000000719B01209E
:105990000100000000000000BC980120140000007D
:1059A00000000000769B01200200000000000000C3
:1059B0001896012014000000000000007E9B0120CA
:1059C00002000000000000002C96012014000000DE
:1059D00000000000829B0120020000000000000087
:1059E000409601201400000000000000869B01206A
:1059F0000200000000000000549601201400000086
:105A000000000000D0980120040000000000000009
:105A1000809201204000000000000000509401200E
:105A20005000000000000000148F0120A4000000BE
:105A300000000000D49801200800000000000000D1
:105A4000F49101204600000000000000909B01201E
:105A50000100000000000000DC9801203C00000074
:105A600000000000668E012002000000000000001F
:105A7000128F012002000000000000003A92012075
:105A8000020000000000000018990120040000003E
:105A900000000000759B01200100000000000000D4
:105AA0007D9B012001000000000000001C990120E6
:105AB0001000000000000000819B01200100000098
:105AC00000000000859B0120010000000000000094
:105AD000919B01200200000000000000FE920120C6
:105AE00002000000000000002C99012004000000CA
:105AF00000000000939B0120010000000000000056
:105B0000309901200800000000000000949B012053
:105B10000400000000000000329301200200000099
:105B2000000000003899012004000000000000007F
:105B3000989B012001000000000000003C9901201A
:105B40000800000000000000999B012001000000F7
:105B50000000000044990120040000000000000043
:105B60009A9B0120010000000000000048990120DC
:105B700030000000000000009B9B0120030000009B
:105B800000000000789901200C00000000000000D7
:105B90005091012053000000000000008499012072
:105BA00038000000000000000093012032000000D7
:105BB00000000000BC99012014000000000000005B
:105BC0009E9B01200200000000000000D0990120EF
:105BD0000400000000000000A09B01200300000062
:105BE00000000000209801200500000000000000D7
:105BF000A39B012001000000000000002898012064
:105C00000500000000000000D499012008000000F9
:105C100000000000A49B0120020000000000000022
:105C20008C9B01200300000000000000889B0120E5
:105C30000300000000000000DC99012008000000C3
:105C400000000000A69B01200100000000000000F1
:105C5000DC9601200A0000000000000036950120BB
:105C60000200000000000000A79B012001000000CE
:105C700000000000E4990120040000000000000082
:105C8000A89B01200100000000000000E696012012
:105C90000200000000000000269801200200000021
:105CA000000000002E98012002000000000000000B
:105CB000209701206800000000000000E899012002
:105CC000200000000000000088970120680000000C
:105CD00000000000089A0120800000000000000081
:105CE000F09701203000000000000000A99B012077
:105CF0000100000000000000889A0120040000005C
:105D000000000000AA9B012002000000000000002B
:105D10008C9A01200400000000000000AC9B0120D0
:105D20000100000000000000909A01200400000023
:105D300000000000C09201203E00000000000000B2
:105D40006E9B01200200000000000000A0940120D2
:105D50005000000000000000008C0120FA0000004C
:105D600000000000AD9B01200100000000000000C9
:105D7000949A01200400000000000000AE9B012066
:105D80000300000000000000989A012008000000B5
:105D900000000000B19B0120020000000000000094
:105DA000A09A01201000000000000000B39B012019
:105DB0000200000000000000B09A01200400000072
:105DC00000000000B59B0120010000000000000061
:105DD000B49A01200800000000000000BC8D0120E2
:105DE000AA00000000000000BC9A0120040000008E
:105DF00000000000B69B012003000000000000002E
:105E0000849B01200100000000000000B99B0120DC
:105E10000100000000000000C09A01200400000002
:105E2000000000003C92012044000000000000003F
:105E3000C49A01200C00000000000000BA9B012061
:105E40000200000000000000809B01200100000013
:105E5000000000007C9B0120010000000000000009
:105E6000D09A01200800000000000000BC9B012027
:105E70000500000000000000D89A01200400000086
:105E800000000000C19B0120050000000000000090
:105E9000DC9A01201000000000000000C69B0120D9
:105EA0000200000000000000EC9A01200400000045
:105EB00000000000C89B012003000000000000005B
:105EC000F09A01200800000000000000688E012008
:105ED000AA00000000000000F89A01200400000061
:105EE00000000000CB9B012001000000000000002A
:105EF000FC9A01200400000000000000CC9B01205F
:105F00000100000000000000789B01200300000059
:105F100000000000CD9B01200600000000000000F2
:105F2000009B01200400000000000000D39B012022
:105F30000200000000000000049B01200C00000093
:105F400000000000D59B01200100000000000000BF
:105F5000109B01200400000000000000D69B0120DF
:105F60000100000000000000149B0120040000005C
:105F700000000000D79B012001000000000000008D
:105F8000189B01200400000000000000D89B0120A5
:105F900001000000000000001C9B01200400000024
:105FA00000000000D99B012001000000000000005B
:105FB000209B01200800000000000000749B0120CD
:105FC0000100000000000000709B012001000000A3
:105FD000000000006C9B0120010000000000000098
:105FE000289B01201C00000000000000B88F012049
:105FF000A0000000000000008896012010000000B2
:1060000000000000DA9B01200100000000000000F9
:10601000B89601202400000000000000449B0120ED
:106020000400000000000000DB9B012002000000D3
:1060300000000000489B0120040000000000000058
:1060400098960120100000000000000058900120E8
:1060500094000000000000004C9B01200C00000098
:1060600000000000FA8C0120020000000000000087
:10607000269C012002000000010000000401000035
:10608000469C01200200000001000000B400000056
:10609000289C01201E000000010000005AA51B8260
:1060A000524068747470733A2F2F7777772E737419
:1060B000617469712E696E2FFFFF00007F9C0120C3
:1060C00001000000010000000C000000939C012072
:1060D00001000000010000000C000000B79C01203E
:1060E0000100000001000000030000002F9D0120BE
:1060F00001000000010000000F0000003B9D012096
:10610000010000000100000050000000479D012038
:10611000010000000100000014000000489C012064
:106120001E00000001000000454D455247454E430A
:10613000595F425554544F4E5F5052455353454456
:106140002F4F4E0D0A000000689C01201700000030
:1061500001000000454D455247454E4359204255E8
:1061600054544F4E204F46460D0A00009C9D01207E
:1061700004000000010000000000803FB89C0120E6
:106180000E0000000100000047464349204E4F54D6
:10619000204F4B0D0A000000489D01200A0000001E
:1061A0000100000047464349204F4B0D0A00000004
:1061B000A69C012002000000010000000101000077
:1061C000C89C01200E00000001000000494D443130
:1061D000204E4F54204F4B0D0A000000549D0120CB
:1061E0000A00000001000000494D4431204F4B0DD2
:1061F0000A000000D89C01200E00000001000000F1
:10620000494D4432204E4F54204F4B0D0A000000A0
:10621000609D01200A00000001000000494D443249
:10622000204F4B0D0A000000189D01200C000000BB
:106230000100000047415445204F50454E0D0A00D3
:10624000E89C01200E000000010000004741544579
:1062500020434C4F5345440D0A000000A09D0120EF
:106260000400000001000000CDCCCC3FA89C012020
:106270000F000000010000005048415345204E4FE0
:1062800054204F4B0D0A0000249D01200B000000FC
:106290000100000050484153455F4F4B0D0A00007C
:1062A000A49D01200C00000001000000000000403F
:1062B0000000004000B88847309D01200B0000001E
:1062C0000100000052474231204F46460D0A0000AF
:1062D0006C9D01200A00000001000000524742317D
:1062E0005F4F4E0D0A0000003C9D01200B00000096
:1062F0000100000052474232204F46460D0A00007E
:10630000789D01200A00000001000000524742323F
:106310005F4F4E0D0A000000669C01200200000045
:1063200001000000AF4A0000809C01201300000023
:1063300001000000534D4F4B45204953205052451A
:1063400053454E540D0A0000949C01201200000099
:1063500001000000534D4F4B45204E4F54205448F0
:106360004552450D0A000000089D01200D00000067
:1063700001000000535044204E4F54204F4B0D0A53
:1063800000000000849D01200900000001000000C1
:10639000535044204F4B0D0A00000000B09D0120D7
:1063A00008000000010000000000484300004843CE
:1063B000E09B012046000000010000004170706C6D
:1063C00069636174696F6E2072756E2061667465B1
:1063D0007220726563696576696E6720636F6D6DA3
:1063E000616E64207468726F75676820626F6F7485
:1063F0006C6F6164657220646F6E652E2E2E2E0D9B
:106400000A000000F89C01200E00000001000000BE
:10641000494E5445525255505445440D0A0000000F
:10642000B89D012004000000010000000000484366
:10643000589B01200800000000000000A8960120E1
:106440001000000000000000F09401204600000051
:1064500000000000609B012004000000000000001C
:10646000A49101205000000000000000649B012066
:106470000800000000000000BC9D01200400000096
:10648000010000000000000000000000000000000B
:086490006666666666666666D4
:106F380038B50446D4485A230370A5234370072361
:106F480083708223C3701423037102234371D4F81E
:106F580000311A0E82711A0CC2711A0A0272437237
:106F6800CA4B4FF400229A610A212AF0AFF92FF098
:106F780045FF0028FBD0C54B4FF400225A61C24898
:106F88005A210170A5214170052181708221C170AB
:106F9800142101710621417100218171B4F81E117B
:106FA800C1719A6108212AF091F92FF027FF002872
:106FB800FBD0B64B4FF400225A61B3485A210170F6
:106FC800A5214170052181708221C17014210171B0
:106FD8000821417100258571D4F80451C5719A6161
:106FE8002AF074F92FF00AFF0028FBD0A74A4FF4C3
:106FF80000215161A4485A230370A5234370052337
:1070080083708223C370142303710A2343710023FE
:107018008371D4F804311B0AC371916108212AF0E5
:1070280055F92FF0EBFE0028FBD0984B4FF40022C7
:107038005A6195485A210170A52141700521817036
:107048008221C170142101710C21417100218171CB
:10705800B4F80611C1719A6108212AF037F92FF0A6
:10706800CDFE0028FBD0894B4FF400225A61864898
:107078005A210170A5214170052181708221C170BA
:10708800142101710E21417100218171B4F80E1192
:10709800C1719A6108212AF019F92FF0AFFE002872
:1070A800FBD07A4A4FF40021516177485A23037084
:1070B800A5234370052383708223C37014230371AF
:1070C8001023437100238371D4F80C311B0AC37158
:1070D800916108212AF0FAF82FF090FE0028FBD0E1
:1070E8006A4B4FF400225A6167485A210170A52162
:1070F8004170052181708221C17014210171122112
:10710800417100218171D4F80C11C1719A61082173
:107118002AF0DCF82FF072FE0028FBD05B4A4FF40F
:107128000021516158485A230370A523437007234F
:1071380083708223C3701423037116234371D4F818
:1071480020311D0E85711D0CC5711D0A0572437213
:1071580091610A212AF0BAF82FF050FE0028FBD0DE
:107168004A4B4FF400225A6147485A210170A52121
:107178004170052181708221C170142101711A2189
:10718800417100218171B4F83E11C1719A610821E1
:107198002AF09CF82FF032FE0028FBD03B4B4FF42E
:1071A80000225A6138485A210170A52141700521F1
:1071B80081708221C170142101711C21417100214B
:1071C8008171D4F82411C1719A6108212AF07EF8DE
:1071D8002FF014FE0028FBD02C4A4FF400215161F7
:1071E80029485A230370A5234370052383708223FB
:1071F800C370142303711E23437100238371D4F8D1
:1072080024311B0AC371916108212AF05FF82FF01D
:10721800F5FD0028FBD01D4B4FF400225A611A4897
:107228005A210170A5214170052181708221C17008
:10723800142101712021417100218171B4F82611B6
:10724800C1719A6108212AF041F82FF0D7FD002872
:10725800FBD00E4B4FF400225A610B485A210170A3
:10726800A5214170052181708221C170142101710D
:107278002221417100218171B4F82E11C1719A61E6
:1072880008212AF023F803E0189501200080004126
:107298002FF0B4FD0028FBD0D54A4FF400215161EE
:1072A800D4485A230370A52343700523837082238F
:1072B800C370142303712423437100238371D4F80A
:1072C8002C311B0AC3719161082129F0FFFF2FF0AF
:1072D80095FD0028FBD0C64B4FF400225A61C548E3
:1072E8005A210170A5214170052181708221C17048
:1072F800142101712621417100218171D4F82C11CA
:10730800C1719A61082129F0E1FF2FF077FD00286B
:10731800FBD0B74A4FF400215161B6485A23037095
:10732800A5234370072383708223C370142303713A
:107338002A234371D4F840311D0E85711D0CC57187
:107348001D0A0572437291610A2129F0BFFF2FF0CF
:1073580055FD0028FBD0A64B4FF400225A61A548E2
:107368005A210170A5214170052181708221C170C7
:10737800142101712E21417100218171B4F85E112F
:10738800C1719A61082129F0A1FF2FF037FD00286B
:10739800FBD0974B4FF400225A6196485A2101704E
:1073A800A5214170052181708221C17014210171CC
:1073B8003021417100218171D4F84411C1719A6161
:1073C800082129F083FF2FF019FD0028FBD0884AF7
:1073D8004FF40021516187485A230370A523437055
:1073E800052383708223C3701423037132234371EE
:1073F80000238371D4F844311B0AC37191610821B9
:1074080029F064FF2FF0FAFC0028FBD0784B4FF4EA
:1074180000225A6177485A210170A521417005213F
:1074280081708221C17014210171342141710021C0
:107438008171B4F84611C1719A61082129F046FF9B
:107448002FF0DCFC0028FBD0694B4FF400225A6176
:1074580068485A210170A521417005218170822157
:10746800C170142101713621417100218171B4F874
:107478004E11C1719A61082129F028FF2FF0BEFC36
:107488000028FBD05A4A4FF40021516159485A2329
:107498000370A5234370052383708223C3701423CC
:1074A80003713823437100238371D4F84C311B0ACC
:1074B800C3719161082129F009FF2FF09FFC002872
:1074C800FBD04B4B4FF400225A614A485A210170B5
:1074D800A5214170052181708221C170142101719B
:1074E8003A21417100218171D4F84C11C1719A611E
:1074F800082129F0EBFE2FF081FC0028FBD03C4A44
:107508004FF4002151613B485A230370A52343706F
:10751800072383708223C3701423037140234371AC
:10752800D4F860311D0E85711D0CC5711D0A0572D8
:10753800437291610A2129F0C9FE2FF05FFC0028EF
:10754800FBD02B4B4FF400225A612A485A21017074
:10755800A5214170052181708221C170142101711A
:107568004421417100218171B4F87E11C1719A6181
:10757800082129F0ABFE2FF041FC0028FBD01C4B62
:107588004FF400225A611B485A210170A52141700D
:10759800052181708221C170142101714621417138
:1075A80000218171D4F86411C1719A61082129F010
:1075B8008DFE2FF023FC0028FBD00D4A4FF400214C
:1075C80051610C485A230370A52343700523837027
:1075D8008223C370142303714823437100238371EA
:1075E800D4F864311B0AC3719161082104E000BF1B
:1075F800008000411895012029F068FE2FF0FEFB5D
:107608000028FBD0D54B4FF400225A61D4485A21A8
:107618000170A5214170052181708221C17014215A
:1076280001714A21417100218171B4F86611C1715B
:107638009A61082129F04AFE2FF0E0FB0028FBD0D0
:10764800C64B4FF400225A61C5485A210170A52142
:107658004170052181708221C170142101714C2172
:10766800417100218171B4F86E11C1719A610821CC
:1076780029F02CFE2FF0C2FB0028FBD0B74A4FF4AC
:1076880000215161B6485A230370A523437005238E
:1076980083708223C370142303714E234371002324
:1076A8008371D4F86C311B0AC3719161082129F0E8
:1076B8000DFE2FF0A3FB0028FBD0A84B4FF40022AF
:1076C8005A61A7485A210170A5214170052181708E
:1076D8008221C170142101715021417100218171F1
:1076E800D4F86C11C1719A61082129F0EFFD2FF0CF
:1076F80085FB0028FBD0994A4FF400215161984836
:107708005A230370A5234370072383708223C37011
:107718001423037156234371D4F880311D0E8571EB
:107728001D0CC5711D0A0572437291610A2129F069
:10773800CDFD2FF063FB0028FBD0884B4FF40022CF
:107748005A6187485A210170A5254570052585701D
:107758008225C57014250571417100218171B4F825
:107768009E11C1719A61082129F0B0FD2FF046FBE6
:107778000028FBD0794B4FF400225A6178485A21EF
:107788000170A5214170052181708221C1701421E9
:1077980001715C21417100218171D4F88411C1719A
:1077A8009A61082129F092FD2FF028FB0028FBD0D0
:1077B8006A4A4FF40021516169485A230370A5238E
:1077C8004370052383708223C370142303715E23DF
:1077D800437100238371D4F884311B0AC37191610A
:1077E800082129F073FD2FF009FB0028FBD05B4B23
:1077F8004FF400225A615A485A210170A52141705C
:10780800052181708221C1701421017160214171AB
:1078180000218171B4F88611C1719A61082129F09B
:1078280055FD2FF0EBFA0028FBD04C4B4FF400220B
:107838005A614B485A210170A52141700521817078
:107848008221C1701421017162214171002181716D
:10785800B4F88E11C1719A61082129F037FD2FF013
:10786800CDFA0028FBD03D4A4FF4002151613C4835
:107878005A230370A5234370052383708223C370A2
:10788800142303716423437100238371D4F88C316A
:107898001B0AC3719161082129F018FD2FF0AEFA77
:1078A8000028FBD02D4B4FF400225A612C485A2156
:1078B8000170A5214170052181708221C1701421B8
:1078C80001716621417100218171D4F88C11C17157
:1078D8009A61082129F0FAFC2FF090FA0028FBD0D1
:1078E8001E4A4FF4002151611D485A230370A523F5
:1078F8004370072383708223C370142303716C239E
:107908004371D4F8A0311D0E85711D0CC5711D0A77
:107918000572437291610A2129F0D8FC2FF06EFAA2
:107928000028FBD00D4B4FF400225A610C485A2115
:107938000170A5214170052181708221C170142137
:1079480001717021417100218171B4F8BE11C171BA
:107958009A61082129F0BAFC04E000BF00800041C8
:10796800189501202FF04AFA0028FBD0D44B4FF489
:1079780000225A61D3485A210170A521417005217E
:1079880081708221C170142101717221417100211D
:107998008171D4F8A411C1719A61082129F096FC6B
:1079A8002FF02CFA0028FBD0C54A4FF40021516172
:1079B800C4485A230370A523437005238370822388
:1079C800C370142303717423437100238371D4F8A3
:1079D800A4311B0AC3719161082129F077FC2FF0AB
:1079E8000DFA0028FBD0B64B4FF400225A61B54877
:1079F8005A210170A5214170052181708221C17031
:107A0800142101717621417100218171B4F8A61108
:107A1800C1719A61082129F059FC2FF0EFF900286B
:107A2800FBD0A74B4FF400225A61A6485A21017097
:107A3800A5214170052181708221C1701421017135
:107A48007821417100218171B4F8AE11C1719A6138
:107A5800082129F03BFC2FF0D1F90028FBD0984AE7
:107A68004FF40021516197485A230370A5234370AE
:107A7800052383708223C370142303717A2343710F
:107A880000238371D4F8AC311B0AC37191610821BA
:107A980029F01CFC2FF0B2F90028FBD0884B4FF4DA
:107AA80000225A6187485A210170A5214170052199
:107AB80081708221C170142101717C2141710021E2
:107AC8008171D4F8AC11C1719A61082129F0FEFBCB
:107AD8002FF094F90028FBD0794A4FF40021516126
:107AE80078485A230370A5234370072383708223A1
:107AF800C3701423037180234371D4F8C0311D0E61
:107B080085711D0CC5711D0A0572437291610A21A8
:107B180029F0DCFB2FF072F90028FBD0684B4FF4FA
:107B280000225A6167485A210170A5214170052138
:107B380081708221C1701421017184214171002159
:107B48008171B4F8DE11C1719A61082129F0BEFB78
:107B58002FF054F90028FBD0594B4FF400225A61FA
:107B680058485A210170A521417005218170822150
:107B7800C170142101718621417100218171D4F8ED
:107B8800C411C1719A61082129F0A0FB2FF036F9C0
:107B98000028FBD04A4A4FF40021516149485A2332
:107BA8000370A5234370052383708223C3701423B5
:107BB80003718823437100238371D4F8C4311B0AED
:107BC800C3719161082129F081FB2FF017F9002872
:107BD800FBD03B4B4FF400225A613A485A210170BE
:107BE800A5214170052181708221C1701421017184
:107BF8008A21417100218171B4F8C611C1719A615D
:107C0800082129F063FB2FF0F9F80028FBD02C4B52
:107C18004FF400225A612B485A210170A521417066
:107C2800052181708221C170142101718C2141715B
:107C380000218171B4F8CE11C1719A61082129F02F
:107C480045FB2FF0DBF80028FBD01D4A4FF400213C
:107C580051611C485A230370A52343700523837080
:107C68008223C370142303718E234371002383710D
:107C7800D4F8CC311B0AC3719161082129F026FB85
:107C88002FF0BCF80028FBD00D4B4FF400225A61AE
:107C98000C485A210170A52141700521817082216B
:107CA800C170142101719021417100218171D4F8B2
:107CB800CC11C1719A61082129F008FB04E000BFCA
:107CC80000800041189501202FF098F80028FBD07B
:107CD8007D4A4FF4002151617C485A230370A52343
:107CE8004370072383708223C37014230371942382
:107CF8004371D4F8E0311D0E85711D0CC5711D0A44
:107D08000572437291610A2129F0E0FA2FF076F8A2
:107D18000028FBD06C4B4FF400225A616B485A2163
:107D28000170A5214170052181708221C170142143
:107D380001719821417100218171B4F8FE11C1715E
:107D48009A61082129F0C2FA2FF058F80028FBD0D0
:107D58005D4B4FF400225A615C485A210170A521FD
:107D68004170052181708221C170142101719A210D
:107D7800417100218171D4F8E411C1719A6108211F
:107D880029F0A4FA2FF03AF80028FBD04E4A4FF415
:107D9800002151614D485A230370A52343700523E0
:107DA80083708223C370142303719C2343710023BF
:107DB8008371D4F8E4311B0AC3719161082129F059
:107DC80085FA2FF01BF80028FBD03F4B4FF4002218
:107DD8005A613E485A210170A521417005218170E0
:107DE8008221C170142101719E214171002181718C
:107DF800B4F8E611C1719A61082129F067FA2EF0EA
:107E0800FDFF0028FBD0304B4FF400225A612F4869
:107E18005A210170A5214170052181708221C1700C
:107E280014210171A021417100218171B4F8EE1172
:107E3800C1719A61082129F049FA2EF0DFFF002864
:107E4800FBD0214A4FF40021516120485A23037086
:107E5800A5234370052383708223C3701423037101
:107E6800A223437100238371D4F8EC311B0AC37138
:107E78009161082129F02AFA2EF0C0FF0028FBD0D2
:107E8800114B4FF400225A6110485A210170A52164
:107E98004170052181708221C17014210171A421D2
:107EA800417100218171D4F8EC11C1719A610821E6
:107EB80029F00CFA2EF0A2FF0028FBD0024B4FF459
:107EC80000225A6138BD00BF00800041189501208A
:107ED80038B50446D4485A230370A52343700723B2
:107EE80083708223C3701423037102234371D4F86F
:107EF80000311A0E82711A0CC2711A0A0272437288
:107F0800CA4B4FF400229A610A2129F0DFF92EF0BA
:107F180075FF0028FBD0C54B4FF400225A61C248B8
:107F28005A210170A5214170052181708221C170FB
:107F3800142101710621417100218171B4F81E11CB
:107F4800C1719A61082129F0C1F92EF057FF002864
:107F5800FBD0B64B4FF400225A61B3485A21017046
:107F6800A5214170052181708221C1701421017100
:107F78000821417100258571D4F80451C5719A61B1
:107F880029F0A4F92EF03AFF0028FBD0A74A4FF4B5
:107F980000215161A4485A230370A5234370052387
:107FA80083708223C370142303710A23437100234F
:107FB8008371D4F804311B0AC3719161082129F037
:107FC80085F92EF01BFF0028FBD0984B4FF40022B8
:107FD8005A6195485A210170A52141700521817087
:107FE8008221C170142101710C214171002181711C
:107FF800B4F80611C1719A61082129F067F92EF0C9
:10800800FDFE0028FBD0894B4FF400225A618648B8
:108018005A210170A5214170052181708221C1700A
:10802800142101710E21417100218171B4F80E11E2
:10803800C1719A61082129F049F92EF0DFFE002864
:10804800FBD07A4A4FF40021516177485A230370D4
:10805800A5234370052383708223C37014230371FF
:108068001023437100238371D4F80C311B0AC371A8
:108078009161082129F02AF92EF0C0FE0028FBD0D2
:108088006A4B4FF400225A6167485A210170A521B2
:108098004170052181708221C17014210171122162
:1080A800417100218171D4F80C11C1719A610821C4
:1080B80029F00CF92EF0A2FE0028FBD05B4A4FF401
:1080C8000021516158485A230370A52343700723A0
:1080D80083708223C3701423037116234371D4F869
:1080E80020311D0E85711D0CC5711D0A0572437264
:1080F80091610A2129F0EAF82EF080FE0028FBD0D1
:108108004A4B4FF400225A6147485A210170A52171
:108118004170052181708221C170142101711A21D9
:10812800417100218171B4F83E11C1719A61082131
:1081380029F0CCF82EF062FE0028FBD03B4B4FF420
:1081480000225A6138485A210170A5214170052141
:1081580081708221C170142101711C21417100219B
:108168008171D4F82411C1719A61082129F0AEF8FF
:108178002EF044FE0028FBD02C4A4FF40021516118
:1081880029485A230370A52343700523837082234B
:10819800C370142303711E23437100238371D4F821
:1081A80024311B0AC3719161082129F08FF82EF040
:1081B80025FE0028FBD01D4B4FF400225A611A48B7
:1081C8005A210170A5214170052181708221C17059
:1081D800142101712021417100218171B4F8261107
:1081E800C1719A61082129F071F82EF007FE002864
:1081F800FBD00E4B4FF400225A610B485A210170F4
:10820800A5214170052181708221C170142101715D
:108218002221417100218171B4F82E11C1719A6136
:10822800082129F053F803E0189501200080004147
:108238002EF0E4FD0028FBD0D54A4FF4002151610F
:10824800D4485A230370A5234370052383708223DF
:10825800C370142303712423437100238371D4F85A
:108268002C311B0AC3719161082129F02FF82EF0D7
:10827800C5FD0028FBD0C64B4FF400225A61C54803
:108288005A210170A5214170052181708221C17098
:10829800142101712621417100218171D4F82C111A
:1082A800C1719A61082129F011F82EF0A7FD002864
:1082B800FBD0B74A4FF400215161B6485A230370E6
:1082C800A5234370072383708223C370142303718B
:1082D8002A234371D4F840311D0E85711D0CC571D8
:1082E8001D0A0572437291610A2128F0EFFF2EF0F2
:1082F80085FD0028FBD0A64B4FF400225A61A54803
:108308005A210170A5214170052181708221C17017
:10831800142101712E21417100218171B4F85E117F
:10832800C1719A61082128F0D1FF2EF067FD00285D
:10833800FBD0974B4FF400225A6196485A2101709E
:10834800A5214170052181708221C170142101711C
:108358003021417100218171D4F84411C1719A61B1
:10836800082128F0B3FF2EF049FD0028FBD0884AE9
:108378004FF40021516187485A230370A5234370A5
:10838800052383708223C37014230371322343713E
:1083980000238371D4F844311B0AC3719161082109
:1083A80028F094FF2EF02AFD0028FBD0784B4FF4DC
:1083B80000225A6177485A210170A5214170052190
:1083C80081708221C1701421017134214171002111
:1083D8008171B4F84611C1719A61082128F076FFBD
:1083E8002EF00CFD0028FBD0694B4FF400225A6197
:1083F80068485A210170A5214170052181708221A8
:10840800C170142101713621417100218171B4F8C4
:108418004E11C1719A61082128F058FF2EF0EEFC28
:108428000028FBD05A4A4FF40021516159485A2379
:108438000370A5234370052383708223C37014231C
:1084480003713823437100238371D4F84C311B0A1C
:10845800C3719161082128F039FF2EF0CFFC002864
:10846800FBD04B4B4FF400225A614A485A21017005
:10847800A5214170052181708221C17014210171EB
:108488003A21417100218171D4F84C11C1719A616E
:10849800082128F01BFF2EF0B1FC0028FBD03C4A35
:1084A8004FF4002151613B485A230370A5234370C0
:1084B800072383708223C3701423037140234371FD
:1084C800D4F860311D0E85711D0CC5711D0A057229
:1084D800437291610A2128F0F9FE2EF08FFC0028E2
:1084E800FBD02B4B4FF400225A612A485A210170C5
:1084F800A5214170052181708221C170142101716B
:108508004421417100218171B4F87E11C1719A61D1
:10851800082128F0DBFE2EF071FC0028FBD01C4B54
:108528004FF400225A611B485A210170A52141705D
:10853800052181708221C170142101714621417188
:1085480000218171D4F86411C1719A61082128F061
:10855800BDFE2EF053FC0028FBD00D4A4FF400213D
:1085680051610C485A230370A52343700523837077
