:020000040000fa
:10000000f0ff032031c80200bfe10200abf802009c
:10001000530c03005f0e03005f0f0300000000009d
:10002000000000000000000000000000d1080300f4
:10003000130a03000000000071d60200f9fc020060
:100040009110030091100300911003009110030020
:100050009110030091100300911003009110030010
:100060009110030091100300911003009110030000
:1000700091100300150a0300350a030091100300d4
:1000800091100300550a0300750a0300950a030046
:10009000590803007d080300a10803003d06030082
:1000a00065060300911003009110030091100300f6
:1000b00091100300911003009110030091100300b0
:1000c00091100300911003009110030091100300a0
:1000d0009110030091100300911003009110030090
:1000e00091100300911003000000000000000000c8
:1000f0000000000091100300911003009110030014
:10010000911003009110030091100300911003005f
:100110009110030091100300eddb0200eddb020003
:10012000eddb0200eddb0200a1a40200a1a40200ad
:10013000a1a40200a1a40200cdd90200cdd90200e1
:10014000cdd90200cdd902003ddb02003ddb02002b
:100150003ddb02003ddb020095db020095db020087
:1001600095db020095db020045dc020045dc020065
:1001700045dc020045dc02005dbc0200edbd020072
:1001800091100300911003009110030091100300df
:100190000000000091100300911003009110030073
:1001a00091100300911003009110030091100300bf
:1001b00091100300911003009110030091100300af
:1001c000911003009110030091100300911003009f
:1001d000911003009110030091100300911003008f
:1001e000911003009110030091100300911003007f
:1001f000911003009110030091100300911003006f
:10020000911003009110030091100300911003005e
:10021000911003009110030091100300911003004e
:10022000911003009110030091100300911003003e
:10023000911003009110030091100300911003002e
:10024000911003009110030091100300911003001e
:10025000911003009110030091100300911003000e
:020000040000fa
:10026000f8b500bff8bc08bc9e4670479de7020089
:10027000f8b500bff8bc08bc9e46704779e702009d
:020000040000fa
:08028000247f020001000000d0
:020000040000fa
:100288002de9f04ffdb000247a947b9478948df892
:10029800e441adf8dc417594769474947194729449
:1002a8008df8cc416f94cdf8bf416c946d946e94e9
:1002b80069946a946b946694679468945f94609464
:1002c800619462946394649465945b945c945d9483
:1002d800adf8784155945694579458945994cdf85c
:1002e8006741a022214617a830f01efe15941694e7
:1002f8001e22214605a830f017fedff82483b04cf3
:10030800dff82093af4ddff820b3dff820a327e212
:1003180000262e80abf80060ab4b1e70ab4b1e80e6
:1003280032467aa9aa4b18682bf026f9324678a9e2
:10033800a84b18682bf020f9324677a9a64b186805
:100348002bf01af99df8ef31012b40f0d3819df87d
:10035800e231002b40f0ce819df8e1316d2b26d89b
:100368009df8e131632b00f2c5819c4f6c974023c7
:100378008df8ba319a4e002364226ca930682af0ad
:10038800dbff4ff47a702ff0d7f96c9700238df8c4
:1003980096318df8ba3164226ca930682af0ccff06
:1003a80064202ff0c9f98f4b01221a70a2e18e4bfd
:1003b8001e608e4b1e60894b6c9340238df8ba31ba
:1003c800874f334664226ca938682af0b5ff4ff48a
:1003d8007a702ff0b1f9814b6c938df896618df896
:1003e800ba61334664226ca938682af0a5ff6420f4
:1003f8002ff0a2f97b4b01221a700c2389f80030e8
:10040800aee77b4b699300268df8a86133466422da
:1004180069a9784800682af08fff64202ff08cf9ca
:10042800754b669301278df872718df89c718df864
:1004380073618df89d618df874618df89e61334606
:10044800642266a96d4800682af076ff64202ff0c0
:1004580073f9624b6c938df894718df8b5713346ce
:1004680064226ca95e4800682af066ff64202ff0b9
:1004780063f9324677a9584b18682bf07df89df838
:10048800dc31bb4240f03681564b02221a7031e112
:10049800524e6c9640238df8ba31514f0023642296
:1004a8006ca938682af048ff4ff47a702ff044f9a5
:1004b8006c9600268df896618df8ba6133466422f1
:1004c8006ca938682af038ff64202ff035f93246d5
:1004d80078a9404b18682bf04ff8002800f00a81e3
:1004e8009df8e131503bdbb21d2b25d99df8e13158
:1004f8006d2b0dd9424b1b78002b00f09980414b96
:1005080000221a700c2389f8003001202ff032fce9
:100518003d4b1b681e2b40f3ed803b4b00221a60bd
:10052800374b1b7823b9394b4ff48032c3f89820e6
:100538002c4b00221a70dde002202ff01bfc334bfd
:100548004ff48032c3f89420092389f800302d4bea
:1005580001221a70244b1b6893420ed02c4b1b7837
:10056800022b18d0204b1b6813b91e4b03221a709c
:10057800254a136801331360b8e732468df84060a6
:10058800022310a9234800682af0d6fe224b1868d7
:100598002bf048ffe2e71e4b5b78012be2d1114bb1
:1005a80003221a7000228df84420022311a91b4847
:1005b80000682af0c1fe0d4b01221a60d2e700bf85
:1005c800dc990120b49a0120eb9a0120429601207f
:1005d8009099012094990120b899012002c4ec1542
:1005e80058990120a19a01201c9a0120249a0120df
:1005f80001c4ec153c99012002d4ec152c9901207a
:10060800bd9a0120c29a0120089a01200080004169
:10061800a89a012058980120409801206498012048
:10062800cc9a0120959a0120b89a0120ca9a0120f3
:10063800b64b4ff48032c3f898204ff6ff702ef077
:10064800d7f90023b24a1360b24a1360b24b1b7841
:10065800002b7ff454afb04b01221a70af4b1878bf
:100668002cf0c8ff4be70026ad4b1e60ad4b6993dd
:1006780008238df857318df8ab313346642269a9c8
:10068800a94800682af058fe4ff47a702ff054f801
:10069800a64f6c978df895618df8b8618df89661c5
:1006a8008df8ba618df897618df8bb613346642285
:1006b8006ca99f4800682af03ffe4ff47a702ff02b
:1006c8003bf8324677a99b4b18682af055ff6c9780
:1006d80002238df894318df8b531334664226ca924
:1006e800934800682af028fe64202ff025f8924be2
:1006f80004221a7099f800308df851302a88adf824
:100708004e20bbf80020adf84c209af800208df858
:10071800522098f800208df850208df84830022398
:10072800002213a9854800682af006fe0223002249
:1007380012a9834800682af0fffd2368012b0bd11a
:10074800002323607c4a13707e4b18682bf06afee6
:100758007d4b18682bf0b2f94ff448702ef0ecff7f
:1007680000220da9794b18682af006ff28b1784aab
:100778009df8343011880b4413806f4b1b78dbb223
:100788001e2bb7d801a252f823f000bf19030000ae
:100798000b040000990400006f0600001108000017
:1007a800fd06000085080000fd060000fd060000ab
:1007b800fd060000fd060000fd060000fd06000025
:1007c800fd060000fd060000fd060000ff09000010
:1007d800fd060000290b0000550d0000250e000045
:1007e800fd060000b9100000fd060000fd0600002f
:1007f800fd060000fd060000fd060000fd060000e5
:10080800fd0600009f1b0000002278a9514b1868c4
:100818002af0b2fe002277a9464b18682af0acfeef
:100828009df8e231012b1fd09df8dc31fa2b02d064
:10083800fc2b00d013b9404b00221a709df8e1310f
:100848006d2b7ff657af444b1b7823b92f4b4ff4d2
:100858008032c3f898200023404a13700c2289f88c
:100868000020354a137045e79df8e131503bdbb273
:100878001d2bd9d8304b06221a70d5e70022264bfb
:100888001a7077a92b4b18682af076fe9df8dc3190
:10089800312b0ed91e4b1b68012b28d0002b41f0a1
:1008a8008f8200226fa92e4b18682af065fe002857
:1008b8005ad19df8dc31fa2b02d0fc2b00d053b969
:1008c800134a1268012a19d02ab91b4a002111704b
:1008d8000f4a012111600a2b7ff40caf214b1b78c2
:1008e8000133dbb2f02b76d01e4a137002e7124bad
:1008f80010221a709df8dc31fa2bded10e4a002145
:100908001170034a01211160e5e700bf0080004132
:100918001c9a0120249a0120f69a0120519b01205b
:10092800089a012001c4ec153c99012002c4ec1579
:1009380058990120b8990120a19a012054980120c2
:10094800149801208c98012044990120889801204e
:100958004296012094990120bd9a0120c29a012053
:10096800a0990120029b01209df8bc318df83830f8
:100978009df8bd318df839309df8be318df83a308b
:100988009df8bf318df83b309df8c0318df83c3073
:100998009df8c1318df83d30022300220ea952483e
:1009a80000682af0c9fc9df83830002b81d04f4be5
:1009b80001221a604e4b10221a7002238df8403023
:1009c800002210a94b4800682af0b6fc4a4b186868
:1009d8002bf028fd6de70023484a1370444a137032
:1009e800474b40f233121a80464b02221a701120ec
:1009f8002cf000fe7ee6414b00221a70424b1b6829
:100a08006bbb424b1b78022b2dd1404b5b78012be3
:100a180029d116468df84420022311a93c480068c4
:100a28002af08afc3b4b6c9301238df896318df8a4
:100a3800ba31334664226ca9374800682af07cfc36
:100a480064202ef079fe324677a9344b18682af0d4
:100a580093fd274b12221a700e202cf0cbfd2a4b47
:100a68001b68012b22d0002277a92c4b18682af08a
:100a780083fd9df8dc31fa2b04d0fc2b02d0002b2f
:100a88007ff438ae1a4b00221a70184b01221a60f4
:100a98001b4b4ff49a721a801a4b02221a700620c6
:100aa8002ff0ecf911202cf0a5fd23e6194b6c93df
:100ab80001238df896318df8ba31002364226ca990
:100ac800154800682af038fc64202ef035fe002214
:100ad80077a9124b18682af04ffd054b12221a709d
:100ae8000e202cf087fdbee75c9801201c9a01209f
:100af800a19a01205898012040980120029b0120ca
:100b080082970120d09a0120249a0120a89a0120d6
:100b18006498012002c4ec1558990120b899012065
:100b28000123a84a1360a84a4ff40011c2f818110b
:100b380000225292a54a53928df8503102238df823
:100b48005131002252a9a24800682af0f5fba14bb6
:100b580018682bf067fc002275a99f4b18682af0cb
:100b68000bfd002800f0d7809df8d4319df8d521e1
:100b780002eb0322994981fb0232931007ee903a67
:100b8800f8eee77a9df8d6219df8d73103eb0223da
:100b980081fb03239b1007ee103ab8eec77abdee2f
:100ba800c77a17ee103a8e4a92fbf3f303eb8303ee
:100bb8005b0007ee103ab8eec77a8a4b83ed007aed
:100bc800b2ee047a67ee877a93ed007af4eec77a8c
:100bd800f1ee10fa48bfc3ed007a834b6c93002600
:100be8008df8ba61334664226ca9804800682af0ff
:100bf800a3fb64202ef0a0fd7d4b6993794ad2edca
:100c0800007afceee77a17ee903a8df8a831d2ed2b
:100c1800007afceee77a17ee903ac3f307238df8d3
:100c2800a931e0238df8aa312e238df8ab314ff08e
:100c380010028df8ac2127238df8ad3114278df8db
:100c4800ae718df8af613346642269a969480068be
:100c58002af072fb4ff496702ef06efd8df8a87195
:100c68008df8a961c8238df8aa318df8ab618df88c
:100c7800ac718df8ad6164278df8ae718df8af61f8
:100c88005d4b699333463a4669a95a4800682af089
:100c980053fb4ff496702ef04ffd02238df89631da
:100ca8008df8ba31504b6c9333463a466ca94f488d
:100cb80000682af041fb38462ef03efd10202cf04b
:100cc80099fc324677a94d4b18682af055fc9df8d7
:100cd800dc21a2f15b03dbb2092b08d8484b1322b5
:100ce8001a70394b4ff48012c3f8142113e0fa2a12
:100cf80001d0fc2a27d1424b00221a70414b40f206
:100d080035121a80404b02221a7008202ff0b6f8cc
:100d180011202cf06ffc00260e96adf83c600223e3
:100d280032460ea9394800682af006fb8df8406063
:100d38000223324610a9364800682af0fdfa354bde
:100d48001e809e70d6e4002ad5d0e4e7002278a958
:100d5800314b18682af010fc9df8e131312b7ff6f1
:100d6800c9ac194bd3f8203113f0807f19d1012376
:100d78008df895318df8b8310c238df896318df8b2
:100d8800ba31194b6c93002364226ca91748006888
:100d98002af0d2fa64202ef0cffc194b14221a70d4
:100da800a8e4174b00221a70164b40f235121a802d
:100db800154b02221a7007202ff060f811202cf032
:100dc80019fc97e4249a0120008000410000484360
:100dd800f0980120f4980120a899012067666666ba
:100de800c0d40100cc98012002c4ec155899012008
:100df80003c4ec153c99012004c0ec15b8990120f6
:100e0800a19a012082970120d09a01205c980120a4
:100e180058980120a89a012094990120002274a9c9
:100e2800874b18682af0a8fb9df8d0319df8d1218e
:100e380002eb0322834981fb0232921007ee902acb
:100e4800f8eee77a804bc3ed007a9df8d2219df841
:100e5800d33103eb022381fb03239b1007ee103ae7
:100e6800b8eec77a794b83ed007a4ff080435293fe
:100e7800cded537a01238df8503102238df851318d
:100e8800002252a9724800682af056fa714b186875
:100e98002bf0c8fa9df8d1318df8b4319df8d031d6
:100ea8008df8b5319df8d3318df8b6319df8d23132
:100eb8008df8b731684b6c93002364226ca967489e
:100ec80000682af039fa64202ef036fc644b187852
:100ed8002cf090fb002277a9624b18682af04cfb93
:100ee80000283ff407ac9df8dc31782b1ad09df828
:100ef800dc31fa2b04d0fc2b02d0002b7ff4faaba8
:100f0800594b00221a70594b4ff49b721a80584b58
:100f180002221a7008202ef0b1ff11202cf06afb73
:100f2800fff7e8bb534b1f6830f03af84ef66026df
:100f3800009600230246012138462df063f94e4bf6
:100f48001f6830f02df8009600230246012138462c
:100f58002df058f9494b1f6830f022f8009600230d
:100f68000246012138462df04df9454b1f6830f0f7
:100f780017f8009600230246012138462df042f961
:100f8800404b1f6830f00cf8009600230246012100
:100f980038462df037f93c4b1f6830f001f80096c1
:100fa80000230246012138462df02cf92e4b16223b
:100fb8001a70364b18782ef095f964202ef0bcfb89
:100fc800334e30782ef0aaf964202ef0b5fb314f5d
:100fd80038882ef0bff964202ef0aefb2e49087831
:100fe8002ef0f0f964202ef0a7fb2c4800782ef0a4
:100ff800cdf964202ef0a0fb294a10782ef0fef9d6
:1010080064202ef099fb274b1a68274b1a60274b50
:1010180018682bf007fa398833781c4a12781b02b3
:1010280043ea0143134343931c4801781a4b1b7846
:101038001b4a12781b0243ea01431343449356e7c1
:10104800b099012067666666809a0120ec990120b4
:10105800f0980120f498012005c4ec155899012056
:10106800519b0120b8990120a19a01208297012063
:10107800d09a0120d09901204c9a0120509a012041
:10108800549a0120589a012094980120dc9a012052
:10109800f49a01205a8d0120f39a0120e59a012043
:1010a800009b0120b498012018990120c0980120c4
:1010b80047f230502df09cfc01238df8fc300223c0
:1010c80000223fa98c4800682af036f903202ef048
:1010d80051fe8a4b18882ef05df8894b1b78072b38
:1010e80000f00581002274a9864b18682af044fa9a
:1010f800002840f02d8164202ef01efb9df8d13190
:101108008df8b4319df8d0318df8b5319df8d331d3
:101118008df8b6319df8d2318df8b7317a4b6c9392
:10112800002364226ca9794800682af005f9642034
:101138002ef002fb002271a9754b18682af01cfae0
:10114800a0b1744a13789df8c6017349c8540621a2
:1011580089f8001001331370694b1b78042b40f297
:101168000084674b1b78052b00f007846b4b1b78ba
:10117800052b00f00b84674b1b78052b00f07d8452
:10118800674b1b782bb9674b1b78dbb2012b00f040
:101198009384634b1b78dbb2012b00f098849df895
:1011a800dc31292b03d0fa2b01d0fc2b4ad10026a5
:1011b8005c4b1e7002278df851718df850613b46cb
:1011c800324652a9584800682af0b6f840f6b830b6
:1011d8002ef0b2fa03238df894318df8b531534bc4
:1011e8006c93334664226ca9484800682af0a4f836
:1011f80032202ef0a1fa8df8b4618df8b561424b1a
:101208006c93334664226ca9404800682af094f82d
:1012180032202ef091fa464b4ff48012c3f8182171
:10122800444b1e221a70092389f80030424bca2207
:101238001a80424b1f700a202ef020fe404b1a687d
:10124800404b1a609df8c431012b00f057843e4b87
:101258001b78022b7ff44eaa3b4b9b78012b7ff423
:1012680049aa00262f4b1e708df8506102238df875
:101278005131324652a92c4800682af05df840f6f0
:10128800b8302ef059fa03238df894318df8b53122
:10129800264b6c931d4f334664226ca938682af09c
:1012a8004bf832202ef048fa8df8b4618df8b5610c
:1012b800154b6c93334664226ca938682af03cf8c5
:1012c80032202ef039fa1a4b4ff48012c3f8182145
:1012d800184b1e221a70092389f800301a4b1e80f9
:1012e8009e70174b1a68174b1a60fff703ba174b13
:1012f80018782ef057fcf5e6bc980120429601209c
:10130800eb9a0120b099012005c4ec1558990120e9
:10131800ac990120e89a012084970120f09a0120d5
:10132800bd9a0120c29a0120f098012002c4ec1550
:1013380000800041a19a012082970120d09a0120c3
:10134800b498012020990120a89a0120a59a01208b
:101358009df8d2219df8d33103eb0223c34a82fbc7
:1013680003139b0807ee903af8ee677ac04bc3ed7b
:10137800007a9df8d0119df8d13103eb012382fb4f
:1013880003239b0807ee103ab8ee477ab94b83ed72
:10139800007a17ee900a2ef051fa02460b46b6492b
:1013a80005a82ff045fc1e2105a82bf023fe2ff0e1
:1013b8005bfd0028fbd0ae4bd3ed007aad4bd3edef
:1013c800006a27eea67aad4b83ed007aac4b1b780a
:1013d800002b40f08780ab4b1a68ab4b1a6093ed3b
:1013e800006ab4eec67af1ee10fa34d5a74b1b7832
:1013f80033bb9feda77a76ee876acded536aa24b91
:1014080093ed006aa34bd3ed006a86ee267af4eedc
:10141800c77af1ee10fac0f28880f5ee007a27ee6e
:10142800277a8ded527a03238df8513101238df8f7
:1014380050310223002252a99748006829f07cff06
:10144800924b1b78dbb2012b7cd0904b1b78dbb224
:10145800012b00f0be808c4bd3ed007a874b93edc7
:10146800007ab4eee77af1ee10fa3bdd874b1b7891
:1014780063bb804bd3ed007a9fed857a77ee877a50
:10148800cded537a804bd3ed006a824bd3ed007ad1
:1014980086eea77a764bd3ed007ab4eee77af1eed2
:1014a80010fa00f2d580f5ee007a27ee277a8ded56
:1014b800527a03238df8513101238df850310223dc
:1014c800002252a97448006829f036ff6f4b1b7838
:1014d800dbb2012b00f0ec806c4b1b78dbb2012bec
:1014e80000f02d81664b1b78dbb2012b00f0668182
:1014f8006a490a7890006a4e06449df8d2719df8b0
:10150800d33103eb0723594f87fb03739b0807ee7f
:10151800903af8ee677ac6ed007a624b03445d486c
:101528000068186001320a70e5e5f4eec77af1ee5a
:1015380010fa7ff578afb5ee007a67ee877acdedd1
:10154800527a70e7584b1b78dbb2112b7ff67dafd0
:10155800564b4ff40012c3f81821464bd3ed007ace
:101568009fed4b7a77ee877acded537a464bd3ede4
:10157800007ab6ee007a67ee877a464bd3ed006aba
:1015880087eea67a3a4bd3ed007ab4eee77af1ee1d
:1015980010fa12d8f6ee007a27ee277a8ded527af5
:1015a80002238df8513101228df85021002252a9d1
:1015b8003948006829f0c0fe4de7b4eee77af1ee4d
:1015c80010faedddb6ee007a67ee877acded527a45
:1015d800e6e7354b1b78dbb2112b3ff63caf254bca
:1015e800d3ed007a9fed2a7a77ee877acded537a9c
:1015f800254bd3ed006a274bd3ed007a86eea77a08
:101608001b4bd3ed007ab4eee77af1ee10fa13d85b
:10161800f5ee007a27ee277a8ded527a03238df8be
:10162800513101238df850310223002252a91a4862
:10163800006829f081fe0ee7b4eee77af1ee10fac1
:10164800ecddb5ee007a67ee877acded527ae5e704
:10165800b4eee77af1ee10fa7ff72bafb5ee007a29
:1016680067ee877acded527a23e700bf6766666634
:10167800ec990120809a0120f0220100489a01206b
:10168800c89a01203c9b0120e4980120bd9a0120c2
:1016980000000000449b0120f0980120f09a0120ee
:1016a800a0950120c89501209d9a01200080004145
:1016b800bf4b1b78dbb2112b7ff60eafbd4b4ff43f
:1016c8000012c3f81821bc4bd3ed007a9fedbb7a0a
:1016d80077ee877acded537ab94bd3ed007ab6ee33
:1016e800007a67ee877ab74bd3ed006a87eea67a61
:1016f800b54bd3ed007ab4eee77af1ee10fa12d8d2
:10170800f6ee007a27ee277a8ded527a02238df8cd
:10171800513101228df85021002252a9ab480068ae
:1017280029f00afedee6b4eee77af1ee10faeddd16
:10173800b6ee007a67ee877acded527ae6e79c4bf3
:101748001b78dbb2112b3ff6cdae9b4bd3ed007a65
:101758009fed9a7a77ee877acded537a984bd3ed51
:10176800006a984bd3ed007a86eea77a964bd3edb4
:10177800007ab4eee77af1ee10fa13d8f5ee007ab3
:1017880027ee277a8ded527a03238df85131012304
:101798008df850310223002252a98c48006829f0a4
:1017a800cbfd9fe6b4eee77af1ee10faecddb5ee8c
:1017b800007a67ee877acded527ae5e7844b1b789d
:1017c8005bbb7d4bd3ed007a9fed7c7a77ee877a11
:1017d800cded537a7f4bd3ed006a7a4bd3ed007a87
:1017e80086eea77a784bd3ed007ab4eee77af1ee7d
:1017f80010fa50d8f5ee007a27ee277a8ded527a56
:1018080003238df8513101238df850310223002232
:1018180052a96e48006829f08ffd6d4b1b78dbb22a
:10182800012b44d06a4b1b78dbb2012b7ff460aeee
:101838005f4b1b78dbb2112b3ff65aae5e4bd3edf4
:10184800007a9fed5e7a77ee877acded537a614b19
:10185800d3ed006a5b4bd3ed007a86eea77a5a4b3c
:10186800d3ed007ab4eee77af1ee10fa6dd8f5ee22
:10187800007a27ee277a8ded527a03238df85131bd
:1018880001238df850310223002252a94f480068e5
:1018980029f052fd2ce6b4eee77af1ee10faafdd4e
:1018a800b5ee007a67ee877acded527aa8e7404b1d
:1018b8001b78dbb2112bb5d93e4b4ff40012c3f89d
:1018c8001821444b93ed007adfed437ab4eee77ac2
:1018d800f1ee10fac8bfc3ed007a374bd3ed007aaa
:1018e8009fed367a77ee877acded537a394bd3ed83
:1018f800006a344bd3ed007a86eea77a324bd3edeb
:10190800007ab4eee77af1ee10fa12d8f6ee007a21
:1019180027ee277a8ded527a02238df85131012274
:101928008df85021002252a92848006829f004fdaa
:10193800dee5b4eee77af1ee10faedddb6ee007a08
:1019480067ee877acded527ae6e7b4eee77af1ee04
:1019580010fa92ddb5ee007a67ee877acded527a0d
:101968008be72ef01ff99df8c6211c4b1a701c4af4
:10197800137801331370fff7f4bb194b07221a7061
:101988009df8c6318af80030fff7f0bb4ff0000c25
:10199800144b83f800c02988bbf80000124b134a87
:1019a80003f1140ecdf80cc01f461646029121e033
:1019b8009d9a012000800041809a012000000000cb
:1019c800e4980120449b0120ec990120f098012023
:1019d800bd9a0120ec98012000606a47a59a012071
:1019e800eb9a0120f09a0120a0950120c8950120ca
:1019f800734525d0f3ec017a97ed007ab4eee77ad7
:101a0800f1ee10fa09d8c7ed007afceee77a17ee86
:101a1800901a89b202914ff0010cf2ec017a96ed1e
:101a2800007ab4eee77af1ee10fae1d8c6ed007a62
:101a3800fceee77a17ee901a88b201210391d7e7f6
:101a48000299bcf1000f00d02980039b0bb1abf8c1
:101a58000000b44bd3ed007afceee77a17ee900a5b
:101a68002df0d0fbb04bd3ed007afceee77a17ee01
:101a7800900a2df0abfbfff77ebb0026ab4b1e7028
:101a880098f800c0aa4b5f1d18464ff0010e01e000
:101a9800bb4208d013f8012b01789142f8d80270a4
:101aa80094467646f4e70eb188f800c0a04b187843
:101ab8002ef060f8fff764bb00228df84420022363
:101ac80011a99c48006829f037fcfff762bb9a4bc4
:101ad8001b78dbb2012b7ff462ab984b1b78dbb22f
:101ae800132b7ff65cab00228df84420022311a94a
:101af8009048006829f020fcfff751bb00268e4b68
:101b08001e7002278df851718df850613b463246a0
:101b180052a98b48006829f00ffc40f6b8302df028
:101b28000bfe03238df894318df8b531854b6c93fa
:101b3800334664226ca98448006829f0fdfb3220f2
:101b48002df0fafd8df8b4618df8b5617f4b6c937b
:101b5800334664226ca97c48006829f0edfb3220ea
:101b68002df0eafd7a4b4ff48012c3f81821794b17
:101b78001e221a70092389f80030774bc9221a806f
:101b8800764b1f700a202ef079f9754b1a68754b41
:101b98001a60fff75cbb724b1a68724b1a6000221e
:101ba8008df8fc2002233fa96f48006829f0c4fb88
:101bb800614b1b7823b96d4b1b78002b00f0a0807c
:101bc8000a23009300231a460321694800682cf071
:101bd80019fb684b18782df02dfc674b18782df001
:101be80045fc664b18882df05dfc654b18782df088
:101bf80091fc644b18782df071fc634b18782df02c
:101c0800a5fc624b18682df0d9fc614b1b78dbb240
:101c1800012b7ad05e4b1b78dbb2022b79d05c4b60
:101c28001b78dbb2032b78d04e4bd3ed007afcee59
:101c3800e77a584b93ed007abceec77a17ee903ae4
:101c480017ee102a9b1a07ee903af8ee677a524e72
:101c5800c6ed007afceee77a17ee900a2df092fcba
:101c68004e4b15221a7005202ef084f8474b1b683e
:101c78004293424b1988404b1b783e4a12781b020c
:101c880043ea0143134345933e4b19783c4b1b7879
:101c98003d4a12781b0243ea014313434693404be3
:101ca8001a7898f8003043ea02434793d6ed007a51
:101cb800fceee77a17ee903a43f400334893344b3e
:101cc8001a78384e338843ea0243499302238df841
:101cd80000310023642240a93348006829f02cfb16
:101ce800324b18682af09efb0123236000223280c1
:101cf8002f4a13702f4a13702f4a1370fef7fabc3d
:101d08002e4b186829f0dafe5ae701202ef0b6f8b3
:101d180080e702202ef0b2f881e703202ef0aef81b
:101d280082e700bfa0950120c8950120e89a01200c
:101d38008497012064980120c29a01209d9a01206d
:101d4800f098012002c4ec155899012005c4ec153f
:101d580000800041a19a012082970120d09a012099
:101d6800b498012020990120bc980120bd9a012037
:101d780094980120dc9a0120f49a01205a8d0120c0
:101d8800f39a0120e59a0120009b01200098012088
:101d9800cf9a01201899012028980120519b0120f1
:101da800a59a012042960120789801207c9801206c
:101db800c19a0120c09a0120bf9a0120c098012031
:101dc8009df8dc31fa2b7ef478ad024a1268fef7f2
:081dd8007bbd00bf1c9a012035
:020000040000fa
:101de0002de9f04ff5b00024729473947094cdf8ff
:101df000c3416e948df8bc41adf8b4416b946c94c2
:101e00006a94679468948df8a44164946594669488
:101e10006194629463945e945f9460945794589430
:101e200059945a945b945c945d945394549455944f
:101e3000adf858414d944e944f9450945194cdf830
:101e400047414a944b944c94a022214610a82ff06d
:101e50006ff80d940e94dff83493b34db34cb44e39
:101e6000dff82cb3dff82ca32be20027b14b1f7057
:101e70003780abf80070b04b1f803a4672a9af4b69
:101e8000186829f07dfb3a466ea9ad4b186829f019
:101e900077fb3a466da9ab4b186829f071fb9df8aa
:101ea000cf31012b40f0d7819df8ba31002b40f0a3
:101eb000d2819df8b9316d2b29d89df8b931632baa
:101ec00000f2c981dff89082cdf8908140238df82f
:101ed0009a319d4f0023642264a9386829f030fab2
:101ee0004ff47a702df02cfccdf8908100238df802
:101ef00061318df89a31642264a9386829f020fa9a
:101f000064202df01dfc914b01221a70a3e1904b2f
:101f10001f60904b1f60904b649340238df89a3163
:101f2000dff824823b46642264a9d8f8000029f037
:101f300007fa4ff47a702df003fc874b64938df809
:101f400061718df89a713b46642264a9d8f800004b
:101f500029f0f6f964202df0f3fb7c4b01221a7076
:101f60000c232370a9e77d4b619300278df88871be
:101f70003b46642261a97a48006829f0e1f96420af
:101f80002df0defb774b5e934ff001088df8528108
:101f90008df87c818df853718df87d718df85471b9
:101fa0008df87e713b4664225ea96f48006829f077
:101fb000c7f964202df0c4fb674b64938df85f81f3
:101fc0008df895813b46642264a95f48006829f03a
:101fd000b7f964202df0b4fb3a466da9594b186847
:101fe00029f0cefa9df8b431434540f03481574b87
:101ff00002221a702fe1584f649740238df89a31ce
:10200000dff844810023642264a9d8f8000029f095
:1020100097f94ff47a702df093fb649700278df8b1
:1020200061718df89a713b46642264a9d8f800006a
:1020300029f086f964202df083fb3a466ea9404bc7
:10204000186829f09dfa002800f005819df8b93143
:10205000503bdbb21d2b24d99df8b9316d2b0cd927
:10206000424b1b78002b00f09780414b00221a70e6
:102070000c23237001202df06bfe3e4b1b681e2ba2
:1020800040f3e9803b4b00221a60384b1b7823b9a0
:10209000394b4ff48032c3f898202c4b00221a7031
:1020a000d9e002202df054fe334b4ff48032c3f8b8
:1020b0009420092323702e4b01221a70244b1b6895
:1020c00093420ed02d4b1b78012b18d0204b1b6850
:1020d00013b91e4b03221a70264a1368013313608a
:1020e000bae73a468df82070022308a92448006810
:1020f00029f026f9234b18682af098f9e2e71f4bdc
:102100005b78012be2d1114b03221a7000228df86b
:102110002420022309a91c48006829f011f90d4b5d
:1021200001221a60d2e700bfd899012089970120c7
:10213000b29a0120ea9a0120aa9401206099012014
:102140006499012088990120589901209d9a0120c5
:10215000189a0120209a012002c0ec1501c0ec154c
:102160003c99012002d0ec152c990120c29a012043
:10217000bd9a0120049a012000800041ac9a012000
:10218000589801204098012064980120cb9a0120a2
:10219000b69a0120c99a0120ad4b4ff48032c3f8a2
:1021a00098204ff6ff702cf027fc0023a94a1360fb
:1021b000a94a1360a94b1b78002b7ff456afa74b9d
:1021c00001221a70a64b18782bf018fa4de7002759
:1021d000a44b1f60a44b619308238df835318df813
:1021e0008b313b46642261a9a048006829f0a8f819
:1021f0004ff47a702df0a4fa9d4b64938df86071c2
:102200008df898718df861718df89a718df8627101
:102210008df89b71dff888823b46642264a9d8f868
:10222000000029f08df84ff47a702df089fa904b68
:10223000649302238df85f318df895313b4664221b
:1022400064a9d8f8000029f07bf864202df078fa12
:10225000884b04221a7023788df831303388adf81a
:102260002e30bbf80030adf82c309af800308df8e5
:10227000323099f800308df83030022300220ba95b
:102280007d48006829f05cf823788df82830022317
:1022900000220aa97948006829f052f82b68012b1e
:1022a0000bd100232b60734a1370754b18682af00a
:1022b000bdf8744b186829f005fc4ff4fa702df046
:1022c0003ffa6c4b1b78dbb21e2bc4d801a252f82c
:1022d00023f000bf6b1e0000671f0000f71f000007
:1022e000cf2100005123000057220000c32300002b
:1022f00057220000572200005722000057220000fa
:1023000057220000572200005722000057220000e9
:1023100057220000332500005722000061260000ec
:102320009d28000075290000572200001d2c000088
:1023300057220000572200005722000057220000b9
:102340005722000057220000572200000d370000de
:1023500000226ea94c4b186829f012f900226da9d1
:102360004a4b186829f00cf99df8ba31012b1ed0a0
:102370009df8b431fa2b02d0fc2b00d013b93d4ba1
:1023800000221a709df8b9316d2b7ff664af404b77
:102390001b7823b92e4b4ff48032c3f898200023ca
:1023a0003c4a13700c222270324a137053e79df896
:1023b000b931503bdbb21d2bdad82e4b06221a70f6
:1023c000d6e70022254b1a706da9304b186829f00a
:1023d000d7f89df8b431312b0ed91e4b1b68012b59
:1023e00028d0002b41f04d82002270a92a4b18689a
:1023f00029f0c6f8002855d19df8b431fa2b02d047
:10240000fc2b00d053b9134a1268012a19d02ab9fb
:10241000184a002111700f4a012111600a2b7ff424
:102420001aaf1e4b1b780133dbb2f02b71d01b4a65
:10243000137010e70f4b10221a709df8b431fa2b6d
:10244000ded10c4a00211170024a01211160e5e73a
:1024500000800041189a0120209a0120f59a01205d
:10246000519b0120049a012001c0ec153c990120e8
:1024700002c0ec159d9a012050980120109801206f
:1024800084980120349901206499012088990120c1
:10249000c29a0120bd9a012070990120019b012060
:1024a000589901209df8c0318df818309df8c13140
:1024b0008df819309df8c2318df81a309df8c3316e
:1024c0008df81b309df8c4318df81c309df8c53156
:1024d0008df81d300223002206a95348006828f019
:1024e0002fff9df81830002b86d001234f4a136030
:1024f0004f4a102111708df820304e4b186829f08a
:1025000095ff0223002208a94b48006828f018ff15
:1025100072e70023494a1370454a1370484b40f252
:1025200033121a80474b01221a7008202bf066f8ec
:1025300091e6424b00221a70434b1b6873bb434b1e
:102540001b78012b2ed1414b5b78012b2ad11746ea
:102550008df82420022309a93d48006828f0f0fee8
:102560003c4b649301238df861318df89a313b46e1
:10257000642264a93848006828f0e2fe64202df047
:10258000dff84ff47a726da9344b186828f0f8ff21
:10259000274b12221a7005202bf030f82a4b1b68ab
:1025a000012b21d000226da92c4b186828f0e8ffe0
:1025b0009df8b431fa2b04d0fc2b02d0002b7ff411
:1025c0004aae1b4b00221a700123184a13601c4aa2
:1025d0004ff49a7111801b4a137006202df03cfcb9
:1025e00008202bf00bf836e61a4b649301238df884
:1025f00061318df89a310023642264a9164800687d
:1026000028f09efe64202df09bf84ff47a726da99d
:10261000124b186828f0b4ff054b12221a700520df
:102620002af0ecffbee700bf5c980120189a012059
:102630009d9a01204098012058980120019b01207b
:1026400082970120d09a0120209a0120ac9a012083
:102650006498012002c0ec15589901208899012046
:10266000ae4b4ff40012c3f8182100234a93ac4b31
:102670004b9301278df830718df83171002364225e
:102680004aa9a848006828f05bfea74b186829f003
:10269000cdfea64b1f6000226ba9a54b186828f041
:1026a0006fff002800f0d5809df8ac319df8ad217a
:1026b00002eb03229f4981fb0232931007ee903a0e
:1026c000f8eee77a9df8ae219df8af3103eb0223d7
:1026d00081fb03239b1007ee103ab8eec77abdeedc
:1026e000c77a17ee103a944a92fbf3f303eb830395
:1026f000bb4007ee103ab8eec77a904b83ed007af4
:10270000b2ee047a67ee877a93ed007af4eec77a38
:10271000f1ee10fa48bfc3ed007a894b64930027ad
:102720008df89a713b46642264a98648006828f0b7
:1027300007fe64202df004f8834b61937f4ad2edad
:10274000007afceee77a17ee903a8df88831d2edf8
:10275000007afceee77a17ee903ac3f307238df880
:102760008931e0238df88a312e238df88b311023a7
:102770008df88c3127238df88d314ff014088df8aa
:102780008e818df88f713b46642261a96f48006885
:1027900028f0d6fd4ff4fa702cf0d2ff8df8888126
:1027a0008df88971c8238df88a318df88b718df879
:1027b0008c818df88d714ff064088df88e818df8c5
:1027c0008f71634b61933b46424661a95f48006845
:1027d00028f0b6fd4ff4fa702cf0b2ff02238df80a
:1027e00061318df89a3103f1af5303f54c236493b3
:1027f0003b46424664a95348006828f0a1fd4ff4c7
:10280000fa702cf09dff07202af0f8fe3a466da9d9
:10281000504b186828f0b4fe9df8b4315b3bdbb236
:10282000092b2ed99df8b431fa2b02d0fc2b00d005
:102830007bb9494b00221a70484b40f235121a807e
:10284000474b01221a7008202df006fb08202af0c1
:10285000d5fe00270697adf81c708df82070022376
:102860003a4608a93f48006828f06afd02233a4624
:1028700006a93d48006828f063fd3c4b1f809f700f
:10288000e9e4354b13221a704ff47a702cf058ff9c
:10289000224b4ff40022c3f81421c3e700226ea993
:1028a000334b186828f06cfe9df8b931312b1ed9d6
:1028b0001a4bd3f8a03013f4000f1dd101238df86b
:1028c00060318df898310c238df861318df89a3193
:1028d0001b4b64930023642264a91a48006828f003
:1028e0002ffd64202cf02cff1b4b14221a704ff488
:1028f0007a702cf025ffaee4174b00221a70174bac
:1029000040f235121a80164b01221a7007202df062
:10291000a3fa08202af072fee9e700bf0080004118
:1029200000004843f0980120f4980120209a0120eb
:102930007899012067666666c0d40100c8980120b6
:1029400002c0ec155899012003c0ec153c990120f8
:1029500004c0ec15889901209d9a012082970120de
:10296000d09a0120589801205c980120ac9a01204f
:102970006499012000226aa98c4b186828f000fe97
:102980009df8a8319df8a92102eb0322884981fb1b
:102990000232921007ee902af8eee77a854bc3edeb
:1029a000007a9df8aa219df8ab3103eb022381fb4d
:1029b00003239b1007ee103ab8eec77a7e4b83ede7
:1029c000007a4ff080434a93cded4b7a01238df886
:1029d00030318df83131002364224aa977480068ec
:1029e00028f0aefc764b186829f020fd9df8a9313f
:1029f0008df894319df8a8318df895319df8ab3163
:102a00008df896319df8aa318df897316d4b64930e
:102a10000023642264a96c48006828f091fc0a2015
:102a20002cf08efe694b18782af0e8fd00226da983
:102a3000674b186828f0a4fd00283ff40cac9df803
:102a4000b431782b1ad09df8b431fa2b04d0fc2b7a
:102a500002d0002b7ff4ffab5e4b00221a705e4b5e
:102a60004ff49b721a805d4b01221a7008202df0e2
:102a7000f3f908202af0c2fdfff7edbb584bd3f85d
:102a800000802ef091fa4ef6602700970023024650
:102a9000012140462bf0bafb524bd3f800802ef0b8
:102aa00083fa009700230246012140462bf0aefb3b
:102ab0004d4bd3f800802ef077fa009700230246a2
:102ac000012140462bf0a2fb484bd3f800802ef0aa
:102ad0006bfa009700230246012140462bf096fb3b
:102ae000434bd3f800802ef05ffa00970023024694
:102af000012140462bf08afb3e4bd3f800802ef09c
:102b000053fa009700230246012140462bf07efb3a
:102b1000304b16221a70384b18782cf0b7f9642015
:102b20002cf00efe354f38782cf0ccf964202cf0c8
:102b300007fedff8e480b8f800002cf0dff964202d
:102b40002cf0fefd2e4908782cf010fa64202cf0b1
:102b5000f7fd2c4800782cf0edf964202cf0f0fd06
:102b6000294a10782cf01efa64202cf0e9fd274b3e
:102b70001a68274b1a60274b186829f057fcb8f8d9
:102b800000103b781c4a12781b0243ea01431343ae
:102b90003b931c4801781a4b1b781b4a12781b0286
:102ba00043ea014313433c934de700bf8099012062
:102bb000676666667c9a0120e8990120f0980120fa
:102bc000f498012005c0ec1558990120519b012073
:102bd000889901209d9a012082970120d09a012096
:102be00090980120d09901204c9a0120509a012000
:102bf000549a0120589a0120dc9a0120f49a01206d
:102c0000f39a0120e59a0120009b0120b098012051
:102c100014990120c09801205a8d0120002205a995
:102c2000c24b186828f0acfc28b1c14a9df814309a
:102c300011880b44138047f230502bf0ddfe012346
:102c40008df83c30022300220fa9ba48006828f012
:102c500077fb03202df07cf8b54b18882cf06ef82c
:102c6000b54b1b78072b00f0108200226aa9b34bea
:102c7000186828f085fc002800f0d5809df8aa315e
:102c80009df8ab2102eb0322ad4981fb0232930890
:102c900007ee103ab8ee477aaa4b83ed007a9df81a
:102ca000a8219df8a93103eb022381fb03239b0894
:102cb00007ee903af8ee677aa34bc3ed007a67ee21
:102cc000276aa24bc3ed006aa14b1b78002b40f092
:102cd0008880a04b1a68a04b1a6093ed006af4ee4e
:102ce000c66af1ee10fa35d59c4b1b7833bbdfed8d
:102cf0009c6a77eea67acded4b7a974b93ed006afe
:102d0000984bd3ed006ac6ee267ab4eee77af1ee80
:102d100010fac0f2bf81b5ee007a67ee877acded8a
:102d20004a7a03238df8313101238df830310223a3
:102d300000224aa98c48006828f002fb874b1b78c8
:102d4000dbb2012b00f0b381844b1b78dbb2012b8b
:102d500000f0f481804bd3ed007a7c4b93ed007a48
:102d6000b4eee77af1ee10fa3bdd7c4b1b7863bbe7
:102d7000754bd3ed007a9fed7a7a77ee877acdedb9
:102d80004b7a754bd3ed006a764b93ed007ac6ee25
:102d9000877a6c4b93ed007af4eec77af1ee10fa75
:102da00000f20b82b5ee007a67ee877acded4a7ab3
:102db00003238df8313101238df8303102230022b5
:102dc0004aa96948006828f0bbfa644b1b78dbb25b
:102dd000012b00f0ff81614b1b78dbb2012b00f06f
:102de00040825b4b1b78dbb2012b00f09f825f4877
:102df000027891005e4b0b445a4f3f681f605d4b59
:102e000019449df8aa719df8ab3103eb07234c4f91
:102e100087fb03739b0807ee903af8ee677ac1ede3
:102e2000007a0132027064202cf08afc9df8a931ee
:102e30008df894319df8a8318df895319df8ab311e
:102e40008df896319df8aa318df897314a4b6493ed
:102e50000023642264a94948006828f071fa6420bc
:102e60002cf06efc002267a9454b186828f088fbff
:102e700098b1444a13789df89e014349c8540621ed
:102e80002170013313702c4b1b78042b40f22183eb
:102e9000294b1b78052b00f02783344b1b78052b1f
:102ea00000f02a83374b1b78052b00f07b83374bd0
:102eb0001b78dbb2012b00f09483344b1b78dbb220
:102ec000012b00f09d839df8b431292b04d0fa2bff
:102ed00002d0fc2b40f0818000272c4b1f708df816
:102ee00030714ff001088df8318102233a464aa92a
:102ef0001d48006828f024fa40f6b8302cf020fc79
:102f000003238df85f318df89531214b64933b4657
:102f1000642264a91948006828f012fa32202cf0c3
:102f20000ffc8df894718df8957133e08098012035
:102f3000aa940120b8980120ea9a012080990120e2
:102f400067666666e89901207c9a0120449a012010
:102f5000c79a01203c9b0120e4980120c29a0120dd
:102f600000000000409b0120f0980120ef9a012012
:102f7000b49501208c95012005c0ec1558990120cd
:102f80007c990120e79a01207c970120bd9a0120bd
:102f900002c0ec15cc4b64933b46642264a9cb4839
:102fa000006828f0cdf932202cf0cafbc84b4ff452
:102fb0000022c3f81821c74b1e221a700923237060
:102fc000c54bca221a80c54b83f800800a202cf01a
:102fd00043ffc34b1a68c34b1a609df89c31012b09
:102fe00000f04883c04b1b78012b7ff434a9be4b03
:102ff0009b78012b7ff42fa90027bc4b1f708df805
:10300000307101238df8313102233a464aa9b8487c
:10301000006828f095f940f6b8302cf091fb0323b6
:103020008df85f318df89531b24b6493dff89c8257
:103030003b46642264a9d8f8000028f081f93220c8
:103040002cf07efb8df894718df895719e4b6493f6
:103050003b46642264a9d8f8000028f071f93220b8
:103060002cf06efb9a4b4ff40022c3f81821994bb9
:103070001e221a70092323709b4b1f809f70984b50
:103080001a68984b1a60fff7e6b89b4b18782cf03b
:103090005dfdeae5b4eee77af1ee10fa7ff541aeb8
:1030a000f5ee007a27ee277a8ded4a7a39e6934bd2
:1030b0001b78dbb2112b7ff647ae854b4ff4001225
:1030c000c3f818218e4bd3ed007a9fed8e7a77ee00
:1030d000877acded4b7a8c4bd3ed007ab6ee007a41
:1030e00067ee877a894bd3ed006a87eea67a884b24
:1030f000d3ed007ab4eee77af1ee10fa12d8f6eedc
:10310000007a27ee277a8ded4a7a01238df8313146
:103110008df83031022300224aa97548006828f052
:103120000ff917e6b4eee77af1ee10faedddb6ee40
:10313000007a67ee877acded4a7ae6e76f4b1b7827
:10314000dbb2112b3ff606ae6d4bd3ed007a9fed4f
:103150006d7a77ee877acded4b7a6b4bd3ed006ac3
:103160006a4bd3ed007a86eea77a694bd3ed007aed
:10317000b4eee77af1ee10fa13d8f5ee007a27ee06
:10318000277a8ded4a7a03238df8313101238df8aa
:103190003031022300224aa95548006828f0d0f8af
:1031a000d8e5b4eee77af1ee10faecddb5ee007a90
:1031b00067ee877acded4a7ae5e7f4eec77af1ee6d
:1031c00010fa7ff7f5adf5ee007a27ee277a8ded50
:1031d0004a7aede5494b1b78dbb2112b7ff6fbad4c
:1031e0003b4b4ff40012c3f81821454bd3ed007a46
:1031f0009fed447a77ee877acded4b7a424bd3ed53
:10320000007ab6ee007a67ee877a404bd3ed006a1b
:1032100087eea67a3e4bd3ed007ab4eee77af1ee74
:1032200010fa12d8f6ee007a27ee277a8ded4a7a58
:1032300001238df831318df83031022300224aa963
:103240002b48006828f07cf8cbe5b4eee77af1ee85
:1032500010faedddb6ee007a67ee877acded4a7aa8
:10326000e6e7264b1b78dbb2112b3ff6baad244bb9
:10327000d3ed007a9fed237a77ee877acded4b7a06
:10328000214bd3ed006a214bd3ed007a86eea77a6d
:103290001f4bd3ed007ab4eee77af1ee10fa39d88d
:1032a000f5ee007a27ee277a8ded4a7a03238df822
:1032b000313101238df83031022300224aa90c4814
:1032c000006828f03df88ce505c0ec155899012000
:1032d000008000419d9a012082970120d09a012010
:1032e000b09801201c990120ac9a0120bd9a0120c0
:1032f000f098012002c0ec15af9a0120a19a01209c
:103300007c9a012000000000e4980120409b0120ed
:10331000e8990120b4eee77af1ee10fac6ddb5eed9
:10332000007a67ee877acded4a7abfe7bf4b1b780c
:103330005bbbbf4bd3ed007a9fedbe7a77ee877a09
:10334000cded4b7abc4bd3ed006abc4b93ed007acc
:10335000c6ee877aba4b93ed007af4eec77af1eeb7
:1033600010fa50d8b5ee007a67ee877acded4a7a3a
:1033700003238df8313101238df8303102230022ef
:103380004aa9b048006827f0dbffa84b1b78dbb2e6
:10339000012b44d0a54b1b78dbb2012b7ff427ad6a
:1033a000a94b1b78dbb2112b3ff621ada04bd3ed1f
:1033b000007a9feda07a77ee877acded4b7a9e4b1f
:1033c000d3ed006a9d4bd3ed007a86eea77a9c4b35
:1033d000d3ed007ab4eee77af1ee10fa6dd8f5ee9f
:1033e000007a27ee277a8ded4a7a03238df8313162
:1033f00001238df83031022300224aa99148006848
:1034000027f09efff3e4f4eec77af1ee10faafdd99
:10341000f5ee007a27ee277a8ded4a7aa8e78a4bf7
:103420001b78dbb2112bb5d9884b4ff40012c3f8cf
:103430001821814b93ed007adfed857ab4eee77abf
:10344000f1ee10fac8bfc3ed007a794bd3ed007ae4
:103450009fed787a77ee877acded4b7a764bd3ed88
:10346000006a764bd3ed007a86eea77a744bd3ede3
:10347000007ab4eee77af1ee10fa12d8f6ee007a9e
:1034800027ee277a8ded4a7a01238df831318df8b8
:103490003031022300224aa96a48006827f050ff11
:1034a000a5e4b4eee77af1ee10faedddb6ee007abf
:1034b00067ee877acded4a7ae6e7b4eee77af1ee89
:1034c00010fa92ddb5ee007a67ee877acded4a7a92
:1034d0008be72cf03bfb5f4a1378013313709df8a8
:1034e0009e215d4b1a70d3e49df89e318af800301e
:1034f000584b07221a70d0e44ff0000e574b83f858
:1035000000e03188bbf80000554b564a03f114081f
:10351000cdf80ce09c461746029101e0434525d0ca
:10352000f3ec017a9ced007ab4eee77af1ee10fa52
:1035300009d8cced007afceee77a17ee901a89b242
:1035400002914ff0010ef2ec017a97ed007ab4eea1
:10355000e77af1ee10fae1d8c7ed007afceee77aef
:1035600017ee901a88b201210391d7e70299bef1b4
:10357000000f00d03180039b0bb1abf80000384b3b
:10358000d3ed007afceee77a17ee900a2bf00efcf2
:10359000344bd3ed007afceee77a17ee900a2bf06d
:1035a000e9fb7fe40027304b1f7099f800e02f4bb8
:1035b00003f1050c18464ff0010801e09c4508d0c6
:1035c00013f8012b01789142f8d8027096464746cd
:1035d000f4e70fb189f800e0244b18782cf09efa3c
:1035e00065e4124b1b78002b7ff467ac00228df84a
:1035f0002420022309a91e48006827f0a1fe5ce4ec
:103600000a4b1b78dbb2012b7ff45dac0e4b1b78b1
:10361000dbb2132b7ff657ac00228df82420022357
:1036200009a91348006827f08bfe4ce4c29a0120d8
:103630007c9a012000000000e8980120409b0120b6
:10364000e8990120f0980120a19a01200080004112
:1036500000606a47ea9a0120af9a0120ef9a0120a0
:103660008c950120b4950120e79a01207c970120d8
:10367000649801200027874b1f708df830714ff040
:1036800001088df8318102233a464aa98248006830
:1036900027f056fe40f6b8302cf052f803238df890
:1036a0005f318df895317d4b64933b46642264a96c
:1036b0007b48006827f044fe32202cf041f88df85a
:1036c00094718df89571774b64933b46642264a99d
:1036d0007348006827f034fe32202cf031f8724b2a
:1036e0004ff40022c3f81821704b1e221a700920d3
:1036f00020706f4bc9221a806e4b83f800802cf02b
:10370000abfb6d4b1a686d4b1a606be46a4b1a6821
:103710006a4b1a6000228df83c2002230fa96848ea
:10372000006827f00dfe674b1b7823b9594b1b78b7
:10373000002b00f095800a23009300231a460321f2
:10374000614800682af062fd604b18782bf046fc57
:103750005f4b18782bf05efc5e4b18882bf076fce4
:103760005d4b18782bf0aafc5c4b18782bf08afc88
:103770005b4b18782bf0befc5a4b18682bf0f2fc10
:103780004e4bd3ed007afceee77a574b93ed007a7f
:10379000bceec77a17ee100a17ee903a181a534b80
:1037a00018602bf0c3fc524b1b78dbb2012b5cd0b2
:1037b0004f4b1b78dbb2022b5bd04d4b1b78dbb23f
:1037c000032b5ad04b4b0c221a7005202cf0c0fa58
:1037d000444b1b683a933f4b19883d4b1b783b4a3f
:1037e00012781b0243ea014313433d933b4b197884
:1037f000394b1b783a4a12781b0243ea01431343c0
:103800003e933d4b1a7899f8003043ea02433f93c8
:10381000364b1b6843f480334093354b1a78374f4f
:103820003b8843ea0243419302238df8e0300023b2
:10383000642238a93248006827f082fd314b1868ad
:1038400028f0f4fd01232b6000223a802e4a1370e9
:103850002e4a13702e4a13702e4a1370fef7fbbccb
:103860002d4b186828f02ef965e701202cf0f4faaa
:103870009ee702202cf0f0fa9fe703202cf0ecfaf0
:10388000a0e79df8b431fa2b7ef4baad234a126852
:10389000fef7bdbdbd9a0120f098012002c0ec15d5
:1038a0005899012005c0ec15008000419d9a012027
:1038b00082970120d09a0120b09801201c99012004
:1038c000b8980120c29a012090980120dc9a01202a
:1038d000f49a01205a8d0120f39a0120e59a0120e3
:1038e000009b0120fc9701201499012024980120bd
:1038f000cf9a0120519b0120af9a0120aa94012068
:10390000789801207c980120b19a0120bc9a01206e
:10391000bb9a0120ba9a0120c0980120189a012070
:020000040000fa
:10392000ac9401201c00000000000000449601201f
:103930000800000000000000c89401201c000000e6
:1039400000000000dc9501201000000000000000d5
:103950004c9601201800000000000000e4940120b3
:103960001c00000000000000ec9501201000000089
:10397000000000006496012010000000000000001c
:10398000f08b0120c000000000000000a69a01207a
:103990000200000000000000e89301202c0000005d
:1039a00000000000f8920120f0000000000000007c
:1039b000249b01200400000001000000aaaaaaaa7a
:1039c0008c970120040000000000000090010020fe
:1039d000608a0100000000009097012010000000a4
:1039e00000000000749601200800000000000000a4
:1039f000a0970120080000000000000000950120b1
:103a00002800000000000000a89701201800000016
:103a100000000000ec8f01206400000000000000a6
:103a2000c09701201400000000000000289501202c
:103a30002800000000000000d497012010000000c2
:103a4000000000005095012014000000000000005c
:103a5000e4970120040000000000000064950120ac
:103a60002800000000000000e89701200800000086
:103a700000000000289b012004000000010000005d
:103a80000400000000000020900100000000000081
:103a9000f097012004000000000000005090012079
:103aa000a800000000000000f497012010000000b2
:103ab00000000000f3910120010000000000000060
:103ac0009b9a0120010000000000000004980120e2
:103ad0000400000000000000ab9a0120010000007b
:103ae0000000000008980120040000000000000011
:103af0008197012001000000000000000c980120c7
:103b00000c00000000000000899701200100000067
:103b100000000000959a0120010000000000000054
:103b20009d9a01200100000000000000a19a0120e0
:103b30000100000000000000189801200c000000a7
:103b400000000000f8900120a80000000000000024
:103b5000249801200800000000000000b29a012013
:103b600002000000000000008c95012014000000fd
:103b700000000000b49a01200200000000000000d4
:103b8000a09501201400000000000000b69a01205a
:103b90000200000000000000b495012014000000a5
:103ba00000000000b89a01200200000000000000a0
:103bb000c895012014000000000000002c9801208e
:103bc00004000000000000004492012040000000ba
:103bd00000000000149401205000000000000000cc
:103be000088e0120a4000000000000003098012091
:103bf0000800000000000000b09a01200100000051
:103c0000000000003898012038000000000000008b
:103c1000068e01200200000000000000c292012078
:103c20000200000000000000f692012002000000e7
:103c300000000000af9a0120010000000000000019
:103c4000a59a0120010000000000000070980120ea
:103c50001000000000000000b19a012001000000e7
:103c600000000000ba9a01200300000000000000dc
:103c7000aa940120020000000000000080980120aa
:103c80000400000000000000bd9a012001000000b7
:103c900000000000849801200400000000000000e3
:103ca000be9a01200400000000000000429601209e
:103cb00002000000000000008898012004000000bd
:103cc00000000000c29a0120010000000000000076
:103cd0008c9801200400000000000000c39a01201d
:103ce0000100000000000000909801203400000056
:103cf00000000000c49a0120030000000000000042
:103d0000c49801200c00000000000000a0910120d8
:103d10005300000000000000d09801202c0000009b
:103d200000000000c49201203200000000000000ea
:103d3000fc9801201400000000000000c79a012038
:103d400002000000000000001099012004000000a3
:103d500000000000c99a01200300000000000000dc
:103d60007c9701200500000000000000cc9a012093
:103d70000100000000000000849701200500000001
:103d8000000000001499012008000000000000005d
:103d9000cd9a01200200000000000000ac9a012032
:103da0000300000000000000a89a012003000000aa
:103db000000000001c990120080000000000000025
:103dc000cf9a012001000000000000003896012079
:103dd0000a0000000000000082970120020000009d
:103de00000000000d09a0120010000000000000047
:103df000249901200400000000000000d19a012055
:103e000001000000000000008a970120020000006d
:103e100000000000969a012002000000000000004f
:103e20009e9a012002000000000000007c96012004
:103e30006800000000000000289901202000000018
:103e400000000000e496012068000000000000006f
:103e50004899012080000000000000004c970120dc
:103e60003000000000000000d29a01200100000094
:103e700000000000c89901200400000000000000bc
:103e8000d39a01200200000000000000cc9901201c
:103e90000400000000000000d59a0120010000008d
:103ea00000000000d0990120040000000000000084
:103eb000849201203e00000000000000a29a012030
:103ec0000200000000000000d69a0120010000005e
:103ed00000000000d4990120040000000000000050
:103ee000d79a01200300000000000000d8990120ab
:103ef0000800000000000000da9a01200200000023
:103f000000000000e0990120100000000000000007
:103f1000dc9a01200200000000000000f09901205e
:103f20000400000000000000de9a012001000000f3
:103f300000000000f49901200800000000000000cb
:103f4000b08c0120aa00000000000000df9a0120d0
:103f50000300000000000000a49a012001000000fe
:103f600000000000e29a01200100000000000000b3
:103f7000fc9901201000000000000000e39a0120dd
:103f80000200000000000000a09a012001000000d3
:103f9000000000009c9a01200100000000000000c9
:103fa0000c9a01200800000000000000e59a0120a2
:103fb0000500000000000000149a01200400000029
:103fc00000000000ea9a0120050000000000000047
:103fd000189a01201000000000000000ef9a012054
:103fe0000200000000000000289a012004000000e8
:103ff00000000000f19a0120020000000000000013
:104000002c9a012008000000000000005c8d0120b7
:10401000aa00000000000000349a01200400000003
:1040200000000000f39a01200100000000000000e1
:10403000389a01200400000000000000f49a0120da
:104040000100000000000000989a01200300000019
:1040500000000000f59a01200400000000000000ac
:104060003c9a01200400000000000000f99a0120a1
:104070000200000000000000409a01200c00000037
:1040800000000000fb9a0120020000000000000078
:104090004c9a01200400000000000000fd9a01205d
:1040a0000100000000000000509a01200400000000
:1040b00000000000fe9a0120010000000000000046
:1040c000549a01200400000000000000ff9a012023
:1040d0000100000000000000589a012004000000c8
:1040e00000000000949a0120010000000000000080
:1040f0005c9a01200c00000000000000689a01207a
:104100000800000000000000ac8e0120a0000000ac
:1041100000000000fc9501201000000000000000dd
:10412000009b012001000000000000002c960120ef
:104130000c00000000000000709a01200400000044
:1041400000000000019b01200200000000000000b0
:10415000749a012004000000000000000c96012069
:1041600010000000000000004c8f0120a0000000a3
:1041700000000000789a01200c0000000000000000
:104180005a8d01200200000000000000229b012047
:104190000200000001000000040100004c9b01200f
:1041a0000200000001000000b4000000049b012098
:1041b0001e000000010000005aa51b8252406874d6
:1041c0007470733a2f2f7777772e737461746971d7
:1041d0002e696e2fffff0000039b012001000000ed
:1041e000010000000c000000509b012005000000b1
:1041f000010000000c030f50140000002c9b012054
:1042000004000000010000000000803f559b0120d9
:10421000020000000100000001010000309b0120ad
:104220000400000001000000cdcccc3f349b0120f5
:104230000c000000010000000000004000000040f1
:104240000060ea474e9b01200200000001000000d0
:10425000af4a0000409b0120080000000100000060
:104260000000484300004843489b01200400000030
:104270000100000000004843849a0120040000006f
:10428000000000001c96012010000000000000004b
:10429000649401204600000000000000889a01207c
:1042a0000400000000000000f49101205000000014
:1042b000000000008c9a01200800000000000000af
:1042c00000000000000000006666666666666666be
:1042d000666666666666666666666666666666667e
:020000040000fa
:104fe0002de9f04f87b09a4c00230193994f9a4bcb
:104ff00003f13c050123009300f0fabf974b1a68b8
:1050000095490a601b68cbb1954b1b785bb1226850
:10501000924b53f82230002b40f0a380904b4ff07e
:1050200000021a709de08e4b4ff001021a708b4bfc
:105030001b6833804ff47a602af082fb2268874b2a
:1050400053f82230002b40f08c80854b1b78002bce
:1050500000f08780e2e7814b5a687f494a605b68cd
:10506000c3b17f4b5b7853b122687c4b53f822303d
:10507000002b76d17a4b4ff000025a7071e0784bda
:105080004ff001025a70754b5b6833804ff47a60c1
:105090002af056fb2268714b53f82230002b60d166
:1050a0006f4b5b78002b5cd0e4e76c4b9a686a49e5
:1050b0008a609b68c3b16a4b9b7853b12268674b87
:1050c00053f82230002b4cd1654b4ff000029a7000
:1050d00047e0634b4ff001029a70604b9b6833804e
:1050e0004ff47a602af02cfb22685c4b53f8223094
:1050f000002b36d15a4b9b78002b32d0e4e7574b2c
:10510000da685549ca60db68bbb1554bdb784bb1f7
:105110002268524b53f822301bbb514b4ff0000218
:10512000da701ee04e4b4ff00102da704b4bdb6839
:1051300033804ff47a602af003fb2268474b53f820
:10514000223073b9464bdb785bb1e6e7434bd3f8cb
:105150008430012b66d0414bd3f88430022b00f011
:10516000a0803388adf80c30b8f80030adf80e30c0
:10517000b9f80030adf81030baf80030adf81230a0
:105180003b88adf81430bbf80030adf81630022380
:10519000002203a93348006826f0d2f823680133bf
:1051a00023601f2b00f355861b2bdad801a252f87f
:1051b00023f000bffd4f000057500000ab5000002f
:1051c000ff5000004d510000635100000d530000de
:1051d00067530000c15300001b54000075540000c9
:1051e000e15400003b55000097550000635100005a
:1051f000f1550000d3560000c9570000ab5800001d
:10520000795900005b5a00002b5b0000fb5b00003b
:1052100063510000595c00003f5d00009b5d000091
:10522000f75d00000d4b19690f4a11601b6953b3fc
:105230000b4b93f82c30cbb12268084b53f822303b
:10524000002b88d1064b4ff0000283f82c2082e718
:10525000149a0120969a012044920120088e012080
:10526000849201204898012014940120984b4ff01b
:10527000010283f82c20974b1b69a8f800304ff4eb
:105280007a602af05dfa2268924b53f82230002ba4
:105290007ff461af8e4b93f82c30002b3ff45baf63
:1052a000d0e723688b4a52f823008b49086052f8f4
:1052b0002320eab1864a92f82d205ab1854a52f845
:1052c0002330002b7ff44daf814b4ff0000283f869
:1052d0002d2046e77e4a4ff0010182f82d107d4acd
:1052e00052f82330a9f800304ff47a602af028faf7
:1052f0002268784b53f82230002b7ff432af744b86
:1053000093f82d30002b3ff42cafdde7714b9a69f9
:1053100072490a619b69cbb16d4b9b795bb1226885
:105320006c4b53f82230002b7ff41baf684b4ff0cf
:1053300000029a7115e7664b4ff001029a71654bb6
:105340009b6933804ff47a602af0faf92268614b46
:1053500053f82230002b7ff404af5d4b9b79002b78
:105360003ff4ffaee2e75b4bda695c494a61db6917
:10537000cbb1574bdb795bb12268564b53f82230e7
:10538000002b7ff4eeae524b4ff00002da71e8e6ec
:105390004f4b4ff00102da714e4bdb6933804ff413
:1053a0007a602af0cdf922684a4b53f82230002b5c
:1053b0007ff4d7ae464bdb79002b3ff4d2aee2e769
:1053c000444b1a6a45498a611b6acbb1404b1b7a30
:1053d0005bb122683f4b53f82230002b7ff4c1ae03
:1053e0003b4b4ff000021a72bbe6394b4ff0010203
:1053f0001a72384b1b6a33804ff47a602af0a0f996
:105400002268344b53f82230002b7ff4aaae304b85
:105410001b7a002b3ff4a5aee2e72e4b5a6a2f49c8
:10542000ca615b6acbb12a4b5b7a5bb12268294bbc
:1054300053f82230002b7ff494ae254b4ff000023e
:105440005a728ee6234b5b6a3380214b4ff0010288
:105450005a724ff47a602af073f922681d4b53f8a0
:105460002230002b7ff47dae194b5b7a002b3ff48a
:1054700078aee2e7174b9a6a18490a629b6acbb189
:10548000134b9b7a5bb12268124b53f82230002bee
:105490007ff467ae0e4b4ff000029a7261e60c4b40
:1054a0004ff001029a720b4b9b6a33804ff47a6083
:1054b0002af046f92268074b53f82230002b7ff47c
:1054c00050ae034b9b7a002b3ff44baee2e700bf9c
:1054d00084920120088e01203c94012044920120f6
:1054e0009a4bda6a9a494a62db6acbb1994bdb7a0a
:1054f0005bb12268954b53f82230002b7ff431ae1c
:10550000944b4ff00002da722be6924b4ff00102ff
:10551000da728e4bdb6a33804ff47a602af010f92e
:1055200022688a4b53f82230002b7ff41aae894b45
:10553000db7a002b3ff415aee2e7844b1a6b84490b
:105540008a621b6bd3b1834b1b7b5bb122687f4ba1
:1055500053f82230002b7ff404ae7e4b4ff0000254
:105560001a73fee57b4b4ff001021a73774b1b6bee
:10557000aaf800304ff47a602af0e2f82268734b00
:1055800053f82230002b7ff4ecad724b1b7b002bc9
:105590003ff4e7ade1e76d4b5a6b6d49ca625b6b57
:1055a000cbb16c4b5b7b5bb12268684b53f822300c
:1055b000002b7ff4d6ad674b4ff000025a73d0e555
:1055c000644b4ff001025a73604b5b6b33804ff4b6
:1055d0007a602af0b5f822685c4b53f82230002b31
:1055e0007ff4bfad5b4b5b7b002b3ff4baade2e7d2
:1055f000564bd3f88830012b20d0544bd3f8883049
:10560000022b7ff4aead2368504a52f82300524972
:10561000886052f82320002a4dd04e4a92f82f205d
:10562000002a3ad0494a52f82330002b7ff499ad32
:10563000484b4ff0000283f82f2092e5434bd96b83
:10564000464a9160db6be3b1424b93f82e305bb17d
:1056500022683e4b53f82230002bced13d4b4ff009
:10566000000283f82e20c8e73a4b4ff0010283f87e
:105670002e20364bdb6ba8f800304ff47a602af00e
:105680005ff82268314b53f82230002bb5d1314bf3
:1056900093f82e30002bb0d0e0e72e4a4ff00101f6
:1056a00082f82f10294a52f82330a9f800304ff41d
:1056b0007a602af045f82268244b53f82230002bf8
:1056c0007ff44fad234b93f82f30002b3ff449adbf
:1056d000aee71e4bd3f8a430012b20d01b4bd3f8e0
:1056e000a430022b7ff43dad2368184a52f8230002
:1056f0001949c86052f82320002a57d0154a92f859
:105700003120002a44d0114a52f82330002b7ff474
:1057100028ad104b4ff0000283f8312021e50b4bf0
:10572000196c0e4ad1601b6c33b30a4b93f83030be
:10573000b3b12268054b53f82230002bced1054b74
:105740004ff0000283f83020c8e700bf088e012028
:1057500044920120849201203c9401201494012061
:10576000a44b4ff0010283f83020a34b1b6c3b800d
:105770004ff47a6029f0e4ff22689f4b53f82230ff
:10578000002babd19b4b93f83030002ba6d0d6e743
:10579000984a4ff0010182f83110974a52f82330ad
:1057a000abf800304ff47a6029f0caff2268924bc0
:1057b00053f82230002b7ff4d4ac8e4b93f8313069
:1057c000002b3ff4ceaca4e78b4bd3f89c30012bdd
:1057d00020d0894bd3f89c30022b7ff4c2ac2368d5
:1057e000854a52f823008549086152f82320002a8f
:1057f0004dd0804a92f83320002a3ad07e4a52f89f
:105800002330002b7ff4adac7a4b4ff0000283f8cd
:105810003320a6e4784b596c794a11615b6ce3b193
:10582000744b93f832305bb12268734b53f82230db
:10583000002bced16f4b4ff0000283f83220c8e727
:105840006c4b4ff0010283f832206b4b5b6ca8f875
:1058500000304ff47a6029f073ff2268664b53f8ea
:105860002230002bb5d1634b93f83230002bb0d0ef
:10587000e0e7604a4ff0010182f833105e4a52f8c7
:105880002330a9f800304ff47a6029f059ff2268dc
:10589000594b53f82230002b7ff463ac554b93f8ef
:1058a0003330002b3ff45dacaee7534bd3f89c3064
:1058b000012b20d0504bd3f89c30022b7ff451acfd
:1058c00023684d4a52f823004c49486152f823207e
:1058d000002a43d0474a92f83520002a35d0464a5c
:1058e00052f82330002b7ff43cac424b4ff00002c7
:1058f00083f8352035e4404b996c414a51619b6ceb
:10590000bbb13c4b93f834305bb122683a4b53f84f
:105910002230002bced1374b4ff0000283f83420d9
:10592000c8e7354b9b6ca8f800304ff47a6029f03b
:1059300007ff2268304b53f82230002bbad12d4b91
:1059400093f83430002bb5d0e5e72b4a52f82330da
:10595000a9f800304ff47a6029f0f2fe2268264b55
:1059600053f82230002b7ff4fcab224b93f83530f8
:10597000002b3ff4f6abb8e71f4bd3f89030012b68
:1059800021d01d4bd3f89030022b7ff4eaab236873
:10599000194a52f823001949886152f82320002a35
:1059a0004dd0144a92f83720002a3fd0124a52f8bc
:1059b0002330002b7ff4d5ab0e4b4ff0000283f861
:1059c0003720fff7cebb0c4bd96c0d4a9161db6cd5
:1059d00003b3084b93f83630a3b12268064b53f853
:1059e0002230002bcdd1034b4ff0000283f836203c
:1059f000c7e700bf84920120088e01203c9401205b
:105a000014940120a84bdb6ca8f800304ff47a60a6
:105a100029f096fe2268a44b53f82230002bb0d117
:105a2000a24b93f83630002babd0dce79e4a52f8fd
:105a30002330a9f800304ff47a6029f081fe226803
:105a4000994b53f82230002b7ff48bab974b93f894
:105a50003730002b3ff485abaee7934bd3f894304f
:105a6000012b21d0904bd3f89430022b7ff479abeb
:105a700023688d4a52f823008d49c86152f82320cb
:105a8000002a44d0894a92f83920002a36d0864a22
:105a900052f82330002b7ff464ab844b4ff00002ac
:105aa00083f83920fff75dbb7f4b196d814ad161c7
:105ab0001b6dbbb17d4b93f838305bb122687a4bdc
:105ac00053f82230002bcdd1784b4ff0000283f8f1
:105ad0003820c7e7744b1b6da8f800304ff47a608c
:105ae00029f02efe2268704b53f82230002bb9d1da
:105af0006e4b93f83830002bb4d0e5e76a4a52f881
:105b00002330a9f800304ff47a6029f019fe22689a
:105b1000654b53f82230002b7ff423ab634b93f893
:105b20003930002b3ff41dabb7e75f4bd3f898300b
:105b3000012b21d05c4bd3f89830022b7ff411abb2
:105b40002368594a52f823005949086252f8232021
:105b5000002a44d0554a92f83b20002a36d0524ab7
:105b600052f82330002b7ff4fcaa504b4ff0000278
:105b700083f83b20fff7f5ba4b4b596d4d4a116244
:105b80005b6dbbb1494b93f83a305bb12268464b31
:105b900053f82230002bcdd1444b4ff0000283f854
:105ba0003a20c7e7404b5b6da8f800304ff47a60ad
:105bb00029f0c6fd22683c4b53f82230002bb9d1a6
:105bc0003a4b93f83a30002bb4d0e5e7364a52f816
:105bd0002330a9f800304ff47a6029f0b1fd226833
:105be000314b53f82230002b7ff4bbaa2f4b93f894
:105bf0003b30002b3ff4b5aab7e72b4b9a6d2e49eb
:105c00000a639b6ddbb1294b9b7d63b12268264bf8
:105c100053f82230002b7ff4a4aa244b4ff000024b
:105c20009a75fff79eba214b4ff001029a751e4bf1
:105c30009b6daaf800304ff47a6029f081fd22684c
:105c4000194b53f82230002b7ff48baa174b9b7d06
:105c5000002b3ff486aae0e7134bd3f88c30012bde
:105c60002cd0114bd3f88c30022b7ff47aaa236806
:105c70000d4a52f823000e49486252f82320002aa8
:105c80004fd00a4a92f83d20002a41d0064a52f8e5
:105c90002330002b7ff465aa044b4ff0000283f8f9
:105ca0003d20fff75eba00bf088e012084920120dc
:105cb0003c9401201494012044920120934b196ece
:105cc000934a51621b6ebbb1924b93f83c305bb16f
:105cd00022688e4b53f82230002bc2d18d4b4ff0ef
:105ce000000283f83c20bce7884b1b6ea8f800300c
:105cf0004ff47a6029f024fd2268844b53f8223057
:105d0000002baed1834b93f83c30002ba9d0e5e7b4
:105d10007e4a52f82330a9f800304ff47a6029f017
:105d20000ffd2268794b53f82230002b7ff419aa1b
:105d3000784b93f83d30002b3ff413aaace7734b3c
:105d40005a6e75494a635b6ed3b1724b5b7e63b129
:105d500022686e4b53f82230002b7ff402aa6d4b61
:105d60004ff000025a76fff7fcb96a4b4ff0010280
:105d70005a76664b5b6e33804ff47a6029f0e0fc14
:105d80002268624b53f82230002b7ff4eaa9614b62
:105d90005b7e002b3ff4e5a9e1e75c4b9a6e5e4920
:105da0008a639b6ed3b15b4b9b7e63b12268574b7a
:105db00053f82230002b7ff4d4a9564b4ff0000249
:105dc0009a76fff7ceb9534b4ff001029a764f4bbc
:105dd0009b6e33804ff47a6029f0b2fc22684b4b03
:105de00053f82230002b7ff4bca94a4b9b7e002b3a
:105df0003ff4b7a9e1e7454bda6e47498a63db6eaa
:105e0000d3b1444bdb7e63b12268404b53f8223060
:105e1000002b7ff4a6a93f4b4ff00002da76fff784
:105e2000a0b93c4b4ff00102da76384bdb6e338081
:105e30004ff47a6029f084fc2268344b53f8223006
:105e4000002b7ff48ea9334bdb7e002b3ff489a916
:105e5000e1e7324b1a78304b043b002001e0ab42c3
:105e600007d053f8041f0029f9d00132d2b20098ac
:105e7000f5e708b1294b1a70284b1b7853b1274b13
:105e80004ff000021a70264b1a78214b03f12800bc
:105e9000002622e0234b4ff000021a80224b1a808a
:105ea000adf80c20214b1b88adf80e30204b1b8821
:105eb000adf81030adf812203b88adf814301d4b12
:105ec0001b88adf816300223019a03a91a4800680e
:105ed00025f036fad7e7984207d053f8041b00297b
:105ee000f9d00132d2b2009ef5e70eb10c4b1a7018
:105ef0000b4b1b7833b30a4b4ff000021a700f4b59
:105f00001a780f4b03f1280000263ee0088e01208e
:105f1000149401208492012044920120df9a0120f0
:105f2000e09a0120068e01208a970120c29201206a
:105f3000f69201209e9a012048980120e19a0120c2
:105f40003c940120334b4ff000021a803a80324bd0
:105f50001b88adf80c30adf80e20304b1b88adf827
:105f600010302f4b1b88adf81230adf814202d4b9c
:105f70001b88adf816300223019a03a92a4800684d
:105f800025f0def9bbe7834207d053f8041b002954
:105f9000f9d00132d2b2009ef5e70eb1234b1a7050
:105fa000224b1b78002b30d11c4b4ff000021a8083
:105fb0001c4b1a80184b1b88adf80c30154b1b88f6
:105fc000adf80e30adf81020154b1b88adf812302f
:105fd0003b88adf81430adf816200223019a03a9ce
:105fe0001148006825f0acf94ff47a7029f0a8fb4d
:105ff000019b2360084edff82490dff81880dff85b
:1060000020a0dff820b0fff7cfb8084b4ff0000218
:106010001a70e9e7c2920120068e0120f692012053
:106020008a9701209e9a012048980120e19a012038
:020000040000fa
:1060300038b50446d4485a230370a5234370072378
:1060400083708223c3701423037102234371d4f835
:1060500000311a0e82711a0cc2711a0a027243724e
:10606000ca4b4ff400229a610a2127f001f82af066
:1060700007ff0028fbd0c54b4ff400225a61c248ed
:106080005a210170a5214170052181708221c170c2
:10609000142101710621417100218171b4f81e1192
:1060a000c1719a61082126f0e3ff2af0e9fe002879
:1060b000fbd0b64b4ff400225a61b3485a2101700d
:1060c000a5214170052181708221c17014210171c7
:1060d0000821417100258571d4f80451c5719a6178
:1060e00026f0c6ff2af0ccfe0028fbd0a74a4ff4ca
:1060f00000215161a4485a230370a523437005234e
:1061000083708223c370142303710a234371002315
:106110008371d4f804311b0ac3719161082126f000
:10612000a7ff2af0adfe0028fbd0984b4ff40022c9
:106130005a6195485a210170a5214170052181704d
:106140008221c170142101710c21417100218171e2
:10615000b4f80611c1719a61082126f089ff2af06e
:106160008ffe0028fbd0894b4ff400225a618648ed
:106170005a210170a5214170052181708221c170d1
:10618000142101710e21417100218171b4f80e11a9
:10619000c1719a61082126f06bff2af071fe002878
:1061a000fbd07a4a4ff40021516177485a2303709b
:1061b000a5234370052383708223c37014230371c6
:1061c0001023437100238371d4f80c311b0ac3716f
:1061d0009161082126f04cff2af052fe0028fbd0e6
:1061e0006a4b4ff400225a6167485a210170a52179
:1061f0004170052181708221c17014210171122129
:10620000417100218171d4f80c11c1719a6108218a
:1062100026f02eff2af034fe0028fbd05b4a4ff414
:106220000021516158485a230370a5234370072366
:1062300083708223c3701423037116234371d4f82f
:1062400020311d0e85711d0cc5711d0a057243722a
:1062500091610a2126f00cff2af012fe0028fbd0e3
:106260004a4b4ff400225a6147485a210170a52138
:106270004170052181708221c170142101711a21a0
:10628000417100218171b4f83e11c1719a610821f8
:1062900026f0eefe2af0f4fd0028fbd03b4b4ff435
:1062a00000225a6138485a210170a5214170052108
:1062b00081708221c170142101711c214171002162
:1062c0008171d4f82411c1719a61082126f0d0fea1
:1062d0002af0d6fd0028fbd02c4a4ff40021516152
:1062e00029485a230370a523437005238370822312
:1062f000c370142303711e23437100238371d4f8e8
:1063000024311b0ac3719161082126f0b1fe2af0e5
:10631000b7fd0028fbd01d4b4ff400225a611a48ec
:106320005a210170a5214170052181708221c1701f
:10633000142101712021417100218171b4f82611cd
:10634000c1719a61082126f093fe2af099fd002878
:10635000fbd00e4b4ff400225a610b485a210170ba
:10636000a5214170052181708221c1701421017124
:106370002221417100218171b4f82e11c1719a61fd
:10638000082126f075fe03e08c9401200080004176
:106390002af076fd0028fbd0d54a4ff40021516148
:1063a000d4485a230370a5234370052383708223a6
:1063b000c370142303712423437100238371d4f821
:1063c0002c311b0ac3719161082126f051fe2af07d
:1063d00057fd0028fbd0c64b4ff400225a61c54838
:1063e0005a210170a5214170052181708221c1705f
:1063f000142101712621417100218171d4f82c11e1
:10640000c1719a61082126f033fe2af039fd002877
:10641000fbd0b74a4ff400215161b6485a230370ac
:10642000a5234370072383708223c3701423037151
:106430002a234371d4f840311d0e85711d0cc5719e
:106440001d0a0572437291610a2126f011fe2af09d
:1064500017fd0028fbd0a64b4ff400225a61a54837
:106460005a210170a5214170052181708221c170de
:10647000142101712e21417100218171b4f85e1146
:10648000c1719a61082126f0f3fd2af0f9fc002879
:10649000fbd0974b4ff400225a6196485a21017065
:1064a000a5214170052181708221c17014210171e3
:1064b0003021417100218171d4f84411c1719a6178
:1064c000082126f0d5fd2af0dbfc0028fbd0884a05
:1064d0004ff40021516187485a230370a52343706c
:1064e000052383708223c370142303713223437105
:1064f00000238371d4f844311b0ac37191610821d0
:1065000026f0b6fd2af0bcfc0028fbd0784b4ff4f7
:1065100000225a6177485a210170a5214170052156
:1065200081708221c17014210171342141710021d7
:106530008171b4f84611c1719a61082126f098fd65
:106540002af09efc0028fbd0694b4ff400225a61d0
:1065500068485a210170a52141700521817082216e
:10656000c170142101713621417100218171b4f88b
:106570004e11c1719a61082126f07afd2af080fc43
:106580000028fbd05a4a4ff40021516159485a2340
:106590000370a5234370052383708223c3701423e3
:1065a00003713823437100238371d4f84c311b0ae3
:1065b000c3719161082126f05bfd2af061fc00287f
:1065c000fbd04b4b4ff400225a614a485a210170cc
:1065d000a5214170052181708221c17014210171b2
:1065e0003a21417100218171d4f84c11c1719a6135
:1065f000082126f03dfd2af043fc0028fbd03c4a50
:106600004ff4002151613b485a230370a523437086
:10661000072383708223c3701423037140234371c3
:10662000d4f860311d0e85711d0cc5711d0a0572ef
:10663000437291610a2126f01bfd2af021fc0028fb
:10664000fbd02b4b4ff400225a612a485a2101708b
:10665000a5214170052181708221c1701421017131
:106660004421417100218171b4f87e11c1719a6198
:10667000082126f0fdfc2af003fc0028fbd01c4b6f
:106680004ff400225a611b485a210170a521417024
:10669000052181708221c17014210171462141714f
:1066a00000218171d4f86411c1719a61082126f02a
:1066b000dffc2af0e5fb0028fbd00d4a4ff4002157
:1066c00051610c485a230370a5234370052383703e
:1066d0008223c37014230371482343710023837101
:1066e000d4f864311b0ac3719161082104e000bf32
:1066f000008000418c94012026f0bafc2af0c0fbf7
:106700000028fbd0d54b4ff400225a61d4485a21bf
:106710000170a5214170052181708221c170142171
:1067200001714a21417100218171b4f86611c17172
:106730009a61082126f09cfc2af0a2fb0028fbd0dd
:10674000c64b4ff400225a61c5485a210170a52159
:106750004170052181708221c170142101714c2189
:10676000417100218171b4f86e11c1719a610821e3
:1067700026f07efc2af084fb0028fbd0b74a4ff4b9
:1067800000215161b6485a230370a52343700523a5
:1067900083708223c370142303714e23437100233b
:1067a0008371d4f86c311b0ac3719161082126f002
