:020000040000fa
:10000000f0ff0320b1c7020093e102007ff8020075
:10001000c30c0300cf0e0300cf0f0300000000004d
:100020000000000000000000000000004109030083
:10003000830a030000000000f1d50200cdfc02009d
:10004000c9100300c9100300c9100300c910030040
:10005000c9100300c9100300c9100300c910030030
:10006000c9100300c9100300c9100300c910030020
:10007000c9100300850a0300a50a0300c910030084
:10008000c9100300c50a0300e50a0300050b0300bd
:10009000c9080300ed08030011090300e50503008a
:1000a0000d060300c9100300c9100300c9100300a6
:1000b000c9100300c9100300c9100300c9100300d0
:1000c000c9100300c9100300c9100300c9100300c0
:1000d000c9100300c9100300c9100300c9100300b0
:1000e000c9100300c9100300000000000000000058
:1000f00000000000c9100300c9100300c91003006c
:10010000c9100300c9100300c9100300c91003007f
:10011000c9100300c91003006ddb02006ddb020093
:100120006ddb02006ddb0200d5a30200d5a3020047
:10013000d5a30200d5a302004dd902004dd902007b
:100140004dd902004dd90200bdda0200bdda02002d
:10015000bdda0200bdda020015db020015db020089
:1001600015db020015db0200c5db0200c5db020067
:10017000c5db0200c5db0200d5bb020065bd020085
:10018000c9100300c9100300c9100300c9100300ff
:1001900000000000c9100300c9100300c9100300cb
:1001a000c9100300c9100300c9100300c9100300df
:1001b000c9100300c9100300c9100300c9100300cf
:1001c000c9100300c9100300c9100300c9100300bf
:1001d000c9100300c9100300c9100300c9100300af
:1001e000c9100300c9100300c9100300c91003009f
:1001f000c9100300c9100300c9100300c91003008f
:10020000c9100300c9100300c9100300c91003007e
:10021000c9100300c9100300c9100300c91003006e
:10022000c9100300c9100300c9100300c91003005e
:10023000c9100300c9100300c9100300c91003004e
:10024000c9100300c9100300c9100300c91003003e
:10025000c9100300c9100300c9100300c91003002e
:020000040000fa
:10026000f8b500bff8bc08bc9e46704771e70200b5
:10027000f8b500bff8bc08bc9e4670474de70200c9
:020000040000fa
:080280003c7e020001000000b9
:020000040000fa
:100288002de9f04ffdb000247a947b9478948df892
:10029800e441adf8dc417594769474947194729449
:1002a8008df8cc416f94cdf8bf416c946d946e94e9
:1002b80069946a946b946694679468945f94609464
:1002c800619462946394649465945b945c945d9483
:1002d800adf8784155945694579458945994cdf85c
:1002e8006741a022214617a830f056fe15941694af
:1002f8001e22214605a830f04ffedff85083ba4c85
:10030800dff84c93b94ddff84cb3dff84ca33de26e
:1003180000262e80abf80060b54b1e70b54b1e80d2
:1003280032467aa9b44b18682bf0e0f8324678a91f
:10033800b24b18682bf0daf8324677a9b04b186838
:100348002bf0d4f89df8ef31012b40f0e9819df8ae
:10035800e231002b40f0e4819df8e1316d2b31d87a
:100368009df8e131632b00f2db81a64e6c964023a9
:100378008df8ba31a44f002364226ca938682af09a
:1003880095ff4ff47a702ff0c1f96c9600268df81e
:1003980096618df8ba61334664226ca938682af0f0
:1003a80085ff64202ff0b2f9984b01221a700423bc
:1003b8008df8fc30022332463fa9954800682af0a0
:1003c80075ffade1934b1e60934b1e608d4b6c9394
:1003d80040238df8ba318c4f334664226ca93868b3
:1003e8002af064ff4ff47a702ff090f9854b6c93e4
:1003f8008df896618df8ba61334664226ca9386825
:100408002af054ff64202ff081f9804b01221a70e2
:100418000c2389f80030a3e7804b699300268df8f8
:10042800a8613346642269a97d4800682af03eff26
:1004380064202ff06bf97b4b669301278df872715e
:100448008df89c718df873618df89d618df87461dc
:100458008df89e613346642266a9734800682af0c5
:1004680025ff64202ff052f9664b6c938df8947138
:100478008df8b571334664226ca9634800682af088
:1004880015ff64202ff042f9324677a95c4b1868b3
:100498002bf02cf89df8dc31bb4240f041815b4bde
:1004a80002221a703ce1574e6c9640238df8ba31ff
:1004b800554f002364226ca938682af0f7fe4ff4e0
:1004c8007a702ff023f96c9600268df896618df8d6
:1004d800ba61334664226ca938682af0e7fe6420c2
:1004e8002ff014f9324678a9444b18682af0feff19
:1004f800002800f015819df8e131503bdbb21d2b3f
:1005080025d99df8e1316d2b0dd9484b1b78002b6f
:1005180000f0a480464b00221a700c2389f80030a2
:1005280001202df0c9fc434b1b681e2b40f3f880bb
:10053800404b00221a603d4b1b7823b93e4b4ff4c9
:100548008032c3f89820314b00221a70e8e002206c
:100558002df0b2fc384b4ff48032c3f894200423ba
:100568008df8fc30022332463fa9294800682af05a
:100578009dfe092389f800302d4b01221a70254b66
:100588001b6893420ed02d4b1b78022b18d0214ba1
:100598001b6813b91d4b03221a70264a13680133ce
:1005a8001360aee732468df84060022310a9244854
:1005b80000682af07bfe234b18682bf0effee2e779
:1005c8001e4b5b78012be2d1104b03221a700022dc
:1005d8008df84420022311a91b4800682af066fe02
:1005e8000d4b01221a60d2e7dc990120b89a01204c
:1005f800ef9a0120429601209099012094990120b8
:10060800b899012002c4ec1558990120a59a012037
:10061800bc980120209a0120289a012001c4ec15d9
:100628003c99012002d4ec152c990120c19a012093
:10063800c69a01200c9a012000800041ac9a012042
:10064800589801204098012064980120d09a0120f0
:10065800999a0120bc9a0120ce9a0120b64b4ff4fa
:100668008032c3f898204ff6ff702ef0abf90023c4
:10067800b24a1360b24a1360b24b1b78002b7ff466
:1006880049afb04b01221a70af4b18782cf072ffab
:1006980040e70026ad4b1e60ad4b699308238df8eb
:1006a80057318df8ab313346642269a9a9480068ef
:1006b8002af0fcfd4ff47a702ff028f8a64f6c97bb
:1006c8008df895618df8b8618df896618df8ba61ed
:1006d8008df897618df8bb61334664226ca99f48f9
:1006e80000682af0e3fd4ff47a702ff00ff83246d5
:1006f80077a99b4b18682af0f9fe6c9702238df8ae
:1007080094318df8b531334664226ca9934800685a
:100718002af0ccfd64202ef0f9ff924b04221a70c7
:1007280099f800308df851302a88adf84e20bbf882
:100738000020adf84c209af800208df8522098f847
:1007480000208df850208df848300223002213a98c
:10075800854800682af0aafd0223002212a98348ce
:1007680000682af0a3fd2368012b0bd10023236026
:100778007c4a13707e4b18682bf010fe7d4b18686e
:100788002bf056f94ff448702ef0c0ff00220da947
:10079800794b18682af0aafe28b1784a9df83430b7
:1007a80011880b4413806f4b1b78dbb21e2bb7d814
:1007b80001a252f823f000bf190300002104000031
:1007c800af0400009b0600003d0800002907000058
:1007d800b1080000290700002907000029070000c8
:1007e8002907000029070000290700002907000041
:1007f80029070000290700002b0a0000290700002c
:10080800550b0000810d0000510e00002907000063
:10081800e11000002907000029070000290700004f
:100828002907000029070000290700002907000000
:100838007d1a0000002278a9514b18682af056fe4c
:10084800002277a9464b18682af050fe9df8e2313d
:10085800012b1fd09df8dc31fa2b02d0fc2b00d0e5
:1008680013b9404b00221a709df8e1316d2b7ff6c9
:1008780057af444b1b7823b92f4b4ff48032c3f842
:1008880098200023404a13700c2289f80020354a2a
:10089800137045e79df8e131503bdbb21d2bd9d8e9
:1008a800304b06221a70d5e70022264b1a7077a91a
:1008b8002b4b18682af01afe9df8dc31312b0ed923
:1008c8001e4b1b68012b28d0002b41f01f820022f1
:1008d8006fa92e4b18682af009fe00285ad19df8f6
:1008e800dc31fa2b02d0fc2b00d053b9134a126822
:1008f800012a19d02ab91b4a002111700f4a012177
:1009080011600a2b7ff40caf214b1b780133dbb24b
:10091800f02b76d01e4a137002e7124b10221a7081
:100928009df8dc31fa2bded10e4a00211170034a02
:1009380001211160e5e700bf00800041209a0120f5
:10094800289a0120fb9a0120569b01200c9a01202d
:1009580001c4ec153c99012002c4ec1558990120fa
:10096800b8990120a59a01205498012014980120d3
:100978008c980120449901208898012042960120f2
:1009880094990120c19a0120c69a0120a0990120ba
:10099800079b01209df8bc318df838309df8bd319a
:1009a8008df839309df8be318df83a309df8bf3159
:1009b8008df83b309df8c0318df83c309df8c13141
:1009c8008df83d30022300220ea9524800682af013
:1009d8006dfc9df83830002b81d04f4b01221a60f6
:1009e8004e4b10221a7002238df84030002210a9b5
:1009f8004b4800682af05afc4a4b18682bf0cefc8a
:100a08006de70023484a1370444a1370474b40f27d
:100a180033121a80464b02221a7011202cf0aafdbc
:100a28007ee6414b00221a70424b1b686bbb424b5f
:100a38001b78022b2dd1404b5b78012b29d1164610
:100a48008df84420022311a93c4800682af02efca6
:100a58003b4b6c9301238df896318df8ba313346b0
:100a680064226ca9374800682af020fc64202ef024
:100a78004dfe324677a9344b18682af037fd274bcc
:100a880012221a700e202cf075fd2a4b1b68012bc0
:100a980022d0002277a92c4b18682af027fd9df850
:100aa800dc31fa2b04d0fc2b02d0002b7ff438aebb
:100ab8001a4b00221a70184b01221a601b4b4ff474
:100ac8009a721a801a4b02221a7006202ff0aaf97d
:100ad80011202cf04ffd23e6194b6c9301238df860
:100ae80096318df8ba31002364226ca91548006844
:100af8002af0dcfb64202ef009fe002277a9124bb5
:100b080018682af0f3fc054b12221a700e202cf0fc
:100b180031fdbee75c980120209a0120a59a0120aa
:100b28005898012040980120079b012082970120b6
:100b3800d49a0120289a0120ac9a012064980120b7
:100b480002c4ec1558990120b89901200123a84a3c
:100b58001360a84a4ff40011c2f8181100225292eb
:100b6800a54a53928df8503102238df85131002255
:100b780052a9a24800682af099fba14b18682bf0eb
:100b88000dfc002275a99f4b18682af0affc0028bd
:100b980000f0d7809df8d4319df8d52102eb0322cf
:100ba800994981fb0232931007ee903af8eee77a02
:100bb8009df8d6219df8d73103eb022381fb03234f
:100bc8009b1007ee103ab8eec77abdeec77a17ee5b
:100bd800103a8e4a92fbf3f303eb83035b0007eeb4
:100be800103ab8eec77a8a4b83ed007ab2ee047aef
:100bf80067ee877a93ed007af4eec77af1ee10fa91
:100c080048bfc3ed007a834b6c9300268df8ba6118
:100c1800334664226ca9804800682af047fb6420a8
:100c28002ef074fd7d4b6993794ad2ed007afcee83
:100c3800e77a17ee903a8df8a831d2ed007afceefb
:100c4800e77a17ee903ac3f307238df8a931e0232a
:100c58008df8aa312e238df8ab314ff010028df8a4
:100c6800ac2127238df8ad3114278df8ae718df89e
:100c7800af613346642269a9694800682af016fb07
:100c88004ff496702ef042fd8df8a8718df8a96189
:100c9800c8238df8aa318df8ab618df8ac718df849
:100ca800ad6164278df8ae718df8af615d4b6993c6
:100cb80033463a4669a95a4800682af0f7fa4ff4c9
:100cc80096702ef023fd02238df896318df8ba31f7
:100cd800504b6c9333463a466ca94f4800682af04b
:100ce800e5fa38462ef012fd10202cf043fc32466f
:100cf80077a94d4b18682af0f9fb9df8dc21a2f181
:100d08005b03dbb2092b08d8484b13221a70394b06
:100d18004ff48012c3f8142113e0fa2a01d0fc2af8
:100d280027d1424b00221a70414b40f235121a80eb
:100d3800404b02221a7008202ff074f811202cf072
:100d480019fc00260e96adf83c60022332460ea927
:100d5800394800682af0aafa8df840600223324622
:100d680010a9364800682af0a1fa354b1e809e70fb
:100d7800d6e4002ad5d0e4e7002278a9314b1868d8
:100d88002af0b4fb9df8e131312b7ff6c9ac194b41
:100d9800d3f8203113f0807f19d101238df89531d4
:100da8008df8b8310c238df896318df8ba31194b7e
:100db8006c93002364226ca9174800682af076fa1d
:100dc80064202ef0a3fc194b14221a70a8e4174bc8
:100dd80000221a70164b40f235121a80154b022267
:100de8001a7007202ff01ef811202cf0c3fb97e48f
:100df800289a01200080004100004843f098012013
:100e0800f4980120a899012067666666c0d401009d
:100e1800cc98012002c4ec155899012003c4ec15a4
:100e28003c99012004c0ec15b8990120a59a01202d
:100e380082970120d49a01205c98012058980120bb
:100e4800ac9a012094990120002274a9874b186854
:100e58002af04cfb9df8d0319df8d12102eb0322fa
:100e6800834981fb0232921007ee902af8eee77a66
:100e7800804bc3ed007a9df8d2219df8d33103eb66
:100e8800022381fb03239b1007ee103ab8eec77ac2
:100e9800794b83ed007a4ff080435293cded537a2e
:100ea80001238df8503102238df85131002252a9c7
:100eb800724800682af0faf9714b18682bf06efa3c
:100ec8009df8d1318df8b4319df8d0318df8b53118
:100ed8009df8d3318df8b6319df8d2318df8b73100
:100ee800684b6c93002364226ca9674800682af059
:100ef800ddf964202ef00afc12202cf03bfb0022c6
:100f080077a9624b18682af0f1fa00283ff408ac78
:100f18009df8dc31782b1ad09df8dc31fa2b04d0ff
:100f2800fc2b02d0002b7ff4fbab594b1e221a700e
:100f3800584b4ff49b721a80574b02221a700820a4
:100f48002ef070ff11202cf015fbfff7e9bb534b77
:100f58001f6830f05df84ef66026009600230246c2
:100f6800012138462df038f94d4b1f6830f050f804
:100f7800009600230246012138462df02df9494bf1
:100f88001f6830f045f800960023024601213846d4
:100f98002df022f9444b1f6830f03af800960023f0
:100fa8000246012138462df017f9404b1f6830f0f2
:100fb8002ff8009600230246012138462df00cf93f
:100fc8003b4b1f6830f024f80096002302460121ad
:100fd80038462df001f92e4b16221a70354b187829
:100fe8002ef06af964202ef091fb334e30782ef003
:100ff8007ff964202ef08afb304f38882ef094f960
:1010080064202ef083fb2e4908782ef0c5f9642061
:101018002ef07cfb2b4800782ef0a2f964202ef0ed
:1010280075fb294a10782ef0d3f964202ef06efb58
:10103800264b1a68264b1a60264b18682bf0aef917
:10104800398833781b4a12781b0243ea0143134359
:1010580043931c4801781a4b1b781b4a12781b02d1
:1010680043ea01431343449356e700bfb099012074
:1010780067666666849a0120ec990120f098012041
:10108800f498012005c4ec1558990120b89901205d
:10109800a59a012082970120d49a0120d099012095
:1010a800509a0120549a0120589a01205c9a0120f4
:1010b80094980120e09a0120f99a01205a8d012084
:1010c800f89a0120e99a0120059b0120b498012093
:1010d80018990120c098012047f230502df072fc79
:1010e80001238df8fc30022300223fa958480068ec
:1010f8002af0dcf803202cf0dffe564b18882ef07f
:1011080033f8554b1b78072b00f09c80002274a9fc
:10111800524b18682af0eaf9002840f0bf80642092
:101128002ef0f4fa9df8d1318df8b4319df8d03114
:101138008df8b5319df8d3318df8b6319df8d2319f
:101148008df8b731464b6c93002364226ca945484f
:1011580000682af0abf864202ef0d8fa002271a9b2
:10116800414b18682af0c2f9a0b1404a13789df89b
:10117800c6013f49c854062189f80010013313708d
:10118800354b1b78042b40f29283334b1b78052b8d
:1011980000f09883374b1b78052b00f09b83334b6b
:1011a8001b78052b00f00d84334b1b782bb9334b80
:1011b8001b78dbb2012b00f023842f4b1b78dbb2aa
:1011c800012b00f028849df8dc31292b03d0fa2b61
:1011d80001d0fc2b15d1294b00221a70284b1e2256
:1011e8001a70092389f80030264bca221a80264b28
:1011f80002221a700a202ef015fe244b1a68244b7e
:101208001a609df8c431012b00f01c84214b1b7817
:10121800022b7ff485aa1f4b9b78012b7ff480aab1
:101228000023164a1370164a1e211170092289f8e4
:101238000020184a13809370144b1a68144b1a60d4
:10124800fff76eba144b18782ef096fc5ee700bfd5
:10125800bc98012042960120ef9a0120b099012004
:1012680005c4ec1558990120ac990120ec9a01208d
:1012780084970120f49a0120c19a0120c69a01207e
:10128800a59a012082970120d49a0120b4980120c0
:1012980020990120ac9a0120a99a01209df8d22119
:1012a8009df8d33103eb0223c34a82fb03139b0847
:1012b80007ee903af8ee677ac04bc3ed007a9df8d6
:1012c800d0119df8d13103eb012382fb03239b0846
:1012d80007ee103ab8ee477ab94b83ed007a17ee6d
:1012e800900a2ef095fa02460b46b64905a82ff04b
:1012f800d7fc1e2105a82bf03dfe2ff0edfd0028a0
:10130800fbd0ae4bd3ed007aad4bd3ed006a27eea0
:10131800a67aad4b83ed007aac4b1b78002b40f0de
:101328008780ab4b1a68ab4b1a6093ed006ab4ee3a
:10133800c67af1ee10fa34d5a74b1b7833bb9fed74
:10134800a77a76ee876acded536aa24b93ed006ad1
:10135800a34bd3ed006a86ee267af4eec77af1ee57
:1013680010fac0f28880f5ee007a27ee277a8ded24
:10137800527a03238df8513101238df8503102231d
:10138800002252a99748006829f090ff924b1b78d9
:10139800dbb2012b7cd0904b1b78dbb2012b00f029
:1013a800be808c4bd3ed007a874b93ed007ab4ee78
:1013b800e77af1ee10fa3bdd874b1b7863bb804b75
:1013c800d3ed007a9fed857a77ee877acded537a63
:1013d800804bd3ed006a824bd3ed007a86eea77a74
:1013e800764bd3ed007ab4eee77af1ee10fa00f21c
:1013f800d580f5ee007a27ee277a8ded527a032311
:101408008df8513101238df850310223002252a961
:101418007448006829f04aff6f4b1b78dbb2012b38
:1014280000f0ec806c4b1b78dbb2012b00f02d81b7
:10143800664b1b78dbb2012b00f066816a490a789b
:1014480090006a4e06449df8d2719df8d33103eba3
:101458000723594f87fb03739b0807ee903af8ee72
:10146800677ac6ed007a624b03445d4800681860ed
:1014780001320a7053e6f4eec77af1ee10fa7ff5fe
:1014880078afb5ee007a67ee877acded527a70e7dd
:10149800584b1b78dbb2112b7ff67daf564b4ff4c0
:1014a8000012c3f81821464bd3ed007a9fed4b7a12
:1014b80077ee877acded537a464bd3ed007ab6eec8
:1014c800007a67ee877a464bd3ed006a87eea67af4
:1014d8003a4bd3ed007ab4eee77af1ee10fa12d86f
:1014e800f6ee007a27ee277a8ded527a02238df8f0
:1014f800513101228df85021002252a93948006843
:1015080029f0d4fe4de7b4eee77af1ee10faedddfe
:10151800b6ee007a67ee877acded527ae6e7354b7c
:101528001b78dbb2112b3ff63caf254bd3ed007a8d
:101538009fed2a7a77ee877acded537a254bd3ed56
:10154800006a274bd3ed007a86eea77a1b4bd3edc2
:10155800007ab4eee77af1ee10fa13d8f5ee007ad5
:1015680027ee277a8ded527a03238df85131012326
:101578008df850310223002252a91a48006829f038
:1015880095fe0ee7b4eee77af1ee10faecddb5ee73
:10159800007a67ee877acded527ae5e7b4eee77a1e
:1015a800f1ee10fa7ff72bafb5ee007a67ee877a87
:1015b800cded527a23e700bf67666666ec99012095
:1015c800849a0120e42101004c9a0120cc9a012040
:1015d800409b0120e4980120c19a012000000000ee
:1015e800489b0120f0980120f49a0120a095012041
:1015f800c8950120a19a012000800041be4b1b78ac
:10160800dbb2112b7ff60eafbc4b4ff40012c3f8c0
:101618001821bb4bd3ed007a9fedba7a77ee877a23
:10162800cded537ab84bd3ed007ab6ee007a67ee7b
:10163800877ab64bd3ed006a87eea67ab44bd3ed22
:10164800007ab4eee77af1ee10fa12d8f6ee007ae4
:1016580027ee277a8ded527a02238df85131012237
:101668008df85021002252a9aa48006829f01efed0
:10167800dee6b4eee77af1ee10faedddb6ee007aca
:1016880067ee877acded527ae6e79b4b1b78dbb2a3
:10169800112b3ff6cdae9a4bd3ed007a9fed997a98
:1016a80077ee877acded537a974bd3ed006a974b57
:1016b800d3ed007a86eea77a954bd3ed007ab4ee97
:1016c800e77af1ee10fa13d8f5ee007a27ee277aca
:1016d8008ded527a03238df8513101238df8503165
:1016e8000223002252a98b48006829f0dffd9fe6fb
:1016f800b4eee77af1ee10faecddb5ee007a67eebb
:10170800877acded527ae5e7834b1b785bbb7c4b40
:10171800d3ed007a9fed7b7a77ee877acded537a19
:101728007e4bd3ed006a794bd3ed007a86eea77a2b
:10173800774bd3ed007ab4eee77af1ee10fa50d891
:10174800f5ee007a27ee277a8ded527a03238df88d
:10175800513101238df850310223002252a96d48de
:10176800006829f0a3fd6c4b1b78dbb2012b44d039
:10177800694b1b78dbb2012b7ff460ae5e4b1b78a4
:10178800dbb2112b3ff65aae5d4bd3ed007a9feddd
:101798005d7a77ee877acded537a604bd3ed006aa8
:1017a8005a4bd3ed007a86eea77a594bd3ed007adf
:1017b800b4eee77af1ee10fa6dd8f5ee007a27ee7e
:1017c800277a8ded527a03238df8513101238df854
:1017d80050310223002252a94e48006829f066fdc4
:1017e8002ce6b4eee77af1ee10faafddb5ee007a4a
:1017f80067ee877acded527aa8e73f4b1b78dbb2cc
:10180800112bb5d93d4b4ff40012c3f81821434ba7
:1018180093ed007adfed427ab4eee77af1ee10fa52
:10182800c8bfc3ed007a364bd3ed007a9fed357a09
:1018380077ee877acded537a384bd3ed006a334b88
:10184800d3ed007a86eea77a314bd3ed007ab4ee69
:10185800e77af1ee10fa12d8f6ee007a27ee277a38
:101868008ded527a02238df8513101228df85021e5
:10187800002252a92748006829f018fddee5b4eed9
:10188800e77af1ee10faedddb6ee007a67ee877ac8
:10189800cded527ae6e7b4eee77af1ee10fa92dd92
:1018a800b5ee007a67ee877acded527a8be72ef0a7
:1018b80063f99df8c6211b4b1a701b4a1378013334
:1018c800137062e4184b07221a709df8c6318af823
:1018d80000305fe44ff0000c144b83f800c02988f7
:1018e800bbf80000124b134a03f1140ecdf80cc0dc
:1018f8001f461646029121e0a19a0120008000416e
:10190800849a012000000000e4980120489b0120ef
:10191800ec990120f0980120c19a0120ec9801204f
:1019280000606a47a99a0120ef9a0120f49a0120e1
:10193800a0950120c8950120734525d0f3ec017ac4
:1019480097ed007ab4eee77af1ee10fa09d8c7ed10
:10195800007afceee77a17ee901a89b202914ff0fe
:10196800010cf2ec017a96ed007ab4eee77af1ee2a
:1019780010fae1d8c6ed007afceee77a17ee901a75
:1019880088b201210391d7e70299bcf1000f00d07a
:101998002980039b0bb1abf80000b54bd3ed007a5f
:1019a800fceee77a17ee900a2df016fcb14bd3ed5a
:1019b800007afceee77a17ee900a2df0f1fbfff7bc
:1019c800eebb0026ac4b1e7098f800c0ab4b5f1df9
:1019d80018464ff0010e01e0bb4208d013f8012b66
:1019e80001789142f8d8027094467646f4e70eb131
:1019f80088f800c0a14b18782ef0a6f8fff7d4bbe2
:101a080000228df84420022311a99d48006829f07e
:101a18004dfcfff7d2bb9b4b1b78dbb2012b7ff44d
:101a2800d2ab994b1b78dbb2132b7ff6ccab0022e1
:101a38008df84420022311a99148006829f036fc4a
:101a4800fff7c1bb8f4b00221a70904b1e221a70f1
:101a5800092389f800308e4bc9221a808d4b022247
:101a68001a700a202ef0def98b4b1a688b4b1a601d
:101a7800fff7ccbb4ff002038df8513100268df8eb
:101a880050610223324652a98548006829f00efcad
:101a980040f6b8302df03afe03238df894318df8d6
:101aa800b531804b6c93804f334664226ca93868fb
:101ab80029f0fcfb32202df029fe8df8b4618df859
:101ac800b5617a4b6c93334664226ca9386829f067
:101ad800edfb32202df01afe754b4ff48012c3f83f
:101ae80018216d4b1a686d4b1a608df8fc60022343
:101af80032463fa96f48006829f0d8fb614b1b7834
:101b080023b96d4b1b78002b00f0a0800a230093ab
:101b180000231a460321694800682cf05dfb684bd6
:101b280018782df071fc674b18782df089fc664bfe
:101b380018882df0a1fc654b18782df0d5fc644b66
:101b480018782df0b5fc634b18782df0e9fc624b42
:101b580018682df01dfd614b1b78dbb2012b7ad084
:101b68005e4b1b78dbb2022b79d05c4b1b78dbb267
:101b7800032b78d0494bd3ed007afceee77a584b2b
:101b880093ed007abceec77a17ee903a17ee102a5a
:101b98009b1a07ee903af8ee677a524ec6ed007a35
:101ba800fceee77a17ee900a2df0d6fc4e4b152284
:101bb8001a7005202cf080f9474b1b684293424b62
:101bc8001988404b1b783e4a12781b0243ea0143ae
:101bd800134345933e4b19783c4b1b783d4a12788a
:101be8001b0243ea014313434693404b1a7898f883
:101bf800003043ea02434793d6ed007afceee77ad9
:101c080017ee903a43f400334893344b1a78384e21
:101c1800338843ea0243499302238df800310023b5
:101c2800642240a93348006829f040fb324b186809
:101c38002af0b4fb01232360002232802f4a13705c
:101c48002f4a13702f4a1370fef76abd2e4b18687f
:101c580029f0eefe5ae701202ef0e4f880e7022092
:101c68002ef0e0f881e703202ef0dcf882e700bfd1
:101c7800a0950120c8950120ec9a012084970120a5
:101c880064980120c69a0120a19a0120a59a0120f2
:101c980082970120d49a0120b4980120209901202c
:101ca800f098012002c4ec155899012005c4ec15e0
:101cb80000800041bc980120c19a0120949801201d
:101cc800e09a0120f99a01205a8d0120f89a012002
:101cd800e99a0120059b012000980120d39a012050
:101ce8001899012028980120569b0120a99a0120c3
:101cf80042960120789801207c980120c59a0120fd
:101d0800c49a0120c39a0120c09801209df8dc31b3
:101d1800fa2b7ef4e8ad024a1268fef7ebbd00bf6d
:041d2800209a0120dc
:020000040000fa
:101d2c002de9f04ff5b00024729473947094cdf8b3
:101d3c00c3416e948df8bc41adf8b4416b946c9476
:101d4c006a94679468948df8a4416494659466943d
:101d5c006194629463945e945f94609457945894e5
:101d6c0059945a945b945c945d9453945494559404
:101d7c00adf858414d944e944f9450945194cdf8e5
:101d8c0047414a944b944c94a022214610a82ff022
:101d9c0001f90d940e94dff86093bd4dbd4cbe4e11
:101dac00dff858b3dff858a341e20027bb4b1f7094
:101dbc003780abf80070ba4b1f803a4672a9b94b0a
:101dcc00186829f091fb3a466ea9b74b186829f0b0
:101ddc008bfb3a466da9b54b186829f085fb9df82d
:101dec00cf31012b40f0ed819df8ba31002b40f042
:101dfc00e8819df8b9316d2b34d89df8b931632b3e
:101e0c0000f2df81aa4f649740238df89a31dff8f6
:101e1c00c4820023642264a9d8f8000029f044fa93
:101e2c004ff47a702df070fc649700278df8617177
:101e3c008df89a713b46642264a9d8f8000029f009
:101e4c0033fa64202df060fc9a4b01221a700323a4
:101e5c008df83c3002233a460fa99748006829f0c8
:101e6c0023faaee1954b1f60954b1f60904b64932a
:101e7c0040238df89a31dff85c823b46642264a9da
:101e8c00d8f8000029f010fa4ff47a702df03cfcd1
:101e9c00874b64938df861718df89a713b4664227f
:101eac0064a9d8f8000029f0fff964202df02cfc6f
:101ebc00804b01221a700c2323709ee7814b619397
:101ecc0000278df888713b46642261a97e48006822
:101edc0029f0eaf964202df017fc7c4b5e934ff04f
:101eec0001088df852818df87c818df853718df835
:101efc007d718df854718df87e713b4664225ea91c
:101f0c007348006829f0d0f964202df0fdfb684b74
:101f1c0064938df85f818df895813b46642264a9aa
:101f2c006c48006829f0c0f964202df0edfb3a46ae
:101f3c006da95e4b186829f0d7fa9df8b43143456a
:101f4c0040f03f815b4b02221a703ae1584f649784
:101f5c0040238df89a31dff87c810023642264a938
:101f6c00d8f8000029f0a0f94ff47a702df0ccfbd2
:101f7c00649700278df861718df89a713b46642245
:101f8c0064a9d8f8000029f08ff964202df0bcfb6f
:101f9c003a466ea9444b186829f0a6fa002800f0be
:101fac0010819df8b931503bdbb21d2b24d99df823
:101fbc00b9316d2b0cd9484b1b78002b00f0a2804b
:101fcc00464b00221a700c23237001202df0a4fe26
:101fdc00434b1b681e2b40f3f480414b00221a60cc
:101fec003d4b1b7823b93f4b4ff48032c3f89820fc
:101ffc00304b00221a70e4e002202df08dfe394b9c
:10200c004ff48032c3f8942003238df83c30022324
:10201c003a460fa92848006829f046f9092323708d
:10202c002e4b01221a70254b1b6893420ed02e4b5f
:10203c001b78012b18d0214b1b6813b91d4b0322a5
:10204c001a70274a136801331360b0e73a468df8cb
:10205c002070022308a92548006829f025f9244b93
:10206c0018682af099f9e2e71f4b5b78012be2d153
:10207c00104b03221a7000228df82420022309a988
:10208c001c48006829f010f90d4b01221a60d2e7a8
:10209c00d899012089970120b69a0120ee9a012047
:1020ac00aa9401206099012064990120889901204b
:1020bc0002c0ec15a19a0120b89801201c9a0120ad
:1020cc00249a012001c0ec153c99012002d0ec159a
:1020dc002c99012058990120c69a0120c19a0120ff
:1020ec00089a012000800041b09a012058980120e4
:1020fc004098012064980120cf9a0120ba9a0120bf
:10210c00cd9a0120ad4b4ff48032c3f898204ff696
:10211c00ff702cf055fc0023a94a1360a94a1360e8
:10212c00a94b1b78002b7ff44bafa74b01221a70e5
:10213c00a64b18782bf01cfa42e70027a44b1f6023
:10214c00a44b619308238df835318df88b313b46c8
:10215c00642261a9a048006829f0a6f84ff47a70af
:10216c002df0d2fa9d4b64938df860718df89871b7
:10217c008df861718df89a718df862718df89b7183
:10218c00dff888823b46642264a9d8f8000029f065
:10219c008bf84ff47a702df0b7fa904b64930223be
:1021ac008df85f318df895313b46642264a9d8f8df
:1021bc00000029f079f864202df0a6fa884b04224f
:1021cc001a7023788df831303388adf82e30bbf887
:1021dc000030adf82c309af800308df8323099f888
:1021ec0000308df83030022300220ba97d480068a6
:1021fc0029f05af823788df82830022300220aa9f6
:10220c007948006829f050f82b68012b0bd100237a
:10221c002b60734a1370754b18682af0bdf8744b19
:10222c00186829f003fc4ff4fa702df06dfa6c4b22
:10223c001b78dbb21e2bc4d801a252f823f000bfce
:10224c00b71d0000c91e0000591f000047210000e7
:10225c00c9220000cf2100003b230000cf21000049
:10226c00cf210000cf210000cf210000cf210000a2
:10227c00cf210000cf210000cf210000cf21000092
:10228c00ab240000cf210000d92500001528000048
:10229c00ed280000cf2100008d2b0000cf21000085
:1022ac00cf210000cf210000cf210000cf21000062
:1022bc00cf210000cf2100002f35000000226ea995
:1022cc004c4b186829f010f900226da94a4b18687c
:1022dc0029f00af99df8ba31012b1ed09df8b431c2
:1022ec00fa2b02d0fc2b00d013b93d4b00221a70f4
:1022fc009df8b9316d2b7ff664af404b1b7823b939
:10230c002e4b4ff48032c3f8982000233c4a1370b4
:10231c000c222270324a137053e79df8b931503bae
:10232c00dbb21d2bdad82e4b06221a70d6e7002210
:10233c00254b1a706da9304b186829f0d5f89df80b
:10234c00b431312b0ed91e4b1b68012b28d0002b1e
:10235c0041f0db81002270a92a4b186829f0c4f8df
:10236c00002855d19df8b431fa2b02d0fc2b00d0ab
:10237c0053b9134a1268012a19d02ab9184a0021f4
:10238c0011700f4a012111600a2b7ff41aaf1e4bfa
:10239c001b780133dbb2f02b71d01b4a137010e7a2
:1023ac000f4b10221a709df8b431fa2bded10c4a67
:1023bc0000211170024a01211160e5e70080004103
:1023cc001c9a0120249a0120fa9a0120569b012084
:1023dc00089a012001c0ec153c99012002c0ec15b3
:1023ec00a19a012050980120109801208498012076
:1023fc00349901206499012088990120c69a012002
:10240c00c19a012070990120069b01205899012046
:10241c009df8c0318df818309df8c1318df8193008
:10242c009df8c2318df81a309df8c3318df81b30f0
:10243c009df8c4318df81c309df8c5318df81d30d8
:10244c000223002206a95348006828f02dff9df8ae
:10245c001830002b86d001234f4a13604f4a1021ad
:10246c0011708df820304e4b186829f095ff02231f
:10247c00002208a94b48006828f016ff72e70023d9
:10248c00494a1370454a1370484b40f233121a8074
:10249c00474b01221a7008202bf06af891e6424b48
:1024ac0000221a70434b1b6873bb434b1b78012be8
:1024bc002ed1414b5b78012b2ad117468df8242065
:1024cc00022309a93d48006828f0eefe3c4b6493ba
:1024dc0001238df861318df89a313b46642264a951
:1024ec003848006828f0e0fe64202df00df94ff418
:1024fc007a726da9344b186828f0f6ff274b12221c
:10250c001a7005202bf034f82a4b1b68012b21d0b4
:10251c0000226da92c4b186828f0e6ff9df8b43109
:10252c00fa2b04d0fc2b02d0002b7ff44aae1b4bb1
:10253c0000221a700123184a13601c4a4ff49a7136
:10254c0011801b4a137006202df054fc08202bf030
:10255c000ff836e61a4b649301238df861318df830
:10256c009a310023642264a91648006828f09cfe66
:10257c0064202df0c9f84ff47a726da9124b1868cb
:10258c0028f0b2ff054b12221a7005202af0f0ff3a
:10259c00bee700bf5c9801201c9a0120a19a012083
:1025ac004098012058980120069b01208297012019
:1025bc00d49a0120249a0120b09a01206498012019
:1025cc0002c0ec155899012088990120ae4b4ff4ac
:1025dc000012c3f8182100234a93ac4b4b930127ec
:1025ec008df830718df83171002364224aa9a84806
:1025fc00006828f059fea74b186829f0cdfea64bb1
:10260c001f6000226ba9a54b186828f06dff0028ed
:10261c0000f0d5809df8ac319df8ad2102eb032282
:10262c009f4981fb0232931007ee903af8eee77a5d
:10263c009df8ae219df8af3103eb022381fb032300
:10264c009b1007ee103ab8eec77abdeec77a17eebc
:10265c00103a944a92fbf3f303eb8303bb4007ee6f
:10266c00103ab8eec77a904b83ed007ab2ee047a4a
:10267c0067ee877a93ed007af4eec77af1ee10faf2
:10268c0048bfc3ed007a894b649300278df89a718b
:10269c003b46642264a98648006828f005fe642045
:1026ac002df032f8834b61937f4ad2ed007afcee29
:1026bc00e77a17ee903a8df88831d2ed007afcee7d
:1026cc00e77a17ee903ac3f307238df88931e023ac
:1026dc008df88a312e238df88b3110238df88c31a7
:1026ec0027238df88d314ff014088df88e818df8dd
:1026fc008f713b46642261a96f48006828f0d4fdb5
:10270c004ff4fa702df000f88df888818df88971ee
:10271c00c8238df88a318df88b718df88c818df8ea
:10272c008d714ff064088df88e818df88f71634b2d
:10273c0061933b46424661a95f48006828f0b4fdae
:10274c004ff4fa702cf0e0ff02238df861318df814
:10275c009a3103f1af5303f54c2364933b46424645
:10276c0064a95348006828f09ffd4ff4fa702cf0d0
:10277c00cbff07202af0fcfe3a466da9504b186897
:10278c0028f0b2fe9df8b4315b3bdbb2092b2ed99d
:10279c009df8b431fa2b02d0fc2b00d07bb9494bfd
:1027ac0000221a70484b40f235121a80474b012216
:1027bc001a7008202df01efb08202af0d9fe0027e5
:1027cc000697adf81c708df8207002233a4608a9c4
:1027dc003f48006828f068fd02233a4606a93d48a8
:1027ec00006828f061fd3c4b1f809f70e9e4354b7d
:1027fc0013221a704ff47a702cf086ff224b4ff490
:10280c000022c3f81421c3e700226ea9334b1868c9
:10281c0028f06afe9df8b931312b1ed91a4bd3f82a
:10282c00a03013f4000f1dd101238df860318df809
:10283c0098310c238df861318df89a311b4b6493d0
:10284c000023642264a91a48006828f02dfd642036
:10285c002cf05aff1b4b14221a704ff47a702cf088
:10286c0053ffaee4174b00221a70174b40f235128f
:10287c001a80164b01221a7007202df0bbfa082083
:10288c002af076fee9e700bf0080004100004843d3
:10289c00f0980120f4980120249a012078990120c5
:1028ac0067666666c0d40100c898012002c0ec15aa
:1028bc005899012003c0ec153c99012004c0ec157b
:1028cc0088990120a19a012082970120d49a012095
:1028dc00589801205c980120b09a0120649901203d
:1028ec0000226aa98b4b186828f0fefd9df8a831d0
:1028fc009df8a92102eb0322874981fb0232921039
:10290c0007ee902af8eee77a844bc3ed007a9df837
:10291c00aa219df8ab3103eb022381fb03239b100f
:10292c0007ee103ab8eec77a7d4b83ed007a4ff084
:10293c0080434a93cded4b7a01238df830318df8dd
:10294c003131002364224aa97648006828f0acfc97
:10295c00754b186829f020fd9df8a9318df894313c
:10296c009df8a8318df895319df8ab318df89631e5
:10297c009df8aa318df897316c4b64930023642237
:10298c0064a96b48006828f08ffc0a202cf0bcfe70
:10299c0009202af0edfd00226da9664b186828f07d
:1029ac00a3fd00283ff40dac9df8b431782b1ad060
:1029bc009df8b431fa2b04d0fc2b02d0002b7ff401
:1029cc0000ac5d4b1e221a705c4b4ff49b721a804c
:1029dc005b4b01221a7008202df00cfa08202af00b
:1029ec00c7fdfff7eebb574bd3f800802ef00efb64
:1029fc004ef66027009700230246012140462bf03b
:102a0c00e9fb514bd3f800802ef000fb009700231c
:102a1c000246012140462bf0ddfb4c4bd3f80080e5
:102a2c002ef0f4fa009700230246012140462bf0c9
:102a3c00d1fb474bd3f800802ef0e8fa0097002327
:102a4c000246012140462bf0c5fb424bd3f80080d7
:102a5c002ef0dcfa009700230246012140462bf0b1
:102a6c00b9fb3d4bd3f800802ef0d0fa0097002331
:102a7c000246012140462bf0adfb2f4b16221a705b
:102a8c00364b18782cf0e6f964202cf03dfe344fd0
:102a9c0038782cf0fbf964202cf036fedff8dc8063
:102aac00b8f800002cf00efa64202cf02dfe2d4905
:102abc0008782cf03ffa64202cf026fe2a48007887
:102acc002cf01cfa64202cf01ffe284a10782cf0f5
:102adc004dfa64202cf018fe254b1a68254b1a6011
:102aec00254b186829f058fcb8f800103b781b4aa5
:102afc0012781b0243ea014313433b931a480178b3
:102b0c00184b1b78194a12781b0243ea01431343f2
:102b1c003c934de78099012067666666809a012098
:102b2c00e8990120f0980120f498012005c0ec15db
:102b3c005899012088990120a19a0120829701209f
:102b4c00d49a012090980120d0990120509a01200c
:102b5c00549a0120589a01205c9a0120e09a012095
:102b6c00f99a0120f89a0120e99a0120059b01208d
:102b7c00b098012014990120c09801205a8d012091
:102b8c00002205a9bf4b186828f0aefc28b1be4a3c
:102b9c009df8143011880b44138047f230502bf001
:102bac000fff01238df83c30022300220fa9b748f8
:102bbc00006828f079fb03202df0aef8b24b188892
:102bcc002cf0a0f8b24b1b78072b00f0aa81002246
:102bdc006aa9b04b186828f087fc002800f0d58053
:102bec009df8aa319df8ab2102eb0322aa4981fb87
:102bfc000232930807ee103ab8ee477aa74b83edf2
:102c0c00007a9df8a8219df8a93103eb022381fbe2
:102c1c0003239b0807ee903af8ee677aa04bc3edbe
:102c2c00007a67ee276a9f4bc3ed006a9e4b1b78b8
:102c3c00002b40f088809d4b1a689d4b1a6093edd9
:102c4c00006af4eec66af1ee10fa35d5994b1b7892
:102c5c0033bbdfed996a77eea67acded4b7a944bc8
:102c6c0093ed006a954bd3ed006ac6ee267ab4ee6e
:102c7c00e77af1ee10fac0f25981b5ee007a67ee00
:102c8c00877acded4a7a03238df8313101238df803
:102c9c003031022300224aa98948006828f004fb3d
:102cac00844b1b78dbb2012b00f04d81814b1b78e0
:102cbc00dbb2012b00f08e817d4bd3ed007a794b8a
:102ccc0093ed007ab4eee77af1ee10fa3bdd794b36
:102cdc001b7863bb724bd3ed007a9fed777a77ee5e
:102cec00877acded4b7a724bd3ed006a734b93ed33
:102cfc00007ac6ee877a694b93ed007af4eec77ac8
:102d0c00f1ee10fa00f2a581b5ee007a67ee877a43
:102d1c00cded4a7a03238df8313101238df8303112
:102d2c00022300224aa96648006828f0bdfa614bcc
:102d3c001b78dbb2012b00f099815e4b1b78dbb268
:102d4c00012b00f0da81584b1b78dbb2012b00f021
:102d5c002f825c48027891005b4b0b44574f3f68c5
:102d6c001f605a4b19449df8aa719df8ab3103ebc7
:102d7c000723494f87fb03739b0807ee903af8ee45
:102d8c00677ac1ed007a0132027064202cf0bcfc31
:102d9c009df8a9318df894319df8a8318df89531b5
:102dac009df8ab318df896319df8aa318df897319d
:102dbc00474b64930023642264a94648006828f0ba
:102dcc0073fa64202cf0a0fc002267a9424b18680f
:102ddc0028f08afb98b1414a13789df89e0140492e
:102dec00c8540621217001331370294b1b78042b16
:102dfc0040f2b182264b1b78052b00f0b782314b89
:102e0c001b78052b00f0ba82344b1b78052b00f095
:102e1c000b83344b1b78dbb2012b00f02483314b3a
:102e2c001b78dbb2012b00f02d839df8b431292bdc
:102e3c0003d0fa2b01d0fc2b14d12a4b00221a7090
:102e4c00294b1e221a7009232370284bca221a8080
:102e5c00274b01221a700a202cf0ccff254b1a6844
:102e6c00254b1a609df89c31012b00f04583234bb8
:102e7c001b78012b7ff4a5a9204b9b78012b7ff4a9
:102e8c00a0a93de080980120aa940120b8980120c7
:102e9c00ee9a01208099012067666666e899012008
:102eac00809a0120489a0120cb9a0120409b012056
:102ebc00e4980120c69a012000000000449b0120e8
:102ecc00f0980120f39a0120b49501208c950120f3
:102edc0005c0ec15589901207c990120eb9a012032
:102eec007c970120c19a0120a19a01208297012090
:102efc00d49a0120b09801201c990120b09a01208d
:102f0c0000239d4a13709d4a1e21117009222270c4
:102f1c009b4a138093709b4b1a689b4b1a60fff76c
:102f2c0050b99a4b18782cf0f5fd50e6b4eee77ad0
:102f3c00f1ee10fa7ff5a7aef5ee007a27ee277ac0
:102f4c008ded4a7a9fe6924b1b78dbb2112b7ff604
:102f5c00adae904b4ff40012c3f818218e4bd3ed4d
:102f6c00007a9fed8e7a77ee877acded4b7a8c4b8b
:102f7c00d3ed007ab6ee007a67ee877a894bd3ed03
:102f8c00006a87eea67a884bd3ed007ab4eee77a26
:102f9c00f1ee10fa12d8f6ee007a27ee277a8dedc4
:102fac004a7a01238df831318df830310223002219
:102fbc004aa97e48006828f077f97de6b4eee77af6
:102fcc00f1ee10faedddb6ee007a67ee877acded14
:102fdc004a7ae6e76e4b1b78dbb2112b3ff66caef0
:102fec006d4bd3ed007a9fed6d7a77ee877acded50
:102ffc004b7a6b4bd3ed006a6a4bd3ed007a86eebd
:10300c00a77a694bd3ed007ab4eee77af1ee10fab9
:10301c0013d8f5ee007a27ee277a8ded4a7a032342
:10302c008df8313101238df83031022300224aa969
:10303c005e48006828f038f93ee6b4eee77af1ee27
:10304c0010faecddb5ee007a67ee877acded4a7ab0
:10305c00e5e7f4eec77af1ee10fa7ff75baef5ee2a
:10306c00007a27ee277a8ded4a7a53e6484b1b7887
:10307c00dbb2112b7ff661ae464b4ff40012c3f856
:10308c001821454bd3ed007a9fed447a77ee877a81
:10309c00cded4b7a424bd3ed007ab6ee007a67ee6b
:1030ac00877a404bd3ed006a87eea67a3e4bd3ed80
:1030bc00007ab4eee77af1ee10fa12d8f6ee007a56
:1030cc0027ee277a8ded4a7a01238df831318df870
:1030dc003031022300224aa93448006828f0e4f871
:1030ec0031e6b4eee77af1ee10faedddb6ee007ae9
:1030fc0067ee877acded4a7ae6e7254b1b78dbb293
:10310c00112b3ff620ae244bd3ed007a9fed237aa2
:10311c0077ee877acded4b7a214bd3ed006a214bbc
:10312c00d3ed007a86eea77a1f4bd3ed007ab4ee7e
:10313c00e77af1ee10fa13d8f5ee007a27ee277a3b
:10314c008ded4a7a03238df8313101238df830311e
:10315c00022300224aa91548006828f0a5f8f2e5d8
:10316c00b4eee77af1ee10faecddb5ee007a67ee2c
:10317c00877acded4a7ae5e7c19a0120a19a012020
:10318c00b09a0120b09801201c990120b39a01201b
:10319c00a59a012000800041809a012000000000c7
:1031ac00e4980120449b0120e8990120f09801202b
:1031bc00bf4b1b785bbbbf4bd3ed007a9fedbe7a48
:1031cc0077ee877acded4b7abc4bd3ed006abc4bd6
:1031dc0093ed007ac6ee877aba4b93ed007af4ee53
:1031ec00c77af1ee10fa50d8b5ee007a67ee877a0e
:1031fc00cded4a7a03238df8313101238df830312e
:10320c00022300224aa9b048006828f04df8a84bc8
:10321c001b78dbb2012b44d0a54b1b78dbb2012b06
:10322c007ff497ada94b1b78dbb2112b3ff691ad18
:10323c00a04bd3ed007a9feda07a77ee877acded97
:10324c004b7a9e4bd3ed006a9d4bd3ed007a86ee04
:10325c00a77a9c4bd3ed007ab4eee77af1ee10fa34
:10326c006dd8f5ee007a27ee277a8ded4a7a032396
:10327c008df8313101238df83031022300224aa917
:10328c009148006828f010f863e5f4eec77af1ee87
:10329c0010faafddf5ee007a27ee277a8ded4a7a3b
:1032ac00a8e78a4b1b78dbb2112bb5d9884b4ff4ae
:1032bc000012c3f81821814b93ed007adfed857a6b
:1032cc00b4eee77af1ee10fac8bfc3ed007a794b91
:1032dc00d3ed007a9fed787a77ee877acded4b7a45
:1032ec00764bd3ed006a764bd3ed007a86eea77a57
:1032fc00744bd3ed007ab4eee77af1ee10fa12d8f3
:10330c00f6ee007a27ee277a8ded4a7a01238df8b6
:10331c0031318df83031022300224aa96a48006805
:10332c0027f0c2ff15e5b4eee77af1ee10faeddd09
:10333c00b6ee007a67ee877acded4a7ae6e7b4ee20
:10334c00e77af1ee10fa92ddb5ee007a67ee877a45
:10335c00cded4a7a8be72cf0ddfb5f4a1378013315
:10336c0013709df89e215d4b1a7043e59df89e31bc
:10337c008af80030584b07221a7040e54ff0000ec7
:10338c00574b83f800e03188bbf80000554b564a88
:10339c0003f11408cdf80ce09c461746029101e0ad
:1033ac00434525d0f3ec017a9ced007ab4eee77a34
:1033bc00f1ee10fa09d8cced007afceee77a17eeb4
:1033cc00901a89b202914ff0010ef2ec017a97ed4e
:1033dc00007ab4eee77af1ee10fae1d8c7ed007a94
:1033ec00fceee77a17ee901a88b201210391d7e729
:1033fc000299bef1000f00d03180039b0bb1abf8ea
:10340c000000384bd3ed007afceee77a17ee900a09
:10341c002bf0b0fc344bd3ed007afceee77a17eed0
:10342c00900a2bf08bfcefe40027304b1f7099f8bf
:10343c0000e02f4b03f1050c18464ff0010801e09a
:10344c009c4508d013f8012b01789142f8d80270f2
:10345c0096464746f4e70fb189f800e0244b1878fc
:10346c002cf040fbd5e4124b1b78002b7ff4d7ac2f
:10347c0000228df82420022309a91e48006827f099
:10348c0013ffcce40a4b1b78dbb2012b7ff4cdace1
:10349c000e4b1b78dbb2132b7ff6c7ac00228df8da
:1034ac002420022309a91348006827f0fdfebce480
:1034bc00c69a0120809a012000000000e8980120a3
:1034cc00449b0120e8990120f0980120a59a012045
:1034dc000080004100606a47ee9a0120b39a0120f7
:1034ec00f39a01208c950120b4950120eb9a0120d0
:1034fc007c97012064980120884b00221a70884b1d
:10350c001e221a7009202070864bc9221a80864b05
:10351c0001221a702cf06efc844b1a68844b1a60d2
:10352c00a5e400278df8307101238df83131022389
:10353c003a464aa97f48006827f0b6fe40f6b830f4
:10354c002cf0e2f803238df85f318df895317a4b2e
:10355c006493dff850823b46642264a9d8f80000db
:10356c0027f0a2fe32202cf0cff88df894718df854
:10357c009571724b64933b46642264a9d8f80000a1
:10358c0027f092fe32202cf0bff86d4b4ff4002246
:10359c00c3f81821654b1a68654b1a608df83c709e
:1035ac0002233a460fa96748006827f07dfe664b58
:1035bc001b7823b9594b1b78002b00f095800a23fc
:1035cc00009300231a460321604800682af002fe8b
:1035dc005f4b18782bf0e6fc5e4b18782bf0fefc5a
:1035ec005d4b18882bf016fd5c4b18782bf04afdc0
:1035fc005b4b18782bf02afd5a4b18782bf05efd9c
:10360c00594b18682bf092fd494bd3ed007afcee28
:10361c00e77a564b93ed007abceec77a17ee100a98
:10362c0017ee903a181a524b18602bf063fd514b61
:10363c001b78dbb2012b5cd04e4b1b78dbb2022b20
:10364c005bd04c4b1b78dbb2032b5ad04a4b0c2271
:10365c001a7005202cf060fb434b1b683a933e4bd1
:10366c0019883c4b1b783a4a12781b0243ea0143f7
:10367c0013433d933a4b1978384b1b78394a1278df
:10368c001b0243ea014313433e933c4b1a7899f8cf
:10369c00003043ea02433f93354b1b6843f48033bd
:1036ac004093344b1a78364f3b8843ea024341939c
:1036bc0002238df8e0300023642238a931480068d9
:1036cc0027f0f2fd304b186828f066fe01232b60c2
:1036dc0000223a802d4a13702d4a13702d4a137014
:1036ec002d4a1370fef76dbd2c4b186828f09ef90f
:1036fc0065e701202cf07efb9ee702202cf07afb84
:10370c009fe703202cf076fba0e79df8b431fa2b51
:10371c007ef42cae224a1268fef72fbec19a01200d
:10372c00a19a012082970120d49a0120b0980120ff
:10373c001c990120f098012002c0ec1505c0ec1575
:10374c0000800041b8980120c69a01209098012071
:10375c00e09a0120f99a01205a8d0120f89a012053
:10376c00e99a0120059b0120fc9701201499012066
:10377c0024980120d39a0120569b0120b39a012052
:10378c00aa940120789801207c980120b59a0120f8
:10379c00c09a0120bf9a0120be9a0120c098012036
:0837ac001c9a0120589901202c
:020000040000fa
:1037b400ac9401201c00000000000000449601208d
:1037c4000800000000000000c89401201c00000054
:1037d40000000000dc950120100000000000000043
:1037e4004c9601201800000000000000e494012021
:1037f4001c00000000000000ec95012010000000f7
:103804000000000064960120100000000000000089
:10381400f08b0120c000000000000000aa9a0120e3
:103824000200000000000000e89301202c000000ca
:1038340000000000f8920120f000000000000000e9
:10384400289b01200400000001000000aaaaaaaae3
:103854008c9701200400000000000000900100206b
:10386400608a010000000000909701201000000011
:103874000000000074960120080000000000000011
:10388400a09701200800000000000000009501201e
:103894002800000000000000a89701201800000084
:1038a40000000000ec8f0120640000000000000014
:1038b400c09701201400000000000000289501209a
:1038c4002800000000000000d49701201000000030
:1038d40000000000509501201400000000000000ca
:1038e400e49701200400000000000000649501201a
:1038f4002800000000000000e897012008000000f4
:10390400000000002c9b01200400000001000000c6
:1039140004000000000000209001000000000000ee
:10392400f0970120040000000000000050900120e6
:10393400a800000000000000f4970120100000001f
:1039440000000000f39101200100000000000000cd
:103954009f9a01200100000000000000049801204b
:103964000400000000000000af9a012001000000e4
:10397400000000000898012004000000000000007e
:103984008197012001000000000000000c98012034
:103994000c000000000000008997012001000000d5
:1039a40000000000999a01200100000000000000be
:1039b400a19a01200100000000000000a59a012046
:1039c4000100000000000000189801200c00000015
:1039d40000000000f8900120a80000000000000092
:1039e400249801200800000000000000b69a01207d
:1039f40002000000000000008c950120140000006b
:103a040000000000b89a012002000000000000003d
:103a1400a09501201400000000000000ba9a0120c3
:103a24000200000000000000b49501201400000012
:103a340000000000bc9a0120020000000000000009
:103a4400c895012014000000000000002c980120fb
:103a54000400000000000000449201204000000027
:103a64000000000014940120500000000000000039
:103a7400088e0120a40000000000000030980120fe
:103a84000800000000000000b49a012001000000ba
:103a940000000000389801203800000000000000f9
:103aa400068e01200200000000000000c2920120e6
:103ab4000200000000000000f69201200200000055
:103ac40000000000b39a0120010000000000000083
:103ad400a99a012001000000000000007098012054
:103ae4001000000000000000b59a01200100000051
:103af40000000000be9a0120030000000000000046
:103b0400aa94012002000000000000008098012017
:103b14000400000000000000c19a01200100000020
:103b24000000000084980120040000000000000050
:103b3400c29a012004000000000000004296012007
:103b4400020000000000000088980120040000002a
:103b540000000000c69a01200100000000000000df
:103b64008c9801200400000000000000c79a012086
:103b740001000000000000009098012034000000c3
:103b840000000000c89a01200300000000000000ab
:103b9400c49801200c00000000000000a091012046
:103ba4005300000000000000d09801202c00000009
:103bb40000000000c4920120320000000000000058
:103bc400fc9801201400000000000000cb9a0120a2
:103bd4000200000000000000109901200400000011
:103be40000000000cd9a0120030000000000000046
:103bf4007c9701200500000000000000d09a0120fd
:103c0400010000000000000084970120050000006e
:103c140000000000149901200800000000000000ca
:103c2400d19a01200200000000000000b09a012097
:103c34000300000000000000ac9a01200300000013
:103c4400000000001c990120080000000000000092
:103c5400d39a0120010000000000000038960120e2
:103c64000a0000000000000082970120020000000a
:103c740000000000d49a01200100000000000000b0
:103c8400249901200400000000000000d59a0120be
:103c940001000000000000008a97012002000000db
:103ca400000000009a9a01200200000000000000b9
:103cb400a29a012002000000000000007c9601206e
:103cc4006800000000000000289901202000000086
:103cd40000000000e49601206800000000000000dd
:103ce4004899012080000000000000004c9701204a
:103cf4003000000000000000d69a012001000000fe
:103d040000000000c8990120040000000000000029
:103d1400d79a01200200000000000000cc99012085
:103d24000400000000000000d99a012001000000f6
:103d340000000000d09901200400000000000000f1
:103d4400849201203e00000000000000a69a012099
:103d54000200000000000000da9a012001000000c7
:103d640000000000d49901200400000000000000bd
:103d7400db9a01200300000000000000d899012014
:103d84000800000000000000de9a0120020000008c
:103d940000000000e0990120100000000000000075
:103da400e09a01200200000000000000f0990120c8
:103db4000400000000000000e29a0120010000005d
:103dc40000000000f4990120080000000000000039
:103dd400b08c0120aa00000000000000fc99012022
:103de4000400000000000000e39a0120030000002a
:103df40000000000a89a012001000000000000005b
:103e0400e69a01200100000000000000009a012051
:103e14001000000000000000e79a012002000000ea
:103e240000000000a49a012001000000000000002e
:103e3400a09a01200100000000000000109a012057
:103e44000800000000000000e99a012005000000bd
:103e540000000000189a0120040000000000000087
:103e6400ee9a012005000000000000001c9a0120c9
:103e74001000000000000000f39a0120020000007e
:103e8400000000002c9a0120040000000000000043
:103e9400f59a01200300000000000000309a012080
:103ea40008000000000000005c8d0120aa00000052
:103eb40000000000389a0120040000000000000007
:103ec400f89a012001000000000000003c9a012043
:103ed4000400000000000000f99a01200100000025
:103ee400000000009c9a0120030000000000000074
:103ef400fa9a01200400000000000000409a01200a
:103f04000400000000000000fe9a012002000000ee
:103f140000000000449a01200c0000000000000092
:103f2400009b01200200000000000000509a0120c4
:103f34000400000000000000029b012001000000ba
:103f440000000000549a012004000000000000005a
:103f5400039b01200100000000000000589a01208a
:103f64000400000000000000049b01200100000088
:103f7400000000005c9a0120040000000000000022
:103f8400989a01200100000000000000609a0120be
:103f94000c000000000000006c9a012008000000e2
:103fa40000000000ac8e0120a00000000000000012
:103fb400fc9501201000000000000000059b01207a
:103fc40001000000000000002c9601200c000000fd
:103fd40000000000749a01200400000000000000aa
:103fe400069b01200200000000000000789a0120d6
:103ff40004000000000000000c96012010000000e6
:10400400000000004c8f0120a00000000000000010
:104014007c9a01200c000000000000005a8d012051
:104024000200000000000000269b012002000000a6
:104034000100000004010000509b01200200000068
:1040440001000000b4000000089b01201e000000d5
:10405400010000005aa51b82524068747470733ac0
:104064002f2f7777772e7374617469712e696e2f91
:10407400ffff0000549b0120060000000100000027
:104084000c0c030f50140000309b012004000000ae
:10409400010000000000803f5a9b01200200000044
:1040a4000100000001010000349b01200400000015
:1040b40001000000cdcccc3f389b01200c00000057
:1040c4000100000000000040000000400060ea47da
:1040d400529b01200200000001000000af4a0000d2
:1040e400449b012008000000010000000000484338
:1040f400000048434c9b0120040000000100000024
:1041040000004843889a01200400000000000000d9
:104114001c9601201000000000000000649401209f
:1041240046000000000000008c9a012004000000fa
:1041340000000000f4910120500000000000000085
:10414400909a012008000000000000000000000018
:104154000000000066666666666666666666666693
:1041640066666666666666666666666666666666eb
:020000040000fa
:104e94002de9f04f87b09a4c00230193994f9a4b18
:104ea40003f13c050123009300f0fabf974b1a6805
:104eb40095490a601b68cbb1954b1b785bb122689e
:104ec400924b53f82230002b40f0a380904b4ff0cc
:104ed40000021a709de08e4b4ff001021a708b4b4a
:104ee4001b6833804ff47a602af012fc2268874be7
:104ef40053f82230002b40f08c80854b1b78002b1c
:104f040000f08780e2e7814b5a687f494a605b681a
:104f1400c3b17f4b5b7853b122687c4b53f822308a
:104f2400002b76d17a4b4ff000025a7071e0784b27
:104f34004ff001025a70754b5b6833804ff47a600e
:104f44002af0e6fb2268714b53f82230002b60d123
:104f54006f4b5b78002b5cd0e4e76c4b9a686a4932
:104f64008a609b68c3b16a4b9b7853b12268674bd4
:104f740053f82230002b4cd1654b4ff000029a704d
:104f840047e0634b4ff001029a70604b9b6833809b
:104f94004ff47a602af0bcfb22685c4b53f8223051
:104fa400002b36d15a4b9b78002b32d0e4e7574b79
:104fb400da685549ca60db68bbb1554bdb784bb145
:104fc4002268524b53f822301bbb514b4ff0000266
:104fd400da701ee04e4b4ff00102da704b4bdb6887
:104fe40033804ff47a602af093fb2268474b53f8de
:104ff400223073b9464bdb785bb1e6e7434bd3f819
:105004008430012b66d0414bd3f88430022b00f05e
:10501400a0803388adf80c30b8f80030adf80e300d
:10502400b9f80030adf81030baf80030adf81230ed
:105034003b88adf81430bbf80030adf816300223cd
:10504400002203a93348006826f032f923680133ab
:1050540023601f2b00f355861b2bdad801a252f8cc
:1050640023f000bfb14e00000b4f00005f4f000063
:10507400b34f00000150000017500000c151000060
:105084001b52000075520000cf520000295300004b
:1050940095530000ef5300004b54000017500000dc
:1050a400a5540000875500007d5600005f5700009e
:1050b4002d5800000f590000df590000af5a0000be
:1050c400175000000d5b0000f35b00004f5c000014
:1050d400ab5c00000d4b19690f4a11601b6953b397
:1050e4000b4b93f82c30cbb12268084b53f8223089
:1050f400002b88d1064b4ff0000283f82c2082e766
:10510400189a01209a9a012044920120088e0120c5
:10511400849201204898012014940120984b4ff068
:10512400010283f82c20974b1b69a8f800304ff438
:105134007a602af0edfa2268924b53f82230002b61
:105144007ff461af8e4b93f82c30002b3ff45bafb0
:10515400d0e723688b4a52f823008b49086052f841
:105164002320eab1864a92f82d205ab1854a52f892
:105174002330002b7ff44daf814b4ff0000283f8b6
:105184002d2046e77e4a4ff0010182f82d107d4a1a
:1051940052f82330a9f800304ff47a602af0b8fab4
:1051a4002268784b53f82230002b7ff432af744bd3
:1051b40093f82d30002b3ff42cafdde7714b9a6947
:1051c40072490a619b69cbb16d4b9b795bb12268d3
:1051d4006c4b53f82230002b7ff41baf684b4ff01d
:1051e40000029a7115e7664b4ff001029a71654b04
:1051f4009b6933804ff47a602af08afa2268614b03
:1052040053f82230002b7ff404af5d4b9b79002bc5
:105214003ff4ffaee2e75b4bda695c494a61db6964
:10522400cbb1574bdb795bb12268564b53f8223034
:10523400002b7ff4eeae524b4ff00002da71e8e639
:105244004f4b4ff00102da714e4bdb6933804ff460
:105254007a602af05dfa22684a4b53f82230002b18
:105264007ff4d7ae464bdb79002b3ff4d2aee2e7b6
:10527400444b1a6a45498a611b6acbb1404b1b7a7d
:105284005bb122683f4b53f82230002b7ff4c1ae50
:105294003b4b4ff000021a72bbe6394b4ff0010250
:1052a4001a72384b1b6a33804ff47a602af030fa52
:1052b4002268344b53f82230002b7ff4aaae304bd3
:1052c4001b7a002b3ff4a5aee2e72e4b5a6a2f4916
:1052d400ca615b6acbb12a4b5b7a5bb12268294b0a
:1052e40053f82230002b7ff494ae254b4ff000028c
:1052f4005a728ee6234b5b6a3380214b4ff00102d6
:105304005a724ff47a602af003fa22681d4b53f85c
:105314002230002b7ff47dae194b5b7a002b3ff4d7
:1053240078aee2e7174b9a6a18490a629b6acbb1d6
:10533400134b9b7a5bb12268124b53f82230002b3b
:105344007ff467ae0e4b4ff000029a7261e60c4b8d
:105354004ff001029a720b4b9b6a33804ff47a60d0
:105364002af0d6f92268074b53f82230002b7ff439
:1053740050ae034b9b7a002b3ff44baee2e700bfe9
:1053840084920120088e01203c9401204492012043
:105394009a4bda6a9a494a62db6acbb1994bdb7a57
:1053a4005bb12268954b53f82230002b7ff431ae69
:1053b400944b4ff00002da722be6924b4ff001024d
:1053c400da728e4bdb6a33804ff47a602af0a0f9ec
:1053d40022688a4b53f82230002b7ff41aae894b93
:1053e400db7a002b3ff415aee2e7844b1a6b844959
:1053f4008a621b6bd3b1834b1b7b5bb122687f4bef
:1054040053f82230002b7ff404ae7e4b4ff00002a1
:105414001a73fee57b4b4ff001021a73774b1b6b3b
:10542400aaf800304ff47a602af072f92268734bbc
:1054340053f82230002b7ff4ecad724b1b7b002b16
:105444003ff4e7ade1e76d4b5a6b6d49ca625b6ba4
:10545400cbb16c4b5b7b5bb12268684b53f8223059
:10546400002b7ff4d6ad674b4ff000025a73d0e5a2
:10547400644b4ff001025a73604b5b6b33804ff403
:105484007a602af045f922685c4b53f82230002bed
:105494007ff4bfad5b4b5b7b002b3ff4baade2e71f
:1054a400564bd3f88830012b20d0544bd3f8883096
:1054b400022b7ff4aead2368504a52f823005249c0
:1054c400886052f82320002a4dd04e4a92f82f20ab
:1054d400002a3ad0494a52f82330002b7ff499ad80
:1054e400484b4ff0000283f82f2092e5434bd96bd1
:1054f400464a9160db6be3b1424b93f82e305bb1cb
:1055040022683e4b53f82230002bced13d4b4ff056
:10551400000283f82e20c8e73a4b4ff0010283f8cb
:105524002e20364bdb6ba8f800304ff47a602af05b
:10553400eff82268314b53f82230002bb5d1314bb0
:1055440093f82e30002bb0d0e0e72e4a4ff0010143
:1055540082f82f10294a52f82330a9f800304ff46a
:105564007a602af0d5f82268244b53f82230002bb5
:105574007ff44fad234b93f82f30002b3ff449ad0c
:10558400aee71e4bd3f8a430012b20d01b4bd3f82d
:10559400a430022b7ff43dad2368184a52f823004f
:1055a4001949c86052f82320002a57d0154a92f8a6
:1055b4003120002a44d0114a52f82330002b7ff4c2
:1055c40028ad104b4ff0000283f8312021e50b4b3e
:1055d400196c0e4ad1601b6c33b30a4b93f830300c
:1055e400b3b12268054b53f82230002bced1054bc2
:1055f4004ff0000283f83020c8e700bf088e012076
:1056040044920120849201203c94012014940120ae
:10561400a44b4ff0010283f83020a34b1b6c3b805a
:105624004ff47a602af074f822689f4b53f82230c2
:10563400002babd19b4b93f83030002ba6d0d6e790
:10564400984a4ff0010182f83110974a52f82330fa
:10565400abf800304ff47a602af05af82268924b83
:1056640053f82230002b7ff4d4ac8e4b93f83130b6
:10567400002b3ff4ceaca4e78b4bd3f89c30012b2a
:1056840020d0894bd3f89c30022b7ff4c2ac236822
:10569400854a52f823008549086152f82320002adc
:1056a4004dd0804a92f83320002a3ad07e4a52f8ec
:1056b4002330002b7ff4adac7a4b4ff0000283f81b
:1056c4003320a6e4784b596c794a11615b6ce3b1e1
:1056d400744b93f832305bb12268734b53f8223029
:1056e400002bced16f4b4ff0000283f83220c8e775
:1056f4006c4b4ff0010283f832206b4b5b6ca8f8c3
:1057040000304ff47a602af003f82268664b53f8ad
:105714002230002bb5d1634b93f83230002bb0d03c
:10572400e0e7604a4ff0010182f833105e4a52f814
:105734002330a9f800304ff47a6029f0e9ff226899
:10574400594b53f82230002b7ff463ac554b93f83c
:105754003330002b3ff45dacaee7534bd3f89c30b1
:10576400012b20d0504bd3f89c30022b7ff451ac4a
:1057740023684d4a52f823004c49486152f82320cb
:10578400002a43d0474a92f83520002a35d0464aa9
:1057940052f82330002b7ff43cac424b4ff0000214
:1057a40083f8352035e4404b996c414a51619b6c38
:1057b400bbb13c4b93f834305bb122683a4b53f89d
:1057c4002230002bced1374b4ff0000283f8342027
:1057d400c8e7354b9b6ca8f800304ff47a6029f089
:1057e40097ff2268304b53f82230002bbad12d4b4f
:1057f40093f83430002bb5d0e5e72b4a52f8233028
:10580400a9f800304ff47a6029f082ff2268264b11
:1058140053f82230002b7ff4fcab224b93f8353045
:10582400002b3ff4f6abb8e71f4bd3f89030012bb5
:1058340021d01d4bd3f89030022b7ff4eaab2368c0
:10584400194a52f823001949886152f82320002a82
:105854004dd0144a92f83720002a3fd0124a52f809
:105864002330002b7ff4d5ab0e4b4ff0000283f8ae
:105874003720fff7cebb0c4bd96c0d4a9161db6c22
:1058840003b3084b93f83630a3b12268064b53f8a0
:105894002230002bcdd1034b4ff0000283f8362089
:1058a400c7e700bf84920120088e01203c940120a8
:1058b40014940120a84bdb6ca8f800304ff47a60f4
:1058c40029f026ff2268a44b53f82230002bb0d1d4
:1058d400a24b93f83630002babd0dce79e4a52f84b
:1058e4002330a9f800304ff47a6029f011ff2268c0
:1058f400994b53f82230002b7ff48bab974b93f8e2
:105904003730002b3ff485abaee7934bd3f894309c
:10591400012b21d0904bd3f89430022b7ff479ab38
:1059240023688d4a52f823008d49c86152f8232018
:10593400002a44d0894a92f83920002a36d0864a6f
:1059440052f82330002b7ff464ab844b4ff00002f9
:1059540083f83920fff75dbb7f4b196d814ad16114
:105964001b6dbbb17d4b93f838305bb122687a4b29
:1059740053f82230002bcdd1784b4ff0000283f83e
:105984003820c7e7744b1b6da8f800304ff47a60d9
:1059940029f0befe2268704b53f82230002bb9d197
:1059a4006e4b93f83830002bb4d0e5e76a4a52f8ce
:1059b4002330a9f800304ff47a6029f0a9fe226858
:1059c400654b53f82230002b7ff423ab634b93f8e1
:1059d4003930002b3ff41dabb7e75f4bd3f8983059
:1059e400012b21d05c4bd3f89830022b7ff411ab00
:1059f4002368594a52f823005949086252f823206f
:105a0400002a44d0554a92f83b20002a36d0524a04
:105a140052f82330002b7ff4fcaa504b4ff00002c5
:105a240083f83b20fff7f5ba4b4b596d4d4a116291
:105a34005b6dbbb1494b93f83a305bb12268464b7e
:105a440053f82230002bcdd1444b4ff0000283f8a1
:105a54003a20c7e7404b5b6da8f800304ff47a60fa
:105a640029f056fe22683c4b53f82230002bb9d162
:105a74003a4b93f83a30002bb4d0e5e7364a52f863
:105a84002330a9f800304ff47a6029f041fe2268ef
:105a9400314b53f82230002b7ff4bbaa2f4b93f8e1
:105aa4003b30002b3ff4b5aab7e72b4b9a6d2e4938
:105ab4000a639b6ddbb1294b9b7d63b12268264b46
:105ac40053f82230002b7ff4a4aa244b4ff0000299
:105ad4009a75fff79eba214b4ff001029a751e4b3f
:105ae4009b6daaf800304ff47a6029f011fe226809
:105af400194b53f82230002b7ff48baa174b9b7d54
:105b0400002b3ff486aae0e7134bd3f88c30012b2b
:105b14002cd0114bd3f88c30022b7ff47aaa236853
:105b24000d4a52f823000e49486252f82320002af5
:105b34004fd00a4a92f83d20002a41d0064a52f832
:105b44002330002b7ff465aa044b4ff0000283f846
:105b54003d20fff75eba00bf088e01208492012029
:105b64003c9401201494012044920120934b196e1b
:105b7400934a51621b6ebbb1924b93f83c305bb1bc
:105b840022688e4b53f82230002bc2d18d4b4ff03c
:105b9400000283f83c20bce7884b1b6ea8f8003059
:105ba4004ff47a6029f0b4fd2268844b53f8223014
:105bb400002baed1834b93f83c30002ba9d0e5e702
:105bc4007e4a52f82330a9f800304ff47a6029f065
:105bd4009ffd2268794b53f82230002b7ff419aad9
:105be400784b93f83d30002b3ff413aaace7734b8a
:105bf4005a6e75494a635b6ed3b1724b5b7e63b177
:105c040022686e4b53f82230002b7ff402aa6d4bae
:105c14004ff000025a76fff7fcb96a4b4ff00102cd
:105c24005a76664b5b6e33804ff47a6029f070fdd0
:105c34002268624b53f82230002b7ff4eaa9614baf
:105c44005b7e002b3ff4e5a9e1e75c4b9a6e5e496d
:105c54008a639b6ed3b15b4b9b7e63b12268574bc7
:105c640053f82230002b7ff4d4a9564b4ff0000296
:105c74009a76fff7ceb9534b4ff001029a764f4b09
:105c84009b6e33804ff47a6029f042fd22684b4bbf
:105c940053f82230002b7ff4bca94a4b9b7e002b87
:105ca4003ff4b7a9e1e7454bda6e47498a63db6ef7
:105cb400d3b1444bdb7e63b12268404b53f82230ae
:105cc400002b7ff4a6a93f4b4ff00002da76fff7d2
:105cd400a0b93c4b4ff00102da76384bdb6e3380cf
:105ce4004ff47a6029f014fd2268344b53f82230c3
:105cf400002b7ff48ea9334bdb7e002b3ff489a964
:105d0400e1e7324b1a78304b043b002001e0ab4210
:105d140007d053f8041f0029f9d00132d2b20098f9
:105d2400f5e708b1294b1a70284b1b7853b1274b60
:105d34004ff000021a70264b1a78214b03f1280009
:105d4400002622e0234b4ff000021a80224b1a80d7
:105d5400adf80c20214b1b88adf80e30204b1b886e
:105d6400adf81030adf812203b88adf814301d4b5f
:105d74001b88adf816300223019a03a91a4800685b
:105d840025f096fad7e7984207d053f8041b002968
:105d9400f9d00132d2b2009ef5e70eb10c4b1a7065
:105da4000b4b1b7833b30a4b4ff000021a700f4ba6
:105db4001a780f4b03f1280000263ee0088e0120dc
:105dc400149401208492012044920120e39a01203a
:105dd400e49a0120068e01208a970120c2920120b4
:105de400f6920120a29a012048980120e59a012008
:105df4003c940120334b4ff000021a803a80324b1e
:105e04001b88adf80c30adf80e20304b1b88adf874
:105e140010302f4b1b88adf81230adf814202d4be9
:105e24001b88adf816300223019a03a92a4800689a
:105e340025f03efabbe7834207d053f8041b002940
:105e4400f9d00132d2b2009ef5e70eb1234b1a709d
:105e5400224b1b78002b30d11c4b4ff000021a80d0
:105e64001c4b1a80184b1b88adf80c30154b1b8843
:105e7400adf80e30adf81020154b1b88adf812307c
:105e84003b88adf81430adf816200223019a03a91b
:105e94001148006825f00cfa4ff47a7029f038fca8
:105ea400019b2360084edff82490dff81880dff8a8
:105eb40020a0dff820b0fff7cfb8084b4ff0000266
:105ec4001a70e9e7c2920120068e0120f6920120a1
:105ed4008a970120a29a012048980120e59a01207e
:020000040000fa
:105ee40038b50446d4485a230370a52343700723c6
:105ef40083708223c3701423037102234371d4f883
:105f040000311a0e82711a0cc2711a0a027243729b
:105f1400ca4b4ff400229a610a2127f067f82af04d
:105f2400e5ff0028fbd0c54b4ff400225a61c2485c
:105f34005a210170a5214170052181708221c1700f
:105f4400142101710621417100218171b4f81e11df
:105f5400c1719a61082127f049f82af0c7ff002887
:105f6400fbd0b64b4ff400225a61b3485a2101705a
:105f7400a5214170052181708221c1701421017114
:105f84000821417100258571d4f80451c5719a61c5
:105f940027f02cf82af0aaff0028fbd0a74a4ff4d8
:105fa40000215161a4485a230370a523437005239b
:105fb40083708223c370142303710a234371002363
:105fc4008371d4f804311b0ac3719161082127f04d
:105fd4000df82af08bff0028fbd0984b4ff40022d9
:105fe4005a6195485a210170a5214170052181709b
:105ff4008221c170142101710c2141710021817130
:10600400b4f80611c1719a61082126f0efff2af055
:106014006dff0028fbd0894b4ff400225a6186485b
:106024005a210170a5214170052181708221c1701e
:10603400142101710e21417100218171b4f80e11f6
:10604400c1719a61082126f0d1ff2af04fff002880
:10605400fbd07a4a4ff40021516177485a230370e8
:10606400a5234370052383708223c3701423037113
:106074001023437100238371d4f80c311b0ac371bc
:106084009161082126f0b2ff2af030ff0028fbd0ee
:106094006a4b4ff400225a6167485a210170a521c6
:1060a4004170052181708221c17014210171122176
:1060b400417100218171d4f80c11c1719a610821d8
:1060c40026f094ff2af012ff0028fbd05b4a4ff41d
:1060d4000021516158485a230370a52343700723b4
:1060e40083708223c3701423037116234371d4f87d
:1060f40020311d0e85711d0cc5711d0a0572437278
:1061040091610a2126f072ff2af0f0fe0028fbd0ec
:106114004a4b4ff400225a6147485a210170a52185
:106124004170052181708221c170142101711a21ed
:10613400417100218171b4f83e11c1719a61082145
:1061440026f054ff2af0d2fe0028fbd03b4b4ff43c
:1061540000225a6138485a210170a5214170052155
:1061640081708221c170142101711c2141710021af
:106174008171d4f82411c1719a61082126f036ff87
:106184002af0b4fe0028fbd02c4a4ff400215161c0
:1061940029485a230370a52343700523837082235f
:1061a400c370142303711e23437100238371d4f835
:1061b40024311b0ac3719161082126f017ff2af0cc
:1061c40095fe0028fbd01d4b4ff400225a611a485b
:1061d4005a210170a5214170052181708221c1706d
:1061e400142101712021417100218171b4f826111b
:1061f400c1719a61082126f0f9fe2af077fe002881
:10620400fbd00e4b4ff400225a610b485a21017007
:10621400a5214170052181708221c1701421017171
:106224002221417100218171b4f82e11c1719a614a
:10623400082126f0dbfe03e08c940120008000415d
:106244002af054fe0028fbd0d54a4ff400215161b6
:10625400d4485a230370a5234370052383708223f3
:10626400c370142303712423437100238371d4f86e
:106274002c311b0ac3719161082126f0b7fe2af064
:1062840035fe0028fbd0c64b4ff400225a61c548a6
:106294005a210170a5214170052181708221c170ac
:1062a400142101712621417100218171d4f82c112e
:1062b400c1719a61082126f099fe2af017fe002880
:1062c400fbd0b74a4ff400215161b6485a230370fa
:1062d400a5234370072383708223c370142303719f
:1062e4002a234371d4f840311d0e85711d0cc571ec
:1062f4001d0a0572437291610a2126f077fe2af085
:10630400f5fd0028fbd0a64b4ff400225a61a548a6
:106314005a210170a5214170052181708221c1702b
:10632400142101712e21417100218171b4f85e1193
:10633400c1719a61082126f059fe2af0d7fd002880
:10634400fbd0974b4ff400225a6196485a210170b2
:10635400a5214170052181708221c1701421017130
:106364003021417100218171d4f84411c1719a61c5
:10637400082126f03bfe2af0b9fd0028fbd0884a0c
:106384004ff40021516187485a230370a5234370b9
:10639400052383708223c370142303713223437152
:1063a40000238371d4f844311b0ac371916108211d
:1063b40026f01cfe2af09afd0028fbd0784b4ff4ff
:1063c40000225a6177485a210170a52141700521a4
:1063d40081708221c1701421017134214171002125
:1063e4008171b4f84611c1719a61082126f0fefd4d
:1063f4002af07cfd0028fbd0694b4ff400225a613f
:1064040068485a210170a5214170052181708221bb
:10641400c170142101713621417100218171b4f8d8
:106424004e11c1719a61082126f0e0fd2af05efd4b
:106434000028fbd05a4a4ff40021516159485a238d
:106444000370a5234370052383708223c370142330
:1064540003713823437100238371d4f84c311b0a30
:10646400c3719161082126f0c1fd2af03ffd002887
:10647400fbd04b4b4ff400225a614a485a21017019
:10648400a5214170052181708221c17014210171ff
:106494003a21417100218171d4f84c11c1719a6182
:1064a400082126f0a3fd2af021fd0028fbd03c4a58
:1064b4004ff4002151613b485a230370a5234370d4
:1064c400072383708223c370142303714023437111
:1064d400d4f860311d0e85711d0cc5711d0a05723d
:1064e400437291610a2126f081fd2af0fffc002805
:1064f400fbd02b4b4ff400225a612a485a210170d9
:10650400a5214170052181708221c170142101717e
:106514004421417100218171b4f87e11c1719a61e5
:10652400082126f063fd2af0e1fc0028fbd01c4b77
:106534004ff400225a611b485a210170a521417071
:10654400052181708221c17014210171462141719c
:1065540000218171d4f86411c1719a61082126f077
:1065640045fd2af0c3fc0028fbd00d4a4ff400215e
:1065740051610c485a230370a5234370052383708b
:106584008223c3701423037148234371002383714e
:10659400d4f864311b0ac3719161082104e000bf7f
:1065a400008000418c94012026f020fd2af09efcfe
:1065b4000028fbd0d54b4ff400225a61d4485a210d
:1065c4000170a5214170052181708221c1701421bf
:1065d40001714a21417100218171b4f86611c171c0
:1065e4009a61082126f002fd2af080fc0028fbd0e5
:1065f400c64b4ff400225a61c5485a210170a521a7
:106604004170052181708221c170142101714c21d6
:10661400417100218171b4f86e11c1719a61082130
:1066240026f0e4fc2af062fc0028fbd0b74a4ff4c1
:1066340000215161b6485a230370a52343700523f2
:1066440083708223c370142303714e234371002388
:106654008371d4f86c311b0ac3719161082126f04f
:10666400c5fc2af043fc0028fbd0a84b4ff40022c1
:106674005a61a7485a210170a521417005218170f2
:106684008221c17014210171502141710021817155
:10669400d4f86c11c1719a61082126f0a7fc2af084
:1066a40025fc0028fbd0994a4ff4002151619848f9
:1066b4005a230370a5234370072383708223c37076
:1066c4001423037156234371d4f880311d0e857150
:1066d4001d0cc5711d0a0572437291610a2126f0d1
:1066e40085fc2af003fc0028fbd0884b4ff40022e1
:1066f4005a6187485a210170a52545700525857082
:106704008225c57014250571417100218171b4f889
:106714009e11c1719a61082126f068fc2af0e6fbfb
:106724000028fbd0794b4ff400225a6178485a2153
:106734000170a5214170052181708221c17014214d
:1067440001715c21417100218171d4f88411c171fe
:106754009a61082126f04afc2af0c8fb0028fbd0e5
:106764006a4a4ff40021516169485a230370a523f2
:106774004370052383708223c370142303715e2343
:10678400437100238371d4f884311b0ac37191616e
:10679400082126f02bfc2af0a9fb0028fbd05b4b38
:1067a4004ff400225a615a485a210170a5214170c0
:1067b400052181708221c170142101716021417110
