:10200000F8FF0320250A03002715030043280300D7
:102010008B300300775D0300376A03000000000087
:10202000000000000000000000000000E15E03006E
:10203000B32C030000000000211A0300DD4C030054
:102040008F7203008F7203008F7203008F72030080
:102050008F7203008F7203008F7203008F72030070
:102060008F7203008F7203008F7203008F72030060
:102070008F720300AD600300CD6003008F72030018
:102080008F720300ED6003000D6103002D610300FA
:10209000515E0300755E0300995E0300CD58030096
:1020A000F55803008F7203008F7203008F720300D4
:1020B0008F7203008F7203008F7203008F72030010
:1020C0008F7203008F7203008F7203008F72030000
:1020D0008F7203008F7203008F7203008F720300F0
:1020E0008F7203008F7203000000000000000000E8
:1020F000000000008F7203008F7203008F720300D4
:102100008F7203008F7203008F7203008F720300BF
:102110008F7203008F72030081210300812103006D
:10212000812103008121030081CB020081CB0200C9
:1021300081CB020081CB0200611F0300611F0300FD
:10214000611F0300611F0300D1200300D1200300A1
:10215000D1200300D12003002921030029210300FD
:102160002921030029210300D9210300D9210300DB
:10217000D9210300D9210300D5F40200F1F70200B0
:102180008F7203008F7203008F7203008F7203003F
:10219000000000008F7203008F7203008F72030033
:1021A0008F7203008F7203008F7203008F7203001F
:1021B0008F7203008F7203008F7203008F7203000F
:1021C0008F7203008F7203008F7203008F720300FF
:1021D0008F7203008F7203008F7203008F720300EF
:1021E0008F7203008F7203008F7203008F720300DF
:1021F0008F7203008F7203008F7203008F720300CF
:102200008F7203008F7203008F7203008F720300BE
:102210008F7203008F7203008F7203008F720300AE
:102220008F7203008F7203008F7203008F7203009E
:102230008F7203008F7203008F7203008F7203008E
:102240008F7203008F7203008F7203008F7203007E
:102250008F7203008F7203008F7203008F7203006E
:10226000F8B500BFF8BC08BC9E467047B13003000B
:10227000F8B500BFF8BC08BC9E4670478D3003001F
:1022800098830200010000002DE9F04FF9B000240E
:102290007694779474948DF8D441ADF8CC417194D0
:1022A000729470946D946E948DF8BC416B94CDF8DB
:1022B000AF41689469946A94659466946794629453
:1022C000639464945B945C945D945E945F94609476
:1022D0006194579458945994ADF86841519452942C
:1022E000539454945594CDF857419222214617A8FF
:1022F00034F018FE159416941E22214605A834F0D9
:1023000011FEB24FB24CDFF82C83DFF82CA3DFF8BC
:102310002C93DFF82CB32FE2AE4B18682EF068FA3E
:102320000025AAF80050A9F80050AB4B1D70AB4B2C
:102330001D802A4676A9AA4B18682CF0A9F92A46CE
:1023400074A9A84B18682CF0A3F92A4673A9A64BC8
:1023500018682CF09DF99DF8DF31022B40F0D681F2
:102360009DF8D231002B40F0D1819DF8D1316D2BF9
:1023700026D89DF8D131632B00F2C8819B4E689618
:1023800040238DF8AA319A4D0023642268A9286859
:102390002CF060F84FF47A7032F038F86896002329
:1023A0008DF886318DF8AA31642268A928682CF04E
:1023B00051F8642032F02AF88E4B01221A70A5E100
:1023C0008D4B1D608D4B1D60884B689340238DF8AD
:1023D000AA31874E2B46642268A930682CF03AF85F
:1023E0004FF47A7032F012F8804B68938DF8865172
:1023F0008DF8AA512B46642268A930682CF02AF87F
:10240000642032F003F87B4B01221A700C2388F809
:102410000030AEE77A4B659300258DF898512B4636
:10242000642265A9774800682CF014F8642031F024
:10243000EDFF754B629301268DF862618DF88C611A
:102440008DF863518DF88D518DF864518DF88E5152
:102450002B46642262A96D4800682BF0FBFF6420C4
:1024600031F0D4FF614B68938DF884618DF8A561DC
:102470002B46642268A95E4800682BF0EBFF6420BD
:1024800031F0C4FF2A4673A9574B18682CF000F9A5
:102490009DF8CC31B34240F03981564B02221A707C
:1024A00034E1524D689540238DF8AA31504E0023F7
:1024B000642268A930682BF0CDFF4FF47A7031F0B8
:1024C000A5FF689500258DF886518DF8AA512B46F9
:1024D000642268A930682BF0BDFF642031F096FFBC
:1024E0002A4674A93F4B18682CF0D2F8002800F057
:1024F0000D819DF8D131503BDBB21D2B1DD8444BD3
:102500004FF48032C3F89420092388F80030414BFF
:1025100001221A70384B1B68934248D03E4B1B78FF
:10252000022B00F08F80344B1B6813B9314B032210
:102530001A703A4A1368013313609DF8D1316D2B3C
:1025400021D9374B1B78C3B9354B1B7823B9304B96
:102550004FF48032C3F89820324B18682CF088FE74
:102560004FF6FF7030F072FF0023234A1360234AB6
:1025700013602D4B1B78002B79D0264B00221A704C
:102580000C2388F80030254B1B681E2B40F3BE80BF
:10259000224B00221A60224B1B7823B91C4B4FF4AC
:1025A0008032C3F89820134B00221A70AEE02A46FE
:1025B0008DF84050022310A91C4800682BF04AFFF8
:1025C0001B4B18682EF014F9A8E700BFA39B01204D
:1025D0009C9A012074990120C29B01203293012012
:1025E000509A0120549A0120789A012002C4EC15D7
:1025F000189A0120719B0120E09A0120E89A01209D
:1026000001C4EC15FC99012002D4EC15EC990120D1
:1026100000800041989B0120889B0120CC9A0120DA
:10262000939B012018990120CE9B0120FC9801204A
:10263000E49801206D9B01207E9B0120869B012058
:10264000A19B0120B74B5B78012B7FF46CAFB64B9D
:1026500003221A7000228DF84420022311A9B348E6
:1026600000682BF0F7FEB24B01221A605BE7B14B1A
:1026700001221A70B04B18782FF064F97DE700251D
:10268000AE4B1D60AE4B659308238DF847318DF836
:102690009B312B46642265A9AA4800682BF0DAFE1C
:1026A0004FF47A7031F0B2FEA74E68968DF88551DE
:1026B0008DF8A8518DF886518DF8AA518DF8875163
:1026C0008DF8AB512B46642268A9A04800682BF016
:1026D000C1FE4FF47A7031F099FE2A4673A99C4BE3
:1026E00018682BF0D5FF689602238DF884318DF899
:1026F000A5312B46642268A9944800682BF0AAFEF5
:10270000642031F083FE884B04221A7098F8003060
:102710008DF85130BAF80020ADF84E20B9F80020FD
:10272000ADF84C209BF800208DF852203A788DF8B7
:1027300050208DF848300223002213A985480068F4
:102740002BF088FE0223002212A9834800682BF098
:1027500081FE2368012B0BD100232360724A137082
:102760007E4B18682EF044F87D4B18682CF080FDE5
:102770004FF4487031F04AFE00220DA9794B1868D9
:102780002BF086FF28B1784A9DF8343011880B442D
:102790001380654B1B78DBB21E2BB7D801A252F811
:1027A00023F000BF1923000015240000A32400001B
:1027B0007F260000212800000D270000952800003A
:1027C0000D2700000D2700000D2700000D27000039
:1027D0000D2700000D2700000D2700000D27000029
:1027E0000D270000192A00000D270000452B0000CE
:1027F000712D0000412E00000D270000B9300000AF
:102800000D2700000D2700000D2700000D270000F8
:102810000D2700000D2700000D270000253A0000BD
:10282000002274A9514B18682BF032FF002273A9C3
:10283000474B18682BF02CFF9DF8D231012B1FD08D
:102840009DF8CC31FA2B02D0FC2B00D013B9364BBB
:1028500000221A709DF8D1316D2B7FF657AF444B93
:102860001B7823B9434B4FF48032C3F898200023E0
:10287000414A13700C2288F800202B4A137045E758
:102880009DF8D131503BDBB21D2BD9D8264B062207
:102890001A70D5E70022274B1A7073A92C4B1868C1
:1028A0002BF0F6FE9DF8CC31312B0ED9334B1B6843
:1028B000012B28D0002B41F0FC8100226BA9304B6A
:1028C00018682BF0E5FE00285ED19DF8CC31FA2B7C
:1028D00002D0FC2B00D053B9284A1268012A19D023
:1028E0002AB9114A00211170244A012111600A2BD2
:1028F0007FF40CAF234B1B780133DBB2F02B7BD082
:10290000204A137002E7084B10221A709DF8CC3150
:10291000FA2BDED1044A00211170184A01211160FE
:10292000E5E700BF889B0120719B01200C990120E5
:10293000E89A0120CE9B0120B79C0120CC9A01206F
:1029400001C4EC15FC99012002C4EC15189A012071
:10295000789A0120F8980120B89801203C9901202C
:10296000049A01203899012032930120549A0120C1
:10297000939B012000800041989B0120E09A012058
:10298000609A0120DC9B01209DF8AC318DF8383035
:102990009DF8AD318DF839309DF8AE318DF83A3073
:1029A0009DF8AF318DF83B309DF8B0318DF83C305B
:1029B0009DF8B1318DF83D30022300220EA9534815
:1029C00000682BF047FD9DF83830002B3FF47DAFB9
:1029D0004F4B01221A604F4B10221A7002238DF8C0
:1029E0004030002210A94C4800682BF033FD4B4BBF
:1029F00018682DF0FDFE68E70023494A1370454A28
:102A00001370484B40F233121A80474B02221A705F
:102A100011202EF097FF79E6414B00221A70434BAC
:102A20001B686BBB424B1B78022B2DD1404B5B7854
:102A3000012B29D115468DF84420022311A93D48C8
:102A400000682BF007FD3C4B689301238DF886311D
:102A50008DF8AA312B46642268A9384800682BF00B
:102A6000F9FC642031F0D2FC2A4673A9344B186873
:102A70002BF00EFE274B12221A700E202EF062FF52
:102A80002A4B1B68012B22D0002273A92C4B1868FB
:102A90002BF0FEFD9DF8CC31FA2B04D0FC2B02D09C
:102AA000002B7FF433AE1B4B00221A70184B01220F
:102AB0001A601C4B4FF49A721A801B4B02221A7038
:102AC000062032F055FA11202EF03CFF1EE61A4B7C
:102AD000689301238DF886318DF8AA310023642292
:102AE00068A9164800682BF0B5FC642031F08EFC14
:102AF000002273A9124B18682BF0CAFD054B122255
:102B00001A700E202EF01EFFBEE700BF00990120B4
:102B1000E09A0120719B0120FC980120E49801209B
:102B2000DC9B012036950120A79B0120E89A01201B
:102B3000889B01200C99012002C4EC15189A0120F1
:102B4000789A01200123A84A1360A84A4FF4001183
:102B5000C2F8181100224E92A54A4F928DF84031CA
:102B600002238DF8413100224EA9A24800682BF0C3
:102B700071FCA14B18682DF03BFE002271A99F4B00
:102B800018682BF085FD002800F0D7809DF8C4312F
:102B90009DF8C52102EB0322994981FB0232931073
:102BA00007EE903AF8EEE77A9DF8C6219DF8C73116
:102BB00003EB022381FB03239B1007EE103AB8EED0
:102BC000C77ABDEEC77A17EE103A8E4A92FBF3F33E
:102BD00003EB83035B0007EE103AB8EEC77A8A4B2B
:102BE00083ED007AB2EE047A67EE877A93ED007A8D
:102BF000F4EEC77AF1EE10FA48BFC3ED007A834BCA
:102C0000689300258DF8AA512B46642268A9804854
:102C100000682BF01FFC642031F0F8FB7D4B6593BE
:102C2000794AD2ED007AFCEEE77A17EE903A8DF809
:102C30009831D2ED007AFCEEE77A17EE903AC3F3C2
:102C400007238DF8993158238DF89A311B238DF87D
:102C50009B314FF010028DF89C2127238DF89D3178
:102C600014268DF89E618DF89F512B46642265A92C
:102C7000694800682BF0EEFB4FF4967031F0C6FB0C
:102C80008DF898618DF89951C8238DF89A318DF897
:102C90009B518DF89C618DF89D5164268DF89E6145
:102CA0008DF89F515D4B65932B46324665A95A4876
:102CB00000682BF0CFFB4FF4967031F0A7FB022396
:102CC0008DF886318DF8AA31504B68932B463246E9
:102CD00068A94F4800682BF0BDFB304631F096FBE9
:102CE00010202EF02FFE2A4673A94D4B18682BF0AA
:102CF000CFFC9DF8CC21A2F15B03DBB2092B08D8F5
:102D0000484B13221A70394B4FF48012C3F8142128
:102D100013E0FA2A01D0FC2A27D1424B00221A7074
:102D2000414B40F235121A80404B02221A700820A3
:102D300032F01EF911202EF005FE00250E95ADF89B
:102D40003C5002232A460EA9394800682BF082FB2A
:102D50008DF8405002232A4610A9364800682BF00F
:102D600079FB354B1D809D70D0E4002AD5D0E4E777
:102D7000002274A9314B18682BF08AFC9DF8D131E0
:102D8000312B7FF6C3AC194BD3F8203113F0807F81
:102D900019D101238DF885318DF8A8310C238DF8D8
:102DA00086318DF8AA31194B68930023642268A9F3
:102DB000174800682BF04EFB642031F027FB194BBD
:102DC00014221A70A2E4174B00221A70164B40F21C
:102DD00035121A80154B02221A70072032F0C8F8FB
:102DE00011202EF0AFFD91E4E89A0120008000410F
:102DF00000004843AC990120B0990120689A012055
:102E000067666666701101008099012002C4EC15A6
:102E1000189A012003C4EC15FC99012004C0EC159C
:102E2000789A0120719B012036950120A79B0120F3
:102E300000990120FC980120889B0120549A0120D0
:102E4000002270A9824B18682BF022FC9DF8C0313B
:102E50009DF8C12102EB03227E4981FB02329210D0
:102E600007EE902AF8EEE77A7B4BC3ED007A9DF8E7
:102E7000C2219DF8C33103EB022381FB03239B1086
:102E800007EE103AB8EEC77A744B83ED007A4FF034
:102E900080434E93CDED4F7A01238DF840310223CC
:102EA0008DF8413100224EA96D4800682BF0D2FA0E
:102EB0006C4B18682DF09CFC9DF8C1318DF8A43145
:102EC0009DF8C0318DF8A531674B689300236422CB
:102ED00068A9664800682BF0BDFA642031F096FAC4
:102EE000002273A9624B18682BF0D2FB00283FF434
:102EF0000DAC9DF8CC31782B1AD09DF8CC31FA2B43
:102F000004D0FC2B02D0002B7FF400AC594B1E22C6
:102F10001A70594B4FF49B721A80584B02221A7048
:102F2000082032F025F811202EF00CFDFFF7EEBB43
:102F3000534B1E6834F054F94EF66025009500237B
:102F400002460121304630F0C1F94E4B1E6834F084
:102F500047F90095002302460121304630F0B6F9CA
:102F6000494B1E6834F03CF90095002302460121CC
:102F7000304630F0ABF9454B1E6834F031F900951E
:102F8000002302460121304630F0A0F9404B1E6874
:102F900034F026F90095002302460121304630F036
:102FA00095F93C4B1E6834F01BF90095002302464E
:102FB0000121304630F08AF912202EF0C3FC0320A4
:102FC0002FF088FA2B4B16221A70334B187830F0FA
:102FD000A5FF642031F01AFA304D287830F0BAFF9E
:102FE000642031F013FA2E4E308830F0CFFF642089
:102FF00031F00CFA2B49087831F000F8642031F0F8
:1030000005FA2948007830F0DDFF642031F0FEF940
:10301000264A107831F00EF8642031F0F7F9244B8D
:103020001A68244B1A6031882B781B4A12781B02CD
:1030300043EA014313433F931B480178194B1B7824
:103040001A4A12781B0243EA01431343409354E7A0
:10305000709A012067666666549B0120AC9A012035
:10306000AC990120B099012005C4EC15189A0120F3
:10307000789A0120719B012036950120A79B0120A1
:10308000909A0120149B0120189B01201C9B012079
:10309000209B01204C990120B39B0120CC9B012057
:1030A000FA8C0120CB9B0120BC9B0120DA9B0120E4
:1030B0006C990120D8990120444B18682DF098FB99
:1030C000434B188830F082FE424B1B78072B77D099
:1030D000002270A9404B18682BF0DAFA002840F063
:1030E000978000226DA93D4B18682BF0D1FAA0B152
:1030F0003B4A13789DF8B6013A49C854062188F82E
:10310000001001331370334B1B78042B40F2908373
:10311000304B1B78052B00F09683334B1B78052B27
:1031200000F099832E4B1B78052B00F00D842F4B5C
:103130001B782BB92E4B1B78DBB2012B00F02384BC
:103140002A4B1B78DBB2012B00F028849DF8CC3190
:10315000292B03D0FA2B01D0FC2B12D1254B1E2298
:103160001A70092388F80030234BCA221A80234B97
:1031700002221A700A2031F0FBFE214B1A68214B03
:103180001A609DF8B431012B00F01F841E4B1B7890
:10319000022B7FF4BBAA1C4B9B78012B7FF4B6AAB1
:1031A000144B1E221A70092388F80030164B002297
:1031B0001A809A70124B1A68124B1A60FFF7A6BA5F
:1031C000124B187831F012FC82E700BF18990120E9
:1031D00032930120C29B0120709A01206C9A012039
:1031E000BF9B012028980120C79B0120939B0120B1
:1031F000989B0120719B012036950120A79B0120FF
:103200006C990120E0990120889B01207D9B012081
:103210009DF8C2219DF8C33103EB0223C64A82FB0D
:1032200003139B0807EE903AF8EE677AC34BC3EDA1
:10323000007A9DF8C0119DF8C13103EB012382FB98
:1032400003239B0807EE103AB8EE477ABC4B83ED98
:10325000007A17EE900A31F00DF902460B46B94993
:1032600005A833F0CFF91E2105A82EF001F833F0A0
:10327000C1FD0028FBD0B14BD3ED007AB04BD3EDAC
:10328000006A27EEA67AB04B83ED007AAF4B1B782D
:10329000002B40F08880AE4B1A68AE4B1A6093ED5D
:1032A000006AB4EEC67AF1EE10FA35D5AA4B1B7857
:1032B00033BB9FEDAA7A76EE876ACDED4F6AA54BB8
:1032C00093ED006AA64BD3ED006A86EE267AF4EE03
:1032D000C77AF1EE10FAC0F2A480F6EE007A27EE7B
:1032E000277A8DED4E7A03238DF8413101238DF835
:1032F0004031022300224EA99A4800682BF0AAF818
:10330000954B1B78DBB2012B00F09880924B1B7819
:10331000DBB2012B00F0D1808E4BD3ED007A8A4BCB
:1033200093ED007AB4EEE77AF1EE10FA3BDD8A4BCA
:103330001B7863BB824BD3ED007A9FED887A77EEE2
:10334000877ACDED4F7A834BD3ED006A844BD3ED72
:10335000007A86EEA77A794BD3ED007AB4EEE77A5D
:10336000F1EE10FA00F20E81F6EE007A27EE277ADF
:103370008DED4E7A03238DF8413101238DF84031D4
:10338000022300224EA9774800682BF063F8724BA5
:103390001B78DBB2012B00F002816F4B1B78DBB294
:1033A000012B00F03B81694B1B78DBB2012B00F055
:1033B00074819DF8C2019DF8C3516B4E32784FEA7B
:1033C000820C6A49614405EB0023DFF86CE18EFB57
:1033D00003E39B0807EE903AF8EE677AC1ED007AB6
:1033E000634B9C445E4B1B68CCF80030013232705A
:1033F0009DF8C1318DF8A4319DF8C0318DF8A5310B
:103400008DF8A6518DF8A7015A4B689300236422CA
:1034100068A9594800682BF01DF8322030F0F6FFFB
:103420005FE6F4EEC77AF1EE10FA7FF55CAFB6EE28
:10343000007A67EE877ACDED4E7A54E74F4B1B78D2
:10344000DBB2112B7FF662AF4D4B4FF40012C3F885
:1034500018213B4BD3ED007A9FED407A77EE877AC7
:10346000CDED4F7A3B4BD3ED007AB6EE007A67EEA6
:10347000877A3B4BD3ED006A87EEA67A2F4BD3EDCC
:10348000007AB4EEE77AF1EE10FA0ED88DED4E7AAE
:1034900002238DF8413101228DF8402100224EA9EE
:1034A000304800682AF0D6FF36E7B4EEE77AF1EE4E
:1034B00010FAC8BFCDED4E7AEAE7304B1B78DBB28D
:1034C000112B3FF629AF1E4BD3ED007A9FED237AE7
:1034D00077EE877ACDED4F7A1E4BD3ED006A204B05
:1034E000D3ED007A86EEA77A144BD3ED007AB4EED2
:1034F000E77AF1EE10FA13D8F6EE007A27EE277A83
:103500008DED4E7A03238DF8413101238DF8403142
:10351000022300224EA9134800682AF09BFFFBE615
:10352000B4EEE77AF1EE10FAECDDB6EE007A67EE73
:10353000877ACDED4E7AE5E767666666AC9A01203C
:10354000549B0120783F01000C9B01209F9B012090
:10355000AC9D012098990120939B01200000000060
:10356000B49D0120AC990120C79B01202C9601201D
:103570005496012005C4EC15189A01208F9B012058
:1035800000800041B4EEE77AF1EE10FA7FF7F2AE78
:10359000B6EE007A67EE877ACDED4E7AEAE6CB4B4F
:1035A0001B78DBB2112B7FF6F8AEC94B4FF400123B
:1035B000C3F81821C74BD3ED007A9FEDC77A77EE99
:1035C000877ACDED4F7AC54BD3ED007AB6EE007A0F
:1035D00067EE877AC24BD3ED006A87EEA67AC14BBD
:1035E000D3ED007AB4EEE77AF1EE10FA0ED88DED55
:1035F0004E7A02238DF8413101228DF840210022BC
:103600004EA9B94800682AF025FFCCE6B4EEE77A67
:10361000F1EE10FAC8BFCDED4E7AEAE7AB4B1B785E
:10362000DBB2112B3FF6BFAEAA4BD3ED007A9FED74
:10363000AA7A77EE877ACDED4F7AA84BD3ED006A60
:10364000A74BD3ED007A86EEA77AA64BD3ED007A8E
:10365000B4EEE77AF1EE10FA13D8F6EE007A27EE20
:10366000277A8DED4E7A03238DF8413101238DF8B1
:103670004031022300224EA99B4800682AF0EAFE4E
:1036800091E6B4EEE77AF1EE10FAECDDB6EE007AF0
:1036900067EE877ACDED4E7AE5E7944B1B785BBBFE
:1036A0008C4BD3ED007A9FED8C7A77EE877ACDED57
:1036B0004F7A8F4BD3ED006A894BD3ED007A86EEBB
:1036C000A77A884BD3ED007AB4EEE77AF1EE10FAE0
:1036D00050D8F6EE007A27EE277A8DED4E7A032346
:1036E0008DF8413101238DF84031022300224EA98B
:1036F0007D4800682AF0AEFE7C4B1B78DBB2012BC4
:1037000044D07A4B1B78DBB2012B7FF452AE6F4B67
:103710001B78DBB2112B3FF64CAE6E4BD3ED007A2B
:103720009FED6D7A77EE877ACDED4F7A704BD3EDC2
:10373000006A6B4BD3ED007A86EEA77A694BD3ED26
:10374000007AB4EEE77AF1EE10FA65D8F6EE007A78
:1037500027EE277A8DED4E7A03238DF84131012330
:103760008DF84031022300224EA95F4800682AF0FC
:1037700071FE1EE6B4EEE77AF1EE10FAAFDDB6EEBA
:10378000007A67EE877ACDED4E7AA8E74F4B1B782B
:10379000DBB2112BB5D94E4B4FF40012C3F81821F0
:1037A000534B93ED007ADFED537AB4EEE77AF1EE06
:1037B00010FAC8BFC3ED007A464BD3ED007A9FEDF7
:1037C000467A77EE877ACDED4F7A494BD3ED006A92
:1037D000434BD3ED007A86EEA77A424BD3ED007AC5
:1037E000B4EEE77AF1EE10FA0ED88DED4E7A0223A0
:1037F0008DF8413101228DF8402100224EA93A482E
:1038000000682AF027FED4E5B4EEE77AF1EE10FA6C
:10381000C8BFCDED4E7AEAE7B4EEE77AF1EE10FAE2
:103820009ADDB6EE007A67EE877ACDED4E7A93E7B1
:1038300031F0DCF89DF8B6212F4B1A702F4A13781F
:103840000133137064E42D4B07221A709DF8B631D2
:103850008BF8003061E44FF0000C294B83F800C076
:10386000BAF80010B9F80000264B274A03F1140EED
:10387000CDF80CC01E461546029101E0734545D0B7
:10388000F3EC017A96ED007AB4EEE77AF1EE10FAF5
:1038900009D8C6ED007AFCEEE77A17EE901A89B2E5
:1038A00002914FF0010CF2EC017A95ED007AB4EE42
:1038B000E77AF1EE10FAE1D8C5ED007AFCEEE77A8E
:1038C00017EE901A88B201210391D7E78F9B012050
:1038D00000800041549B01200000000098990120C5
:1038E000B49D0120AC9A0120AC990120939B01204A
:1038F000A099012000B808477D9B0120C29B0120B0
:10390000C79B01202C960120549601200299BCF1FE
:10391000000F01D0AAF80010039B0BB1A9F800001A
:10392000344BD3ED007AFCEEE77A17EE900A30F0D4
:1039300085FA314BD3ED007AFCEEE77A17EE900A68
:1039400030F060FAFFF7EEBB00252C4B1D7097F8A6
:1039500000C02B4B5E1D18464FF0010E01E0B34234
:1039600008D013F8012B01789142F8D802709446E0
:103970007546F4E70DB187F800C0214B187831F097
:103980001DF8FFF7D4BB00228DF84420022311A9B3
:103990001C4800682AF05EFDFFF7D2BB1A4B1B786B
:1039A000DBB2012B7FF4D2AB184B1B78DBB2132BAD
:1039B0007FF6CCAB00228DF84420022311A91148D8
:1039C00000682AF047FDFFF7C1BB114B1E221A7099
:1039D000092388F800300F4BC9221A800E4B0222AF
:1039E0001A700A2031F0C4FA0C4B1A680C4B1A609A
:1039F000FFF7CCBB2C96012054960120BF9B0120E1
:103A0000289801200C990120989B01208F9B012070
:103A1000719B012036950120A79B01206C99012004
:103A2000E0990120A74B1B78DBB2012B00F0098144
:103A3000A54B1B78DBB2012B00F019814FF003037B
:103A40008DF884318DF8A531A04B6893A04E0023EA
:103A5000642268A930682AF0FDFC322030F0D6FCE0
:103A600000258DF8A4518DF8A5519A4A68922B46ED
:103A7000642268A930682AF0EDFC322030F0C6FCE0
:103A800095494FF48010C1F81801944B1A68944B73
:103A90001A608C4B1D7002238DF841318DF8405116
:103AA0002A464EA98F4800682AF0D4FC40F6B83068
:103AB00030F0ACFC4FF003008DF8A501834B689308
:103AC0002B46642268A8014630682AF0C3FC3220E5
:103AD00030F09CFC8DF8A4518DF8A5517D4A689278
:103AE0002B46642268A8014630682AF0B3FC3220D5
:103AF00030F08CFC78494FF48013C1F818310A2358
:103B000000932B462A460321774800682FF0DEFBFE
:103B1000764B187830F0AAFA754B187830F0C2FA64
:103B2000744B188830F0DAFA734B187830F00EFBCB
:103B3000724B187830F0EEFA714B187830F022FBA7
:103B4000704B186830F056FB6F4B1B78DBB2012BC3
:103B500000F0A3806C4B1B78DBB2022B00F0A1803D
:103B6000694B1B78DBB2032B00F09F805C4BD3EDDD
:103B7000007AFCEEE77A654B93ED007ABCEEC77AEB
:103B800017EE903A17EE102A9B1A07EE903AF8EECD
:103B9000677A5F4DC5ED007AFCEEE77A17EE900A82
:103BA00030F00CFB5B4B15221A7005202EF092FCB6
:103BB000544B1B683E934F4B19884D4B1B784B4A17
:103BC00012781B0243EA0143134341934B4B19788C
:103BD000494B1B784A4A12781B0243EA01431343BC
:103BE00042934D4B1A783B7843EA02434393D5ED19
:103BF000007AFCEEE77A17EE903A43F400334493F0
:103C0000414B1A78454D2B8843EA024345930223E2
:103C10008DF8F030002364223CA9414800682AF066
:103C200019FC404B18682CF0E3FD012323600022AF
:103C30002A803D4A13703D4A13703D4A1370FEF7C7
:103C400065BD214B1B78002B7FF4F2AE00228DF86E
:103C5000402103238DF8413102234EA921480068F9
:103C60002AF0F8FB40F6B83030F0D0FBE0E6154B18
:103C70001B78DBB2012B7FF4E1AE00228DF84021EE
:103C800002238DF841314EA9164800682AF0E2FB64
:103C900040F6B83030F0BAFBD0E6012031F068F9D8
:103CA00058E7022031F064F95AE7032031F060F957
:103CB0005CE79DF8CC31FA2B7EF40BAE1D4A1268FE
:103CC000FEF70EBE989B0120939B012002C4EC15C9
:103CD000189A012005C4EC15008000416C99012060
:103CE000E0990120AC9901204C990120B39B01205F
:103CF000CC9B0120FA8C0120CB9B0120BC9B012096
:103D0000DA9B0120A4980120A69B0120D8990120CC
:103D1000CC980120B79C01207D9B0120329301208B
:103D20002499012028990120979B0120969B01202E
:103D3000959B0120E09A01202DE9F04FF1B000247D
:103D40006E946F946C94CDF8B3416A948DF8AC4145
:103D5000ADF8A441679468946694639464948DF874
:103D600094416094619462945D945E945F945A94DB
:103D70005B945C94539454945594569457945894EB
:103D800059944F9450945194ADF8484149944A94B1
:103D90004B944C944D94CDF83741469447944894B5
:103DA000922221460FA833F0BDF80D940E94B24E26
:103DB000B24FDFF82C83DFF82C93DFF82CB3DFF859
:103DC0002CA32BE2AE4B18682CF012FD0024AD4B57
:103DD0001C70A9F80040ABF80040AB4B1C80224699
:103DE0006EA9AA4B18682AF053FC22466AA9A84B70
:103DF00018682AF04DFC224669A9A64B18682AF0DB
:103E000047FC9DF8BF31022B40F0D0819DF8AA31CC
:103E1000002B40F0CB819DF8A9316D2B26D89DF861
:103E2000A931632B00F2C2819B4D609540238DF830
:103E30008A319A4C0023642260A920682AF00AFB88
:103E40004FF47A7030F0E2FA609500238DF851312A
:103E50008DF88A31642260A920682AF0FBFA642078
:103E600030F0D4FA8E4B01221A709FE18D4B1C600A
:103E70008D4B1C60884B609340238DF88A31874DB1
:103E80002346642260A928682AF0E4FA4FF47A7085
:103E900030F0BCFA804B60938DF851418DF88A4127
:103EA0002346642260A928682AF0D4FA642030F0FE
:103EB000ADFA7B4B01221A700C2388F80030AEE774
:103EC0007A4B5D9300248DF87841234664225DA9E6
:103ED000774800682AF0BEFA642030F097FA754BF4
:103EE0005A9301258DF842518DF86C518DF843415C
:103EF0008DF86D418DF844418DF86E412346642262
:103F00005AA96D4800682AF0A5FA642030F07EFABC
:103F1000614B60938DF84F518DF885512346642293
:103F200060A95E4800682AF095FA642030F06EFAC5
:103F3000224669A9574B18682AF0AAFB9DF8A431BC
:103F4000AB4240F03381564B02221A702EE1524CA4
:103F5000609440238DF88A31504D0023642260A97B
:103F600028682AF077FA4FF47A7030F04FFA6094AC
:103F700000248DF851418DF88A412346642260A9BE
:103F800028682AF067FA642030F040FA22466AA9CD
:103F90003F4B18682AF07CFB002800F007819DF851
:103FA000A931503BDBB21D2B1DD8444B4FF480325E
:103FB000C3F89420092388F80030414B01221A707D
:103FC000384B1B68934248D03E4B1B78012B00F0C6
:103FD0008F80344B1B6813B9314B03221A703A4A55
:103FE0001368013313609DF8A9316D2B21D9374B2C
:103FF0001B78C3B9354B1B7823B9304B4FF4803253
:10400000C3F89820324B18682BF032F94FF6FF7046
:104010002FF01CFA0023234A1360234A13602D4B10
:104020001B78002B79D0264B00221A700C2388F8BD
:104030000030254B1B681E2B40F3B880224B00221A
:104040001A60224B1B7823B91C4B4FF48032C3F803
:104050009820134B00221A70A8E022468DF82040C9
:10406000022308A91C4800682AF0F4F91B4B1868C1
:104070002CF0BEFBA8E700BFA29B0120989A01206C
:1040800074990120C19B0120FE920120209A0120F9
:10409000249A0120489A012002C0EC15189A0120A8
:1040A0008F9B0120DC9A0120E49A012001C0EC15CD
:1040B000FC99012002D0EC15EC9901200080004110
:1040C000939B01208C9B0120C89A0120989B012082
:1040D00018990120CD9B0120FC980120E498012033
:1040E0002D980120769B0120829B0120A09B01201E
:1040F000AE4B5B78012B7FF46CAFAD4B03221A7093
:1041000000228DF82420022309A9AA4800682AF079
:10411000A1F9A94B01221A605BE7A84B01221A7092
:10412000A74B18782DF00EFC7DE70024A54B1C60F2
:10413000A54B5D9308238DF825318DF87B312346FF
:1041400064225DA9A14800682AF084F94FF47A70CE
:1041500030F05CF99E4D60958DF850418DF88841A6
:104160008DF851418DF88A418DF852418DF88B417F
:104170002346642260A9974800682AF06BF94FF43F
:104180007A7030F043F9609502238DF84F318DF845
:1041900085312346642260A98E4800682AF05AF9C6
:1041A000642030F033F9824B04221A7098F8003002
:1041B0008DF83130B9F80030ADF82E30BBF8003052
:1041C000ADF82C309AF800308DF8323033788DF815
:1041D0003030022300220BA97F4800682AF03AF908
:1041E00098F800308DF82830022300220AA97B4875
:1041F00000682AF02FF93B68012B0BD100233B60AC
:104200006B4A1370764B18682CF0F2FA754B1868ED
:104210002BF02EF84FF4FA7030F0F8F8644B1B785E
:10422000DBB21E2BC2D801A252F823F0C53D00001C
:10423000C13E00004F3F00002B410000A94200009A
:10424000AD4100001D430000AD410000AD41000044
:10425000AD410000AD410000AD410000AD410000A6
:10426000AD410000AD410000AD41000097440000A9
:10427000AD410000C5450000FD470000D5480000E5
:10428000AD4100004D4B0000AD410000AD410000CC
:10429000AD410000AD410000AD410000AD41000066
:1042A000AD4100009D54000000226AA94E4B1868E1
:1042B0002AF0EEF9002269A94C4B18682AF0E8F9B7
:1042C0009DF8AA31012B1FD09DF8A431FA2B02D002
:1042D000FC2B00D013B9364B00221A709DF8A9317F
:1042E0006D2B7FF663AF424B1B7823B9414B4FF4E4
:1042F0008032C3F8982000233F4A13700C2288F8BC
:1043000000202B4A137051E79DF8A931503BDBB2D6
:104310001D2BD9D8264B06221A70D5E70022274B31
:104320001A7069A9314B18682AF0B2F99DF8A431C6
:10433000312B0ED9314B1B68012B28D0002B41F0BB
:10434000EC8100226CA92E4B18682AF0A1F90028F4
:104350005AD19DF8A431FA2B02D0FC2B00D053B9CE
:10436000264A1268012A19D02AB9114A002111706F
:10437000224A012111600A2B7FF418AF214B1B78D0
:104380000133DBB2F02B76D01E4A13700EE7084BD8
:1043900010221A709DF8A431FA2BDED1044A0021B4
:1043A0001170164A01211160E5E700BF8C9B0120C6
:1043B0008F9B01200C990120E49A0120CD9B0120C4
:1043C000B79C0120C89A012001C0EC15FC9901207E
:1043D00002C0EC15189A0120F4980120B49801202D
:1043E00030990120F4990120249A0120489A012053
:1043F000989B012000800041939B0120DC9A0120C2
:10440000309A0120DB9B01209DF8B0318DF81830E7
:104410009DF8B1318DF819309DF8B2318DF81A3010
:104420009DF8B3318DF81B309DF8B4318DF81C30F8
:104430009DF8B5318DF81D300223002206A953489E
:1044400000682AF007F89DF81830002B81D001236E
:104450004F4A13604F4A102111708DF820304E4B97
:1044600018682CF0C5F90223002208A94B480068FF
:1044700029F0F0FF6DE70023494A1370454A137095
:10448000484B40F233121A80474B01221A70082021
:104490002DF058FA8AE6424B00221A70434B1B68F3
:1044A00073BB434B1B78012B2ED1414B5B78012B07
:1044B0002AD114468DF82420022309A93D4800681A
:1044C00029F0C8FF3C4B609301238DF851318DF8E2
:1044D0008A312346642260A93848006829F0BAFF6F
:1044E00064202FF093FF4FF47A7269A9344B186857
:1044F0002AF0CEF8274B12221A7005202DF022FA4E
:104500002A4B1B68012B21D0002269A92C4B18686B
:104510002AF0BEF89DF8A431FA2B04D0FC2B02D06F
:10452000002B7FF443AE1B4B00221A700123184A64
:1045300013601C4A4FF49A7111801B4A13700620B5
:1045400030F000FD08202DF0FDF92FE61A4B6093A6
:1045500001238DF851318DF88A310023642260A93E
:104560001648006829F076FF64202FF04FFF4FF4C3
:104570007A7269A9124B18682AF08AF8054B122240
:104580001A7005202DF0DEF9BEE700BF009901206A
:10459000DC9A01208F9B0120E4980120FC980120E7
:1045A000DB9B012036950120A79B0120E49A012086
:1045B0008C9B01200C99012002C0EC15189A012057
:1045C000489A0120AD4B4FF40012C3F81821002384
:1045D0004693AB4B479301248DF820418DF8214140
:1045E0000023642246A9A748006829F033FFA64BA0
:1045F00018682CF0FDF8A54B1C60002267A9A44B9D
:1046000018682AF045F8002800F0D3809DF89C3106
:104610009DF89D2102EB03229E4981FB02329310FB
:1046200007EE903AF8EEE77A9DF89E219DF89F31CB
:1046300003EB022381FB03239B1007EE103AB8EE35
:10464000C77ABDEEC77A17EE103A934A92FBF3F39E
:1046500003EB8303A34007EE103AB8EEC77A8F4B03
:1046600083ED007AB2EE047A67EE877A93ED007AF2
:10467000F4EEC77AF1EE10FA48BFC3ED007A884B2A
:10468000609300248DF88A412346642260A98548FE
:10469000006829F0DFFE64202FF0B8FE824B5D93A6
:1046A0007E4AD2ED007AFCEEE77A17EE903A8DF86A
:1046B0007831D2ED007AFCEEE77A17EE903AC3F348
:1046C00007238DF8793158238DF87A311B238DF823
:1046D0007B3110238DF87C3127238DF87D31142513
:1046E0008DF87E518DF87F41234664225DA96F4885
:1046F000006829F0AFFE4FF4FA702FF087FE8DF8B6
:1047000078518DF87941C8238DF87A318DF87B4145
:104710008DF87C518DF87D4164258DF87E518DF8A2
:104720007F41634B5D9323462A465DA95F4800683D
:1047300029F090FE4FF4FA702FF068FE02238DF8F6
:1047400051318DF88A3103F1AF5303F54C23609357
:1047500023462A4660A95348006829F07BFE4FF49F
:10476000FA702FF053FE07202DF0ECF8224669A9CD
:10477000504B186829F08CFF9DF8A4315B3BDBB2ED
:10478000092B2ED99DF8A431FA2B02D0FC2B00D096
:104790007BB9494B00221A70484B40F235121A80FF
:1047A000474B01221A70082030F0CCFB08202DF076
:1047B000C9F800240694ADF81C408DF8204002236F
:1047C000224608A93F48006829F044FE02232246F9
:1047D00006A93D48006829F03DFE3C4B1C809C70BA
:1047E000E4E4354B13221A704FF47A702FF00EFE6A
:1047F000224B4FF40022C3F81421C3E700226AA918
:10480000334B186829F044FF9DF8A931312B1ED98C
:104810001A4BD3F8A03013F4000F1DD101238DF8EB
:1048200050318DF888310C238DF851318DF88A3153
:104830001B4B60930023642260A91A48006829F08A
:1048400009FE64202FF0E2FD1B4B14221A704FF476
:104850007A702FF0DBFDA9E4174B00221A70174B7A
:1048600040F235121A80164B01221A70072030F0E0
:1048700069FB08202DF066F8E9E700BF00800041E1
:1048800000004843AC990120B0990120E49A01202E
:10489000389A012067666666701101007C990120D4
:1048A00002C0EC15189A012003C0EC15FC990120F8
:1048B00004C0EC15489A01208F9B012036950120F9
:1048C000A79B0120FC980120009901208C9B0120CE
:1048D000249A0120002266A9824B186829F0D8FE8C
:1048E0009DF898319DF8992102EB03227E4981FBC6
:1048F0000232921007EE902AF8EEE77A7B4BC3ED76
:10490000007A9DF89A219DF89B3103EB022381FBED
:1049100003239B1007EE103AB8EEC77A744B83ED71
:10492000007A4FF080434693CDED477A01238DF80E
:1049300020318DF821310023642246A96D4800689A
:1049400029F088FD6C4B18682BF052FF9DF89931C7
:104950008DF884319DF898318DF88531674B6093DF
:104960000023642260A96648006829F073FD0A20CC
:104970002FF04CFD002269A9624B186829F088FECF
:1049800000283FF413AC9DF8A431782B1AD09DF881
:10499000A431FA2B04D0FC2B02D0002B7FF406AC00
:1049A000594B1E221A70594B4FF49B721A80584B68
:1049B00001221A70082030F0C5FA08202CF0C2FF3E
:1049C000FFF7F4BB534B1D6832F00AFC4EF660242F
:1049D000009400230246012128462EF077FC4E4B1E
:1049E0001D6832F0FDFB0094002302460121284699
:1049F0002EF06CFC494B1D6832F0F2FB0094002352
:104A00000246012128462EF061FC454B1D6832F01C
:104A1000E7FB009400230246012128462EF056FCB5
:104A2000404B1D6832F0DCFB00940023024601215C
:104A300028462EF04BFC3C4B1D6832F0D1FB009415
:104A400000230246012128462EF040FC09202CF0CC
:104A500079FF032030F0B0F92B4B16221A70334B3C
:104A600018782FF02BF864202FF0D0FC304C2078F1
:104A70002FF040F864202FF0C9FC2E4D28882FF02D
:104A800055F864202FF0C2FC2B4908782FF086F8E7
:104A900064202FF0BBFC294800782FF063F86420D5
:104AA0002FF0B4FC264A10782FF094F864202FF0F1
:104AB000ADFC244B1A68244B1A60298823781B4AC2
:104AC00012781B0243EA0143134337931B480178D2
:104AD000194B1B781A4A12781B0243EA014313430D
:104AE000389354E7409A012067666666509B012020
:104AF000A89A0120AC990120B099012005C0EC15BD
:104B0000189A0120489A01208F9B01203695012098
:104B1000A79B012048990120909A0120149B012015
:104B2000189B01201C9B0120209B0120B39B01208E
:104B3000CC9B0120FA8C0120CB9B0120BC9B012047
:104B4000DA9B012068990120D4990120002205A94F
:104B5000BD4B186829F09CFD28B1BC4A9DF8143063
:104B600011880B441380BA4B18682BF041FEB74BE9
:104B700018882EF0FBFEB74B1B78072B00F0A281A4
:104B8000002266A9B44B186829F082FD002800F0C5
:104B9000EE809DF89A319DF89B2102EB0322AF49EC
:104BA00081FB0232930807EE103AB8EE477AAC4B1D
:104BB00083ED007A9DF898219DF8993103EB02234B
:104BC00081FB03239B0807EE903AF8EE677AA54B2A
:104BD000C3ED007A67EE276AA34BC3ED006AA34BCF
:104BE0001B78002B40F08880A14B1A68A14B1A60FB
:104BF00093ED006AF4EEC66AF1EE10FA35D59E4BDD
:104C00001B7833BBDFED9D6A77EEA67ACDED477A50
:104C1000984B93ED006A9A4BD3ED006AC6EE267A64
:104C2000B4EEE77AF1EE10FAC0F25181B6EE007AF6
:104C300067EE877ACDED467A03238DF82131012383
:104C40008DF820310223002246A98E48006829F001
:104C500001FC894B1B78DBB2012B00F04581864BB0
:104C60001B78DBB2012B00F07E81824BD3ED007A02
:104C70007D4B93ED007AB4EEE77AF1EE10FA3BDD6E
:104C80007D4B1B7863BB774BD3ED007A9FED7B7A2E
:104C900077EE877ACDED477A764BD3ED006A784B85
:104CA00093ED007AC6EE877A6D4B93ED007AF4EEC1
:104CB000C77AF1EE10FA00F29581B6EE007A67EE4F
:104CC000877ACDED467A03238DF8213101238DF8C3
:104CD00020310223002246A96A48006829F0BAFB65
:104CE000654B1B78DBB2012B00F08981624B1B788E
:104CF000DBB2012B00F0C2815C4B1B78DBB2012BD5
:104D000000F0FB81604C22789500604B2B445C499D
:104D1000096819609DF89A119DF89B015C4B1D4430
:104D200000EB0123DFF834C18CFB03C39B0807EEC3
:104D3000903AF8EE677AC5ED007A013222709DF85C
:104D400099318DF884319DF898318DF885318DF841
:104D500086018DF887114F4B60930023642260A970
:104D60004D48006829F076FB32202FF04FFB0022DF
:104D700063A94A4B186829F08BFCA0B1484A137804
:104D80009DF88E014749C854062188F80010013368
:104D90001370304B1B78042B40F290822D4B1B7804
:104DA000052B00F09682384B1B78052B00F099827A
:104DB0003B4B1B78052B00F0EC823B4B1B78DBB2A6
:104DC000012B00F00483384B1B78DBB2012B00F081
:104DD0000D839DF8A431292B03D0FA2B01D0FC2B95
:104DE00012D1324B1E221A70092388F80030304B42
:104DF000CA221A802F4B01221A700A2030F0A2F822
:104E00002D4B1A682D4B1A609DF88C31012B00F048
:104E100003832B4B1B78012B7FF4C8A9284B9B786D
:104E2000012B7FF4C3A9214B1E221A70092388F895
:104E30000030234B00221A809A701F4B1A681F4BB8
:104E40001A60FFF7B3B900BF2C990120FE92012030
:104E500018990120C19B0120409A0120676666666F
:104E6000A89A0120509B0120089B01209E9B0120B5
:104E7000AC9D012098990120989B01200000000022
:104E8000B09D0120AC990120C69B012040960120D5
:104E90001896012005C0EC15189A01203C9A0120B3
:104EA000BE9B012020980120939B01208F9B012015
:104EB00036950120A79B012068990120DC990120EB
:104EC0008C9B0120C94B18782FF030FD58E6B4EECA
:104ED000E77AF1EE10FA7FF5AFAEF6EE007A27EE44
:104EE000277A8DED467AA7E6C14B1B78DBB2112BF2
:104EF0007FF6B5AEBF4B4FF40012C3F81821BE4B7E
:104F0000D3ED007A9FEDBD7A77EE877ACDED477AC3
:104F1000BB4BD3ED007AB6EE007A67EE877AB94BD9
:104F2000D3ED006A87EEA67AB74BD3ED007AB4EEE4
:104F3000E77AF1EE10FA0ED88DED467A01238DF85E
:104F400021318DF820310223002246A9AF480068A4
:104F500029F080FA89E6B4EEE77AF1EE10FAC8BFDC
:104F6000CDED467AEAE7A24B1B78DBB2112B3FF678
:104F70007CAEA14BD3ED007A9FEDA07A77EE877AD5
:104F8000CDED477A9E4BD3ED006A9E4BD3ED007A70
:104F900086EEA77A9C4BD3ED007AB4EEE77AF1EE79
:104FA00010FA13D8F6EE007A27EE277A8DED467ABE
:104FB00003238DF8213101238DF8203102230022B3
:104FC00046A99248006829F045FA4EE6B4EEE77A21
:104FD000F1EE10FAECDDB6EE007A67EE877ACDEDF1
:104FE000467AE5E7F4EEC77AF1EE10FA7FF76BAE9A
:104FF000F6EE007A27EE277A8DED467A63E67C4B53
:105000001B78DBB2112B7FF671AE7A4B4FF4001296
:10501000C3F81821784BD3ED007A9FED787A77EEBC
:10502000877ACDED477A764BD3ED007AB6EE007AEB
:1050300067EE877A734BD3ED006A87EEA67A724BE0
:10504000D3ED007AB4EEE77AF1EE10FA0ED88DEDDA
:10505000467A01238DF821318DF820310223002278
:1050600046A96A48006829F0F5F945E6B4EEE77A02
:10507000F1EE10FAC8BFCDED467AEAE75C4B1B783B
:10508000DBB2112B3FF638AE5B4BD3ED007A9FEDD0
:105090005B7A77EE877ACDED477A594BD3ED006A8C
:1050A000584BD3ED007A86EEA77A574BD3ED007AB2
:1050B000B4EEE77AF1EE10FA13D8F6EE007A27EEA6
:1050C000277A8DED467A03238DF8213101238DF85F
:1050D00020310223002246A94C48006829F0BAF981
:1050E0000AE6B4EEE77AF1EE10FAECDDB6EE007AFD
:1050F00067EE877ACDED467AE5E7454B1B785BBBDB
:105100003D4BD3ED007A9FED3D7A77EE877ACDED7A
:10511000477A404BD3ED006A3A4B93ED007AC6EEE6
:10512000877A394B93ED007AF4EEC77AF1EE10FAF4
:1051300050D8B6EE007A67EE877ACDED467A032333
:105140008DF8213101238DF820310223002246A958
:105150002E48006829F07EF92D4B1B78DBB2012B1D
:105160005AD02B4B1B78DBB2012B7FF4CBAD204BFD
:105170001B78DBB2112B3FF6C5AD1F4BD3ED007A88
:105180009FED1E7A77EE877ACDED477A214BD3EDEE
:10519000006A1C4BD3ED007A86EEA77A1A4BD3ED4A
:1051A000007AB4EEE77AF1EE10FA7BD8F6EE007AE8
:1051B00027EE277A8DED467A03238DF821310123DE
:1051C0008DF820310223002246A91048006829F0FA
:1051D00041F997E5F4EEC77AF1EE10FAAFDDF6EE9D
:1051E000007A27EE277A8DED467AA8E7759B012095
:1051F000719B012000800041509B012000000000B5
:1052000098990120B09D0120A89A0120AC99012015
:10521000989B01209C990120894B1B78DBB2112BB4
:105220009FD9884B4FF40012C3F81821864B93ED99
:10523000007ADFED867AB4EEE77AF1EE10FAC8BFB5
:10524000C3ED007A824BD3ED007A9FED827A77EE40
:10525000877ACDED477A7C4BD3ED006A7E4BD3ED58
:10526000007A86EEA77A7D4BD3ED007AB4EEE77A2A
:10527000F1EE10FA0ED88DED467A01238DF821312A
:105280008DF820310223002246A97548006829F0D4
:10529000E1F837E5B4EEE77AF1EE10FAC8BFCDEDEC
:1052A000467AEAE7B4EEE77AF1EE10FA84DDB6EE7C
:1052B000007A67EE877ACDED467A7DE72FF036FBF0
:1052C000684A1378013313709DF88E21664B1A706B
:1052D00064E59DF88E318AF80030624B07221A701F
:1052E00061E54FF0000C614B83F800C0B9F8001085
:1052F000BBF800005E4B5F4A03F1140ECDF80CC002
:105300001D461446029101E0734525D0F3EC017A65
:1053100095ED007AB4EEE77AF1EE10FA09D8C5ED12
:10532000007AFCEEE77A17EE901A89B202914FF0FC
:10533000010CF2EC017A94ED007AB4EEE77AF1EE2A
:1053400010FAE1D8C4ED007AFCEEE77A17EE901A75
:1053500088B201210391D7E70299BCF1000F01D077
:10536000A9F80010039B0BB1ABF80000404BD3ED44
:10537000007AFCEEE77A17EE900A2EF02FFB3D4BF9
:10538000D3ED007AFCEEE77A17EE900A2EF00AFBD6
:105390000EE50024384B1C7096F800C0374B5D1D9D
:1053A00018464FF0010E01E0AB4208D013F8012B74
:1053B00001789142F8D8027094467446F4E70CB133
:1053C00086F800C02D4B18782FF098FAF5E42C4B96
:1053D0001B78002B7FF4F7AC00228DF824200223E9
:1053E00009A92848006829F035F8ECE4244B1B781B
:1053F000DBB2012B7FF4EDAC114B1B78DBB2132B2E
:105400007FF6E7AC00228DF82420022309A91D486D
:10541000006829F01FF8DCE41B4B1E221A700920DB
:1054200088F80000194BC9221A80194B01221A7002
:105430002FF088FD174B1A68174B1A60E9E400BF7C
:10544000719B0120008000419C99012000B8084711
:10545000509B012000000000B09D0120A89A01206F
:10546000AC990120C19B0120759B0120C69B0120A6
:105470001896012040960120BE9B01202098012013
:10548000989B01200C9901208F9B012036950120CB
:10549000A79B012068990120DC990120A34B1B7870
:1054A000DBB2012B00F00181A04B1B78DBB2012B9A
:1054B00000F011814FF003038DF84F318DF88531E5
:1054C0009B4B60939B4D0023642260A9286828F0C1
:1054D000C1FF32202EF09AFF00248DF884418DF810
:1054E0008541954A60922346642260A9286828F085
:1054F000B1FF32202EF08AFF90494FF40020C1F80E
:1055000018018F4B1B688F480360884B1C708DF807
:10551000204101238DF821310223224646A98A48E1
:10552000006828F097FF40F6B8302EF06FFF4FF07C
:10553000030C8DF885C17E4B6093234664220DF5E4
:10554000C07C6146286828F085FF32202EF05EFF7F
:105550008DF884418DF88541774A60922346642214
:105560000DF5C07C6146286828F074FF32202EF0CB
:105570004DFF72494FF40023C1F818310A230093FC
:10558000234622460321714800682DF09FFE704B90
:1055900018782EF03BFB6F4B18782EF053FB6E4BB8
:1055A00018882EF06BFB6D4B18782EF09FFB6C4B20
:1055B00018782EF07FFB6B4B18782EF0B3FB6A4BFC
:1055C00018682EF0E7FB5F48D0ED007AFCEEE77A32
:1055D000664B93ED007ABCEEC77A17EE100A17EE11
:1055E000903A181A624B18602EF0B8FB614B1B788A
:1055F000DBB2012B00F085805E4B1B78DBB2022B07
:1056000000F083805B4B1B78DBB2032B00F08180C2
:10561000594B0C221A7005202FF0CEFB524B1B6801
:1056200036934D4B19884B4B1B78494A12781B0215
:1056300043EA014313433993494B1978474B1B788D
:10564000484A12781B0243EA014313433A934B4BF7
:105650001A78337843EA02433B93454B1B6843F483
:1056600080333C93434B1A78454C238843EA0243EA
:105670003D9302238DF8D0300023642234A94148A1
:10568000006828F0E7FE404B18682BF0B1F80123C2
:105690003B60002222803D4A13703D4A13703D4A10
:1056A00013703D4A1370FEF781BD3C4B1B78002BF5
:1056B0007FF4FAAE00228DF8202103238DF82131EA
:1056C000022346A92048006828F0C4FE40F6B830FE
:1056D0002EF09CFEE8E6314B1B78DBB2012B7FF409
:1056E000E9AE00228DF820218DF82131022346A950
:1056F0001548006828F0AEFE40F6B8302EF086FE61
:10570000D8E601202FF01EFC76E702202FF01AFCCD
:1057100078E703202FF016FC7AE79DF8A431FA2BE6
:105720007EF41BAE1E4A1268FEF71EBE939B01203C
:1057300002C0EC15189A012005C0EC15008000414C
:1057400068990120DC990120AC9901204899012039
:10575000B39B0120CC9B0120FA8C0120CB9B012024
:10576000BC9B0120DA9B0120A0980120D499012044
:10577000C8980120A69B0120B79C0120759B0120A1
:10578000FE9201202499012028990120819B01206B
:10579000929B0120919B0120859B0120989B0120D9
:1057A000DC9A0120909D012004000000010000000F
:1057B00000000000389501201C00000000000000DF
:1057C000E896012008000000000000005495012028
:1057D0001C0000000000000068960120100000007E
:1057E00000000000F09601201800000000000000FA
:1057F000709501201C000000000000007896012038
:1058000010000000000000000897012010000000B8
:1058100000000000FC8C0120C0000000000000001F
:10582000729B01200200000000000000249401206F
:105830002C0000000000000034930120F000000064
:1058400000000000949D0120040000000100000001
:10585000AAAAAAAA309801200400000000000000B3
:10586000A0010020608A010000000000349801209F
:105870001000000000000000189701200800000040
:105880000000000044980120080000000000000013
:105890008C95012028000000000000004C98012099
:1058A0001800000000000000EC90012064000000DF
:1058B00000000000649801201400000000000000B7
:1058C000B495012028000000000000007898012015
:1058D0001000000000000000DC9501201400000012
:1058E0000000000088980120040000000000000073
:1058F000F095012028000000000000008C98012095
:105900000800000000000000989D01200400000035
:1059100001000000040000001000002090010000C1
:105920000000000094980120140000000000000016
:10593000A391012001000000000000007B9B0120DA
:105940000100000000000000A898012004000000F1
:10595000000000008B9B01200100000000000000FF
:10596000AC980120040000000000000025980120F0
:105970000100000000000000B09801200C000000B1
:10598000000000002D980120010000000000000030
:105990006D9B012001000000000000008F9B012092
:1059A0000100000000000000719B012001000000C8
:1059B00000000000BC98012014000000000000005E
:1059C000769B0120020000000000000018960120D4
:1059D00014000000000000007E9B01200200000077
:1059E000000000002C9601201400000000000000C0
:1059F000829B012002000000000000004096012070
:105A00001400000000000000869B0120020000003E
:105A10000000000054960120140000000000000067
:105A2000D0980120040000000000000080920120B6
:105A300040000000000000005094012050000000D1
:105A400000000000148F0120A400000000000000EE
:105A5000D49801200800000000000000F49101200B
:105A60004600000000000000909B012001000000A3
:105A700000000000DC9801203C0000000000000055
:105A8000668E01200200000000000000128F01203D
:105A900002000000000000003A9201200200000015
:105AA0000000000018990120040000000000000020
:105AB000759B012001000000000000007D9B01207B
:105AC00001000000000000001C99012010000000EF
:105AD00000000000819B0120010000000000000088
:105AE000859B01200100000000000000919B012027
:105AF0000200000000000000FE92012002000000F1
:105B0000000000002C9901200400000000000000AB
:105B1000939B01200100000000000000309901204B
:105B20000800000000000000949B01200400000019
:105B3000000000003293012002000000000000007D
:105B4000389901200400000000000000989B01200B
:105B500001000000000000003C9901200800000046
:105B600000000000999B01200100000000000000DF
:105B70004499012004000000000000009A9B0120CD
:105B800001000000000000004899012030000000E2
:105B9000000000009B9B01200300000000000000AB
:105BA000789901200C0000000000000050910120B5
:105BB000530000000000000084990120380000001C
:105BC00000000000009301203200000000000000EF
:105BD000BC99012014000000000000009E9B0120E1
:105BE0000200000000000000D09901200400000025
:105BF00000000000A09B0120030000000000000046
:105C0000209801200500000000000000A39B012057
:105C1000010000000000000028980120050000009D
:105C200000000000D49901200800000000000000DE
:105C3000A49B012002000000000000008C9B0120BA
:105C40000300000000000000889B0120030000000A
:105C500000000000DC9901200800000000000000A6
:105C6000A69B01200100000000000000DC9601203E
:105C70000A0000000000000036950120020000002C
:105C800000000000A79B01200100000000000000B0
:105C9000E49901200400000000000000A89B0120FE
:105CA0000100000000000000E69601200200000054
:105CB0000000000026980120020000000000000003
:105CC0002E98012002000000000000002097012013
:105CD0006800000000000000E8990120200000009A
:105CE000000000008897012068000000000000000C
:105CF000089A01208000000000000000F0970120B9
:105D00003000000000000000A99B012001000000FD
:105D100000000000889A012004000000000000003C
:105D2000AA9B012002000000000000008C9A0120C4
:105D30000400000000000000AC9B012001000000F6
:105D400000000000909A0120040000000000000004
:105D5000C09201203E000000000000006E9B012068
:105D60000200000000000000A0940120500000008C
:105D700000000000008C0120FA000000000000007C
:105D8000AD9B01200100000000000000949A01205A
:105D90000400000000000000AE9B01200300000092
:105DA00000000000989A0120080000000000000098
:105DB000B19B01200200000000000000A09A012019
:105DC0001000000000000000B39B01200200000052
:105DD00000000000B09A0120040000000000000054
:105DE000B59B01200100000000000000B49A0120D2
:105DF0000800000000000000BC8D0120AA00000087
:105E000000000000BC9A0120040000000000000017
:105E1000B69B01200300000000000000849B0120CD
:105E20000100000000000000B99B012001000000FB
:105E300000000000C09A01200400000000000000E3
:105E40003C9201204400000000000000C49A0120A0
:105E50000C00000000000000BA9B012002000000BE
:105E600000000000809B01200100000000000000F5
:105E70007C9B01200100000000000000D09A01205E
:105E80000800000000000000BC9B0120050000008D
:105E900000000000D89A012004000000000000006B
:105EA000C19B01200500000000000000DC9A0120D9
:105EB0001000000000000000C69B0120020000004E
:105EC00000000000EC9A0120040000000000000027
:105ED000C89B01200300000000000000F09A012090
:105EE0000800000000000000688E0120AA000000E9
:105EF00000000000F89A01200400000000000000EB
:105F0000CB9B01200100000000000000FC9A012052
:105F10000400000000000000CC9B012001000000F4
:105F200000000000789B012003000000000000003A
:105F3000CD9B01200600000000000000009B012016
:105F40000400000000000000D39B012002000000BC
:105F500000000000049B01200C0000000000000075
:105F6000D59B01200100000000000000109B0120D3
:105F70000400000000000000D69B0120010000008A
:105F800000000000149B012004000000000000003D
:105F9000D79B01200100000000000000189B012099
:105FA0000400000000000000D89B01200100000058
:105FB000000000001C9B0120040000000000000005
:105FC000D99B01200100000000000000209B01205F
:105FD0000800000000000000749B01200100000088
:105FE00000000000709B0120010000000000000084
:105FF0006C9B01200100000000000000289B012094
:106000001C00000000000000B88F0120A00000006C
:106010000000000088960120100000000000000031
:10602000DA9B01200100000000000000B89601206A
:106030002400000000000000449B01200400000038
:1060400000000000DB9B01200200000000000000B7
:10605000489B0120040000000000000098960120E9
:106060001000000000000000589001209400000083
:10607000000000004C9B01200C000000000000000C
:10608000FA8C01200200000000000000269C012084
:10609000020000000100000004010000469C0120F5
:1060A0000200000001000000B4000000289C012054
:1060B0001E000000010000005AA51B8252406874B7
:1060C0007470733A2F2F7777772E737461746971B8
:1060D0002E696E2FFFFF00007F9C01200100000051
:1060E000010000000C000000939C01200100000052
:1060F000010000000C000000B79C0120010000001E
:1061000001000000030000002F9D0120010000009D
:10611000010000000F0000003B9D01200100000075
:106120000100000050000000479D01200100000018
:106130000100000014000000489C01201E00000027
:1061400001000000454D455247454E43595F4255B9
:1061500054544F4E5F505245535345442F4F4E0DAC
:106160000A000000689C01201700000001000000E8
:10617000454D455247454E435920425554544F4E84
:10618000204F46460D0A00009C9D0120040000009F
:10619000010000000000803FB89C01200E000000BC
:1061A0000100000047464349204E4F54204F4B0DFD
:1061B0000A000000489D01200A00000001000000C4
:1061C00047464349204F4B0D0A000000A69C012082
:1061D000020000000100000001010000C89C012035
:1061E0000E00000001000000494D4431204E4F5484
:1061F000204F4B0D0A000000549D01200A000000B2
:1062000001000000494D4431204F4B0D0A000000B1
:10621000D89C01200E00000001000000494D4432CE
:10622000204E4F54204F4B0D0A000000609D01206E
:106230000A00000001000000494D4432204F4B0D80
:106240000A000000189D01200C0000000100000061
:1062500047415445204F50454E0D0A00E89C01200F
:106260000E000000010000004741544520434C4F00
:106270005345440D0A000000A09D012004000000C9
:1062800001000000CDCCCC3FA89C01200F000000F5
:10629000010000005048415345204E4F54204F4BC1
:1062A0000D0A0000249D01200B00000001000000E9
:1062B00050484153455F4F4B0D0A0000A49D0120FB
:1062C0000C00000001000000000000400000004041
:1062D00000B88847309D01200B000000010000003D
:1062E00052474231204F46460D0A00006C9D012066
:1062F0000A00000001000000524742315F4F4E0D7E
:106300000A0000003C9D01200B000000010000007D
:1063100052474232204F46460D0A0000789D012028
:106320000A00000001000000524742325F4F4E0D4C
:106330000A000000669C012002000000010000002D
:10634000204E0000809C012013000000010000008E
:10635000534D4F4B452049532050524553454E54C1
:106360000D0A0000949C01201200000001000000B2
:10637000534D4F4B45204E4F542054484552450DE8
:106380000A000000089D01200D000000010000002F
:10639000535044204E4F54204F4B0D0A0000000034
:1063A000849D01200900000001000000535044209A
:1063B0004F4B0D0A00000000B09D012008000000B6
:1063C000010000000000484300004843E09B01201A
:1063D00046000000010000004170706C6963617448
:1063E000696F6E2072756E206166746572207265C9
:1063F00063696576696E6720636F6D6D616E642099
:106400007468726F75676820626F6F746C6F616417
:10641000657220646F6E652E2E2E2E0D0A00000010
:10642000F89C01200E00000001000000494E544578
:10643000525255505445440D0A000000B89D0120A9
:10644000040000000100000000004843589B0120A8
:106450000800000000000000A896012010000000C5
:1064600000000000F0940120460000000000000041
:10647000609B01200400000000000000A4910120A6
:106480005000000000000000649B01200800000094
:1064900000000000BC9D012004000000010000007D
:1064A0000000000000000000000000006666666654
:0464B0006666666650
:106F540038B50446D4485A230370A5234370072345
:106F640083708223C3701423037102234371D4F802
:106F740000311A0E82711A0CC2711A0A027243721B
:106F8400CA4B4FF400229A610A212AF0A9F92FF082
:106F94003FFF0028FBD0C54B4FF400225A61C24882
:106FA4005A210170A5214170052181708221C1708F
:106FB400142101710621417100218171B4F81E115F
:106FC400C1719A6108212AF08BF92FF021FF002862
:106FD400FBD0B64B4FF400225A61B3485A210170DA
:106FE400A5214170052181708221C1701421017194
:106FF4000821417100258571D4F80451C5719A6145
:107004002AF06EF92FF004FF0028FBD0A74A4FF4B2
:1070140000215161A4485A230370A523437005231A
:1070240083708223C370142303710A2343710023E2
:107034008371D4F804311B0AC371916108212AF0C9
:107044004FF92FF0E5FE0028FBD0984B4FF40022B7
:107054005A6195485A210170A5214170052181701A
:107064008221C170142101710C21417100218171AF
:10707400B4F80611C1719A6108212AF031F92FF090
:10708400C7FE0028FBD0894B4FF400225A61864882
:107094005A210170A5214170052181708221C1709E
:1070A400142101710E21417100218171B4F80E1176
:1070B400C1719A6108212AF013F92FF0A9FE002862
:1070C400FBD07A4A4FF40021516177485A23037068
:1070D400A5234370052383708223C3701423037193
:1070E4001023437100238371D4F80C311B0AC3713C
:1070F400916108212AF0F4F82FF08AFE0028FBD0D1
:107104006A4B4FF400225A6167485A210170A52145
:107114004170052181708221C170142101711221F5
:10712400417100218171D4F80C11C1719A61082157
:107134002AF0D6F82FF06CFE0028FBD05B4A4FF4FF
:107144000021516158485A230370A5234370072333
:1071540083708223C3701423037116234371D4F8FC
:1071640020311D0E85711D0CC5711D0A05724372F7
:1071740091610A212AF0B4F82FF04AFE0028FBD0CE
:107184004A4B4FF400225A6147485A210170A52105
:107194004170052181708221C170142101711A216D
:1071A400417100218171B4F83E11C1719A610821C5
:1071B4002AF096F82FF02CFE0028FBD03B4B4FF41E
:1071C40000225A6138485A210170A52141700521D5
:1071D40081708221C170142101711C21417100212F
:1071E4008171D4F82411C1719A6108212AF078F8C8
:1071F4002FF00EFE0028FBD02C4A4FF400215161E1
:1072040029485A230370A5234370052383708223DE
:10721400C370142303711E23437100238371D4F8B4
:1072240024311B0AC371916108212AF059F82FF007
:10723400EFFD0028FBD01D4B4FF400225A611A4881
:107244005A210170A5214170052181708221C170EC
:10725400142101712021417100218171B4F826119A
:10726400C1719A6108212AF03BF82FF0D1FD002862
:10727400FBD00E4B4FF400225A610B485A21017087
:10728400A5214170052181708221C17014210171F1
:107294002221417100218171B4F82E11C1719A61CA
:1072A40008212AF01DF803E0189501200080004110
:1072B4002FF0AEFD0028FBD0D54A4FF400215161D8
:1072C400D4485A230370A523437005238370822373
:1072D400C370142303712423437100238371D4F8EE
:1072E4002C311B0AC3719161082129F0F9FF2FF099
:1072F4008FFD0028FBD0C64B4FF400225A61C548CD
:107304005A210170A5214170052181708221C1702B
:10731400142101712621417100218171D4F82C11AD
:10732400C1719A61082129F0DBFF2FF071FD00285B
:10733400FBD0B74A4FF400215161B6485A23037079
:10734400A5234370072383708223C370142303711E
:107354002A234371D4F840311D0E85711D0CC5716B
:107364001D0A0572437291610A2129F0B9FF2FF0B9
:107374004FFD0028FBD0A64B4FF400225A61A548CC
:107384005A210170A5214170052181708221C170AB
:10739400142101712E21417100218171B4F85E1113
:1073A400C1719A61082129F09BFF2FF031FD00285B
:1073B400FBD0974B4FF400225A6196485A21017032
:1073C400A5214170052181708221C17014210171B0
:1073D4003021417100218171D4F84411C1719A6145
:1073E400082129F07DFF2FF013FD0028FBD0884AE7
:1073F4004FF40021516187485A230370A523437039
:10740400052383708223C3701423037132234371D1
:1074140000238371D4F844311B0AC371916108219C
:1074240029F05EFF2FF0F4FC0028FBD0784B4FF4DA
:1074340000225A6177485A210170A5214170052123
:1074440081708221C17014210171342141710021A4
:107454008171B4F84611C1719A61082129F040FF85
:107464002FF0D6FC0028FBD0694B4FF400225A6160
:1074740068485A210170A52141700521817082213B
:10748400C170142101713621417100218171B4F858
:107494004E11C1719A61082129F022FF2FF0B8FC26
:1074A4000028FBD05A4A4FF40021516159485A230D
:1074B4000370A5234370052383708223C3701423B0
:1074C40003713823437100238371D4F84C311B0AB0
:1074D400C3719161082129F003FF2FF099FC002862
:1074E400FBD04B4B4FF400225A614A485A21017099
:1074F400A5214170052181708221C170142101717F
:107504003A21417100218171D4F84C11C1719A6101
:10751400082129F0E5FE2FF07BFC0028FBD03C4A33
:107524004FF4002151613B485A230370A523437053
:10753400072383708223C370142303714023437190
:10754400D4F860311D0E85711D0CC5711D0A0572BC
:10755400437291610A2129F0C3FE2FF059FC0028DF
:10756400FBD02B4B4FF400225A612A485A21017058
:10757400A5214170052181708221C17014210171FE
:107584004421417100218171B4F87E11C1719A6165
:10759400082129F0A5FE2FF03BFC0028FBD01C4B52
:1075A4004FF400225A611B485A210170A5214170F1
:1075B400052181708221C17014210171462141711C
:1075C40000218171D4F86411C1719A61082129F0F4
:1075D40087FE2FF01DFC0028FBD00D4A4FF400213C
:1075E40051610C485A230370A5234370052383700B
:1075F4008223C370142303714823437100238371CE
:10760400D4F864311B0AC3719161082104E000BFFE
:10761400008000411895012029F062FE2FF0F8FB4C
:107624000028FBD0D54B4FF400225A61D4485A218C
:107634000170A5214170052181708221C17014213E
:1076440001714A21417100218171B4F86611C1713F
:107654009A61082129F044FE2FF0DAFB0028FBD0C0
:10766400C64B4FF400225A61C5485A210170A52126
:107674004170052181708221C170142101714C2156
:10768400417100218171B4F86E11C1719A610821B0
:1076940029F026FE2FF0BCFB0028FBD0B74A4FF49C
:1076A40000215161B6485A230370A5234370052372
:1076B40083708223C370142303714E234371002308
:1076C4008371D4F86C311B0AC3719161082129F0CC
:1076D40007FE2FF09DFB0028FBD0A84B4FF400229F
:1076E4005A61A7485A210170A52141700521817072
:1076F4008221C170142101715021417100218171D5
:10770400D4F86C11C1719A61082129F0E9FD2FF0B8
:107714007FFB0028FBD0994A4FF40021516198481F
:107724005A230370A5234370072383708223C370F5
:107734001423037156234371D4F880311D0E8571CF
:107744001D0CC5711D0A0572437291610A2129F04D
:10775400C7FD2FF05DFB0028FBD0884B4FF40022BF
:107764005A6187485A210170A52545700525857001
:107774008225C57014250571417100218171B4F809
:107784009E11C1719A61082129F0AAFD2FF040FBD6
:107794000028FBD0794B4FF400225A6178485A21D3
:1077A4000170A5214170052181708221C1701421CD
:1077B40001715C21417100218171D4F88411C1717E
:1077C4009A61082129F08CFD2FF022FB0028FBD0C0
:1077D4006A4A4FF40021516169485A230370A52372
:1077E4004370052383708223C370142303715E23C3
:1077F400437100238371D4F884311B0AC3719161EE
:10780400082129F06DFD2FF003FB0028FBD05B4B12
:107814004FF400225A615A485A210170A52141703F
:10782400052181708221C17014210171602141718F
:1078340000218171B4F88611C1719A61082129F07F
:107844004FFD2FF0E5FA0028FBD04C4B4FF40022FB
:107854005A614B485A210170A5214170052181705C
:107864008221C17014210171622141710021817151
:10787400B4F88E11C1719A61082129F031FD2FF0FD
:10788400C7FA0028FBD03D4A4FF4002151613C481F
:107894005A230370A5234370052383708223C37086
:1078A400142303716423437100238371D4F88C314E
:1078B4001B0AC3719161082129F012FD2FF0A8FA67
:1078C4000028FBD02D4B4FF400225A612C485A213A
:1078D4000170A5214170052181708221C17014219C
:1078E40001716621417100218171D4F88C11C1713B
:1078F4009A61082129F0F4FC2FF08AFA0028FBD0C1
:107904001E4A4FF4002151611D485A230370A523D8
:107914004370072383708223C370142303716C2381
:107924004371D4F8A0311D0E85711D0CC5711D0A5B
:107934000572437291610A2129F0D2FC2FF068FA92
:107944000028FBD00D4B4FF400225A610C485A21F9
:107954000170A5214170052181708221C17014211B
:1079640001717021417100218171B4F8BE11C1719E
:107974009A61082129F0B4FC04E000BF00800041B2
:10798400189501202FF044FA0028FBD0D44B4FF473
:1079940000225A61D3485A210170A5214170052162
:1079A40081708221C1701421017172214171002101
:1079B4008171D4F8A411C1719A61082129F090FC55
:1079C4002FF026FA0028FBD0C54A4FF4002151615C
:1079D400C4485A230370A52343700523837082236C
:1079E400C370142303717423437100238371D4F887
:1079F400A4311B0AC3719161082129F071FC2FF095
:107A040007FA0028FBD0B64B4FF400225A61B54860
:107A14005A210170A5214170052181708221C17014
:107A2400142101717621417100218171B4F8A611EC
:107A3400C1719A61082129F053FC2FF0E9F900285B
:107A4400FBD0A74B4FF400225A61A6485A2101707B
:107A5400A5214170052181708221C1701421017119
:107A64007821417100218171B4F8AE11C1719A611C
:107A7400082129F035FC2FF0CBF90028FBD0984AD7
:107A84004FF40021516197485A230370A523437092
:107A9400052383708223C370142303717A234371F3
:107AA40000238371D4F8AC311B0AC371916108219E
:107AB40029F016FC2FF0ACF90028FBD0884B4FF4CA
:107AC40000225A6187485A210170A521417005217D
:107AD40081708221C170142101717C2141710021C6
:107AE4008171D4F8AC11C1719A61082129F0F8FBB5
:107AF4002FF08EF90028FBD0794A4FF40021516110
:107B040078485A230370A523437007238370822384
:107B1400C3701423037180234371D4F8C0311D0E44
:107B240085711D0CC5711D0A0572437291610A218C
:107B340029F0D6FB2FF06CF90028FBD0684B4FF4EA
:107B440000225A6167485A210170A521417005211C
:107B540081708221C170142101718421417100213D
:107B64008171B4F8DE11C1719A61082129F0B8FB62
:107B74002FF04EF90028FBD0594B4FF400225A61E4
:107B840058485A210170A521417005218170822134
:107B9400C170142101718621417100218171D4F8D1
:107BA400C411C1719A61082129F09AFB2FF030F9B0
:107BB4000028FBD04A4A4FF40021516149485A2316
:107BC4000370A5234370052383708223C370142399
:107BD40003718823437100238371D4F8C4311B0AD1
:107BE400C3719161082129F07BFB2FF011F9002862
:107BF400FBD03B4B4FF400225A613A485A210170A2
:107C0400A5214170052181708221C1701421017167
:107C14008A21417100218171B4F8C611C1719A6140
:107C2400082129F05DFB2FF0F3F80028FBD02C4B42
:107C34004FF400225A612B485A210170A52141704A
:107C4400052181708221C170142101718C2141713F
:107C540000218171B4F8CE11C1719A61082129F013
:107C64003FFB2FF0D5F80028FBD01D4A4FF400212C
:107C740051611C485A230370A52343700523837064
:107C84008223C370142303718E23437100238371F1
:107C9400D4F8CC311B0AC3719161082129F020FB6F
:107CA4002FF0B6F80028FBD00D4B4FF400225A6198
:107CB4000C485A210170A52141700521817082214F
:107CC400C170142101719021417100218171D4F896
:107CD400CC11C1719A61082129F002FB04E000BFB4
:107CE40000800041189501202FF092F80028FBD065
:107CF4007D4A4FF4002151617C485A230370A52327
:107D04004370072383708223C37014230371942365
:107D14004371D4F8E0311D0E85711D0CC5711D0A27
:107D24000572437291610A2129F0DAFA2FF070F892
:107D34000028FBD06C4B4FF400225A616B485A2147
:107D44000170A5214170052181708221C170142127
:107D540001719821417100218171B4F8FE11C17142
:107D64009A61082129F0BCFA2FF052F80028FBD0C0
:107D74005D4B4FF400225A615C485A210170A521E1
:107D84004170052181708221C170142101719A21F1
:107D9400417100218171D4F8E411C1719A61082103
:107DA40029F09EFA2FF034F80028FBD04E4A4FF405
:107DB400002151614D485A230370A52343700523C4
:107DC40083708223C370142303719C2343710023A3
:107DD4008371D4F8E4311B0AC3719161082129F03D
:107DE4007FFA2FF015F80028FBD03F4B4FF4002208
:107DF4005A613E485A210170A521417005218170C4
:107E04008221C170142101719E214171002181716F
:107E1400B4F8E611C1719A61082129F061FA2EF0D3
:107E2400F7FF0028FBD0304B4FF400225A612F4853
:107E34005A210170A5214170052181708221C170F0
:107E440014210171A021417100218171B4F8EE1156
:107E5400C1719A61082129F043FA2EF0D9FF002854
:107E6400FBD0214A4FF40021516120485A2303706A
:107E7400A5234370052383708223C37014230371E5
:107E8400A223437100238371D4F8EC311B0AC3711C
:107E94009161082129F024FA2EF0BAFF0028FBD0C2
:107EA400114B4FF400225A6110485A210170A52148
:107EB4004170052181708221C17014210171A421B6
:107EC400417100218171D4F8EC11C1719A610821CA
:107ED40029F006FA2EF09CFF0028FBD0024B4FF449
:107EE40000225A6138BD00BF00800041189501206E
:107EF40038B50446D4485A230370A5234370072396
:107F040083708223C3701423037102234371D4F852
:107F140000311A0E82711A0CC2711A0A027243726B
:107F2400CA4B4FF400229A610A2129F0D9F92EF0A4
:107F34006FFF0028FBD0C54B4FF400225A61C248A2
:107F44005A210170A5214170052181708221C170DF
:107F5400142101710621417100218171B4F81E11AF
:107F6400C1719A61082129F0BBF92EF051FF002854
:107F7400FBD0B64B4FF400225A61B3485A2101702A
:107F8400A5214170052181708221C17014210171E4
:107F94000821417100258571D4F80451C5719A6195
:107FA40029F09EF92EF034FF0028FBD0A74A4FF4A5
:107FB40000215161A4485A230370A523437005236B
:107FC40083708223C370142303710A234371002333
:107FD4008371D4F804311B0AC3719161082129F01B
:107FE4007FF92EF015FF0028FBD0984B4FF40022A8
:107FF4005A6195485A210170A5214170052181706B
:108004008221C170142101710C21417100218171FF
:10801400B4F80611C1719A61082129F061F92EF0B2
:10802400F7FE0028FBD0894B4FF400225A618648A2
:108034005A210170A5214170052181708221C170EE
:10804400142101710E21417100218171B4F80E11C6
:10805400C1719A61082129F043F92EF0D9FE002854
:10806400FBD07A4A4FF40021516177485A230370B8
:10807400A5234370052383708223C37014230371E3
:108084001023437100238371D4F80C311B0AC3718C
:108094009161082129F024F92EF0BAFE0028FBD0C2
:1080A4006A4B4FF400225A6167485A210170A52196
:1080B4004170052181708221C17014210171122146
:1080C400417100218171D4F80C11C1719A610821A8
:1080D40029F006F92EF09CFE0028FBD05B4A4FF4F1
:1080E4000021516158485A230370A5234370072384
:1080F40083708223C3701423037116234371D4F84D
:1081040020311D0E85711D0CC5711D0A0572437247
:1081140091610A2129F0E4F82EF07AFE0028FBD0C0
:108124004A4B4FF400225A6147485A210170A52155
:108134004170052181708221C170142101711A21BD
:10814400417100218171B4F83E11C1719A61082115
:1081540029F0C6F82EF05CFE0028FBD03B4B4FF410
:1081640000225A6138485A210170A5214170052125
:1081740081708221C170142101711C21417100217F
:108184008171D4F82411C1719A61082129F0A8F8E9
:108194002EF03EFE0028FBD02C4A4FF40021516102
:1081A40029485A230370A52343700523837082232F
:1081B400C370142303711E23437100238371D4F805
:1081C40024311B0AC3719161082129F089F82EF02A
:1081D4001FFE0028FBD01D4B4FF400225A611A48A1
:1081E4005A210170A5214170052181708221C1703D
:1081F400142101712021417100218171B4F82611EB
:10820400C1719A61082129F06BF82EF001FE002853
:10821400FBD00E4B4FF400225A610B485A210170D7
:10822400A5214170052181708221C1701421017141
:108234002221417100218171B4F82E11C1719A611A
:10824400082129F04DF803E0189501200080004131
:108254002EF0DEFD0028FBD0D54A4FF400215161F9
:10826400D4485A230370A5234370052383708223C3
:10827400C370142303712423437100238371D4F83E
:108284002C311B0AC3719161082129F029F82EF0C1
:10829400BFFD0028FBD0C64B4FF400225A61C548ED
:1082A4005A210170A5214170052181708221C1707C
:1082B400142101712621417100218171D4F82C11FE
:1082C400C1719A61082129F00BF82EF0A1FD002854
:1082D400FBD0B74A4FF400215161B6485A230370CA
:1082E400A5234370072383708223C370142303716F
:1082F4002A234371D4F840311D0E85711D0CC571BC
:108304001D0A0572437291610A2128F0E9FF2EF0DB
:108314007FFD0028FBD0A64B4FF400225A61A548EC
:108324005A210170A5214170052181708221C170FB
:10833400142101712E21417100218171B4F85E1163
:10834400C1719A61082128F0CBFF2EF061FD00284D
:10835400FBD0974B4FF400225A6196485A21017082
:10836400A5214170052181708221C1701421017100
:108374003021417100218171D4F84411C1719A6195
:10838400082128F0ADFF2EF043FD0028FBD0884AD9
:108394004FF40021516187485A230370A523437089
:1083A400052383708223C370142303713223437122
:1083B40000238371D4F844311B0AC37191610821ED
:1083C40028F08EFF2EF024FD0028FBD0784B4FF4CC
:1083D40000225A6177485A210170A5214170052174
:1083E40081708221C17014210171342141710021F5
:1083F4008171B4F84611C1719A61082128F070FFA7
:108404002EF006FD0028FBD0694B4FF400225A6180
:1084140068485A210170A52141700521817082218B
:10842400C170142101713621417100218171B4F8A8
:108434004E11C1719A61082128F052FF2EF0E8FC18
:108444000028FBD05A4A4FF40021516159485A235D
:108454000370A5234370052383708223C370142300
:1084640003713823437100238371D4F84C311B0A00
:10847400C3719161082128F033FF2EF0C9FC002854
:10848400FBD04B4B4FF400225A614A485A210170E9
:10849400A5214170052181708221C17014210171CF
:1084A4003A21417100218171D4F84C11C1719A6152
:1084B400082128F015FF2EF0ABFC0028FBD03C4A25
:1084C4004FF4002151613B485A230370A5234370A4
:1084D400072383708223C3701423037140234371E1
:1084E400D4F860311D0E85711D0CC5711D0A05720D
:1084F400437291610A2128F0F3FE2EF089FC0028D2
:10850400FBD02B4B4FF400225A612A485A210170A8
:10851400A5214170052181708221C170142101714E
:108524004421417100218171B4F87E11C1719A61B5
:10853400082128F0D5FE2EF06BFC0028FBD01C4B44
:108544004FF400225A611B485A210170A521417041
:10855400052181708221C17014210171462141716C
:1085640000218171D4F86411C1719A61082128F045
:10857400B7FE2EF04DFC0028FBD00D4A4FF400212D
