:020000040000fa
:10000000f0ff0320a9cc0200f3d302001fd70200a7
:1000100083e70200abfe02000311030000000000b2
:10002000000000000000000000000000c10f0300fd
:1000300063e2020000000000d1da0200290303009d
:1000400023170300231703002317030023170300bc
:1000500023170300231703002317030023170300ac
:10006000231703002317030023170300231703009c
:1000700023170300051103002511030023170300b4
:1000800023170300451103006511030085110300c8
:10009000510f0300750f0300990f03006d0c03004f
:1000a000950c0300231703002317030023170300f5
:1000b000231703002317030023170300231703004c
:1000c000231703002317030023170300231703003c
:1000d000231703002317030023170300231703002c
:1000e0002317030023170300000000000000000096
:1000f0000000000023170300231703002317030049
:1001000023170300231703002317030023170300fb
:100110002317030023170300ade00200ade0020047
:10012000ade00200ade00200b9a70200b9a70200ed
:10013000b9a70200b9a702008dde02008dde020021
:100140008dde02008dde0200fddf0200fddf020019
:10015000fddf0200fddf020055e0020055e0020075
:1001600055e0020055e0020005e1020005e1020051
:1001700005e1020005e10200b5c0020045c202002f
:10018000231703002317030023170300231703007b
:1001900000000000231703002317030023170300a8
:1001a000231703002317030023170300231703005b
:1001b000231703002317030023170300231703004b
:1001c000231703002317030023170300231703003b
:1001d000231703002317030023170300231703002b
:1001e000231703002317030023170300231703001b
:1001f000231703002317030023170300231703000b
:1002000023170300231703002317030023170300fa
:1002100023170300231703002317030023170300ea
:1002200023170300231703002317030023170300da
:1002300023170300231703002317030023170300ca
:1002400023170300231703002317030023170300ba
:1002500023170300231703002317030023170300aa
:020000040000fa
:10026000f8b500bff8bc08bc9e4670479ded020083
:10027000f8b500bff8bc08bc9e46704779ed020097
:020000040000fa
:08028000dc7f02000100000018
:020000040000fa
:100288002de9f04ff7b000247494759472948df8aa
:10029800cc41adf8c4416f9470946e946b946c9497
:1002a8008df8b4416994cdf8a74166946794689431
:1002b80063946494659460946194629459945a9494
:1002c8005b945c945d945e945f94559456945794b3
:1002d800adf860414f945094519452945394cdf892
:1002e8004f419022214616a831f072f914941594c2
:1002f8001e22214604a831f06bf9b34fb34cdff846
:100308002c83dff82ca3dff82c93dff82cb32de235
:10031800af4b18682cf0befa0025aaf80050a9f8cf
:100328000050ac4b1d70ac4b1d802a4674a9ab4bda
:1003380018682bf04dfb2a4672a9a94b18682bf0b8
:1003480047fb2a4671a9a74b18682bf041fb9df87b
:10035800d731012b40f0d4819df8ca31002b40f0f1
:10036800cf819df8c9316d2b26d89df8c931632bf3
:1003780000f2c6819c4e669640238df8a2319b4db3
:100388000023642266a928682bf072f94ff47a706a
:100398002ff0d2fc669600238df87e318df8a231bd
:1003a800642266a928682bf063f964202ff0c4fc46
:1003b8008f4b01221a70a3e18e4b1d608e4b1d607e
:1003c800894b669340238df8a231884e2b466422d0
:1003d80066a930682bf04cf94ff47a702ff0acfc1a
:1003e800814b66938df87e518df8a2512b4664227d
:1003f80066a930682bf03cf964202ff09dfc7c4bfb
:1004080001221a700c2388f80030aee77b4b639307
:1004180000258df890512b46642263a9784800681e
:100428002bf026f964202ff087fc764b6093012689
:100438008df85a618df884618df85b518df885517e
:100448008df85c518df886512b46642260a96e4860
:1004580000682bf00df964202ff06efc624b669358
:100468008df87c618df89d612b46642266a95f48f2
:1004780000682bf0fdf864202ff05efc2a4671a975
:10048800584b18682bf0a4fa9df8c431b34240f0d9
:100498003781574b02221a7032e1534d669540233b
:1004a8008df8a231514e0023642266a930682bf0e2
:1004b800dff84ff47a702ff03ffc669500258df831
:1004c8007e518df8a2512b46642266a930682bf024
:1004d800cff864202ff030fc2a4672a9404b1868e8
:1004e8002bf076fa002800f00b819df8c931503bbb
:1004f800dbb21d2b25d99df8c9316d2b0dd9434b86
:100508001b78002b00f09a80414b00221a700c23b4
:1005180088f8003001202df0c7ff3e4b1b681e2bca
:1005280040f3ee803b4b00221a60384b1b7823b90e
:10053800394b4ff48032c3f898202d4b00221a70a3
:10054800dee002202df0b0ff334b4ff48032c3f8c9
:100558009420092388f800302d4b01221a70254b6e
:100568001b6893420ed02d4b1b78022b18d0214bc1
:100578001b6813b91e4b03221a70264a13680133ed
:100588001360b8e72a468df83c5002230fa9244887
:1005980000682bf06df8234b18682cf07bf9e2e724
:1005a8001e4b5b78012be2d1114b03221a700022fb
:1005b8008df84020022310a91b4800682bf058f83a
:1005c8000d4b01221a60d2e7e1990120e49801203d
:1005d800c0970120009a01203e950120989801209b
:1005e8009c980120c098012002c4ec156098012055
:1005f800b5990120289901203099012001c4ec15f2
:100608004498012002d4ec1534980120d199012096
:10061800d69901201499012000800041bc9901203d
:10062800549701203c97012060970120a999012047
:10063800c8990120cc990120df990120b64b4ff4cd
:100648008032c3f898204ff6ff702ef0d1fc0023bb
:10065800b24a1360b24a1360b24b1b78002b7ff486
:1006680053afb04b01221a70af4b18782df0f8f940
:100678004ae70025ad4b1d60ad4b639308238df809
:100688003f318df893312b46642263a9a94800684d
:100698002af0eeff4ff47a702ff04efba64e6696c6
:1006a8008df87d518df8a0518df87e518df8a251ad
:1006b8008df87f518df8a3512b46642266a99f4877
:1006c80000682af0d5ff4ff47a702ff035fb2a46e0
:1006d80071a99b4b18682bf07bf9669602238df85d
:1006e8007c318df89d312b46642266a993480068b9
:1006f8002af0beff64202ff01ffb924b04221a70d1
:1007080098f800308df84d30baf80020adf84a203e
:10071800b9f80020adf848209bf800208df84e204d
:100728003a788df84c208df844300223002212a923
:10073800854800682af09cff0223002211a98348fb
:1007480000682af095ff2368012b0bd10023236052
:100758007c4a13707e4b18682cf09cf87d4b186807
:100768002bf0d8fb4ff448702ff0e6fa00220ca9c2
:10077800794b18682bf02cf928b1784a9df830305d
:1007880011880b4413806f4b1b78dbb21e2bb7d834
:1007980001a252f823f000bf19030000150400005d
:1007a800a30400007b0600001d08000009070000e4
:1007b8009108000009070000090700000907000068
:1007c80009070000090700000907000009070000e1
:1007d80009070000090700000b0a000009070000cc
:1007e800350b0000610d0000310e00000907000004
:1007f800b5100000090700000907000009070000fc
:1008080009070000090700000907000009070000a0
:100818005d1a0000002272a9514b18682bf0d8f815
:10082800002271a9464b18682bf0d2f89df8ca31fe
:10083800012b1fd09df8c431fa2b02d0fc2b00d01d
:1008480013b9404b00221a709df8c9316d2b7ff601
:1008580057af444b1b7823b92f4b4ff48032c3f862
:1008680098200023404a13700c2288f80020354a4b
:10087800137045e79df8c931503bdbb21d2bd9d821
:10088800304b06221a70d5e70022264b1a7071a940
:100898002b4b18682bf09cf89df8c431312b0ed9de
:1008a8001e4b1b68012b28d0002b41f01a82002216
:1008b80069a92e4b18682bf08bf800285ad19df89f
:1008c800c431fa2b02d0fc2b00d053b9134a12685a
:1008d800012a19d02ab91b4a002111700f4a012197
:1008e80011600a2b7ff40caf214b1b780133dbb26c
:1008f800f02b76d01e4a137002e7124b10221a70a2
:100908009df8c431fa2bded10e4a00211170034a3a
:1009180001211160e5e700bf00800041289901200e
:10092800309901200c9a0120679a0120149901201e
:1009380001c4ec154498012002c4ec15609801200c
:10094800c0980120b59901205097012010970120e7
:100958008c9701204c980120889701203e95012012
:100968009c980120d1990120d6990120a8980120ae
:10097800189a01209df8a4318df834309df8a531de
:100988008df835309df8a6318df836309df8a731b1
:100998008df837309df8a8318df838309df8a93199
:1009a8008df83930022300220da9524800682af038
:1009b8005ffe9df83430002b81d04f4b01221a6026
:1009c8004e4b10221a7002238df83c3000220fa9da
:1009d8004b4800682af04cfe4a4b18682bf05aff27
:1009e8006de70023484a1370444a1370474b40f29e
:1009f80033121a80464b02221a7011202df030f85b
:100a08007ee6414b00221a70424b1b686bbb424b7f
:100a18001b78022b2dd1404b5b78012b29d1154631
:100a28008df84020022310a93c4800682af020fed7
:100a38003b4b669301238df87e318df8a2312b460e
:100a4800642266a9374800682af012fe64202ff055
:100a580073f92a4671a9344b18682af0b9ff274b55
:100a680012221a700e202cf0fbff2a4b1b68012b58
:100a780022d0002271a92c4b18682af0a9ff9df8f2
:100a8800c431fa2b04d0fc2b02d0002b7ff438aef3
:100a98001a4b00221a70184b01221a601b4b4ff494
:100aa8009a721a801a4b02221a7006202ff0e8fc5c
:100ab80011202cf0d5ff23e6194b669301238df8fe
:100ac8007e318df8a2310023642266a9154800689a
:100ad8002af0cefd64202ff02ff9002271a9124bc5
:100ae80018682af075ff054b12221a700e202cf098
:100af800b7ffbee75897012028990120b599012032
:100b0800549701203c970120189a01207e960120d5
:100b1800e599012030990120bc99012060970120b6
:100b280002c4ec1560980120c09801200123a84a4e
:100b38001360a84a4ff40011c2f8181100224c9211
:100b4800a54a4d928df8383102238df839310022ab
:100b58004ca9a24800682af08bfda14b18682bf01d
:100b680099fe00226fa99f4b18682af031ff0028d0
:100b780000f0d7809df8bc319df8bd2102eb03221f
:100b8800994981fb0232931007ee903af8eee77a22
:100b98009df8be219df8bf3103eb022381fb03239f
:100ba8009b1007ee103ab8eec77abdeec77a17ee7b
:100bb800103a8e4a92fbf3f303eb83035b0007eed4
:100bc800103ab8eec77a8a4b83ed007ab2ee047a0f
:100bd80067ee877a93ed007af4eec77af1ee10fab1
:100be80048bfc3ed007a834b669300258df8a25168
:100bf8002b46642266a9804800682af039fd6420e3
:100c08002ff09af87d4b6393794ad2ed007afcee87
:100c1800e77a17ee903a8df89031d2ed007afcee33
:100c2800e77a17ee903ac3f307238df89131e02362
:100c38008df892312e238df893314ff010028df8f4
:100c4800942127238df8953114268df896618df817
:100c580097512b46642263a9694800682af008fd69
:100c68004ff496702ff068f88df890618df89151d7
:100c7800c8238df892318df893518df894618df8d1
:100c8800955164268df896618df897515d4b639365
:100c98002b46324663a95a4800682af0e9fc4ff40b
:100ca80096702ff049f802238df87e318df8a23125
:100cb800504b66932b46324666a94f4800682af087
:100cc800d7fc30462ff038f810202cf0c9fe2a4601
:100cd80071a94d4b18682af07bfe9df8c421a2f13a
:100ce8005b03dbb2092b08d8484b13221a70394b27
:100cf8004ff48012c3f8142113e0fa2a01d0fc2a19
:100d080027d1424b00221a70414b40f235121a800b
:100d1800404b02221a7008202ff0b2fb11202cf051
:100d28009ffe00250d95adf8385002232a460da9df
:100d3800394800682af09cfc8df83c5002232a466a
:100d48000fa9364800682af093fc354b1d809d702a
:100d5800d6e4002ad5d0e4e7002272a9314b1868fe
:100d68002af036fe9df8c931312b7ff6c9ac194bf4
:100d7800d3f8203113f0807f19d101238df87d310c
:100d88008df8a0310c238df87e318df8a231194be6
:100d980066930023642266a9174800682af068fc55
:100da80064202ef0c9ff194b14221a70a8e4174bbf
:100db80000221a70164b40f235121a80154b022287
:100dc8001a7007202ff05cfb11202cf049fe97e4e5
:100dd800309901200080004100004843f497012029
:100de800f8970120b098012067666666c0d40100b4
:100df800cc97012002c4ec156098012003c4ec15bf
:100e08004498012004c0ec15c0980120b599012030
:100e18007e960120e59901205897012054970120da
:100e2800bc9901209c98012000226ea9854b186866
:100e38002af0cefd9df8b8319df8b92102eb0322c6
:100e4800814981fb0232921007ee902af8eee77a88
:100e58007e4bc3ed007a9df8ba219df8bb3103ebb8
:100e6800022381fb03239b1007ee103ab8eec77ae2
:100e7800774b83ed007a4ff080434c93cded4d7a5c
:100e880001238df8383102238df8393100224ca91d
:100e9800704800682af0ecfb6f4b18682bf0fafcde
:100ea8009df8b9318df89c319df8b8318df89d3198
:100eb8009df8bb318df89e319df8ba318df89f3180
:100ec800664b66930023642266a9654800682af089
:100ed800cffb64202ef030ff12202cf0c1fd002241
:100ee80071a9604b18682af073fd00283ff408ac1c
:100ef8009df8c431782b1ad09df8c431fa2b04d050
:100f0800fc2b02d0002b7ff4fbab574b1e221a7030
:100f1800564b4ff49b721a80554b02221a700820c8
:100f28002ff0aefa11202cf09bfdfff7e9bb514bd7
:100f38001e6830f09bfb4ef66025009500230246a4
:100f4800012130462df040fc4b4b1e6830f08efbe3
:100f5800009500230246012130462df035fc474b11
:100f68001e6830f083fb00950023024601213046bd
:100f78002df02afc424b1e6830f078fb00950023c8
:100f88000246012130462df01ffc3e4b1e6830f012
:100f98006dfb009500230246012130462df014fc1c
:100fa800394b1e6830f062fb009500230246012190
:100fb80030462df009fc2c4b16221a70334b18784a
:100fc8002ef090fc64202ef0b7fe314d28782ef0dc
:100fd800a5fc64202ef0b0fe2e4e30882ef0bafc10
:100fe80064202ef0a9fe2c4908782ef0ebfc642032
:100ff8002ef0a2fe294800782ef0c8fc64202ef0be
:101008009bfe274a10782ef0f9fc64202ef094feff
:10101800244b1a68244b1a6031882b781b4a1278a3
:101028001b0243ea014313433d931c4801781a4bc2
:101038001b781b4a12781b0243ea014313433e9371
:101048005ae700bfb8980120676666669499012040
:10105800f4980120f4970120f897012005c4ec15b5
:1010680060980120c0980120b59901207e96012042
:10107800e5990120d89801205c9901206099012008
:10108800649901206899012098970120f19901201d
:101098000a9a01205a8d0120099a0120fa99012003
:1010a800169a0120b89701202098012047f2305065
:1010b8002df09eff03202df0f7f9524b18882ef0e3
:1010c80069fb514b1b78072b00f0978000226ea913
:1010d8004e4b18682af07cfc002840f0b78064204a
:1010e8002ef02afe9df8b9318df89c319df8b83163
:1010f8008df89d319df8bb318df89e319df8ba3140
:101108008df89f31424b66930023642266a94148bb
:1011180000682af0adfa64202ef00efe00226ba9ba
:101128003d4b18682af054fca0b13c4a13789df84e
:10113800ae013b49c854062188f8001001331370ea
:10114800314b1b78042b40f28a832f4b1b78052bdd
:1011580000f09083334b1b78052b00f093832f4bc3
:101168001b78052b00f008842f4b1b782bb92f4bcd
:101178001b78dbb2012b00f01e842b4b1b78dbb2f3
:10118800012b00f023849df8c431292b03d0fa2bbe
:1011980001d0fc2b12d1264b1e221a70092388f885
:1011a8000030244bca221a80234b02221a700a20cc
:1011b8002ff066f9214b1a68214b1a609df8ac3163
:1011c800012b00f01a841f4b1b78022b7ff498aa7e
:1011d8001c4b9b78012b7ff493aa154b1e221a7087
:1011e800092388f80030174b00221a809a70134b95
:1011f8001a68134b1a60fff783ba134b18782ef04e
:10120800d1ff63e73e950120009a0120b89801209c
:1012180005c4ec1560980120b4980120fd990120bf
:1012280080960120059a0120d1990120d6990120a4
:10123800b59901207e960120e5990120b8970120f3
:1012480028980120bc990120b99901209df8ba215c
:101258009df8bb3103eb0223c34a82fb03139b08af
:1012680007ee903af8ee677ac04bc3ed007a9df826
:10127800b8119df8b93103eb012382fb03239b08c6
:1012880007ee103ab8ee477ab94b83ed007a17eebd
:10129800900a2ef0d3fd02460b46b64904a830f05a
:1012a8002ff81e2104a82cf0a1f830f031f90028fd
:1012b800fbd0ae4bd3ed007aad4bd3ed006a27eef1
:1012c800a67aad4b83ed007aac4b1b78002b40f02f
:1012d8008780ab4b1a68ab4b1a6093ed006ab4ee8b
:1012e800c67af1ee10fa34d5a74b1b7833bb9fedc5
:1012f800a77a76ee876acded4d6aa24b93ed006a28
:10130800a34bd3ed006a86ee267af4eec77af1eea7
:1013180010fac0f28880f5ee007a27ee277a8ded74
:101328004c7a03238df8393101238df838310223a3
:1013380000224ca9974800682af09af9924b1b782a
:10134800dbb2012b7cd0904b1b78dbb2012b00f079
:10135800be808c4bd3ed007a874b93ed007ab4eec8
:10136800e77af1ee10fa3bdd874b1b7863bb804bc5
:10137800d3ed007a9fed857a77ee877acded4d7ab9
:10138800804bd3ed006a824bd3ed007a86eea77ac4
:10139800764bd3ed007ab4eee77af1ee10fa00f26c
:1013a800d580f5ee007a27ee277a8ded4c7a032367
:1013b8008df8393101238df83831022300224ca9e8
:1013c800744800682af054f96f4b1b78dbb2012b84
:1013d80000f0ec806c4b1b78dbb2012b00f02d8108
:1013e800664b1b78dbb2012b00f066816a490a78ec
:1013f80090006a4d05449df8ba619df8bb3103eb36
:101408000623594e86fb03639b0807ee903af8eed5
:10141800677ac5ed007a624b03445d48006818603e
:1014280001320a705be6f4eec77af1ee10fa7ff546
:1014380078afb5ee007a67ee877acded4c7a70e733
:10144800584b1b78dbb2112b7ff67daf564b4ff410
:101458000012c3f81821464bd3ed007a9fed4b7a62
:1014680077ee877acded4d7a464bd3ed007ab6ee1e
:10147800007a67ee877a464bd3ed006a87eea67a44
:101488003a4bd3ed007ab4eee77af1ee10fa12d8bf
:10149800f6ee007a27ee277a8ded4c7a02238df846
:1014a800393101228df8382100224ca939480068c9
:1014b8002af0def84de7b4eee77af1ee10faeddd4a
:1014c800b6ee007a67ee877acded4c7ae6e7354bd3
:1014d8001b78dbb2112b3ff63caf254bd3ed007ade
:1014e8009fed2a7a77ee877acded4d7a254bd3edad
:1014f800006a274bd3ed007a86eea77a1b4bd3ed13
:10150800007ab4eee77af1ee10fa13d8f5ee007a25
:1015180027ee277a8ded4c7a03238df83931012394
:101528008df83831022300224ca91a4800682af0a5
:101538009ff80ee7b4eee77af1ee10faecddb5eebf
:10154800007a67ee877acded4c7ae5e7b4eee77a74
:10155800f1ee10fa7ff72bafb5ee007a67ee877ad7
:10156800cded4c7a23e700bf67666666f4980120e4
:1015780094990120041f010054990120dd9901204c
:10158800549a0120e4970120d1990120000000001d
:101598005c9a0120f4970120059a01208494012087
:1015a800ac940120b199012000800041bf4b1b7809
:1015b800dbb2112b7ff60eafbd4b4ff40012c3f810
:1015c8001821bc4bd3ed007a9fedbb7a77ee877a72
:1015d800cded4d7ab94bd3ed007ab6ee007a67eed1
:1015e800877ab74bd3ed006a87eea67ab54bd3ed71
:1015f800007ab4eee77af1ee10fa12d8f6ee007a35
:1016080027ee277a8ded4c7a02238df839310122a5
:101618008df8382100224ca9ab4800682af028f838
:10162800dee6b4eee77af1ee10faedddb6ee007a1a
:1016380067ee877acded4c7ae6e79c4b1b78dbb2f8
:10164800112b3ff6cdae9b4bd3ed007a9fed9a7ae6
:1016580077ee877acded4d7a984bd3ed006a984bab
:10166800d3ed007a86eea77a964bd3ed007ab4eee6
:10167800e77af1ee10fa13d8f5ee007a27ee277a1a
:101688008ded4c7a03238df8393101238df83831eb
:10169800022300224ca98c48006829f0e9ff9fe644
:1016a800b4eee77af1ee10faecddb5ee007a67ee0b
:1016b800877acded4c7ae5e7844b1b785bbb7d4b95
:1016c800d3ed007a9fed7c7a77ee877acded4d7a6f
:1016d8007f4bd3ed006a7a4bd3ed007a86eea77a7a
:1016e800784bd3ed007ab4eee77af1ee10fa50d8e1
:1016f800f5ee007a27ee277a8ded4c7a03238df8e4
:10170800393101238df83831022300224ca96e4863
:10171800006829f0adff6d4b1b78dbb2012b44d07c
:101728006a4b1b78dbb2012b7ff460ae5f4b1b78f2
:10173800dbb2112b3ff65aae5e4bd3ed007a9fed2c
:101748005e7a77ee877acded4d7a614bd3ed006afc
:101758005b4bd3ed007a86eea77a5a4bd3ed007a2d
:10176800b4eee77af1ee10fa6dd8f5ee007a27eece
:10177800277a8ded4c7a03238df8393101238df8c2
:101788003831022300224ca94f48006829f070ff25
:101798002ce6b4eee77af1ee10faafddb5ee007a9a
:1017a80067ee877acded4c7aa8e7404b1b78dbb221
:1017b800112bb5d93e4b4ff40012c3f81821444bf6
:1017c80093ed007adfed437ab4eee77af1ee10faa2
:1017d800c8bfc3ed007a374bd3ed007a9fed367a58
:1017e80077ee877acded4d7a394bd3ed006a344bdd
:1017f800d3ed007a86eea77a324bd3ed007ab4eeb9
:10180800e77af1ee10fa12d8f6ee007a27ee277a88
:101818008ded4c7a02238df8393101228df838216b
:1018280000224ca92848006829f022ffdee5b4ee22
:10183800e77af1ee10faedddb6ee007a67ee877a18
:10184800cded4c7ae6e7b4eee77af1ee10fa92dde8
:10185800b5ee007a67ee877acded4c7a8be72ef0fd
:10186800a1fc9df8ae211c4b1a701c4a1378013359
:1018780013706ae4194b07221a709df8ae318bf881
:10188800003067e44ff0000c154b83f800c0baf83d
:101898000010b9f80000134b134a03f1140ecdf8e9
:1018a8000cc01e461546029122e000bfb1990120e6
:1018b800008000419499012000000000e497012075
:1018c8005c9a0120f4980120f4970120d199012015
:1018d800ec97012000606a47b9990120009a01201d
:1018e800059a012084940120ac940120734525d0e9
:1018f800f3ec017a96ed007ab4eee77af1ee10fa9d
:1019080009d8c6ed007afceee77a17ee901a89b28c
:1019180002914ff0010cf2ec017a95ed007ab4eee9
:10192800e77af1ee10fae1d8c5ed007afceee77a35
:1019380017ee901a88b201210391d7e70299bcf1fa
:10194800000f01d0aaf80010039b0bb1a9f8000002
:10195800344bd3ed007afceee77a17ee900a2df0bf
:1019680051ff314bd3ed007afceee77a17ee900a7f
:101978002df02cfffff7f3bb00252c4b1d7097f8bb
:1019880000c02b4b5e1d18464ff0010e01e0b3421c
:1019980008d013f8012b01789142f8d802709446c8
:1019a8007546f4e70db187f800c0214b18782ef082
:1019b800e1fbfff7d9bb00228df84020022310a9d4
:1019c8001c48006829f054fefff7d7bb1a4b1b7858
:1019d800dbb2012b7ff4d7ab184b1b78dbb2132b90
:1019e8007ff6d1ab00228df84020022310a91148c0
:1019f800006829f03dfefff7c6bb114b1e221a7086
:101a0800092388f800300f4bc9221a800e4b022296
:101a18001a700a202ef034fd0c4b1a680c4b1a6011
:101a2800fff7d1bb84940120ac940120fd990120db
:101a38008096012060970120d6990120b199012054
:101a4800b59901207e960120e5990120b8970120db
:101a580028980120a74b1b78dbb2012b00f00981e5
:101a6800a54b1b78dbb2012b00f019814ff0030363
:101a78008df87c318df89d31a04b6693a04e0023e4
:101a8800642266a9306829f0f3fd32202ef054f95b
:101a980000258df89c518df89d519a4a66922b46e7
:101aa800642266a9306829f0e3fd32202ef044f95b
:101ab80095494ff48010c1f81801944b1a68944b5b
:101ac8001a608c4b1d7002238df839318df838510e
:101ad8002a464ca98f48006829f0cafd40f6b8305c
:101ae8002ef02af94ff003008df89d01834b669381
:101af8002b46642266a80146306829f0b9fd3220d9
:101b08002ef01af98df89c518df89d517d4a6692f8
:101b18002b46642266a80146306829f0a9fd3220c8
:101b28002ef00af978494ff48013c1f818310a23c6
:101b380000932b462a460321774800682cf044fe80
:101b4800764b18782df076ff754b18782df08effb0
:101b5800744b18882df0a6ff734b18782df0daff18
:101b6800724b18782df0baff714b18782df0eefff4
:101b7800704b18682ef022f86f4b1b78dbb2012be4
:101b880000f0a3806c4b1b78dbb2022b00f0a18025
:101b9800694b1b78dbb2032b00f09f805c4bd3edc5
:101ba800007afceee77a654b93ed007abceec77ad3
:101bb80017ee903a17ee102a9b1a07ee903af8eeb5
:101bc800677a5f4dc5ed007afceee77a17ee900a6a
:101bd8002df0d8ff5b4b15221a7005202cf064fc01
:101be800544b1b683c934f4b19884d4b1b784b4a01
:101bf80012781b0243ea014313433f934b4b197876
:101c0800494b1b784a4a12781b0243ea01431343a3
:101c180040934d4b1a783b7843ea02434193d5ed04
:101c2800007afceee77a17ee903a43f400334293d9
:101c3800414b1a78454d2b8843ea024343930223cc
:101c48008df8e830002364223aa94148006829f059
:101c58000ffd404b18682af01dfe01232360002267
:101c68002a803d4a13703d4a13703d4a1370fef7af
:101c780047bd214b1b78002b7ff4f2ae00228df874
:101c8800382103238df8393102234ca921480068f3
:101c980029f0eefc40f6b8302ef04ef8e0e6154b91
:101ca8001b78dbb2012b7ff4e1ae00228df83821de
:101cb80002238df839314ca91648006829f0d8fc60
:101cc80040f6b8302ef038f8d0e601202ef0d8fbd8
:101cd80058e702202ef0d4fb5ae703202ef0d0fb61
:101ce8005ce79df8c431fa2b7ef4edad1d4a12680d
:101cf800fef7f0bdd6990120d199012002c4ec1558
:101d08006098012005c4ec1500800041b8970120b7
:101d180028980120f497012098970120f199012033
:101d28000a9a01205a8d0120099a0120fa99012066
:101d3800169a0120fc960120e499012020980120a0
:101d480024970120679a0120b99901203e95012026
:101d58007497012078970120d5990120d499012002
:081d6800d39901202899012004
:020000040000fa
:101d70002de9f04fefb000246c946d946a94cdf887
:101d8000ab4168948df8a441adf89c41659466948c
:101d90006494619462948df88c415e945f94609435
:101da0005b945c945d94589459945a9451945294d1
:101db000539454945594569457944d944e944f94f0
:101dc000adf840414794489449944a944b94cdf8d7
:101dd0002f41449445944694902221460ea82ff01a
:101de000fbfb0c940d94b34eb34fdff82c83dff85c
:101df0002c93dff82cb3dff82ca329e2af4b186843
:101e00002af04cfd0024ae4b1c70a9f80040abf842
:101e10000040ac4b1c8022466ca9ab4b186829f0e3
:101e2000dbfd224668a9a94b186829f0d5fd22469a
:101e300067a9a74b186829f0cffd9df8b731012b92
:101e400040f0ce819df8a231002b40f0c9819df871
:101e5000a1316d2b26d89df8a131632b00f2c081f2
:101e60009c4d5e9540238df882319b4c002364226b
:101e70005ea9206829f000fc4ff47a702df060ff15
:101e80005e9500238df849318df8823164225ea978
:101e9000206829f0f1fb64202df052ff8f4b0122c6
:101ea0001a709de18e4b1c608e4b1c60894b5e93bb
:101eb00040238df88231884d234664225ea928682c
:101ec00029f0dafb4ff47a702df03aff814b5e93e4
:101ed0008df849418df88241234664225ea9286825
:101ee00029f0cafb64202df02bff7c4b01221a70d5
:101ef0000c2388f80030aee77b4b5b9300248df811
:101f00007041234664225ba97848006829f0b4fb3d
:101f100064202df015ff764b589301258df83a512a
:101f20008df864518df83b418df865418df83c4149
:101f30008df866412346642258a96e48006829f04e
:101f40009bfb64202df0fcfe624b5e938df84751a5
:101f50008df87d51234664225ea95f48006829f010
:101f60008bfb64202df0ecfe224667a9584b1868c5
:101f700029f032fd9df89c31ab4240f03181574b46
:101f800002221a702ce1534c5e9440238df882316a
:101f9000514d002364225ea9286829f06dfb4ff49f
:101fa0007a702df0cdfe5e9400248df849418df8b5
:101fb0008241234664225ea9286829f05dfb6420e3
:101fc0002df0befe224668a9404b186829f004fd9a
:101fd000002800f005819df8a131503bdbb21d2b9c
:101fe00025d99df8a1316d2b0dd9434b1b78002bc2
:101ff00000f09a80414b00221a700c2388f80030c0
:1020000001202ef0bdf93e4b1b681e2b40f3e880eb
:102010003b4b00221a60384b1b7823b9394b4ff4e5
:102020008032c3f898202d4b00221a70d8e002208d
:102030002ef0a6f9334b4ff48032c3f894200923d5
:1020400088f800302d4b01221a70254b1b689342f3
:102050000ed02d4b1b78012b18d0214b1b6813b9c8
:102060001e4b03221a70264a136801331360b8e727
:1020700022468df81c40022307a92448006829f055
:10208000fbfa234b18682af009fce2e71e4b5b7849
:10209000012be2d1114b03221a7000228df820206f
:1020a000022308a91b48006829f0e6fa0d4b01221b
:1020b0001a60d2e7e0990120e0980120c097012042
:1020c000ff9901208e930120689801206c980120cf
:1020d0009098012002c0ec1560980120b199012070
:1020e000249901202c99012001c0ec15449801206d
:1020f00002d0ec1534980120d6990120d199012005
:102100001099012000800041c099012054970120be
:102110003c9701206097012085960120c6990120f7
:10212000ca990120de990120ad4b4ff48032c3f8eb
:1021300098204ff6ff702cf05fff0023a94a136030
:10214000a94a1360a94b1b78002b7ff453afa74b10
:1021500001221a70a64b18782bf086fc4ae700245f
:10216000a44b1c60a44b5b9308238df81d318df8a4
:102170007331234664225ba9a048006829f07cfae9
:102180004ff47a702df0dcfd9d4d5e958df8484141
:102190008df880418df849418df882418df84a4192
:1021a0008df88341234664225ea99648006829f091
:1021b00063fa4ff47a702df0c3fd5e9502238df81b
:1021c00047318df87d31234664225ea98d48006831
:1021d00029f052fa64202df0b3fd8b4b04221a70c3
:1021e00098f800308df82d30b9f80030adf82a306d
:1021f000bbf80030adf828309af800308df82e305a
:1022000033788df82c30022300220aa97f48006819
:1022100029f032fa98f800308df824300223002299
:1022200009a97b48006829f027fa3b68012b0bd1ec
:1022300000233b60744a1370764b18682af02efb1b
:10224000754b186829f06afe4ff4fa702df078fd8e
:102250006d4b1b78dbb21e2bc2d801a252f823f0c3
:10226000fd1d0000f91e0000871f00005f21000017
:10227000dd220000e121000051230000e1210000e7
:10228000e1210000e1210000e1210000e121000046
:10229000e1210000e1210000e1210000e121000036
:1022a000c3240000e1210000f125000029280000de
:1022b00001290000e1210000852b0000e121000040
:1022c000e1210000e1210000e1210000e121000006
:1022d000e1210000e1210000ff340000002268a994
:1022e0004e4b186829f078fb002267a94c4b186800
:1022f00029f072fb9df8a231012b1fd09df89c3173
:10230000fa2b02d0fc2b00d013b93f4b00221a70dd
:102310009df8a1316d2b7ff663af424b1b7823b93b
:102320002f4b4ff48032c3f8982000233e4a13709d
:102330000c2288f80020344a137051e79df8a1312f
:10234000503bdbb21d2bd9d82f4b06221a70d5e794
:102350000022264b1a7067a9314b186829f03cfb04
:102360009df89c31312b0ed91e4b1b68012b28d0b8
:10237000002b41f0038200226aa92c4b186829f037
:102380002bfb002856d19df89c31fa2b02d0fc2b58
:1023900000d053b9134a1268012a19d02ab91a4a2f
:1023a000002111700f4a012111600a2b7ff418af30
:1023b0001f4b1b780133dbb2f02b72d01c4a137019
:1023c0000ee7114b10221a709df89c31fa2bded1ca
:1023d0000d4a00211170034a01211160e5e700bf99
:1023e00000800041249901202c9901200b9a0120a2
:1023f000679a01201099012001c0ec154498012032
:1024000002c0ec1560980120b19901204c97012081
:102410000c970120809701203c9801206c980120a6
:1024200090980120d6990120d19901207898012017
:10243000179a01209df8a8318df814309df8a93124
:102440008df815309df8aa318df816309df8ab3116
:102450008df817309df8ac318df818309df8ad31fe
:102460008df819300223002205a95348006829f08d
:1024700003f99df81430002b85d001234f4a1360d7
:102480004f4a102111708df81c304e4b18682af0fd
:1024900005fa0223002207a94b48006829f0ecf84e
:1024a00071e70023494a1370454a1370484b40f2c4
:1024b00033121a80474b01221a7008202bf0d4faed
:1024c0008ee6424b00221a70434b1b6873bb434b92
:1024d0001b78012b2ed1414b5b78012b2ad114465e
:1024e0008df82020022308a93d48006829f0c4f88f
:1024f0003c4b5e9301238df849318df882312346a0
:1025000064225ea93848006829f0b6f864202df0ee
:1025100017fc4ff47a7267a9344b186829f05cfafb
:10252000274b12221a7005202bf09efa2a4b1b68ab
:10253000012b21d0002267a92c4b186829f04cfaf6
:102540009df89c31fa2b04d0fc2b02d0002b7ff499
:1025500047ae1b4b00221a700123184a13601c4a15
:102560004ff49a7111801b4a137006202df076ffec
:1025700008202bf079fa33e61a4b5e9301238df88d
:1025800049318df88231002364225ea91648006823
:1025900029f072f864202df0d3fb4ff47a7267a90a
:1025a000124b186829f018fa054b12221a700520f0
:1025b0002bf05afabee700bf58970120249901205a
:1025c000b19901203c97012054970120179a0120ce
:1025d0007e960120e59901202c990120c0990120c7
:1025e0006097012002c0ec156098012090980120ae
:1025f000ad4b4ff40012c3f8182100234493ab4baa
:10260000459301248df818418df819410023642267
:1026100044a9a748006829f02ff8a64b18682af0ab
:102620003df9a54b1c60002265a9a44b186829f050
:10263000d3f9002800f0d3809df894319df89521be
:1026400002eb03229e4981fb0232931007ee903a7f
:10265000f8eee77a9df896219df8973103eb022377
:1026600081fb03239b1007ee103ab8eec77abdee4c
:10267000c77a17ee103a934a92fbf3f303eb830306
:10268000a34007ee103ab8eec77a8f4b83ed007a7d
:10269000b2ee047a67ee877a93ed007af4eec77aa9
:1026a000f1ee10fa48bfc3ed007a884b5e93002428
:1026b0008df88241234664225ea98548006828f08f
:1026c000dbff64202df03cfb824b5b937e4ad2ed16
:1026d000007afceee77a17ee903a8df87031d2ed81
:1026e000007afceee77a17ee903ac3f307238df8f1
:1026f0007131e0238df872312e238df87331102360
:102700008df8743127238df8753114258df87651a5
:102710008df87741234664225ba96f48006828f052
:10272000abff4ff4fa702df00bfb8df870518df864
:102730007141c8238df872318df873418df8745151
:102740008df8754164258df876518df87741634b8e
:102750005b9323462a465ba95f48006828f08cfffc
:102760004ff4fa702df0ecfa02238df849318df810
:10277000823103f1af5303f54c235e9323462a467f
:102780005ea95348006828f077ff4ff4fa702df0e7
:10279000d7fa07202bf068f9224667a9504b186832
:1027a00029f01af99df89c315b3bdbb2092b2ed93d
:1027b0009df89c31fa2b02d0fc2b00d07bb9494b01
:1027c00000221a70484b40f235121a80474b012202
:1027d0001a7008202df042fe08202bf045f9002445
:1027e0000594adf818408df81c400223224607a935
:1027f0003f48006828f040ff0223224605a93d48d3
:10280000006828f039ff3c4b1c809c70e8e4354b95
:1028100013221a704ff47a702df092fa224b4ff473
:102820000022c3f81421c3e7002268a9334b1868bb
:1028300029f0d2f89df8a131312b1ed91a4bd3f8cb
:10284000a03013f4000f1dd101238df848318df80d
:1028500080310c238df849318df882311b4b5e930a
:10286000002364225ea91a48006828f005ff64204e
:102870002df066fa1b4b14221a704ff47a702df06b
:102880005ffaade4174b00221a70174b40f2351275
:102890001a80164b01221a7007202df0dffd082048
:1028a0002bf0e2f8e9e700bf008000410000484358
:1028b000f4970120f89701202c990120809801209d
:1028c00067666666c0d40100c897012002c0ec1597
:1028d0006098012003c0ec154498012004c0ec1559
:1028e00090980120b19901207e960120e599012060
:1028f0005497012058970120c09901206c9801201d
:10290000002264a9854b186829f066f89df890317b
:102910009df8912102eb0322814981fb0232921042
:1029200007ee902af8eee77a7e4bc3ed007a9df829
:1029300092219df8933103eb022381fb03239b102b
:1029400007ee103ab8eec77a774b83ed007a4ff076
:1029500080434493cded457a01238df818318df8ed
:1029600019310023642244a97048006828f084fecd
:102970006f4b186829f092ff9df891318df87c31ea
:102980009df890318df87d319df893318df87e3131
:102990009df892318df87f31664b5e93002364225f
:1029a0005ea96548006828f067fe0a202df0c8f986
:1029b00009202bf059f8002267a9604b186829f00c
:1029c0000bf800283ff40cac9df89c31782b1ad002
:1029d0009df89c31fa2b04d0fc2b02d0002b7ff405
:1029e000ffab574b1e221a70564b4ff49b721a8046
:1029f000554b01221a7008202df030fd08202bf0d5
:102a000033f8fff7edbb514b1d682ef033fe4ef649
:102a10006024009400230246012128462bf0d8feb2
:102a20004b4b1d682ef026fe009400230246012128
:102a300028462bf0cdfe474b1d682ef01bfe009460
:102a400000230246012128462bf0c2fe424b1d689e
:102a50002ef010fe009400230246012128462bf0a0
:102a6000b7fe3e4b1d682ef005fe00940023024683
:102a7000012128462bf0acfe394b1d682ef0fafde3
:102a8000009400230246012128462bf0a1fe2c4b86
:102a900016221a70334b18782cf0f8fc64202df0b5
:102aa0004ff9314c20782cf00dfd64202df048f9c1
:102ab0002e4d28882cf022fd64202df041f92c4960
:102ac00008782cf053fd64202df03af9294800785d
:102ad0002cf030fd64202df033f9274a10782cf0cb
:102ae00061fd64202df02cf9244b1a68244b1a60e8
:102af000298823781b4a12781b0243ea01431343b7
:102b000035931c4801781a4b1b781b4a12781b021c
:102b100043ea0143134336935ae700bf88980120e4
:102b20006766666690990120f0980120f49701206d
:102b3000f897012005c0ec156098012090980120bd
:102b4000b19901207e960120e599012094970120fa
:102b5000d89801205c990120609901206499012096
:102b600068990120f19901200a9a01205a8d0120cb
:102b7000099a0120fa990120169a0120b4970120a0
:102b80001c980120002204a9c04b186828f024ffdb
:102b900028b1bf4a9df8103011880b44138047f2ca
:102ba00030502cf029fa03202df0eafbb84b18889e
:102bb0002cf0c4fbb74b1b78072b00f0a781002239
:102bc00064a9b54b186828f007ff002800f0d580ed
:102bd0009df892319df8932102eb0322af4981fbce
:102be0000232930807ee103ab8ee477aac4b83ed09
:102bf000007a9df890219df8913103eb022381fb2f
:102c000003239b0807ee903af8ee677aa54bc3edd5
:102c1000007a67ee276aa44bc3ed006aa34b1b78ca
:102c2000002b40f08880a24b1a68a24b1a6093edeb
:102c3000006af4eec66af1ee10fa35d59e4b1b78a9
:102c400033bbdfed9e6a77eea67acded457a994be0
:102c500093ed006a9a4bd3ed006ac6ee267ab4ee85
:102c6000e77af1ee10fac0f25681b5ee007a67ee1f
:102c7000877acded447a03238df8193101238df83d
:102c800018310223002244a98e48006828f0f4fc81
:102c9000894b1b78dbb2012b00f04a81864b1b78f5
:102ca000dbb2012b00f08b81824bd3ed007a7e4b9f
:102cb00093ed007ab4eee77af1ee10fa3bdd7e4b4d
:102cc0001b7863bb774bd3ed007a9fed7c7a77ee70
:102cd000877acded457a774bd3ed006a784b93ed4b
:102ce000007ac6ee877a6e4b93ed007af4eec77adf
:102cf000f1ee10fa00f2a281b5ee007a67ee877a63
:102d0000cded447a03238df8193101238df8183164
:102d10000223002244a96b48006828f0adfc664bf2
:102d20001b78dbb2012b00f09681634b1b78dbb282
:102d3000012b00f0d7815d4b1b78dbb2012b00f03b
:102d40002582614802789100604b0b445c4c2468fa
:102d50001c605f4b19449df892419df8933103eb41
:102d600004234e4c84fb03439b0807ee903af8ee95
:102d7000677ac1ed007a0132027064202cf0e0ff26
:102d80009df891318df87c319df890318df87d3131
:102d90009df893318df87e319df892318df87f3119
:102da0004c4b5e93002364225ea94b48006828f0d8
:102db00063fc64202cf0c4ff002261a9474b186813
:102dc00028f00afea0b1464a13789df886014549cd
:102dd000c854062188f80010013313702d4b1b785e
:102de000042b40f2a6822b4b1b78052b00f0ac8203
:102df000354b1b78052b00f0af82394b1b78052b28
:102e000000f00283384b1b78dbb2012b00f01a83f1
:102e1000354b1b78dbb2012b00f023839df89c31ee
:102e2000292b03d0fa2b01d0fc2b12d12f4b1e22c1
:102e30001a70092388f800302d4bca221a802d4bb6
:102e400001221a700a202df009fb2b4b1a682b4b1c
:102e50001a609df88431012b00f03e83284b1b78cb
:102e6000012b7ff4bda9264b9b78012b7ff4b8a9d9
:102e70001e4b1e221a70092388f80030204b0022b6
:102e80001a809a701c4b1a683ce000bf7c970120a6
:102e90008e930120ff99012088980120676666665d
:102ea000f09801209099012050990120dc9901208f
:102eb000549a0120e4970120d699012000000000d7
:102ec000589a0120f4970120049a01209894012037
:102ed0007094012005c0ec156098012084980120b1
:102ee000fc99012078960120d1990120b199012007
:102ef0007e960120e5990120b497012024980120b5
:102f0000c0990120974b1a60fff76ab9964b187861
:102f10002df01cf953e6b4eee77af1ee10fa7ff5e6
:102f2000aaaef5ee007a27ee277a8ded447aa2e676
:102f30008e4b1b78dbb2112b7ff6b0ae8c4b4ff46f
:102f40000012c3f818218b4bd3ed007a9fed8a7adb
:102f500077ee877acded457a884bd3ed007ab6eee1
:102f6000007a67ee877a864bd3ed006a87eea67a01
:102f7000844bd3ed007ab4eee77af1ee10fa12d872
:102f8000f6ee007a27ee277a8ded447a01238df84c
:102f900019318df818310223002244a97a480068bb
:102fa00028f06afb80e6b4eee77af1ee10faeddd88
:102fb000b6ee007a67ee877acded447ae6e76b4ba2
:102fc0001b78dbb2112b3ff66fae6a4bd3ed007a64
:102fd0009fed697a77ee877acded457a674bd3ed31
:102fe000006a674bd3ed007a86eea77a654bd3ed86
:102ff000007ab4eee77af1ee10fa13d8f5ee007a23
:1030000027ee277a8ded447a03238df819310123b9
:103010008df818310223002244a95b48006828f08b
:103020002bfb41e6b4eee77af1ee10faecddb5eefb
:10303000007a67ee877acded447ae5e7f4eec77a59
:10304000f1ee10fa7ff75eaef5ee007a27ee277a02
:103050008ded447a56e6454b1b78dbb2112b7ff69b
:1030600064ae434b4ff40012c3f81821414bd3ed2b
:10307000007a9fed417a77ee877acded457a3f4b26
:10308000d3ed007ab6ee007a67ee877a3c4bd3ed4b
:10309000006a87eea67a3b4bd3ed007ab4eee77a6e
:1030a000f1ee10fa12d8f6ee007a27ee277a8dedbf
:1030b000447a01238df819318df81831022300224a
:1030c00044a93148006828f0d7fa34e6b4eee77a2c
:1030d000f1ee10faedddb6ee007a67ee877acded0f
:1030e000447ae6e7214b1b78dbb2112b3ff623ae87
:1030f000204bd3ed007a9fed207a77ee877acdede5
:10310000457a1e4bd3ed006a1d4bd3ed007a86ee57
:10311000a77a1c4bd3ed007ab4eee77af1ee10fa01
:1031200013d8f5ee007a27ee277a8ded447a032343
:103130008df8193101238df818310223002244a99a
:103140001148006828f098faf5e5b4eee77af1ee58
:1031500010faecddb5ee007a67ee877acded447ab1
:10316000e5e700bf24980120c3990120b59901200b
:10317000008000419099012000000000e4970120a8
:10318000589a0120f0980120f4970120c04b1b7839
:103190005bbbc04bd3ed007a9fedbf7a77ee877aa9
:1031a000cded457abd4bd3ed006abd4b93ed007a72
:1031b000c6ee877abb4b93ed007af4eec77af1ee58
:1031c00010fa50d8b5ee007a67ee877acded447ae2
:1031d00003238df8193101238df8183102230022c1
:1031e00044a9b148006828f047faa94b1b78dbb224
:1031f000012b44d0a64b1b78dbb2012b7ff4a1ad91
:10320000aa4b1b78dbb2112b3ff69bada14bd3ed44
:10321000007a9feda17a77ee877acded457a9f4bc4
:10322000d3ed006a9e4bd3ed007a86eea77a9d4bd4
:10323000d3ed007ab4eee77af1ee10fa6dd8f5ee40
:10324000007a27ee277a8ded447a03238df8193121
:1032500001238df818310223002244a99248006806
:1032600028f00afa6de5f4eec77af1ee10faafdd58
:10327000f5ee007a27ee277a8ded447aa8e78b4b9e
:103280001b78dbb2112bb5d9894b4ff40012c3f870
:103290001821824b93ed007adfed867ab4eee77a5f
:1032a000f1ee10fac8bfc3ed007a7a4bd3ed007a85
:1032b0009fed797a77ee877acded457a774bd3ed2e
:1032c000006a774bd3ed007a86eea77a754bd3ed83
:1032d000007ab4eee77af1ee10fa12d8f6ee007a40
:1032e00027ee277a8ded447a01238df819318df878
:1032f00018310223002244a96b48006828f0bcf969
:103300001fe5b4eee77af1ee10faedddb6ee007ae5
:1033100067ee877acded447ae6e7b4eee77af1ee30
:1033200010fa92ddb5ee007a67ee877acded447a39
:103330008be72cf00bff604a1378013313709df874
:1033400086215e4b1a704ee59df886318af8003072
:10335000594b07221a704be54ff0000c584b83f87d
:1033600000c0b9f80010bbf80000564b564a03f1f4
:10337000140ecdf80cc01d461446029101e07345b1
:1033800025d0f3ec017a95ed007ab4eee77af1ee10
:1033900010fa09d8c5ed007afceee77a17ee901a1c
:1033a00089b202914ff0010cf2ec017a94ed007aaf
:1033b000b4eee77af1ee10fae1d8c4ed007afcee53
:1033c000e77a17ee901a88b201210391d7e70299a4
:1033d000bcf1000f01d0a9f80010039b0bb1abf8b2
:1033e0000000384bd3ed007afceee77a17ee900a36
:1033f0002bf0dcff344bd3ed007afceee77a17eece
:10340000900a2bf0b7fff8e40024304b1c7096f8bc
:1034100000c02f4b5d1d18464ff0010e01e09d428c
:1034200008d013f8012b01789142f8d80270944625
:103430007446f4e70cb186f800c0254b18782cf0e0
:103440006dfedfe4124b1b78002b7ff4e1ac002211
:103450008df82020022308a91e48006828f00cf9e6
:10346000d6e40b4b1b78dbb2012b7ff4d7ac0f4bb0
:103470001b78dbb2132b7ff6d1ac00228df8202015
:10348000022308a91348006828f0f6f8c6e400bf34
:10349000d69901209099012000000000e8970120b2
:1034a000589a0120f0980120f4970120b599012045
:1034b0000080004100606a47ff990120c399012004
:1034c000049a01207094012098940120fc99012015
:1034d0007896012060970120ad4b1e221a700920ba
:1034e00088f80000ab4bc9221a80ab4b01221a703e
:1034f0002cf0b4ffa94b1a68a94b1a60aee4a94b93
:103500001b78dbb2012b00f00181a64b1b78dbb2ec
:10351000012b00f011814ff003038df847318df836
:103520007d31a14b5e93a14d002364225ea92868e2
:1035300028f0a2f832202cf003fc00248df87c4106
:103540008df87d419a4a5e92234664225ea92868de
:1035500028f092f832202cf0f3fb96494ff400202b
:10356000c1f818018d4b1b688d4803608d4b1c7092
:103570008df8184101238df819310223224644a900
:103580008d48006828f078f840f6b8302cf0d8fb69
:103590004ff0030c8df87dc1834b5e93234664226c
:1035a0000df5bc7c6146286828f066f832202cf0c6
:1035b000c7fb8df87c418df87d417d4a5e922346a4
:1035c00064220df5bc7c6146286828f055f832204d
:1035d0002cf0b6fb77494ff40023c1f818310a23c9
:1035e0000093234622460321744800682bf0f0f82c
:1035f000734b18782bf0f2ff724b18782cf00af806
:10360000714b18882cf022f8704b18782cf056f873
:103610006f4b18782cf036f86e4b18782cf06af84f
:103620006d4b18682cf09ef85d48d0ed007afceeea
:10363000e77a6a4b93ed007abceec77a17ee100a70
:1036400017ee903a181a664b18602cf06ff8654b1d
:103650001b78dbb2012b00f08580624b1b78dbb25c
:10366000022b00f083805f4b1b78dbb2032b00f052
:1036700081805d4b0c221a7005202cf081fe564b88
:103680001b683493504b19884e4b1b784c4a127868
:103690001b0243ea0143134337934d4b19784b4bbd
:1036a0001b784c4a12781b0243ea014313433893b8
:1036b0004e4b1a78337843ea02433993484b1b68e0
:1036c00043f480333a93474b1a78494c238843eab2
:1036d00002433b9302238df8c8300023642232a9b1
:1036e0004448006827f0c8ff434b186829f0d6f813
:1036f00001233b6000222280404a1370404a13702d
:10370000404a1370404a1370fef76abd3f4b1b7866
:10371000002b7ff4faae00228df8182103238df8d8
:103720001931022344a92448006827f0a5ff40f678
:10373000b8302cf005fbe8e6344b1b78dbb2012bec
:103740007ff4e9ae00228df818218df8193102239b
:1037500044a91948006827f08fff40f6b8302cf0d4
:10376000effad8e601202cf079fe76e702202cf063
:1037700075fe78e703202cf071fe7ae79df89c3106
:10378000fa2b7ef404ae224a1268fef707be00bf91
:10379000b19901207e960120e5990120b49701207e
:1037a00024980120d199012002c0ec1560980120d5
:1037b00005c0ec1500800041f4970120949701208a
:1037c000f19901200a9a01205a8d0120099a0120bd
:1037d000fa990120169a0120f89601201c980120e0
:1037e00020970120e4990120679a0120c3990120c4
:1037f0008e9301207497012078970120c5990120ac
:10380000d0990120cf990120ce990120d69901208d
:0438100024990120d6
:020000040000fa
:10381400909301201c00000000000000409501204e
:103824000800000000000000ac9301201c00000010
:1038340000000000c09401201000000000000000ff
:103844004895012008000000000000005095012068
:103854000800000000000000589501200800000046
:1038640000000000c89301201c00000000000000bc
:10387400d094012010000000000000006095012099
:103884000800000000000000689501200800000006
:1038940000000000f08b0120c000000000000000c8
:1038a400ba9901200200000000000000cc9201201f
:1038b4002c00000000000000dc910120300000001a
:1038c400000000000c920120300000000000000005
:1038d4003c92012030000000000000006c920120a6
:1038e40030000000000000009c9201203000000025
:1038f400000000003c9a01200400000001000000c8
:10390400aaaaaaaa889601200400000000000000c8
:1039140090010020608a0100000000008c960120c4
:103924000400000000000000909601200400000044
:103934000000000094960120040000000000000034
:1039440098960120040000000000000070950120fa
:1039540008000000000000009c9601200400000004
:1039640000000000a09601200400000000000000f8
:10397400e49301201400000000000000f8930120eb
:103984001400000000000000a496012004000000c0
:1039940000000000a89601200400000000000000c0
:1039a400ac9601200400000000000000b096012045
:1039b4000400000000000000b49601200400000090
:1039c40000000000b8960120040000000000000080
:1039d400dc8f01206400000000000000bc96012080
:1039e4000400000000000000c09601200400000054
:1039f40000000000c4960120040000000000000044
:103a0400c89601200400000000000000cc960120ac
:103a140004000000000000000c94012014000000c9
:103a240000000000209401201400000000000000a9
:103a3400d09601200400000000000000d49601206c
:103a44000400000000000000d896012004000000db
:103a540000000000dc9601200400000000000000cb
:103a6400349401201400000000000000e0960120be
:103a7400040000000000000048940120140000002d
:103a8400000000005c94012014000000000000000d
:103a9400e49601200400000000000000e8960120e4
:103aa4000400000000000000409a0120040000000f
:103ab400010000000400000000000020c800000015
:103ac40000000000c8000020c80000000000000042
:103ad400ec9601200400000000000000f096012094
:103ae4000400000000000000f4960120040000001f
:103af40000000000f896012004000000000000000f
:103b0400fc960120040000000000000093900120b6
:103b14000100000000000000af9901200100000036
:103b240000000000009701200400000000000000d5
:103b3400bf9901200100000000000000049701204b
:103b440004000000000000007d9601200100000038
:103b5400000000000897012004000000000000009d
:103b64000c970120040000000000000010970120c1
:103b74000400000000000000859601200100000000
:103b840000000000a99901200100000000000000cd
:103b9400b19901200100000000000000b599012046
:103ba4000100000000000000149701200400000040
:103bb400000000001897012004000000000000002d
:103bc4001c97012004000000000000002097012041
:103bd40004000000000000002497012004000000fd
:103be40000000000c699012002000000000000004f
:103bf400709401201400000000000000c899012006
:103c04000200000000000000849401201400000061
:103c140000000000ca99012002000000000000001a
:103c2400989401201400000000000000cc990120a9
:103c34000200000000000000ac9401201400000009
:103c4400000000002897012004000000000000008c
:103c5400289101204000000000000000f89201209b
:103c6400280000000000000020930120280000002c
:103c740000000000088e0120a400000000000000e5
:103c84002c97012004000000000000003097012060
:103c94000400000000000000c4990120010000009d
:103ca4000000000034970120040000000000000020
:103cb4003897012004000000000000003c97012018
:103cc40004000000000000004097012004000000f0
:103cd40000000000449701200400000000000000e0
:103ce4004897012004000000000000004c970120c8
:103cf40004000000000000005097012004000000b0
:103d0400000000005497012004000000000000009f
:103d14005897012004000000000000005c97012077
:103d2400040000000000000060970120040000006f
:103d3400000000006497012004000000000000005f
:103d4400689701200400000000000000068e012096
:103d54000200000000000000a69101200200000003
:103d640000000000da9101200200000000000000c1
:103d7400c39901200100000000000000b99901204e
:103d840001000000000000006c9701200400000006
:103d940000000000709701200400000000000000f3
:103da40074970120040000000000000078970120af
:103db4000400000000000000c5990120010000007b
:103dc40000000000ce990120010000000000000066
:103dd400cf9901200100000000000000d0990120cb
:103de40001000000000000008e930120020000008a
:103df400000000007c970120040000000000000087
:103e0400d1990120010000000000000080970120ea
:103e1400040000000000000084970120040000005a
:103e240000000000d2990120010000000000000001
:103e3400d39901200100000000000000d499012062
:103e44000100000000000000d599012001000000dd
:103e5400000000003e950120020000000000000068
:103e6400889701200400000000000000d69901207a
:103e740001000000000000008c97012004000000f5
:103e840000000000909701200400000000000000e2
:103e9400d79901200100000000000000d8990120fa
:103ea40001000000000000009497012004000000bd
:103eb40000000000989701200400000000000000aa
:103ec4009c9701200400000000000000a09701203e
:103ed4000400000000000000a4970120040000007a
:103ee40000000000a897012004000000000000006a
:103ef400ac9701200400000000000000b0970120ee
:103f04000400000000000000b49701200400000039
:103f140000000000b8970120040000000000000029
:103f2400bc9701200400000000000000c09701209d
:103f34000400000000000000d999012001000000e5
:103f440000000000da9901200100000000000000d8
:103f5400db9901200100000000000000c49701204b
:103f64000400000000000000c897012004000000c5
:103f740000000000cc9701200400000000000000b5
:103f8400409001205300000000000000d097012061
:103f94000400000000000000d49701200400000089
:103fa40000000000d8970120040000000000000079
:103fb400dc9701200400000000000000e0970120cd
:103fc4000400000000000000e49701200400000049
:103fd40000000000e8970120040000000000000039
:103fe400ec9701200400000000000000f09701207d
:103ff4000400000000000000f49701200400000009
:1040040000000000f89701200400000000000000f8
:10401400fc9701200400000000000000009801202b
:104024000400000000000000a891012032000000fc
:1040340000000000049801200400000000000000bb
:104044000898012004000000000000000c980120e2
:10405400040000000000000010980120040000008b
:10406400000000001498012004000000000000007b
:10407400dc9901200100000000000000dd9901200e
:104084000100000000000000189801200400000056
:1040940000000000de990120010000000000000083
:1040a400df9901200100000000000000e0990120d8
:1040b40001000000000000007896012005000000c7
:1040c40000000000e1990120010000000000000050
:1040d4008096012005000000000000001c980120cb
:1040e40004000000000000002098012004000000eb
:1040f40000000000e299012001000000000000001f
:10410400e39901200100000000000000c099012093
:104114000300000000000000bc990120030000001f
:1041240000000000249801200400000000000000aa
:10413400289801200400000000000000e4990120f8
:104144000100000000000000349501200a00000076
:10415400000000007e960120020000000000000024
:10416400e599012001000000000000002c980120c6
:104174000400000000000000e69901200100000096
:1041840000000000869601200200000000000000ec
:10419400aa9901200200000000000000b299012049
:1041a40002000000000000007895012008000000d3
:1041b40000000000809501200800000000000000bd
:1041c400889501200800000000000000909501205f
:1041d400080000000000000098950120080000007d
:1041e40000000000a095012008000000000000006d
:1041f400a89501200800000000000000b0950120ef
:104204000800000000000000b8950120080000002c
:1042140000000000c095012008000000000000001c
:10422400c89501200800000000000000d09501207e
:104234000800000000000000d895012008000000dc
:10424400000000003098012004000000000000007d
:104254003498012004000000000000003898012078
:1042640004000000000000003c980120040000004d
:10427400000000004098012004000000000000003d
:104284004498012004000000000000004898012028
:1042940004000000000000004c980120040000000d
:1042a40000000000e095012008000000000000006c
:1042b400e89501200800000000000000f0950120ae
:1042c4000800000000000000f8950120080000002c
:1042d400000000000096012008000000000000001b
:1042e400089601200800000000000000109601203c
:1042f40008000000000000001896012008000000db
:1043040000000000209601200800000000000000ca
:1043140028960120080000000000000030960120cb
:10432400080000000000000038960120080000008a
:10433400000000004096012008000000000000007a
:10434400509801200400000000000000549801204f
:104354000400000000000000589801200400000040
:10436400000000005c980120040000000000000030
:1043740060980120040000000000000064980120ff
:104384000400000000000000689801200400000000
:10439400000000006c9801200400000000000000f0
:1043a40070980120040000000000000074980120af
:1043b40004000000000000007898012004000000c0
:1043c400000000007c9801200400000000000000b0
:1043d400809801200400000000000000849801205f
:1043e4000400000000000000889801200400000080
:1043f400000000008c980120040000000000000070
:10440400909801200400000000000000949801200e
:10441400040000000000000098980120040000003f
:10442400000000009c98012004000000000000002f
:10443400a09801200400000000000000a4980120be
:104444000400000000000000a898012004000000ff
:1044540000000000ac9801200400000000000000ef
:10446400b09801200400000000000000b49801206e
:104474000400000000000000b898012004000000bf
:1044840000000000bc9801200400000000000000af
:10449400c09801200400000000000000c49801201e
:1044a4000400000000000000c8980120040000007f
:1044b40000000000cc98012004000000000000006f
:1044c40048960120080000000000000050960120da
:1044d40008000000000000005896012008000000b9
:1044e40000000000609601200800000000000000a9
:1044f400689601200800000000000000709601206a
:104504000800000000000000e799012001000000fd
:1045140000000000d098012004000000000000000a
:10452400e89901200100000000000000e999012041
:104534000100000000000000d498012004000000e5
:1045440000000000ea9901200100000000000000c2
:10455400d8980120040000000000000068910120a8
:104564003e00000000000000b69901200200000097
:1045740000000000eb990120010000000000000091
:10458400dc9801200400000000000000ec990120e8
:104594000100000000000000ed990120010000006e
:1045a40000000000ee99012001000000000000005e
:1045b400e09801200400000000000000e4980120bd
:1045c4000400000000000000ef9901200100000039
:1045d40000000000f099012001000000000000002c
:1045e400e89801200400000000000000ec9801207d
:1045f4000400000000000000f09801200400000006
:1046040000000000f49801200400000000000000f5
:10461400f19901200100000000000000f29901203e
:104624000100000000000000f898012004000000d0
:1046340000000000f39901200100000000000000c8
:10464400fc980120040000000000000000990120f3
:104654000400000000000000b08c0120aa0000004b
:104664000000000004990120040000000000000084
:10467400f49901200100000000000000f5990120d8
:104684000100000000000000f69901200100000074
:1046940000000000b89901200100000000000000a3
:1046a400f799012001000000000000000899012092
:1046b4000400000000000000e49001204400000019
:1046c400000000000c99012004000000000000001c
:1046d400109901200400000000000000149901203a
:1046e4000400000000000000f8990120010000000f
:1046f40000000000f9990120010000000000000002
:10470400b49901200100000000000000b0990120cc
:1047140001000000000000001899012004000000be
:10472400000000001c9901200400000000000000ab
:10473400fa9901200100000000000000fb9901200b
:104744000100000000000000fc99012001000000ad
:1047540000000000fd99012001000000000000009d
:10476400fe990120010000000000000020990120b2
:104774000400000000000000ff9901200100000077
:1047840000000000009a0120010000000000000069
:10479400019a01200100000000000000029a01209b
:1047a4000100000000000000039a01200100000045
:1047b4000000000024990120040000000000000013
:1047c4002899012004000000000000002c99012019
:1047d40004000000000000003099012004000000e3
:1047e40000000000049a0120010000000000000005
:1047f400059a012001000000000000003499012006
:104804000400000000000000069a012001000000de
:1048140000000000079a01200100000000000000d1
:10482400089a0120010000000000000038990120ce
:1048340004000000000000003c9901200400000076
:10484400000000005c8d0120aa00000000000000b0
:10485400409901200400000000000000099a012092
:104864000100000000000000449901200400000041
:10487400000000000a9a012001000000000000006e
:10488400ac99012003000000000000000b9a0120f5
:1048940001000000000000000c9a0120010000004b
:1048a400000000000d9a012001000000000000003b
:1048b4000e9a012001000000000000004899012028
:1048c40004000000000000000f9a01200100000015
:1048d40000000000109a0120010000000000000008
:1048e4004c990120040000000000000050990120b0
:1048f400040000000000000054990120040000009e
:1049040000000000119a01200100000000000000d6
:10491400589901200400000000000000129a0120b0
:1049240001000000000000005c9901200400000068
:1049340000000000139a01200100000000000000a4
:10494400609901200400000000000000149a012076
:104954000100000000000000649901200400000030
:1049640000000000159a0120010000000000000072
:10497400689901200400000000000000a8990120ab
:1049840001000000000000006c99012004000000f8
:1049940000000000709901200400000000000000e5
:1049a400749901200400000000000000789901209f
:1049b40004000000000000007c99012004000000b5
:1049c40000000000809901200400000000000000a5
:1049d400ac8e0120a000000000000000e094012043
:1049e4001000000000000000169a012001000000e1
:1049f40000000000109501200c00000000000000e1
:104a04001c9501200c0000000000000028950120e6
:104a14000c00000000000000849901200400000044
:104a240000000000179a01200100000000000000af
:104a3400189a01200100000000000000889901205c
:104a44000400000000000000f094012010000000a9
:104a5400000000004c8f01209000000000000000c6
:104a64008c990120040000000000000090990120ae
:104a740004000000000000009499012004000000dc
:104a8400000000005a8d0120020000000000000018
:104a94003a9a012002000000010000000401000015
:104aa4001a9a01200200000001000000b400000076
:104ab4001c9a01201e000000010000005aa51b8260
:104ac400524068747470733a2f2f7777772e73740b
:104ad400617469712e696e2fffff0000199a01201d
:104ae40001000000010000000c000000669a012093
:104af40001000000010000000c000000679a012082
:104b0400010000000100000003000000689a012079
:104b140001000000010000000f000000699a01205c
:104b24000100000001000000500000006a9a01200a
:104b3400010000000100000014000000449a01205c
:104b440004000000010000000000803f6b9a012077
:104b54000100000001000000010000006c9a012027
:104b6400010000000100000001000000489a01203b
:104b74000400000001000000cdcccc3f4c9a012081
:104b8400040000000100000000000040509a0120d1
:104b9400040000000100000000000040549a0120bd
:104ba40004000000010000000060ea47649a01204c
:104bb4000200000001000000af4a0000589a0120e2
:104bc4000400000001000000000048435c9a01203a
:104bd400040000000100000000004843609a012026
:104be40004000000010000000000484398990120df
:104bf40004000000000000000095012010000000e7
:104c0400000000004893012028000000000000007c
:104c1400709301201e000000000000009c990120f8
:104c240004000000000000009490012050000000e7
:104c340000000000a0990120040000000000000012
:104c4400a4990120040000000000000000000000fe
:104c54000000000044444444444444444444444420
:020000040000fa
:104c64002de9f04f87b09a4c00230193994f9a4b4a
:104c740003f13c050123009300f0fabf974b1a6837
:104c840095490a601b68cbb1954b1b785bb12268d0
:104c9400924b53f82230002b40f0a380904b4ff0fe
:104ca40000021a709de08e4b4ff001021a708b4b7c
:104cb4001b6833804ff47a602bf040f82268874bee
:104cc40053f82230002b40f08c80854b1b78002b4e
:104cd40000f08780e2e7814b5a687f494a605b684d
:104ce400c3b17f4b5b7853b122687c4b53f82230bd
:104cf400002b76d17a4b4ff000025a7071e0784b5a
:104d04004ff001025a70754b5b6833804ff47a6040
:104d14002bf014f82268714b53f82230002b60d129
:104d24006f4b5b78002b5cd0e4e76c4b9a686a4964
:104d34008a609b68c3b16a4b9b7853b12268674b06
:104d440053f82230002b4cd1654b4ff000029a707f
:104d540047e0634b4ff001029a70604b9b683380cd
:104d64004ff47a602af0eaff22685c4b53f8223051
:104d7400002b36d15a4b9b78002b32d0e4e7574bab
:104d8400da685549ca60db68bbb1554bdb784bb177
:104d94002268524b53f822301bbb514b4ff0000298
:104da400da701ee04e4b4ff00102da704b4bdb68b9
:104db40033804ff47a602af0c1ff2268474b53f8de
:104dc400223073b9464bdb785bb1e6e7434bd3f84b
:104dd4008430012b66d0414bd3f88430022b00f091
:104de400a0803388adf80c30b8f80030adf80e3040
:104df400b9f80030adf81030baf80030adf8123020
:104e04003b88adf81430bbf80030adf816300223ff
:104e1400002203a93348006826f02cfc23680133e0
:104e240023601f2b00f355861b2bdad801a252f8fe
:104e340023f000bf814c0000db4c00002f4d00002c
:104e4400834d0000d14d0000e74d0000914f00005c
:104e5400eb4f0000455000009f500000f950000047
:104e640065510000bf5100001b520000e74d0000d7
:104e740075520000575300004d5400002f55000098
:104e8400fd550000df560000af5700007f580000ba
:104e9400e74d0000dd580000c35900001f5a000010
:104ea4007b5a00000d4b19690f4a11601b6953b3fb
:104eb4000b4b93f82c30cbb12268084b53f82230bb
:104ec400002b88d1064b4ff0000283f82c2082e798
:104ed40020990120aa99012028910120088e0120ff
:104ee4006891012044970120f8920120984b4ff0db
:104ef400010283f82c20974b1b69a8f800304ff46b
:104f04007a602af01bff2268924b53f82230002b60
:104f14007ff461af8e4b93f82c30002b3ff45bafe2
:104f2400d0e723688b4a52f823008b49086052f873
:104f34002320eab1864a92f82d205ab1854a52f8c4
:104f44002330002b7ff44daf814b4ff0000283f8e8
:104f54002d2046e77e4a4ff0010182f82d107d4a4c
:104f640052f82330a9f800304ff47a602af0e6feb4
:104f74002268784b53f82230002b7ff432af744b05
:104f840093f82d30002b3ff42cafdde7714b9a6979
:104f940072490a619b69cbb16d4b9b795bb1226805
:104fa4006c4b53f82230002b7ff41baf684b4ff04f
:104fb40000029a7115e7664b4ff001029a71654b36
:104fc4009b6933804ff47a602af0b8fe2268614b03
:104fd40053f82230002b7ff404af5d4b9b79002bf8
:104fe4003ff4ffaee2e75b4bda695c494a61db6997
:104ff400cbb1574bdb795bb12268564b53f8223067
:10500400002b7ff4eeae524b4ff00002da71e8e66b
:105014004f4b4ff00102da714e4bdb6933804ff492
:105024007a602af08bfe22684a4b53f82230002b18
:105034007ff4d7ae464bdb79002b3ff4d2aee2e7e8
:10504400444b1a6a45498a611b6acbb1404b1b7aaf
:105054005bb122683f4b53f82230002b7ff4c1ae82
:105064003b4b4ff000021a72bbe6394b4ff0010282
:105074001a72384b1b6a33804ff47a602af05efe52
:105084002268344b53f82230002b7ff4aaae304b05
:105094001b7a002b3ff4a5aee2e72e4b5a6a2f4948
:1050a400ca615b6acbb12a4b5b7a5bb12268294b3c
:1050b40053f82230002b7ff494ae254b4ff00002be
:1050c4005a728ee6234b5b6a3380214b4ff0010208
:1050d4005a724ff47a602af031fe22681d4b53f85d
:1050e4002230002b7ff47dae194b5b7a002b3ff40a
:1050f40078aee2e7174b9a6a18490a629b6acbb109
:10510400134b9b7a5bb12268124b53f82230002b6d
:105114007ff467ae0e4b4ff000029a7261e60c4bbf
:105124004ff001029a720b4b9b6a33804ff47a6002
:105134002af004fe2268074b53f82230002b7ff438
:1051440050ae034b9b7a002b3ff44baee2e700bf1b
:1051540068910120088e01202093012028910120cc
:105164009a4bda6a9a494a62db6acbb1994bdb7a89
:105174005bb12268954b53f82230002b7ff431ae9b
:10518400944b4ff00002da722be6924b4ff001027f
:10519400da728e4bdb6a33804ff47a602af0cefdec
:1051a40022688a4b53f82230002b7ff41aae894bc5
:1051b400db7a002b3ff415aee2e7844b1a6b84498b
:1051c4008a621b6bd3b1834b1b7b5bb122687f4b21
:1051d40053f82230002b7ff404ae7e4b4ff00002d4
:1051e4001a73fee57b4b4ff001021a73774b1b6b6e
:1051f400aaf800304ff47a602af0a0fd2268734bbd
:1052040053f82230002b7ff4ecad724b1b7b002b48
:105214003ff4e7ade1e76d4b5a6b6d49ca625b6bd6
:10522400cbb16c4b5b7b5bb12268684b53f822308b
:10523400002b7ff4d6ad674b4ff000025a73d0e5d4
:10524400644b4ff001025a73604b5b6b33804ff435
:105254007a602af073fd22685c4b53f82230002bed
:105264007ff4bfad5b4b5b7b002b3ff4baade2e751
:10527400564bd3f88830012b20d0544bd3f88830c8
:10528400022b7ff4aead2368504a52f823005249f2
:10529400886052f82320002a4dd04e4a92f82f20dd
:1052a400002a3ad0494a52f82330002b7ff499adb2
:1052b400484b4ff0000283f82f2092e5434bd96b03
:1052c400464a9160db6be3b1424b93f82e305bb1fd
:1052d40022683e4b53f82230002bced13d4b4ff089
:1052e400000283f82e20c8e73a4b4ff0010283f8fe
:1052f4002e20364bdb6ba8f800304ff47a602af08e
:105304001dfd2268314b53f82230002bb5d1314baf
:1053140093f82e30002bb0d0e0e72e4a4ff0010175
:1053240082f82f10294a52f82330a9f800304ff49c
:105334007a602af003fd2268244b53f82230002bb4
:105344007ff44fad234b93f82f30002b3ff449ad3e
:10535400aee71e4bd3f8a430012b20d01b4bd3f85f
:10536400a430022b7ff43dad2368184a52f8230081
:105374001949c86052f82320002a57d0154a92f8d8
:105384003120002a44d0114a52f82330002b7ff4f4
:1053940028ad104b4ff0000283f8312021e50b4b70
:1053a400196c0e4ad1601b6c33b30a4b93f830303e
:1053b400b3b12268054b53f82230002bced1054bf4
:1053c4004ff0000283f83020c8e700bf088e0120a8
:1053d400289101206891012020930120f892012056
:1053e400a44b4ff0010283f83020a34b1b6c3b808d
:1053f4004ff47a602af0a2fc22689f4b53f82230c3
:10540400002babd19b4b93f83030002ba6d0d6e7c2
:10541400984a4ff0010182f83110974a52f823302c
:10542400abf800304ff47a602af088fc2268924b83
:1054340053f82230002b7ff4d4ac8e4b93f83130e8
:10544400002b3ff4ceaca4e78b4bd3f89c30012b5c
:1054540020d0894bd3f89c30022b7ff4c2ac236854
:10546400854a52f823008549086152f82320002a0e
:105474004dd0804a92f83320002a3ad07e4a52f81e
:105484002330002b7ff4adac7a4b4ff0000283f84d
:105494003320a6e4784b596c794a11615b6ce3b113
:1054a400744b93f832305bb12268734b53f822305b
:1054b400002bced16f4b4ff0000283f83220c8e7a7
:1054c4006c4b4ff0010283f832206b4b5b6ca8f8f5
:1054d40000304ff47a602af031fc2268664b53f8ae
:1054e4002230002bb5d1634b93f83230002bb0d06f
:1054f400e0e7604a4ff0010182f833105e4a52f847
:105504002330a9f800304ff47a602af017fc22689f
:10551400594b53f82230002b7ff463ac554b93f86e
:105524003330002b3ff45dacaee7534bd3f89c30e3
:10553400012b20d0504bd3f89c30022b7ff451ac7c
:1055440023684d4a52f823004c49486152f82320fd
:10555400002a43d0474a92f83520002a35d0464adb
:1055640052f82330002b7ff43cac424b4ff0000246
:1055740083f8352035e4404b996c414a51619b6c6a
:10558400bbb13c4b93f834305bb122683a4b53f8cf
:105594002230002bced1374b4ff0000283f8342059
:1055a400c8e7354b9b6ca8f800304ff47a602af0ba
:1055b400c5fb2268304b53f82230002bbad12d4b57
:1055c40093f83430002bb5d0e5e72b4a52f823305a
:1055d400a9f800304ff47a602af0b0fb2268264b19
:1055e40053f82230002b7ff4fcab224b93f8353078
:1055f400002b3ff4f6abb8e71f4bd3f89030012be8
:1056040021d01d4bd3f89030022b7ff4eaab2368f2
:10561400194a52f823001949886152f82320002ab4
:105624004dd0144a92f83720002a3fd0124a52f83b
:105634002330002b7ff4d5ab0e4b4ff0000283f8e0
:105644003720fff7cebb0c4bd96c0d4a9161db6c54
:1056540003b3084b93f83630a3b12268064b53f8d2
:105664002230002bcdd1034b4ff0000283f83620bb
:10567400c7e700bf68910120088e01202093012014
:10568400f8920120a84bdb6ca8f800304ff47a6044
:105694002af054fb2268a44b53f82230002bb0d1db
:1056a400a24b93f83630002babd0dce79e4a52f87d
:1056b4002330a9f800304ff47a602af03ffb2268c7
:1056c400994b53f82230002b7ff48bab974b93f814
:1056d4003730002b3ff485abaee7934bd3f89430cf
:1056e400012b21d0904bd3f89430022b7ff479ab6b
:1056f40023688d4a52f823008d49c86152f823204b
:10570400002a44d0894a92f83920002a36d0864aa1
:1057140052f82330002b7ff464ab844b4ff000022b
:1057240083f83920fff75dbb7f4b196d814ad16146
:105734001b6dbbb17d4b93f838305bb122687a4b5b
:1057440053f82230002bcdd1784b4ff0000283f870
:105754003820c7e7744b1b6da8f800304ff47a600b
:105764002af0ecfa2268704b53f82230002bb9d19e
:105774006e4b93f83830002bb4d0e5e76a4a52f800
:105784002330a9f800304ff47a602af0d7fa22685f
:10579400654b53f82230002b7ff423ab634b93f813
:1057a4003930002b3ff41dabb7e75f4bd3f898308b
:1057b400012b21d05c4bd3f89830022b7ff411ab32
:1057c4002368594a52f823005949086252f82320a1
:1057d400002a44d0554a92f83b20002a36d0524a37
:1057e40052f82330002b7ff4fcaa504b4ff00002f8
:1057f40083f83b20fff7f5ba4b4b596d4d4a1162c4
:105804005b6dbbb1494b93f83a305bb12268464bb0
:1058140053f82230002bcdd1444b4ff0000283f8d3
:105824003a20c7e7404b5b6da8f800304ff47a602c
:105834002af084fa22683c4b53f82230002bb9d169
:105844003a4b93f83a30002bb4d0e5e7364a52f895
:105854002330a9f800304ff47a602af06ffa2268f6
:10586400314b53f82230002b7ff4bbaa2f4b93f813
:105874003b30002b3ff4b5aab7e72b4b9a6d2e496a
:105884000a639b6ddbb1294b9b7d63b12268264b78
:1058940053f82230002b7ff4a4aa244b4ff00002cb
:1058a4009a75fff79eba214b4ff001029a751e4b71
:1058b4009b6daaf800304ff47a602af03ffa226810
:1058c400194b53f82230002b7ff48baa174b9b7d86
:1058d400002b3ff486aae0e7134bd3f88c30012b5e
:1058e4002cd0114bd3f88c30022b7ff47aaa236886
:1058f4000d4a52f823000e49486252f82320002a28
:105904004fd00a4a92f83d20002a41d0064a52f864
:105914002330002b7ff465aa044b4ff0000283f878
:105924003d20fff75eba00bf088e01206891012078
:1059340020930120f892012028910120934b196ea5
:10594400934a51621b6ebbb1924b93f83c305bb1ee
:1059540022688e4b53f82230002bc2d18d4b4ff06e
:10596400000283f83c20bce7884b1b6ea8f800308b
:105974004ff47a602af0e2f92268844b53f822301b
:10598400002baed1834b93f83c30002ba9d0e5e734
:105994007e4a52f82330a9f800304ff47a602af096
:1059a400cdf92268794b53f82230002b7ff419aae1
:1059b400784b93f83d30002b3ff413aaace7734bbc
:1059c4005a6e75494a635b6ed3b1724b5b7e63b1a9
:1059d40022686e4b53f82230002b7ff402aa6d4be1
:1059e4004ff000025a76fff7fcb96a4b4ff0010200
:1059f4005a76664b5b6e33804ff47a602af09ef9d8
:105a04002268624b53f82230002b7ff4eaa9614be1
:105a14005b7e002b3ff4e5a9e1e75c4b9a6e5e499f
:105a24008a639b6ed3b15b4b9b7e63b12268574bf9
:105a340053f82230002b7ff4d4a9564b4ff00002c8
:105a44009a76fff7ceb9534b4ff001029a764f4b3b
:105a54009b6e33804ff47a602af070f922684b4bc6
:105a640053f82230002b7ff4bca94a4b9b7e002bb9
:105a74003ff4b7a9e1e7454bda6e47498a63db6e29
:105a8400d3b1444bdb7e63b12268404b53f82230e0
:105a9400002b7ff4a6a93f4b4ff00002da76fff704
:105aa400a0b93c4b4ff00102da76384bdb6e338001
